{"abi":[{"type":"constructor","inputs":[{"name":"_leverageCore","type":"address","internalType":"address"}],"stateMutability":"nonpayable"},{"type":"function","name":"execute","inputs":[{"name":"target","type":"address","internalType":"address"},{"name":"data","type":"bytes","internalType":"bytes"}],"outputs":[{"name":"result","type":"bytes","internalType":"bytes"}],"stateMutability":"nonpayable"},{"type":"function","name":"leverageCore","inputs":[],"outputs":[{"name":"","type":"address","internalType":"address"}],"stateMutability":"view"}],"bytecode":{"object":"0x60a06040523461003f57610019610014610104565b610125565b610021610044565b61051b61012b82396080518181816101d101526102f1015261051b90f35b61004a565b60405190565b5f80fd5b601f801991011690565b634e487b7160e01b5f52604160045260245ffd5b906100769061004e565b810190811060018060401b0382111761008e57604052565b610058565b906100a661009f610044565b928361006c565b565b5f80fd5b60018060a01b031690565b6100c0906100ac565b90565b6100cc816100b7565b036100d357565b5f80fd5b905051906100e4826100c3565b565b906020828203126100ff576100fc915f016100d7565b90565b6100a8565b6101226106468038038061011781610093565b9283398101906100e6565b90565b60805256fe60806040526004361015610013575b61024a565b61001d5f3561003c565b80631cff79cd146100375763dd72047f0361000e57610215565b61018a565b60e01c90565b60405190565b5f80fd5b5f80fd5b5f80fd5b60018060a01b031690565b61006890610054565b90565b6100748161005f565b0361007b57565b5f80fd5b9050359061008c8261006b565b565b5f80fd5b5f80fd5b5f80fd5b909182601f830112156100d45781359167ffffffffffffffff83116100cf5760200192600183028401116100ca57565b610096565b610092565b61008e565b91909160408184031261011a576100f2835f830161007f565b92602082013567ffffffffffffffff811161011557610111920161009a565b9091565b610050565b61004c565b5190565b60209181520190565b90825f9392825e0152565b601f801991011690565b61016061016960209361016e936101578161011f565b93848093610123565b9586910161012c565b610137565b0190565b6101879160208201915f818403910152610141565b90565b346101bb576101b76101a66101a03660046100d9565b916104cf565b6101ae610042565b91829182610172565b0390f35b610048565b5f9103126101ca57565b61004c565b7f000000000000000000000000000000000000000000000000000000000000000090565b6101fc9061005f565b9052565b9190610213905f602085019401906101f3565b565b34610245576102253660046101c0565b6102416102306101cf565b610238610042565b91829182610200565b0390f35b610048565b5f80fd5b606090565b60209181520190565b5f7f5573657250726f78793a206f6e6c79206c6576657261676520636f7265000000910152565b610290601d602092610253565b6102998161025c565b0190565b6102b29060208101905f818303910152610283565b90565b156102bc57565b6102c4610042565b62461bcd60e51b8152806102da6004820161029d565b0390fd5b906103269392916103213361031b6103157f000000000000000000000000000000000000000000000000000000000000000061005f565b9161005f565b146102b5565b610499565b90565b905090565b90825f939282370152565b9091826103498161035093610329565b809361032e565b0190565b909161035f92610339565b90565b634e487b7160e01b5f52604160045260245ffd5b9061038090610137565b810190811067ffffffffffffffff82111761039a57604052565b610362565b906103b26103ab610042565b9283610376565b565b67ffffffffffffffff81116103d2576103ce602091610137565b0190565b610362565b906103e96103e4836103b4565b61039f565b918252565b3d5f14610409576103fe3d6103d7565b903d5f602084013e5b565b61041161024e565b90610407565b5f7f5573657250726f78793a2063616c6c206661696c656400000000000000000000910152565b61044b6016602092610253565b61045481610417565b0190565b61046d9060208101905f81830391015261043e565b90565b1561047757565b61047f610042565b62461bcd60e51b81528061049560048201610458565b0390fd5b925f80949281949350926104b76104ae610042565b93849283610354565b03925af16104cc6104c66103ee565b91610470565b90565b906104e292916104dd61024e565b6102de565b9056fea26469706673582212202a4b6b95e9beb7c98cff7e4d8098098d9e7303a0022473e6832680236226dc8b64736f6c634300081e0033","linkReferences":{}},"methodIdentifiers":{"execute(address,bytes)":"1cff79cd","leverageCore()":"dd72047f"},"id":80}