{"abi":[{"type":"constructor","inputs":[{"name":"_leverageCore","type":"address","internalType":"address"},{"name":"_morpho","type":"address","internalType":"address"}],"stateMutability":"nonpayable"},{"type":"function","name":"execute","inputs":[{"name":"data","type":"bytes","internalType":"bytes"}],"outputs":[{"name":"result","type":"bytes","internalType":"bytes"}],"stateMutability":"nonpayable"},{"type":"function","name":"initialize","inputs":[{"name":"_user","type":"address","internalType":"address"}],"outputs":[],"stateMutability":"nonpayable"},{"type":"function","name":"leverageCore","inputs":[],"outputs":[{"name":"","type":"address","internalType":"address"}],"stateMutability":"view"},{"type":"function","name":"morpho","inputs":[],"outputs":[{"name":"","type":"address","internalType":"address"}],"stateMutability":"view"},{"type":"function","name":"user","inputs":[],"outputs":[{"name":"","type":"address","internalType":"address"}],"stateMutability":"view"}],"bytecode":{"object":"0x60c03461008757601f61071d38819003918201601f19168301916001600160401b0383118484101761008b57808492604094855283398101031261008757610052602061004b8361009f565b920161009f565b9060805260a05260405161066990816100b48239608051818181609d01526102e4015260a05181818161010f015261033f0152f35b5f80fd5b634e487b7160e01b5f52604160045260245ffd5b51906001600160a01b03821682036100875756fe6080806040526004361015610012575f80fd5b5f3560e01c90816309c5eabe14610275575080634f8632ba14610225578063c4d66de814610133578063d8fbc833146100c55763dd72047f14610053575f80fd5b346100c1575f7ffffffffffffffffffffffffffffffffffffffffffffffffffffffffffffffffc3601126100c157602060405173ffffffffffffffffffffffffffffffffffffffff7f0000000000000000000000000000000000000000000000000000000000000000168152f35b5f80fd5b346100c1575f7ffffffffffffffffffffffffffffffffffffffffffffffffffffffffffffffffc3601126100c157602060405173ffffffffffffffffffffffffffffffffffffffff7f0000000000000000000000000000000000000000000000000000000000000000168152f35b346100c15760207ffffffffffffffffffffffffffffffffffffffffffffffffffffffffffffffffc3601126100c15760043573ffffffffffffffffffffffffffffffffffffffff81168091036100c1575f5473ffffffffffffffffffffffffffffffffffffffff81166101c7577fffffffffffffffffffffffff000000000000000000000000000000000000000016175f55005b60646040517f08c379a000000000000000000000000000000000000000000000000000000000815260206004820152601e60248201527f5573657250726f78793a20416c726561647920496e697469616c697a656400006044820152fd5b346100c1575f7ffffffffffffffffffffffffffffffffffffffffffffffffffffffffffffffffc3601126100c157602073ffffffffffffffffffffffffffffffffffffffff5f5416604051908152f35b346100c15760207ffffffffffffffffffffffffffffffffffffffffffffffffffffffffffffffffc3601126100c15760043567ffffffffffffffff81116100c157366023820112156100c15780600401359167ffffffffffffffff83116100c15736602484840101116100c1577f00000000000000000000000000000000000000000000000000000000000000009073ffffffffffffffffffffffffffffffffffffffff8216330361041b575b505060245f929182849360405193849301833781018381520390827f00000000000000000000000000000000000000000000000000000000000000005af16103686105d6565b90156103bd5760406020917fffffffffffffffffffffffffffffffffffffffffffffffffffffffffffffffe0601f835194859381855280519182918282880152018686015e5f85828601015201168101030190f35b60646040517f08c379a000000000000000000000000000000000000000000000000000000000815260206004820152601660248201527f5573657250726f78793a2043616c6c204661696c6564000000000000000000006044820152fd5b73ffffffffffffffffffffffffffffffffffffffff5f541633145f1461050c57505f80916040518260208201917f07a00b1f0000000000000000000000000000000000000000000000000000000083526004815261047a602482610568565b51925af1506104876105d6565b6020818051810103126100c157602001518015908115036100c1576104ae5760245f610322565b60646040517f08c379a000000000000000000000000000000000000000000000000000000000815260206004820152601f60248201527f5573657250726f78793a204e6f7420696e205265636f76657279204d6f6465006044820152fd5b807f08c379a0000000000000000000000000000000000000000000000000000000006064925260206004820152601760248201527f5573657250726f78793a20556e617574686f72697365640000000000000000006044820152fd5b90601f7fffffffffffffffffffffffffffffffffffffffffffffffffffffffffffffffe0910116810190811067ffffffffffffffff8211176105a957604052565b7f4e487b71000000000000000000000000000000000000000000000000000000005f52604160045260245ffd5b3d1561062e573d9067ffffffffffffffff82116105a9576040519161062360207fffffffffffffffffffffffffffffffffffffffffffffffffffffffffffffffe0601f8401160184610568565b82523d5f602084013e565b60609056fea26469706673582212207fbef786f82b4f1fa2fe482ee5dffb2ad595b5bb3fa79d343b13a090f5878ee564736f6c634300081e0033","linkReferences":{}},"methodIdentifiers":{"execute(bytes)":"09c5eabe","initialize(address)":"c4d66de8","leverageCore()":"dd72047f","morpho()":"d8fbc833","user()":"4f8632ba"},"id":79}