{"abi":[{"type":"constructor","inputs":[{"name":"name","type":"string","internalType":"string"},{"name":"symbol","type":"string","internalType":"string"}],"stateMutability":"nonpayable"},{"type":"function","name":"allowance","inputs":[{"name":"owner","type":"address","internalType":"address"},{"name":"spender","type":"address","internalType":"address"}],"outputs":[{"name":"","type":"uint256","internalType":"uint256"}],"stateMutability":"view"},{"type":"function","name":"approve","inputs":[{"name":"spender","type":"address","internalType":"address"},{"name":"value","type":"uint256","internalType":"uint256"}],"outputs":[{"name":"","type":"bool","internalType":"bool"}],"stateMutability":"nonpayable"},{"type":"function","name":"balanceOf","inputs":[{"name":"account","type":"address","internalType":"address"}],"outputs":[{"name":"","type":"uint256","internalType":"uint256"}],"stateMutability":"view"},{"type":"function","name":"burn","inputs":[{"name":"account","type":"address","internalType":"address"},{"name":"amount","type":"uint256","internalType":"uint256"}],"outputs":[],"stateMutability":"nonpayable"},{"type":"function","name":"decimals","inputs":[],"outputs":[{"name":"","type":"uint8","internalType":"uint8"}],"stateMutability":"view"},{"type":"function","name":"mint","inputs":[{"name":"account","type":"address","internalType":"address"},{"name":"amount","type":"uint256","internalType":"uint256"}],"outputs":[],"stateMutability":"nonpayable"},{"type":"function","name":"name","inputs":[],"outputs":[{"name":"","type":"string","internalType":"string"}],"stateMutability":"view"},{"type":"function","name":"symbol","inputs":[],"outputs":[{"name":"","type":"string","internalType":"string"}],"stateMutability":"view"},{"type":"function","name":"totalSupply","inputs":[],"outputs":[{"name":"","type":"uint256","internalType":"uint256"}],"stateMutability":"view"},{"type":"function","name":"transfer","inputs":[{"name":"to","type":"address","internalType":"address"},{"name":"value","type":"uint256","internalType":"uint256"}],"outputs":[{"name":"","type":"bool","internalType":"bool"}],"stateMutability":"nonpayable"},{"type":"function","name":"transferFrom","inputs":[{"name":"from","type":"address","internalType":"address"},{"name":"to","type":"address","internalType":"address"},{"name":"value","type":"uint256","internalType":"uint256"}],"outputs":[{"name":"","type":"bool","internalType":"bool"}],"stateMutability":"nonpayable"},{"type":"event","name":"Approval","inputs":[{"name":"owner","type":"address","indexed":true,"internalType":"address"},{"name":"spender","type":"address","indexed":true,"internalType":"address"},{"name":"value","type":"uint256","indexed":false,"internalType":"uint256"}],"anonymous":false},{"type":"event","name":"Transfer","inputs":[{"name":"from","type":"address","indexed":true,"internalType":"address"},{"name":"to","type":"address","indexed":true,"internalType":"address"},{"name":"value","type":"uint256","indexed":false,"internalType":"uint256"}],"anonymous":false},{"type":"error","name":"ERC20InsufficientAllowance","inputs":[{"name":"spender","type":"address","internalType":"address"},{"name":"allowance","type":"uint256","internalType":"uint256"},{"name":"needed","type":"uint256","internalType":"uint256"}]},{"type":"error","name":"ERC20InsufficientBalance","inputs":[{"name":"sender","type":"address","internalType":"address"},{"name":"balance","type":"uint256","internalType":"uint256"},{"name":"needed","type":"uint256","internalType":"uint256"}]},{"type":"error","name":"ERC20InvalidApprover","inputs":[{"name":"approver","type":"address","internalType":"address"}]},{"type":"error","name":"ERC20InvalidReceiver","inputs":[{"name":"receiver","type":"address","internalType":"address"}]},{"type":"error","name":"ERC20InvalidSender","inputs":[{"name":"sender","type":"address","internalType":"address"}]},{"type":"error","name":"ERC20InvalidSpender","inputs":[{"name":"spender","type":"address","internalType":"address"}]}],"bytecode":{"object":"0x608060405234801561000f575f5ffd5b50604051611455380380611455833981810160405281019061003191906101a9565b81818160039081610042919061042f565b508060049081610052919061042f565b50505050506104fe565b5f604051905090565b5f5ffd5b5f5ffd5b5f5ffd5b5f5ffd5b5f601f19601f8301169050919050565b7f4e487b71000000000000000000000000000000000000000000000000000000005f52604160045260245ffd5b6100bb82610075565b810181811067ffffffffffffffff821117156100da576100d9610085565b5b80604052505050565b5f6100ec61005c565b90506100f882826100b2565b919050565b5f67ffffffffffffffff82111561011757610116610085565b5b61012082610075565b9050602081019050919050565b8281835e5f83830152505050565b5f61014d610148846100fd565b6100e3565b90508281526020810184848401111561016957610168610071565b5b61017484828561012d565b509392505050565b5f82601f8301126101905761018f61006d565b5b81516101a084826020860161013b565b91505092915050565b5f5f604083850312156101bf576101be610065565b5b5f83015167ffffffffffffffff8111156101dc576101db610069565b5b6101e88582860161017c565b925050602083015167ffffffffffffffff81111561020957610208610069565b5b6102158582860161017c565b9150509250929050565b5f81519050919050565b7f4e487b71000000000000000000000000000000000000000000000000000000005f52602260045260245ffd5b5f600282049050600182168061026d57607f821691505b6020821081036102805761027f610229565b5b50919050565b5f819050815f5260205f209050919050565b5f6020601f8301049050919050565b5f82821b905092915050565b5f600883026102e27fffffffffffffffffffffffffffffffffffffffffffffffffffffffffffffffff826102a7565b6102ec86836102a7565b95508019841693508086168417925050509392505050565b5f819050919050565b5f819050919050565b5f61033061032b61032684610304565b61030d565b610304565b9050919050565b5f819050919050565b61034983610316565b61035d61035582610337565b8484546102b3565b825550505050565b5f5f905090565b610374610365565b61037f818484610340565b505050565b5b818110156103a2576103975f8261036c565b600181019050610385565b5050565b601f8211156103e7576103b881610286565b6103c184610298565b810160208510156103d0578190505b6103e46103dc85610298565b830182610384565b50505b505050565b5f82821c905092915050565b5f6104075f19846008026103ec565b1980831691505092915050565b5f61041f83836103f8565b9150826002028217905092915050565b6104388261021f565b67ffffffffffffffff81111561045157610450610085565b5b61045b8254610256565b6104668282856103a6565b5f60209050601f831160018114610497575f8415610485578287015190505b61048f8582610414565b8655506104f6565b601f1984166104a586610286565b5f5b828110156104cc578489015182556001820191506020850194506020810190506104a7565b868310156104e957848901516104e5601f8916826103f8565b8355505b6001600288020188555050505b505050505050565b610f4a8061050b5f395ff3fe608060405234801561000f575f5ffd5b50600436106100a7575f3560e01c806340c10f191161006f57806340c10f191461016557806370a082311461018157806395d89b41146101b15780639dc29fac146101cf578063a9059cbb146101eb578063dd62ed3e1461021b576100a7565b806306fdde03146100ab578063095ea7b3146100c957806318160ddd146100f957806323b872dd14610117578063313ce56714610147575b5f5ffd5b6100b361024b565b6040516100c09190610bc3565b60405180910390f35b6100e360048036038101906100de9190610c74565b6102db565b6040516100f09190610ccc565b60405180910390f35b6101016102fd565b60405161010e9190610cf4565b60405180910390f35b610131600480360381019061012c9190610d0d565b610306565b60405161013e9190610ccc565b60405180910390f35b61014f610334565b60405161015c9190610d78565b60405180910390f35b61017f600480360381019061017a9190610c74565b61033c565b005b61019b60048036038101906101969190610d91565b61034a565b6040516101a89190610cf4565b60405180910390f35b6101b961038f565b6040516101c69190610bc3565b60405180910390f35b6101e960048036038101906101e49190610c74565b61041f565b005b61020560048036038101906102009190610c74565b61042d565b6040516102129190610ccc565b60405180910390f35b61023560048036038101906102309190610dbc565b61044f565b6040516102429190610cf4565b60405180910390f35b60606003805461025a90610e27565b80601f016020809104026020016040519081016040528092919081815260200182805461028690610e27565b80156102d15780601f106102a8576101008083540402835291602001916102d1565b820191905f5260205f20905b8154815290600101906020018083116102b457829003601f168201915b5050505050905090565b5f5f6102e56104d1565b90506102f28185856104d8565b600191505092915050565b5f600254905090565b5f5f6103106104d1565b905061031d8582856104ea565b61032885858561057d565b60019150509392505050565b5f6012905090565b610346828261066d565b5050565b5f5f5f8373ffffffffffffffffffffffffffffffffffffffff1673ffffffffffffffffffffffffffffffffffffffff1681526020019081526020015f20549050919050565b60606004805461039e90610e27565b80601f01602080910402602001604051908101604052809291908181526020018280546103ca90610e27565b80156104155780601f106103ec57610100808354040283529160200191610415565b820191905f5260205f20905b8154815290600101906020018083116103f857829003601f168201915b5050505050905090565b61042982826106ec565b5050565b5f5f6104376104d1565b905061044481858561057d565b600191505092915050565b5f60015f8473ffffffffffffffffffffffffffffffffffffffff1673ffffffffffffffffffffffffffffffffffffffff1681526020019081526020015f205f8373ffffffffffffffffffffffffffffffffffffffff1673ffffffffffffffffffffffffffffffffffffffff1681526020019081526020015f2054905092915050565b5f33905090565b6104e5838383600161076b565b505050565b5f6104f5848461044f565b90507fffffffffffffffffffffffffffffffffffffffffffffffffffffffffffffffff8110156105775781811015610568578281836040517ffb8f41b200000000000000000000000000000000000000000000000000000000815260040161055f93929190610e66565b60405180910390fd5b61057684848484035f61076b565b5b50505050565b5f73ffffffffffffffffffffffffffffffffffffffff168373ffffffffffffffffffffffffffffffffffffffff16036105ed575f6040517f96c6fd1e0000000000000000000000000000000000000000000000000000000081526004016105e49190610e9b565b60405180910390fd5b5f73ffffffffffffffffffffffffffffffffffffffff168273ffffffffffffffffffffffffffffffffffffffff160361065d575f6040517fec442f050000000000000000000000000000000000000000000000000000000081526004016106549190610e9b565b60405180910390fd5b61066883838361093a565b505050565b5f73ffffffffffffffffffffffffffffffffffffffff168273ffffffffffffffffffffffffffffffffffffffff16036106dd575f6040517fec442f050000000000000000000000000000000000000000000000000000000081526004016106d49190610e9b565b60405180910390fd5b6106e85f838361093a565b5050565b5f73ffffffffffffffffffffffffffffffffffffffff168273ffffffffffffffffffffffffffffffffffffffff160361075c575f6040517f96c6fd1e0000000000000000000000000000000000000000000000000000000081526004016107539190610e9b565b60405180910390fd5b610767825f8361093a565b5050565b5f73ffffffffffffffffffffffffffffffffffffffff168473ffffffffffffffffffffffffffffffffffffffff16036107db575f6040517fe602df050000000000000000000000000000000000000000000000000000000081526004016107d29190610e9b565b60405180910390fd5b5f73ffffffffffffffffffffffffffffffffffffffff168373ffffffffffffffffffffffffffffffffffffffff160361084b575f6040517f94280d620000000000000000000000000000000000000000000000000000000081526004016108429190610e9b565b60405180910390fd5b8160015f8673ffffffffffffffffffffffffffffffffffffffff1673ffffffffffffffffffffffffffffffffffffffff1681526020019081526020015f205f8573ffffffffffffffffffffffffffffffffffffffff1673ffffffffffffffffffffffffffffffffffffffff1681526020019081526020015f20819055508015610934578273ffffffffffffffffffffffffffffffffffffffff168473ffffffffffffffffffffffffffffffffffffffff167f8c5be1e5ebec7d5bd14f71427d1e84f3dd0314c0f7b2291e5b200ac8c7c3b9258460405161092b9190610cf4565b60405180910390a35b50505050565b5f73ffffffffffffffffffffffffffffffffffffffff168373ffffffffffffffffffffffffffffffffffffffff160361098a578060025f82825461097e9190610ee1565b92505081905550610a58565b5f5f5f8573ffffffffffffffffffffffffffffffffffffffff1673ffffffffffffffffffffffffffffffffffffffff1681526020019081526020015f2054905081811015610a13578381836040517fe450d38c000000000000000000000000000000000000000000000000000000008152600401610a0a93929190610e66565b60405180910390fd5b8181035f5f8673ffffffffffffffffffffffffffffffffffffffff1673ffffffffffffffffffffffffffffffffffffffff1681526020019081526020015f2081905550505b5f73ffffffffffffffffffffffffffffffffffffffff168273ffffffffffffffffffffffffffffffffffffffff1603610a9f578060025f8282540392505081905550610ae9565b805f5f8473ffffffffffffffffffffffffffffffffffffffff1673ffffffffffffffffffffffffffffffffffffffff1681526020019081526020015f205f82825401925050819055505b8173ffffffffffffffffffffffffffffffffffffffff168373ffffffffffffffffffffffffffffffffffffffff167fddf252ad1be2c89b69c2b068fc378daa952ba7f163c4a11628f55a4df523b3ef83604051610b469190610cf4565b60405180910390a3505050565b5f81519050919050565b5f82825260208201905092915050565b8281835e5f83830152505050565b5f601f19601f8301169050919050565b5f610b9582610b53565b610b9f8185610b5d565b9350610baf818560208601610b6d565b610bb881610b7b565b840191505092915050565b5f6020820190508181035f830152610bdb8184610b8b565b905092915050565b5f5ffd5b5f73ffffffffffffffffffffffffffffffffffffffff82169050919050565b5f610c1082610be7565b9050919050565b610c2081610c06565b8114610c2a575f5ffd5b50565b5f81359050610c3b81610c17565b92915050565b5f819050919050565b610c5381610c41565b8114610c5d575f5ffd5b50565b5f81359050610c6e81610c4a565b92915050565b5f5f60408385031215610c8a57610c89610be3565b5b5f610c9785828601610c2d565b9250506020610ca885828601610c60565b9150509250929050565b5f8115159050919050565b610cc681610cb2565b82525050565b5f602082019050610cdf5f830184610cbd565b92915050565b610cee81610c41565b82525050565b5f602082019050610d075f830184610ce5565b92915050565b5f5f5f60608486031215610d2457610d23610be3565b5b5f610d3186828701610c2d565b9350506020610d4286828701610c2d565b9250506040610d5386828701610c60565b9150509250925092565b5f60ff82169050919050565b610d7281610d5d565b82525050565b5f602082019050610d8b5f830184610d69565b92915050565b5f60208284031215610da657610da5610be3565b5b5f610db384828501610c2d565b91505092915050565b5f5f60408385031215610dd257610dd1610be3565b5b5f610ddf85828601610c2d565b9250506020610df085828601610c2d565b9150509250929050565b7f4e487b71000000000000000000000000000000000000000000000000000000005f52602260045260245ffd5b5f6002820490506001821680610e3e57607f821691505b602082108103610e5157610e50610dfa565b5b50919050565b610e6081610c06565b82525050565b5f606082019050610e795f830186610e57565b610e866020830185610ce5565b610e936040830184610ce5565b949350505050565b5f602082019050610eae5f830184610e57565b92915050565b7f4e487b71000000000000000000000000000000000000000000000000000000005f52601160045260245ffd5b5f610eeb82610c41565b9150610ef683610c41565b9250828201905080821115610f0e57610f0d610eb4565b5b9291505056fea2646970667358221220b5b04ae22aacdac8170edd43b60f9e2bd10fa7766c480618c226756fbcc5e42d64736f6c634300081e0033","linkReferences":{}},"methodIdentifiers":{"allowance(address,address)":"dd62ed3e","approve(address,uint256)":"095ea7b3","balanceOf(address)":"70a08231","burn(address,uint256)":"9dc29fac","decimals()":"313ce567","mint(address,uint256)":"40c10f19","name()":"06fdde03","symbol()":"95d89b41","totalSupply()":"18160ddd","transfer(address,uint256)":"a9059cbb","transferFrom(address,address,uint256)":"23b872dd"},"id":63}