{"abi":[{"type":"constructor","inputs":[{"name":"_decimals","type":"uint8","internalType":"uint8"},{"name":"_initialAnswer","type":"int256","internalType":"int256"}],"stateMutability":"nonpayable"},{"type":"function","name":"decimals","inputs":[],"outputs":[{"name":"","type":"uint8","internalType":"uint8"}],"stateMutability":"view"},{"type":"function","name":"description","inputs":[],"outputs":[{"name":"","type":"string","internalType":"string"}],"stateMutability":"pure"},{"type":"function","name":"getAnswer","inputs":[{"name":"","type":"uint256","internalType":"uint256"}],"outputs":[{"name":"","type":"int256","internalType":"int256"}],"stateMutability":"view"},{"type":"function","name":"getRoundData","inputs":[{"name":"_roundId","type":"uint80","internalType":"uint80"}],"outputs":[{"name":"roundId","type":"uint80","internalType":"uint80"},{"name":"answer","type":"int256","internalType":"int256"},{"name":"startedAt","type":"uint256","internalType":"uint256"},{"name":"updatedAt","type":"uint256","internalType":"uint256"},{"name":"answeredInRound","type":"uint80","internalType":"uint80"}],"stateMutability":"view"},{"type":"function","name":"getTimestamp","inputs":[{"name":"","type":"uint256","internalType":"uint256"}],"outputs":[{"name":"","type":"uint256","internalType":"uint256"}],"stateMutability":"view"},{"type":"function","name":"latestAnswer","inputs":[],"outputs":[{"name":"","type":"int256","internalType":"int256"}],"stateMutability":"view"},{"type":"function","name":"latestRound","inputs":[],"outputs":[{"name":"","type":"uint256","internalType":"uint256"}],"stateMutability":"view"},{"type":"function","name":"latestRoundData","inputs":[],"outputs":[{"name":"roundId","type":"uint80","internalType":"uint80"},{"name":"answer","type":"int256","internalType":"int256"},{"name":"startedAt","type":"uint256","internalType":"uint256"},{"name":"updatedAt","type":"uint256","internalType":"uint256"},{"name":"answeredInRound","type":"uint80","internalType":"uint80"}],"stateMutability":"view"},{"type":"function","name":"latestTimestamp","inputs":[],"outputs":[{"name":"","type":"uint256","internalType":"uint256"}],"stateMutability":"view"},{"type":"function","name":"updateAnswer","inputs":[{"name":"_answer","type":"int256","internalType":"int256"}],"outputs":[],"stateMutability":"nonpayable"},{"type":"function","name":"updateRoundData","inputs":[{"name":"_roundId","type":"uint80","internalType":"uint80"},{"name":"_answer","type":"int256","internalType":"int256"},{"name":"_timestamp","type":"uint256","internalType":"uint256"},{"name":"_startedAt","type":"uint256","internalType":"uint256"}],"outputs":[],"stateMutability":"nonpayable"},{"type":"function","name":"version","inputs":[],"outputs":[{"name":"","type":"uint256","internalType":"uint256"}],"stateMutability":"view"},{"type":"event","name":"AnswerUpdated","inputs":[{"name":"current","type":"int256","indexed":true,"internalType":"int256"},{"name":"roundId","type":"uint256","indexed":true,"internalType":"uint256"},{"name":"updatedAt","type":"uint256","indexed":false,"internalType":"uint256"}],"anonymous":false},{"type":"event","name":"NewRound","inputs":[{"name":"roundId","type":"uint256","indexed":true,"internalType":"uint256"},{"name":"startedBy","type":"address","indexed":true,"internalType":"address"},{"name":"startedAt","type":"uint256","indexed":false,"internalType":"uint256"}],"anonymous":false}],"bytecode":{"object":"0x6080604052346100305761001a610014610119565b90610198565b610022610035565b610c116103588239610c1190f35b61003b565b60405190565b5f80fd5b601f801991011690565b634e487b7160e01b5f52604160045260245ffd5b906100679061003f565b810190811060018060401b0382111761007f57604052565b610049565b90610097610090610035565b928361005d565b565b5f80fd5b60ff1690565b6100ac8161009d565b036100b357565b5f80fd5b905051906100c4826100a3565b565b90565b6100d2816100c6565b036100d957565b5f80fd5b905051906100ea826100c9565b565b91906040838203126101145780610108610111925f86016100b7565b936020016100dd565b90565b610099565b610137610f698038038061012c81610084565b9283398101906100ec565b9091565b5f1b90565b9061014c60ff9161013b565b9181191691161790565b90565b61016d6101686101729261009d565b610156565b61009d565b90565b90565b9061018d61018861019492610159565b610175565b8254610140565b9055565b906101a66101ab925f610178565b6102c9565b565b906101b95f199161013b565b9181191691161790565b6101d76101d26101dc926100c6565b610156565b6100c6565b90565b90565b906101f76101f26101fe926101c3565b6101df565b82546101ad565b9055565b90565b61021961021461021e92610202565b610156565b610202565b90565b90565b9061023961023461024092610205565b610221565b82546101ad565b9055565b5f1c90565b90565b61025861025d91610244565b610249565b90565b61026a905461024c565b90565b634e487b7160e01b5f52601160045260245ffd5b61028a90610202565b5f1981146102985760010190565b61026d565b906102a790610205565b5f5260205260405f2090565b906102bd90610205565b5f5260205260405f2090565b610319906102d88160016101e2565b6102e3426002610224565b6102ff6102f86102f36003610260565b610281565b6003610224565b610314600461030e6003610260565b9061029d565b6101e2565b61033742610332600561032c6003610260565b906102b3565b610224565b61035542610350600661034a6003610260565b906102b3565b610224565b56fe60806040526004361015610013575b610747565b61001d5f356100dc565b8063313ce567146100d75780634aa2011f146100d257806350d25bcd146100cd57806354fd4d50146100c8578063668a0f02146100c35780637284e416146100be5780638205bf6a146100b95780639a6fc8f5146100b4578063a87a20ce146100af578063b5ab58dc146100aa578063b633620c146100a55763feaf968c0361000e5761070e565b6106d9565b610675565b6105d9565b610582565b6104d5565b610491565b6103f1565b610384565b6102f4565b610263565b610165565b60e01c90565b60405190565b5f80fd5b5f80fd5b5f9103126100fa57565b6100ec565b1c90565b60ff1690565b61011990600861011e93026100ff565b610103565b90565b9061012c9154610109565b90565b61013a5f5f90610121565b90565b60ff1690565b61014c9061013d565b9052565b9190610163905f60208501940190610143565b565b34610195576101753660046100f0565b61019161018061012f565b6101886100e2565b91829182610150565b0390f35b6100e8565b69ffffffffffffffffffff1690565b6101b28161019a565b036101b957565b5f80fd5b905035906101ca826101a9565b565b90565b6101d8816101cc565b036101df57565b5f80fd5b905035906101f0826101cf565b565b90565b6101fe816101f2565b0361020557565b5f80fd5b90503590610216826101f5565b565b6080818303126102595761022e825f83016101bd565b9261025661023f84602085016101e3565b9361024d8160408601610209565b93606001610209565b90565b6100ec565b5f0190565b346102955761027f610276366004610218565b9291909161080a565b6102876100e2565b806102918161025e565b0390f35b6100e8565b90565b6102ad9060086102b293026100ff565b61029a565b90565b906102c0915461029d565b90565b6102cf60015f906102b5565b90565b6102db906101cc565b9052565b91906102f2905f602085019401906102d2565b565b34610324576103043660046100f0565b61032061030f6102c3565b6103176100e2565b918291826102df565b0390f35b6100e8565b90565b90565b61034361033e61034892610329565b61032c565b6101f2565b90565b6103545f61032f565b90565b61035f61034b565b90565b61036b906101f2565b9052565b9190610382905f60208501940190610362565b565b346103b4576103943660046100f0565b6103b061039f610357565b6103a76100e2565b9182918261036f565b0390f35b6100e8565b90565b6103cc9060086103d193026100ff565b6103b9565b90565b906103df91546103bc565b90565b6103ee60035f906103d4565b90565b34610421576104013660046100f0565b61041d61040c6103e2565b6104146100e2565b9182918261036f565b0390f35b6100e8565b5190565b60209181520190565b90825f9392825e0152565b601f801991011690565b6104676104706020936104759361045e81610426565b9384809361042a565b95869101610433565b61043e565b0190565b61048e9160208201915f818403910152610448565b90565b346104c1576104a13660046100f0565b6104bd6104ac61096b565b6104b46100e2565b91829182610479565b0390f35b6100e8565b6104d260025f906103d4565b90565b34610505576104e53660046100f0565b6105016104f06104c6565b6104f86100e2565b9182918261036f565b0390f35b6100e8565b9060208282031261052357610520915f016101bd565b90565b6100ec565b6105319061019a565b9052565b909594926105809461056f6105799261056560809661055b60a088019c5f890190610528565b60208701906102d2565b6040850190610362565b6060830190610362565b0190610528565b565b346105b6576105b261059d61059836600461050a565b6109d8565b916105a99593956100e2565b95869586610535565b0390f35b6100e8565b906020828203126105d4576105d1915f016101e3565b90565b6100ec565b34610607576105f16105ec3660046105bb565b610a7e565b6105f96100e2565b806106038161025e565b0390f35b6100e8565b9060208282031261062557610622915f01610209565b90565b6100ec565b61063e610639610643926101f2565b61032c565b6101f2565b90565b906106509061062a565b5f5260205260405f2090565b6106729061066d6004915f92610646565b6102b5565b90565b346106a5576106a161069061068b36600461060c565b61065c565b6106986100e2565b918291826102df565b0390f35b6100e8565b906106b49061062a565b5f5260205260405f2090565b6106d6906106d16005915f926106aa565b6103d4565b90565b34610709576107056106f46106ef36600461060c565b6106c0565b6106fc6100e2565b9182918261036f565b0390f35b6100e8565b346107425761071e3660046100f0565b61073e610729610b28565b916107359593956100e2565b95869586610535565b0390f35b6100e8565b5f80fd5b61075f61075a6107649261019a565b61032c565b6101f2565b90565b5f1b90565b906107785f1991610767565b9181191691161790565b90565b9061079a6107956107a19261062a565b610782565b825461076c565b9055565b6107b96107b46107be926101cc565b61032c565b6101cc565b90565b90565b906107d96107d46107e0926107a5565b6107c1565b825461076c565b9055565b5f1c90565b6107f56107fa916107e4565b6103b9565b90565b61080790546107e9565b90565b916108596108739261082961082261088d979661074b565b6003610785565b6108348160016107c4565b61083f836002610785565b610854600461084e60036107fd565b90610646565b6107c4565b61086e600561086860036107fd565b906106aa565b610785565b610888600661088260036107fd565b906106aa565b610785565b565b606090565b634e487b7160e01b5f52604160045260245ffd5b906108b29061043e565b810190811067ffffffffffffffff8211176108cc57604052565b610894565b906108e46108dd6100e2565b92836108a8565b565b67ffffffffffffffff81116109045761090060209161043e565b0190565b610894565b9061091b610916836108e6565b6108d1565b918252565b5f7f76302e382f74657374732f4d6f636b563341676772656761746f722e736f6c00910152565b610951601f610909565b9061095e60208301610920565b565b610968610947565b90565b61097361088f565b5061097c610960565b90565b5f90565b5f90565b5f90565b906109959061074b565b5f5260205260405f2090565b6109ad6109b2916107e4565b61029a565b90565b6109bf90546109a1565b90565b906109cc9061074b565b5f5260205260405f2090565b906109e161097f565b506109ea610983565b506109f3610987565b506109fc610987565b50610a0561097f565b5081610a1b610a166004839061098b565b6109b5565b92610a30610a2b600684906109c2565b6107fd565b92610a45610a40600585906109c2565b6107fd565b92919493929190565b634e487b7160e01b5f52601160045260245ffd5b610a6b906101f2565b5f198114610a795760010190565b610a4e565b610ace90610a8d8160016107c4565b610a98426002610785565b610ab4610aad610aa860036107fd565b610a62565b6003610785565b610ac96004610ac360036107fd565b90610646565b6107c4565b610aec42610ae76005610ae160036107fd565b906106aa565b610785565b610b0a42610b056006610aff60036107fd565b906106aa565b610785565b565b610b20610b1b610b25926101f2565b61032c565b61019a565b90565b610b3061097f565b50610b39610983565b50610b42610987565b50610b4b610987565b50610b5461097f565b50610b67610b6260036107fd565b610b0c565b610b84610b7f6004610b7960036107fd565b90610646565b6109b5565b91610ba2610b9d6006610b9760036107fd565b906106aa565b6107fd565b91610bc0610bbb6005610bb560036107fd565b906106aa565b6107fd565b91610bd3610bce60036107fd565b610b0c565b91949392919056fea2646970667358221220e3cbb34e956a3b82f1ed378d8e16b0ccef14fc60860f0381b948c86f90434b9e64736f6c634300081e0033","linkReferences":{}},"methodIdentifiers":{"decimals()":"313ce567","description()":"7284e416","getAnswer(uint256)":"b5ab58dc","getRoundData(uint80)":"9a6fc8f5","getTimestamp(uint256)":"b633620c","latestAnswer()":"50d25bcd","latestRound()":"668a0f02","latestRoundData()":"feaf968c","latestTimestamp()":"8205bf6a","updateAnswer(int256)":"a87a20ce","updateRoundData(uint80,int256,uint256,uint256)":"4aa2011f","version()":"54fd4d50"},"id":3}