{"abi":[{"type":"constructor","inputs":[{"name":"flashLeverage","type":"address","internalType":"address"},{"name":"pendleRouter","type":"address","internalType":"address"}],"stateMutability":"nonpayable"},{"type":"function","name":"acceptOwnership","inputs":[],"outputs":[],"stateMutability":"nonpayable"},{"type":"function","name":"i_flashLeverage","inputs":[],"outputs":[{"name":"","type":"address","internalType":"contract IFlashLeverage"}],"stateMutability":"view"},{"type":"function","name":"i_pendleRouter","inputs":[],"outputs":[{"name":"","type":"address","internalType":"contract IPAllActionV3"}],"stateMutability":"view"},{"type":"function","name":"leverage","inputs":[{"name":"params","type":"tuple","internalType":"struct LeverageWrapperParams","components":[{"name":"tokenIn","type":"address","internalType":"address"},{"name":"amountTokenIn","type":"uint256","internalType":"uint256"},{"name":"minCollateralOut","type":"uint256","internalType":"uint256"},{"name":"approxParams","type":"tuple","internalType":"struct ApproxParams","components":[{"name":"guessMin","type":"uint256","internalType":"uint256"},{"name":"guessMax","type":"uint256","internalType":"uint256"},{"name":"guessOffchain","type":"uint256","internalType":"uint256"},{"name":"maxIteration","type":"uint256","internalType":"uint256"},{"name":"eps","type":"uint256","internalType":"uint256"}]},{"name":"pendleSwap","type":"address","internalType":"address"},{"name":"swapData","type":"tuple","internalType":"struct SwapData","components":[{"name":"swapType","type":"uint8","internalType":"enum SwapType"},{"name":"extRouter","type":"address","internalType":"address"},{"name":"extCalldata","type":"bytes","internalType":"bytes"},{"name":"needScale","type":"bool","internalType":"bool"}]},{"name":"limitOrderData","type":"tuple","internalType":"struct LimitOrderData","components":[{"name":"limitRouter","type":"address","internalType":"address"},{"name":"epsSkipMarket","type":"uint256","internalType":"uint256"},{"name":"normalFills","type":"tuple[]","internalType":"struct FillOrderParams[]","components":[{"name":"order","type":"tuple","internalType":"struct Order","components":[{"name":"salt","type":"uint256","internalType":"uint256"},{"name":"expiry","type":"uint256","internalType":"uint256"},{"name":"nonce","type":"uint256","internalType":"uint256"},{"name":"orderType","type":"uint8","internalType":"enum IPLimitOrderType.OrderType"},{"name":"token","type":"address","internalType":"address"},{"name":"YT","type":"address","internalType":"address"},{"name":"maker","type":"address","internalType":"address"},{"name":"receiver","type":"address","internalType":"address"},{"name":"makingAmount","type":"uint256","internalType":"uint256"},{"name":"lnImpliedRate","type":"uint256","internalType":"uint256"},{"name":"failSafeRate","type":"uint256","internalType":"uint256"},{"name":"permit","type":"bytes","internalType":"bytes"}]},{"name":"signature","type":"bytes","internalType":"bytes"},{"name":"makingAmount","type":"uint256","internalType":"uint256"}]},{"name":"flashFills","type":"tuple[]","internalType":"struct FillOrderParams[]","components":[{"name":"order","type":"tuple","internalType":"struct Order","components":[{"name":"salt","type":"uint256","internalType":"uint256"},{"name":"expiry","type":"uint256","internalType":"uint256"},{"name":"nonce","type":"uint256","internalType":"uint256"},{"name":"orderType","type":"uint8","internalType":"enum IPLimitOrderType.OrderType"},{"name":"token","type":"address","internalType":"address"},{"name":"YT","type":"address","internalType":"address"},{"name":"maker","type":"address","internalType":"address"},{"name":"receiver","type":"address","internalType":"address"},{"name":"makingAmount","type":"uint256","internalType":"uint256"},{"name":"lnImpliedRate","type":"uint256","internalType":"uint256"},{"name":"failSafeRate","type":"uint256","internalType":"uint256"},{"name":"permit","type":"bytes","internalType":"bytes"}]},{"name":"signature","type":"bytes","internalType":"bytes"},{"name":"makingAmount","type":"uint256","internalType":"uint256"}]},{"name":"optData","type":"bytes","internalType":"bytes"}]}]},{"name":"leverageParams","type":"tuple","internalType":"struct LeverageParams","components":[{"name":"collateralToken","type":"address","internalType":"address"},{"name":"loanToken","type":"address","internalType":"address"},{"name":"amountUserCollateral","type":"uint256","internalType":"uint256"},{"name":"approxParams","type":"tuple","internalType":"struct ApproxParams","components":[{"name":"guessMin","type":"uint256","internalType":"uint256"},{"name":"guessMax","type":"uint256","internalType":"uint256"},{"name":"guessOffchain","type":"uint256","internalType":"uint256"},{"name":"maxIteration","type":"uint256","internalType":"uint256"},{"name":"eps","type":"uint256","internalType":"uint256"}]},{"name":"pendleSwap","type":"address","internalType":"address"},{"name":"swapData","type":"tuple","internalType":"struct SwapData","components":[{"name":"swapType","type":"uint8","internalType":"enum SwapType"},{"name":"extRouter","type":"address","internalType":"address"},{"name":"extCalldata","type":"bytes","internalType":"bytes"},{"name":"needScale","type":"bool","internalType":"bool"}]},{"name":"limitOrderData","type":"tuple","internalType":"struct LimitOrderData","components":[{"name":"limitRouter","type":"address","internalType":"address"},{"name":"epsSkipMarket","type":"uint256","internalType":"uint256"},{"name":"normalFills","type":"tuple[]","internalType":"struct FillOrderParams[]","components":[{"name":"order","type":"tuple","internalType":"struct Order","components":[{"name":"salt","type":"uint256","internalType":"uint256"},{"name":"expiry","type":"uint256","internalType":"uint256"},{"name":"nonce","type":"uint256","internalType":"uint256"},{"name":"orderType","type":"uint8","internalType":"enum IPLimitOrderType.OrderType"},{"name":"token","type":"address","internalType":"address"},{"name":"YT","type":"address","internalType":"address"},{"name":"maker","type":"address","internalType":"address"},{"name":"receiver","type":"address","internalType":"address"},{"name":"makingAmount","type":"uint256","internalType":"uint256"},{"name":"lnImpliedRate","type":"uint256","internalType":"uint256"},{"name":"failSafeRate","type":"uint256","internalType":"uint256"},{"name":"permit","type":"bytes","internalType":"bytes"}]},{"name":"signature","type":"bytes","internalType":"bytes"},{"name":"makingAmount","type":"uint256","internalType":"uint256"}]},{"name":"flashFills","type":"tuple[]","internalType":"struct FillOrderParams[]","components":[{"name":"order","type":"tuple","internalType":"struct Order","components":[{"name":"salt","type":"uint256","internalType":"uint256"},{"name":"expiry","type":"uint256","internalType":"uint256"},{"name":"nonce","type":"uint256","internalType":"uint256"},{"name":"orderType","type":"uint8","internalType":"enum IPLimitOrderType.OrderType"},{"name":"token","type":"address","internalType":"address"},{"name":"YT","type":"address","internalType":"address"},{"name":"maker","type":"address","internalType":"address"},{"name":"receiver","type":"address","internalType":"address"},{"name":"makingAmount","type":"uint256","internalType":"uint256"},{"name":"lnImpliedRate","type":"uint256","internalType":"uint256"},{"name":"failSafeRate","type":"uint256","internalType":"uint256"},{"name":"permit","type":"bytes","internalType":"bytes"}]},{"name":"signature","type":"bytes","internalType":"bytes"},{"name":"makingAmount","type":"uint256","internalType":"uint256"}]},{"name":"optData","type":"bytes","internalType":"bytes"}]}]}],"outputs":[],"stateMutability":"nonpayable"},{"type":"function","name":"owner","inputs":[],"outputs":[{"name":"","type":"address","internalType":"address"}],"stateMutability":"view"},{"type":"function","name":"pendingOwner","inputs":[],"outputs":[{"name":"","type":"address","internalType":"address"}],"stateMutability":"view"},{"type":"function","name":"renounceOwnership","inputs":[],"outputs":[],"stateMutability":"nonpayable"},{"type":"function","name":"transferOwnership","inputs":[{"name":"newOwner","type":"address","internalType":"address"}],"outputs":[],"stateMutability":"nonpayable"},{"type":"function","name":"updateSwapParams","inputs":[{"name":"collateralToken","type":"address","internalType":"address"},{"name":"swapParams","type":"tuple","internalType":"struct SwapParams","components":[{"name":"underlyingToken","type":"address","internalType":"address"},{"name":"pendleMarket","type":"address","internalType":"address"}]}],"outputs":[],"stateMutability":"nonpayable"},{"type":"event","name":"OwnershipTransferStarted","inputs":[{"name":"previousOwner","type":"address","indexed":true,"internalType":"address"},{"name":"newOwner","type":"address","indexed":true,"internalType":"address"}],"anonymous":false},{"type":"event","name":"OwnershipTransferred","inputs":[{"name":"previousOwner","type":"address","indexed":true,"internalType":"address"},{"name":"newOwner","type":"address","indexed":true,"internalType":"address"}],"anonymous":false},{"type":"error","name":"FlashLeverageWrapper__InvalidAmountTokenIn","inputs":[]},{"type":"error","name":"FlashLeverageWrapper__UnsupportedCollateralToken","inputs":[]},{"type":"error","name":"OwnableInvalidOwner","inputs":[{"name":"owner","type":"address","internalType":"address"}]},{"type":"error","name":"OwnableUnauthorizedAccount","inputs":[{"name":"account","type":"address","internalType":"address"}]},{"type":"error","name":"SafeERC20FailedOperation","inputs":[{"name":"token","type":"address","internalType":"address"}]}],"bytecode":{"object":"0x60c060405234801561000f575f5ffd5b5060405161265938038061265983398181016040528101906100319190610276565b335f73ffffffffffffffffffffffffffffffffffffffff168173ffffffffffffffffffffffffffffffffffffffff16036100a2575f6040517f1e4fbdf700000000000000000000000000000000000000000000000000000000815260040161009991906102c3565b60405180910390fd5b6100b18161012160201b60201c565b508173ffffffffffffffffffffffffffffffffffffffff1660a08173ffffffffffffffffffffffffffffffffffffffff16815250508073ffffffffffffffffffffffffffffffffffffffff1660808173ffffffffffffffffffffffffffffffffffffffff168152505050506102dc565b60015f6101000a81549073ffffffffffffffffffffffffffffffffffffffff02191690556101548161015760201b60201c565b50565b5f5f5f9054906101000a900473ffffffffffffffffffffffffffffffffffffffff169050815f5f6101000a81548173ffffffffffffffffffffffffffffffffffffffff021916908373ffffffffffffffffffffffffffffffffffffffff1602179055508173ffffffffffffffffffffffffffffffffffffffff168173ffffffffffffffffffffffffffffffffffffffff167f8be0079c531659141344cd1fd0a4f28419497f9722a3daafe3b4186f6b6457e060405160405180910390a35050565b5f5ffd5b5f73ffffffffffffffffffffffffffffffffffffffff82169050919050565b5f6102458261021c565b9050919050565b6102558161023b565b811461025f575f5ffd5b50565b5f815190506102708161024c565b92915050565b5f5f6040838503121561028c5761028b610218565b5b5f61029985828601610262565b92505060206102aa85828601610262565b9150509250929050565b6102bd8161023b565b82525050565b5f6020820190506102d65f8301846102b4565b92915050565b60805160a0516123406103195f395f818161024e0152818161069301526106da01525f81816103290152818161082d015261085901526123405ff3fe608060405234801561000f575f5ffd5b5060043610610091575f3560e01c80638da5cb5b116100645780638da5cb5b146100e3578063dd2a7a1714610101578063e30c39781461011f578063f2fde38b1461013d578063fb81444b1461015957610091565b80632622250014610095578063593ad9db146100b1578063715018a6146100cf57806379ba5097146100d9575b5f5ffd5b6100af60048036038101906100aa9190610ffe565b610175565b005b6100b961024c565b6040516100c69190611097565b60405180910390f35b6100d7610270565b005b6100e1610272565b005b6100eb610300565b6040516100f891906110bf565b60405180910390f35b610109610327565b60405161011691906110f8565b60405180910390f35b61012761034b565b60405161013491906110bf565b60405180910390f35b61015760048036038101906101529190611111565b610373565b005b610173600480360381019061016e9190611925565b61041f565b005b61017d610766565b8060025f8473ffffffffffffffffffffffffffffffffffffffff1673ffffffffffffffffffffffffffffffffffffffff1681526020019081526020015f205f820151815f015f6101000a81548173ffffffffffffffffffffffffffffffffffffffff021916908373ffffffffffffffffffffffffffffffffffffffff1602179055506020820151816001015f6101000a81548173ffffffffffffffffffffffffffffffffffffffff021916908373ffffffffffffffffffffffffffffffffffffffff1602179055509050505050565b7f000000000000000000000000000000000000000000000000000000000000000081565b565b5f61027b6107ed565b90508073ffffffffffffffffffffffffffffffffffffffff1661029c61034b565b73ffffffffffffffffffffffffffffffffffffffff16146102f457806040517f118cdaa70000000000000000000000000000000000000000000000000000000081526004016102eb91906110bf565b60405180910390fd5b6102fd816107f4565b50565b5f5f5f9054906101000a900473ffffffffffffffffffffffffffffffffffffffff16905090565b7f000000000000000000000000000000000000000000000000000000000000000081565b5f60015f9054906101000a900473ffffffffffffffffffffffffffffffffffffffff16905090565b61037b610766565b8060015f6101000a81548173ffffffffffffffffffffffffffffffffffffffff021916908373ffffffffffffffffffffffffffffffffffffffff1602179055508073ffffffffffffffffffffffffffffffffffffffff166103da610300565b73ffffffffffffffffffffffffffffffffffffffff167f38d16b8cac22d99fc7c124b9cd0de2d3fa1faef420bfe791d8c362d765e2270060405160405180910390a350565b81602001515f811161045d576040517fd14f72e600000000000000000000000000000000000000000000000000000000815260040160405180910390fd5b5f60025f845f015173ffffffffffffffffffffffffffffffffffffffff1673ffffffffffffffffffffffffffffffffffffffff1681526020019081526020015f206040518060400160405290815f82015f9054906101000a900473ffffffffffffffffffffffffffffffffffffffff1673ffffffffffffffffffffffffffffffffffffffff1673ffffffffffffffffffffffffffffffffffffffff168152602001600182015f9054906101000a900473ffffffffffffffffffffffffffffffffffffffff1673ffffffffffffffffffffffffffffffffffffffff1673ffffffffffffffffffffffffffffffffffffffff168152505090505f73ffffffffffffffffffffffffffffffffffffffff16816020015173ffffffffffffffffffffffffffffffffffffffff16036105bd576040517f8499b0bc00000000000000000000000000000000000000000000000000000000815260040160405180910390fd5b835f015173ffffffffffffffffffffffffffffffffffffffff166323b872dd333087602001516040518463ffffffff1660e01b8152600401610601939291906119aa565b6020604051808303815f875af115801561061d573d5f5f3e3d5ffd5b505050506040513d601f19601f8201168201806040525081019061064191906119f3565b50825f015173ffffffffffffffffffffffffffffffffffffffff16845f015173ffffffffffffffffffffffffffffffffffffffff161461068a576106898482855f0151610824565b5b6106d8835f01517f00000000000000000000000000000000000000000000000000000000000000007fffffffffffffffffffffffffffffffffffffffffffffffffffffffffffffffff61099d565b7f000000000000000000000000000000000000000000000000000000000000000073ffffffffffffffffffffffffffffffffffffffff16636e00305233856040518363ffffffff1660e01b8152600401610733929190611f5f565b5f604051808303815f87803b15801561074a575f5ffd5b505af115801561075c573d5f5f3e3d5ffd5b5050505050505050565b61076e6107ed565b73ffffffffffffffffffffffffffffffffffffffff1661078c610300565b73ffffffffffffffffffffffffffffffffffffffff16146107eb576107af6107ed565b6040517f118cdaa70000000000000000000000000000000000000000000000000000000081526004016107e291906110bf565b60405180910390fd5b565b5f33905090565b60015f6101000a81549073ffffffffffffffffffffffffffffffffffffffff021916905561082181610aec565b50565b610856835f01517f00000000000000000000000000000000000000000000000000000000000000008560200151610bad565b5f7f000000000000000000000000000000000000000000000000000000000000000073ffffffffffffffffffffffffffffffffffffffff1663c81f847a308560200151876040015188606001516040518060a001604052808b5f015173ffffffffffffffffffffffffffffffffffffffff1681526020018b6020015181526020018a5f015173ffffffffffffffffffffffffffffffffffffffff1681526020018b6080015173ffffffffffffffffffffffffffffffffffffffff1681526020018b60a001518152508a60c001516040518763ffffffff1660e01b8152600401610944969594939291906120e7565b6060604051808303815f875af1158015610960573d5f5f3e3d5ffd5b505050506040513d601f19601f82011682018060405250810190610984919061216b565b5050905061099782828660400151610bdd565b50505050565b5f5f8473ffffffffffffffffffffffffffffffffffffffff1663095ea7b360e01b85856040516024016109d19291906121bb565b604051602081830303815290604052907bffffffffffffffffffffffffffffffffffffffffffffffffffffffff19166020820180517bffffffffffffffffffffffffffffffffffffffffffffffffffffffff8381831617835250505050604051610a3b919061221c565b5f604051808303815f865af19150503d805f8114610a74576040519150601f19603f3d011682016040523d82523d5f602084013e610a79565b606091505b5091509150818015610aa657505f81511480610aa5575080806020019051810190610aa491906119f3565b5b5b610ae5576040517f08c379a0000000000000000000000000000000000000000000000000000000008152600401610adc9061228c565b60405180910390fd5b5050505050565b5f5f5f9054906101000a900473ffffffffffffffffffffffffffffffffffffffff169050815f5f6101000a81548173ffffffffffffffffffffffffffffffffffffffff021916908373ffffffffffffffffffffffffffffffffffffffff1602179055508173ffffffffffffffffffffffffffffffffffffffff168173ffffffffffffffffffffffffffffffffffffffff167f8be0079c531659141344cd1fd0a4f28419497f9722a3daafe3b4186f6b6457e060405160405180910390a35050565b610bd882828573ffffffffffffffffffffffffffffffffffffffff16610bfd9092919063ffffffff16565b505050565b80821115610bf8575f8183039050610bf6843383610d0a565b505b505050565b5f8373ffffffffffffffffffffffffffffffffffffffff1663095ea7b38484604051602401610c2d9291906121bb565b604051602081830303815290604052915060e01b6020820180517bffffffffffffffffffffffffffffffffffffffffffffffffffffffff83818316178352505050509050610c7b8482610d43565b610d0457610cf9848573ffffffffffffffffffffffffffffffffffffffff1663095ea7b3865f604051602401610cb29291906122e3565b604051602081830303815290604052915060e01b6020820180517bffffffffffffffffffffffffffffffffffffffffffffffffffffffff8381831617835250505050610d9c565b610d038482610d9c565b5b50505050565b5f810315610d3e57610d3d82828573ffffffffffffffffffffffffffffffffffffffff16610e379092919063ffffffff16565b5b505050565b5f5f5f5f60205f8651602088015f8a5af192503d91505f519050828015610d9157505f8214610d755760018114610d90565b5f8673ffffffffffffffffffffffffffffffffffffffff163b115b5b935050505092915050565b5f5f60205f8451602086015f885af180610dbb576040513d5f823e3d81fd5b3d92505f519150505f8214610dd4576001811415610def565b5f8473ffffffffffffffffffffffffffffffffffffffff163b145b15610e3157836040517f5274afe7000000000000000000000000000000000000000000000000000000008152600401610e2891906110bf565b60405180910390fd5b50505050565b610eb1838473ffffffffffffffffffffffffffffffffffffffff1663a9059cbb8585604051602401610e6a9291906121bb565b604051602081830303815290604052915060e01b6020820180517bffffffffffffffffffffffffffffffffffffffffffffffffffffffff8381831617835250505050610d9c565b505050565b5f604051905090565b5f5ffd5b5f5ffd5b5f73ffffffffffffffffffffffffffffffffffffffff82169050919050565b5f610ef082610ec7565b9050919050565b610f0081610ee6565b8114610f0a575f5ffd5b50565b5f81359050610f1b81610ef7565b92915050565b5f5ffd5b5f601f19601f8301169050919050565b7f4e487b71000000000000000000000000000000000000000000000000000000005f52604160045260245ffd5b610f6b82610f25565b810181811067ffffffffffffffff82111715610f8a57610f89610f35565b5b80604052505050565b5f610f9c610eb6565b9050610fa88282610f62565b919050565b5f5ffd5b5f60408284031215610fc657610fc5610f21565b5b610fd06040610f93565b90505f610fdf84828501610f0d565b5f830152506020610ff284828501610f0d565b60208301525092915050565b5f5f6060838503121561101457611013610ebf565b5b5f61102185828601610f0d565b925050602061103285828601610fb1565b9150509250929050565b5f819050919050565b5f61105f61105a61105584610ec7565b61103c565b610ec7565b9050919050565b5f61107082611045565b9050919050565b5f61108182611066565b9050919050565b61109181611077565b82525050565b5f6020820190506110aa5f830184611088565b92915050565b6110b981610ee6565b82525050565b5f6020820190506110d25f8301846110b0565b92915050565b5f6110e282611066565b9050919050565b6110f2816110d8565b82525050565b5f60208201905061110b5f8301846110e9565b92915050565b5f6020828403121561112657611125610ebf565b5b5f61113384828501610f0d565b91505092915050565b5f819050919050565b61114e8161113c565b8114611158575f5ffd5b50565b5f8135905061116981611145565b92915050565b5f60a0828403121561118457611183610f21565b5b61118e60a0610f93565b90505f61119d8482850161115b565b5f8301525060206111b08482850161115b565b60208301525060406111c48482850161115b565b60408301525060606111d88482850161115b565b60608301525060806111ec8482850161115b565b60808301525092915050565b600b8110611204575f5ffd5b50565b5f81359050611215816111f8565b92915050565b5f5ffd5b5f5ffd5b5f67ffffffffffffffff82111561123d5761123c610f35565b5b61124682610f25565b9050602081019050919050565b828183375f83830152505050565b5f61127361126e84611223565b610f93565b90508281526020810184848401111561128f5761128e61121f565b5b61129a848285611253565b509392505050565b5f82601f8301126112b6576112b561121b565b5b81356112c6848260208601611261565b91505092915050565b5f8115159050919050565b6112e3816112cf565b81146112ed575f5ffd5b50565b5f813590506112fe816112da565b92915050565b5f6080828403121561131957611318610f21565b5b6113236080610f93565b90505f61133284828501611207565b5f83015250602061134584828501610f0d565b602083015250604082013567ffffffffffffffff81111561136957611368610fad565b5b611375848285016112a2565b6040830152506060611389848285016112f0565b60608301525092915050565b5f67ffffffffffffffff8211156113af576113ae610f35565b5b602082029050602081019050919050565b5f5ffd5b600481106113d0575f5ffd5b50565b5f813590506113e1816113c4565b92915050565b5f61018082840312156113fd576113fc610f21565b5b611408610180610f93565b90505f6114178482850161115b565b5f83015250602061142a8482850161115b565b602083015250604061143e8482850161115b565b6040830152506060611452848285016113d3565b606083015250608061146684828501610f0d565b60808301525060a061147a84828501610f0d565b60a08301525060c061148e84828501610f0d565b60c08301525060e06114a284828501610f0d565b60e0830152506101006114b78482850161115b565b610100830152506101206114cd8482850161115b565b610120830152506101406114e38482850161115b565b6101408301525061016082013567ffffffffffffffff81111561150957611508610fad565b5b611515848285016112a2565b6101608301525092915050565b5f6060828403121561153757611536610f21565b5b6115416060610f93565b90505f82013567ffffffffffffffff8111156115605761155f610fad565b5b61156c848285016113e7565b5f83015250602082013567ffffffffffffffff81111561158f5761158e610fad565b5b61159b848285016112a2565b60208301525060406115af8482850161115b565b60408301525092915050565b5f6115cd6115c884611395565b610f93565b905080838252602082019050602084028301858111156115f0576115ef6113c0565b5b835b8181101561163757803567ffffffffffffffff8111156116155761161461121b565b5b8086016116228982611522565b855260208501945050506020810190506115f2565b5050509392505050565b5f82601f8301126116555761165461121b565b5b81356116658482602086016115bb565b91505092915050565b5f60a0828403121561168357611682610f21565b5b61168d60a0610f93565b90505f61169c84828501610f0d565b5f8301525060206116af8482850161115b565b602083015250604082013567ffffffffffffffff8111156116d3576116d2610fad565b5b6116df84828501611641565b604083015250606082013567ffffffffffffffff81111561170357611702610fad565b5b61170f84828501611641565b606083015250608082013567ffffffffffffffff81111561173357611732610fad565b5b61173f848285016112a2565b60808301525092915050565b5f610160828403121561176157611760610f21565b5b61176b60e0610f93565b90505f61177a84828501610f0d565b5f83015250602061178d8482850161115b565b60208301525060406117a18482850161115b565b60408301525060606117b58482850161116f565b6060830152506101006117ca84828501610f0d565b60808301525061012082013567ffffffffffffffff8111156117ef576117ee610fad565b5b6117fb84828501611304565b60a08301525061014082013567ffffffffffffffff8111156118205761181f610fad565b5b61182c8482850161166e565b60c08301525092915050565b5f610160828403121561184e5761184d610f21565b5b61185860e0610f93565b90505f61186784828501610f0d565b5f83015250602061187a84828501610f0d565b602083015250604061188e8482850161115b565b60408301525060606118a28482850161116f565b6060830152506101006118b784828501610f0d565b60808301525061012082013567ffffffffffffffff8111156118dc576118db610fad565b5b6118e884828501611304565b60a08301525061014082013567ffffffffffffffff81111561190d5761190c610fad565b5b6119198482850161166e565b60c08301525092915050565b5f5f6040838503121561193b5761193a610ebf565b5b5f83013567ffffffffffffffff81111561195857611957610ec3565b5b6119648582860161174b565b925050602083013567ffffffffffffffff81111561198557611984610ec3565b5b61199185828601611838565b9150509250929050565b6119a48161113c565b82525050565b5f6060820190506119bd5f8301866110b0565b6119ca60208301856110b0565b6119d7604083018461199b565b949350505050565b5f815190506119ed816112da565b92915050565b5f60208284031215611a0857611a07610ebf565b5b5f611a15848285016119df565b91505092915050565b611a2781610ee6565b82525050565b611a368161113c565b82525050565b60a082015f820151611a505f850182611a2d565b506020820151611a636020850182611a2d565b506040820151611a766040850182611a2d565b506060820151611a896060850182611a2d565b506080820151611a9c6080850182611a2d565b50505050565b7f4e487b71000000000000000000000000000000000000000000000000000000005f52602160045260245ffd5b600b8110611ae057611adf611aa2565b5b50565b5f819050611af082611acf565b919050565b5f611aff82611ae3565b9050919050565b611b0f81611af5565b82525050565b5f81519050919050565b5f82825260208201905092915050565b8281835e5f83830152505050565b5f611b4782611b15565b611b518185611b1f565b9350611b61818560208601611b2f565b611b6a81610f25565b840191505092915050565b611b7e816112cf565b82525050565b5f608083015f830151611b995f860182611b06565b506020830151611bac6020860182611a1e565b5060408301518482036040860152611bc48282611b3d565b9150506060830151611bd96060860182611b75565b508091505092915050565b5f81519050919050565b5f82825260208201905092915050565b5f819050602082019050919050565b60048110611c1e57611c1d611aa2565b5b50565b5f819050611c2e82611c0d565b919050565b5f611c3d82611c21565b9050919050565b611c4d81611c33565b82525050565b5f61018083015f830151611c695f860182611a2d565b506020830151611c7c6020860182611a2d565b506040830151611c8f6040860182611a2d565b506060830151611ca26060860182611c44565b506080830151611cb56080860182611a1e565b5060a0830151611cc860a0860182611a1e565b5060c0830151611cdb60c0860182611a1e565b5060e0830151611cee60e0860182611a1e565b50610100830151611d03610100860182611a2d565b50610120830151611d18610120860182611a2d565b50610140830151611d2d610140860182611a2d565b50610160830151848203610160860152611d478282611b3d565b9150508091505092915050565b5f606083015f8301518482035f860152611d6e8282611c53565b91505060208301518482036020860152611d888282611b3d565b9150506040830151611d9d6040860182611a2d565b508091505092915050565b5f611db38383611d54565b905092915050565b5f602082019050919050565b5f611dd182611be4565b611ddb8185611bee565b935083602082028501611ded85611bfe565b805f5b85811015611e285784840389528151611e098582611da8565b9450611e1483611dbb565b925060208a01995050600181019050611df0565b50829750879550505050505092915050565b5f60a083015f830151611e4f5f860182611a1e565b506020830151611e626020860182611a2d565b5060408301518482036040860152611e7a8282611dc7565b91505060608301518482036060860152611e948282611dc7565b91505060808301518482036080860152611eae8282611b3d565b9150508091505092915050565b5f61016083015f830151611ed15f860182611a1e565b506020830151611ee46020860182611a1e565b506040830151611ef76040860182611a2d565b506060830151611f0a6060860182611a3c565b506080830151611f1e610100860182611a1e565b5060a0830151848203610120860152611f378282611b84565b91505060c0830151848203610140860152611f528282611e3a565b9150508091505092915050565b5f604082019050611f725f8301856110b0565b8181036020830152611f848184611ebb565b90509392505050565b60a082015f820151611fa15f850182611a2d565b506020820151611fb46020850182611a2d565b506040820151611fc76040850182611a2d565b506060820151611fda6060850182611a2d565b506080820151611fed6080850182611a2d565b50505050565b5f60a083015f8301516120085f860182611a1e565b50602083015161201b6020860182611a2d565b50604083015161202e6040860182611a1e565b5060608301516120416060860182611a1e565b50608083015184820360808601526120598282611b84565b9150508091505092915050565b5f60a083015f83015161207b5f860182611a1e565b50602083015161208e6020860182611a2d565b50604083015184820360408601526120a68282611dc7565b915050606083015184820360608601526120c08282611dc7565b915050608083015184820360808601526120da8282611b3d565b9150508091505092915050565b5f610140820190506120fb5f8301896110b0565b61210860208301886110b0565b612115604083018761199b565b6121226060830186611f8d565b8181036101008301526121358185611ff3565b905081810361012083015261214a8184612066565b9050979650505050505050565b5f8151905061216581611145565b92915050565b5f5f5f6060848603121561218257612181610ebf565b5b5f61218f86828701612157565b93505060206121a086828701612157565b92505060406121b186828701612157565b9150509250925092565b5f6040820190506121ce5f8301856110b0565b6121db602083018461199b565b9392505050565b5f81905092915050565b5f6121f682611b15565b61220081856121e2565b9350612210818560208601611b2f565b80840191505092915050565b5f61222782846121ec565b915081905092915050565b5f82825260208201905092915050565b7f5361666520417070726f766500000000000000000000000000000000000000005f82015250565b5f612276600c83612232565b915061228182612242565b602082019050919050565b5f6020820190508181035f8301526122a38161226a565b9050919050565b5f819050919050565b5f6122cd6122c86122c3846122aa565b61103c565b61113c565b9050919050565b6122dd816122b3565b82525050565b5f6040820190506122f65f8301856110b0565b61230360208301846122d4565b939250505056fea2646970667358221220bac092df7eceafcfe15bee634ad2887672f71f13cb0edb4728e43ca8ca589b4b64736f6c634300081e0033","linkReferences":{}},"methodIdentifiers":{"acceptOwnership()":"79ba5097","i_flashLeverage()":"593ad9db","i_pendleRouter()":"dd2a7a17","leverage((address,uint256,uint256,(uint256,uint256,uint256,uint256,uint256),address,(uint8,address,bytes,bool),(address,uint256,((uint256,uint256,uint256,uint8,address,address,address,address,uint256,uint256,uint256,bytes),bytes,uint256)[],((uint256,uint256,uint256,uint8,address,address,address,address,uint256,uint256,uint256,bytes),bytes,uint256)[],bytes)),(address,address,uint256,(uint256,uint256,uint256,uint256,uint256),address,(uint8,address,bytes,bool),(address,uint256,((uint256,uint256,uint256,uint8,address,address,address,address,uint256,uint256,uint256,bytes),bytes,uint256)[],((uint256,uint256,uint256,uint8,address,address,address,address,uint256,uint256,uint256,bytes),bytes,uint256)[],bytes)))":"fb81444b","owner()":"8da5cb5b","pendingOwner()":"e30c3978","renounceOwnership()":"715018a6","transferOwnership(address)":"f2fde38b","updateSwapParams(address,(address,address))":"26222500"},"id":117}