{"abi":[{"type":"constructor","inputs":[{"name":"flashLeverage","type":"address","internalType":"address"},{"name":"pendleRouter","type":"address","internalType":"address"}],"stateMutability":"nonpayable"},{"type":"function","name":"acceptOwnership","inputs":[],"outputs":[],"stateMutability":"nonpayable"},{"type":"function","name":"i_flashLeverage","inputs":[],"outputs":[{"name":"","type":"address","internalType":"contract IFlashLeverage"}],"stateMutability":"view"},{"type":"function","name":"i_pendleRouter","inputs":[],"outputs":[{"name":"","type":"address","internalType":"contract IPAllActionV3"}],"stateMutability":"view"},{"type":"function","name":"leverage","inputs":[{"name":"params","type":"tuple","internalType":"struct LeverageWrapperParams","components":[{"name":"tokenIn","type":"address","internalType":"address"},{"name":"amountTokenIn","type":"uint256","internalType":"uint256"},{"name":"minCollateralOut","type":"uint256","internalType":"uint256"},{"name":"approxParams","type":"tuple","internalType":"struct ApproxParams","components":[{"name":"guessMin","type":"uint256","internalType":"uint256"},{"name":"guessMax","type":"uint256","internalType":"uint256"},{"name":"guessOffchain","type":"uint256","internalType":"uint256"},{"name":"maxIteration","type":"uint256","internalType":"uint256"},{"name":"eps","type":"uint256","internalType":"uint256"}]},{"name":"pendleSwap","type":"address","internalType":"address"},{"name":"swapData","type":"tuple","internalType":"struct SwapData","components":[{"name":"swapType","type":"uint8","internalType":"enum SwapType"},{"name":"extRouter","type":"address","internalType":"address"},{"name":"extCalldata","type":"bytes","internalType":"bytes"},{"name":"needScale","type":"bool","internalType":"bool"}]},{"name":"limitOrderData","type":"tuple","internalType":"struct LimitOrderData","components":[{"name":"limitRouter","type":"address","internalType":"address"},{"name":"epsSkipMarket","type":"uint256","internalType":"uint256"},{"name":"normalFills","type":"tuple[]","internalType":"struct FillOrderParams[]","components":[{"name":"order","type":"tuple","internalType":"struct Order","components":[{"name":"salt","type":"uint256","internalType":"uint256"},{"name":"expiry","type":"uint256","internalType":"uint256"},{"name":"nonce","type":"uint256","internalType":"uint256"},{"name":"orderType","type":"uint8","internalType":"enum IPLimitOrderType.OrderType"},{"name":"token","type":"address","internalType":"address"},{"name":"YT","type":"address","internalType":"address"},{"name":"maker","type":"address","internalType":"address"},{"name":"receiver","type":"address","internalType":"address"},{"name":"makingAmount","type":"uint256","internalType":"uint256"},{"name":"lnImpliedRate","type":"uint256","internalType":"uint256"},{"name":"failSafeRate","type":"uint256","internalType":"uint256"},{"name":"permit","type":"bytes","internalType":"bytes"}]},{"name":"signature","type":"bytes","internalType":"bytes"},{"name":"makingAmount","type":"uint256","internalType":"uint256"}]},{"name":"flashFills","type":"tuple[]","internalType":"struct FillOrderParams[]","components":[{"name":"order","type":"tuple","internalType":"struct Order","components":[{"name":"salt","type":"uint256","internalType":"uint256"},{"name":"expiry","type":"uint256","internalType":"uint256"},{"name":"nonce","type":"uint256","internalType":"uint256"},{"name":"orderType","type":"uint8","internalType":"enum IPLimitOrderType.OrderType"},{"name":"token","type":"address","internalType":"address"},{"name":"YT","type":"address","internalType":"address"},{"name":"maker","type":"address","internalType":"address"},{"name":"receiver","type":"address","internalType":"address"},{"name":"makingAmount","type":"uint256","internalType":"uint256"},{"name":"lnImpliedRate","type":"uint256","internalType":"uint256"},{"name":"failSafeRate","type":"uint256","internalType":"uint256"},{"name":"permit","type":"bytes","internalType":"bytes"}]},{"name":"signature","type":"bytes","internalType":"bytes"},{"name":"makingAmount","type":"uint256","internalType":"uint256"}]},{"name":"optData","type":"bytes","internalType":"bytes"}]}]},{"name":"leverageParams","type":"tuple","internalType":"struct LeverageParams","components":[{"name":"collateralToken","type":"address","internalType":"address"},{"name":"loanToken","type":"address","internalType":"address"},{"name":"amountUserCollateral","type":"uint256","internalType":"uint256"},{"name":"approxParams","type":"tuple","internalType":"struct ApproxParams","components":[{"name":"guessMin","type":"uint256","internalType":"uint256"},{"name":"guessMax","type":"uint256","internalType":"uint256"},{"name":"guessOffchain","type":"uint256","internalType":"uint256"},{"name":"maxIteration","type":"uint256","internalType":"uint256"},{"name":"eps","type":"uint256","internalType":"uint256"}]},{"name":"pendleSwap","type":"address","internalType":"address"},{"name":"swapData","type":"tuple","internalType":"struct SwapData","components":[{"name":"swapType","type":"uint8","internalType":"enum SwapType"},{"name":"extRouter","type":"address","internalType":"address"},{"name":"extCalldata","type":"bytes","internalType":"bytes"},{"name":"needScale","type":"bool","internalType":"bool"}]},{"name":"limitOrderData","type":"tuple","internalType":"struct LimitOrderData","components":[{"name":"limitRouter","type":"address","internalType":"address"},{"name":"epsSkipMarket","type":"uint256","internalType":"uint256"},{"name":"normalFills","type":"tuple[]","internalType":"struct FillOrderParams[]","components":[{"name":"order","type":"tuple","internalType":"struct Order","components":[{"name":"salt","type":"uint256","internalType":"uint256"},{"name":"expiry","type":"uint256","internalType":"uint256"},{"name":"nonce","type":"uint256","internalType":"uint256"},{"name":"orderType","type":"uint8","internalType":"enum IPLimitOrderType.OrderType"},{"name":"token","type":"address","internalType":"address"},{"name":"YT","type":"address","internalType":"address"},{"name":"maker","type":"address","internalType":"address"},{"name":"receiver","type":"address","internalType":"address"},{"name":"makingAmount","type":"uint256","internalType":"uint256"},{"name":"lnImpliedRate","type":"uint256","internalType":"uint256"},{"name":"failSafeRate","type":"uint256","internalType":"uint256"},{"name":"permit","type":"bytes","internalType":"bytes"}]},{"name":"signature","type":"bytes","internalType":"bytes"},{"name":"makingAmount","type":"uint256","internalType":"uint256"}]},{"name":"flashFills","type":"tuple[]","internalType":"struct FillOrderParams[]","components":[{"name":"order","type":"tuple","internalType":"struct Order","components":[{"name":"salt","type":"uint256","internalType":"uint256"},{"name":"expiry","type":"uint256","internalType":"uint256"},{"name":"nonce","type":"uint256","internalType":"uint256"},{"name":"orderType","type":"uint8","internalType":"enum IPLimitOrderType.OrderType"},{"name":"token","type":"address","internalType":"address"},{"name":"YT","type":"address","internalType":"address"},{"name":"maker","type":"address","internalType":"address"},{"name":"receiver","type":"address","internalType":"address"},{"name":"makingAmount","type":"uint256","internalType":"uint256"},{"name":"lnImpliedRate","type":"uint256","internalType":"uint256"},{"name":"failSafeRate","type":"uint256","internalType":"uint256"},{"name":"permit","type":"bytes","internalType":"bytes"}]},{"name":"signature","type":"bytes","internalType":"bytes"},{"name":"makingAmount","type":"uint256","internalType":"uint256"}]},{"name":"optData","type":"bytes","internalType":"bytes"}]}]}],"outputs":[],"stateMutability":"nonpayable"},{"type":"function","name":"owner","inputs":[],"outputs":[{"name":"","type":"address","internalType":"address"}],"stateMutability":"view"},{"type":"function","name":"pendingOwner","inputs":[],"outputs":[{"name":"","type":"address","internalType":"address"}],"stateMutability":"view"},{"type":"function","name":"renounceOwnership","inputs":[],"outputs":[],"stateMutability":"nonpayable"},{"type":"function","name":"transferOwnership","inputs":[{"name":"newOwner","type":"address","internalType":"address"}],"outputs":[],"stateMutability":"nonpayable"},{"type":"function","name":"unleverage","inputs":[{"name":"positionId","type":"uint256","internalType":"uint256"},{"name":"pendleSwap","type":"address","internalType":"address"},{"name":"swapData","type":"tuple","internalType":"struct SwapData","components":[{"name":"swapType","type":"uint8","internalType":"enum SwapType"},{"name":"extRouter","type":"address","internalType":"address"},{"name":"extCalldata","type":"bytes","internalType":"bytes"},{"name":"needScale","type":"bool","internalType":"bool"}]},{"name":"limitOrderData","type":"tuple","internalType":"struct LimitOrderData","components":[{"name":"limitRouter","type":"address","internalType":"address"},{"name":"epsSkipMarket","type":"uint256","internalType":"uint256"},{"name":"normalFills","type":"tuple[]","internalType":"struct FillOrderParams[]","components":[{"name":"order","type":"tuple","internalType":"struct Order","components":[{"name":"salt","type":"uint256","internalType":"uint256"},{"name":"expiry","type":"uint256","internalType":"uint256"},{"name":"nonce","type":"uint256","internalType":"uint256"},{"name":"orderType","type":"uint8","internalType":"enum IPLimitOrderType.OrderType"},{"name":"token","type":"address","internalType":"address"},{"name":"YT","type":"address","internalType":"address"},{"name":"maker","type":"address","internalType":"address"},{"name":"receiver","type":"address","internalType":"address"},{"name":"makingAmount","type":"uint256","internalType":"uint256"},{"name":"lnImpliedRate","type":"uint256","internalType":"uint256"},{"name":"failSafeRate","type":"uint256","internalType":"uint256"},{"name":"permit","type":"bytes","internalType":"bytes"}]},{"name":"signature","type":"bytes","internalType":"bytes"},{"name":"makingAmount","type":"uint256","internalType":"uint256"}]},{"name":"flashFills","type":"tuple[]","internalType":"struct FillOrderParams[]","components":[{"name":"order","type":"tuple","internalType":"struct Order","components":[{"name":"salt","type":"uint256","internalType":"uint256"},{"name":"expiry","type":"uint256","internalType":"uint256"},{"name":"nonce","type":"uint256","internalType":"uint256"},{"name":"orderType","type":"uint8","internalType":"enum IPLimitOrderType.OrderType"},{"name":"token","type":"address","internalType":"address"},{"name":"YT","type":"address","internalType":"address"},{"name":"maker","type":"address","internalType":"address"},{"name":"receiver","type":"address","internalType":"address"},{"name":"makingAmount","type":"uint256","internalType":"uint256"},{"name":"lnImpliedRate","type":"uint256","internalType":"uint256"},{"name":"failSafeRate","type":"uint256","internalType":"uint256"},{"name":"permit","type":"bytes","internalType":"bytes"}]},{"name":"signature","type":"bytes","internalType":"bytes"},{"name":"makingAmount","type":"uint256","internalType":"uint256"}]},{"name":"optData","type":"bytes","internalType":"bytes"}]}],"outputs":[],"stateMutability":"nonpayable"},{"type":"function","name":"updateSwapParams","inputs":[{"name":"collateralToken","type":"address","internalType":"address"},{"name":"swapParams","type":"tuple","internalType":"struct SwapParams","components":[{"name":"underlyingToken","type":"address","internalType":"address"},{"name":"pendleMarket","type":"address","internalType":"address"}]}],"outputs":[],"stateMutability":"nonpayable"},{"type":"event","name":"LeveragePositionClosed","inputs":[{"name":"user","type":"address","indexed":true,"internalType":"address"},{"name":"positionId","type":"uint256","indexed":true,"internalType":"uint256"},{"name":"amountReturned","type":"uint256","indexed":true,"internalType":"uint256"}],"anonymous":false},{"type":"event","name":"LeveragePositionOpened","inputs":[{"name":"user","type":"address","indexed":true,"internalType":"address"},{"name":"positionId","type":"uint256","indexed":true,"internalType":"uint256"}],"anonymous":false},{"type":"event","name":"OwnershipTransferStarted","inputs":[{"name":"previousOwner","type":"address","indexed":true,"internalType":"address"},{"name":"newOwner","type":"address","indexed":true,"internalType":"address"}],"anonymous":false},{"type":"event","name":"OwnershipTransferred","inputs":[{"name":"previousOwner","type":"address","indexed":true,"internalType":"address"},{"name":"newOwner","type":"address","indexed":true,"internalType":"address"}],"anonymous":false},{"type":"error","name":"FlashLeverageWrapper__InvalidAmountTokenIn","inputs":[]},{"type":"error","name":"FlashLeverageWrapper__UnsupportedCollateralToken","inputs":[]},{"type":"error","name":"OwnableInvalidOwner","inputs":[{"name":"owner","type":"address","internalType":"address"}]},{"type":"error","name":"OwnableUnauthorizedAccount","inputs":[{"name":"account","type":"address","internalType":"address"}]},{"type":"error","name":"SafeERC20FailedOperation","inputs":[{"name":"token","type":"address","internalType":"address"}]}],"bytecode":{"object":"0x60c060405234801561000f575f5ffd5b50604051612dcf380380612dcf83398181016040528101906100319190610276565b335f73ffffffffffffffffffffffffffffffffffffffff168173ffffffffffffffffffffffffffffffffffffffff16036100a2575f6040517f1e4fbdf700000000000000000000000000000000000000000000000000000000815260040161009991906102c3565b60405180910390fd5b6100b18161012160201b60201c565b508173ffffffffffffffffffffffffffffffffffffffff1660a08173ffffffffffffffffffffffffffffffffffffffff16815250508073ffffffffffffffffffffffffffffffffffffffff1660808173ffffffffffffffffffffffffffffffffffffffff168152505050506102dc565b60015f6101000a81549073ffffffffffffffffffffffffffffffffffffffff02191690556101548161015760201b60201c565b50565b5f5f5f9054906101000a900473ffffffffffffffffffffffffffffffffffffffff169050815f5f6101000a81548173ffffffffffffffffffffffffffffffffffffffff021916908373ffffffffffffffffffffffffffffffffffffffff1602179055508173ffffffffffffffffffffffffffffffffffffffff168173ffffffffffffffffffffffffffffffffffffffff167f8be0079c531659141344cd1fd0a4f28419497f9722a3daafe3b4186f6b6457e060405160405180910390a35050565b5f5ffd5b5f73ffffffffffffffffffffffffffffffffffffffff82169050919050565b5f6102458261021c565b9050919050565b6102558161023b565b811461025f575f5ffd5b50565b5f815190506102708161024c565b92915050565b5f5f6040838503121561028c5761028b610218565b5b5f61029985828601610262565b92505060206102aa85828601610262565b9150509250929050565b6102bd8161023b565b82525050565b5f6020820190506102d65f8301846102b4565b92915050565b60805160a051612aaf6103205f395f81816102d20152818161051301528181610953015261099c01525f81816105ee01528181610d1f0152610d4b0152612aaf5ff3fe608060405234801561000f575f5ffd5b506004361061009c575f3560e01c80638da5cb5b116100645780638da5cb5b1461010a578063dd2a7a1714610128578063e30c397814610146578063f2fde38b14610164578063fb81444b146101805761009c565b8063062c43c6146100a057806326222500146100bc578063593ad9db146100d8578063715018a6146100f657806379ba509714610100575b5f5ffd5b6100ba60048036038101906100b59190611a1d565b61019c565b005b6100d660048036038101906100d19190611b06565b61043a565b005b6100e0610511565b6040516100ed9190611b9f565b60405180910390f35b6100fe610535565b005b610108610537565b005b6101126105c5565b60405161011f9190611bc7565b60405180910390f35b6101306105ec565b60405161013d9190611c00565b60405180910390f35b61014e610610565b60405161015b9190611bc7565b60405180910390f35b61017e60048036038101906101799190611c19565b610638565b005b61019a60048036038101906101959190611ea7565b6106e4565b005b5f33905060035f8273ffffffffffffffffffffffffffffffffffffffff1673ffffffffffffffffffffffffffffffffffffffff1681526020019081526020015f20805490508510610222576040517f08c379a000000000000000000000000000000000000000000000000000000000815260040161021990611f77565b60405180910390fd5b5f60035f8373ffffffffffffffffffffffffffffffffffffffff1673ffffffffffffffffffffffffffffffffffffffff1681526020019081526020015f20868154811061027257610271611f95565b5b905f5260205f2090600602019050806005015f9054906101000a900460ff166102d0576040517f08c379a00000000000000000000000000000000000000000000000000000000081526004016102c79061200c565b60405180910390fd5b7f000000000000000000000000000000000000000000000000000000000000000073ffffffffffffffffffffffffffffffffffffffff16631d09cc7e6040518060e00160405280845f015f9054906101000a900473ffffffffffffffffffffffffffffffffffffffff1673ffffffffffffffffffffffffffffffffffffffff168152602001846001015f9054906101000a900473ffffffffffffffffffffffffffffffffffffffff1673ffffffffffffffffffffffffffffffffffffffff16815260200184600401548152602001846003015481526020018873ffffffffffffffffffffffffffffffffffffffff168152602001878152602001868152506040518263ffffffff1660e01b81526004016103ea9190612501565b5f604051808303815f87803b158015610401575f5ffd5b505af1158015610413573d5f5f3e3d5ffd5b505050505f816005015f6101000a81548160ff021916908315150217905550505050505050565b610442610c58565b8060025f8473ffffffffffffffffffffffffffffffffffffffff1673ffffffffffffffffffffffffffffffffffffffff1681526020019081526020015f205f820151815f015f6101000a81548173ffffffffffffffffffffffffffffffffffffffff021916908373ffffffffffffffffffffffffffffffffffffffff1602179055506020820151816001015f6101000a81548173ffffffffffffffffffffffffffffffffffffffff021916908373ffffffffffffffffffffffffffffffffffffffff1602179055509050505050565b7f000000000000000000000000000000000000000000000000000000000000000081565b565b5f610540610cdf565b90508073ffffffffffffffffffffffffffffffffffffffff16610561610610565b73ffffffffffffffffffffffffffffffffffffffff16146105b957806040517f118cdaa70000000000000000000000000000000000000000000000000000000081526004016105b09190611bc7565b60405180910390fd5b6105c281610ce6565b50565b5f5f5f9054906101000a900473ffffffffffffffffffffffffffffffffffffffff16905090565b7f000000000000000000000000000000000000000000000000000000000000000081565b5f60015f9054906101000a900473ffffffffffffffffffffffffffffffffffffffff16905090565b610640610c58565b8060015f6101000a81548173ffffffffffffffffffffffffffffffffffffffff021916908373ffffffffffffffffffffffffffffffffffffffff1602179055508073ffffffffffffffffffffffffffffffffffffffff1661069f6105c5565b73ffffffffffffffffffffffffffffffffffffffff167f38d16b8cac22d99fc7c124b9cd0de2d3fa1faef420bfe791d8c362d765e2270060405160405180910390a350565b81602001515f8111610722576040517fd14f72e600000000000000000000000000000000000000000000000000000000815260040160405180910390fd5b5f825f015190505f60025f8373ffffffffffffffffffffffffffffffffffffffff1673ffffffffffffffffffffffffffffffffffffffff1681526020019081526020015f206040518060400160405290815f82015f9054906101000a900473ffffffffffffffffffffffffffffffffffffffff1673ffffffffffffffffffffffffffffffffffffffff1673ffffffffffffffffffffffffffffffffffffffff168152602001600182015f9054906101000a900473ffffffffffffffffffffffffffffffffffffffff1673ffffffffffffffffffffffffffffffffffffffff1673ffffffffffffffffffffffffffffffffffffffff168152505090505f73ffffffffffffffffffffffffffffffffffffffff16816020015173ffffffffffffffffffffffffffffffffffffffff1603610886576040517f8499b0bc00000000000000000000000000000000000000000000000000000000815260040160405180910390fd5b845f015173ffffffffffffffffffffffffffffffffffffffff166323b872dd333088602001516040518463ffffffff1660e01b81526004016108ca93929190612530565b6020604051808303815f875af11580156108e6573d5f5f3e3d5ffd5b505050506040513d601f19601f8201168201806040525081019061090a9190612579565b508173ffffffffffffffffffffffffffffffffffffffff16855f015173ffffffffffffffffffffffffffffffffffffffff161461094d5761094c858284610d16565b5b610998827f00000000000000000000000000000000000000000000000000000000000000007fffffffffffffffffffffffffffffffffffffffffffffffffffffffffffffffff610ea3565b5f5f7f000000000000000000000000000000000000000000000000000000000000000073ffffffffffffffffffffffffffffffffffffffff166331dea21b876040518263ffffffff1660e01b81526004016109f391906126ae565b60408051808303815f875af1158015610a0e573d5f5f3e3d5ffd5b505050506040513d601f19601f82011682018060405250810190610a3291906126e2565b915091505f60035f3373ffffffffffffffffffffffffffffffffffffffff1673ffffffffffffffffffffffffffffffffffffffff1681526020019081526020015f2080549050905060035f3373ffffffffffffffffffffffffffffffffffffffff1673ffffffffffffffffffffffffffffffffffffffff1681526020019081526020015f206040518060c001604052808773ffffffffffffffffffffffffffffffffffffffff168152602001896020015173ffffffffffffffffffffffffffffffffffffffff1681526020018960400151815260200185815260200184815260200160011515815250908060018154018082558091505060019003905f5260205f2090600602015f909190919091505f820151815f015f6101000a81548173ffffffffffffffffffffffffffffffffffffffff021916908373ffffffffffffffffffffffffffffffffffffffff1602179055506020820151816001015f6101000a81548173ffffffffffffffffffffffffffffffffffffffff021916908373ffffffffffffffffffffffffffffffffffffffff16021790555060408201518160020155606082015181600301556080820151816004015560a0820151816005015f6101000a81548160ff0219169083151502179055505050803373ffffffffffffffffffffffffffffffffffffffff167f156f6d0646dd158e7f2defae7688ad0969dd6582e7b5fb776a1692db7cea287360405160405180910390a35050505050505050565b610c60610cdf565b73ffffffffffffffffffffffffffffffffffffffff16610c7e6105c5565b73ffffffffffffffffffffffffffffffffffffffff1614610cdd57610ca1610cdf565b6040517f118cdaa7000000000000000000000000000000000000000000000000000000008152600401610cd49190611bc7565b60405180910390fd5b565b5f33905090565b60015f6101000a81549073ffffffffffffffffffffffffffffffffffffffff0219169055610d1381610ff2565b50565b610d48835f01517f000000000000000000000000000000000000000000000000000000000000000085602001516110b3565b5f7f000000000000000000000000000000000000000000000000000000000000000073ffffffffffffffffffffffffffffffffffffffff1663c81f847a308560200151876040015188606001516040518060a001604052808b5f015173ffffffffffffffffffffffffffffffffffffffff1681526020018b6020015181526020018a5f015173ffffffffffffffffffffffffffffffffffffffff1681526020018b6080015173ffffffffffffffffffffffffffffffffffffffff1681526020018b60a001518152508a60c001516040518763ffffffff1660e01b8152600401610e369695949392919061287a565b6060604051808303815f875af1158015610e52573d5f5f3e3d5ffd5b505050506040513d601f19601f82011682018060405250810190610e7691906128ea565b505090508360400151811115610e9d575f846040015182039050610e9b8333836110e3565b505b50505050565b5f5f8473ffffffffffffffffffffffffffffffffffffffff1663095ea7b360e01b8585604051602401610ed792919061293a565b604051602081830303815290604052907bffffffffffffffffffffffffffffffffffffffffffffffffffffffff19166020820180517bffffffffffffffffffffffffffffffffffffffffffffffffffffffff8381831617835250505050604051610f41919061299b565b5f604051808303815f865af19150503d805f8114610f7a576040519150601f19603f3d011682016040523d82523d5f602084013e610f7f565b606091505b5091509150818015610fac57505f81511480610fab575080806020019051810190610faa9190612579565b5b5b610feb576040517f08c379a0000000000000000000000000000000000000000000000000000000008152600401610fe2906129fb565b60405180910390fd5b5050505050565b5f5f5f9054906101000a900473ffffffffffffffffffffffffffffffffffffffff169050815f5f6101000a81548173ffffffffffffffffffffffffffffffffffffffff021916908373ffffffffffffffffffffffffffffffffffffffff1602179055508173ffffffffffffffffffffffffffffffffffffffff168173ffffffffffffffffffffffffffffffffffffffff167f8be0079c531659141344cd1fd0a4f28419497f9722a3daafe3b4186f6b6457e060405160405180910390a35050565b6110de82828573ffffffffffffffffffffffffffffffffffffffff1661111c9092919063ffffffff16565b505050565b5f8103156111175761111682828573ffffffffffffffffffffffffffffffffffffffff166112299092919063ffffffff16565b5b505050565b5f8373ffffffffffffffffffffffffffffffffffffffff1663095ea7b3848460405160240161114c92919061293a565b604051602081830303815290604052915060e01b6020820180517bffffffffffffffffffffffffffffffffffffffffffffffffffffffff8381831617835250505050905061119a84826112a8565b61122357611218848573ffffffffffffffffffffffffffffffffffffffff1663095ea7b3865f6040516024016111d1929190612a52565b604051602081830303815290604052915060e01b6020820180517bffffffffffffffffffffffffffffffffffffffffffffffffffffffff8381831617835250505050611301565b6112228482611301565b5b50505050565b6112a3838473ffffffffffffffffffffffffffffffffffffffff1663a9059cbb858560405160240161125c92919061293a565b604051602081830303815290604052915060e01b6020820180517bffffffffffffffffffffffffffffffffffffffffffffffffffffffff8381831617835250505050611301565b505050565b5f5f5f5f60205f8651602088015f8a5af192503d91505f5190508280156112f657505f82146112da57600181146112f5565b5f8673ffffffffffffffffffffffffffffffffffffffff163b115b5b935050505092915050565b5f5f60205f8451602086015f885af180611320576040513d5f823e3d81fd5b3d92505f519150505f8214611339576001811415611354565b5f8473ffffffffffffffffffffffffffffffffffffffff163b145b1561139657836040517f5274afe700000000000000000000000000000000000000000000000000000000815260040161138d9190611bc7565b60405180910390fd5b50505050565b5f604051905090565b5f5ffd5b5f5ffd5b5f819050919050565b6113bf816113ad565b81146113c9575f5ffd5b50565b5f813590506113da816113b6565b92915050565b5f73ffffffffffffffffffffffffffffffffffffffff82169050919050565b5f611409826113e0565b9050919050565b611419816113ff565b8114611423575f5ffd5b50565b5f8135905061143481611410565b92915050565b5f5ffd5b5f601f19601f8301169050919050565b7f4e487b71000000000000000000000000000000000000000000000000000000005f52604160045260245ffd5b6114848261143e565b810181811067ffffffffffffffff821117156114a3576114a261144e565b5b80604052505050565b5f6114b561139c565b90506114c1828261147b565b919050565b5f5ffd5b600b81106114d6575f5ffd5b50565b5f813590506114e7816114ca565b92915050565b5f5ffd5b5f5ffd5b5f67ffffffffffffffff82111561150f5761150e61144e565b5b6115188261143e565b9050602081019050919050565b828183375f83830152505050565b5f611545611540846114f5565b6114ac565b905082815260208101848484011115611561576115606114f1565b5b61156c848285611525565b509392505050565b5f82601f830112611588576115876114ed565b5b8135611598848260208601611533565b91505092915050565b5f8115159050919050565b6115b5816115a1565b81146115bf575f5ffd5b50565b5f813590506115d0816115ac565b92915050565b5f608082840312156115eb576115ea61143a565b5b6115f560806114ac565b90505f611604848285016114d9565b5f83015250602061161784828501611426565b602083015250604082013567ffffffffffffffff81111561163b5761163a6114c6565b5b61164784828501611574565b604083015250606061165b848285016115c2565b60608301525092915050565b5f67ffffffffffffffff8211156116815761168061144e565b5b602082029050602081019050919050565b5f5ffd5b600481106116a2575f5ffd5b50565b5f813590506116b381611696565b92915050565b5f61018082840312156116cf576116ce61143a565b5b6116da6101806114ac565b90505f6116e9848285016113cc565b5f8301525060206116fc848285016113cc565b6020830152506040611710848285016113cc565b6040830152506060611724848285016116a5565b606083015250608061173884828501611426565b60808301525060a061174c84828501611426565b60a08301525060c061176084828501611426565b60c08301525060e061177484828501611426565b60e083015250610100611789848285016113cc565b6101008301525061012061179f848285016113cc565b610120830152506101406117b5848285016113cc565b6101408301525061016082013567ffffffffffffffff8111156117db576117da6114c6565b5b6117e784828501611574565b6101608301525092915050565b5f606082840312156118095761180861143a565b5b61181360606114ac565b90505f82013567ffffffffffffffff811115611832576118316114c6565b5b61183e848285016116b9565b5f83015250602082013567ffffffffffffffff811115611861576118606114c6565b5b61186d84828501611574565b6020830152506040611881848285016113cc565b60408301525092915050565b5f61189f61189a84611667565b6114ac565b905080838252602082019050602084028301858111156118c2576118c1611692565b5b835b8181101561190957803567ffffffffffffffff8111156118e7576118e66114ed565b5b8086016118f489826117f4565b855260208501945050506020810190506118c4565b5050509392505050565b5f82601f830112611927576119266114ed565b5b813561193784826020860161188d565b91505092915050565b5f60a082840312156119555761195461143a565b5b61195f60a06114ac565b90505f61196e84828501611426565b5f830152506020611981848285016113cc565b602083015250604082013567ffffffffffffffff8111156119a5576119a46114c6565b5b6119b184828501611913565b604083015250606082013567ffffffffffffffff8111156119d5576119d46114c6565b5b6119e184828501611913565b606083015250608082013567ffffffffffffffff811115611a0557611a046114c6565b5b611a1184828501611574565b60808301525092915050565b5f5f5f5f60808587031215611a3557611a346113a5565b5b5f611a42878288016113cc565b9450506020611a5387828801611426565b935050604085013567ffffffffffffffff811115611a7457611a736113a9565b5b611a80878288016115d6565b925050606085013567ffffffffffffffff811115611aa157611aa06113a9565b5b611aad87828801611940565b91505092959194509250565b5f60408284031215611ace57611acd61143a565b5b611ad860406114ac565b90505f611ae784828501611426565b5f830152506020611afa84828501611426565b60208301525092915050565b5f5f60608385031215611b1c57611b1b6113a5565b5b5f611b2985828601611426565b9250506020611b3a85828601611ab9565b9150509250929050565b5f819050919050565b5f611b67611b62611b5d846113e0565b611b44565b6113e0565b9050919050565b5f611b7882611b4d565b9050919050565b5f611b8982611b6e565b9050919050565b611b9981611b7f565b82525050565b5f602082019050611bb25f830184611b90565b92915050565b611bc1816113ff565b82525050565b5f602082019050611bda5f830184611bb8565b92915050565b5f611bea82611b6e565b9050919050565b611bfa81611be0565b82525050565b5f602082019050611c135f830184611bf1565b92915050565b5f60208284031215611c2e57611c2d6113a5565b5b5f611c3b84828501611426565b91505092915050565b5f60a08284031215611c5957611c5861143a565b5b611c6360a06114ac565b90505f611c72848285016113cc565b5f830152506020611c85848285016113cc565b6020830152506040611c99848285016113cc565b6040830152506060611cad848285016113cc565b6060830152506080611cc1848285016113cc565b60808301525092915050565b5f6101608284031215611ce357611ce261143a565b5b611ced60e06114ac565b90505f611cfc84828501611426565b5f830152506020611d0f848285016113cc565b6020830152506040611d23848285016113cc565b6040830152506060611d3784828501611c44565b606083015250610100611d4c84828501611426565b60808301525061012082013567ffffffffffffffff811115611d7157611d706114c6565b5b611d7d848285016115d6565b60a08301525061014082013567ffffffffffffffff811115611da257611da16114c6565b5b611dae84828501611940565b60c08301525092915050565b5f6101608284031215611dd057611dcf61143a565b5b611dda60e06114ac565b90505f611de984828501611426565b5f830152506020611dfc84828501611426565b6020830152506040611e10848285016113cc565b6040830152506060611e2484828501611c44565b606083015250610100611e3984828501611426565b60808301525061012082013567ffffffffffffffff811115611e5e57611e5d6114c6565b5b611e6a848285016115d6565b60a08301525061014082013567ffffffffffffffff811115611e8f57611e8e6114c6565b5b611e9b84828501611940565b60c08301525092915050565b5f5f60408385031215611ebd57611ebc6113a5565b5b5f83013567ffffffffffffffff811115611eda57611ed96113a9565b5b611ee685828601611ccd565b925050602083013567ffffffffffffffff811115611f0757611f066113a9565b5b611f1385828601611dba565b9150509250929050565b5f82825260208201905092915050565b7f706f736974696f6e20646f6573206e6f742065786973740000000000000000005f82015250565b5f611f61601783611f1d565b9150611f6c82611f2d565b602082019050919050565b5f6020820190508181035f830152611f8e81611f55565b9050919050565b7f4e487b71000000000000000000000000000000000000000000000000000000005f52603260045260245ffd5b7f706f736974696f6e20616c726561647920756e6c6576657261676564000000005f82015250565b5f611ff6601c83611f1d565b915061200182611fc2565b602082019050919050565b5f6020820190508181035f83015261202381611fea565b9050919050565b612033816113ff565b82525050565b612042816113ad565b82525050565b7f4e487b71000000000000000000000000000000000000000000000000000000005f52602160045260245ffd5b600b811061208657612085612048565b5b50565b5f81905061209682612075565b919050565b5f6120a582612089565b9050919050565b6120b58161209b565b82525050565b5f81519050919050565b5f82825260208201905092915050565b8281835e5f83830152505050565b5f6120ed826120bb565b6120f781856120c5565b93506121078185602086016120d5565b6121108161143e565b840191505092915050565b612124816115a1565b82525050565b5f608083015f83015161213f5f8601826120ac565b506020830151612152602086018261202a565b506040830151848203604086015261216a82826120e3565b915050606083015161217f606086018261211b565b508091505092915050565b5f81519050919050565b5f82825260208201905092915050565b5f819050602082019050919050565b600481106121c4576121c3612048565b5b50565b5f8190506121d4826121b3565b919050565b5f6121e3826121c7565b9050919050565b6121f3816121d9565b82525050565b5f61018083015f83015161220f5f860182612039565b5060208301516122226020860182612039565b5060408301516122356040860182612039565b50606083015161224860608601826121ea565b50608083015161225b608086018261202a565b5060a083015161226e60a086018261202a565b5060c083015161228160c086018261202a565b5060e083015161229460e086018261202a565b506101008301516122a9610100860182612039565b506101208301516122be610120860182612039565b506101408301516122d3610140860182612039565b506101608301518482036101608601526122ed82826120e3565b9150508091505092915050565b5f606083015f8301518482035f86015261231482826121f9565b9150506020830151848203602086015261232e82826120e3565b91505060408301516123436040860182612039565b508091505092915050565b5f61235983836122fa565b905092915050565b5f602082019050919050565b5f6123778261218a565b6123818185612194565b935083602082028501612393856121a4565b805f5b858110156123ce57848403895281516123af858261234e565b94506123ba83612361565b925060208a01995050600181019050612396565b50829750879550505050505092915050565b5f60a083015f8301516123f55f86018261202a565b5060208301516124086020860182612039565b5060408301518482036040860152612420828261236d565b9150506060830151848203606086015261243a828261236d565b9150506080830151848203608086015261245482826120e3565b9150508091505092915050565b5f60e083015f8301516124765f86018261202a565b506020830151612489602086018261202a565b50604083015161249c6040860182612039565b5060608301516124af6060860182612039565b5060808301516124c2608086018261202a565b5060a083015184820360a08601526124da828261212a565b91505060c083015184820360c08601526124f482826123e0565b9150508091505092915050565b5f6020820190508181035f8301526125198184612461565b905092915050565b61252a816113ad565b82525050565b5f6060820190506125435f830186611bb8565b6125506020830185611bb8565b61255d6040830184612521565b949350505050565b5f81519050612573816115ac565b92915050565b5f6020828403121561258e5761258d6113a5565b5b5f61259b84828501612565565b91505092915050565b60a082015f8201516125b85f850182612039565b5060208201516125cb6020850182612039565b5060408201516125de6040850182612039565b5060608201516125f16060850182612039565b5060808201516126046080850182612039565b50505050565b5f61016083015f8301516126205f86018261202a565b506020830151612633602086018261202a565b5060408301516126466040860182612039565b50606083015161265960608601826125a4565b50608083015161266d61010086018261202a565b5060a0830151848203610120860152612686828261212a565b91505060c08301518482036101408601526126a182826123e0565b9150508091505092915050565b5f6020820190508181035f8301526126c6818461260a565b905092915050565b5f815190506126dc816113b6565b92915050565b5f5f604083850312156126f8576126f76113a5565b5b5f612705858286016126ce565b9250506020612716858286016126ce565b9150509250929050565b60a082015f8201516127345f850182612039565b5060208201516127476020850182612039565b50604082015161275a6040850182612039565b50606082015161276d6060850182612039565b5060808201516127806080850182612039565b50505050565b5f60a083015f83015161279b5f86018261202a565b5060208301516127ae6020860182612039565b5060408301516127c1604086018261202a565b5060608301516127d4606086018261202a565b50608083015184820360808601526127ec828261212a565b9150508091505092915050565b5f60a083015f83015161280e5f86018261202a565b5060208301516128216020860182612039565b5060408301518482036040860152612839828261236d565b91505060608301518482036060860152612853828261236d565b9150506080830151848203608086015261286d82826120e3565b9150508091505092915050565b5f6101408201905061288e5f830189611bb8565b61289b6020830188611bb8565b6128a86040830187612521565b6128b56060830186612720565b8181036101008301526128c88185612786565b90508181036101208301526128dd81846127f9565b9050979650505050505050565b5f5f5f60608486031215612901576129006113a5565b5b5f61290e868287016126ce565b935050602061291f868287016126ce565b9250506040612930868287016126ce565b9150509250925092565b5f60408201905061294d5f830185611bb8565b61295a6020830184612521565b9392505050565b5f81905092915050565b5f612975826120bb565b61297f8185612961565b935061298f8185602086016120d5565b80840191505092915050565b5f6129a6828461296b565b915081905092915050565b7f5361666520417070726f766500000000000000000000000000000000000000005f82015250565b5f6129e5600c83611f1d565b91506129f0826129b1565b602082019050919050565b5f6020820190508181035f830152612a12816129d9565b9050919050565b5f819050919050565b5f612a3c612a37612a3284612a19565b611b44565b6113ad565b9050919050565b612a4c81612a22565b82525050565b5f604082019050612a655f830185611bb8565b612a726020830184612a43565b939250505056fea2646970667358221220cb886d50aa4336584a70723137ed19cf0aba479fcb95994bfdcd0f80317a55dc64736f6c634300081e0033","linkReferences":{}},"methodIdentifiers":{"acceptOwnership()":"79ba5097","i_flashLeverage()":"593ad9db","i_pendleRouter()":"dd2a7a17","leverage((address,uint256,uint256,(uint256,uint256,uint256,uint256,uint256),address,(uint8,address,bytes,bool),(address,uint256,((uint256,uint256,uint256,uint8,address,address,address,address,uint256,uint256,uint256,bytes),bytes,uint256)[],((uint256,uint256,uint256,uint8,address,address,address,address,uint256,uint256,uint256,bytes),bytes,uint256)[],bytes)),(address,address,uint256,(uint256,uint256,uint256,uint256,uint256),address,(uint8,address,bytes,bool),(address,uint256,((uint256,uint256,uint256,uint8,address,address,address,address,uint256,uint256,uint256,bytes),bytes,uint256)[],((uint256,uint256,uint256,uint8,address,address,address,address,uint256,uint256,uint256,bytes),bytes,uint256)[],bytes)))":"fb81444b","owner()":"8da5cb5b","pendingOwner()":"e30c3978","renounceOwnership()":"715018a6","transferOwnership(address)":"f2fde38b","unleverage(uint256,address,(uint8,address,bytes,bool),(address,uint256,((uint256,uint256,uint256,uint8,address,address,address,address,uint256,uint256,uint256,bytes),bytes,uint256)[],((uint256,uint256,uint256,uint8,address,address,address,address,uint256,uint256,uint256,bytes),bytes,uint256)[],bytes))":"062c43c6","updateSwapParams(address,(address,address))":"26222500"},"id":45}