{"abi":[{"type":"constructor","inputs":[],"stateMutability":"nonpayable"},{"type":"function","name":"DOMAIN_SEPARATOR","inputs":[],"outputs":[{"name":"","type":"bytes32","internalType":"bytes32"}],"stateMutability":"view"},{"type":"function","name":"allowance","inputs":[{"name":"owner","type":"address","internalType":"address"},{"name":"spender","type":"address","internalType":"address"}],"outputs":[{"name":"","type":"uint256","internalType":"uint256"}],"stateMutability":"view"},{"type":"function","name":"approve","inputs":[{"name":"spender","type":"address","internalType":"address"},{"name":"value","type":"uint256","internalType":"uint256"}],"outputs":[{"name":"","type":"bool","internalType":"bool"}],"stateMutability":"nonpayable"},{"type":"function","name":"balanceOf","inputs":[{"name":"account","type":"address","internalType":"address"}],"outputs":[{"name":"","type":"uint256","internalType":"uint256"}],"stateMutability":"view"},{"type":"function","name":"burn","inputs":[{"name":"account","type":"address","internalType":"address"},{"name":"amount","type":"uint256","internalType":"uint256"}],"outputs":[],"stateMutability":"nonpayable"},{"type":"function","name":"decimals","inputs":[],"outputs":[{"name":"","type":"uint8","internalType":"uint8"}],"stateMutability":"view"},{"type":"function","name":"eip712Domain","inputs":[],"outputs":[{"name":"fields","type":"bytes1","internalType":"bytes1"},{"name":"name","type":"string","internalType":"string"},{"name":"version","type":"string","internalType":"string"},{"name":"chainId","type":"uint256","internalType":"uint256"},{"name":"verifyingContract","type":"address","internalType":"address"},{"name":"salt","type":"bytes32","internalType":"bytes32"},{"name":"extensions","type":"uint256[]","internalType":"uint256[]"}],"stateMutability":"view"},{"type":"function","name":"mint","inputs":[{"name":"account","type":"address","internalType":"address"},{"name":"amount","type":"uint256","internalType":"uint256"}],"outputs":[],"stateMutability":"nonpayable"},{"type":"function","name":"name","inputs":[],"outputs":[{"name":"","type":"string","internalType":"string"}],"stateMutability":"view"},{"type":"function","name":"nonces","inputs":[{"name":"owner","type":"address","internalType":"address"}],"outputs":[{"name":"","type":"uint256","internalType":"uint256"}],"stateMutability":"view"},{"type":"function","name":"owner","inputs":[],"outputs":[{"name":"","type":"address","internalType":"address"}],"stateMutability":"view"},{"type":"function","name":"permit","inputs":[{"name":"owner","type":"address","internalType":"address"},{"name":"spender","type":"address","internalType":"address"},{"name":"value","type":"uint256","internalType":"uint256"},{"name":"deadline","type":"uint256","internalType":"uint256"},{"name":"v","type":"uint8","internalType":"uint8"},{"name":"r","type":"bytes32","internalType":"bytes32"},{"name":"s","type":"bytes32","internalType":"bytes32"}],"outputs":[],"stateMutability":"nonpayable"},{"type":"function","name":"positionManagerAddress","inputs":[],"outputs":[{"name":"","type":"address","internalType":"address"}],"stateMutability":"view"},{"type":"function","name":"renounceOwnership","inputs":[],"outputs":[],"stateMutability":"nonpayable"},{"type":"function","name":"setManagerAddresses","inputs":[{"name":"_positionManagerAddress","type":"address","internalType":"address"}],"outputs":[],"stateMutability":"nonpayable"},{"type":"function","name":"symbol","inputs":[],"outputs":[{"name":"","type":"string","internalType":"string"}],"stateMutability":"view"},{"type":"function","name":"totalSupply","inputs":[],"outputs":[{"name":"","type":"uint256","internalType":"uint256"}],"stateMutability":"view"},{"type":"function","name":"transfer","inputs":[{"name":"to","type":"address","internalType":"address"},{"name":"value","type":"uint256","internalType":"uint256"}],"outputs":[{"name":"","type":"bool","internalType":"bool"}],"stateMutability":"nonpayable"},{"type":"function","name":"transferFrom","inputs":[{"name":"from","type":"address","internalType":"address"},{"name":"to","type":"address","internalType":"address"},{"name":"value","type":"uint256","internalType":"uint256"}],"outputs":[{"name":"","type":"bool","internalType":"bool"}],"stateMutability":"nonpayable"},{"type":"function","name":"transferOwnership","inputs":[{"name":"newOwner","type":"address","internalType":"address"}],"outputs":[],"stateMutability":"nonpayable"},{"type":"event","name":"Approval","inputs":[{"name":"owner","type":"address","indexed":true,"internalType":"address"},{"name":"spender","type":"address","indexed":true,"internalType":"address"},{"name":"value","type":"uint256","indexed":false,"internalType":"uint256"}],"anonymous":false},{"type":"event","name":"EIP712DomainChanged","inputs":[],"anonymous":false},{"type":"event","name":"OwnershipTransferred","inputs":[{"name":"previousOwner","type":"address","indexed":true,"internalType":"address"},{"name":"newOwner","type":"address","indexed":true,"internalType":"address"}],"anonymous":false},{"type":"event","name":"PositionManagerAddressUpdated","inputs":[{"name":"newPositionManagerAddress","type":"address","indexed":false,"internalType":"address"}],"anonymous":false},{"type":"event","name":"Transfer","inputs":[{"name":"from","type":"address","indexed":true,"internalType":"address"},{"name":"to","type":"address","indexed":true,"internalType":"address"},{"name":"value","type":"uint256","indexed":false,"internalType":"uint256"}],"anonymous":false},{"type":"error","name":"ECDSAInvalidSignature","inputs":[]},{"type":"error","name":"ECDSAInvalidSignatureLength","inputs":[{"name":"length","type":"uint256","internalType":"uint256"}]},{"type":"error","name":"ECDSAInvalidSignatureS","inputs":[{"name":"s","type":"bytes32","internalType":"bytes32"}]},{"type":"error","name":"ERC20InsufficientAllowance","inputs":[{"name":"spender","type":"address","internalType":"address"},{"name":"allowance","type":"uint256","internalType":"uint256"},{"name":"needed","type":"uint256","internalType":"uint256"}]},{"type":"error","name":"ERC20InsufficientBalance","inputs":[{"name":"sender","type":"address","internalType":"address"},{"name":"balance","type":"uint256","internalType":"uint256"},{"name":"needed","type":"uint256","internalType":"uint256"}]},{"type":"error","name":"ERC20InvalidApprover","inputs":[{"name":"approver","type":"address","internalType":"address"}]},{"type":"error","name":"ERC20InvalidReceiver","inputs":[{"name":"receiver","type":"address","internalType":"address"}]},{"type":"error","name":"ERC20InvalidSender","inputs":[{"name":"sender","type":"address","internalType":"address"}]},{"type":"error","name":"ERC20InvalidSpender","inputs":[{"name":"spender","type":"address","internalType":"address"}]},{"type":"error","name":"ERC2612ExpiredSignature","inputs":[{"name":"deadline","type":"uint256","internalType":"uint256"}]},{"type":"error","name":"ERC2612InvalidSigner","inputs":[{"name":"signer","type":"address","internalType":"address"},{"name":"owner","type":"address","internalType":"address"}]},{"type":"error","name":"InvalidAccountNonce","inputs":[{"name":"account","type":"address","internalType":"address"},{"name":"currentNonce","type":"uint256","internalType":"uint256"}]},{"type":"error","name":"InvalidShortString","inputs":[]},{"type":"error","name":"OwnableInvalidOwner","inputs":[{"name":"owner","type":"address","internalType":"address"}]},{"type":"error","name":"OwnableUnauthorizedAccount","inputs":[{"name":"account","type":"address","internalType":"address"}]},{"type":"error","name":"StblUSD__CallerNotAManagerAddress","inputs":[]},{"type":"error","name":"StringTooLong","inputs":[{"name":"str","type":"string","internalType":"string"}]}],"bytecode":{"object":"0x610160604052348015610010575f5ffd5b50336040518060400160405280601681526020017f53706972616c5374616b6520537461626c652055534400000000000000000000815250806040518060400160405280600181526020017f31000000000000000000000000000000000000000000000000000000000000008152506040518060400160405280601681526020017f53706972616c5374616b6520537461626c6520555344000000000000000000008152506040518060400160405280600781526020017f7374626c5553440000000000000000000000000000000000000000000000000081525081600390816100fa9190610652565b50806004908161010a9190610652565b50505061012160058361023d60201b90919060201c565b610120818152505061013d60068261023d60201b90919060201c565b6101408181525050818051906020012060e08181525050808051906020012061010081815250504660a0818152505061017a61028a60201b60201c565b608081815250503073ffffffffffffffffffffffffffffffffffffffff1660c08173ffffffffffffffffffffffffffffffffffffffff16815250505050505f73ffffffffffffffffffffffffffffffffffffffff168173ffffffffffffffffffffffffffffffffffffffff1603610228575f6040517f1e4fbdf700000000000000000000000000000000000000000000000000000000815260040161021f9190610760565b60405180910390fd5b610237816102e460201b60201c565b5061090a565b5f60208351101561025e57610257836103a760201b60201c565b9050610284565b8261026e8361040c60201b60201c565b5f01908161027c9190610652565b5060ff5f1b90505b92915050565b5f7f8b73c3c69bb8fe3d512ecc4cf759cc79239f7b179b0ffacaa9a75d522b39400f60e0516101005146306040516020016102c99594939291906107a0565b60405160208183030381529060405280519060200120905090565b5f60085f9054906101000a900473ffffffffffffffffffffffffffffffffffffffff1690508160085f6101000a81548173ffffffffffffffffffffffffffffffffffffffff021916908373ffffffffffffffffffffffffffffffffffffffff1602179055508173ffffffffffffffffffffffffffffffffffffffff168173ffffffffffffffffffffffffffffffffffffffff167f8be0079c531659141344cd1fd0a4f28419497f9722a3daafe3b4186f6b6457e060405160405180910390a35050565b5f5f829050601f815111156103f357826040517f305a27a90000000000000000000000000000000000000000000000000000000081526004016103ea9190610857565b60405180910390fd5b8051816103ff906108a4565b5f1c175f1b915050919050565b5f819050919050565b5f81519050919050565b7f4e487b71000000000000000000000000000000000000000000000000000000005f52604160045260245ffd5b7f4e487b71000000000000000000000000000000000000000000000000000000005f52602260045260245ffd5b5f600282049050600182168061049057607f821691505b6020821081036104a3576104a261044c565b5b50919050565b5f819050815f5260205f209050919050565b5f6020601f8301049050919050565b5f82821b905092915050565b5f600883026105057fffffffffffffffffffffffffffffffffffffffffffffffffffffffffffffffff826104ca565b61050f86836104ca565b95508019841693508086168417925050509392505050565b5f819050919050565b5f819050919050565b5f61055361054e61054984610527565b610530565b610527565b9050919050565b5f819050919050565b61056c83610539565b6105806105788261055a565b8484546104d6565b825550505050565b5f5f905090565b610597610588565b6105a2818484610563565b505050565b5b818110156105c5576105ba5f8261058f565b6001810190506105a8565b5050565b601f82111561060a576105db816104a9565b6105e4846104bb565b810160208510156105f3578190505b6106076105ff856104bb565b8301826105a7565b50505b505050565b5f82821c905092915050565b5f61062a5f198460080261060f565b1980831691505092915050565b5f610642838361061b565b9150826002028217905092915050565b61065b82610415565b67ffffffffffffffff8111156106745761067361041f565b5b61067e8254610479565b6106898282856105c9565b5f60209050601f8311600181146106ba575f84156106a8578287015190505b6106b28582610637565b865550610719565b601f1984166106c8866104a9565b5f5b828110156106ef578489015182556001820191506020850194506020810190506106ca565b8683101561070c5784890151610708601f89168261061b565b8355505b6001600288020188555050505b505050505050565b5f73ffffffffffffffffffffffffffffffffffffffff82169050919050565b5f61074a82610721565b9050919050565b61075a81610740565b82525050565b5f6020820190506107735f830184610751565b92915050565b5f819050919050565b61078b81610779565b82525050565b61079a81610527565b82525050565b5f60a0820190506107b35f830188610782565b6107c06020830187610782565b6107cd6040830186610782565b6107da6060830185610791565b6107e76080830184610751565b9695505050505050565b5f82825260208201905092915050565b8281835e5f83830152505050565b5f601f19601f8301169050919050565b5f61082982610415565b61083381856107f1565b9350610843818560208601610801565b61084c8161080f565b840191505092915050565b5f6020820190508181035f83015261086f818461081f565b905092915050565b5f81519050919050565b5f819050602082019050919050565b5f61089b8251610779565b80915050919050565b5f6108ae82610877565b826108b884610881565b90506108c381610890565b92506020821015610903576108fe7fffffffffffffffffffffffffffffffffffffffffffffffffffffffffffffffff836020036008026104ca565b831692505b5050919050565b60805160a05160c05160e05161010051610120516101405161213e61095b5f395f610f8001525f610f4501525f6114f801525f6114d701525f610c7a01525f610cd001525f610cf9015261213e5ff3fe608060405234801561000f575f5ffd5b506004361061012a575f3560e01c80637a8a1113116100ab5780639dc29fac1161006f5780639dc29fac14610326578063a9059cbb14610342578063d505accf14610372578063dd62ed3e1461038e578063f2fde38b146103be5761012a565b80637a8a1113146102785780637ecebe001461029657806384b0196e146102c65780638da5cb5b146102ea57806395d89b41146103085761012a565b80633644e515116100f25780633644e515146101e857806340c10f191461020657806370a0823114610222578063715018a61461025257806375b709141461025c5761012a565b806306fdde031461012e578063095ea7b31461014c57806318160ddd1461017c57806323b872dd1461019a578063313ce567146101ca575b5f5ffd5b6101366103da565b60405161014391906119ae565b60405180910390f35b61016660048036038101906101619190611a5f565b61046a565b6040516101739190611ab7565b60405180910390f35b61018461048c565b6040516101919190611adf565b60405180910390f35b6101b460048036038101906101af9190611af8565b610495565b6040516101c19190611ab7565b60405180910390f35b6101d26104c3565b6040516101df9190611b63565b60405180910390f35b6101f06104cb565b6040516101fd9190611b94565b60405180910390f35b610220600480360381019061021b9190611a5f565b6104d9565b005b61023c60048036038101906102379190611bad565b61056d565b6040516102499190611adf565b60405180910390f35b61025a6105b2565b005b61027660048036038101906102719190611bad565b6105c5565b005b610280610647565b60405161028d9190611be7565b60405180910390f35b6102b060048036038101906102ab9190611bad565b61066c565b6040516102bd9190611adf565b60405180910390f35b6102ce61067d565b6040516102e19796959493929190611cf1565b60405180910390f35b6102f2610722565b6040516102ff9190611be7565b60405180910390f35b61031061074a565b60405161031d91906119ae565b60405180910390f35b610340600480360381019061033b9190611a5f565b6107da565b005b61035c60048036038101906103579190611a5f565b61086e565b6040516103699190611ab7565b60405180910390f35b61038c60048036038101906103879190611dc7565b610890565b005b6103a860048036038101906103a39190611e64565b6109d5565b6040516103b59190611adf565b60405180910390f35b6103d860048036038101906103d39190611bad565b610a57565b005b6060600380546103e990611ecf565b80601f016020809104026020016040519081016040528092919081815260200182805461041590611ecf565b80156104605780601f1061043757610100808354040283529160200191610460565b820191905f5260205f20905b81548152906001019060200180831161044357829003601f168201915b5050505050905090565b5f5f610474610adb565b9050610481818585610ae2565b600191505092915050565b5f600254905090565b5f5f61049f610adb565b90506104ac858285610af4565b6104b7858585610b87565b60019150509392505050565b5f6012905090565b5f6104d4610c77565b905090565b60095f9054906101000a900473ffffffffffffffffffffffffffffffffffffffff1673ffffffffffffffffffffffffffffffffffffffff163373ffffffffffffffffffffffffffffffffffffffff161461055f576040517ffaff437400000000000000000000000000000000000000000000000000000000815260040160405180910390fd5b6105698282610d2d565b5050565b5f5f5f8373ffffffffffffffffffffffffffffffffffffffff1673ffffffffffffffffffffffffffffffffffffffff1681526020019081526020015f20549050919050565b6105ba610dac565b6105c35f610e33565b565b6105cd610dac565b8060095f6101000a81548173ffffffffffffffffffffffffffffffffffffffff021916908373ffffffffffffffffffffffffffffffffffffffff1602179055507f75ad8b7d95ea54cfdbb1d9c10e8f3a52ab451f97e88f3d536fe9c314db8d07988160405161063c9190611be7565b60405180910390a150565b60095f9054906101000a900473ffffffffffffffffffffffffffffffffffffffff1681565b5f61067682610ef6565b9050919050565b5f6060805f5f5f606061068e610f3c565b610696610f77565b46305f5f1b5f67ffffffffffffffff8111156106b5576106b4611eff565b5b6040519080825280602002602001820160405280156106e35781602001602082028036833780820191505090505b507f0f00000000000000000000000000000000000000000000000000000000000000959493929190965096509650965096509650965090919293949596565b5f60085f9054906101000a900473ffffffffffffffffffffffffffffffffffffffff16905090565b60606004805461075990611ecf565b80601f016020809104026020016040519081016040528092919081815260200182805461078590611ecf565b80156107d05780601f106107a7576101008083540402835291602001916107d0565b820191905f5260205f20905b8154815290600101906020018083116107b357829003601f168201915b5050505050905090565b60095f9054906101000a900473ffffffffffffffffffffffffffffffffffffffff1673ffffffffffffffffffffffffffffffffffffffff163373ffffffffffffffffffffffffffffffffffffffff1614610860576040517ffaff437400000000000000000000000000000000000000000000000000000000815260040160405180910390fd5b61086a8282610fb2565b5050565b5f5f610878610adb565b9050610885818585610b87565b600191505092915050565b834211156108d557836040517f627913020000000000000000000000000000000000000000000000000000000081526004016108cc9190611adf565b60405180910390fd5b5f7f6e71edae12b1b97f4d1f60370fef10105fa2faae0126114a169c64845d6126c98888886109038c611031565b8960405160200161091996959493929190611f2c565b6040516020818303038152906040528051906020012090505f61093b82611084565b90505f61094a8287878761109d565b90508973ffffffffffffffffffffffffffffffffffffffff168173ffffffffffffffffffffffffffffffffffffffff16146109be57808a6040517f4b800e460000000000000000000000000000000000000000000000000000000081526004016109b5929190611f8b565b60405180910390fd5b6109c98a8a8a610ae2565b50505050505050505050565b5f60015f8473ffffffffffffffffffffffffffffffffffffffff1673ffffffffffffffffffffffffffffffffffffffff1681526020019081526020015f205f8373ffffffffffffffffffffffffffffffffffffffff1673ffffffffffffffffffffffffffffffffffffffff1681526020019081526020015f2054905092915050565b610a5f610dac565b5f73ffffffffffffffffffffffffffffffffffffffff168173ffffffffffffffffffffffffffffffffffffffff1603610acf575f6040517f1e4fbdf7000000000000000000000000000000000000000000000000000000008152600401610ac69190611be7565b60405180910390fd5b610ad881610e33565b50565b5f33905090565b610aef83838360016110cb565b505050565b5f610aff84846109d5565b90507fffffffffffffffffffffffffffffffffffffffffffffffffffffffffffffffff811015610b815781811015610b72578281836040517ffb8f41b2000000000000000000000000000000000000000000000000000000008152600401610b6993929190611fb2565b60405180910390fd5b610b8084848484035f6110cb565b5b50505050565b5f73ffffffffffffffffffffffffffffffffffffffff168373ffffffffffffffffffffffffffffffffffffffff1603610bf7575f6040517f96c6fd1e000000000000000000000000000000000000000000000000000000008152600401610bee9190611be7565b60405180910390fd5b5f73ffffffffffffffffffffffffffffffffffffffff168273ffffffffffffffffffffffffffffffffffffffff1603610c67575f6040517fec442f05000000000000000000000000000000000000000000000000000000008152600401610c5e9190611be7565b60405180910390fd5b610c7283838361129a565b505050565b5f7f000000000000000000000000000000000000000000000000000000000000000073ffffffffffffffffffffffffffffffffffffffff163073ffffffffffffffffffffffffffffffffffffffff16148015610cf257507f000000000000000000000000000000000000000000000000000000000000000046145b15610d1f577f00000000000000000000000000000000000000000000000000000000000000009050610d2a565b610d276114b3565b90505b90565b5f73ffffffffffffffffffffffffffffffffffffffff168273ffffffffffffffffffffffffffffffffffffffff1603610d9d575f6040517fec442f05000000000000000000000000000000000000000000000000000000008152600401610d949190611be7565b60405180910390fd5b610da85f838361129a565b5050565b610db4610adb565b73ffffffffffffffffffffffffffffffffffffffff16610dd2610722565b73ffffffffffffffffffffffffffffffffffffffff1614610e3157610df5610adb565b6040517f118cdaa7000000000000000000000000000000000000000000000000000000008152600401610e289190611be7565b60405180910390fd5b565b5f60085f9054906101000a900473ffffffffffffffffffffffffffffffffffffffff1690508160085f6101000a81548173ffffffffffffffffffffffffffffffffffffffff021916908373ffffffffffffffffffffffffffffffffffffffff1602179055508173ffffffffffffffffffffffffffffffffffffffff168173ffffffffffffffffffffffffffffffffffffffff167f8be0079c531659141344cd1fd0a4f28419497f9722a3daafe3b4186f6b6457e060405160405180910390a35050565b5f60075f8373ffffffffffffffffffffffffffffffffffffffff1673ffffffffffffffffffffffffffffffffffffffff1681526020019081526020015f20549050919050565b6060610f7260057f000000000000000000000000000000000000000000000000000000000000000061154890919063ffffffff16565b905090565b6060610fad60067f000000000000000000000000000000000000000000000000000000000000000061154890919063ffffffff16565b905090565b5f73ffffffffffffffffffffffffffffffffffffffff168273ffffffffffffffffffffffffffffffffffffffff1603611022575f6040517f96c6fd1e0000000000000000000000000000000000000000000000000000000081526004016110199190611be7565b60405180910390fd5b61102d825f8361129a565b5050565b5f60075f8373ffffffffffffffffffffffffffffffffffffffff1673ffffffffffffffffffffffffffffffffffffffff1681526020019081526020015f205f815480929190600101919050559050919050565b5f611096611090610c77565b836115f5565b9050919050565b5f5f5f5f6110ad88888888611635565b9250925092506110bd828261171c565b829350505050949350505050565b5f73ffffffffffffffffffffffffffffffffffffffff168473ffffffffffffffffffffffffffffffffffffffff160361113b575f6040517fe602df050000000000000000000000000000000000000000000000000000000081526004016111329190611be7565b60405180910390fd5b5f73ffffffffffffffffffffffffffffffffffffffff168373ffffffffffffffffffffffffffffffffffffffff16036111ab575f6040517f94280d620000000000000000000000000000000000000000000000000000000081526004016111a29190611be7565b60405180910390fd5b8160015f8673ffffffffffffffffffffffffffffffffffffffff1673ffffffffffffffffffffffffffffffffffffffff1681526020019081526020015f205f8573ffffffffffffffffffffffffffffffffffffffff1673ffffffffffffffffffffffffffffffffffffffff1681526020019081526020015f20819055508015611294578273ffffffffffffffffffffffffffffffffffffffff168473ffffffffffffffffffffffffffffffffffffffff167f8c5be1e5ebec7d5bd14f71427d1e84f3dd0314c0f7b2291e5b200ac8c7c3b9258460405161128b9190611adf565b60405180910390a35b50505050565b5f73ffffffffffffffffffffffffffffffffffffffff168373ffffffffffffffffffffffffffffffffffffffff16036112ea578060025f8282546112de9190612014565b925050819055506113b8565b5f5f5f8573ffffffffffffffffffffffffffffffffffffffff1673ffffffffffffffffffffffffffffffffffffffff1681526020019081526020015f2054905081811015611373578381836040517fe450d38c00000000000000000000000000000000000000000000000000000000815260040161136a93929190611fb2565b60405180910390fd5b8181035f5f8673ffffffffffffffffffffffffffffffffffffffff1673ffffffffffffffffffffffffffffffffffffffff1681526020019081526020015f2081905550505b5f73ffffffffffffffffffffffffffffffffffffffff168273ffffffffffffffffffffffffffffffffffffffff16036113ff578060025f8282540392505081905550611449565b805f5f8473ffffffffffffffffffffffffffffffffffffffff1673ffffffffffffffffffffffffffffffffffffffff1681526020019081526020015f205f82825401925050819055505b8173ffffffffffffffffffffffffffffffffffffffff168373ffffffffffffffffffffffffffffffffffffffff167fddf252ad1be2c89b69c2b068fc378daa952ba7f163c4a11628f55a4df523b3ef836040516114a69190611adf565b60405180910390a3505050565b5f7f8b73c3c69bb8fe3d512ecc4cf759cc79239f7b179b0ffacaa9a75d522b39400f7f00000000000000000000000000000000000000000000000000000000000000007f0000000000000000000000000000000000000000000000000000000000000000463060405160200161152d959493929190612047565b60405160208183030381529060405280519060200120905090565b606060ff5f1b83146115645761155d8361187e565b90506115ef565b81805461157090611ecf565b80601f016020809104026020016040519081016040528092919081815260200182805461159c90611ecf565b80156115e75780601f106115be576101008083540402835291602001916115e7565b820191905f5260205f20905b8154815290600101906020018083116115ca57829003601f168201915b505050505090505b92915050565b5f6040517f190100000000000000000000000000000000000000000000000000000000000081528360028201528260228201526042812091505092915050565b5f5f5f7f7fffffffffffffffffffffffffffffff5d576e7357a4501ddfe92f46681b20a0845f1c1115611671575f600385925092509250611712565b5f6001888888886040515f81526020016040526040516116949493929190612098565b6020604051602081039080840390855afa1580156116b4573d5f5f3e3d5ffd5b5050506020604051035190505f73ffffffffffffffffffffffffffffffffffffffff168173ffffffffffffffffffffffffffffffffffffffff1603611705575f60015f5f1b93509350935050611712565b805f5f5f1b935093509350505b9450945094915050565b5f600381111561172f5761172e6120db565b5b826003811115611742576117416120db565b5b031561187a576001600381111561175c5761175b6120db565b5b82600381111561176f5761176e6120db565b5b036117a6576040517ff645eedf00000000000000000000000000000000000000000000000000000000815260040160405180910390fd5b600260038111156117ba576117b96120db565b5b8260038111156117cd576117cc6120db565b5b0361181157805f1c6040517ffce698f70000000000000000000000000000000000000000000000000000000081526004016118089190611adf565b60405180910390fd5b600380811115611824576118236120db565b5b826003811115611837576118366120db565b5b0361187957806040517fd78bce0c0000000000000000000000000000000000000000000000000000000081526004016118709190611b94565b60405180910390fd5b5b5050565b60605f61188a836118f0565b90505f602067ffffffffffffffff8111156118a8576118a7611eff565b5b6040519080825280601f01601f1916602001820160405280156118da5781602001600182028036833780820191505090505b5090508181528360208201528092505050919050565b5f5f60ff835f1c169050601f811115611935576040517fb3512b0c00000000000000000000000000000000000000000000000000000000815260040160405180910390fd5b80915050919050565b5f81519050919050565b5f82825260208201905092915050565b8281835e5f83830152505050565b5f601f19601f8301169050919050565b5f6119808261193e565b61198a8185611948565b935061199a818560208601611958565b6119a381611966565b840191505092915050565b5f6020820190508181035f8301526119c68184611976565b905092915050565b5f5ffd5b5f73ffffffffffffffffffffffffffffffffffffffff82169050919050565b5f6119fb826119d2565b9050919050565b611a0b816119f1565b8114611a15575f5ffd5b50565b5f81359050611a2681611a02565b92915050565b5f819050919050565b611a3e81611a2c565b8114611a48575f5ffd5b50565b5f81359050611a5981611a35565b92915050565b5f5f60408385031215611a7557611a746119ce565b5b5f611a8285828601611a18565b9250506020611a9385828601611a4b565b9150509250929050565b5f8115159050919050565b611ab181611a9d565b82525050565b5f602082019050611aca5f830184611aa8565b92915050565b611ad981611a2c565b82525050565b5f602082019050611af25f830184611ad0565b92915050565b5f5f5f60608486031215611b0f57611b0e6119ce565b5b5f611b1c86828701611a18565b9350506020611b2d86828701611a18565b9250506040611b3e86828701611a4b565b9150509250925092565b5f60ff82169050919050565b611b5d81611b48565b82525050565b5f602082019050611b765f830184611b54565b92915050565b5f819050919050565b611b8e81611b7c565b82525050565b5f602082019050611ba75f830184611b85565b92915050565b5f60208284031215611bc257611bc16119ce565b5b5f611bcf84828501611a18565b91505092915050565b611be1816119f1565b82525050565b5f602082019050611bfa5f830184611bd8565b92915050565b5f7fff0000000000000000000000000000000000000000000000000000000000000082169050919050565b611c3481611c00565b82525050565b5f81519050919050565b5f82825260208201905092915050565b5f819050602082019050919050565b611c6c81611a2c565b82525050565b5f611c7d8383611c63565b60208301905092915050565b5f602082019050919050565b5f611c9f82611c3a565b611ca98185611c44565b9350611cb483611c54565b805f5b83811015611ce4578151611ccb8882611c72565b9750611cd683611c89565b925050600181019050611cb7565b5085935050505092915050565b5f60e082019050611d045f83018a611c2b565b8181036020830152611d168189611976565b90508181036040830152611d2a8188611976565b9050611d396060830187611ad0565b611d466080830186611bd8565b611d5360a0830185611b85565b81810360c0830152611d658184611c95565b905098975050505050505050565b611d7c81611b48565b8114611d86575f5ffd5b50565b5f81359050611d9781611d73565b92915050565b611da681611b7c565b8114611db0575f5ffd5b50565b5f81359050611dc181611d9d565b92915050565b5f5f5f5f5f5f5f60e0888a031215611de257611de16119ce565b5b5f611def8a828b01611a18565b9750506020611e008a828b01611a18565b9650506040611e118a828b01611a4b565b9550506060611e228a828b01611a4b565b9450506080611e338a828b01611d89565b93505060a0611e448a828b01611db3565b92505060c0611e558a828b01611db3565b91505092959891949750929550565b5f5f60408385031215611e7a57611e796119ce565b5b5f611e8785828601611a18565b9250506020611e9885828601611a18565b9150509250929050565b7f4e487b71000000000000000000000000000000000000000000000000000000005f52602260045260245ffd5b5f6002820490506001821680611ee657607f821691505b602082108103611ef957611ef8611ea2565b5b50919050565b7f4e487b71000000000000000000000000000000000000000000000000000000005f52604160045260245ffd5b5f60c082019050611f3f5f830189611b85565b611f4c6020830188611bd8565b611f596040830187611bd8565b611f666060830186611ad0565b611f736080830185611ad0565b611f8060a0830184611ad0565b979650505050505050565b5f604082019050611f9e5f830185611bd8565b611fab6020830184611bd8565b9392505050565b5f606082019050611fc55f830186611bd8565b611fd26020830185611ad0565b611fdf6040830184611ad0565b949350505050565b7f4e487b71000000000000000000000000000000000000000000000000000000005f52601160045260245ffd5b5f61201e82611a2c565b915061202983611a2c565b925082820190508082111561204157612040611fe7565b5b92915050565b5f60a08201905061205a5f830188611b85565b6120676020830187611b85565b6120746040830186611b85565b6120816060830185611ad0565b61208e6080830184611bd8565b9695505050505050565b5f6080820190506120ab5f830187611b85565b6120b86020830186611b54565b6120c56040830185611b85565b6120d26060830184611b85565b95945050505050565b7f4e487b71000000000000000000000000000000000000000000000000000000005f52602160045260245ffdfea2646970667358221220f2c99f0018fc633742a3bf5f4f60a4a075bc9ac1a6d2691a29628e83bce7eeb664736f6c634300081e0033","linkReferences":{}},"methodIdentifiers":{"DOMAIN_SEPARATOR()":"3644e515","allowance(address,address)":"dd62ed3e","approve(address,uint256)":"095ea7b3","balanceOf(address)":"70a08231","burn(address,uint256)":"9dc29fac","decimals()":"313ce567","eip712Domain()":"84b0196e","mint(address,uint256)":"40c10f19","name()":"06fdde03","nonces(address)":"7ecebe00","owner()":"8da5cb5b","permit(address,address,uint256,uint256,uint8,bytes32,bytes32)":"d505accf","positionManagerAddress()":"7a8a1113","renounceOwnership()":"715018a6","setManagerAddresses(address)":"75b70914","symbol()":"95d89b41","totalSupply()":"18160ddd","transfer(address,uint256)":"a9059cbb","transferFrom(address,address,uint256)":"23b872dd","transferOwnership(address)":"f2fde38b"},"id":52}