{"abi":[{"type":"constructor","inputs":[],"stateMutability":"nonpayable"},{"type":"function","name":"DOMAIN_SEPARATOR","inputs":[],"outputs":[{"name":"","type":"bytes32","internalType":"bytes32"}],"stateMutability":"view"},{"type":"function","name":"allowance","inputs":[{"name":"owner","type":"address","internalType":"address"},{"name":"spender","type":"address","internalType":"address"}],"outputs":[{"name":"","type":"uint256","internalType":"uint256"}],"stateMutability":"view"},{"type":"function","name":"approve","inputs":[{"name":"spender","type":"address","internalType":"address"},{"name":"value","type":"uint256","internalType":"uint256"}],"outputs":[{"name":"","type":"bool","internalType":"bool"}],"stateMutability":"nonpayable"},{"type":"function","name":"balanceOf","inputs":[{"name":"account","type":"address","internalType":"address"}],"outputs":[{"name":"","type":"uint256","internalType":"uint256"}],"stateMutability":"view"},{"type":"function","name":"burn","inputs":[{"name":"account","type":"address","internalType":"address"},{"name":"amount","type":"uint256","internalType":"uint256"}],"outputs":[],"stateMutability":"nonpayable"},{"type":"function","name":"decimals","inputs":[],"outputs":[{"name":"","type":"uint8","internalType":"uint8"}],"stateMutability":"view"},{"type":"function","name":"eip712Domain","inputs":[],"outputs":[{"name":"fields","type":"bytes1","internalType":"bytes1"},{"name":"name","type":"string","internalType":"string"},{"name":"version","type":"string","internalType":"string"},{"name":"chainId","type":"uint256","internalType":"uint256"},{"name":"verifyingContract","type":"address","internalType":"address"},{"name":"salt","type":"bytes32","internalType":"bytes32"},{"name":"extensions","type":"uint256[]","internalType":"uint256[]"}],"stateMutability":"view"},{"type":"function","name":"mint","inputs":[{"name":"account","type":"address","internalType":"address"},{"name":"amount","type":"uint256","internalType":"uint256"}],"outputs":[],"stateMutability":"nonpayable"},{"type":"function","name":"name","inputs":[],"outputs":[{"name":"","type":"string","internalType":"string"}],"stateMutability":"view"},{"type":"function","name":"nonces","inputs":[{"name":"owner","type":"address","internalType":"address"}],"outputs":[{"name":"","type":"uint256","internalType":"uint256"}],"stateMutability":"view"},{"type":"function","name":"owner","inputs":[],"outputs":[{"name":"","type":"address","internalType":"address"}],"stateMutability":"view"},{"type":"function","name":"permit","inputs":[{"name":"owner","type":"address","internalType":"address"},{"name":"spender","type":"address","internalType":"address"},{"name":"value","type":"uint256","internalType":"uint256"},{"name":"deadline","type":"uint256","internalType":"uint256"},{"name":"v","type":"uint8","internalType":"uint8"},{"name":"r","type":"bytes32","internalType":"bytes32"},{"name":"s","type":"bytes32","internalType":"bytes32"}],"outputs":[],"stateMutability":"nonpayable"},{"type":"function","name":"positionManagerAddress","inputs":[],"outputs":[{"name":"","type":"address","internalType":"address"}],"stateMutability":"view"},{"type":"function","name":"renounceOwnership","inputs":[],"outputs":[],"stateMutability":"nonpayable"},{"type":"function","name":"setManagerAddresses","inputs":[{"name":"_positionManagerAddress","type":"address","internalType":"address"}],"outputs":[],"stateMutability":"nonpayable"},{"type":"function","name":"symbol","inputs":[],"outputs":[{"name":"","type":"string","internalType":"string"}],"stateMutability":"view"},{"type":"function","name":"totalSupply","inputs":[],"outputs":[{"name":"","type":"uint256","internalType":"uint256"}],"stateMutability":"view"},{"type":"function","name":"transfer","inputs":[{"name":"to","type":"address","internalType":"address"},{"name":"value","type":"uint256","internalType":"uint256"}],"outputs":[{"name":"","type":"bool","internalType":"bool"}],"stateMutability":"nonpayable"},{"type":"function","name":"transferFrom","inputs":[{"name":"from","type":"address","internalType":"address"},{"name":"to","type":"address","internalType":"address"},{"name":"value","type":"uint256","internalType":"uint256"}],"outputs":[{"name":"","type":"bool","internalType":"bool"}],"stateMutability":"nonpayable"},{"type":"function","name":"transferOwnership","inputs":[{"name":"newOwner","type":"address","internalType":"address"}],"outputs":[],"stateMutability":"nonpayable"},{"type":"event","name":"Approval","inputs":[{"name":"owner","type":"address","indexed":true,"internalType":"address"},{"name":"spender","type":"address","indexed":true,"internalType":"address"},{"name":"value","type":"uint256","indexed":false,"internalType":"uint256"}],"anonymous":false},{"type":"event","name":"EIP712DomainChanged","inputs":[],"anonymous":false},{"type":"event","name":"OwnershipTransferred","inputs":[{"name":"previousOwner","type":"address","indexed":true,"internalType":"address"},{"name":"newOwner","type":"address","indexed":true,"internalType":"address"}],"anonymous":false},{"type":"event","name":"PositionManagerAddressUpdated","inputs":[{"name":"newPositionManagerAddress","type":"address","indexed":false,"internalType":"address"}],"anonymous":false},{"type":"event","name":"Transfer","inputs":[{"name":"from","type":"address","indexed":true,"internalType":"address"},{"name":"to","type":"address","indexed":true,"internalType":"address"},{"name":"value","type":"uint256","indexed":false,"internalType":"uint256"}],"anonymous":false},{"type":"error","name":"ECDSAInvalidSignature","inputs":[]},{"type":"error","name":"ECDSAInvalidSignatureLength","inputs":[{"name":"length","type":"uint256","internalType":"uint256"}]},{"type":"error","name":"ECDSAInvalidSignatureS","inputs":[{"name":"s","type":"bytes32","internalType":"bytes32"}]},{"type":"error","name":"ERC20InsufficientAllowance","inputs":[{"name":"spender","type":"address","internalType":"address"},{"name":"allowance","type":"uint256","internalType":"uint256"},{"name":"needed","type":"uint256","internalType":"uint256"}]},{"type":"error","name":"ERC20InsufficientBalance","inputs":[{"name":"sender","type":"address","internalType":"address"},{"name":"balance","type":"uint256","internalType":"uint256"},{"name":"needed","type":"uint256","internalType":"uint256"}]},{"type":"error","name":"ERC20InvalidApprover","inputs":[{"name":"approver","type":"address","internalType":"address"}]},{"type":"error","name":"ERC20InvalidReceiver","inputs":[{"name":"receiver","type":"address","internalType":"address"}]},{"type":"error","name":"ERC20InvalidSender","inputs":[{"name":"sender","type":"address","internalType":"address"}]},{"type":"error","name":"ERC20InvalidSpender","inputs":[{"name":"spender","type":"address","internalType":"address"}]},{"type":"error","name":"ERC2612ExpiredSignature","inputs":[{"name":"deadline","type":"uint256","internalType":"uint256"}]},{"type":"error","name":"ERC2612InvalidSigner","inputs":[{"name":"signer","type":"address","internalType":"address"},{"name":"owner","type":"address","internalType":"address"}]},{"type":"error","name":"InvalidAccountNonce","inputs":[{"name":"account","type":"address","internalType":"address"},{"name":"currentNonce","type":"uint256","internalType":"uint256"}]},{"type":"error","name":"InvalidShortString","inputs":[]},{"type":"error","name":"OwnableInvalidOwner","inputs":[{"name":"owner","type":"address","internalType":"address"}]},{"type":"error","name":"OwnableUnauthorizedAccount","inputs":[{"name":"account","type":"address","internalType":"address"}]},{"type":"error","name":"StblUSD__CallerNotAManagerAddress","inputs":[]},{"type":"error","name":"StringTooLong","inputs":[{"name":"str","type":"string","internalType":"string"}]}],"bytecode":{"object":"0x6101606040523461006a576100126101b7565b61001a61006f565b612100610aa2823960805181611441015260a05181611478015260c05181611408015260e05181611add01526101005181611b02015261012051816115e501526101405181611625015261210090f35b610075565b60405190565b5f80fd5b601f801991011690565b634e487b7160e01b5f52604160045260245ffd5b906100a190610079565b810190811060018060401b038211176100b957604052565b610083565b906100d16100ca61006f565b9283610097565b565b60018060401b0381116100ef576100eb602091610079565b0190565b610083565b90610106610101836100d3565b6100be565b918252565b5f7f53706972616c5374616b6520537461626c652055534400000000000000000000910152565b61013c60166100f4565b906101496020830161010b565b565b610153610132565b90565b61015e61014b565b90565b5f7f7374626c55534400000000000000000000000000000000000000000000000000910152565b61019260076100f4565b9061019f60208301610161565b565b6101a9610188565b90565b6101b46101a1565b90565b6101da336101c3610156565b6101cb610156565b906101d46101ac565b92610243565b565b90565b60018060a01b031690565b90565b6102016101fc610206926101dc565b6101ea565b6101df565b90565b610212906101ed565b90565b61021e906101df565b90565b61022a90610215565b9052565b9190610241905f60208501940190610221565b565b92909161024f926102ec565b8061026a61026461025f5f610209565b610215565b91610215565b1461027a57610278906106f2565b565b61029d6102865f610209565b5f918291631e4fbdf760e01b83526004830161022e565b0390fd5b5f7f3100000000000000000000000000000000000000000000000000000000000000910152565b6102d260016100f4565b906102df602083016102a1565b565b6102e96102c8565b90565b9061030092916102fa6102e1565b90610302565b565b9061030e939291610354565b565b90565b90565b60200190565b5190565b61033461032f610339926101df565b6101ea565b6101df565b90565b61034590610320565b90565b6103519061033c565b90565b6103656103b59461039a93946103e9565b610379816103736005610310565b906107b1565b610120526103918361038b6006610310565b906107b1565b61014052610313565b6103ac6103a68261031c565b91610316565b2060e052610313565b6103c76103c18261031c565b91610316565b20610100524660a0526103d86108b6565b6080526103e430610348565b60c052565b906103f3916103f5565b565b906103ff91610655565b565b5190565b634e487b7160e01b5f52602260045260245ffd5b9060016002830492168015610439575b602083101461043457565b610405565b91607f1691610429565b5f5260205f2090565b601f602091010490565b1b90565b9190600861047591029161046f5f1984610456565b92610456565b9181191691161790565b90565b61049661049161049b9261047f565b6101ea565b61047f565b90565b90565b91906104b76104b26104bf93610482565b61049e565b90835461045a565b9055565b5f90565b6104d9916104d36104c3565b916104a1565b565b5b8181106104e7575050565b806104f45f6001936104c7565b016104dc565b9190601f811161050a575b505050565b61051661053b93610443565b9060206105228461044c565b83019310610543575b6105349061044c565b01906104db565b5f8080610505565b91506105348192905061052b565b1c90565b90610565905f1990600802610551565b191690565b8161057491610555565b906002021790565b9061058681610401565b9060018060401b038211610644576105a8826105a28554610419565b856104fa565b602090601f83116001146105dc579180916105cb935f926105d0575b505061056a565b90555b565b90915001515f806105c4565b601f198316916105eb85610443565b925f5b81811061062c57509160029391856001969410610612575b505050020190556105ce565b610622910151601f841690610555565b90555f8080610606565b919360206001819287870151815501950192016105ee565b610083565b906106539161057c565b565b9061066461066b926003610649565b6004610649565b565b5f1c90565b60018060a01b031690565b61068961068e9161066d565b610672565b90565b61069b905461067d565b90565b5f1b90565b906106b460018060a01b039161069e565b9181191691161790565b6106c79061033c565b90565b90565b906106e26106dd6106e9926106be565b6106ca565b82546106a3565b9055565b5f0190565b6106fc6008610691565b6107078260086106cd565b9061073b6107357f8be0079c531659141344cd1fd0a4f28419497f9722a3daafe3b4186f6b6457e0936106be565b916106be565b9161074461006f565b8061074e816106ed565b0390a3565b5f90565b90565b61076e61076961077392610757565b6101ea565b61047f565b90565b90565b90565b61079061078b61079592610776565b61069e565b610779565b90565b6107a260ff61077c565b90565b6107ae90610779565b90565b906107ba610753565b506107cc6107c783610313565b61031c565b6107df6107d9602061075a565b9161047f565b105f146107f357506107f090610a17565b90565b5f6108016108079392610927565b01610649565b610817610812610798565b6107a5565b90565b5f90565b7f8b73c3c69bb8fe3d512ecc4cf759cc79239f7b179b0ffacaa9a75d522b39400f90565b61084c9051610779565b90565b61085890610779565b9052565b6108659061047f565b9052565b909594926108b4946108a36108ad9261089960809661088f60a088019c5f89019061084f565b602087019061084f565b604085019061084f565b606083019061085c565b0190610221565b565b6108be61081a565b506108c761081e565b6109116108d460e0610842565b916109026108e3610100610842565b466108ed30610348565b916108f661006f565b96879560208701610869565b60208201810382520382610097565b61092361091d8261031c565b91610316565b2090565b90565b90565b61094161093c6109469261092a565b6101ea565b61047f565b90565b60209181520190565b90825f9392825e0152565b61097c61098560209361098a9361097381610401565b93848093610949565b95869101610952565b610079565b0190565b6109a39160208201915f81840391015261095d565b90565b6109c06109bb6109b58361031c565b92610316565b610842565b90602081106109ce575b5090565b6109e0905f1990602003600802610456565b165f6109ca565b6109f36109f89161066d565b610482565b90565b610a0f610a0a610a149261047f565b61069e565b610779565b90565b610a1f610753565b50610a2981610313565b90610a338261031c565b610a46610a40601f61092d565b9161047f565b11610a7b5750610a7381610a6d610a67610a62610a78956109a6565b6109e7565b9161031c565b176109fb565b6107a5565b90565b610a9d90610a8761006f565b91829163305a27a960e01b83526004830161098e565b0390fdfe60806040526004361015610013575b6109f1565b61001d5f3561015c565b806306fdde0314610157578063095ea7b31461015257806318160ddd1461014d57806323b872dd14610148578063313ce567146101435780633644e5151461013e57806340c10f191461013957806370a0823114610134578063715018a61461012f57806375b709141461012a5780637a8a1113146101255780637ecebe001461012057806384b0196e1461011b5780638da5cb5b1461011657806395d89b41146101115780639dc29fac1461010c578063a9059cbb14610107578063d505accf14610102578063dd62ed3e146100fd5763f2fde38b0361000e576109be565b610988565b610921565b610835565b610801565b6107cc565b610797565b61075b565b610614565b6105df565b610546565b610513565b6104de565b61048c565b610452565b6103f8565b61039a565b61032b565b6102d3565b6101ea565b60e01c90565b60405190565b5f80fd5b5f80fd5b5f91031261017a57565b61016c565b5190565b60209181520190565b90825f9392825e0152565b601f801991011690565b6101c06101c96020936101ce936101b78161017f565b93848093610183565b9586910161018c565b610197565b0190565b6101e79160208201915f8184039101526101a1565b90565b3461021a576101fa366004610170565b610216610205610b4e565b61020d610162565b918291826101d2565b0390f35b610168565b60018060a01b031690565b6102339061021f565b90565b61023f8161022a565b0361024657565b5f80fd5b9050359061025782610236565b565b90565b61026581610259565b0361026c57565b5f80fd5b9050359061027d8261025c565b565b91906040838203126102a7578061029b6102a4925f860161024a565b93602001610270565b90565b61016c565b151590565b6102ba906102ac565b9052565b91906102d1905f602085019401906102b1565b565b34610304576103006102ef6102e936600461027f565b90610b68565b6102f7610162565b918291826102be565b0390f35b610168565b61031290610259565b9052565b9190610329905f60208501940190610309565b565b3461035b5761033b366004610170565b610357610346610bb7565b61034e610162565b91829182610316565b0390f35b610168565b90916060828403126103955761039261037b845f850161024a565b93610389816020860161024a565b93604001610270565b90565b61016c565b346103cb576103c76103b66103b0366004610360565b91610bcd565b6103be610162565b918291826102be565b0390f35b610168565b60ff1690565b6103df906103d0565b9052565b91906103f6905f602085019401906103d6565b565b3461042857610408366004610170565b610424610413610c22565b61041b610162565b918291826103e3565b0390f35b610168565b90565b6104399061042d565b9052565b9190610450905f60208501940190610430565b565b3461048257610462366004610170565b61047e61046d610c3c565b610475610162565b9182918261043d565b0390f35b610168565b5f0190565b346104bb576104a561049f36600461027f565b90610c94565b6104ad610162565b806104b781610487565b0390f35b610168565b906020828203126104d9576104d6915f0161024a565b90565b61016c565b3461050e5761050a6104f96104f43660046104c0565b610d0f565b610501610162565b91829182610316565b0390f35b610168565b3461054157610523366004610170565b61052b610d7d565b610533610162565b8061053d81610487565b0390f35b610168565b346105745761055e6105593660046104c0565b610e23565b610566610162565b8061057081610487565b0390f35b610168565b1c90565b60018060a01b031690565b61059890600861059d9302610579565b61057d565b90565b906105ab9154610588565b90565b6105ba60095f906105a0565b90565b6105c69061022a565b9052565b91906105dd905f602085019401906105bd565b565b3461060f576105ef366004610170565b61060b6105fa6105ae565b610602610162565b918291826105ca565b0390f35b610168565b346106445761064061062f61062a3660046104c0565b610e2e565b610637610162565b91829182610316565b0390f35b610168565b60ff60f81b1690565b61065b90610649565b9052565b5190565b60209181520190565b60200190565b61067b90610259565b9052565b9061068c81602093610672565b0190565b60200190565b906106b36106ad6106a68461065f565b8093610663565b9261066c565b905f5b8181106106c35750505090565b9091926106dc6106d6600192865161067f565b94610690565b91019190916106b6565b9395919461073761072c61074b9561071e610741956107589c9a61071160e08c01925f8d0190610652565b8a820360208c01526101a1565b9088820360408a01526101a1565b976060870190610309565b60808501906105bd565b60a0830190610430565b60c0818403910152610696565b90565b346107925761076b366004610170565b61078e610776610f11565b93610785979597939193610162565b978897886106e6565b0390f35b610168565b346107c7576107a7366004610170565b6107c36107b2610f9b565b6107ba610162565b918291826105ca565b0390f35b610168565b346107fc576107dc366004610170565b6107f86107e7610fb1565b6107ef610162565b918291826101d2565b0390f35b610168565b346108305761081a61081436600461027f565b90610fc7565b610822610162565b8061082c81610487565b0390f35b610168565b346108665761086261085161084b36600461027f565b90610ff8565b610859610162565b918291826102be565b0390f35b610168565b610874816103d0565b0361087b57565b5f80fd5b9050359061088c8261086b565b565b6108978161042d565b0361089e57565b5f80fd5b905035906108af8261088e565b565b60e08183031261091c576108c7825f830161024a565b926108d5836020840161024a565b926108e38160408501610270565b926108f18260608301610270565b92610919610902846080850161087f565b936109108160a086016108a2565b9360c0016108a2565b90565b61016c565b34610956576109406109343660046108b1565b959490949391936110c6565b610948610162565b8061095281610487565b0390f35b610168565b91906040838203126109835780610977610980925f860161024a565b9360200161024a565b90565b61016c565b346109b9576109b56109a461099e36600461095b565b906111d0565b6109ac610162565b91829182610316565b0390f35b610168565b346109ec576109d66109d13660046104c0565b61125d565b6109de610162565b806109e881610487565b0390f35b610168565b5f80fd5b606090565b634e487b7160e01b5f52602260045260245ffd5b9060016002830492168015610a2e575b6020831014610a2957565b6109fa565b91607f1691610a1e565b60209181520190565b5f5260205f2090565b905f9291805490610a64610a5d83610a0e565b8094610a38565b916001811690815f14610abb5750600114610a7f575b505050565b610a8c9192939450610a41565b915f925b818410610aa357505001905f8080610a7a565b60018160209295939554848601520191019290610a90565b92949550505060ff19168252151560200201905f8080610a7a565b90610ae091610a4a565b90565b634e487b7160e01b5f52604160045260245ffd5b90610b0190610197565b810190811067ffffffffffffffff821117610b1b57604052565b610ae3565b90610b40610b3992610b30610162565b93848092610ad6565b0383610af7565b565b610b4b90610b20565b90565b610b566109f5565b50610b616003610b42565b90565b5f90565b610b8591610b74610b64565b50610b7d611268565b919091611275565b600190565b5f90565b5f1c90565b90565b610ba2610ba791610b8e565b610b93565b90565b610bb49054610b96565b90565b610bbf610b8a565b50610bca6002610baa565b90565b91610bf792610bda610b64565b50610bef610be6611268565b829084916112c5565b919091611351565b600190565b5f90565b90565b90565b610c1a610c15610c1f92610c00565b610c03565b6103d0565b90565b610c2a610bfc565b50610c356012610c06565b90565b5f90565b610c44610c38565b50610c4d6113ee565b90565b610c5c610c6191610b8e565b61057d565b90565b610c6e9054610c50565b90565b15610c7857565b5f633ebfd0dd60e21b815280610c9060048201610487565b0390fd5b90610cc391610cbe33610cb8610cb2610cad6009610c64565b61022a565b9161022a565b14610c71565b6114a8565b565b610cd9610cd4610cde9261021f565b610c03565b61021f565b90565b610cea90610cc5565b90565b610cf690610ce1565b90565b90610d0390610ced565b5f5260205260405f2090565b610d25610d2a91610d1e610b8a565b505f610cf9565b610baa565b90565b610d35611506565b610d3d610d6a565b565b90565b610d56610d51610d5b92610d3f565b610c03565b61021f565b90565b610d6790610d42565b90565b610d7b610d765f610d5e565b611554565b565b610d85610d2d565b565b610d9890610d93611506565b610ddd565b565b5f1b90565b90610db060018060a01b0391610d9a565b9181191691161790565b90565b90610dd2610dcd610dd992610ced565b610dba565b8254610d9f565b9055565b610de8816009610dbd565b610e1e7f75ad8b7d95ea54cfdbb1d9c10e8f3a52ab451f97e88f3d536fe9c314db8d079891610e15610162565b918291826105ca565b0390a1565b610e2c90610d87565b565b610e4090610e3a610b8a565b506115b5565b90565b5f90565b5f90565b606090565b610e5990610ce1565b90565b610e70610e6b610e7592610d3f565b610d9a565b61042d565b90565b610e8c610e87610e9192610d3f565b610c03565b610259565b90565b90610ea7610ea0610162565b9283610af7565b565b67ffffffffffffffff8111610ec15760208091020190565b610ae3565b90610ed8610ed383610ea9565b610e94565b918252565b369037565b90610f07610eef83610ec6565b92602080610efd8693610ea9565b9201910390610edd565b565b600f60f81b90565b610f19610e43565b50610f226109f5565b50610f2b6109f5565b50610f34610b8a565b50610f3d610e47565b50610f46610c38565b50610f4f610e4b565b50610f586115d7565b90610f61611617565b904690610f6d30610e50565b90610f775f610e5c565b90610f89610f845f610e78565b610ee2565b90610f92610f09565b96959493929190565b610fa3610e47565b50610fae6008610c64565b90565b610fb96109f5565b50610fc46004610b42565b90565b90610ff691610ff133610feb610fe5610fe06009610c64565b61022a565b9161022a565b14610c71565b611657565b565b61101591611004610b64565b5061100d611268565b919091611351565b600190565b7f6e71edae12b1b97f4d1f60370fef10105fa2faae0126114a169c64845d6126c990565b91946110866110909298979561107c60a0966110726110979a61106860c08a019e5f8b0190610430565b60208901906105bd565b60408701906105bd565b6060850190610309565b6080830190610309565b0190610309565b565b60200190565b5190565b9160206110c49294936110bd60408201965f8301906105bd565b01906105bd565b565b9695919392949094426110e16110db83610259565b91610259565b1161119b579061114a6111539493926111326110fb61101a565b6111238c80948c9161110d8d9161171a565b9192611117610162565b9788966020880161103e565b60208201810382520382610af7565b61114461113e8261109f565b91611099565b2061174d565b9290919261176a565b806111666111608761022a565b9161022a565b0361117b57506111799293919091611275565b565b84906111975f9283926325c0072360e11b8452600484016110a3565b0390fd5b6111b6905f91829163313c898160e11b835260048301610316565b0390fd5b906111c490610ced565b5f5260205260405f2090565b6111f5916111eb6111f0926111e3610b8a565b5060016111ba565b610cf9565b610baa565b90565b61120990611204611506565b61120b565b565b8061122661122061121b5f610d5e565b61022a565b9161022a565b146112365761123490611554565b565b6112596112425f610d5e565b5f918291631e4fbdf760e01b8352600483016105ca565b0390fd5b611266906111f8565b565b611270610e47565b503390565b916112839291600192611791565b565b6040906112ae6112b594969593966112a460608401985f8501906105bd565b6020830190610309565b0190610309565b565b906112c29103610259565b90565b9291926112d38183906111d0565b90816112e86112e25f19610259565b91610259565b106112f5575b5050509050565b8161130861130287610259565b91610259565b1061132e57611325939461131d9193926112b7565b905f92611791565b805f80806112ee565b5061134d849291925f938493637dc7a0d960e11b855260048501611285565b0390fd5b918261136d6113676113625f610d5e565b61022a565b9161022a565b146113c7578161138d6113876113825f610d5e565b61022a565b9161022a565b146113a05761139e929190916118e7565b565b6113c36113ac5f610d5e565b5f91829163ec442f0560e01b8352600483016105ca565b0390fd5b6113ea6113d35f610d5e565b5f918291634b637e8f60e11b8352600483016105ca565b0390fd5b6113f6610c38565b5061140030610e50565b61143261142c7f000000000000000000000000000000000000000000000000000000000000000061022a565b9161022a565b148061146e575b5f14611463577f000000000000000000000000000000000000000000000000000000000000000090565b61146b611ac7565b90565b50466114a261149c7f0000000000000000000000000000000000000000000000000000000000000000610259565b91610259565b14611439565b806114c36114bd6114b85f610d5e565b61022a565b9161022a565b146114df576114dd916114d55f610d5e565b9190916118e7565b565b6115026114eb5f610d5e565b5f91829163ec442f0560e01b8352600483016105ca565b0390fd5b61150e610f9b565b61152761152161151c611268565b61022a565b9161022a565b0361152e57565b611550611539611268565b5f91829163118cdaa760e01b8352600483016105ca565b0390fd5b61155e6008610c64565b611569826008610dbd565b9061159d6115977f8be0079c531659141344cd1fd0a4f28419497f9722a3daafe3b4186f6b6457e093610ced565b91610ced565b916115a6610162565b806115b081610487565b0390a3565b6115cc6115d1916115c4610b8a565b506007610cf9565b610baa565b90565b90565b6115df6109f5565b506116147f000000000000000000000000000000000000000000000000000000000000000061160e60056115d4565b90611c6d565b90565b61161f6109f5565b506116547f000000000000000000000000000000000000000000000000000000000000000061164e60066115d4565b90611c6d565b90565b908161167361166d6116685f610d5e565b61022a565b9161022a565b1461168f5761168d91906116865f610d5e565b90916118e7565b565b6116b261169b5f610d5e565b5f918291634b637e8f60e11b8352600483016105ca565b0390fd5b60016116c29101610259565b90565b906116d15f1991610d9a565b9181191691161790565b6116ef6116ea6116f492610259565b610c03565b610259565b90565b90565b9061170f61170a611716926116db565b6116f7565b82546116c5565b9055565b61172e90611726610b8a565b506007610cf9565b61174a61173a82610baa565b91611744836116b6565b906116fa565b90565b61176790611759610c38565b506117626113ee565b611cbb565b90565b926117859261178e9461177b610e47565b5092909192611d81565b90929192611eac565b90565b9092816117ae6117a86117a35f610d5e565b61022a565b9161022a565b1461187957836117ce6117c86117c35f610d5e565b61022a565b9161022a565b14611852576117f2836117ed6117e6600186906111ba565b8790610cf9565b6116fa565b6117fc575b505050565b91909161184761183561182f7f8c5be1e5ebec7d5bd14f71427d1e84f3dd0314c0f7b2291e5b200ac8c7c3b92593610ced565b93610ced565b9361183e610162565b91829182610316565b0390a35f80806117f7565b61187561185e5f610d5e565b5f918291634a1406b160e11b8352600483016105ca565b0390fd5b61189c6118855f610d5e565b5f91829163e602df0560e01b8352600483016105ca565b0390fd5b634e487b7160e01b5f52601160045260245ffd5b6118c36118c991939293610259565b92610259565b82018092116118d457565b6118a0565b906118e49101610259565b90565b919091806119056118ff6118fa5f610d5e565b61022a565b9161022a565b145f146119e6576119296119228361191d6002610baa565b6118b4565b60026116fa565b5b8261194561193f61193a5f610d5e565b61022a565b9161022a565b145f146119ba576119696119628361195d6002610baa565b6112b7565b60026116fa565b5b9190916119b56119a361199d7fddf252ad1be2c89b69c2b068fc378daa952ba7f163c4a11628f55a4df523b3ef93610ced565b93610ced565b936119ac610162565b91829182610316565b0390a3565b6119e1826119db6119cc5f8790610cf9565b916119d683610baa565b6118d9565b906116fa565b61196a565b6119f96119f45f8390610cf9565b610baa565b80611a0c611a0685610259565b91610259565b10611a3457611a1f611a2f9184906112b7565b611a2a5f8490610cf9565b6116fa565b61192a565b90611a529091925f93849363391434e360e21b855260048501611285565b0390fd5b7f8b73c3c69bb8fe3d512ecc4cf759cc79239f7b179b0ffacaa9a75d522b39400f90565b90959492611ac594611ab4611abe92611aaa608096611aa060a088019c5f890190610430565b6020870190610430565b6040850190610430565b6060830190610309565b01906105bd565b565b611acf610c38565b50611ad8611a56565b611b4f7f000000000000000000000000000000000000000000000000000000000000000091611b407f000000000000000000000000000000000000000000000000000000000000000046611b2b30610e50565b91611b34610162565b96879560208701611a7a565b60208201810382520382610af7565b611b61611b5b8261109f565b91611099565b2090565b611b6e9061042d565b90565b90565b611b88611b83611b8d92611b71565b610d9a565b61042d565b90565b611b9a60ff611b74565b90565b5f5260205f2090565b905f9291805490611bc0611bb983610a0e565b8094610a38565b916001811690815f14611c175750600114611bdb575b505050565b611be89192939450611b9d565b915f925b818410611bff57505001905f8080611bd6565b60018160209295939554848601520191019290611bec565b92949550505060ff19168252151560200201905f8080611bd6565b90611c3c91611ba6565b90565b90611c5f611c5892611c4f610162565b93848092611c32565b0383610af7565b565b611c6a90611c3f565b90565b90611c766109f5565b50611c8082611b65565b611c99611c93611c8e611b90565b61042d565b9161042d565b14155f14611cae5750611cab90612002565b90565b611cb89150611c61565b90565b604291611cc6610c38565b50604051917f19010000000000000000000000000000000000000000000000000000000000008352600283015260228201522090565b5f90565b611d0c611d1191610b8e565b6116db565b90565b90565b611d2b611d26611d3092611d14565b610c03565b610259565b90565b611d68611d6f94611d5e606094989795611d54608086019a5f870190610430565b60208501906103d6565b6040830190610430565b0190610430565b565b611d79610162565b3d5f823e3d90fd5b939293611d8c610e47565b50611d95611cfc565b50611d9e610c38565b50611da885611d00565b611dda611dd47f7fffffffffffffffffffffffffffffff5d576e7357a4501ddfe92f46681b20a0611d17565b91610259565b11611e675790611dfd602094955f94939293611df4610162565b94859485611d33565b838052039060015afa15611e6257611e155f51610d9a565b80611e30611e2a611e255f610d5e565b61022a565b9161022a565b14611e46575f91611e405f610e5c565b91929190565b50611e505f610d5e565b600191611e5c5f610e5c565b91929190565b611d71565b505050611e735f610d5e565b9060039291929190565b634e487b7160e01b5f52602160045260245ffd5b60041115611e9b57565b611e7d565b90611eaa82611e91565b565b80611ebf611eb95f611ea0565b91611ea0565b145f14611eca575050565b80611ede611ed86001611ea0565b91611ea0565b145f14611f01575f63f645eedf60e01b815280611efd60048201610487565b0390fd5b80611f15611f0f6002611ea0565b91611ea0565b145f14611f4357611f3f611f2883611d00565b5f91829163fce698f760e01b835260048301610316565b0390fd5b611f56611f506003611ea0565b91611ea0565b14611f5e5750565b611f79905f9182916335e2f38360e21b83526004830161043d565b0390fd5b90565b611f94611f8f611f9992611f7d565b610c03565b610259565b90565b67ffffffffffffffff8111611fba57611fb6602091610197565b0190565b610ae3565b90611fd1611fcc83611f9c565b610e94565b918252565b369037565b90612000611fe883611fbf565b92602080611ff68693611f9c565b9201910390611fd6565b565b61200a6109f5565b506120148161206d565b906120276120226020611f80565b611fdb565b918252602082015290565b61204661204161204b92611b71565b610c03565b610259565b90565b90565b61206561206061206a9261204e565b610c03565b610259565b90565b6120826120879161207c610b8a565b50611b65565b611d00565b61209160ff612032565b16806120a66120a0601f612051565b91610259565b116120ae5790565b5f632cd44ac360e21b8152806120c660048201610487565b0390fdfea2646970667358221220d5f60ee287a94dd2b91ab7ccc36a62adfbd706dcfae45a181aa94ad6b10d520e64736f6c634300081e0033","linkReferences":{}},"methodIdentifiers":{"DOMAIN_SEPARATOR()":"3644e515","allowance(address,address)":"dd62ed3e","approve(address,uint256)":"095ea7b3","balanceOf(address)":"70a08231","burn(address,uint256)":"9dc29fac","decimals()":"313ce567","eip712Domain()":"84b0196e","mint(address,uint256)":"40c10f19","name()":"06fdde03","nonces(address)":"7ecebe00","owner()":"8da5cb5b","permit(address,address,uint256,uint256,uint8,bytes32,bytes32)":"d505accf","positionManagerAddress()":"7a8a1113","renounceOwnership()":"715018a6","setManagerAddresses(address)":"75b70914","symbol()":"95d89b41","totalSupply()":"18160ddd","transfer(address,uint256)":"a9059cbb","transferFrom(address,address,uint256)":"23b872dd","transferOwnership(address)":"f2fde38b"},"id":96}