{"abi":[{"type":"constructor","inputs":[{"name":"positionManager","type":"address","internalType":"address"}],"stateMutability":"nonpayable"},{"type":"function","name":"acceptOwnership","inputs":[],"outputs":[],"stateMutability":"nonpayable"},{"type":"function","name":"addSupportedTokens","inputs":[{"name":"tokens","type":"address[]","internalType":"address[]"},{"name":"curvePools","type":"address[]","internalType":"address[]"}],"outputs":[],"stateMutability":"nonpayable"},{"type":"function","name":"openPosition","inputs":[{"name":"collateralToken","type":"address","internalType":"address"},{"name":"swapToken","type":"address","internalType":"address"},{"name":"amountCollateral","type":"uint256","internalType":"uint256"},{"name":"amountToMint","type":"uint256","internalType":"uint256"}],"outputs":[{"name":"positionId","type":"uint256","internalType":"uint256"}],"stateMutability":"nonpayable"},{"type":"function","name":"owner","inputs":[],"outputs":[{"name":"","type":"address","internalType":"address"}],"stateMutability":"view"},{"type":"function","name":"pendingOwner","inputs":[],"outputs":[{"name":"","type":"address","internalType":"address"}],"stateMutability":"view"},{"type":"function","name":"renounceOwnership","inputs":[],"outputs":[],"stateMutability":"nonpayable"},{"type":"function","name":"transferOwnership","inputs":[{"name":"newOwner","type":"address","internalType":"address"}],"outputs":[],"stateMutability":"nonpayable"},{"type":"event","name":"OwnershipTransferStarted","inputs":[{"name":"previousOwner","type":"address","indexed":true,"internalType":"address"},{"name":"newOwner","type":"address","indexed":true,"internalType":"address"}],"anonymous":false},{"type":"event","name":"OwnershipTransferred","inputs":[{"name":"previousOwner","type":"address","indexed":true,"internalType":"address"},{"name":"newOwner","type":"address","indexed":true,"internalType":"address"}],"anonymous":false},{"type":"error","name":"OwnableInvalidOwner","inputs":[{"name":"owner","type":"address","internalType":"address"}]},{"type":"error","name":"OwnableUnauthorizedAccount","inputs":[{"name":"account","type":"address","internalType":"address"}]},{"type":"error","name":"SafeERC20FailedOperation","inputs":[{"name":"token","type":"address","internalType":"address"}]}],"bytecode":{"object":"0x60c060405234801561000f575f5ffd5b506040516115ef3803806115ef833981810160405281019061003191906102e3565b335f73ffffffffffffffffffffffffffffffffffffffff168173ffffffffffffffffffffffffffffffffffffffff16036100a2575f6040517f1e4fbdf7000000000000000000000000000000000000000000000000000000008152600401610099919061031d565b60405180910390fd5b6100b18161018e60201b60201c565b508073ffffffffffffffffffffffffffffffffffffffff1660808173ffffffffffffffffffffffffffffffffffffffff168152505060805173ffffffffffffffffffffffffffffffffffffffff166355b74db06040518163ffffffff1660e01b8152600401602060405180830381865afa158015610131573d5f5f3e3d5ffd5b505050506040513d601f19601f8201168201806040525081019061015591906102e3565b73ffffffffffffffffffffffffffffffffffffffff1660a08173ffffffffffffffffffffffffffffffffffffffff168152505050610336565b60015f6101000a81549073ffffffffffffffffffffffffffffffffffffffff02191690556101c1816101c460201b60201c565b50565b5f5f5f9054906101000a900473ffffffffffffffffffffffffffffffffffffffff169050815f5f6101000a81548173ffffffffffffffffffffffffffffffffffffffff021916908373ffffffffffffffffffffffffffffffffffffffff1602179055508173ffffffffffffffffffffffffffffffffffffffff168173ffffffffffffffffffffffffffffffffffffffff167f8be0079c531659141344cd1fd0a4f28419497f9722a3daafe3b4186f6b6457e060405160405180910390a35050565b5f5ffd5b5f73ffffffffffffffffffffffffffffffffffffffff82169050919050565b5f6102b282610289565b9050919050565b6102c2816102a8565b81146102cc575f5ffd5b50565b5f815190506102dd816102b9565b92915050565b5f602082840312156102f8576102f7610285565b5b5f610305848285016102cf565b91505092915050565b610317816102a8565b82525050565b5f6020820190506103305f83018461030e565b92915050565b60805160a05161128a6103655f395f61027201525f818161014901528181610170015261031d015261128a5ff3fe608060405234801561000f575f5ffd5b506004361061007b575f3560e01c80638da5cb5b116100595780638da5cb5b146100c3578063db9576e7146100e1578063e30c3978146100fd578063f2fde38b1461011b5761007b565b80636ef1a28f1461007f578063715018a6146100af57806379ba5097146100b9575b5f5ffd5b61009960048036038101906100949190610baf565b610137565b6040516100a69190610c22565b60405180910390f35b6100b76103ac565b005b6100c16103bf565b005b6100cb61044d565b6040516100d89190610c4a565b60405180910390f35b6100fb60048036038101906100f69190610db3565b610474565b005b610105610617565b6040516101129190610c4a565b60405180910390f35b61013560048036038101906101309190610e29565b61063f565b005b5f6101438533856106eb565b61016e857f000000000000000000000000000000000000000000000000000000000000000085610726565b7f000000000000000000000000000000000000000000000000000000000000000073ffffffffffffffffffffffffffffffffffffffff1663c5654acc8685856040518463ffffffff1660e01b81526004016101cb93929190610e54565b6020604051808303815f875af11580156101e7573d5f5f3e3d5ffd5b505050506040513d601f19601f8201168201806040525081019061020b9190610e9d565b90505f60025f8673ffffffffffffffffffffffffffffffffffffffff1673ffffffffffffffffffffffffffffffffffffffff1681526020019081526020015f205f9054906101000a900473ffffffffffffffffffffffffffffffffffffffff1690506102987f00000000000000000000000000000000000000000000000000000000000000008285610726565b8073ffffffffffffffffffffffffffffffffffffffff1663a64833a060015f865f336040518663ffffffff1660e01b81526004016102da959493929190610f43565b6020604051808303815f875af11580156102f6573d5f5f3e3d5ffd5b505050506040513d601f19601f8201168201806040525081019061031a9190610e9d565b507f000000000000000000000000000000000000000000000000000000000000000073ffffffffffffffffffffffffffffffffffffffff1663751f890683336040518363ffffffff1660e01b8152600401610376929190610f94565b5f604051808303815f87803b15801561038d575f5ffd5b505af115801561039f573d5f5f3e3d5ffd5b5050505050949350505050565b6103b4610875565b6103bd5f6108fc565b565b5f6103c861092c565b90508073ffffffffffffffffffffffffffffffffffffffff166103e9610617565b73ffffffffffffffffffffffffffffffffffffffff161461044157806040517f118cdaa70000000000000000000000000000000000000000000000000000000081526004016104389190610c4a565b60405180910390fd5b61044a816108fc565b50565b5f5f5f9054906101000a900473ffffffffffffffffffffffffffffffffffffffff16905090565b61047c610875565b80518251146104c0576040517f08c379a00000000000000000000000000000000000000000000000000000000081526004016104b790611015565b60405180910390fd5b5f5f90505b8251811015610612575f73ffffffffffffffffffffffffffffffffffffffff168382815181106104f8576104f7611033565b5b602002602001015173ffffffffffffffffffffffffffffffffffffffff1603610556576040517f08c379a000000000000000000000000000000000000000000000000000000000815260040161054d906110aa565b60405180910390fd5b81818151811061056957610568611033565b5b602002602001015160025f85848151811061058757610586611033565b5b602002602001015173ffffffffffffffffffffffffffffffffffffffff1673ffffffffffffffffffffffffffffffffffffffff1681526020019081526020015f205f6101000a81548173ffffffffffffffffffffffffffffffffffffffff021916908373ffffffffffffffffffffffffffffffffffffffff16021790555080806001019150506104c5565b505050565b5f60015f9054906101000a900473ffffffffffffffffffffffffffffffffffffffff16905090565b610647610875565b8060015f6101000a81548173ffffffffffffffffffffffffffffffffffffffff021916908373ffffffffffffffffffffffffffffffffffffffff1602179055508073ffffffffffffffffffffffffffffffffffffffff166106a661044d565b73ffffffffffffffffffffffffffffffffffffffff167f38d16b8cac22d99fc7c124b9cd0de2d3fa1faef420bfe791d8c362d765e2270060405160405180910390a350565b5f810315610721576107208230838673ffffffffffffffffffffffffffffffffffffffff16610933909392919063ffffffff16565b5b505050565b5f5f8473ffffffffffffffffffffffffffffffffffffffff1663095ea7b360e01b858560405160240161075a9291906110c8565b604051602081830303815290604052907bffffffffffffffffffffffffffffffffffffffffffffffffffffffff19166020820180517bffffffffffffffffffffffffffffffffffffffffffffffffffffffff83818316178352505050506040516107c49190611141565b5f604051808303815f865af19150503d805f81146107fd576040519150601f19603f3d011682016040523d82523d5f602084013e610802565b606091505b509150915081801561082f57505f8151148061082e57508080602001905181019061082d919061118c565b5b5b61086e576040517f08c379a000000000000000000000000000000000000000000000000000000000815260040161086590611201565b60405180910390fd5b5050505050565b61087d61092c565b73ffffffffffffffffffffffffffffffffffffffff1661089b61044d565b73ffffffffffffffffffffffffffffffffffffffff16146108fa576108be61092c565b6040517f118cdaa70000000000000000000000000000000000000000000000000000000081526004016108f19190610c4a565b60405180910390fd5b565b60015f6101000a81549073ffffffffffffffffffffffffffffffffffffffff0219169055610929816109b5565b50565b5f33905090565b6109af848573ffffffffffffffffffffffffffffffffffffffff166323b872dd8686866040516024016109689392919061121f565b604051602081830303815290604052915060e01b6020820180517bffffffffffffffffffffffffffffffffffffffffffffffffffffffff8381831617835250505050610a76565b50505050565b5f5f5f9054906101000a900473ffffffffffffffffffffffffffffffffffffffff169050815f5f6101000a81548173ffffffffffffffffffffffffffffffffffffffff021916908373ffffffffffffffffffffffffffffffffffffffff1602179055508173ffffffffffffffffffffffffffffffffffffffff168173ffffffffffffffffffffffffffffffffffffffff167f8be0079c531659141344cd1fd0a4f28419497f9722a3daafe3b4186f6b6457e060405160405180910390a35050565b5f5f60205f8451602086015f885af180610a95576040513d5f823e3d81fd5b3d92505f519150505f8214610aae576001811415610ac9565b5f8473ffffffffffffffffffffffffffffffffffffffff163b145b15610b0b57836040517f5274afe7000000000000000000000000000000000000000000000000000000008152600401610b029190610c4a565b60405180910390fd5b50505050565b5f604051905090565b5f5ffd5b5f5ffd5b5f73ffffffffffffffffffffffffffffffffffffffff82169050919050565b5f610b4b82610b22565b9050919050565b610b5b81610b41565b8114610b65575f5ffd5b50565b5f81359050610b7681610b52565b92915050565b5f819050919050565b610b8e81610b7c565b8114610b98575f5ffd5b50565b5f81359050610ba981610b85565b92915050565b5f5f5f5f60808587031215610bc757610bc6610b1a565b5b5f610bd487828801610b68565b9450506020610be587828801610b68565b9350506040610bf687828801610b9b565b9250506060610c0787828801610b9b565b91505092959194509250565b610c1c81610b7c565b82525050565b5f602082019050610c355f830184610c13565b92915050565b610c4481610b41565b82525050565b5f602082019050610c5d5f830184610c3b565b92915050565b5f5ffd5b5f601f19601f8301169050919050565b7f4e487b71000000000000000000000000000000000000000000000000000000005f52604160045260245ffd5b610cad82610c67565b810181811067ffffffffffffffff82111715610ccc57610ccb610c77565b5b80604052505050565b5f610cde610b11565b9050610cea8282610ca4565b919050565b5f67ffffffffffffffff821115610d0957610d08610c77565b5b602082029050602081019050919050565b5f5ffd5b5f610d30610d2b84610cef565b610cd5565b90508083825260208201905060208402830185811115610d5357610d52610d1a565b5b835b81811015610d7c5780610d688882610b68565b845260208401935050602081019050610d55565b5050509392505050565b5f82601f830112610d9a57610d99610c63565b5b8135610daa848260208601610d1e565b91505092915050565b5f5f60408385031215610dc957610dc8610b1a565b5b5f83013567ffffffffffffffff811115610de657610de5610b1e565b5b610df285828601610d86565b925050602083013567ffffffffffffffff811115610e1357610e12610b1e565b5b610e1f85828601610d86565b9150509250929050565b5f60208284031215610e3e57610e3d610b1a565b5b5f610e4b84828501610b68565b91505092915050565b5f606082019050610e675f830186610c3b565b610e746020830185610c13565b610e816040830184610c13565b949350505050565b5f81519050610e9781610b85565b92915050565b5f60208284031215610eb257610eb1610b1a565b5b5f610ebf84828501610e89565b91505092915050565b5f819050919050565b5f819050919050565b5f610ef4610eef610eea84610ec8565b610ed1565b610b7c565b9050919050565b610f0481610eda565b82525050565b5f819050919050565b5f610f2d610f28610f2384610f0a565b610ed1565b610b7c565b9050919050565b610f3d81610f13565b82525050565b5f60a082019050610f565f830188610efb565b610f636020830187610f34565b610f706040830186610c13565b610f7d6060830185610f34565b610f8a6080830184610c3b565b9695505050505050565b5f604082019050610fa75f830185610c13565b610fb46020830184610c3b565b9392505050565b5f82825260208201905092915050565b7f4c656e677468204d69736d6174636800000000000000000000000000000000005f82015250565b5f610fff600f83610fbb565b915061100a82610fcb565b602082019050919050565b5f6020820190508181035f83015261102c81610ff3565b9050919050565b7f4e487b71000000000000000000000000000000000000000000000000000000005f52603260045260245ffd5b7f496e76616c696420546f6b656e204164647265737300000000000000000000005f82015250565b5f611094601583610fbb565b915061109f82611060565b602082019050919050565b5f6020820190508181035f8301526110c181611088565b9050919050565b5f6040820190506110db5f830185610c3b565b6110e86020830184610c13565b9392505050565b5f81519050919050565b5f81905092915050565b8281835e5f83830152505050565b5f61111b826110ef565b61112581856110f9565b9350611135818560208601611103565b80840191505092915050565b5f61114c8284611111565b915081905092915050565b5f8115159050919050565b61116b81611157565b8114611175575f5ffd5b50565b5f8151905061118681611162565b92915050565b5f602082840312156111a1576111a0610b1a565b5b5f6111ae84828501611178565b91505092915050565b7f5361666520417070726f766500000000000000000000000000000000000000005f82015250565b5f6111eb600c83610fbb565b91506111f6826111b7565b602082019050919050565b5f6020820190508181035f830152611218816111df565b9050919050565b5f6060820190506112325f830186610c3b565b61123f6020830185610c3b565b61124c6040830184610c13565b94935050505056fea264697066735822122030f991dbc9936cea57a5d9579c4bc7c6cd3ae5b7aa8a645d7b0e20041895e76164736f6c634300081e0033","linkReferences":{}},"methodIdentifiers":{"acceptOwnership()":"79ba5097","addSupportedTokens(address[],address[])":"db9576e7","openPosition(address,address,uint256,uint256)":"6ef1a28f","owner()":"8da5cb5b","pendingOwner()":"e30c3978","renounceOwnership()":"715018a6","transferOwnership(address)":"f2fde38b"},"id":119}