{"abi":[{"type":"constructor","inputs":[{"name":"positionManager","type":"address","internalType":"address"}],"stateMutability":"nonpayable"},{"type":"function","name":"acceptOwnership","inputs":[],"outputs":[],"stateMutability":"nonpayable"},{"type":"function","name":"addSupportedTokens","inputs":[{"name":"tokens","type":"address[]","internalType":"address[]"},{"name":"curvePools","type":"address[]","internalType":"address[]"}],"outputs":[],"stateMutability":"nonpayable"},{"type":"function","name":"openPosition","inputs":[{"name":"collateralToken","type":"address","internalType":"address"},{"name":"swapToken","type":"address","internalType":"address"},{"name":"amountCollateral","type":"uint256","internalType":"uint256"},{"name":"amountToMint","type":"uint256","internalType":"uint256"}],"outputs":[{"name":"positionId","type":"uint256","internalType":"uint256"}],"stateMutability":"nonpayable"},{"type":"function","name":"owner","inputs":[],"outputs":[{"name":"","type":"address","internalType":"address"}],"stateMutability":"view"},{"type":"function","name":"pendingOwner","inputs":[],"outputs":[{"name":"","type":"address","internalType":"address"}],"stateMutability":"view"},{"type":"function","name":"renounceOwnership","inputs":[],"outputs":[],"stateMutability":"nonpayable"},{"type":"function","name":"transferOwnership","inputs":[{"name":"newOwner","type":"address","internalType":"address"}],"outputs":[],"stateMutability":"nonpayable"},{"type":"event","name":"OwnershipTransferStarted","inputs":[{"name":"previousOwner","type":"address","indexed":true,"internalType":"address"},{"name":"newOwner","type":"address","indexed":true,"internalType":"address"}],"anonymous":false},{"type":"event","name":"OwnershipTransferred","inputs":[{"name":"previousOwner","type":"address","indexed":true,"internalType":"address"},{"name":"newOwner","type":"address","indexed":true,"internalType":"address"}],"anonymous":false},{"type":"error","name":"OwnableInvalidOwner","inputs":[{"name":"owner","type":"address","internalType":"address"}]},{"type":"error","name":"OwnableUnauthorizedAccount","inputs":[{"name":"account","type":"address","internalType":"address"}]},{"type":"error","name":"PositionManager__InvalidTokenAddress","inputs":[]},{"type":"error","name":"SafeERC20FailedOperation","inputs":[{"name":"token","type":"address","internalType":"address"}]}],"bytecode":{"object":"0x60c060405234801561000f575f5ffd5b5060405161157e38038061157e833981810160405281019061003191906102e3565b335f73ffffffffffffffffffffffffffffffffffffffff168173ffffffffffffffffffffffffffffffffffffffff16036100a2575f6040517f1e4fbdf7000000000000000000000000000000000000000000000000000000008152600401610099919061031d565b60405180910390fd5b6100b18161018e60201b60201c565b508073ffffffffffffffffffffffffffffffffffffffff1660808173ffffffffffffffffffffffffffffffffffffffff168152505060805173ffffffffffffffffffffffffffffffffffffffff166355b74db06040518163ffffffff1660e01b8152600401602060405180830381865afa158015610131573d5f5f3e3d5ffd5b505050506040513d601f19601f8201168201806040525081019061015591906102e3565b73ffffffffffffffffffffffffffffffffffffffff1660a08173ffffffffffffffffffffffffffffffffffffffff168152505050610336565b60015f6101000a81549073ffffffffffffffffffffffffffffffffffffffff02191690556101c1816101c460201b60201c565b50565b5f5f5f9054906101000a900473ffffffffffffffffffffffffffffffffffffffff169050815f5f6101000a81548173ffffffffffffffffffffffffffffffffffffffff021916908373ffffffffffffffffffffffffffffffffffffffff1602179055508173ffffffffffffffffffffffffffffffffffffffff168173ffffffffffffffffffffffffffffffffffffffff167f8be0079c531659141344cd1fd0a4f28419497f9722a3daafe3b4186f6b6457e060405160405180910390a35050565b5f5ffd5b5f73ffffffffffffffffffffffffffffffffffffffff82169050919050565b5f6102b282610289565b9050919050565b6102c2816102a8565b81146102cc575f5ffd5b50565b5f815190506102dd816102b9565b92915050565b5f602082840312156102f8576102f7610285565b5b5f610305848285016102cf565b91505092915050565b610317816102a8565b82525050565b5f6020820190506103305f83018461030e565b92915050565b60805160a0516112196103655f395f61027201525f818161014901528181610170015261031d01526112195ff3fe608060405234801561000f575f5ffd5b506004361061007b575f3560e01c80638da5cb5b116100595780638da5cb5b146100c3578063db9576e7146100e1578063e30c3978146100fd578063f2fde38b1461011b5761007b565b80636ef1a28f1461007f578063715018a6146100af57806379ba5097146100b9575b5f5ffd5b61009960048036038101906100949190610ba6565b610137565b6040516100a69190610c19565b60405180910390f35b6100b76103ac565b005b6100c16103bf565b005b6100cb61044d565b6040516100d89190610c41565b60405180910390f35b6100fb60048036038101906100f69190610daa565b610474565b005b61010561060e565b6040516101129190610c41565b60405180910390f35b61013560048036038101906101309190610e20565b610636565b005b5f6101438533856106e2565b61016e857f00000000000000000000000000000000000000000000000000000000000000008561071d565b7f000000000000000000000000000000000000000000000000000000000000000073ffffffffffffffffffffffffffffffffffffffff1663c5654acc8685856040518463ffffffff1660e01b81526004016101cb93929190610e4b565b6020604051808303815f875af11580156101e7573d5f5f3e3d5ffd5b505050506040513d601f19601f8201168201806040525081019061020b9190610e94565b90505f60025f8673ffffffffffffffffffffffffffffffffffffffff1673ffffffffffffffffffffffffffffffffffffffff1681526020019081526020015f205f9054906101000a900473ffffffffffffffffffffffffffffffffffffffff1690506102987f0000000000000000000000000000000000000000000000000000000000000000828561071d565b8073ffffffffffffffffffffffffffffffffffffffff1663a64833a060015f865f336040518663ffffffff1660e01b81526004016102da959493929190610f3a565b6020604051808303815f875af11580156102f6573d5f5f3e3d5ffd5b505050506040513d601f19601f8201168201806040525081019061031a9190610e94565b507f000000000000000000000000000000000000000000000000000000000000000073ffffffffffffffffffffffffffffffffffffffff1663751f890683336040518363ffffffff1660e01b8152600401610376929190610f8b565b5f604051808303815f87803b15801561038d575f5ffd5b505af115801561039f573d5f5f3e3d5ffd5b5050505050949350505050565b6103b461086c565b6103bd5f6108f3565b565b5f6103c8610923565b90508073ffffffffffffffffffffffffffffffffffffffff166103e961060e565b73ffffffffffffffffffffffffffffffffffffffff161461044157806040517f118cdaa70000000000000000000000000000000000000000000000000000000081526004016104389190610c41565b60405180910390fd5b61044a816108f3565b50565b5f5f5f9054906101000a900473ffffffffffffffffffffffffffffffffffffffff16905090565b61047c61086c565b80518251146104c0576040517f08c379a00000000000000000000000000000000000000000000000000000000081526004016104b79061100c565b60405180910390fd5b5f5f90505b8251811015610609575f73ffffffffffffffffffffffffffffffffffffffff168382815181106104f8576104f761102a565b5b602002602001015173ffffffffffffffffffffffffffffffffffffffff160361054d576040517f8c459d2e00000000000000000000000000000000000000000000000000000000815260040160405180910390fd5b8181815181106105605761055f61102a565b5b602002602001015160025f85848151811061057e5761057d61102a565b5b602002602001015173ffffffffffffffffffffffffffffffffffffffff1673ffffffffffffffffffffffffffffffffffffffff1681526020019081526020015f205f6101000a81548173ffffffffffffffffffffffffffffffffffffffff021916908373ffffffffffffffffffffffffffffffffffffffff16021790555080806001019150506104c5565b505050565b5f60015f9054906101000a900473ffffffffffffffffffffffffffffffffffffffff16905090565b61063e61086c565b8060015f6101000a81548173ffffffffffffffffffffffffffffffffffffffff021916908373ffffffffffffffffffffffffffffffffffffffff1602179055508073ffffffffffffffffffffffffffffffffffffffff1661069d61044d565b73ffffffffffffffffffffffffffffffffffffffff167f38d16b8cac22d99fc7c124b9cd0de2d3fa1faef420bfe791d8c362d765e2270060405160405180910390a350565b5f810315610718576107178230838673ffffffffffffffffffffffffffffffffffffffff1661092a909392919063ffffffff16565b5b505050565b5f5f8473ffffffffffffffffffffffffffffffffffffffff1663095ea7b360e01b8585604051602401610751929190611057565b604051602081830303815290604052907bffffffffffffffffffffffffffffffffffffffffffffffffffffffff19166020820180517bffffffffffffffffffffffffffffffffffffffffffffffffffffffff83818316178352505050506040516107bb91906110d0565b5f604051808303815f865af19150503d805f81146107f4576040519150601f19603f3d011682016040523d82523d5f602084013e6107f9565b606091505b509150915081801561082657505f81511480610825575080806020019051810190610824919061111b565b5b5b610865576040517f08c379a000000000000000000000000000000000000000000000000000000000815260040161085c90611190565b60405180910390fd5b5050505050565b610874610923565b73ffffffffffffffffffffffffffffffffffffffff1661089261044d565b73ffffffffffffffffffffffffffffffffffffffff16146108f1576108b5610923565b6040517f118cdaa70000000000000000000000000000000000000000000000000000000081526004016108e89190610c41565b60405180910390fd5b565b60015f6101000a81549073ffffffffffffffffffffffffffffffffffffffff0219169055610920816109ac565b50565b5f33905090565b6109a6848573ffffffffffffffffffffffffffffffffffffffff166323b872dd86868660405160240161095f939291906111ae565b604051602081830303815290604052915060e01b6020820180517bffffffffffffffffffffffffffffffffffffffffffffffffffffffff8381831617835250505050610a6d565b50505050565b5f5f5f9054906101000a900473ffffffffffffffffffffffffffffffffffffffff169050815f5f6101000a81548173ffffffffffffffffffffffffffffffffffffffff021916908373ffffffffffffffffffffffffffffffffffffffff1602179055508173ffffffffffffffffffffffffffffffffffffffff168173ffffffffffffffffffffffffffffffffffffffff167f8be0079c531659141344cd1fd0a4f28419497f9722a3daafe3b4186f6b6457e060405160405180910390a35050565b5f5f60205f8451602086015f885af180610a8c576040513d5f823e3d81fd5b3d92505f519150505f8214610aa5576001811415610ac0565b5f8473ffffffffffffffffffffffffffffffffffffffff163b145b15610b0257836040517f5274afe7000000000000000000000000000000000000000000000000000000008152600401610af99190610c41565b60405180910390fd5b50505050565b5f604051905090565b5f5ffd5b5f5ffd5b5f73ffffffffffffffffffffffffffffffffffffffff82169050919050565b5f610b4282610b19565b9050919050565b610b5281610b38565b8114610b5c575f5ffd5b50565b5f81359050610b6d81610b49565b92915050565b5f819050919050565b610b8581610b73565b8114610b8f575f5ffd5b50565b5f81359050610ba081610b7c565b92915050565b5f5f5f5f60808587031215610bbe57610bbd610b11565b5b5f610bcb87828801610b5f565b9450506020610bdc87828801610b5f565b9350506040610bed87828801610b92565b9250506060610bfe87828801610b92565b91505092959194509250565b610c1381610b73565b82525050565b5f602082019050610c2c5f830184610c0a565b92915050565b610c3b81610b38565b82525050565b5f602082019050610c545f830184610c32565b92915050565b5f5ffd5b5f601f19601f8301169050919050565b7f4e487b71000000000000000000000000000000000000000000000000000000005f52604160045260245ffd5b610ca482610c5e565b810181811067ffffffffffffffff82111715610cc357610cc2610c6e565b5b80604052505050565b5f610cd5610b08565b9050610ce18282610c9b565b919050565b5f67ffffffffffffffff821115610d0057610cff610c6e565b5b602082029050602081019050919050565b5f5ffd5b5f610d27610d2284610ce6565b610ccc565b90508083825260208201905060208402830185811115610d4a57610d49610d11565b5b835b81811015610d735780610d5f8882610b5f565b845260208401935050602081019050610d4c565b5050509392505050565b5f82601f830112610d9157610d90610c5a565b5b8135610da1848260208601610d15565b91505092915050565b5f5f60408385031215610dc057610dbf610b11565b5b5f83013567ffffffffffffffff811115610ddd57610ddc610b15565b5b610de985828601610d7d565b925050602083013567ffffffffffffffff811115610e0a57610e09610b15565b5b610e1685828601610d7d565b9150509250929050565b5f60208284031215610e3557610e34610b11565b5b5f610e4284828501610b5f565b91505092915050565b5f606082019050610e5e5f830186610c32565b610e6b6020830185610c0a565b610e786040830184610c0a565b949350505050565b5f81519050610e8e81610b7c565b92915050565b5f60208284031215610ea957610ea8610b11565b5b5f610eb684828501610e80565b91505092915050565b5f819050919050565b5f819050919050565b5f610eeb610ee6610ee184610ebf565b610ec8565b610b73565b9050919050565b610efb81610ed1565b82525050565b5f819050919050565b5f610f24610f1f610f1a84610f01565b610ec8565b610b73565b9050919050565b610f3481610f0a565b82525050565b5f60a082019050610f4d5f830188610ef2565b610f5a6020830187610f2b565b610f676040830186610c0a565b610f746060830185610f2b565b610f816080830184610c32565b9695505050505050565b5f604082019050610f9e5f830185610c0a565b610fab6020830184610c32565b9392505050565b5f82825260208201905092915050565b7f4c656e677468204d69736d6174636800000000000000000000000000000000005f82015250565b5f610ff6600f83610fb2565b915061100182610fc2565b602082019050919050565b5f6020820190508181035f83015261102381610fea565b9050919050565b7f4e487b71000000000000000000000000000000000000000000000000000000005f52603260045260245ffd5b5f60408201905061106a5f830185610c32565b6110776020830184610c0a565b9392505050565b5f81519050919050565b5f81905092915050565b8281835e5f83830152505050565b5f6110aa8261107e565b6110b48185611088565b93506110c4818560208601611092565b80840191505092915050565b5f6110db82846110a0565b915081905092915050565b5f8115159050919050565b6110fa816110e6565b8114611104575f5ffd5b50565b5f81519050611115816110f1565b92915050565b5f602082840312156111305761112f610b11565b5b5f61113d84828501611107565b91505092915050565b7f5361666520417070726f766500000000000000000000000000000000000000005f82015250565b5f61117a600c83610fb2565b915061118582611146565b602082019050919050565b5f6020820190508181035f8301526111a78161116e565b9050919050565b5f6060820190506111c15f830186610c32565b6111ce6020830185610c32565b6111db6040830184610c0a565b94935050505056fea26469706673582212201a6a2176c0a952b2e07b2c673d0d089ad14440c296291ba5f85eab75f3ea92cb64736f6c634300081e0033","linkReferences":{}},"methodIdentifiers":{"acceptOwnership()":"79ba5097","addSupportedTokens(address[],address[])":"db9576e7","openPosition(address,address,uint256,uint256)":"6ef1a28f","owner()":"8da5cb5b","pendingOwner()":"e30c3978","renounceOwnership()":"715018a6","transferOwnership(address)":"f2fde38b"},"id":73}