{"abi":[{"type":"constructor","inputs":[{"name":"flashLeverage","type":"address","internalType":"address"}],"stateMutability":"nonpayable"},{"type":"function","name":"acceptOwnership","inputs":[],"outputs":[],"stateMutability":"nonpayable"},{"type":"function","name":"addSupportedToken","inputs":[{"name":"fromToken","type":"address","internalType":"address"},{"name":"collateralTokens","type":"address[]","internalType":"address[]"},{"name":"curvePools","type":"address[]","internalType":"address[]"}],"outputs":[],"stateMutability":"nonpayable"},{"type":"function","name":"leverage","inputs":[{"name":"fromToken","type":"address","internalType":"address"},{"name":"amountToken","type":"uint256","internalType":"uint256"},{"name":"collateralToken","type":"address","internalType":"address"},{"name":"desiredLtv","type":"uint256","internalType":"uint256"}],"outputs":[],"stateMutability":"nonpayable"},{"type":"function","name":"owner","inputs":[],"outputs":[{"name":"","type":"address","internalType":"address"}],"stateMutability":"view"},{"type":"function","name":"pendingOwner","inputs":[],"outputs":[{"name":"","type":"address","internalType":"address"}],"stateMutability":"view"},{"type":"function","name":"renounceOwnership","inputs":[],"outputs":[],"stateMutability":"nonpayable"},{"type":"function","name":"transferOwnership","inputs":[{"name":"newOwner","type":"address","internalType":"address"}],"outputs":[],"stateMutability":"nonpayable"},{"type":"event","name":"OwnershipTransferStarted","inputs":[{"name":"previousOwner","type":"address","indexed":true,"internalType":"address"},{"name":"newOwner","type":"address","indexed":true,"internalType":"address"}],"anonymous":false},{"type":"event","name":"OwnershipTransferred","inputs":[{"name":"previousOwner","type":"address","indexed":true,"internalType":"address"},{"name":"newOwner","type":"address","indexed":true,"internalType":"address"}],"anonymous":false},{"type":"error","name":"OwnableInvalidOwner","inputs":[{"name":"owner","type":"address","internalType":"address"}]},{"type":"error","name":"OwnableUnauthorizedAccount","inputs":[{"name":"account","type":"address","internalType":"address"}]},{"type":"error","name":"PositionManager__InvalidTokenAddress","inputs":[]},{"type":"error","name":"SafeERC20FailedOperation","inputs":[{"name":"token","type":"address","internalType":"address"}]}],"bytecode":{"object":"0x60a060405234801561000f575f5ffd5b5060405161145438038061145483398181016040528101906100319190610241565b335f73ffffffffffffffffffffffffffffffffffffffff168173ffffffffffffffffffffffffffffffffffffffff16036100a2575f6040517f1e4fbdf7000000000000000000000000000000000000000000000000000000008152600401610099919061027b565b60405180910390fd5b6100b1816100ec60201b60201c565b508073ffffffffffffffffffffffffffffffffffffffff1660808173ffffffffffffffffffffffffffffffffffffffff168152505050610294565b60015f6101000a81549073ffffffffffffffffffffffffffffffffffffffff021916905561011f8161012260201b60201c565b50565b5f5f5f9054906101000a900473ffffffffffffffffffffffffffffffffffffffff169050815f5f6101000a81548173ffffffffffffffffffffffffffffffffffffffff021916908373ffffffffffffffffffffffffffffffffffffffff1602179055508173ffffffffffffffffffffffffffffffffffffffff168173ffffffffffffffffffffffffffffffffffffffff167f8be0079c531659141344cd1fd0a4f28419497f9722a3daafe3b4186f6b6457e060405160405180910390a35050565b5f5ffd5b5f73ffffffffffffffffffffffffffffffffffffffff82169050919050565b5f610210826101e7565b9050919050565b61022081610206565b811461022a575f5ffd5b50565b5f8151905061023b81610217565b92915050565b5f60208284031215610256576102556101e3565b5b5f6102638482850161022d565b91505092915050565b61027581610206565b82525050565b5f60208201905061028e5f83018461026c565b92915050565b6080516111a16102b35f395f818161025f015261028601526111a15ff3fe608060405234801561000f575f5ffd5b506004361061007b575f3560e01c80638da5cb5b116100595780638da5cb5b146100af578063e30c3978146100cd578063e44bafc6146100eb578063f2fde38b146101075761007b565b8063489f49dc1461007f578063715018a61461009b57806379ba5097146100a5575b5f5ffd5b61009960048036038101906100949190610b4e565b610123565b005b6100a3610318565b005b6100ad61032b565b005b6100b76103b9565b6040516100c49190610bc1565b60405180910390f35b6100d56103e0565b6040516100e29190610bc1565b60405180910390f35b61010560048036038101906101009190610d2a565b610408565b005b610121600480360381019061011c9190610db2565b6105de565b005b61012e84338561068a565b5f60025f8673ffffffffffffffffffffffffffffffffffffffff1673ffffffffffffffffffffffffffffffffffffffff1681526020019081526020015f205f8473ffffffffffffffffffffffffffffffffffffffff1673ffffffffffffffffffffffffffffffffffffffff1681526020019081526020015f205f9054906101000a900473ffffffffffffffffffffffffffffffffffffffff1690506101d48582866106c5565b5f8173ffffffffffffffffffffffffffffffffffffffff1663a64833a060015f885f306040518663ffffffff1660e01b8152600401610217959493929190610e67565b6020604051808303815f875af1158015610233573d5f5f3e3d5ffd5b505050506040513d601f19601f820116820180604052508101906102579190610ecc565b9050610284847f0000000000000000000000000000000000000000000000000000000000000000836106c5565b7f000000000000000000000000000000000000000000000000000000000000000073ffffffffffffffffffffffffffffffffffffffff1663a230922e338684876040518563ffffffff1660e01b81526004016102e39493929190610ef7565b5f604051808303815f87803b1580156102fa575f5ffd5b505af115801561030c573d5f5f3e3d5ffd5b50505050505050505050565b610320610814565b6103295f61089b565b565b5f6103346108cb565b90508073ffffffffffffffffffffffffffffffffffffffff166103556103e0565b73ffffffffffffffffffffffffffffffffffffffff16146103ad57806040517f118cdaa70000000000000000000000000000000000000000000000000000000081526004016103a49190610bc1565b60405180910390fd5b6103b68161089b565b50565b5f5f5f9054906101000a900473ffffffffffffffffffffffffffffffffffffffff16905090565b5f60015f9054906101000a900473ffffffffffffffffffffffffffffffffffffffff16905090565b610410610814565b8051825114610454576040517f08c379a000000000000000000000000000000000000000000000000000000000815260040161044b90610f94565b60405180910390fd5b5f5f90505b82518110156105d8575f73ffffffffffffffffffffffffffffffffffffffff1683828151811061048c5761048b610fb2565b5b602002602001015173ffffffffffffffffffffffffffffffffffffffff16036104e1576040517f8c459d2e00000000000000000000000000000000000000000000000000000000815260040160405180910390fd5b8181815181106104f4576104f3610fb2565b5b602002602001015160025f8673ffffffffffffffffffffffffffffffffffffffff1673ffffffffffffffffffffffffffffffffffffffff1681526020019081526020015f205f85848151811061054d5761054c610fb2565b5b602002602001015173ffffffffffffffffffffffffffffffffffffffff1673ffffffffffffffffffffffffffffffffffffffff1681526020019081526020015f205f6101000a81548173ffffffffffffffffffffffffffffffffffffffff021916908373ffffffffffffffffffffffffffffffffffffffff1602179055508080600101915050610459565b50505050565b6105e6610814565b8060015f6101000a81548173ffffffffffffffffffffffffffffffffffffffff021916908373ffffffffffffffffffffffffffffffffffffffff1602179055508073ffffffffffffffffffffffffffffffffffffffff166106456103b9565b73ffffffffffffffffffffffffffffffffffffffff167f38d16b8cac22d99fc7c124b9cd0de2d3fa1faef420bfe791d8c362d765e2270060405160405180910390a350565b5f8103156106c0576106bf8230838673ffffffffffffffffffffffffffffffffffffffff166108d2909392919063ffffffff16565b5b505050565b5f5f8473ffffffffffffffffffffffffffffffffffffffff1663095ea7b360e01b85856040516024016106f9929190610fdf565b604051602081830303815290604052907bffffffffffffffffffffffffffffffffffffffffffffffffffffffff19166020820180517bffffffffffffffffffffffffffffffffffffffffffffffffffffffff83818316178352505050506040516107639190611058565b5f604051808303815f865af19150503d805f811461079c576040519150601f19603f3d011682016040523d82523d5f602084013e6107a1565b606091505b50915091508180156107ce57505f815114806107cd5750808060200190518101906107cc91906110a3565b5b5b61080d576040517f08c379a000000000000000000000000000000000000000000000000000000000815260040161080490611118565b60405180910390fd5b5050505050565b61081c6108cb565b73ffffffffffffffffffffffffffffffffffffffff1661083a6103b9565b73ffffffffffffffffffffffffffffffffffffffff16146108995761085d6108cb565b6040517f118cdaa70000000000000000000000000000000000000000000000000000000081526004016108909190610bc1565b60405180910390fd5b565b60015f6101000a81549073ffffffffffffffffffffffffffffffffffffffff02191690556108c881610954565b50565b5f33905090565b61094e848573ffffffffffffffffffffffffffffffffffffffff166323b872dd86868660405160240161090793929190611136565b604051602081830303815290604052915060e01b6020820180517bffffffffffffffffffffffffffffffffffffffffffffffffffffffff8381831617835250505050610a15565b50505050565b5f5f5f9054906101000a900473ffffffffffffffffffffffffffffffffffffffff169050815f5f6101000a81548173ffffffffffffffffffffffffffffffffffffffff021916908373ffffffffffffffffffffffffffffffffffffffff1602179055508173ffffffffffffffffffffffffffffffffffffffff168173ffffffffffffffffffffffffffffffffffffffff167f8be0079c531659141344cd1fd0a4f28419497f9722a3daafe3b4186f6b6457e060405160405180910390a35050565b5f5f60205f8451602086015f885af180610a34576040513d5f823e3d81fd5b3d92505f519150505f8214610a4d576001811415610a68565b5f8473ffffffffffffffffffffffffffffffffffffffff163b145b15610aaa57836040517f5274afe7000000000000000000000000000000000000000000000000000000008152600401610aa19190610bc1565b60405180910390fd5b50505050565b5f604051905090565b5f5ffd5b5f5ffd5b5f73ffffffffffffffffffffffffffffffffffffffff82169050919050565b5f610aea82610ac1565b9050919050565b610afa81610ae0565b8114610b04575f5ffd5b50565b5f81359050610b1581610af1565b92915050565b5f819050919050565b610b2d81610b1b565b8114610b37575f5ffd5b50565b5f81359050610b4881610b24565b92915050565b5f5f5f5f60808587031215610b6657610b65610ab9565b5b5f610b7387828801610b07565b9450506020610b8487828801610b3a565b9350506040610b9587828801610b07565b9250506060610ba687828801610b3a565b91505092959194509250565b610bbb81610ae0565b82525050565b5f602082019050610bd45f830184610bb2565b92915050565b5f5ffd5b5f601f19601f8301169050919050565b7f4e487b71000000000000000000000000000000000000000000000000000000005f52604160045260245ffd5b610c2482610bde565b810181811067ffffffffffffffff82111715610c4357610c42610bee565b5b80604052505050565b5f610c55610ab0565b9050610c618282610c1b565b919050565b5f67ffffffffffffffff821115610c8057610c7f610bee565b5b602082029050602081019050919050565b5f5ffd5b5f610ca7610ca284610c66565b610c4c565b90508083825260208201905060208402830185811115610cca57610cc9610c91565b5b835b81811015610cf35780610cdf8882610b07565b845260208401935050602081019050610ccc565b5050509392505050565b5f82601f830112610d1157610d10610bda565b5b8135610d21848260208601610c95565b91505092915050565b5f5f5f60608486031215610d4157610d40610ab9565b5b5f610d4e86828701610b07565b935050602084013567ffffffffffffffff811115610d6f57610d6e610abd565b5b610d7b86828701610cfd565b925050604084013567ffffffffffffffff811115610d9c57610d9b610abd565b5b610da886828701610cfd565b9150509250925092565b5f60208284031215610dc757610dc6610ab9565b5b5f610dd484828501610b07565b91505092915050565b5f819050919050565b5f819050919050565b5f610e09610e04610dff84610ddd565b610de6565b610b1b565b9050919050565b610e1981610def565b82525050565b5f819050919050565b5f610e42610e3d610e3884610e1f565b610de6565b610b1b565b9050919050565b610e5281610e28565b82525050565b610e6181610b1b565b82525050565b5f60a082019050610e7a5f830188610e10565b610e876020830187610e49565b610e946040830186610e58565b610ea16060830185610e49565b610eae6080830184610bb2565b9695505050505050565b5f81519050610ec681610b24565b92915050565b5f60208284031215610ee157610ee0610ab9565b5b5f610eee84828501610eb8565b91505092915050565b5f608082019050610f0a5f830187610bb2565b610f176020830186610bb2565b610f246040830185610e58565b610f316060830184610e58565b95945050505050565b5f82825260208201905092915050565b7f4c656e677468204d69736d6174636800000000000000000000000000000000005f82015250565b5f610f7e600f83610f3a565b9150610f8982610f4a565b602082019050919050565b5f6020820190508181035f830152610fab81610f72565b9050919050565b7f4e487b71000000000000000000000000000000000000000000000000000000005f52603260045260245ffd5b5f604082019050610ff25f830185610bb2565b610fff6020830184610e58565b9392505050565b5f81519050919050565b5f81905092915050565b8281835e5f83830152505050565b5f61103282611006565b61103c8185611010565b935061104c81856020860161101a565b80840191505092915050565b5f6110638284611028565b915081905092915050565b5f8115159050919050565b6110828161106e565b811461108c575f5ffd5b50565b5f8151905061109d81611079565b92915050565b5f602082840312156110b8576110b7610ab9565b5b5f6110c58482850161108f565b91505092915050565b7f5361666520417070726f766500000000000000000000000000000000000000005f82015250565b5f611102600c83610f3a565b915061110d826110ce565b602082019050919050565b5f6020820190508181035f83015261112f816110f6565b9050919050565b5f6060820190506111495f830186610bb2565b6111566020830185610bb2565b6111636040830184610e58565b94935050505056fea2646970667358221220fa11b9ed23fc8b836266f7827c46bc3d1708af0b957987744c29925b11bdcb1664736f6c634300081e0033","linkReferences":{}},"methodIdentifiers":{"acceptOwnership()":"79ba5097","addSupportedToken(address,address[],address[])":"e44bafc6","leverage(address,uint256,address,uint256)":"489f49dc","owner()":"8da5cb5b","pendingOwner()":"e30c3978","renounceOwnership()":"715018a6","transferOwnership(address)":"f2fde38b"},"id":73}