{"abi":[{"type":"constructor","inputs":[{"name":"morphoAddress","type":"address","internalType":"address"},{"name":"pendleRouter","type":"address","internalType":"address"}],"stateMutability":"nonpayable"},{"type":"function","name":"LIQUIDATION_BUFFER","inputs":[],"outputs":[{"name":"","type":"uint256","internalType":"uint256"}],"stateMutability":"view"},{"type":"function","name":"SLIPPAGE_BUFFER","inputs":[],"outputs":[{"name":"","type":"uint256","internalType":"uint256"}],"stateMutability":"view"},{"type":"function","name":"acceptOwnership","inputs":[],"outputs":[],"stateMutability":"nonpayable"},{"type":"function","name":"addManager","inputs":[{"name":"manager","type":"address","internalType":"address"}],"outputs":[],"stateMutability":"nonpayable"},{"type":"function","name":"addSupportedCollateralTokens","inputs":[{"name":"tokenConfigs","type":"tuple[]","internalType":"struct CollateralTokenConfig[]","components":[{"name":"collateralToken","type":"address","internalType":"address"},{"name":"morphoMarketId","type":"bytes32","internalType":"bytes32"},{"name":"pendleMarket","type":"address","internalType":"address"}]}],"outputs":[],"stateMutability":"nonpayable"},{"type":"function","name":"calcLeverageFlashLoan","inputs":[{"name":"desiredLtv","type":"uint256","internalType":"uint256"},{"name":"collateralToken","type":"address","internalType":"address"},{"name":"loanToken","type":"address","internalType":"address"},{"name":"amountCollateral","type":"uint256","internalType":"uint256"}],"outputs":[{"name":"","type":"uint256","internalType":"uint256"}],"stateMutability":"view"},{"type":"function","name":"calcUnleverageFlashLoan","inputs":[{"name":"collateralToken","type":"address","internalType":"address"},{"name":"loanToken","type":"address","internalType":"address"},{"name":"sharesToBurn","type":"uint256","internalType":"uint256"}],"outputs":[{"name":"","type":"uint256","internalType":"uint256"}],"stateMutability":"view"},{"type":"function","name":"getCollateralValueInLoanToken","inputs":[{"name":"collateralToken","type":"address","internalType":"address"},{"name":"loanToken","type":"address","internalType":"address"},{"name":"amountCollateral","type":"uint256","internalType":"uint256"}],"outputs":[{"name":"","type":"uint256","internalType":"uint256"}],"stateMutability":"view"},{"type":"function","name":"getLiqLtv","inputs":[{"name":"collateralToken","type":"address","internalType":"address"},{"name":"loanToken","type":"address","internalType":"address"}],"outputs":[{"name":"","type":"uint256","internalType":"uint256"}],"stateMutability":"view"},{"type":"function","name":"getMaxLtv","inputs":[{"name":"collateralToken","type":"address","internalType":"address"},{"name":"loanToken","type":"address","internalType":"address"}],"outputs":[{"name":"","type":"uint256","internalType":"uint256"}],"stateMutability":"view"},{"type":"function","name":"getOrCreateUserProxy","inputs":[{"name":"user","type":"address","internalType":"address"},{"name":"desiredLtv","type":"uint256","internalType":"uint256"}],"outputs":[{"name":"proxy","type":"address","internalType":"address"}],"stateMutability":"nonpayable"},{"type":"function","name":"getSharesValueInLoanToken","inputs":[{"name":"collateralToken","type":"address","internalType":"address"},{"name":"loanToken","type":"address","internalType":"address"},{"name":"sharesBorrowed","type":"uint256","internalType":"uint256"}],"outputs":[{"name":"","type":"uint256","internalType":"uint256"}],"stateMutability":"view"},{"type":"function","name":"getUserCoreLeveragePosition","inputs":[{"name":"user","type":"address","internalType":"address"},{"name":"desiredLtv","type":"uint256","internalType":"uint256"},{"name":"collateralToken","type":"address","internalType":"address"},{"name":"loanToken","type":"address","internalType":"address"}],"outputs":[{"name":"","type":"tuple","internalType":"struct CoreLeveragePosition","components":[{"name":"amountCollateral","type":"uint256","internalType":"uint256"},{"name":"sharesBorrowed","type":"uint256","internalType":"uint256"}]}],"stateMutability":"view"},{"type":"function","name":"getUserProxy","inputs":[{"name":"user","type":"address","internalType":"address"},{"name":"desiredLtv","type":"uint256","internalType":"uint256"}],"outputs":[{"name":"","type":"address","internalType":"address"}],"stateMutability":"view"},{"type":"function","name":"i_morpho","inputs":[],"outputs":[{"name":"","type":"address","internalType":"contract IMorpho"}],"stateMutability":"view"},{"type":"function","name":"i_pendleRouter","inputs":[],"outputs":[{"name":"","type":"address","internalType":"contract IPAllActionV3"}],"stateMutability":"view"},{"type":"function","name":"i_userProxyImplementation","inputs":[],"outputs":[{"name":"","type":"address","internalType":"address"}],"stateMutability":"view"},{"type":"function","name":"isManager","inputs":[{"name":"manager","type":"address","internalType":"address"}],"outputs":[{"name":"","type":"bool","internalType":"bool"}],"stateMutability":"view"},{"type":"function","name":"isSupportedCollateralToken","inputs":[{"name":"collateralToken","type":"address","internalType":"address"},{"name":"loanToken","type":"address","internalType":"address"}],"outputs":[{"name":"","type":"bool","internalType":"bool"}],"stateMutability":"view"},{"type":"function","name":"leverage","inputs":[{"name":"onBehalfOf","type":"address","internalType":"address"},{"name":"params","type":"tuple","internalType":"struct LeverageParams","components":[{"name":"desiredLtv","type":"uint256","internalType":"uint256"},{"name":"collateralToken","type":"address","internalType":"address"},{"name":"loanToken","type":"address","internalType":"address"},{"name":"amountCollateral","type":"uint256","internalType":"uint256"},{"name":"approxParams","type":"tuple","internalType":"struct ApproxParams","components":[{"name":"guessMin","type":"uint256","internalType":"uint256"},{"name":"guessMax","type":"uint256","internalType":"uint256"},{"name":"guessOffchain","type":"uint256","internalType":"uint256"},{"name":"maxIteration","type":"uint256","internalType":"uint256"},{"name":"eps","type":"uint256","internalType":"uint256"}]},{"name":"pendleSwap","type":"address","internalType":"address"},{"name":"tokenMintSy","type":"address","internalType":"address"},{"name":"minPtOut","type":"uint256","internalType":"uint256"},{"name":"swapData","type":"tuple","internalType":"struct SwapData","components":[{"name":"swapType","type":"uint8","internalType":"enum SwapType"},{"name":"extRouter","type":"address","internalType":"address"},{"name":"extCalldata","type":"bytes","internalType":"bytes"},{"name":"needScale","type":"bool","internalType":"bool"}]},{"name":"limitOrderData","type":"tuple","internalType":"struct LimitOrderData","components":[{"name":"limitRouter","type":"address","internalType":"address"},{"name":"epsSkipMarket","type":"uint256","internalType":"uint256"},{"name":"normalFills","type":"tuple[]","internalType":"struct FillOrderParams[]","components":[{"name":"order","type":"tuple","internalType":"struct Order","components":[{"name":"salt","type":"uint256","internalType":"uint256"},{"name":"expiry","type":"uint256","internalType":"uint256"},{"name":"nonce","type":"uint256","internalType":"uint256"},{"name":"orderType","type":"uint8","internalType":"enum IPLimitOrderType.OrderType"},{"name":"token","type":"address","internalType":"address"},{"name":"YT","type":"address","internalType":"address"},{"name":"maker","type":"address","internalType":"address"},{"name":"receiver","type":"address","internalType":"address"},{"name":"makingAmount","type":"uint256","internalType":"uint256"},{"name":"lnImpliedRate","type":"uint256","internalType":"uint256"},{"name":"failSafeRate","type":"uint256","internalType":"uint256"},{"name":"permit","type":"bytes","internalType":"bytes"}]},{"name":"signature","type":"bytes","internalType":"bytes"},{"name":"makingAmount","type":"uint256","internalType":"uint256"}]},{"name":"flashFills","type":"tuple[]","internalType":"struct FillOrderParams[]","components":[{"name":"order","type":"tuple","internalType":"struct Order","components":[{"name":"salt","type":"uint256","internalType":"uint256"},{"name":"expiry","type":"uint256","internalType":"uint256"},{"name":"nonce","type":"uint256","internalType":"uint256"},{"name":"orderType","type":"uint8","internalType":"enum IPLimitOrderType.OrderType"},{"name":"token","type":"address","internalType":"address"},{"name":"YT","type":"address","internalType":"address"},{"name":"maker","type":"address","internalType":"address"},{"name":"receiver","type":"address","internalType":"address"},{"name":"makingAmount","type":"uint256","internalType":"uint256"},{"name":"lnImpliedRate","type":"uint256","internalType":"uint256"},{"name":"failSafeRate","type":"uint256","internalType":"uint256"},{"name":"permit","type":"bytes","internalType":"bytes"}]},{"name":"signature","type":"bytes","internalType":"bytes"},{"name":"makingAmount","type":"uint256","internalType":"uint256"}]},{"name":"optData","type":"bytes","internalType":"bytes"}]}]}],"outputs":[],"stateMutability":"nonpayable"},{"type":"function","name":"onMorphoFlashLoan","inputs":[{"name":"amountLoan","type":"uint256","internalType":"uint256"},{"name":"data","type":"bytes","internalType":"bytes"}],"outputs":[],"stateMutability":"nonpayable"},{"type":"function","name":"owner","inputs":[],"outputs":[{"name":"","type":"address","internalType":"address"}],"stateMutability":"view"},{"type":"function","name":"pendingOwner","inputs":[],"outputs":[{"name":"","type":"address","internalType":"address"}],"stateMutability":"view"},{"type":"function","name":"recoveryMode","inputs":[],"outputs":[{"name":"","type":"bool","internalType":"bool"}],"stateMutability":"view"},{"type":"function","name":"renounceOwnership","inputs":[],"outputs":[],"stateMutability":"nonpayable"},{"type":"function","name":"s_userProxies","inputs":[{"name":"user","type":"address","internalType":"address"},{"name":"desiredLtv","type":"uint256","internalType":"uint256"}],"outputs":[{"name":"proxyContract","type":"address","internalType":"address"}],"stateMutability":"view"},{"type":"function","name":"setRecoveryMode","inputs":[{"name":"_enabled","type":"bool","internalType":"bool"}],"outputs":[],"stateMutability":"nonpayable"},{"type":"function","name":"transferOwnership","inputs":[{"name":"newOwner","type":"address","internalType":"address"}],"outputs":[],"stateMutability":"nonpayable"},{"type":"function","name":"unleverage","inputs":[{"name":"onBehalfOf","type":"address","internalType":"address"},{"name":"params","type":"tuple","internalType":"struct UnleverageParams","components":[{"name":"desiredLtv","type":"uint256","internalType":"uint256"},{"name":"collateralToken","type":"address","internalType":"address"},{"name":"loanToken","type":"address","internalType":"address"},{"name":"sharesToBurn","type":"uint256","internalType":"uint256"},{"name":"amountCollateralToWithdraw","type":"uint256","internalType":"uint256"},{"name":"pendleSwap","type":"address","internalType":"address"},{"name":"tokenRedeemSy","type":"address","internalType":"address"},{"name":"minTokenOut","type":"uint256","internalType":"uint256"},{"name":"swapData","type":"tuple","internalType":"struct SwapData","components":[{"name":"swapType","type":"uint8","internalType":"enum SwapType"},{"name":"extRouter","type":"address","internalType":"address"},{"name":"extCalldata","type":"bytes","internalType":"bytes"},{"name":"needScale","type":"bool","internalType":"bool"}]},{"name":"limitOrderData","type":"tuple","internalType":"struct LimitOrderData","components":[{"name":"limitRouter","type":"address","internalType":"address"},{"name":"epsSkipMarket","type":"uint256","internalType":"uint256"},{"name":"normalFills","type":"tuple[]","internalType":"struct FillOrderParams[]","components":[{"name":"order","type":"tuple","internalType":"struct Order","components":[{"name":"salt","type":"uint256","internalType":"uint256"},{"name":"expiry","type":"uint256","internalType":"uint256"},{"name":"nonce","type":"uint256","internalType":"uint256"},{"name":"orderType","type":"uint8","internalType":"enum IPLimitOrderType.OrderType"},{"name":"token","type":"address","internalType":"address"},{"name":"YT","type":"address","internalType":"address"},{"name":"maker","type":"address","internalType":"address"},{"name":"receiver","type":"address","internalType":"address"},{"name":"makingAmount","type":"uint256","internalType":"uint256"},{"name":"lnImpliedRate","type":"uint256","internalType":"uint256"},{"name":"failSafeRate","type":"uint256","internalType":"uint256"},{"name":"permit","type":"bytes","internalType":"bytes"}]},{"name":"signature","type":"bytes","internalType":"bytes"},{"name":"makingAmount","type":"uint256","internalType":"uint256"}]},{"name":"flashFills","type":"tuple[]","internalType":"struct FillOrderParams[]","components":[{"name":"order","type":"tuple","internalType":"struct Order","components":[{"name":"salt","type":"uint256","internalType":"uint256"},{"name":"expiry","type":"uint256","internalType":"uint256"},{"name":"nonce","type":"uint256","internalType":"uint256"},{"name":"orderType","type":"uint8","internalType":"enum IPLimitOrderType.OrderType"},{"name":"token","type":"address","internalType":"address"},{"name":"YT","type":"address","internalType":"address"},{"name":"maker","type":"address","internalType":"address"},{"name":"receiver","type":"address","internalType":"address"},{"name":"makingAmount","type":"uint256","internalType":"uint256"},{"name":"lnImpliedRate","type":"uint256","internalType":"uint256"},{"name":"failSafeRate","type":"uint256","internalType":"uint256"},{"name":"permit","type":"bytes","internalType":"bytes"}]},{"name":"signature","type":"bytes","internalType":"bytes"},{"name":"makingAmount","type":"uint256","internalType":"uint256"}]},{"name":"optData","type":"bytes","internalType":"bytes"}]}]}],"outputs":[],"stateMutability":"nonpayable"},{"type":"event","name":"OwnershipTransferStarted","inputs":[{"name":"previousOwner","type":"address","indexed":true,"internalType":"address"},{"name":"newOwner","type":"address","indexed":true,"internalType":"address"}],"anonymous":false},{"type":"event","name":"OwnershipTransferred","inputs":[{"name":"previousOwner","type":"address","indexed":true,"internalType":"address"},{"name":"newOwner","type":"address","indexed":true,"internalType":"address"}],"anonymous":false},{"type":"error","name":"FailedDeployment","inputs":[]},{"type":"error","name":"FlashLeverageCore__AmountCollateralCannotBeZero","inputs":[]},{"type":"error","name":"FlashLeverageCore__CannotBeZeroAddress","inputs":[]},{"type":"error","name":"FlashLeverageCore__EffectiveLtvTooHigh","inputs":[{"name":"desiredLtv","type":"uint256","internalType":"uint256"},{"name":"effectiveLtv","type":"uint256","internalType":"uint256"}]},{"type":"error","name":"FlashLeverageCore__ExceedsMaxLTV","inputs":[]},{"type":"error","name":"FlashLeverageCore__InsufficientCollateralToWithdraw","inputs":[]},{"type":"error","name":"FlashLeverageCore__InsufficientSharesToBurn","inputs":[]},{"type":"error","name":"FlashLeverageCore__InvalidCollateralToken","inputs":[]},{"type":"error","name":"FlashLeverageCore__InvalidCollateralTokenDecimals","inputs":[]},{"type":"error","name":"FlashLeverageCore__NotAManager","inputs":[]},{"type":"error","name":"FlashLeverageCore__SharesToBurnCannotBeZero","inputs":[]},{"type":"error","name":"FlashLeverageCore__UnsupportedCollateralToken","inputs":[]},{"type":"error","name":"FlashLeverageCore__UntrustedLender","inputs":[]},{"type":"error","name":"InsufficientBalance","inputs":[{"name":"balance","type":"uint256","internalType":"uint256"},{"name":"needed","type":"uint256","internalType":"uint256"}]},{"type":"error","name":"OwnableInvalidOwner","inputs":[{"name":"owner","type":"address","internalType":"address"}]},{"type":"error","name":"OwnableUnauthorizedAccount","inputs":[{"name":"account","type":"address","internalType":"address"}]},{"type":"error","name":"ReentrancyGuardReentrantCall","inputs":[]},{"type":"error","name":"SafeERC20FailedOperation","inputs":[{"name":"token","type":"address","internalType":"address"}]}],"bytecode":{"object":"0x60e0346101e057601f613bba38819003918201601f19168301916001600160401b038311848410176101a15780849260409485528339810103126101e057610052602061004b836101e4565b92016101e4565b6001600160a01b039182166080819052911660a081905260016003559033156101cd57600580546001600160a01b0319908116909155600480549182163390811790915560405193916001600160a01b03167f8be0079c531659141344cd1fd0a4f28419497f9722a3daafe3b4186f6b6457e05f80a381159081156101c4575b506101b55761051f8281016001600160401b038111848210176101a157604092849261369b843930825260208201520301905ff08015610196576001600160a01b031660c0526040516134a290816101f982396080518181816103a6015281816107da01528181610bbc01528181610f3501528181610f5d01528181610fda015281816111030152818161128c01528181611f7401526128cd015260a0518181816102bf01528181610d3901526129d3015260c0518181816103610152611a170152f35b6040513d5f823e3d90fd5b634e487b7160e01b5f52604160045260245ffd5b630959660360e11b5f5260045ffd5b9050155f6100d2565b631e4fbdf760e01b5f525f60045260245ffd5b5f80fd5b51906001600160a01b03821682036101e05756fe6080806040526004361015610012575f80fd5b5f905f3560e01c90816307a00b1f146116e65750806314ee89c41461169a57806324b31145146116795780632d06177a1461161d5780632ec23d6614611231578063313b120e1461121857806331f5707214610b5e5780633ba7a31414610b445780635adb101c14610b115780635d1593e714610ad757806362fd6add14610ab057806370f5585f1461089e5780637130fa4914610602578063715018a6146105ee57806379ba50971461056b57806383da2a3c146105495780638da5cb5b1461052057806392905bf7146104e857806394d49ab71461049c57806394ea07bb146103d557806396d066f514610390578063d5c96c171461034b578063dc101605146102ee578063dd2a7a17146102a9578063e30c397814610280578063e30e40cb14610266578063e43478ef1461020c578063f2fde38b1461019e5763f3ae24151461015d575f80fd5b3461019b57602036600319011261019b5760209060ff906040906001600160a01b03610187611705565b168152600684522054166040519015158152f35b80fd5b503461019b57602036600319011261019b576101b8611705565b6101c0612329565b600580546001600160a01b0319166001600160a01b039283169081179091556004549091167f38d16b8cac22d99fc7c124b9cd0de2d3fa1faef420bfe791d8c362d765e227008380a380f35b503461019b57604036600319011261019b57602061025e61022b611705565b61023361171b565b6001600160a01b039182165f9081526020818152604080832093909416825291909152206004015490565b604051908152f35b503461019b57602061025e61027a3661175b565b91611ed9565b503461019b578060031936011261019b576005546040516001600160a01b039091168152602090f35b503461019b578060031936011261019b576040517f00000000000000000000000000000000000000000000000000000000000000006001600160a01b03168152602090f35b503461019b57604036600319011261019b57602061034161030d611705565b61031561171b565b6001600160a01b039182165f908152602081815260408083209385168352929052206001015416151590565b6040519015158152f35b503461019b578060031936011261019b576040517f00000000000000000000000000000000000000000000000000000000000000006001600160a01b03168152602090f35b503461019b578060031936011261019b576040517f00000000000000000000000000000000000000000000000000000000000000006001600160a01b03168152602090f35b503461019b57608036600319011261019b576103ef611705565b906103f8611731565b606435929091906001600160a01b038416840361049857906040918160208451610421816117ec565b82815201526001600160a01b0390811682526007602090815283832060243584528152838320548216835260088152929091209281165f9081529282526040808420949091168352929052819020815161047a816117ec565b60206001835493848452015491019081528251918252516020820152f35b5080fd5b503461019b57604036600319011261019b576020906001600160a01b036104c1611705565b168152600782526040812060243582528252604060018060a01b0391205416604051908152f35b503461019b57602036600319011261019b576004358015158091036104985761050f612329565b60ff80196009541691161760095580f35b503461019b578060031936011261019b576004546040516001600160a01b039091168152602090f35b503461019b578060031936011261019b5760206040516658d15e176280008152f35b503461019b578060031936011261019b57600554336001600160a01b038216036105db576001600160a01b0319908116600555600480543392811683179091556001600160a01b03167f8be0079c531659141344cd1fd0a4f28419497f9722a3daafe3b4186f6b6457e08380a380f35b63118cdaa760e01b825233600452602482fd5b503461019b578060031936011261019b5780f35b503461019b57604036600319011261019b5761061c611705565b90602435916001600160401b0383116104985782600401610140600319853603011261089a57338352600660205260ff6040842054161561088b57606484013590811561087c5761066f60248601611b40565b9061067c60448701611b40565b6001600160a01b039485168652600760209081526040808820843589528252808820548716808952600883528189208689165f9081529084528281209885168152979092529095208054976084810135969295929391878a1061086d57600181019081549a858c1061085e579a85918a8c9d0390550390556106ff838787611885565b9661070c60a48301611b40565b61071860c48401611b40565b91610727610104850186611b54565b94610124850161073691611b69565b6040805160016020820152339181019190915260608101989098526001600160a01b03988916608089015289891660a089015260c088019690965260e0870152861661010086015290941661012084015260e49093013561014083015261018061016083015290918291906107b0906101a0840190611bf0565b828103601f19016101808401526107c691611e14565b03601f19810182526107d89082611807565b7f00000000000000000000000000000000000000000000000000000000000000006001600160a01b0316803b1561085a5761082d938580946040519687958694859363701195a160e11b855260048501611eb5565b03925af1801561084f5761083e5750f35b8161084891611807565b61019b5780f35b6040513d84823e3d90fd5b8480fd5b63af020cc560e01b8b5260048bfd5b632ad10c8b60e01b8952600489fd5b63f1e7f8e160e01b8452600484fd5b6307bb643d60e11b8352600483fd5b8280fd5b503461019b57604036600319011261019b576108b8611705565b906024356001600160401b0381116104985780600401906101c0600319823603011261089a57338352600660205260ff6040842054161561088b57602481019161090183611b40565b91610913604482019361031585611b40565b15610aa1576064810135938415610a925782359061094261093382611b40565b61093c87611b40565b90611b03565b8211610a83578697610a6288956101646107d89660209661096e610968610a7598611b40565b9b611b40565b9a61097a8d3383612e05565b6109868d8d838561198f565b9c6109946101248501611b40565b916109a26101448601611b40565b936109c06109b461018488018a611b54565b986101a4880190611b69565b604080519d8e019f909f526001600160a01b039a8b169e8d019e909e5260608c0152881660808b01528c881660a08b015260c08a0152608483013560e08a015260a48301356101008a015260c48301356101208a015260e48301356101408a01526101048301356101608a015286166101808901529094166101a0870152909201356101c08501526102006101e0850152929485939091610220850190611bf0565b838103601f190161020085015290611e14565b03601f198101835282611807565b6315138ff160e11b8752600487fd5b63219e33d160e11b8652600486fd5b630a52f42d60e41b8552600485fd5b503461019b57604036600319011261019b57602061025e610acf611705565b61093c61171b565b503461019b57604036600319011261019b576020610aff610af6611705565b602435906119ca565b6040516001600160a01b039091168152f35b503461019b57608036600319011261019b57602061025e610b3061171b565b610b38611731565b6064359160043561198f565b503461019b57602061025e610b583661175b565b916118b5565b503461118b57604036600319011261118b576001600160401b036024351161118b5736602360243501121561118b57602435600401356001600160401b03811161118b57602480350190806024350191602483019236841161118b577f00000000000000000000000000000000000000000000000000000000000000006001600160a01b0316330361120957602480359091039081019290916020831261118b578035600281101561118b576111f057505061020090610c1c612ed4565b1261118b57610c2f604460243501611747565b610c3d608460243501611747565b9260a0610c4e60a460243501611747565b9360e319011261118b5760405190610c65826117d1565b60e46024350135825261010460243501356020830152604082019161012460243501358352606081019061014460243501358252608081019061016460243501358252610cb761018460243501611747565b92610cc76101a460243501611747565b6101e460243501356001600160401b03811161118b57866024610ced928135010161248d565b986102046024350135906001600160401b03821161118b57610e166020978d975f96610d2460609c6024610e2998813501016126d3565b9460018060a01b03169e8f9360018060a01b037f0000000000000000000000000000000000000000000000000000000000000000169b610d688d6004359088613150565b6001600160a01b039081168b5260028e526040808c205490519116999095610d8f876117d1565b86526004358e87015260018060a01b0316604086015260018060a01b03168d85015260808401526040519c8d9b8c9a8b9963640fc23d60e11b8b523060048c015260248b01526101c4602435013560448b0152805160648b0152015160848901525160a48801525160c48701525160e4860152610140610104860152610144850190612f22565b83810360031901610124850152906130f5565b03925af1801561118057610e4b915f916111bf575b5060c46024350135612dcd565b90610e83610e6383856001600160a01b0388166118b5565b845f526001602052610e7e60ff60405f2054166004356123a6565b612dda565b60243560640135662386f26fc1000081019081106111ab57811161118f5750610ebc9060243560640135906001600160a01b03166119ca565b9060018060a01b0384165f525f60205260405f2060018060a01b0384165f5260205260405f20610f5b8260405192610ef3846117d1565b80546001600160a01b039081168552600182015481166020860181905260028301548216604087015260038301548216606087015260049092015460808601527f00000000000000000000000000000000000000000000000000000000000000001690613332565b7f00000000000000000000000000000000000000000000000000000000000000006001600160a01b03163b1561118b5760405163238d657960e01b815292610fa66004850183612e75565b8260a485015260018060a01b0316928360c482015261010060e48201525f6101048201525f81610124818360018060a01b037f0000000000000000000000000000000000000000000000000000000000000000165af1801561118057611166575b50908561107b9261102c604051916350d8cd4b60e01b60208401526024830190612e75565b60043560c48201528160e48201528461010482015230610124820152610124815261105961014482611807565b604051809481926304e2f55f60e11b8352602060048401526024830190611e91565b038183875af190811561115b57611131956110ad6001936110fb958a91611139575b5060208082518301019101612f0c565b959050885260086020526040882090838060a01b0390848060a01b0316165f5260205260405f20828060a01b0386165f526020526110f060405f20918254612dcd565b815501918254612dcd565b9055600435907f00000000000000000000000000000000000000000000000000000000000000006001600160a01b031690613150565b600160035580f35b61115591503d808c833e61114d8183611807565b8101906132d0565b5f61109d565b6040513d88823e3d90fd5b61107b929196505f61117791611807565b5f959091611007565b6040513d5f823e3d90fd5b5f80fd5b630bcef0b960e21b5f526064602435013560045260245260445ffd5b634e487b7160e01b5f52601160045260245ffd5b6111e1915060603d6060116111e9575b6111d98183611807565b810190612fb7565b50505f610e3e565b503d6111cf565b915091506111319250611201612ed4565b60043561276c565b630bb206c760e31b5f5260045ffd5b3461118b57602061025e61122b3661175b565b91611885565b3461118b57602036600319011261118b576004356001600160401b03811161118b573660238201121561118b578060040135906001600160401b03821161118b57366024606084028301011161118b579061128a612329565b7f00000000000000000000000000000000000000000000000000000000000000006001600160a01b0316915f5b8281101561161b57606081028201906060602319833603011261118b576040516112e0816117a2565b6112ec60248401611747565b8082526040611308606460208501966044810135885201611747565b92019182526001600160a01b031690811561160c578051604051630b2339af60e21b81529490606090869060049082906001600160a01b03165afa948515611180575f956115d9575b50519360405194632c3c915760e01b8652600486015260a0856024818b5afa948515611180575f95611553575b506001600160a01b031682148061153d575b1561152e5760405163313ce56760e01b8152602081600481865afa9081156111805760129160ff915f91611510575b50160361150157602080850180516001600160a01b039081165f9081528084526040808220895184168352855290819020885181546001600160a01b0319908116918516918217835594516001830180548716918616919091179055828a0151600283018054871691861691909117905560608a015160038301805490961694169390931790935560808801516004938401555163313ce56760e01b8152969291879182905afa908115611180576001955f926114d1575b50858060a01b039051165f528460205260ff60405f20911660ff19825416179055838060a01b03905116905f52600260205260405f2090838060a01b03166bffffffffffffffffffffffff60a01b825416179055016112b7565b6114f391925060203d81116114fa575b6114eb8183611807565b81019061186c565b9089611477565b503d6114e1565b63390ca6a760e01b5f5260045ffd5b611528915060203d81116114fa576114eb8183611807565b8a6113bf565b638197c87b60e01b5f5260045ffd5b5060208401516001600160a01b03168214611390565b90945060a0813d82116115d1575b8161156e60a09383611807565b8101031261118b57608060405191611585836117d1565b61158e81611828565b835261159c60208201611828565b60208401526115ad60408201611828565b60408401526115be60608201611828565b606084015201516080820152938861137e565b3d9150611561565b6115fb91955060603d8111611605575b6115f38183611807565b81019061183c565b5090509388611351565b503d6115e9565b630959660360e11b5f5260045ffd5b005b3461118b57602036600319011261118b57611636611705565b61163e612329565b6001600160a01b03165f8181526006602052604090205460ff161561165f57005b5f908152600660205260409020805460ff19166001179055005b3461118b575f36600319011261118b576020604051662386f26fc100008152f35b3461118b57604036600319011261118b576001600160a01b036116bb611705565b165f52600760205260405f206024355f52602052602060018060a01b0360405f205416604051908152f35b3461118b575f36600319011261118b5760209060ff6009541615158152f35b600435906001600160a01b038216820361118b57565b602435906001600160a01b038216820361118b57565b604435906001600160a01b038216820361118b57565b35906001600160a01b038216820361118b57565b606090600319011261118b576004356001600160a01b038116810361118b57906024356001600160a01b038116810361118b579060443590565b3590811515820361118b57565b606081019081106001600160401b038211176117bd57604052565b634e487b7160e01b5f52604160045260245ffd5b60a081019081106001600160401b038211176117bd57604052565b604081019081106001600160401b038211176117bd57604052565b90601f801991011681019081106001600160401b038211176117bd57604052565b51906001600160a01b038216820361118b57565b9081606091031261118b5761185081611828565b91611869604061186260208501611828565b9301611828565b90565b9081602091031261118b575160ff8116810361118b5790565b611869928261189392611ed9565b6001600160a01b039091165f9081526001602052604090205460ff16906123f0565b6001600160a01b039081165f90815260208181526040808320848616845282529182902060020154915163501ad8ff60e11b815293949392909183916004918391165afa908115611180575f91611948575b5061191b90670de0b6b3a764000092612375565b049060018060a01b03165f52600160205260ff60405f20541660120160ff81116111ab57611869916123a6565b90506020813d60201161197a575b8161196360209383611807565b8101031261118b5751670de0b6b3a7640000611907565b3d9150611956565b919082039182116111ab57565b928261199a926118b5565b91670de0b6b3a764000003670de0b6b3a764000081116111ab57826119c56118939261186995612dda565b611982565b6001600160a01b039081165f8181526007602090815260408083208684529091528120549092169291908315611a01575b50505090565b909192506e5af43d82803e903d91602b57fd5bf37f0000000000000000000000000000000000000000000000000000000000000000763d602d80600a3d3981f3363d3d373d3d3d363d7300000062ffffff8260881c16175f5260781b17602052603760095ff06001600160a01b03811692908315611af45793833b1561118b5760405163189acdbd60e31b815260048101849052925f8460248183895af193841561118057604094611adf575b508252600760205282822090825260205220906bffffffffffffffffffffffff60a01b8254161790555f80806119fb565b611aec9193505f90611807565b5f915f611aae565b63b06ebf3d60e01b5f5260045ffd5b6001600160a01b039081165f908152602081815260408083209390941682529190915220600401546658d15e17627fff1981019081116111ab5790565b356001600160a01b038116810361118b5790565b903590607e198136030182121561118b570190565b903590609e198136030182121561118b570190565b90600b821015611b8b5752565b634e487b7160e01b5f52602160045260245ffd5b9035601e198236030181121561118b5701602081359101916001600160401b03821161118b57813603831361118b57565b908060209392818452848401375f828201840152601f01601f1916010190565b908135600b81101561118b5781611c0691611b7e565b6001600160a01b03611c1a60208401611747565b1660208201526060611c4e81611c47611c366040870187611b9f565b608060408801526080870191611bd0565b9401611795565b151591015290565b9035601e198236030181121561118b5701602081359101916001600160401b03821161118b578160051b3603831361118b57565b906004821015611b8b5752565b906020838281520160208260051b85010193835f915b848310611cbd5750505050505090565b909192939495601f198282030185528635605e198436030181121561118b578301803561017e198236030181121561118b578101606083528035606084015260208101356080840152604081013560a0840152606081013591600483101561118b5783604080611e00611de7611dd360209897611d418a9960c060019d0190611c8a565b8a8060a01b03611d5360808301611747565b1660e08801528a8060a01b03611d6b60a08301611747565b166101008801528a8060a01b03611d8460c08301611747565b166101208801528a8060a01b03611d9d60e08301611747565b166101408801526101008101356101608801526101208101356101808801526101408101356101a0880152610160810190611b9f565b6101806101c08801526101e0870191611bd0565b611df387870187611b9f565b9086830389880152611bd0565b930135910152980196950193019190611cad565b611869916001600160a01b03611e2983611747565b16815260208201356020820152611e83611e78611e5d611e4c6040860186611c56565b60a0604087015260a0860191611c97565b611e6a6060860186611c56565b908583036060870152611c97565b926080810190611b9f565b916080818503910152611bd0565b805180835260209291819084018484015e5f828201840152601f01601f1916010190565b611869939260609260018060a01b0316825260208201528160408201520190611e91565b6001600160a01b039081165f90815260208181526040808320938516835292905281902090519290611f0a846117d1565b80546001600160a01b039081168552600182015481166020860152600282015481166040808701919091526003830154821660608701908152600493840154608088015260a087209151632e3071cd60e11b81529384019190915291949060c090869060249082907f0000000000000000000000000000000000000000000000000000000000000000165afa948515611180575f95612278575b506080850190611fbe6001600160801b0383511642611982565b9283151580612262575b8061224f575b612055575b505050506001600160801b036060816040860151169401511692600181018091116111ab57620f42408401918285116111ab57620f423f9161201491612375565b9301908082116111ab5761202e6120339261186995612dcd565b612388565b6001600160a01b039091165f9081526001602052604090205460ff16906123a6565b51604051638c00bf6b60e01b8152916001600160a01b039091169061207e906004840190612e75565b6001600160801b0387511660a483015260208701936001600160801b0385511660c48401526001600160801b0360408901948186511660e48601528160608b01511661010486015251166101248401526020836101648160a08c01956001600160801b038751166101448301525afa928315611180575f93612219575b5061215e6001600160801b0393612158612122670de0b6b3a7640000948789511693612375565b612153671bc16d674ec800006121388380612375565b046729a2241af62c000061214c8483612375565b0492612dcd565b612dcd565b90612375565b04928261217661216d8661325e565b82845116612eb4565b1690528161218f6121868561325e565b828a5116612eb4565b168752511690816121a1575b80611fd3565b670de0b6b3a7640000916121b491612375565b046121c9816001600160801b03875116611982565b6001600160801b0383511691620f424083018093116111ab57600182018092116111ab5761220961220e9261202e6001600160801b039561216d94612375565b61325e565b1690525f808061219b565b92506020833d602011612247575b8161223460209383611807565b8101031261118b5791519161215e6120fb565b3d9150612227565b5080516001600160a01b03161515611fce565b506001600160801b036040880151161515611fc8565b90945060c0813d60c011612321575b8161229460c09383611807565b8101031261118b576040519060c082018281106001600160401b038211176117bd576123159160a0916040526122c981612e61565b84526122d760208201612e61565b60208501526122e860408201612e61565b60408501526122f960608201612e61565b606085015261230a60808201612e61565b608085015201612e61565b60a0820152935f611fa4565b3d9150612287565b6004546001600160a01b0316330361233d57565b63118cdaa760e01b5f523360045260245ffd5b9060ff8091169116039060ff82116111ab57565b60ff16604d81116111ab57600a0a90565b818102929181159184041417156111ab57565b8115612392570490565b634e487b7160e01b5f52601260045260245ffd5b9060ff811660128111156123d25750906123cc6123c7601261186994612350565b612364565b90612388565b601211156123ec57906121586123c7611869936012612350565b5090565b9060ff8116806012115f146124125750906123cc6123c7611869936012612350565b601210156123ec57906121586123c7601261186994612350565b6001600160401b0381116117bd57601f01601f191660200190565b81601f8201121561118b5780359061245e8261242c565b9261246c6040519485611807565b8284526020838301011161118b57815f926020809301838601378301015290565b91909160808184031261118b5760405190608082018281106001600160401b038211176117bd5760405281938135600b81101561118b5783526124d260208301611747565b60208401526040820135906001600160401b03821161118b57826124ff6060949261250a94869401612447565b604086015201611795565b910152565b9080601f8301121561118b578135916001600160401b0383116117bd578260051b91604051936125426020850186611807565b84526020808501938301019181831161118b5760208101935b83851061256a57505050505090565b84356001600160401b03811161118b5782016060818503601f19011261118b5760405191612597836117a2565b60208201356001600160401b03811161118b576020908301016101808187031261118b576040519061018082018281106001600160401b038211176117bd576040528035825260208101356020830152604081013560408301526060810135600481101561118b57606083015261261060808201611747565b608083015261262160a08201611747565b60a083015261263260c08201611747565b60c083015261264360e08201611747565b60e0830152610100810135610100830152610120810135610120830152610140810135610140830152610160810135906001600160401b03821161118b5761268d91889101612447565b61016082015283526040820135926001600160401b03841161118b576060836126bd886020809881980101612447565b858401520135604082015281520194019361255b565b919060a08382031261118b57604051906126ec826117d1565b81936126f781611747565b83526020810135602084015260408101356001600160401b03811161118b578261272291830161250f565b604084015260608101356001600160401b03811161118b578261274691830161250f565b60608401526080810135916001600160401b03831161118b5760809261250a9201612447565b9181016101808282031261118b5760028235101561118b5761279060208301611747565b9161279d60408201611747565b916127aa60608301611747565b6127b660808401611747565b9060a08401359060c0850135906127cf60e08701611747565b966127dd6101008801611747565b95610120880135926101408901356001600160401b03811161118b5782612805918b0161248d565b916101608a01356001600160401b03811161118b578d9a0190612827916126d3565b6001600160a01b039182165f818152602081815260408083209b86168084529b909152908190209051999c84169a91999184169892959093169290919061286d836117d1565b600160a01b6001900381541690818452600160a01b600190036001820154166020850152600160a01b600190036002820154166040850152600160a01b600190036003820154166060850152600401546080840152600160a01b600190037f0000000000000000000000000000000000000000000000000000000000000000169e8f6128f892613150565b8d604051602081019061290b8286612e75565b60a0815261291a60c082611807565b519020604051809281926349e2903160e11b835260048301528660248301525a92604491606094fa8015611180578f915f91612d55575b50906101445f936001600160801b036020604095015116908082108614612d4e57505b83516320b76e8160e01b81529485938492612992600485018a612e75565b8260a485015260c48401528860e4840152610120610104840152816101248401525af1801561118057612d2f575b508515918215612c92575b5050612c85577f00000000000000000000000000000000000000000000000000000000000000006001600160a01b031694612a07858789613332565b5f87815260026020908152604091829020549151630bc4ed8360e21b815298916001600160a01b03169089600481845afa8015611180578c995f91612c56575b50612b4b57509260609796959492612acb99612add935f968752600260205260018060a01b03604088205416956040519a612a818c6117d1565b8b5260208b015260408a015289890152608088015260405198899788968795631652a23360e21b87523060048801526024870152604486015260a0606486015260a4850190612f22565b838103600319016084850152906130f5565b03925af190811561118057612afe9183915f91612b2a575b50955b84613150565b808411612b0c575b50505050565b612b219303916001600160a01b031690613218565b5f808080612b06565b612b43915060603d6060116111e9576111d98183611807565b50505f612af5565b90506060919750600493506040969594965193848092630b2339af60e21b82525afa90811561118057612be3976040975f948594612c32575b50885197612b91896117d1565b8c8952602089015288880152606087015260808601528551968795869485936323f8ef1160e11b855230600486015260018060a01b031660248501526044840152608060648401526084830190612f22565b03925af190811561118057612afe9183915f91612c02575b5095612af8565b612c24915060403d604011612c2b575b612c1c8183611807565b810190612f0c565b505f612bfb565b503d612c12565b612c4c91945060603d606011611605576115f38183611807565b915050925f612b84565b612c78915060203d602011612c7e575b612c708183611807565b810190612ef4565b5f612a47565b503d612c66565b5050505050505050505050565b612d005f92918392612cb860405191638720316d60e01b60208401526024830190612e75565b8960c48201528160e4820152306101048201526101048152612cdc61012482611807565b6040519485809481936304e2f55f60e11b8352602060048401526024830190611e91565b03925af1801561118057612d15575b806129cb565b612d28903d805f833e61114d8183611807565b505f612d0f565b612d479060403d604011612c2b57612c1c8183611807565b90506129c0565b9050612974565b9150506060813d606011612dc5575b81612d7160609383611807565b8101031261118b578e6101445f936001600160801b036020604095612db587805192612d9c846117a2565b80518452612dab858201612e61565b8585015201612e61565b8782015294955050509350612951565b3d9150612d64565b919082018092116111ab57565b90670de0b6b3a7640000820291808304670de0b6b3a764000014901517156111ab5761186991612388565b8215612e5c576040516323b872dd60e01b60208201526001600160a01b039092166024830152306044830152606480830193909352918152612e5a91612e4c608483611807565b6001600160a01b0316613414565b565b505050565b51906001600160801b038216820361118b57565b80516001600160a01b03908116835260208083015182169084015260408083015182169084015260608083015190911690830152608090810151910152565b906001600160801b03809116911601906001600160801b0382116111ab57565b600260035414612ee5576002600355565b633ee5aeb560e01b5f5260045ffd5b9081602091031261118b5751801515810361118b5790565b919082604091031261118b576020825192015190565b60809060018060a01b0381511683526020810151602084015260018060a01b03604082015116604084015260018060a01b03606082015116606084015201519060a06080820152612f7760a082018351611b7e565b60208201516001600160a01b031660c08201526040820151608060e083015261010090606090612fac90610120850190611e91565b930151151591015290565b9081606091031261118b578051916040602083015192015190565b9080602083519182815201916020808360051b8301019401925f915b838310612ffd57505050505090565b9091929394602080600192601f198582030186528851906040806130e06130d0610160865160608752805160608801528881015160808801528481015160a0880152613051606082015160c0890190611c8a565b8a8060a01b0360808201511660e08801528a8060a01b0360a0820151166101008801528a8060a01b0360c0820151166101208801528a8060a01b0360e082015116610140880152610100810151828801526101208101516101808801526101408101516101a088015201516101806101c08701526101e0860190611e91565b8686015185820388870152611e91565b93015191015297019301930191939290612fee565b6118699160018060a01b03825116815260208201516020820152608061313f61312d604085015160a0604086015260a0850190612fd2565b60608501518482036060860152612fd2565b920151906080818403910152611e91565b60405163095ea7b360e01b60208083019182526001600160a01b038581166024850152604480850197909752958352939491939290911691905f90613196606486611807565b84519082855af15f513d826131fc575b5050156131b257505050565b60405163095ea7b360e01b60208201526001600160a01b0390931660248401525f6044808501919091528352612e5a926131f7906131f1606482611807565b82613414565b613414565b9091506132105750803b15155b5f806131a6565b600114613209565b9190918115612e5c5760405163a9059cbb60e01b60208201526001600160a01b03939093166024840152604480840192909252908252612e5a9190612e4c606483611807565b60405161326c604082611807565b60148152731b585e081d5a5b9d0c4c8e08195e18d95959195960621b60208201526001600160801b0382116132a857506001600160801b031690565b60405162461bcd60e51b8152602060048201529081906132cc906024830190611e91565b0390fd5b60208183031261118b578051906001600160401b03821161118b570181601f8201121561118b578051906133038261242c565b926133116040519485611807565b8284526020838301011161118b57815f9260208093018386015e8301015290565b60405163095ea7b360e01b602082019081526001600160a01b03909316602482015260448101939093525f9283929083906133708160648101610a75565b51925af13d1561340d573d6133848161242c565b906133926040519283611807565b81523d5f602083013e5b816133de575b50156133aa57565b60405162461bcd60e51b815260206004820152600c60248201526b5361666520417070726f766560a01b6044820152606490fd5b80518015925082156133f3575b50505f6133a2565b6134069250602080918301019101612ef4565b5f806133eb565b606061339c565b905f602091828151910182855af115611180575f513d61346357506001600160a01b0381163b155b6134435750565b635274afe760e01b5f9081526001600160a01b0391909116600452602490fd5b6001141561343c56fea26469706673582212205d540fa008016623c9ed89e425c1fda0415ded7c331cdc477f8dad722a724d4b64736f6c634300081e003360c03461008657601f61051f38819003918201601f19168301916001600160401b0383118484101761008a57808492604094855283398101031261008657610052602061004b8361009e565b920161009e565b9060805260a05260405161046c90816100b38239608051818181606801526101e1015260a05181818160b0015261022f0152f35b5f80fd5b634e487b7160e01b5f52604160045260245ffd5b51906001600160a01b03821682036100865756fe6080806040526004361015610012575f80fd5b5f3560e01c90816309c5eabe14610190575080634f8632ba14610169578063c4d66de8146100df578063d8fbc8331461009b5763dd72047f14610053575f80fd5b34610097575f366003190112610097576040517f00000000000000000000000000000000000000000000000000000000000000006001600160a01b03168152602090f35b5f80fd5b34610097575f366003190112610097576040517f00000000000000000000000000000000000000000000000000000000000000006001600160a01b03168152602090f35b34610097576020366003190112610097576004356001600160a01b03811690819003610097575f546001600160a01b038116610124576001600160a01b031916175f55005b60405162461bcd60e51b815260206004820152601e60248201527f5573657250726f78793a20416c726561647920496e697469616c697a656400006044820152606490fd5b34610097575f366003190112610097575f546040516001600160a01b039091168152602090f35b346100975760203660031901126100975760043567ffffffffffffffff811161009757366023820112156100975780600401359167ffffffffffffffff8311610097573660248484010111610097577f0000000000000000000000000000000000000000000000000000000000000000906001600160a01b03821633036102cd575b505060245f929182849360405193849301833781018381520390827f00000000000000000000000000000000000000000000000000000000000000005af16102586103f7565b901561028f576040602091815192839181835280519182918282860152018484015e5f828201840152601f01601f19168101030190f35b60405162461bcd60e51b8152602060048201526016602482015275155cd95c941c9bde1e4e8810d85b1b0811985a5b195960521b6044820152606490fd5b5f54336001600160a01b039091160361037f57505f80916040518260208201916307a00b1f60e01b8352600481526103066024826103c1565b51925af1506103136103f7565b60208180518101031261009757602001518015908115036100975761033a5760245f610212565b60405162461bcd60e51b815260206004820152601f60248201527f5573657250726f78793a204e6f7420696e205265636f76657279204d6f6465006044820152606490fd5b62461bcd60e51b815260206004820152601760248201527f5573657250726f78793a20556e617574686f72697365640000000000000000006044820152606490fd5b90601f8019910116810190811067ffffffffffffffff8211176103e357604052565b634e487b7160e01b5f52604160045260245ffd5b3d15610431573d9067ffffffffffffffff82116103e35760405191610426601f8201601f1916602001846103c1565b82523d5f602084013e565b60609056fea2646970667358221220b20ea495d58933109871718dd658e89ac4fc77c126cb9a304188f0c548f4323264736f6c634300081e0033","linkReferences":{}},"methodIdentifiers":{"LIQUIDATION_BUFFER()":"83da2a3c","SLIPPAGE_BUFFER()":"24b31145","acceptOwnership()":"79ba5097","addManager(address)":"2d06177a","addSupportedCollateralTokens((address,bytes32,address)[])":"2ec23d66","calcLeverageFlashLoan(uint256,address,address,uint256)":"5adb101c","calcUnleverageFlashLoan(address,address,uint256)":"313b120e","getCollateralValueInLoanToken(address,address,uint256)":"3ba7a314","getLiqLtv(address,address)":"e43478ef","getMaxLtv(address,address)":"62fd6add","getOrCreateUserProxy(address,uint256)":"5d1593e7","getSharesValueInLoanToken(address,address,uint256)":"e30e40cb","getUserCoreLeveragePosition(address,uint256,address,address)":"94ea07bb","getUserProxy(address,uint256)":"14ee89c4","i_morpho()":"96d066f5","i_pendleRouter()":"dd2a7a17","i_userProxyImplementation()":"d5c96c17","isManager(address)":"f3ae2415","isSupportedCollateralToken(address,address)":"dc101605","leverage(address,(uint256,address,address,uint256,(uint256,uint256,uint256,uint256,uint256),address,address,uint256,(uint8,address,bytes,bool),(address,uint256,((uint256,uint256,uint256,uint8,address,address,address,address,uint256,uint256,uint256,bytes),bytes,uint256)[],((uint256,uint256,uint256,uint8,address,address,address,address,uint256,uint256,uint256,bytes),bytes,uint256)[],bytes)))":"70f5585f","onMorphoFlashLoan(uint256,bytes)":"31f57072","owner()":"8da5cb5b","pendingOwner()":"e30c3978","recoveryMode()":"07a00b1f","renounceOwnership()":"715018a6","s_userProxies(address,uint256)":"94d49ab7","setRecoveryMode(bool)":"92905bf7","transferOwnership(address)":"f2fde38b","unleverage(address,(uint256,address,address,uint256,uint256,address,address,uint256,(uint8,address,bytes,bool),(address,uint256,((uint256,uint256,uint256,uint8,address,address,address,address,uint256,uint256,uint256,bytes),bytes,uint256)[],((uint256,uint256,uint256,uint8,address,address,address,address,uint256,uint256,uint256,bytes),bytes,uint256)[],bytes)))":"7130fa49"},"id":76}