{"abi":[{"type":"constructor","inputs":[{"name":"morphoAddress","type":"address","internalType":"address"},{"name":"pendleRouter","type":"address","internalType":"address"},{"name":"liquidationBuffer","type":"uint256","internalType":"uint256"},{"name":"slippageBuffer","type":"uint256","internalType":"uint256"}],"stateMutability":"nonpayable"},{"type":"function","name":"acceptOwnership","inputs":[],"outputs":[],"stateMutability":"nonpayable"},{"type":"function","name":"addSupportedCollateralTokens","inputs":[{"name":"tokensConfig","type":"tuple[]","internalType":"struct CollateralTokenConfig[]","components":[{"name":"collateralToken","type":"address","internalType":"address"},{"name":"morphoMarketId","type":"bytes32","internalType":"bytes32"},{"name":"pendleMarket","type":"address","internalType":"address"}]}],"outputs":[],"stateMutability":"nonpayable"},{"type":"function","name":"calcLeverageFlashLoan","inputs":[{"name":"desiredLtv","type":"uint256","internalType":"uint256"},{"name":"collateralToken","type":"address","internalType":"address"},{"name":"loanToken","type":"address","internalType":"address"},{"name":"amountCollateral","type":"uint256","internalType":"uint256"}],"outputs":[{"name":"","type":"uint256","internalType":"uint256"}],"stateMutability":"view"},{"type":"function","name":"calcUnleverageFlashLoan","inputs":[{"name":"collateralToken","type":"address","internalType":"address"},{"name":"loanToken","type":"address","internalType":"address"},{"name":"sharesToBurn","type":"uint256","internalType":"uint256"}],"outputs":[{"name":"","type":"uint256","internalType":"uint256"}],"stateMutability":"view"},{"type":"function","name":"getCollateralValueInLoanToken","inputs":[{"name":"collateralToken","type":"address","internalType":"address"},{"name":"loanToken","type":"address","internalType":"address"},{"name":"amountCollateral","type":"uint256","internalType":"uint256"}],"outputs":[{"name":"","type":"uint256","internalType":"uint256"}],"stateMutability":"view"},{"type":"function","name":"getLiqLtv","inputs":[{"name":"collateralToken","type":"address","internalType":"address"},{"name":"loanToken","type":"address","internalType":"address"}],"outputs":[{"name":"","type":"uint256","internalType":"uint256"}],"stateMutability":"view"},{"type":"function","name":"getMaxLtv","inputs":[{"name":"collateralToken","type":"address","internalType":"address"},{"name":"loanToken","type":"address","internalType":"address"}],"outputs":[{"name":"","type":"uint256","internalType":"uint256"}],"stateMutability":"view"},{"type":"function","name":"getSharesValueInLoanToken","inputs":[{"name":"collateralToken","type":"address","internalType":"address"},{"name":"loanToken","type":"address","internalType":"address"},{"name":"sharesBorrowed","type":"uint256","internalType":"uint256"}],"outputs":[{"name":"","type":"uint256","internalType":"uint256"}],"stateMutability":"view"},{"type":"function","name":"getUserCoreLeveragePosition","inputs":[{"name":"user","type":"address","internalType":"address"},{"name":"desiredLtv","type":"uint256","internalType":"uint256"},{"name":"collateralToken","type":"address","internalType":"address"},{"name":"loanToken","type":"address","internalType":"address"}],"outputs":[{"name":"","type":"tuple","internalType":"struct CoreLeveragePosition","components":[{"name":"amountCollateral","type":"uint256","internalType":"uint256"},{"name":"sharesBorrowed","type":"uint256","internalType":"uint256"}]}],"stateMutability":"view"},{"type":"function","name":"getUserProxy","inputs":[{"name":"user","type":"address","internalType":"address"},{"name":"desiredLtv","type":"uint256","internalType":"uint256"}],"outputs":[{"name":"","type":"address","internalType":"address"}],"stateMutability":"view"},{"type":"function","name":"i_liquidationBuffer","inputs":[],"outputs":[{"name":"","type":"uint256","internalType":"uint256"}],"stateMutability":"view"},{"type":"function","name":"i_morpho","inputs":[],"outputs":[{"name":"","type":"address","internalType":"contract IMorpho"}],"stateMutability":"view"},{"type":"function","name":"i_pendleRouter","inputs":[],"outputs":[{"name":"","type":"address","internalType":"contract IPAllActionV3"}],"stateMutability":"view"},{"type":"function","name":"i_slippageBuffer","inputs":[],"outputs":[{"name":"","type":"uint256","internalType":"uint256"}],"stateMutability":"view"},{"type":"function","name":"i_userProxyImplementation","inputs":[],"outputs":[{"name":"","type":"address","internalType":"address"}],"stateMutability":"view"},{"type":"function","name":"leverage","inputs":[{"name":"onBehalfOf","type":"address","internalType":"address"},{"name":"params","type":"tuple","internalType":"struct LeverageParams","components":[{"name":"desiredLtv","type":"uint256","internalType":"uint256"},{"name":"collateralToken","type":"address","internalType":"address"},{"name":"loanToken","type":"address","internalType":"address"},{"name":"amountCollateral","type":"uint256","internalType":"uint256"},{"name":"approxParams","type":"tuple","internalType":"struct ApproxParams","components":[{"name":"guessMin","type":"uint256","internalType":"uint256"},{"name":"guessMax","type":"uint256","internalType":"uint256"},{"name":"guessOffchain","type":"uint256","internalType":"uint256"},{"name":"maxIteration","type":"uint256","internalType":"uint256"},{"name":"eps","type":"uint256","internalType":"uint256"}]},{"name":"pendleSwap","type":"address","internalType":"address"},{"name":"tokenMintSy","type":"address","internalType":"address"},{"name":"swapData","type":"tuple","internalType":"struct SwapData","components":[{"name":"swapType","type":"uint8","internalType":"enum SwapType"},{"name":"extRouter","type":"address","internalType":"address"},{"name":"extCalldata","type":"bytes","internalType":"bytes"},{"name":"needScale","type":"bool","internalType":"bool"}]},{"name":"limitOrderData","type":"tuple","internalType":"struct LimitOrderData","components":[{"name":"limitRouter","type":"address","internalType":"address"},{"name":"epsSkipMarket","type":"uint256","internalType":"uint256"},{"name":"normalFills","type":"tuple[]","internalType":"struct FillOrderParams[]","components":[{"name":"order","type":"tuple","internalType":"struct Order","components":[{"name":"salt","type":"uint256","internalType":"uint256"},{"name":"expiry","type":"uint256","internalType":"uint256"},{"name":"nonce","type":"uint256","internalType":"uint256"},{"name":"orderType","type":"uint8","internalType":"enum IPLimitOrderType.OrderType"},{"name":"token","type":"address","internalType":"address"},{"name":"YT","type":"address","internalType":"address"},{"name":"maker","type":"address","internalType":"address"},{"name":"receiver","type":"address","internalType":"address"},{"name":"makingAmount","type":"uint256","internalType":"uint256"},{"name":"lnImpliedRate","type":"uint256","internalType":"uint256"},{"name":"failSafeRate","type":"uint256","internalType":"uint256"},{"name":"permit","type":"bytes","internalType":"bytes"}]},{"name":"signature","type":"bytes","internalType":"bytes"},{"name":"makingAmount","type":"uint256","internalType":"uint256"}]},{"name":"flashFills","type":"tuple[]","internalType":"struct FillOrderParams[]","components":[{"name":"order","type":"tuple","internalType":"struct Order","components":[{"name":"salt","type":"uint256","internalType":"uint256"},{"name":"expiry","type":"uint256","internalType":"uint256"},{"name":"nonce","type":"uint256","internalType":"uint256"},{"name":"orderType","type":"uint8","internalType":"enum IPLimitOrderType.OrderType"},{"name":"token","type":"address","internalType":"address"},{"name":"YT","type":"address","internalType":"address"},{"name":"maker","type":"address","internalType":"address"},{"name":"receiver","type":"address","internalType":"address"},{"name":"makingAmount","type":"uint256","internalType":"uint256"},{"name":"lnImpliedRate","type":"uint256","internalType":"uint256"},{"name":"failSafeRate","type":"uint256","internalType":"uint256"},{"name":"permit","type":"bytes","internalType":"bytes"}]},{"name":"signature","type":"bytes","internalType":"bytes"},{"name":"makingAmount","type":"uint256","internalType":"uint256"}]},{"name":"optData","type":"bytes","internalType":"bytes"}]}]}],"outputs":[],"stateMutability":"nonpayable"},{"type":"function","name":"onMorphoFlashLoan","inputs":[{"name":"amountLoan","type":"uint256","internalType":"uint256"},{"name":"data","type":"bytes","internalType":"bytes"}],"outputs":[],"stateMutability":"nonpayable"},{"type":"function","name":"owner","inputs":[],"outputs":[{"name":"","type":"address","internalType":"address"}],"stateMutability":"view"},{"type":"function","name":"pendingOwner","inputs":[],"outputs":[{"name":"","type":"address","internalType":"address"}],"stateMutability":"view"},{"type":"function","name":"renounceOwnership","inputs":[],"outputs":[],"stateMutability":"pure"},{"type":"function","name":"s_userProxies","inputs":[{"name":"","type":"address","internalType":"address"},{"name":"","type":"uint256","internalType":"uint256"}],"outputs":[{"name":"","type":"address","internalType":"address"}],"stateMutability":"view"},{"type":"function","name":"setManager","inputs":[{"name":"manager","type":"address","internalType":"address"},{"name":"value","type":"bool","internalType":"bool"}],"outputs":[],"stateMutability":"nonpayable"},{"type":"function","name":"transferOwnership","inputs":[{"name":"newOwner","type":"address","internalType":"address"}],"outputs":[],"stateMutability":"nonpayable"},{"type":"function","name":"unleverage","inputs":[{"name":"onBehalfOf","type":"address","internalType":"address"},{"name":"params","type":"tuple","internalType":"struct UnleverageParams","components":[{"name":"desiredLtv","type":"uint256","internalType":"uint256"},{"name":"collateralToken","type":"address","internalType":"address"},{"name":"loanToken","type":"address","internalType":"address"},{"name":"sharesToBurn","type":"uint256","internalType":"uint256"},{"name":"amountCollateralToWithdraw","type":"uint256","internalType":"uint256"},{"name":"pendleSwap","type":"address","internalType":"address"},{"name":"tokenRedeemSy","type":"address","internalType":"address"},{"name":"swapData","type":"tuple","internalType":"struct SwapData","components":[{"name":"swapType","type":"uint8","internalType":"enum SwapType"},{"name":"extRouter","type":"address","internalType":"address"},{"name":"extCalldata","type":"bytes","internalType":"bytes"},{"name":"needScale","type":"bool","internalType":"bool"}]},{"name":"limitOrderData","type":"tuple","internalType":"struct LimitOrderData","components":[{"name":"limitRouter","type":"address","internalType":"address"},{"name":"epsSkipMarket","type":"uint256","internalType":"uint256"},{"name":"normalFills","type":"tuple[]","internalType":"struct FillOrderParams[]","components":[{"name":"order","type":"tuple","internalType":"struct Order","components":[{"name":"salt","type":"uint256","internalType":"uint256"},{"name":"expiry","type":"uint256","internalType":"uint256"},{"name":"nonce","type":"uint256","internalType":"uint256"},{"name":"orderType","type":"uint8","internalType":"enum IPLimitOrderType.OrderType"},{"name":"token","type":"address","internalType":"address"},{"name":"YT","type":"address","internalType":"address"},{"name":"maker","type":"address","internalType":"address"},{"name":"receiver","type":"address","internalType":"address"},{"name":"makingAmount","type":"uint256","internalType":"uint256"},{"name":"lnImpliedRate","type":"uint256","internalType":"uint256"},{"name":"failSafeRate","type":"uint256","internalType":"uint256"},{"name":"permit","type":"bytes","internalType":"bytes"}]},{"name":"signature","type":"bytes","internalType":"bytes"},{"name":"makingAmount","type":"uint256","internalType":"uint256"}]},{"name":"flashFills","type":"tuple[]","internalType":"struct FillOrderParams[]","components":[{"name":"order","type":"tuple","internalType":"struct Order","components":[{"name":"salt","type":"uint256","internalType":"uint256"},{"name":"expiry","type":"uint256","internalType":"uint256"},{"name":"nonce","type":"uint256","internalType":"uint256"},{"name":"orderType","type":"uint8","internalType":"enum IPLimitOrderType.OrderType"},{"name":"token","type":"address","internalType":"address"},{"name":"YT","type":"address","internalType":"address"},{"name":"maker","type":"address","internalType":"address"},{"name":"receiver","type":"address","internalType":"address"},{"name":"makingAmount","type":"uint256","internalType":"uint256"},{"name":"lnImpliedRate","type":"uint256","internalType":"uint256"},{"name":"failSafeRate","type":"uint256","internalType":"uint256"},{"name":"permit","type":"bytes","internalType":"bytes"}]},{"name":"signature","type":"bytes","internalType":"bytes"},{"name":"makingAmount","type":"uint256","internalType":"uint256"}]},{"name":"optData","type":"bytes","internalType":"bytes"}]}]}],"outputs":[],"stateMutability":"nonpayable"},{"type":"event","name":"OwnershipTransferStarted","inputs":[{"name":"previousOwner","type":"address","indexed":true,"internalType":"address"},{"name":"newOwner","type":"address","indexed":true,"internalType":"address"}],"anonymous":false},{"type":"event","name":"OwnershipTransferred","inputs":[{"name":"previousOwner","type":"address","indexed":true,"internalType":"address"},{"name":"newOwner","type":"address","indexed":true,"internalType":"address"}],"anonymous":false},{"type":"error","name":"FailedDeployment","inputs":[]},{"type":"error","name":"FlashLeverageCore__AmountCannotBeZero","inputs":[]},{"type":"error","name":"FlashLeverageCore__EffectiveLtvTooHigh","inputs":[]},{"type":"error","name":"FlashLeverageCore__ExceedsMaxLTV","inputs":[]},{"type":"error","name":"FlashLeverageCore__InsufficientCollateralDeposited","inputs":[]},{"type":"error","name":"FlashLeverageCore__InsufficientSharesBorrowed","inputs":[]},{"type":"error","name":"FlashLeverageCore__InvalidCollateralToken","inputs":[]},{"type":"error","name":"FlashLeverageCore__InvalidCollateralTokenDecimals","inputs":[]},{"type":"error","name":"FlashLeverageCore__NotAManager","inputs":[]},{"type":"error","name":"FlashLeverageCore__RenounceOwnershipDisabled","inputs":[]},{"type":"error","name":"FlashLeverageCore__UnsupportedCollateralToken","inputs":[]},{"type":"error","name":"FlashLeverageCore__UntrustedLender","inputs":[]},{"type":"error","name":"InsufficientBalance","inputs":[{"name":"balance","type":"uint256","internalType":"uint256"},{"name":"needed","type":"uint256","internalType":"uint256"}]},{"type":"error","name":"OwnableInvalidOwner","inputs":[{"name":"owner","type":"address","internalType":"address"}]},{"type":"error","name":"OwnableUnauthorizedAccount","inputs":[{"name":"account","type":"address","internalType":"address"}]},{"type":"error","name":"ReentrancyGuardReentrantCall","inputs":[]},{"type":"error","name":"SafeERC20FailedOperation","inputs":[{"name":"token","type":"address","internalType":"address"}]}],"bytecode":{"object":"0x610120604052346100ee5761001e610015610201565b9291909161029a565b6100266100f3565b615adb61060482396080518181816108aa0152818161115e015281816114830152818161226b0152818161282f015281816129d50152818161343b0152818161375501528181614dab01528181614de001528181614fd7015281816155eb0152818161561b0152615757015260a051818181610af9015281816143f4015281816144240152818161468c01526146bc015260c051818181610c720152611764015260e0518181816109ba01526147ea015261010051818181610a1301526148800152615adb90f35b6100f9565b60405190565b5f80fd5b601f801991011690565b634e487b7160e01b5f52604160045260245ffd5b90610125906100fd565b810190811060018060401b0382111761013d57604052565b610107565b9061015561014e6100f3565b928361011b565b565b5f80fd5b60018060a01b031690565b61016f9061015b565b90565b61017b81610166565b0361018257565b5f80fd5b9050519061019382610172565b565b90565b6101a181610195565b036101a857565b5f80fd5b905051906101b982610198565b565b6080818303126101fc576101d1825f8301610186565b926101f96101e28460208501610186565b936101f081604086016101ac565b936060016101ac565b90565b610157565b61021f6167258038038061021481610142565b9283398101906101bb565b90919293565b90565b61023c6102376102419261015b565b610225565b61015b565b90565b61024d90610228565b90565b61025990610244565b90565b61026590610166565b9052565b919061027c905f6020850194019061025c565b565b6102866100f3565b3d5f823e3d90fd5b61029790610244565b90565b906102a8913391909161030c565b60c05260e0526102b730610250565b6102bf6100f3565b90610646820182811060018060401b038211176103075782916102e9916106466160df8539610269565b03905ff08015610302576102fc9061028e565b61010052565b61027e565b610107565b906103179291610344565b565b90565b61033061032b61033592610319565b610225565b61015b565b90565b6103419061031c565b90565b9161034e916103a0565b8061036961036361035e5f610338565b610166565b91610166565b14610379576103779061051b565b565b61039c6103855f610338565b5f918291631e4fbdf760e01b835260048301610269565b0390fd5b906103aa91610432565b565b90565b6103c36103be6103c8926103ac565b610225565b610195565b90565b6103d560016103af565b90565b5f1b90565b906103e95f19916103d8565b9181191691161790565b61040761040261040c92610195565b610225565b610195565b90565b90565b9061042761042261042e926103f3565b61040f565b82546103dd565b9055565b9061043c91610468565b61044e6104476103cb565b6003610412565b565b61045990610228565b90565b61046590610450565b90565b61047461047992610496565b61045c565b60a052565b61048790610228565b90565b6104939061047e565b90565b61049f9061048a565b608052565b1b90565b919060086104c89102916104c260018060a01b03846104a4565b926104a4565b9181191691161790565b6104db90610244565b90565b90565b91906104f76104f26104ff936104d2565b6104de565b9083546104a8565b9055565b5f90565b61051991610513610503565b916104e1565b565b61052f9061052a5f6005610507565b6105a2565b565b5f1c90565b60018060a01b031690565b61054d61055291610531565b610536565b90565b61055f9054610541565b90565b9061057360018060a01b03916103d8565b9181191691161790565b9061059261058d610599926104d2565b6104de565b8254610562565b9055565b5f0190565b6105ac6004610555565b6105b782600461057d565b906105eb6105e57f8be0079c531659141344cd1fd0a4f28419497f9722a3daafe3b4186f6b6457e0936104d2565b916104d2565b916105f46100f3565b806105fe8161059d565b0390a356fe60a06040526004361015610013575b610cc9565b61001d5f3561019c565b806314ee89c4146101975780632ec23d6614610192578063313b120e1461018d57806331f57072146101885780633ba7a314146101835780635adb101c1461017e57806362fd6add14610179578063715018a61461017457806379ba50971461016f578063867dd3fd1461016a5780638da5cb5b1461016557806394d49ab71461016057806394ea07bb1461015b57806396d066f514610156578063a5e90eee14610151578063bf43612b1461014c578063d5c96c1714610147578063da6248b614610142578063dd2a7a171461013d578063e30c397814610138578063e30e40cb14610133578063e43478ef1461012e578063f2fde38b146101295763fb56d3bb0361000e57610c94565b610c3d565b610be9565b610bb3565b610b7e565b610b49565b610ac3565b610a35565b6109dc565b610984565b6108fa565b61086f565b6107ad565b6106a3565b61066f565b6105df565b6105c5565b610580565b61051a565b61049e565b61046a565b6103af565b61031f565b610263565b60e01c90565b60405190565b5f80fd5b5f80fd5b5f80fd5b60018060a01b031690565b6101c8906101b4565b90565b6101d4816101bf565b036101db57565b5f80fd5b905035906101ec826101cb565b565b90565b6101fa816101ee565b0361020157565b5f80fd5b90503590610212826101f1565b565b919060408382031261023c5780610230610239925f86016101df565b93602001610205565b90565b6101ac565b61024a906101bf565b9052565b9190610261905f60208501940190610241565b565b346102945761029061027f610279366004610214565b90610cf7565b6102876101a2565b9182918261024e565b0390f35b6101a8565b5f80fd5b5f80fd5b5f80fd5b909182601f830112156102df5781359167ffffffffffffffff83116102da5760200192606083028401116102d557565b6102a1565b61029d565b610299565b90602082820312610315575f82013567ffffffffffffffff81116103105761030c92016102a5565b9091565b6101b0565b6101ac565b5f0190565b3461034e576103386103323660046102e4565b9061135e565b6103406101a2565b8061034a8161031a565b0390f35b6101a8565b90916060828403126103885761038561036e845f85016101df565b9361037c81602086016101df565b93604001610205565b90565b6101ac565b610396906101ee565b9052565b91906103ad905f6020850194019061038d565b565b346103e0576103dc6103cb6103c5366004610353565b916113a7565b6103d36101a2565b9182918261039a565b0390f35b6101a8565b909182601f8301121561041f5781359167ffffffffffffffff831161041a57602001926001830284011161041557565b6102a1565b61029d565b610299565b9190916040818403126104655761043d835f8301610205565b92602082013567ffffffffffffffff81116104605761045c92016103e5565b9091565b6101b0565b6101ac565b346104995761048361047d366004610424565b91611473565b61048b6101a2565b806104958161031a565b0390f35b6101a8565b346104cf576104cb6104ba6104b4366004610353565b916115a3565b6104c26101a2565b9182918261039a565b0390f35b6101a8565b608081830312610515576104ea825f8301610205565b926105126104fb84602085016101df565b9361050981604086016101df565b93606001610205565b90565b6101ac565b3461054e5761054a6105396105303660046104d4565b929190916116e9565b6105416101a2565b9182918261039a565b0390f35b6101a8565b919060408382031261057b578061056f610578925f86016101df565b936020016101df565b90565b6101ac565b346105b1576105ad61059c610596366004610553565b9061174c565b6105a46101a2565b9182918261039a565b0390f35b6101a8565b5f9103126105c057565b6101ac565b346105da576105d53660046105b6565b61178c565b6101a8565b3461060d576105ef3660046105b6565b6105f76117a8565b6105ff6101a2565b806106098161031a565b0390f35b6101a8565b5f80fd5b90816101a09103126106255790565b610612565b91909160408184031261066a57610643835f83016101df565b92602082013567ffffffffffffffff8111610665576106629201610616565b90565b6101b0565b6101ac565b3461069e5761068861068236600461062a565b90612310565b6106906101a2565b8061069a8161031a565b0390f35b6101a8565b346106d3576106b33660046105b6565b6106cf6106be61231c565b6106c66101a2565b9182918261024e565b0390f35b6101a8565b90565b6106ef6106ea6106f4926101b4565b6106d8565b6101b4565b90565b610700906106db565b90565b61070c906106f7565b90565b9061071990610703565b5f5260205260405f2090565b61073961073461073e926101ee565b6106d8565b6101ee565b90565b9061074b90610725565b5f5260205260405f2090565b1c90565b60018060a01b031690565b61077690600861077b9302610757565b61075b565b90565b906107899154610766565b90565b6107a56107aa926107a06007935f9461070f565b610741565b61077e565b90565b346107de576107da6107c96107c3366004610214565b9061078c565b6107d16101a2565b9182918261024e565b0390f35b6101a8565b608081830312610824576107f9825f83016101df565b9261082161080a8460208501610205565b9361081881604086016101df565b936060016101df565b90565b6101ac565b610832906101ee565b9052565b906020806108589361084e5f8201515f860190610829565b0151910190610829565b565b919061086d905f60408501940190610836565b565b346108a35761089f61088e6108853660046107e3565b9291909161242d565b6108966101a2565b9182918261085a565b0390f35b6101a8565b7f000000000000000000000000000000000000000000000000000000000000000090565b6108d5906106f7565b90565b6108e1906108cc565b9052565b91906108f8905f602085019401906108d8565b565b3461092a5761090a3660046105b6565b6109266109156108a8565b61091d6101a2565b918291826108e5565b0390f35b6101a8565b151590565b61093d8161092f565b0361094457565b5f80fd5b9050359061095582610934565b565b919060408382031261097f578061097361097c925f86016101df565b93602001610948565b90565b6101ac565b346109b35761099d610997366004610957565b906124db565b6109a56101a2565b806109af8161031a565b0390f35b6101a8565b7f000000000000000000000000000000000000000000000000000000000000000090565b34610a0c576109ec3660046105b6565b610a086109f76109b8565b6109ff6101a2565b9182918261039a565b0390f35b6101a8565b7f000000000000000000000000000000000000000000000000000000000000000090565b34610a6557610a453660046105b6565b610a61610a50610a11565b610a586101a2565b9182918261024e565b0390f35b6101a8565b9081610120910312610a795790565b610612565b919091604081840312610abe57610a97835f83016101df565b92602082013567ffffffffffffffff8111610ab957610ab69201610a6a565b90565b6101b0565b6101ac565b34610af257610adc610ad6366004610a7e565b906128d4565b610ae46101a2565b80610aee8161031a565b0390f35b6101a8565b7f000000000000000000000000000000000000000000000000000000000000000090565b610b24906106f7565b90565b610b3090610b1b565b9052565b9190610b47905f60208501940190610b27565b565b34610b7957610b593660046105b6565b610b75610b64610af7565b610b6c6101a2565b91829182610b34565b0390f35b6101a8565b34610bae57610b8e3660046105b6565b610baa610b996128e0565b610ba16101a2565b9182918261024e565b0390f35b6101a8565b34610be457610be0610bcf610bc9366004610353565b9161299e565b610bd76101a2565b9182918261039a565b0390f35b6101a8565b34610c1a57610c16610c05610bff366004610553565b90612a26565b610c0d6101a2565b9182918261039a565b0390f35b6101a8565b90602082820312610c3857610c35915f016101df565b90565b6101ac565b34610c6b57610c55610c50366004610c1f565b612b00565b610c5d6101a2565b80610c678161031a565b0390f35b6101a8565b7f000000000000000000000000000000000000000000000000000000000000000090565b34610cc457610ca43660046105b6565b610cc0610caf610c70565b610cb76101a2565b9182918261039a565b0390f35b6101a8565b5f80fd5b5f90565b5f1c90565b610ce2610ce791610cd1565b61075b565b90565b610cf49054610cd6565b90565b610d1c91610d12610d1792610d0a610ccd565b50600761070f565b610741565b610cea565b90565b90610d3191610d2c612b0b565b6110aa565b565b5f90565b6001610d4391016101ee565b90565b5090565b634e487b7160e01b5f52603260045260245ffd5b9190811015610d6e576060020190565b610d4a565b5f80fd5b601f801991011690565b634e487b7160e01b5f52604160045260245ffd5b90610d9f90610d77565b810190811067ffffffffffffffff821117610db957604052565b610d81565b90610dd1610dca6101a2565b9283610d95565b565b5f80fd5b90565b610de381610dd7565b03610dea57565b5f80fd5b90503590610dfb82610dda565b565b9190606083820312610e4957610e4290610e176060610dbe565b93610e24825f83016101df565b5f860152610e358260208301610dee565b60208601526040016101df565b6040830152565b610d73565b610e59903690610dfd565b90565b610e6690516101bf565b90565b610e72906106db565b90565b610e7e90610e69565b90565b610e8a906106f7565b90565b5f80fd5b60e01b90565b90505190610ea4826101cb565b565b9091606082840312610edb57610ed8610ec1845f8501610e97565b93610ecf8160208601610e97565b93604001610e97565b90565b6101ac565b610ee86101a2565b3d5f823e3d90fd5b610efa9051610dd7565b90565b610f0690610dd7565b90565b90505190610f16826101f1565b565b919060a083820312610f8857610f8190610f3260a0610dbe565b93610f3f825f8301610e97565b5f860152610f508260208301610e97565b6020860152610f628260408301610e97565b6040860152610f748260608301610e97565b6060860152608001610f09565b6080830152565b610d73565b9060a082820312610fa657610fa3915f01610f18565b90565b6101ac565b610fb490610efd565b9052565b9190610fcb905f60208501940190610fab565b565b15610fd457565b5f638197c87b60e01b815280610fec6004820161031a565b0390fd5b610ff9906106db565b90565b61100590610ff0565b90565b611011906106f7565b90565b60ff1690565b61102381611014565b0361102a57565b5f80fd5b9050519061103b8261101a565b565b9060208282031261105657611053915f0161102e565b90565b6101ac565b90565b61107261106d6110779261105b565b6106d8565b611014565b90565b611084601261105e565b90565b1561108e57565b5f63390ca6a760e01b8152806110a66004820161031a565b0390fd5b6110b2610d33565b5b806110d06110ca6110c5858790610d46565b6101ee565b916101ee565b1015611359576110ea6110e583858491610d5e565b610e4e565b9061112e6110f95f8401610e5c565b92606061111861111361110e60408501610e5c565b610e75565b610e81565b632c8ce6bc906111266101a2565b948592610e91565b8252818061113e6004820161031a565b03915afa8015611354576111bf925f80929050611325575b5060a06111827f00000000000000000000000000000000000000000000000000000000000000006108cc565b632c3c9157906111b461119f61119a60208801610ef0565b610efd565b926111a86101a2565b97889485938493610e91565b835260048301610fb8565b03915afa801561132057611222935f916112f2575b50906111e96111e387926101bf565b916101bf565b14806112c8575b6111f990610fcd565b602061120c61120787610ffc565b611008565b63313ce5679061121a6101a2565b958692610e91565b825281806112326004820161031a565b03915afa9283156112c3576112909561127e6112859361127961128b976040955f91611295575b5061127361126d61126861107a565b611014565b91611014565b14611087565b612c2f565b9201610e5c565b90612d2d565b610d37565b6110b3565b6112b6915060203d81116112bc575b6112ae8183610d95565b81019061103d565b5f611259565b503d6112a4565b610ee0565b506111f9856112ea6112e46112df60208601610e5c565b6101bf565b916101bf565b1490506111f0565b611313915060a03d8111611319575b61130b8183610d95565b810190610f8d565b5f6111d4565b503d611301565b610ee0565b611346915060603d811161134d575b61133e8183610d95565b810190610ea6565b5090611156565b503d611334565b610ee0565b505050565b9061136891610d1f565b565b9061137490610703565b5f5260205260405f2090565b60ff1690565b61139261139791610cd1565b611380565b90565b6113a49054611386565b90565b6113e3926113c1916113b7610d33565b509083909161299e565b906113dd6113d86113d061107a565b92600161136a565b61139a565b91612dee565b90565b156113ed57565b5f630bb206c760e31b8152806114056004820161031a565b0390fd5b6002111561141357565b5f80fd5b9050359061142482611409565b565b9060208282031261143f5761143c915f01611417565b90565b6101ac565b634e487b7160e01b5f52602160045260245ffd5b6002111561146257565b611444565b9061147182611458565b565b916114b8336114b26114ac6114a77f00000000000000000000000000000000000000000000000000000000000000006108cc565b6101bf565b916101bf565b146113e6565b6114c58282810190611426565b6114d76114d15f611467565b91611467565b145f146114ed576114ea92919091613788565b5b565b6114f9929190916134ad565b6114eb565b9061150890610703565b5f5260205260405f2090565b9061151e90610703565b5f5260205260405f2090565b611533906106db565b90565b61153f9061152a565b90565b61154b906106f7565b90565b9060208282031261156757611564915f01610f09565b90565b6101ac565b634e487b7160e01b5f52601160045260245ffd5b61158c61159291611014565b91611014565b019060ff821161159e57565b61156c565b60206115e06115db6115d660026115d06115c96115f6976115c2610d33565b505f6114fe565b8890611514565b01610cea565b611536565b611542565b63a035b1fe906115ee6101a2565b938492610e91565b825281806116066004820161031a565b03915afa90811561168c5761165b9361164d9261162b925f9161165e575b50906137b7565b9161164761164261163a61107a565b92600161136a565b61139a565b90611580565b61165561107a565b91612dee565b90565b61167f915060203d8111611685575b6116778183610d95565b81019061154e565b5f611624565b503d61166d565b610ee0565b90565b6116a86116a36116ad92611691565b6106d8565b6101ee565b90565b6116c1670de0b6b3a7640000611694565b90565b6116d36116d9919392936101ee565b926101ee565b82039182116116e457565b61156c565b61172261170961174995611727946116ff610d33565b50908690916115a3565b9161171c83916117176116b0565b6116c4565b906137de565b6116c4565b9061174361173e61173661107a565b92600161136a565b61139a565b91612dee565b90565b611789916117629161175c610d33565b50612a26565b7f0000000000000000000000000000000000000000000000000000000000000000906116c4565b90565b5f634f61a71960e11b8152806117a46004820161031a565b0390fd5b6117b0613805565b6117b86128e0565b6117ca6117c4836101bf565b916101bf565b036117da576117d890613876565b565b6117f5905f91829163118cdaa760e01b83526004830161024e565b0390fd5b9061180390610703565b5f5260205260405f2090565b60ff1690565b61182161182691610cd1565b61180f565b90565b6118339054611815565b90565b1561183d57565b5f6307bb643d60e11b8152806118556004820161031a565b0390fd5b9061187f9161187a611875611870600633906117f9565b611829565b611836565b6118dc565b565b3561188b816101cb565b90565b90565b6118a56118a06118aa9261188e565b6106d8565b6101b4565b90565b6118b690611891565b90565b156118c057565b5f630a52f42d60e41b8152806118d86004820161031a565b0390fd5b9061193f9161193a61191960016119136118f860208701611881565b61190e61190760408901611881565b915f6114fe565b611514565b01610cea565b61193361192d6119285f6118ad565b6101bf565b916101bf565b14156118b9565b61198d565b565b3561194b816101f1565b90565b61196261195d6119679261188e565b6106d8565b6101ee565b90565b1561197157565b5f633af0894160e01b8152806119896004820161031a565b0390fd5b906119be916119b96119a160608401611941565b6119b36119ad5f61194e565b916101ee565b1161196a565b6119e3565b565b156119c757565b5f6315138ff160e11b8152806119df6004820161031a565b0390fd5b90611a3691611a316119f65f8401611941565b611a2a611a24611a1f611a0b60208801611881565b93611a1860408901611881565b909461174c565b6101ee565b916101ee565b11156119c0565b61219f565b565b5f80fd5b903590600160800381360303821215611a53570190565b611a38565b903590600160a00381360303821215611a6f570190565b611a38565b611a7d90611467565b90565b611a8990611a74565b9052565b50611a9c906020810190610205565b90565b906080611b18611b2093611ac1611ab85f830183611a8d565b5f860190610829565b611adb611ad16020830183611a8d565b6020860190610829565b611af5611aeb6040830183611a8d565b6040860190610829565b611b0f611b056060830183611a8d565b6060860190610829565b82810190611a8d565b910190610829565b565b600b1115611b2c57565b5f80fd5b90503590611b3d82611b22565b565b50611b4e906020810190611b30565b90565b600b1115611b5b57565b611444565b90611b6a82611b51565b565b611b7590611b60565b90565b611b8190611b6c565b9052565b50611b949060208101906101df565b90565b611ba0906101bf565b9052565b5f80fd5b5f80fd5b5f80fd5b9035600160200382360303811215611bf157016020813591019167ffffffffffffffff8211611bec576001820236038313611be757565b611ba8565b611ba4565b611bac565b60209181520190565b90825f939282370152565b9190611c2481611c1d81611c2995611bf6565b8095611bff565b610d77565b0190565b50611c3c906020810190610948565b90565b611c489061092f565b9052565b90611cbc906060611cb4611caa60808401611c75611c6c5f890189611b3f565b5f870190611b78565b611c8f611c856020890189611b85565b6020870190611b97565b611c9c6040880188611bb0565b908683036040880152611c0a565b9482810190611c2d565b910190611c3f565b90565b9035600160200382360303811215611d0057016020813591019167ffffffffffffffff8211611cfb576020820236038313611cf657565b611ba8565b611ba4565b611bac565b60209181520190565b90565b903560016101800382360303811215611d28570190565b611bac565b60041115611d3757565b5f80fd5b90503590611d4882611d2d565b565b50611d59906020810190611d3b565b90565b60041115611d6657565b611444565b90611d7582611d5c565b565b611d8090611d6b565b90565b611d8c90611d77565b9052565b611ed991611eca610180820192611db5611dac5f830183611a8d565b5f850190610829565b611dcf611dc56020830183611a8d565b6020850190610829565b611de9611ddf6040830183611a8d565b6040850190610829565b611e03611df96060830183611d4a565b6060850190611d83565b611e1d611e136080830183611b85565b6080850190611b97565b611e37611e2d60a0830183611b85565b60a0850190611b97565b611e51611e4760c0830183611b85565b60c0850190611b97565b611e6b611e6160e0830183611b85565b60e0850190611b97565b611e87611e7c610100830183611a8d565b610100850190610829565b611ea3611e98610120830183611a8d565b610120850190610829565b611ebf611eb4610140830183611a8d565b610140850190610829565b610160810190611bb0565b91610160818503910152611c0a565b90565b90611f35906040611f2d611f23611f0860608501611efc5f890189611d11565b8682035f880152611d90565b611f156020880188611bb0565b908683036020880152611c0a565b9482810190611a8d565b910190610829565b90565b90611f4291611edc565b90565b9035600160600382360303811215611f5b570190565b611bac565b60200190565b9181611f7191611d05565b9081611f8260208302840194611d0e565b92835f925b848410611f975750505050505090565b9091929394956020611fc2611fbc8385600195038852611fb78b88611f45565b611f38565b98611f60565b940194019294939190611f87565b6120629161205461204961202e60a08401611ff9611ff05f880188611b85565b5f870190611b97565b6120136120096020880188611a8d565b6020870190610829565b6120206040870187611cbf565b908683036040880152611f66565b61203b6060860186611cbf565b908583036060870152611f66565b926080810190611bb0565b916080818503910152611c0a565b90565b999896949290979593916101e08b01985f8c0161208191611a80565b60208b0161208e91610241565b60408a0161209b9161038d565b606089016120a891610241565b608088016120b591610241565b60a087016120c29161038d565b60c086016120cf91611a9f565b61016085016120dd91610241565b61018084016120eb91610241565b8281036101a08401526120fd91611c4c565b90808203906101c0015261211091611fd0565b90565b5f91031261211d57565b6101ac565b5190565b60209181520190565b90825f9392825e0152565b6121596121626020936121679361215081612122565b93848093612126565b9586910161212f565b610d77565b0190565b61218f61219c94929361218560608401955f850190610241565b602083019061038d565b604081840391015261213a565b90565b6121ab60208301611881565b6122656121ba60408501611881565b926122566121ca60608701611941565b936121d7813387916138b0565b6121ef6121e55f8901611941565b82889088926116e9565b965f93956121fe5f8301611941565b9290889060808401906122146101208601611881565b926122226101408701611881565b9461224161223588610160810190611a3c565b97610180810190611a58565b9761224a6101a2565b9c8d9b60208d01612065565b60208201810382520382610d95565b9161228f7f00000000000000000000000000000000000000000000000000000000000000006108cc565b63e0232b4292919392813b1561230b575f6122bd916122c882966122b16101a2565b98899788968795610e91565b85526004850161216b565b03925af18015612306576122da575b50565b6122f9905f3d81116122ff575b6122f18183610d95565b810190612113565b5f6122d7565b503d6122e7565b610ee0565b610e8d565b9061231a91611859565b565b612324610ccd565b5061232f6004610cea565b90565b61233c6040610dbe565b90565b5f90565b61234b612332565b906020808361235861233f565b81520161236361233f565b81525050565b612371612343565b90565b9061237e90610703565b5f5260205260405f2090565b9061239490610703565b5f5260205260405f2090565b906123aa90610703565b5f5260205260405f2090565b90565b6123c56123ca91610cd1565b6123b6565b90565b6123d790546123b9565b90565b906123e4906101ee565b9052565b9061241f61241660016123f9612332565b946124106124085f83016123cd565b5f88016123da565b016123cd565b602084016123da565b565b61242a906123e8565b90565b61245f9261245561244e612464969461245a94612448612369565b50610cf7565b6008612374565b61238a565b6123a0565b612421565b90565b9061247991612474612b0b565b6124c5565b565b5f1b90565b9061248c60ff9161247b565b9181191691161790565b61249f9061092f565b90565b90565b906124ba6124b56124c192612496565b6124a2565b8254612480565b9055565b6124d46124d9929160066117f9565b6124a5565b565b906124e591612467565b565b9061250d916125086125036124fe600633906117f9565b611829565b611836565b61250f565b565b906125409161253b61252360608401611941565b61253561252f5f61194e565b916101ee565b1161196a565b612542565b565b906125739161256e61255660808401611941565b6125686125625f61194e565b916101ee565b1161196a565b6126b2565b565b90565b1561257f57565b5f639ed7123360e01b8152806125976004820161031a565b0390fd5b156125a257565b5f631700aa6760e01b8152806125ba6004820161031a565b0390fd5b906125c991036101ee565b90565b906125d85f199161247b565b9181191691161790565b90565b906125fa6125f561260192610725565b6125e2565b82546125cc565b9055565b999896949290979593916101608b01985f8c0161262191611a80565b60208b0161262e91610241565b60408a0161263b91610241565b6060890161264891610241565b6080880161265591610241565b60a087016126629161038d565b60c0860161266f9161038d565b60e0850161267c91610241565b610100840161268a91610241565b82810361012084015261269c91611c4c565b908082039061014001526126af91611fd0565b90565b906126bf60208201611881565b906128296126cf60408301611881565b9261281a6126df60608501611941565b916127016126ef60808701611941565b976126fb5f8801611941565b90610cf7565b946127b861272d61272861272161271a60088b90612374565b869061238a565b8a906123a0565b612575565b61275561273c600183016123cd565b61274e612748896101ee565b916101ee565b1015612578565b61277c6127635f83016123cd565b61277561276f8d6101ee565b916101ee565b101561259b565b61279b8a6127955f840191612790836123cd565b6125be565b906125e5565b6127b26001879201916127ad836123cd565b6125be565b906125e5565b6127c4828886916113a7565b976001943397939189916127da60a08601611881565b926127e760c08701611881565b946128056127f98860e0810190611a3c565b97610100810190611a58565b9761280e6101a2565b9c8d9b60208d01612605565b60208201810382520382610d95565b916128537f00000000000000000000000000000000000000000000000000000000000000006108cc565b63e0232b4292919392813b156128cf575f6128819161288c82966128756101a2565b98899788968795610e91565b85526004850161216b565b03925af180156128ca5761289e575b50565b6128bd905f3d81116128c3575b6128b58183610d95565b810190612113565b5f61289b565b503d6128ab565b610ee0565b610e8d565b906128de916124e7565b565b6128e8610ccd565b506128f36005610cea565b90565b90612900906101bf565b9052565b61290e60a0610dbe565b90565b906129906129876004612922612904565b946129396129315f8301610cea565b5f88016128f6565b61295161294860018301610cea565b602088016128f6565b61296961296060028301610cea565b604088016128f6565b61298161297860038301610cea565b606088016128f6565b016123cd565b608084016123da565b565b61299b90612911565b90565b612a10612a08612a23946129f96129d36129ce6129c7612a15976129c0610d33565b505f6114fe565b8890611514565b612992565b7f0000000000000000000000000000000000000000000000000000000000000000613b6a565b93925090509190919091613f17565b92600161136a565b61139a565b612a1d61107a565b91612dee565b90565b612a47612a4d92612a42600493612a3b610d33565b505f6114fe565b611514565b016123cd565b90565b612a6190612a5c612b0b565b612aa1565b565b90612a7460018060a01b039161247b565b9181191691161790565b90565b90612a96612a91612a9d92610703565b612a7e565b8254612a63565b9055565b612aac816005612a81565b612ab461231c565b90612ae8612ae27f38d16b8cac22d99fc7c124b9cd0de2d3fa1faef420bfe791d8c362d765e2270093610703565b91610703565b91612af16101a2565b80612afb8161031a565b0390a3565b612b0990612a50565b565b612b1361231c565b612b2c612b26612b21613805565b6101bf565b916101bf565b03612b3357565b612b55612b3e613805565b5f91829163118cdaa760e01b83526004830161024e565b0390fd5b612b6390516101ee565b90565b90612bdc60806004612be294612b895f8201612b835f8801610e5c565b90612a81565b612ba260018201612b9c60208801610e5c565b90612a81565b612bbb60028201612bb560408801610e5c565b90612a81565b612bd460038201612bce60608801610e5c565b90612a81565b019201612b59565b906125e5565b565b90612bee91612b66565b565b612c04612bff612c0992611014565b6106d8565b611014565b90565b90565b90612c24612c1f612c2b92612bf0565b612c0c565b8254612480565b9055565b612c9990612c6681612c61612c505f612c4a60208701610e5c565b906114fe565b612c5b5f8601610e5c565b90611514565b612be4565b6020612c83612c7e612c795f8501610e5c565b610ffc565b611008565b63313ce56790612c916101a2565b948592610e91565b82528180612ca96004820161031a565b03915afa908115612d1257612cdc925f92612cde575b50612cd790612cd15f60019201610e5c565b9061136a565b612c0f565b565b612cd7919250612d049060203d8111612d0b575b612cfc8183610d95565b81019061103d565b9190612cbf565b503d612cf2565b610ee0565b90612d2190610703565b5f5260205260405f2090565b612d3c612d4192916002612d17565b612a81565b565b612d4f612d5591611014565b91611014565b90039060ff8211612d6257565b61156c565b612d7090611014565b604d8111612d7e57600a0a90565b61156c565b612d92612d98919392936101ee565b926101ee565b91612da48382026101ee565b928184041490151715612db357565b61156c565b634e487b7160e01b5f52601260045260245ffd5b612dd8612dde916101ee565b916101ee565b908115612de9570490565b612db8565b91612df7610d33565b5081612e0b612e0583611014565b91611014565b115f14612e3157612e23612e2891612e2e9493612d43565b612d67565b90612dcc565b90565b9080612e45612e3f84611014565b91611014565b105f14612e6b57612e5d612e6291612e689493612d43565b612d67565b90612d83565b90565b505090565b90612e839291612e7e613f7e565b6133a7565b612e8b613fe3565b565b612e96906101b4565b90565b612ea281612e8d565b03612ea957565b5f80fd5b90503590612eba82612e99565b565b5f80fd5b67ffffffffffffffff8111612ede57612eda602091610d77565b0190565b610d81565b90929192612ef8612ef382612ec0565b610dbe565b93818552602085019082840111612f1457612f1292611bff565b565b612ebc565b9080601f83011215612f3757816020612f3493359101612ee3565b90565b610299565b919091608081840312612fb357612f536080610dbe565b92612f60815f8401611b30565b5f850152612f7181602084016101df565b602085015260408201359167ffffffffffffffff8311612fae57612f9a82612fa7948301612f19565b6040860152606001610948565b6060830152565b610dd3565b610d73565b67ffffffffffffffff8111612fd05760208091020190565b610d81565b919091610180818403126130e557612fee610180610dbe565b92612ffb815f8401610205565b5f85015261300c8160208401610205565b602085015261301e8160408401610205565b60408501526130308160608401611d3b565b606085015261304281608084016101df565b60808501526130548160a084016101df565b60a08501526130668160c084016101df565b60c08501526130788160e084016101df565b60e085015261308b816101008401610205565b61010085015261309f816101208401610205565b6101208501526130b3816101408401610205565b61014085015261016082013567ffffffffffffffff81116130e0576130d89201612f19565b610160830152565b610dd3565b610d73565b919091606081840312613167576131016060610dbe565b925f82013567ffffffffffffffff81116131625781613121918401612fd5565b5f85015260208201359167ffffffffffffffff831161315d5761314982613156948301612f19565b6020860152604001610205565b6040830152565b610dd3565b610dd3565b610d73565b92919061318061317b82612fb8565b610dbe565b93818552602080860192028101918383116131d75781905b8382106131a6575050505050565b813567ffffffffffffffff81116131d2576020916131c787849387016130ea565b815201910190613198565b610299565b6102a1565b9080601f830112156131fa578160206131f79335910161316c565b90565b610299565b91909160a0818403126132b75761321660a0610dbe565b92613223815f84016101df565b5f8501526132348160208401610205565b6020850152604082013567ffffffffffffffff81116132b257816132599184016131dc565b6040850152606082013567ffffffffffffffff81116132ad578161327e9184016131dc565b6060850152608082013567ffffffffffffffff81116132a8576132a19201612f19565b6080830152565b610dd3565b610dd3565b610dd3565b610d73565b91909161016081840312613396576132d6835f8301611417565b926132e48160208401612ead565b926132f28260408501612ead565b926133008360608301612ead565b9261330e8160808401612ead565b9261331c8260a08501610205565b9261332a8360c08301610205565b926133388160e08401612ead565b92613347826101008501612ead565b9261012081013567ffffffffffffffff81116133915783613369918301612f3c565b9261014082013567ffffffffffffffff811161338c5761338992016131ff565b90565b6101b0565b6101b0565b6101ac565b6133a4906106f7565b90565b916134326133eb6133fd6134256133c86133f7956133f197908101906132bc565b909a96979b959e94989f939c929860809a929a529998979b9d969a9e905061339b565b9c61339b565b9761339b565b9261339b565b9861341461340e608051929961339b565b9461339b565b94959690838d8c90918b9394613ff7565b94879091929394956143ce565b6134668261345f7f00000000000000000000000000000000000000000000000000000000000000006108cc565b86916144ea565b61346e610d33565b508061348261347c866101ee565b916101ee565b1161348e575b50505050565b6134a49361349b916125be565b90919091614501565b5f808080613488565b906134b89291612e70565b565b906134cd92916134c8613f7e565b613651565b6134d5613fe3565b565b919060a08382031261354757613540906134f160a0610dbe565b936134fe825f8301610205565b5f86015261350f8260208301610205565b60208601526135218260408301610205565b60408601526135338260608301610205565b6060860152608001610205565b6080830152565b610d73565b9190916101e08184031261362757613566835f8301611417565b926135748160208401612ead565b926135828260408501610205565b926135908360608301612ead565b9261359e8160808401612ead565b926135ac8260a08501610205565b926135ba8360c083016134d7565b926135c9816101608401612ead565b926135d8826101808501612ead565b926101a081013567ffffffffffffffff811161362257836135fa918301612f3c565b926101c082013567ffffffffffffffff811161361d5761361a92016131ff565b90565b6101b0565b6101b0565b6101ac565b61363b613641919392936101ee565b926101ee565b820180921161364c57565b61156c565b91810161365d9161354c565b91949950919294969761366f9061339b565b979561367a9061339b565b966136849061339b565b9894926136909061339b565b9361369a9061339b565b919091899488948c9091929394956136b197614666565b6136ba9161362c565b92818386869089926136cb9461479d565b906136d591614823565b90818185859088926136e6946148c2565b916008906136f391612374565b906136fd9161238a565b83613707916123a0565b61371090612575565b91825f019061371e826123cd565b906137289161362c565b613731916125e5565b906001019061373f826123cd565b906137499161362c565b613752916125e5565b907f000000000000000000000000000000000000000000000000000000000000000061377d906108cc565b613786926144ea565b565b9061379392916134ba565b565b6137a16137a7916101ee565b916101ee565b9081156137b2570490565b612db8565b6137db916137cd916137c7610d33565b50612d83565b6137d56116b0565b90613795565b90565b906137fd613802926137ee610d33565b506137f76116b0565b90612d83565b613795565b90565b61380d610ccd565b503390565b1b90565b9190600861383691029161383060018060a01b0384613812565b92613812565b9181191691161790565b919061385661385161385e93610703565b612a7e565b908354613816565b9055565b6138749161386e610ccd565b91613840565b565b61388a906138855f6005613862565b614904565b565b613895906106db565b90565b6138a19061388c565b90565b6138ad906106f7565b90565b91806138c46138be5f61194e565b916101ee565b146138e8576138d56138e693613898565b916138df306138a4565b91926149d4565b565b505050565b6fffffffffffffffffffffffffffffffff1690565b61390b816138ed565b0361391257565b5f80fd5b9050519061392382613902565b565b919060c0838203126139a7576139a09061393f60c0610dbe565b9361394c825f8301613916565b5f86015261395d8260208301613916565b602086015261396f8260408301613916565b60408601526139818260608301613916565b60608601526139938260808301613916565b608086015260a001613916565b60a0830152565b610d73565b9060c0828203126139c5576139c2915f01613925565b90565b6101ac565b6139d490516138ed565b90565b6139eb6139e66139f0926138ed565b6106d8565b6101ee565b90565b613a07613a02613a0c9261188e565b6106d8565b6138ed565b90565b613a18906106db565b90565b613a2490613a0f565b90565b613a30906106f7565b90565b90608080613a8b93613a4b5f8201515f860190611b97565b613a5d60208201516020860190611b97565b613a6f60408201516040860190611b97565b613a8160608201516060860190611b97565b0151910190610829565b565b613a96906138ed565b9052565b9060a080613b0493613ab25f8201515f860190613a8d565b613ac460208201516020860190613a8d565b613ad660408201516040860190613a8d565b613ae860608201516060860190613a8d565b613afa60808201516080860190613a8d565b0151910190613a8d565b565b9160a0613b28929493613b216101608201965f830190613a33565b0190613a9a565b565b613b36613b3c916138ed565b916138ed565b01906fffffffffffffffffffffffffffffffff8211613b5757565b61156c565b90613b66906138ed565b9052565b60c0613bcd91613b78610d33565b50613b81610d33565b50613b8a610d33565b50613b93610d33565b50613ba6613ba085614a28565b916108cc565b613bc2635c60e39a613bb66101a2565b95869485938493610e91565b835260048301610fb8565b03915afa908115613eb8575f91613e8a575b5090613bff42613bf9613bf4608086016139ca565b6139d7565b906116c4565b80613c12613c0c5f61194e565b916101ee565b141580613e64575b80613e36575b613c7e575b5050613c325f82016139ca565b613c3e602083016139ca565b92613c7b613c75613c6f613c69613c636060613c5c60408a016139ca565b98016139ca565b956139d7565b966139d7565b946139d7565b926139d7565b90565b6020613c9c613c97613c9260608601610e5c565b613a1b565b613a27565b638c00bf6b9390613cbf8695613cca613cb36101a2565b97889586948594610e91565b845260048401613b06565b03915afa918215613e3157613d0692613d00915f91613e03575b5091613cfa613cf5604087016139ca565b6139d7565b92614a6b565b90614ade565b613d2e613d1282614c31565b613d286040850191613d23836139ca565b613b2a565b90613b5c565b613d55613d3a82614c31565b613d4f5f850191613d4a836139ca565b613b2a565b90613b5c565b613d6160a083016139ca565b613d73613d6d5f6139f3565b916138ed565b03613d7f575b80613c25565b613de1613ddc613da6613dfd93613da0613d9b60a088016139ca565b6139d7565b90614ade565b613dc281613dbd613db85f89016139ca565b6139d7565b6116c4565b613dd6613dd1602088016139ca565b6139d7565b91614c7c565b614c31565b613df76020840191613df2836139ca565b613b2a565b90613b5c565b5f613d79565b613e24915060203d8111613e2a575b613e1c8183610d95565b81019061154e565b5f613ce4565b503d613e12565b610ee0565b50613e4360608301610e5c565b613e5d613e57613e525f6118ad565b6101bf565b916101bf565b1415613c20565b50613e71604084016139ca565b613e83613e7d5f6139f3565b916138ed565b1415613c1a565b613eab915060c03d8111613eb1575b613ea38183610d95565b8101906139ac565b5f613bdf565b503d613e99565b610ee0565b90565b613ed4613ecf613ed992613ebd565b6106d8565b6101ee565b90565b613ee66001613ec0565b90565b90565b613f00613efb613f0592613ee9565b6106d8565b6101ee565b90565b613f14620f4240613eec565b90565b91613f49613f3a613f4f94613f2a610d33565b5093613f34613edc565b9061362c565b91613f43613f08565b9061362c565b91614cb8565b90565b90565b613f69613f64613f6e92613f52565b6106d8565b6101ee565b90565b613f7b6002613f55565b90565b613f8860036123cd565b613fa1613f9b613f96613f71565b6101ee565b916101ee565b14613fba57613fb8613fb1613f71565b60036125e5565b565b5f633ee5aeb560e01b815280613fd26004820161031a565b0390fd5b613fe06001613ec0565b90565b613ff5613fee613fd6565b60036125e5565b565b919261401c614017614032979695614012614028955f6114fe565b611514565b612992565b94839186909192614d82565b5050919091614fa2565b565b61403d906106f7565b90565b90916060828403126140755761407261405b845f8501610f09565b936140698160208601610f09565b93604001610f09565b90565b6101ac565b6140996140a26020936140a79361409081612122565b93848093611bf6565b9586910161212f565b610d77565b0190565b906140f9906060806140ee608084016140ca5f8801515f870190611b78565b6140dc60208801516020870190611b97565b6040870151858203604087015261407a565b940151910190611c3f565b90565b61415d91608060a08201926141175f8201515f850190611b97565b61412960208201516020850190610829565b61413b60408201516040850190611b97565b61414d60608201516060850190611b97565b01519060808184039101526140ab565b90565b5190565b60200190565b614252916101606101808201926141875f8201515f850190610829565b61419960208201516020850190610829565b6141ab60408201516040850190610829565b6141bd60608201516060850190611d83565b6141cf60808201516080850190611b97565b6141e160a082015160a0850190611b97565b6141f360c082015160c0850190611b97565b61420560e082015160e0850190611b97565b614219610100820151610100850190610829565b61422d610120820151610120850190610829565b614241610140820151610140850190610829565b01519061016081840391015261407a565b90565b9061429490604080614289614277606085015f8801518682035f88015261416a565b6020870151858203602087015261407a565b940151910190610829565b90565b906142a191614255565b90565b60200190565b906142be6142b783614160565b8092611d05565b90816142cf60208302840194614164565b925f915b8383106142e257505050505090565b909192939460206143046142fe83856001950387528951614297565b976142a4565b93019301919392906142d3565b61437891608061436761435560a084016143315f8701515f870190611b97565b61434360208701516020870190610829565b604086015185820360408701526142aa565b606085015184820360608601526142aa565b92015190608081840391015261407a565b90565b936143b06143cb96946143a66143bd9561439c60a08a01965f8b0190610241565b6020890190610241565b604087019061038d565b84820360608601526140fc565b916080818403910152614311565b90565b93926144a15f926144969498614480606099976143e9610d33565b5061441f8a8d6144187f0000000000000000000000000000000000000000000000000000000000000000610b1b565b909161519e565b6144487f0000000000000000000000000000000000000000000000000000000000000000610b1b565b9863594a88cc9661446b61446661445e30614034565b9d6002612d17565b610cea565b9d9561447a8a9492939461194e565b90615326565b909161448a6101a2565b9a8b998a988997610e91565b87526004870161437b565b03925af19081156144e5575f916144b7575b5090565b6144d8915060603d81116144de575b6144d08183610d95565b810190614040565b506144b3565b503d6144c6565b610ee0565b916144f76144ff93613898565b9190916153a2565b565b918061451561450f5f61194e565b916101ee565b146145305761452661452e93613898565b91909161545e565b565b505050565b61453e9061194e565b9052565b9060808061459a9361455a5f8201515f860190610829565b61456c60208201516020860190610829565b61457e60408201516040860190610829565b61459060608201516060860190610829565b0151910190610829565b565b6145fd91608060a08201926145b75f8201515f850190611b97565b6145c960208201516020850190610829565b6145db60408201516040850190611b97565b6145ed60608201516060850190611b97565b01519060808184039101526140ab565b90565b949091614663969461463c61465495614632614646946146286101408c01985f8d0190610241565b60208b0190610241565b6040890190614535565b6060870190614542565b84820361010086015261459c565b91610120818403910152614311565b90565b6147279360609795929698614732926147115f96614682610d33565b506146b7836146b07f0000000000000000000000000000000000000000000000000000000000000000610b1b565b83916144ea565b6146e07f0000000000000000000000000000000000000000000000000000000000000000610b1b565b9963c81f847a976147036146fe6146f630614034565b9e6002612d17565b610cea565b9e8a9795939091929361551b565b919261471b6101a2565b9b8c9a8b998a98610e91565b885260048801614600565b03925af1908115614776575f91614748575b5090565b614769915060603d811161476f575b6147618183610d95565b810190614040565b50614744565b503d614757565b610ee0565b1561478257565b5f622582ad60e91b8152806147996004820161031a565b0390fd5b926147e7614821956147e261481a956147d46147cf6147c661480f9761481499908590916115a3565b9492600161136a565b61139a565b6147dc61107a565b91612dee565b6137de565b937f00000000000000000000000000000000000000000000000000000000000000009061362c565b6101ee565b916101ee565b111561477b565b565b9061482c610ccd565b5061484b61484661483f6007859061070f565b8390610741565b610cea565b918261486761486161485c5f6118ad565b6101bf565b916101bf565b14614872575b505090565b6148bb9192506148b66148a47f0000000000000000000000000000000000000000000000000000000000000000615574565b936148b18593600761070f565b610741565b612a81565b5f8061486d565b906148ee6148e961490196946148e46148f9946148dd610d33565b505f6114fe565b611514565b612992565b9382908590916155d6565b91909161570f565b90565b61490e6004610cea565b614919826004612a81565b9061494d6149477f8be0079c531659141344cd1fd0a4f28419497f9722a3daafe3b4186f6b6457e093610703565b91610703565b916149566101a2565b806149608161031a565b0390a3565b61496e906106f7565b90565b63ffffffff1690565b63ffffffff60e01b1690565b61499a61499561499f92614971565b610e91565b61497a565b90565b6040906149cb6149d294969593966149c160608401985f850190610241565b6020830190610241565b019061038d565b565b600492614a0e614a229593614a1d93946149f56323b872dd92949192614986565b936149fe6101a2565b97889560208701908152016149a2565b60208201810382520383610d95565b61582b565b565b5f90565b60a090614a33614a24565b502090565b614a49670de0b6b3a7640000611694565b90565b90565b614a63614a5e614a6892614a4c565b6106d8565b6101ee565b90565b614adb91614a8191614a7b610d33565b50612d83565b614ad6614aaa8283614aa46002614a9f614a99614a38565b91613f55565b612d83565b916158df565b614ad08184614aca6003614ac5614abf614a38565b91614a4f565b612d83565b916158df565b9261362c565b61362c565b90565b90614afb91614aeb610d33565b5090614af5614a38565b916158df565b90565b5f90565b67ffffffffffffffff8111614b2057614b1c602091610d77565b0190565b610d81565b90614b37614b3283614b02565b610dbe565b918252565b5f7f6d61782075696e74313238206578636565646564000000000000000000000000910152565b614b6d6014614b25565b90614b7a60208301614b3c565b565b614b84614b63565b90565b614b8f614b7c565b90565b5190565b60209181520190565b614bbe614bc7602093614bcc93614bb581614b92565b93848093614b96565b9586910161212f565b610d77565b0190565b614be59160208201915f818403910152614b9f565b90565b15614bf05750565b614c1190614bfc6101a2565b91829162461bcd60e51b835260048301614bd0565b0390fd5b614c29614c24614c2e926101ee565b6106d8565b6138ed565b90565b614c7990614c3d614afe565b50614c7481614c64614c5e6fffffffffffffffffffffffffffffffff6139d7565b916101ee565b1115614c6e614b87565b90614be8565b614c15565b90565b90614caf614ca0614cb59493614c90610d33565b5093614c9a613f08565b9061362c565b91614ca9613edc565b9061362c565b916158df565b90565b614cd2614cf19392614cec92614ccc610d33565b50612d83565b614ce683614ce06001613ec0565b906116c4565b9061362c565b612dcc565b90565b9190604083820312614d1c5780614d10614d19925f8601610f09565b93602001610f09565b90565b6101ac565b614d2c5f8092612126565b0190565b9193614d67614d719294614d5d614d7f97614d536101208801985f890190613a33565b60a0870190614535565b60c085019061038d565b60e0830190610241565b610100818303910152614d21565b90565b614dd6604093614d90610d33565b50614d99610d33565b50614da55f8501610e5c565b90614dcf7f00000000000000000000000000000000000000000000000000000000000000006108cc565b90916144ea565b90614e255f614e047f00000000000000000000000000000000000000000000000000000000000000006108cc565b92614e306320b76e8191958398614e196101a2565b998a9889978896610e91565b865260048601614d30565b03925af1908115614e7a575f80919092614e4a575b509091565b9050614e6d915060403d8111614e73575b614e658183610d95565b810190614cf4565b5f614e45565b503d614e5b565b610ee0565b614e88906106f7565b90565b614e94906106db565b90565b614ea090614e8b565b90565b614eac906106f7565b90565b614ee5614eec94614edb60e094989795614ed161010086019a5f870190613a33565b60a085019061038d565b60c0830190610241565b0190610241565b565b90929192614f03614efe82612ec0565b610dbe565b93818552602085019082840111614f1f57614f1d9261212f565b565b612ebc565b9080601f83011215614f4257816020614f3f93519101614eee565b90565b610299565b90602082820312614f77575f82015167ffffffffffffffff8111614f7257614f6f9201614f24565b90565b6101b0565b6101ac565b91614f9f92614f9260408201935f830190610241565b602081840391015261213a565b90565b91905f91615045838561502e614fc8614fc3614fbd30614e7f565b93614e97565b614ea3565b9461501f631cff79cd93614ffb7f00000000000000000000000000000000000000000000000000000000000000006108cc565b98929a6150066101a2565b9b8c94600460208701638720316d60e01b815201614eaf565b60208201810382520388610d95565b6150506150396101a2565b97889687958694610e91565b845260048401614f7c565b03925af1801561508257615062575b50565b61507d903d805f833e6150758183610d95565b810190614f47565b61505f565b610ee0565b9160206150a89294936150a160408201965f830190610241565b019061038d565b565b906150bc6150b783612ec0565b610dbe565b918252565b606090565b3d5f146150e1576150d63d6150aa565b903d5f602084013e5b565b6150e96150c1565b906150df565b905051906150fc82610934565b565b9060208282031261511757615114915f016150ef565b90565b6101ac565b5f7f5361666520417070726f76650000000000000000000000000000000000000000910152565b615150600c602092614b96565b6151598161511c565b0190565b6151729060208101905f818303910152615143565b90565b1561517c57565b6151846101a2565b62461bcd60e51b81528061519a6004820161515d565b0390fd5b6151fd9260046151df5f946151d086959463095ea7b360e01b926151c06101a2565b9586946020860190815201615087565b60208201810382520382610d95565b82602082019151925af16151f16150c6565b816151ff575b50615175565b565b905061520a81612122565b61521c6152165f61194e565b916101ee565b1490811561522c575b505f6151f7565b6152479150602061523c82612122565b8183010191016150fe565b5f615225565b61525760a0610dbe565b90565b5f90565b6152686080610dbe565b90565b5f90565b606090565b5f90565b61528061525e565b9060208080808561528f61526b565b81520161529a61525a565b8152016152a561526f565b8152016152b0615274565b81525050565b6152be615278565b90565b6152c961524d565b90602080808080866152d961525a565b8152016152e461233f565b8152016152ef61525a565b8152016152fa61525a565b8152016153056152b6565b81525050565b6153136152c1565b90565b61532060a0610dbe565b90565b52565b9361536a61537c94615361615373949761533e61530b565b50979591939561535861534f615316565b995f8b016128f6565b602089016123da565b604087016128f6565b606085016128f6565b60808301615323565b90565b9160206153a092949361539960408201965f830190610241565b0190614535565b565b90916153e56004916153d663095ea7b36153bd879391614986565b926153c66101a2565b9586946020860190815201615087565b60208201810382520382610d95565b906153fa6153f4828490615902565b1561092f565b615404575b505050565b61545160046154569461544c849161543d63095ea7b36154245f91614986565b9261542d6101a2565b968794602086019081520161537f565b60208201810382520383610d95565b61582b565b61582b565b5f80806153ff565b906154a56154aa936154966004949361547d63a9059cbb919391614986565b926154866101a2565b9687946020860190815201615087565b60208201810382520383610d95565b61582b565b565b6154b660a0610dbe565b90565b6154c16154ac565b90602080808080866154d161525a565b8152016154dc61233f565b8152016154e761525a565b8152016154f261525a565b8152016154fd6152b6565b81525050565b61550b6154b9565b90565b61551860a0610dbe565b90565b9361555f615571946155566155689497615533615503565b50979591939561554d61554461550e565b995f8b016128f6565b602089016123da565b604087016128f6565b606085016128f6565b60808301615323565b90565b61559090615580610ccd565b5061558a5f61194e565b906159d3565b90565b90916155d3936155bc6155c6926155b26101008601965f870190613a33565b60a085019061038d565b60c0830190610241565b60e0818303910152614d21565b90565b916156166155e660208401610e5c565b61560f7f00000000000000000000000000000000000000000000000000000000000000006108cc565b839161519e565b61563f7f00000000000000000000000000000000000000000000000000000000000000006108cc565b63238d657992919392813b156156bb575f61566d9161567882966156616101a2565b98899788968795610e91565b855260048501615593565b03925af180156156b65761568a575b50565b6156a9905f3d81116156af575b6156a18183610d95565b810190612113565b5f615687565b503d615697565b610ee0565b610e8d565b9095949261570d946156fc615706926156f2610100966156e861012088019c5f890190613a33565b60a087019061038d565b60c085019061038d565b60e0830190610241565b0190610241565b565b91905f9161571b610d33565b506157c883615728610d33565b956157b181946157a261574b61574661574030614e7f565b95614e97565b614ea3565b96631cff79cd9461577b7f00000000000000000000000000000000000000000000000000000000000000006108cc565b99939b9190916157896101a2565b9c8d956004602088016350d8cd4b60e01b8152016156c0565b60208201810382520388610d95565b6157d36157bc6101a2565b97889687958694610e91565b845260048401614f7c565b03925af18015615826576157ff915f91615804575b5060206157f482612122565b818301019101614cf4565b905090565b61582091503d805f833e6158188183610d95565b810190614f47565b5f6157e8565b610ee0565b905f602091615838610d33565b50615841610d33565b50828151910182855af1156158d4573d5f51906158666158605f61194e565b916101ee565b145f146158ba575061587781614965565b3b61588a6158845f61194e565b916101ee565b145b6158935750565b61589f6158b691614965565b5f918291635274afe760e01b83526004830161024e565b0390fd5b6158cd6158c76001613ec0565b916101ee565b141561588c565b6040513d5f823e3d90fd5b6158fb92916158f6916158f0610d33565b50612d83565b612dcc565b90565b5f90565b905f60209161590f6158fe565b506159186158fe565b50615921610d33565b5061592a610d33565b50828151910182855af13d915f51919283615946575b50505090565b9091925061595c6159565f61194e565b916101ee565b145f1461598a5761596d9150614965565b3b61598061597a5f61194e565b916101ee565b115b5f8080615940565b5061599e6159986001613ec0565b916101ee565b14615982565b6159ad906106f7565b90565b9160206159d19294936159ca60408201965f83019061038d565b019061038d565b565b6159db610ccd565b506159e5306159a4565b316159f86159f2846101ee565b916101ee565b10615a7c576037916e5af43d82803e903d91602b57fd5bf382763d602d80600a3d3981f3363d3d373d3d3d363d7300000060099460601b60e81c175f5260781b17602052f09081615a59615a53615a4e5f6118ad565b6101bf565b916101bf565b14615a6057565b5f63b06ebf3d60e01b815280615a786004820161031a565b0390fd5b50615a86306159a4565b31615aa15f92839263cf47918160e01b8452600484016159b0565b0390fdfea26469706673582212203806f67c89563e3096109930ab9d8751e91f3692c1665d0d0336e4b74ef820ce64736f6c634300081e003360a06040523461003f57610019610014610104565b610125565b610021610044565b61051b61012b82396080518181816101d101526102f1015261051b90f35b61004a565b60405190565b5f80fd5b601f801991011690565b634e487b7160e01b5f52604160045260245ffd5b906100769061004e565b810190811060018060401b0382111761008e57604052565b610058565b906100a661009f610044565b928361006c565b565b5f80fd5b60018060a01b031690565b6100c0906100ac565b90565b6100cc816100b7565b036100d357565b5f80fd5b905051906100e4826100c3565b565b906020828203126100ff576100fc915f016100d7565b90565b6100a8565b6101226106468038038061011781610093565b9283398101906100e6565b90565b60805256fe60806040526004361015610013575b61024a565b61001d5f3561003c565b80631cff79cd146100375763dd72047f0361000e57610215565b61018a565b60e01c90565b60405190565b5f80fd5b5f80fd5b5f80fd5b60018060a01b031690565b61006890610054565b90565b6100748161005f565b0361007b57565b5f80fd5b9050359061008c8261006b565b565b5f80fd5b5f80fd5b5f80fd5b909182601f830112156100d45781359167ffffffffffffffff83116100cf5760200192600183028401116100ca57565b610096565b610092565b61008e565b91909160408184031261011a576100f2835f830161007f565b92602082013567ffffffffffffffff811161011557610111920161009a565b9091565b610050565b61004c565b5190565b60209181520190565b90825f9392825e0152565b601f801991011690565b61016061016960209361016e936101578161011f565b93848093610123565b9586910161012c565b610137565b0190565b6101879160208201915f818403910152610141565b90565b346101bb576101b76101a66101a03660046100d9565b916104cf565b6101ae610042565b91829182610172565b0390f35b610048565b5f9103126101ca57565b61004c565b7f000000000000000000000000000000000000000000000000000000000000000090565b6101fc9061005f565b9052565b9190610213905f602085019401906101f3565b565b34610245576102253660046101c0565b6102416102306101cf565b610238610042565b91829182610200565b0390f35b610048565b5f80fd5b606090565b60209181520190565b5f7f5573657250726f78793a206f6e6c79206c6576657261676520636f7265000000910152565b610290601d602092610253565b6102998161025c565b0190565b6102b29060208101905f818303910152610283565b90565b156102bc57565b6102c4610042565b62461bcd60e51b8152806102da6004820161029d565b0390fd5b906103269392916103213361031b6103157f000000000000000000000000000000000000000000000000000000000000000061005f565b9161005f565b146102b5565b610499565b90565b905090565b90825f939282370152565b9091826103498161035093610329565b809361032e565b0190565b909161035f92610339565b90565b634e487b7160e01b5f52604160045260245ffd5b9061038090610137565b810190811067ffffffffffffffff82111761039a57604052565b610362565b906103b26103ab610042565b9283610376565b565b67ffffffffffffffff81116103d2576103ce602091610137565b0190565b610362565b906103e96103e4836103b4565b61039f565b918252565b3d5f14610409576103fe3d6103d7565b903d5f602084013e5b565b61041161024e565b90610407565b5f7f5573657250726f78793a2063616c6c206661696c656400000000000000000000910152565b61044b6016602092610253565b61045481610417565b0190565b61046d9060208101905f81830391015261043e565b90565b1561047757565b61047f610042565b62461bcd60e51b81528061049560048201610458565b0390fd5b925f80949281949350926104b76104ae610042565b93849283610354565b03925af16104cc6104c66103ee565b91610470565b90565b906104e292916104dd61024e565b6102de565b9056fea26469706673582212203d6b60ec9fe7f3a3f7e6cd2dab4ca8a23e134c6df6b771f8a77ba078dee9b06164736f6c634300081e0033","linkReferences":{}},"methodIdentifiers":{"acceptOwnership()":"79ba5097","addSupportedCollateralTokens((address,bytes32,address)[])":"2ec23d66","calcLeverageFlashLoan(uint256,address,address,uint256)":"5adb101c","calcUnleverageFlashLoan(address,address,uint256)":"313b120e","getCollateralValueInLoanToken(address,address,uint256)":"3ba7a314","getLiqLtv(address,address)":"e43478ef","getMaxLtv(address,address)":"62fd6add","getSharesValueInLoanToken(address,address,uint256)":"e30e40cb","getUserCoreLeveragePosition(address,uint256,address,address)":"94ea07bb","getUserProxy(address,uint256)":"14ee89c4","i_liquidationBuffer()":"fb56d3bb","i_morpho()":"96d066f5","i_pendleRouter()":"dd2a7a17","i_slippageBuffer()":"bf43612b","i_userProxyImplementation()":"d5c96c17","leverage(address,(uint256,address,address,uint256,(uint256,uint256,uint256,uint256,uint256),address,address,(uint8,address,bytes,bool),(address,uint256,((uint256,uint256,uint256,uint8,address,address,address,address,uint256,uint256,uint256,bytes),bytes,uint256)[],((uint256,uint256,uint256,uint8,address,address,address,address,uint256,uint256,uint256,bytes),bytes,uint256)[],bytes)))":"867dd3fd","onMorphoFlashLoan(uint256,bytes)":"31f57072","owner()":"8da5cb5b","pendingOwner()":"e30c3978","renounceOwnership()":"715018a6","s_userProxies(address,uint256)":"94d49ab7","setManager(address,bool)":"a5e90eee","transferOwnership(address)":"f2fde38b","unleverage(address,(uint256,address,address,uint256,uint256,address,address,(uint8,address,bytes,bool),(address,uint256,((uint256,uint256,uint256,uint8,address,address,address,address,uint256,uint256,uint256,bytes),bytes,uint256)[],((uint256,uint256,uint256,uint8,address,address,address,address,uint256,uint256,uint256,bytes),bytes,uint256)[],bytes)))":"da6248b6"},"id":74}