{"abi":[{"type":"constructor","inputs":[{"name":"morphoAddress","type":"address","internalType":"address"},{"name":"pendleRouter","type":"address","internalType":"address"}],"stateMutability":"nonpayable"},{"type":"function","name":"acceptOwnership","inputs":[],"outputs":[],"stateMutability":"nonpayable"},{"type":"function","name":"addSupportedCollateralToken","inputs":[{"name":"config","type":"tuple","internalType":"struct CollateralTokenConfig","components":[{"name":"collateralToken","type":"address","internalType":"address"},{"name":"morphoMarketId","type":"bytes32","internalType":"bytes32"},{"name":"pendleMarket","type":"address","internalType":"address"}]}],"outputs":[],"stateMutability":"nonpayable"},{"type":"function","name":"calcFlashLoanAmount","inputs":[{"name":"collateralToken","type":"address","internalType":"address"},{"name":"loanToken","type":"address","internalType":"address"},{"name":"amountCollateral","type":"uint256","internalType":"uint256"}],"outputs":[{"name":"","type":"uint256","internalType":"uint256"}],"stateMutability":"view"},{"type":"function","name":"getCollateralValueInLoanToken","inputs":[{"name":"collateralToken","type":"address","internalType":"address"},{"name":"loanToken","type":"address","internalType":"address"},{"name":"amountCollateral","type":"uint256","internalType":"uint256"}],"outputs":[{"name":"","type":"uint256","internalType":"uint256"}],"stateMutability":"view"},{"type":"function","name":"getCoreLeveragePosition","inputs":[{"name":"manager","type":"address","internalType":"address"},{"name":"collateralToken","type":"address","internalType":"address"},{"name":"loanToken","type":"address","internalType":"address"}],"outputs":[{"name":"","type":"tuple","internalType":"struct CoreLeveragePosition","components":[{"name":"amountCollateral","type":"uint256","internalType":"uint256"},{"name":"sharesBorrowed","type":"uint256","internalType":"uint256"}]}],"stateMutability":"view"},{"type":"function","name":"getLiqLtv","inputs":[{"name":"collateralToken","type":"address","internalType":"address"},{"name":"loanToken","type":"address","internalType":"address"}],"outputs":[{"name":"","type":"uint256","internalType":"uint256"}],"stateMutability":"view"},{"type":"function","name":"getMaxLtv","inputs":[{"name":"collateralToken","type":"address","internalType":"address"},{"name":"loanToken","type":"address","internalType":"address"}],"outputs":[{"name":"","type":"uint256","internalType":"uint256"}],"stateMutability":"view"},{"type":"function","name":"getSafeLtv","inputs":[{"name":"collateralToken","type":"address","internalType":"address"},{"name":"loanToken","type":"address","internalType":"address"}],"outputs":[{"name":"","type":"uint256","internalType":"uint256"}],"stateMutability":"view"},{"type":"function","name":"getSharesToAsset","inputs":[{"name":"collateralToken","type":"address","internalType":"address"},{"name":"loanToken","type":"address","internalType":"address"},{"name":"sharesBorrowed","type":"uint256","internalType":"uint256"}],"outputs":[{"name":"amountRepay","type":"uint256","internalType":"uint256"}],"stateMutability":"view"},{"type":"function","name":"i_morpho","inputs":[],"outputs":[{"name":"","type":"address","internalType":"contract IMorpho"}],"stateMutability":"view"},{"type":"function","name":"i_pendleRouter","inputs":[],"outputs":[{"name":"","type":"address","internalType":"contract IPAllActionV3"}],"stateMutability":"view"},{"type":"function","name":"leverage","inputs":[{"name":"params","type":"tuple","internalType":"struct LeverageParams","components":[{"name":"collateralToken","type":"address","internalType":"address"},{"name":"loanToken","type":"address","internalType":"address"},{"name":"amountCollateral","type":"uint256","internalType":"uint256"},{"name":"approxParams","type":"tuple","internalType":"struct ApproxParams","components":[{"name":"guessMin","type":"uint256","internalType":"uint256"},{"name":"guessMax","type":"uint256","internalType":"uint256"},{"name":"guessOffchain","type":"uint256","internalType":"uint256"},{"name":"maxIteration","type":"uint256","internalType":"uint256"},{"name":"eps","type":"uint256","internalType":"uint256"}]},{"name":"pendleSwap","type":"address","internalType":"address"},{"name":"tokenMintSy","type":"address","internalType":"address"},{"name":"swapData","type":"tuple","internalType":"struct SwapData","components":[{"name":"swapType","type":"uint8","internalType":"enum SwapType"},{"name":"extRouter","type":"address","internalType":"address"},{"name":"extCalldata","type":"bytes","internalType":"bytes"},{"name":"needScale","type":"bool","internalType":"bool"}]},{"name":"limitOrderData","type":"tuple","internalType":"struct LimitOrderData","components":[{"name":"limitRouter","type":"address","internalType":"address"},{"name":"epsSkipMarket","type":"uint256","internalType":"uint256"},{"name":"normalFills","type":"tuple[]","internalType":"struct FillOrderParams[]","components":[{"name":"order","type":"tuple","internalType":"struct Order","components":[{"name":"salt","type":"uint256","internalType":"uint256"},{"name":"expiry","type":"uint256","internalType":"uint256"},{"name":"nonce","type":"uint256","internalType":"uint256"},{"name":"orderType","type":"uint8","internalType":"enum IPLimitOrderType.OrderType"},{"name":"token","type":"address","internalType":"address"},{"name":"YT","type":"address","internalType":"address"},{"name":"maker","type":"address","internalType":"address"},{"name":"receiver","type":"address","internalType":"address"},{"name":"makingAmount","type":"uint256","internalType":"uint256"},{"name":"lnImpliedRate","type":"uint256","internalType":"uint256"},{"name":"failSafeRate","type":"uint256","internalType":"uint256"},{"name":"permit","type":"bytes","internalType":"bytes"}]},{"name":"signature","type":"bytes","internalType":"bytes"},{"name":"makingAmount","type":"uint256","internalType":"uint256"}]},{"name":"flashFills","type":"tuple[]","internalType":"struct FillOrderParams[]","components":[{"name":"order","type":"tuple","internalType":"struct Order","components":[{"name":"salt","type":"uint256","internalType":"uint256"},{"name":"expiry","type":"uint256","internalType":"uint256"},{"name":"nonce","type":"uint256","internalType":"uint256"},{"name":"orderType","type":"uint8","internalType":"enum IPLimitOrderType.OrderType"},{"name":"token","type":"address","internalType":"address"},{"name":"YT","type":"address","internalType":"address"},{"name":"maker","type":"address","internalType":"address"},{"name":"receiver","type":"address","internalType":"address"},{"name":"makingAmount","type":"uint256","internalType":"uint256"},{"name":"lnImpliedRate","type":"uint256","internalType":"uint256"},{"name":"failSafeRate","type":"uint256","internalType":"uint256"},{"name":"permit","type":"bytes","internalType":"bytes"}]},{"name":"signature","type":"bytes","internalType":"bytes"},{"name":"makingAmount","type":"uint256","internalType":"uint256"}]},{"name":"optData","type":"bytes","internalType":"bytes"}]}]}],"outputs":[],"stateMutability":"nonpayable"},{"type":"function","name":"onMorphoFlashLoan","inputs":[{"name":"amountLoan","type":"uint256","internalType":"uint256"},{"name":"data","type":"bytes","internalType":"bytes"}],"outputs":[],"stateMutability":"nonpayable"},{"type":"function","name":"owner","inputs":[],"outputs":[{"name":"","type":"address","internalType":"address"}],"stateMutability":"view"},{"type":"function","name":"pendingOwner","inputs":[],"outputs":[{"name":"","type":"address","internalType":"address"}],"stateMutability":"view"},{"type":"function","name":"renounceOwnership","inputs":[],"outputs":[],"stateMutability":"pure"},{"type":"function","name":"setManager","inputs":[{"name":"manager","type":"address","internalType":"address"},{"name":"value","type":"bool","internalType":"bool"}],"outputs":[],"stateMutability":"nonpayable"},{"type":"function","name":"transferOwnership","inputs":[{"name":"newOwner","type":"address","internalType":"address"}],"outputs":[],"stateMutability":"nonpayable"},{"type":"function","name":"unleverage","inputs":[{"name":"params","type":"tuple","internalType":"struct UnleverageParams","components":[{"name":"collateralToken","type":"address","internalType":"address"},{"name":"loanToken","type":"address","internalType":"address"},{"name":"sharesToBurn","type":"uint256","internalType":"uint256"},{"name":"amountCollateralToWithdraw","type":"uint256","internalType":"uint256"},{"name":"pendleSwap","type":"address","internalType":"address"},{"name":"tokenRedeemSy","type":"address","internalType":"address"},{"name":"swapData","type":"tuple","internalType":"struct SwapData","components":[{"name":"swapType","type":"uint8","internalType":"enum SwapType"},{"name":"extRouter","type":"address","internalType":"address"},{"name":"extCalldata","type":"bytes","internalType":"bytes"},{"name":"needScale","type":"bool","internalType":"bool"}]},{"name":"limitOrderData","type":"tuple","internalType":"struct LimitOrderData","components":[{"name":"limitRouter","type":"address","internalType":"address"},{"name":"epsSkipMarket","type":"uint256","internalType":"uint256"},{"name":"normalFills","type":"tuple[]","internalType":"struct FillOrderParams[]","components":[{"name":"order","type":"tuple","internalType":"struct Order","components":[{"name":"salt","type":"uint256","internalType":"uint256"},{"name":"expiry","type":"uint256","internalType":"uint256"},{"name":"nonce","type":"uint256","internalType":"uint256"},{"name":"orderType","type":"uint8","internalType":"enum IPLimitOrderType.OrderType"},{"name":"token","type":"address","internalType":"address"},{"name":"YT","type":"address","internalType":"address"},{"name":"maker","type":"address","internalType":"address"},{"name":"receiver","type":"address","internalType":"address"},{"name":"makingAmount","type":"uint256","internalType":"uint256"},{"name":"lnImpliedRate","type":"uint256","internalType":"uint256"},{"name":"failSafeRate","type":"uint256","internalType":"uint256"},{"name":"permit","type":"bytes","internalType":"bytes"}]},{"name":"signature","type":"bytes","internalType":"bytes"},{"name":"makingAmount","type":"uint256","internalType":"uint256"}]},{"name":"flashFills","type":"tuple[]","internalType":"struct FillOrderParams[]","components":[{"name":"order","type":"tuple","internalType":"struct Order","components":[{"name":"salt","type":"uint256","internalType":"uint256"},{"name":"expiry","type":"uint256","internalType":"uint256"},{"name":"nonce","type":"uint256","internalType":"uint256"},{"name":"orderType","type":"uint8","internalType":"enum IPLimitOrderType.OrderType"},{"name":"token","type":"address","internalType":"address"},{"name":"YT","type":"address","internalType":"address"},{"name":"maker","type":"address","internalType":"address"},{"name":"receiver","type":"address","internalType":"address"},{"name":"makingAmount","type":"uint256","internalType":"uint256"},{"name":"lnImpliedRate","type":"uint256","internalType":"uint256"},{"name":"failSafeRate","type":"uint256","internalType":"uint256"},{"name":"permit","type":"bytes","internalType":"bytes"}]},{"name":"signature","type":"bytes","internalType":"bytes"},{"name":"makingAmount","type":"uint256","internalType":"uint256"}]},{"name":"optData","type":"bytes","internalType":"bytes"}]}]}],"outputs":[],"stateMutability":"nonpayable"},{"type":"event","name":"OwnershipTransferStarted","inputs":[{"name":"previousOwner","type":"address","indexed":true,"internalType":"address"},{"name":"newOwner","type":"address","indexed":true,"internalType":"address"}],"anonymous":false},{"type":"event","name":"OwnershipTransferred","inputs":[{"name":"previousOwner","type":"address","indexed":true,"internalType":"address"},{"name":"newOwner","type":"address","indexed":true,"internalType":"address"}],"anonymous":false},{"type":"error","name":"FlashLeverageCore__AmountCannotBeZero","inputs":[]},{"type":"error","name":"FlashLeverageCore__ExceedsMaxLTV","inputs":[]},{"type":"error","name":"FlashLeverageCore__InsufficientCollateralDeposited","inputs":[]},{"type":"error","name":"FlashLeverageCore__InsufficientSharesBorrowed","inputs":[]},{"type":"error","name":"FlashLeverageCore__InvalidCollateralToken","inputs":[]},{"type":"error","name":"FlashLeverageCore__InvalidCollateralTokenDecimals","inputs":[]},{"type":"error","name":"FlashLeverageCore__NotAManager","inputs":[]},{"type":"error","name":"FlashLeverageCore__RenounceOwnershipDisabled","inputs":[]},{"type":"error","name":"FlashLeverageCore__UnsupportedCollateralToken","inputs":[]},{"type":"error","name":"FlashLeverageCore__UntrustedLender","inputs":[]},{"type":"error","name":"OwnableInvalidOwner","inputs":[{"name":"owner","type":"address","internalType":"address"}]},{"type":"error","name":"OwnableUnauthorizedAccount","inputs":[{"name":"account","type":"address","internalType":"address"}]},{"type":"error","name":"ReentrancyGuardReentrantCall","inputs":[]},{"type":"error","name":"SafeERC20FailedOperation","inputs":[{"name":"token","type":"address","internalType":"address"}]}],"bytecode":{"object":"0x60c0604052346100b95761001a61001461018d565b906101af565b6100226100be565b61539361050782396080518181816104d601528181610a0d01528181610ff501528181611d3501528181612236015281816123c901528181612bf401528181612eed0152818161485e0152818161489c0152818161499201528181614f7d01528181614fad01526150ea015260a05181818161082b01528181613fd2015281816140020152818161426a015261429a015261539390f35b6100c4565b60405190565b5f80fd5b601f801991011690565b634e487b7160e01b5f52604160045260245ffd5b906100f0906100c8565b810190811060018060401b0382111761010857604052565b6100d2565b906101206101196100be565b92836100e6565b565b5f80fd5b60018060a01b031690565b61013a90610126565b90565b61014681610131565b0361014d57565b5f80fd5b9050519061015e8261013d565b565b9190604083820312610188578061017c610185925f8601610151565b93602001610151565b90565b610122565b6101ab61589a803803806101a08161010d565b928339810190610160565b9091565b906101bd91339190916101bf565b565b906101ca929161021c565b565b90565b90565b6101e66101e16101eb926101cc565b6101cf565b610126565b90565b6101f7906101d2565b90565b61020390610131565b9052565b919061021a905f602085019401906101fa565b565b9161022691610278565b8061024161023b6102365f6101ee565b610131565b91610131565b146102515761024f9061041e565b565b61027461025d5f6101ee565b5f918291631e4fbdf760e01b835260048301610207565b0390fd5b906102829161030d565b565b90565b90565b61029e6102996102a392610284565b6101cf565b610287565b90565b6102b0600161028a565b90565b5f1b90565b906102c45f19916102b3565b9181191691161790565b6102e26102dd6102e792610287565b6101cf565b610287565b90565b90565b906103026102fd610309926102ce565b6102ea565b82546102b8565b9055565b906103179161035f565b6103296103226102a6565b60036102ed565b565b61033f61033a61034492610126565b6101cf565b610126565b90565b6103509061032b565b90565b61035c90610347565b90565b61036b6103709261038d565b610353565b60a052565b61037e9061032b565b90565b61038a90610375565b90565b61039690610381565b608052565b1b90565b919060086103bf9102916103b960018060a01b038461039b565b9261039b565b9181191691161790565b6103d29061032b565b90565b6103de906103c9565b90565b90565b91906103fa6103f5610402936103d5565b6103e1565b90835461039f565b9055565b5f90565b61041c91610416610406565b916103e4565b565b6104329061042d5f600561040a565b6104a5565b565b5f1c90565b60018060a01b031690565b61045061045591610434565b610439565b90565b6104629054610444565b90565b9061047660018060a01b03916102b3565b9181191691161790565b9061049561049061049c926103d5565b6103e1565b8254610465565b9055565b5f0190565b6104af6004610458565b6104ba826004610480565b906104ee6104e87f8be0079c531659141344cd1fd0a4f28419497f9722a3daafe3b4186f6b6457e0936103d5565b916103d5565b916104f76100be565b80610501816104a0565b0390a356fe60806040526004361015610013575b61096c565b61001d5f3561014c565b806331f57072146101475780633ba7a314146101425780635001c6991461013d57806362fd6add146101385780636353c7e314610133578063715018a61461012e57806379ba5097146101295780638da5cb5b1461012457806396d066f51461011f578063a12e89d01461011a578063a5e90eee14610115578063b9c1b42314610110578063ccf5e8ef1461010b578063cedcf9a414610106578063dc72f25514610101578063dd2a7a17146100fc578063e30c3978146100f7578063e43478ef146100f25763f2fde38b0361000e57610939565b6108e5565b6108b0565b61087b565b6107f3565b61073d565b610707565b6106d4565b610657565b6105cf565b610551565b61049f565b61044a565b610430565b6103eb565b6103b5565b610355565b6102ea565b610220565b60e01c90565b60405190565b5f80fd5b5f80fd5b5f80fd5b90565b61017081610164565b0361017757565b5f80fd5b9050359061018882610167565b565b5f80fd5b5f80fd5b5f80fd5b909182601f830112156101d05781359167ffffffffffffffff83116101cb5760200192600183028401116101c657565b610192565b61018e565b61018a565b919091604081840312610216576101ee835f830161017b565b92602082013567ffffffffffffffff81116102115761020d9201610196565b9091565b610160565b61015c565b5f0190565b3461024f576102396102333660046101d5565b916109fd565b610241610152565b8061024b8161021b565b0390f35b610158565b60018060a01b031690565b61026890610254565b90565b6102748161025f565b0361027b57565b5f80fd5b9050359061028c8261026b565b565b90916060828403126102c3576102c06102a9845f850161027f565b936102b7816020860161027f565b9360400161017b565b90565b61015c565b6102d190610164565b9052565b91906102e8905f602085019401906102c8565b565b3461031b5761031761030661030036600461028e565b91610c4d565b61030e610152565b918291826102d5565b0390f35b610158565b5f80fd5b908160609103126103325790565b610320565b906060828203126103505761034d915f01610324565b90565b61015c565b346103835761036d610368366004610337565b61120a565b610375610152565b8061037f8161021b565b0390f35b610158565b91906040838203126103b057806103a46103ad925f860161027f565b9360200161027f565b90565b61015c565b346103e6576103e26103d16103cb366004610388565b9061126c565b6103d9610152565b918291826102d5565b0390f35b610158565b3461041c57610418610407610401366004610388565b906112c5565b61040f610152565b918291826102d5565b0390f35b610158565b5f91031261042b57565b61015c565b3461044557610440366004610421565b6112ec565b610158565b346104785761045a366004610421565b610462611308565b61046a610152565b806104748161021b565b0390f35b610158565b6104869061025f565b9052565b919061049d905f6020850194019061047d565b565b346104cf576104af366004610421565b6104cb6104ba61135d565b6104c2610152565b9182918261048a565b0390f35b610158565b7f000000000000000000000000000000000000000000000000000000000000000090565b90565b61050f61050a61051492610254565b6104f8565b610254565b90565b610520906104fb565b90565b61052c90610517565b90565b61053890610523565b9052565b919061054f905f6020850194019061052f565b565b3461058157610561366004610421565b61057d61056c6104d4565b610574610152565b9182918261053c565b0390f35b610158565b90816101809103126105955790565b610320565b906020828203126105ca575f82013567ffffffffffffffff81116105c5576105c29201610586565b90565b610160565b61015c565b346105fd576105e76105e236600461059a565b611dda565b6105ef610152565b806105f98161021b565b0390f35b610158565b151590565b61061081610602565b0361061757565b5f80fd5b9050359061062882610607565b565b9190604083820312610652578061064661064f925f860161027f565b9360200161061b565b90565b61015c565b346106865761067061066a36600461062a565b90611e59565b610678610152565b806106828161021b565b0390f35b610158565b908161010091031261069a5790565b610320565b906020828203126106cf575f82013567ffffffffffffffff81116106ca576106c7920161068b565b90565b610160565b61015c565b34610702576106ec6106e736600461069f565b6122db565b6106f4610152565b806106fe8161021b565b0390f35b610158565b346107385761073461072361071d36600461028e565b9161239c565b61072b610152565b918291826102d5565b0390f35b610158565b3461076e5761076a61075961075336600461028e565b91612432565b610761610152565b918291826102d5565b0390f35b610158565b90916060828403126107a8576107a561078e845f850161027f565b9361079c816020860161027f565b9360400161027f565b90565b61015c565b6107b690610164565b9052565b906020806107dc936107d25f8201515f8601906107ad565b01519101906107ad565b565b91906107f1905f604085019401906107ba565b565b346108245761082061080f610809366004610773565b91612529565b610817610152565b918291826107de565b0390f35b610158565b7f000000000000000000000000000000000000000000000000000000000000000090565b61085690610517565b90565b6108629061084d565b9052565b9190610879905f60208501940190610859565b565b346108ab5761088b366004610421565b6108a7610896610829565b61089e610152565b91829182610866565b0390f35b610158565b346108e0576108c0366004610421565b6108dc6108cb61255a565b6108d3610152565b9182918261048a565b0390f35b610158565b34610916576109126109016108fb366004610388565b90612570565b610909610152565b918291826102d5565b0390f35b610158565b9060208282031261093457610931915f0161027f565b90565b61015c565b346109675761095161094c36600461091b565b61264a565b610959610152565b806109638161021b565b0390f35b610158565b5f80fd5b1561097757565b5f630bb206c760e31b81528061098f6004820161021b565b0390fd5b6002111561099d57565b5f80fd5b905035906109ae82610993565b565b906020828203126109c9576109c6915f016109a1565b90565b61015c565b634e487b7160e01b5f52602160045260245ffd5b600211156109ec57565b6109ce565b906109fb826109e2565b565b91610a4233610a3c610a36610a317f0000000000000000000000000000000000000000000000000000000000000000610523565b61025f565b9161025f565b14610970565b610a4f82828101906109b0565b610a61610a5b5f6109f1565b916109f1565b145f14610a7757610a7492919091612f20565b5b565b610a8392919091612c66565b610a75565b5f90565b610a9590610517565b90565b90610aa290610a8c565b5f5260205260405f2090565b90610ab890610a8c565b5f5260205260405f2090565b5f1c90565b60018060a01b031690565b610ae0610ae591610ac4565b610ac9565b90565b610af29054610ad4565b90565b610afe906104fb565b90565b610b0a90610af5565b90565b610b1690610517565b90565b5f80fd5b601f801991011690565b634e487b7160e01b5f52604160045260245ffd5b90610b4590610b1d565b810190811067ffffffffffffffff821117610b5f57604052565b610b27565b60e01b90565b90505190610b7782610167565b565b90602082820312610b9257610b8f915f01610b6a565b90565b61015c565b610b9f610152565b3d5f823e3d90fd5b90565b60ff1690565b610bc4610bbf610bc992610ba7565b6104f8565b610baa565b90565b610bd66012610bb0565b90565b90610be390610a8c565b5f5260205260405f2090565b60ff1690565b610c01610c0691610ac4565b610bef565b90565b610c139054610bf5565b90565b634e487b7160e01b5f52601160045260245ffd5b610c36610c3c91610baa565b91610baa565b019060ff8211610c4857565b610c16565b6020610c8a610c85610c806002610c7a610c73610ca097610c6c610a88565b505f610a98565b8890610aae565b01610ae8565b610b01565b610b0d565b63a035b1fe90610c98610152565b938492610b64565b82528180610cb06004820161021b565b03915afa908115610d3657610d0593610cf792610cd5925f91610d08575b5090612f98565b91610cf1610cec610ce4610bcc565b926001610bd9565b610c09565b90610c2a565b610cff610bcc565b91613021565b90565b610d29915060203d8111610d2f575b610d218183610b3b565b810190610b79565b5f610cce565b503d610d17565b610b97565b610d4c90610d476130a3565b610f82565b565b35610d588161026b565b90565b610d64906104fb565b90565b610d7090610d5b565b90565b610d7c90610517565b90565b90505190610d8c8261026b565b565b9091606082840312610dc357610dc0610da9845f8501610d7f565b93610db78160208601610d7f565b93604001610d7f565b90565b61015c565b90565b610dd481610dc8565b03610ddb57565b5f80fd5b35610de981610dcb565b90565b610df590610dc8565b90565b5f80fd5b90610e0f610e08610152565b9283610b3b565b565b5f80fd5b919060a083820312610e8557610e7e90610e2f60a0610dfc565b93610e3c825f8301610d7f565b5f860152610e4d8260208301610d7f565b6020860152610e5f8260408301610d7f565b6040860152610e718260608301610d7f565b6060860152608001610b6a565b6080830152565b610df8565b9060a082820312610ea357610ea0915f01610e15565b90565b61015c565b610eb190610dec565b9052565b9190610ec8905f60208501940190610ea8565b565b610ed4905161025f565b90565b15610ede57565b5f638197c87b60e01b815280610ef66004820161021b565b0390fd5b610f03906104fb565b90565b610f0f90610efa565b90565b610f1b90610517565b90565b610f2781610baa565b03610f2e57565b5f80fd5b90505190610f3f82610f1e565b565b90602082820312610f5a57610f57915f01610f32565b90565b61015c565b15610f6657565b5f63390ca6a760e01b815280610f7e6004820161021b565b0390fd5b610f8d5f8201610d4e565b90610fc56060610faf610faa610fa560408601610d4e565b610d67565b610d73565b632c8ce6bc90610fbd610152565b938492610b64565b82528180610fd56004820161021b565b03915afa908115611205575f809290506111d6575b5061105660a06110197f0000000000000000000000000000000000000000000000000000000000000000610523565b632c3c91579061104b61103661103160208901610ddf565b610dec565b9261103f610152565b95869485938493610b64565b835260048301610eb5565b03915afa9081156111d1575f916111a3575b5090611073846130f1565b61107c816130f1565b61109061108b60208401610eca565b6130f1565b6110a361109d859261025f565b9161025f565b1480611179575b6110b390610ed7565b6110df60206110c96110c486610f06565b610f12565b63313ce567906110d7610152565b938492610b64565b825281806110ef6004820161021b565b03915afa9384156111745761113761113e93611132611144976040955f91611146575b5061112c611126611121610bcc565b610baa565b91610baa565b14610f5f565b613208565b9201610d4e565b90613306565b565b611167915060203d811161116d575b61115f8183610b3b565b810190610f41565b5f611112565b503d611155565b610b97565b506110b38361119b61119561119060208601610eca565b61025f565b9161025f565b1490506110aa565b6111c4915060a03d81116111ca575b6111bc8183610b3b565b810190610e8a565b5f611068565b503d6111b2565b610b97565b6111f7915060603d81116111fe575b6111ef8183610b3b565b810190610d8e565b5090610fea565b503d6111e5565b610b97565b61121390610d3b565b565b90565b61122c61122761123192611215565b6104f8565b610164565b90565b61124466b1a2bc2ec50000611218565b90565b61125661125c91939293610164565b92610164565b820391821161126757565b610c16565b611290916112829161127c610a88565b50612570565b61128a611234565b90611247565b90565b90565b6112aa6112a56112af92611293565b6104f8565b610164565b90565b6112c2662386f26fc10000611296565b90565b6112e9916112db916112d5610a88565b5061126c565b6112e36112b2565b90611247565b90565b5f634f61a71960e11b8152806113046004820161021b565b0390fd5b61131061331c565b61131861255a565b61132a6113248361025f565b9161025f565b0361133a576113389061338d565b565b611355905f91829163118cdaa760e01b83526004830161048a565b0390fd5b5f90565b611365611359565b506113706004610ae8565b90565b9061137d90610a8c565b5f5260205260405f2090565b60ff1690565b61139b6113a091610ac4565b611389565b90565b6113ad905461138f565b90565b156113b757565b5f6307bb643d60e11b8152806113cf6004820161021b565b0390fd5b6113f8906113f36113ee6113e960063390611373565b6113a3565b6113b0565b611448565b565b90565b61141161140c611416926113fa565b6104f8565b610254565b90565b611422906113fd565b90565b1561142c57565b5f630a52f42d60e41b8152806114446004820161021b565b0390fd5b6114a9906114a4611483600161147d6114625f8601610d4e565b61147861147160208801610d4e565b915f610a98565b610aae565b01610ae8565b61149d6114976114925f611419565b61025f565b9161025f565b1415611425565b6114f7565b565b356114b581610167565b90565b6114cc6114c76114d1926113fa565b6104f8565b610164565b90565b156114db57565b5f633af0894160e01b8152806114f36004820161021b565b0390fd5b6115279061152261150a604083016114ab565b61151c6115165f6114b8565b91610164565b116114d4565b611c83565b565b5f80fd5b903590600160800381360303821215611544570190565b611529565b903590600160a00381360303821215611560570190565b611529565b61156e906109f1565b90565b61157a90611565565b9052565b5061158d90602081019061017b565b90565b906080611609611611936115b26115a95f83018361157e565b5f8601906107ad565b6115cc6115c2602083018361157e565b60208601906107ad565b6115e66115dc604083018361157e565b60408601906107ad565b6116006115f6606083018361157e565b60608601906107ad565b8281019061157e565b9101906107ad565b565b600b111561161d57565b5f80fd5b9050359061162e82611613565b565b5061163f906020810190611621565b90565b600b111561164c57565b6109ce565b9061165b82611642565b565b61166690611651565b90565b6116729061165d565b9052565b5061168590602081019061027f565b90565b6116919061025f565b9052565b5f80fd5b5f80fd5b5f80fd5b90356001602003823603038112156116e257016020813591019167ffffffffffffffff82116116dd5760018202360383136116d857565b611699565b611695565b61169d565b60209181520190565b90825f939282370152565b91906117158161170e8161171a956116e7565b80956116f0565b610b1d565b0190565b5061172d90602081019061061b565b90565b61173990610602565b9052565b906117ad9060606117a561179b6080840161176661175d5f890189611630565b5f870190611669565b6117806117766020890189611676565b6020870190611688565b61178d60408801886116a1565b9086830360408801526116fb565b948281019061171e565b910190611730565b90565b90356001602003823603038112156117f157016020813591019167ffffffffffffffff82116117ec5760208202360383136117e757565b611699565b611695565b61169d565b60209181520190565b90565b903560016101800382360303811215611819570190565b61169d565b6004111561182857565b5f80fd5b905035906118398261181e565b565b5061184a90602081019061182c565b90565b6004111561185757565b6109ce565b906118668261184d565b565b6118719061185c565b90565b61187d90611868565b9052565b6119ca916119bb6101808201926118a661189d5f83018361157e565b5f8501906107ad565b6118c06118b6602083018361157e565b60208501906107ad565b6118da6118d0604083018361157e565b60408501906107ad565b6118f46118ea606083018361183b565b6060850190611874565b61190e6119046080830183611676565b6080850190611688565b61192861191e60a0830183611676565b60a0850190611688565b61194261193860c0830183611676565b60c0850190611688565b61195c61195260e0830183611676565b60e0850190611688565b61197861196d61010083018361157e565b6101008501906107ad565b61199461198961012083018361157e565b6101208501906107ad565b6119b06119a561014083018361157e565b6101408501906107ad565b6101608101906116a1565b916101608185039101526116fb565b90565b90611a26906040611a1e611a146119f9606085016119ed5f890189611802565b8682035f880152611881565b611a0660208801886116a1565b9086830360208801526116fb565b948281019061157e565b9101906107ad565b90565b90611a33916119cd565b90565b9035600160600382360303811215611a4c570190565b61169d565b60200190565b9181611a62916117f6565b9081611a73602083028401946117ff565b92835f925b848410611a885750505050505090565b9091929394956020611ab3611aad8385600195038852611aa88b88611a36565b611a29565b98611a51565b940194019294939190611a78565b611b5391611b45611b3a611b1f60a08401611aea611ae15f880188611676565b5f870190611688565b611b04611afa602088018861157e565b60208701906107ad565b611b1160408701876117b0565b908683036040880152611a57565b611b2c60608601866117b0565b908583036060870152611a57565b9260808101906116a1565b9160808185039101526116fb565b90565b989795939196949290966101c08a01975f8b01611b7291611571565b60208a01611b7f9161047d565b60408901611b8c9161047d565b60608801611b999161047d565b60808701611ba6916102c8565b60a08601611bb391611590565b6101408501611bc19161047d565b6101608401611bcf9161047d565b828103610180840152611be19161173d565b90808203906101a00152611bf491611ac1565b90565b5f910312611c0157565b61015c565b5190565b60209181520190565b90825f9392825e0152565b611c3d611c46602093611c4b93611c3481611c06565b93848093611c0a565b95869101611c13565b610b1d565b0190565b611c73611c80949293611c6960608401955f85019061047d565b60208301906102c8565b6040818403910152611c1e565b90565b33611c8f5f8301610d4e565b611d2f611c9e60208501610d4e565b92611d20611cae604087016114ab565b611cba858483916133c7565b611cc685878391612432565b965f939591879060608301611cde6101008501610d4e565b91611cec6101208601610d4e565b93611d0b611cff8761014081019061152d565b96610160810190611549565b96611d14610152565b9b8c9a60208c01611b56565b60208201810382520382610b3b565b91611d597f0000000000000000000000000000000000000000000000000000000000000000610523565b63e0232b4292919392813b15611dd5575f611d8791611d928296611d7b610152565b98899788968795610b64565b855260048501611c4f565b03925af18015611dd057611da4575b50565b611dc3905f3d8111611dc9575b611dbb8183610b3b565b810190611bf7565b5f611da1565b503d611db1565b610b97565b610b19565b611de3906113d3565b565b90611df791611df26130a3565b611e43565b565b5f1b90565b90611e0a60ff91611df9565b9181191691161790565b611e1d90610602565b90565b90565b90611e38611e33611e3f92611e14565b611e20565b8254611dfe565b9055565b611e52611e5792916006611373565b611e23565b565b90611e6391611de5565b565b611e8a90611e85611e80611e7b60063390611373565b6113a3565b6113b0565b611e8c565b565b611ebc90611eb7611e9f604083016114ab565b611eb1611eab5f6114b8565b91610164565b116114d4565b611ebe565b565b611eee90611ee9611ed1606083016114ab565b611ee3611edd5f6114b8565b91610164565b116114d4565b6120a1565b565b90611efa90610a8c565b5f5260205260405f2090565b90611f1090610a8c565b5f5260205260405f2090565b90611f2690610a8c565b5f5260205260405f2090565b90565b90565b611f44611f4991610ac4565b611f35565b90565b611f569054611f38565b90565b15611f6057565b5f639ed7123360e01b815280611f786004820161021b565b0390fd5b15611f8357565b5f631700aa6760e01b815280611f9b6004820161021b565b0390fd5b90611faa9103610164565b90565b90611fb95f1991611df9565b9181191691161790565b611fd7611fd2611fdc92610164565b6104f8565b610164565b90565b90565b90611ff7611ff2611ffe92611fc3565b611fdf565b8254611fad565b9055565b989795939196949290966101408a01975f8b0161201e91611571565b60208a0161202b9161047d565b604089016120389161047d565b606088016120459161047d565b60808701612052916102c8565b60a0860161205f916102c8565b60c0850161206c9161047d565b60e084016120799161047d565b82810361010084015261208b9161173d565b9080820390610120015261209e91611ac1565b90565b336120ad5f8301610d4e565b6122306120bc60208501610d4e565b926122216120cc604087016114ab565b956120d9606082016114ab565b906121c16121056121006120f96120f260078990611ef0565b8a90611f06565b8a90611f1c565b611f32565b61212d61211460018301611f4c565b6121266121208d610164565b91610164565b1015611f59565b61215461213b5f8301611f4c565b61214d61214787610164565b91610164565b1015611f7c565b6121738461216d5f84019161216883611f4c565b611f9f565b90611fe2565b6121938a61218d600184019161218883611f4c565b611f9f565b90611fe2565b8780916121bb8b80926121b560016121ac5f8401611f4c565b96939201611f4c565b9161239c565b92613427565b6121cd86888a9161239c565b9760019496928891906121e260808501610d4e565b916121ef60a08601610d4e565b9361220c6122018760c081019061152d565b9660e0810190611549565b96612215610152565b9b8c9a60208c01612002565b60208201810382520382610b3b565b9161225a7f0000000000000000000000000000000000000000000000000000000000000000610523565b63e0232b4292919392813b156122d6575f61228891612293829661227c610152565b98899788968795610b64565b855260048501611c4f565b03925af180156122d1576122a5575b50565b6122c4905f3d81116122ca575b6122bc8183610b3b565b810190611bf7565b5f6122a2565b503d6122b2565b610b97565b610b19565b6122e490611e65565b565b906122f09061025f565b9052565b906122fe90610164565b9052565b61230c60a0610dfc565b90565b9061238e6123856004612320612302565b9461233761232f5f8301610ae8565b5f88016122e6565b61234f61234660018301610ae8565b602088016122e6565b61236761235e60028301610ae8565b604088016122e6565b61237f61237660038301610ae8565b606088016122e6565b01611f4c565b608084016122f4565b565b6123999061230f565b90565b6123c76123c26123fc94936123bd6123ed946123b6610a88565b505f610a98565b610aae565b612390565b7f0000000000000000000000000000000000000000000000000000000000000000613728565b93925090509190919091613ad5565b90565b90565b61241661241161241b926123ff565b6104f8565b610164565b90565b61242f670de0b6b3a7640000612402565b90565b61247d9061247861245361249f95612448610a88565b508390869091610c4d565b91612472839161246c61246461241e565b9188906112c5565b90611247565b90613b10565b611247565b9061249961249461248c610bcc565b926001610bd9565b610c09565b91613021565b90565b6124ac6040610dfc565b90565b5f90565b6124bb6124a2565b90602080836124c86124af565b8152016124d36124af565b81525050565b6124e16124b3565b90565b9061251b61251260016124f56124a2565b9461250c6125045f8301611f4c565b5f88016122f4565b01611f4c565b602084016122f4565b565b612526906124e4565b90565b9161254d61255292612548612557956125406124d9565b506007611ef0565b611f06565b611f1c565b61251d565b90565b612562611359565b5061256d6005610ae8565b90565b6125916125979261258c600493612585610a88565b505f610a98565b610aae565b01611f4c565b90565b6125ab906125a66130a3565b6125eb565b565b906125be60018060a01b0391611df9565b9181191691161790565b90565b906125e06125db6125e792610a8c565b6125c8565b82546125ad565b9055565b6125f68160056125cb565b6125fe61135d565b9061263261262c7f38d16b8cac22d99fc7c124b9cd0de2d3fa1faef420bfe791d8c362d765e2270093610a8c565b91610a8c565b9161263b610152565b806126458161021b565b0390a3565b6126539061259a565b565b906126689291612663613b63565b612b7b565b612670613bc8565b565b61267b90610254565b90565b61268781612672565b0361268e57565b5f80fd5b9050359061269f8261267e565b565b5f80fd5b67ffffffffffffffff81116126c3576126bf602091610b1d565b0190565b610b27565b909291926126dd6126d8826126a5565b610dfc565b938185526020850190828401116126f9576126f7926116f0565b565b6126a1565b9080601f8301121561271c57816020612719933591016126c8565b90565b61018a565b919091608081840312612798576127386080610dfc565b92612745815f8401611621565b5f850152612756816020840161027f565b602085015260408201359167ffffffffffffffff83116127935761277f8261278c9483016126fe565b604086015260600161061b565b6060830152565b610e11565b610df8565b67ffffffffffffffff81116127b55760208091020190565b610b27565b919091610180818403126128ca576127d3610180610dfc565b926127e0815f840161017b565b5f8501526127f1816020840161017b565b6020850152612803816040840161017b565b6040850152612815816060840161182c565b6060850152612827816080840161027f565b60808501526128398160a0840161027f565b60a085015261284b8160c0840161027f565b60c085015261285d8160e0840161027f565b60e085015261287081610100840161017b565b61010085015261288481610120840161017b565b61012085015261289881610140840161017b565b61014085015261016082013567ffffffffffffffff81116128c5576128bd92016126fe565b610160830152565b610e11565b610df8565b91909160608184031261294c576128e66060610dfc565b925f82013567ffffffffffffffff811161294757816129069184016127ba565b5f85015260208201359167ffffffffffffffff83116129425761292e8261293b9483016126fe565b602086015260400161017b565b6040830152565b610e11565b610e11565b610df8565b9291906129656129608261279d565b610dfc565b93818552602080860192028101918383116129bc5781905b83821061298b575050505050565b813567ffffffffffffffff81116129b7576020916129ac87849387016128cf565b81520191019061297d565b61018a565b610192565b9080601f830112156129df578160206129dc93359101612951565b90565b61018a565b91909160a081840312612a9c576129fb60a0610dfc565b92612a08815f840161027f565b5f850152612a19816020840161017b565b6020850152604082013567ffffffffffffffff8111612a975781612a3e9184016129c1565b6040850152606082013567ffffffffffffffff8111612a925781612a639184016129c1565b6060850152608082013567ffffffffffffffff8111612a8d57612a8692016126fe565b6080830152565b610e11565b610e11565b610e11565b610df8565b9061014082820312612b6a57612ab9815f84016109a1565b92612ac78260208501612692565b92612ad58360408301612692565b92612ae38160608401612692565b92612af1826080850161017b565b92612aff8360a0830161017b565b92612b0d8160c08401612692565b92612b1b8260e08501612692565b9261010081013567ffffffffffffffff8111612b655783612b3d918301612721565b9261012082013567ffffffffffffffff8111612b6057612b5d92016129e4565b90565b610160565b610160565b61015c565b612b7890610517565b90565b91612beb612bb4612bba612bde612bc8612b9f612bc096612bce9890810190612aa1565b9a969f95979099949e939b929c919850612b6f565b9d612b6f565b94612b6f565b9a9798612b6f565b93612b6f565b93949582908a8d908a9293613bdc565b9487909192939495613fac565b612c1f82612c187f0000000000000000000000000000000000000000000000000000000000000000610523565b86916140c8565b612c27610a88565b5080612c3b612c3586610164565b91610164565b11612c47575b50505050565b612c5d93612c5491611f9f565b909190916140df565b5f808080612c41565b90612c719291612655565b565b90612c869291612c81613b63565b612dfa565b612c8e613bc8565b565b919060a083820312612d0057612cf990612caa60a0610dfc565b93612cb7825f830161017b565b5f860152612cc8826020830161017b565b6020860152612cda826040830161017b565b6040860152612cec826060830161017b565b606086015260800161017b565b6080830152565b610df8565b906101c082820312612dd057612d1d815f84016109a1565b92612d2b8260208501612692565b92612d398360408301612692565b92612d478160608401612692565b92612d55826080850161017b565b92612d638360a08301612c90565b92612d72816101408401612692565b92612d81826101608501612692565b9261018081013567ffffffffffffffff8111612dcb5783612da3918301612721565b926101a082013567ffffffffffffffff8111612dc657612dc392016129e4565b90565b610160565b610160565b61015c565b612de4612dea91939293610164565b92610164565b8201809211612df557565b610c16565b918101612e0691612d05565b9194985091929496612e1790612b6f565b95612e2190612b6f565b96612e2b90612b6f565b979492612e3790612b6f565b93612e4190612b6f565b919091889488948b909192939495612e5897614244565b612e6191612dd5565b918084848791612e7093613427565b8084848791612e7e93614359565b91600790612e8b91611ef0565b90612e9591611f06565b83612e9f91611f1c565b612ea890611f32565b91825f0190612eb682611f4c565b90612ec091612dd5565b612ec991611fe2565b9060010190612ed782611f4c565b90612ee191612dd5565b612eea91611fe2565b907f0000000000000000000000000000000000000000000000000000000000000000612f1590610523565b612f1e926140c8565b565b90612f2b9291612c73565b565b612f3c612f4291939293610164565b92610164565b91612f4e838202610164565b928184041490151715612f5d57565b610c16565b634e487b7160e01b5f52601260045260245ffd5b612f82612f8891610164565b91610164565b908115612f93570490565b612f62565b612fbc91612fae91612fa8610a88565b50612f2d565b612fb661241e565b90612f76565b90565b612fcb612fd191610baa565b91610baa565b90039060ff8211612fde57565b610c16565b612fec90610baa565b604d8111612ffa57600a0a90565b610c16565b61300b61301191610164565b91610164565b90811561301c570490565b612f62565b9161302a610a88565b508161303e61303883610baa565b91610baa565b115f146130645761305661305b916130619493612fbf565b612fe3565b90612fff565b90565b908061307861307284610baa565b91610baa565b105f1461309e576130906130959161309b9493612fbf565b612fe3565b90612f2d565b90565b505090565b6130ab61135d565b6130c46130be6130b961331c565b61025f565b9161025f565b036130cb57565b6130ed6130d661331c565b5f91829163118cdaa760e01b83526004830161048a565b0390fd5b61311c61312b61313092613103610152565b92839160046020840163161765e160e11b81520161048a565b60208201810382520382610b3b565b614396565b565b61313c9051610164565b90565b906131b5608060046131bb946131625f820161315c5f8801610eca565b906125cb565b61317b6001820161317560208801610eca565b906125cb565b6131946002820161318e60408801610eca565b906125cb565b6131ad600382016131a760608801610eca565b906125cb565b019201613132565b90611fe2565b565b906131c79161313f565b565b6131dd6131d86131e292610baa565b6104f8565b610baa565b90565b90565b906131fd6131f8613204926131c9565b6131e5565b8254611dfe565b9055565b6132729061323f8161323a6132295f61322360208701610eca565b90610a98565b6132345f8601610eca565b90610aae565b6131bd565b602061325c6132576132525f8501610eca565b610f06565b610f12565b63313ce5679061326a610152565b948592610b64565b825281806132826004820161021b565b03915afa9081156132eb576132b5925f926132b7575b506132b0906132aa5f60019201610eca565b90610bd9565b6131e8565b565b6132b09192506132dd9060203d81116132e4575b6132d58183610b3b565b810190610f41565b9190613298565b503d6132cb565b610b97565b906132fa90610a8c565b5f5260205260405f2090565b61331561331a929160026132f0565b6125cb565b565b613324611359565b503390565b1b90565b9190600861334d91029161334760018060a01b0384613329565b92613329565b9181191691161790565b919061336d61336861337593610a8c565b6125c8565b90835461332d565b9055565b61338b91613385611359565b91613357565b565b6133a19061339c5f6005613379565b6143ab565b565b6133ac906104fb565b90565b6133b8906133a3565b90565b6133c490610517565b90565b91806133db6133d55f6114b8565b91610164565b146133ff576133ec6133fd936133af565b916133f6306133bb565b919261447b565b565b505050565b1561340b57565b5f6315138ff160e11b8152806134236004820161021b565b0390fd5b91613436908390839091610c4d565b928061344a6134445f6114b8565b91610164565b146134a55761349161349c9261348b6134a3966134866134969561347861347360018790610bd9565b610c09565b613480610bcc565b91613021565b613b10565b9461126c565b610164565b91610164565b1115613404565b565b50505050565b6fffffffffffffffffffffffffffffffff1690565b6134c9816134ab565b036134d057565b5f80fd5b905051906134e1826134c0565b565b919060c0838203126135655761355e906134fd60c0610dfc565b9361350a825f83016134d4565b5f86015261351b82602083016134d4565b602086015261352d82604083016134d4565b604086015261353f82606083016134d4565b606086015261355182608083016134d4565b608086015260a0016134d4565b60a0830152565b610df8565b9060c08282031261358357613580915f016134e3565b90565b61015c565b61359290516134ab565b90565b6135a96135a46135ae926134ab565b6104f8565b610164565b90565b6135c56135c06135ca926113fa565b6104f8565b6134ab565b90565b6135d6906104fb565b90565b6135e2906135cd565b90565b6135ee90610517565b90565b90608080613649936136095f8201515f860190611688565b61361b60208201516020860190611688565b61362d60408201516040860190611688565b61363f60608201516060860190611688565b01519101906107ad565b565b613654906134ab565b9052565b9060a0806136c2936136705f8201515f86019061364b565b6136826020820151602086019061364b565b6136946040820151604086019061364b565b6136a66060820151606086019061364b565b6136b86080820151608086019061364b565b015191019061364b565b565b9160a06136e69294936136df6101608201965f8301906135f1565b0190613658565b565b6136f46136fa916134ab565b916134ab565b01906fffffffffffffffffffffffffffffffff821161371557565b610c16565b90613724906134ab565b9052565b60c061378b91613736610a88565b5061373f610a88565b50613748610a88565b50613751610a88565b5061376461375e856144cf565b91610523565b613780635c60e39a613774610152565b95869485938493610b64565b835260048301610eb5565b03915afa908115613a76575f91613a48575b50906137bd426137b76137b260808601613588565b613595565b90611247565b806137d06137ca5f6114b8565b91610164565b141580613a22575b806139f4575b61383c575b50506137f05f8201613588565b6137fc60208301613588565b9261383961383361382d613827613821606061381a60408a01613588565b9801613588565b95613595565b96613595565b94613595565b92613595565b90565b602061385a61385561385060608601610eca565b6135d9565b6135e5565b638c00bf6b939061387d8695613888613871610152565b97889586948594610b64565b8452600484016136c4565b03915afa9182156139ef576138c4926138be915f916139c1575b50916138b86138b360408701613588565b613595565b92614512565b90614585565b6138ec6138d0826146d8565b6138e660408501916138e183613588565b6136e8565b9061371a565b6139136138f8826146d8565b61390d5f85019161390883613588565b6136e8565b9061371a565b61391f60a08301613588565b61393161392b5f6135b1565b916134ab565b0361393d575b806137e3565b61399f61399a6139646139bb9361395e61395960a08801613588565b613595565b90614585565b6139808161397b6139765f8901613588565b613595565b611247565b61399461398f60208801613588565b613595565b91614723565b6146d8565b6139b560208401916139b083613588565b6136e8565b9061371a565b5f613937565b6139e2915060203d81116139e8575b6139da8183610b3b565b810190610b79565b5f6138a2565b503d6139d0565b610b97565b50613a0160608301610eca565b613a1b613a15613a105f611419565b61025f565b9161025f565b14156137de565b50613a2f60408401613588565b613a41613a3b5f6135b1565b916134ab565b14156137d8565b613a69915060c03d8111613a6f575b613a618183610b3b565b81019061356a565b5f61379d565b503d613a57565b610b97565b90565b613a92613a8d613a9792613a7b565b6104f8565b610164565b90565b613aa46001613a7e565b90565b90565b613abe613ab9613ac392613aa7565b6104f8565b610164565b90565b613ad2620f4240613aaa565b90565b91613b07613af8613b0d94613ae8610a88565b5093613af2613a9a565b90612dd5565b91613b01613ac6565b90612dd5565b9161475f565b90565b90613b2f613b3492613b20610a88565b50613b2961241e565b90612f2d565b612f76565b90565b90565b613b4e613b49613b5392613b37565b6104f8565b610164565b90565b613b606002613b3a565b90565b613b6d6003611f4c565b613b86613b80613b7b613b56565b610164565b91610164565b14613b9f57613b9d613b96613b56565b6003611fe2565b565b5f633ee5aeb560e01b815280613bb76004820161021b565b0390fd5b613bc56001613a7e565b90565b613bda613bd3613bbb565b6003611fe2565b565b91613bff613bfa613c0993613bf5613c1098965f610a98565b610aae565b612390565b9283919091614835565b505061497a565b565b613c1b90610517565b90565b9091606082840312613c5357613c50613c39845f8501610b6a565b93613c478160208601610b6a565b93604001610b6a565b90565b61015c565b613c77613c80602093613c8593613c6e81611c06565b938480936116e7565b95869101611c13565b610b1d565b0190565b90613cd790606080613ccc60808401613ca85f8801515f870190611669565b613cba60208801516020870190611688565b60408701518582036040870152613c58565b940151910190611730565b90565b613d3b91608060a0820192613cf55f8201515f850190611688565b613d07602082015160208501906107ad565b613d1960408201516040850190611688565b613d2b60608201516060850190611688565b0151906080818403910152613c89565b90565b5190565b60200190565b613e3091610160610180820192613d655f8201515f8501906107ad565b613d77602082015160208501906107ad565b613d89604082015160408501906107ad565b613d9b60608201516060850190611874565b613dad60808201516080850190611688565b613dbf60a082015160a0850190611688565b613dd160c082015160c0850190611688565b613de360e082015160e0850190611688565b613df76101008201516101008501906107ad565b613e0b6101208201516101208501906107ad565b613e1f6101408201516101408501906107ad565b015190610160818403910152613c58565b90565b90613e7290604080613e67613e55606085015f8801518682035f880152613d48565b60208701518582036020870152613c58565b9401519101906107ad565b90565b90613e7f91613e33565b90565b60200190565b90613e9c613e9583613d3e565b80926117f6565b9081613ead60208302840194613d42565b925f915b838310613ec057505050505090565b90919293946020613ee2613edc83856001950387528951613e75565b97613e82565b9301930191939290613eb1565b613f56916080613f45613f3360a08401613f0f5f8701515f870190611688565b613f21602087015160208701906107ad565b60408601518582036040870152613e88565b60608501518482036060860152613e88565b920151906080818403910152613c58565b90565b93613f8e613fa99694613f84613f9b95613f7a60a08a01965f8b019061047d565b602089019061047d565b60408701906102c8565b8482036060860152613cda565b916080818403910152613eef565b90565b939261407f5f92614074949861405e60609997613fc7610a88565b50613ffd8a8d613ff67f000000000000000000000000000000000000000000000000000000000000000061084d565b9091614b50565b6140267f000000000000000000000000000000000000000000000000000000000000000061084d565b9863594a88cc9661404961404461403c30613c12565b9d60026132f0565b610ae8565b9d956140588a949293946114b8565b90614cd8565b9091614068610152565b9a8b998a988997610b64565b875260048701613f59565b03925af19081156140c3575f91614095575b5090565b6140b6915060603d81116140bc575b6140ae8183610b3b565b810190613c1e565b50614091565b503d6140a4565b610b97565b916140d56140dd936133af565b919091614d54565b565b91806140f36140ed5f6114b8565b91610164565b1461410e5761410461410c936133af565b919091614e10565b565b505050565b61411c906114b8565b9052565b90608080614178936141385f8201515f8601906107ad565b61414a602082015160208601906107ad565b61415c604082015160408601906107ad565b61416e606082015160608601906107ad565b01519101906107ad565b565b6141db91608060a08201926141955f8201515f850190611688565b6141a7602082015160208501906107ad565b6141b960408201516040850190611688565b6141cb60608201516060850190611688565b0151906080818403910152613c89565b90565b949091614241969461421a61423295614210614224946142066101408c01985f8d019061047d565b60208b019061047d565b6040890190614113565b6060870190614120565b84820361010086015261417a565b91610120818403910152613eef565b90565b6143059360609795929698614310926142ef5f96614260610a88565b506142958361428e7f000000000000000000000000000000000000000000000000000000000000000061084d565b83916140c8565b6142be7f000000000000000000000000000000000000000000000000000000000000000061084d565b9963c81f847a976142e16142dc6142d430613c12565b9e60026132f0565b610ae8565b9e8a97959390919293614ecd565b91926142f9610152565b9b8c9a8b998a98610b64565b8852600488016141de565b03925af1908115614354575f91614326575b5090565b614347915060603d811161434d575b61433f8183610b3b565b810190613c1e565b50614322565b503d614335565b610b97565b61438561438061439195949361437b61438c94614374610a88565b505f610a98565b610aae565b612390565b9182614f69565b6150ab565b905090565b6143a9906143a460016151b2565b61534b565b565b6143b56004610ae8565b6143c08260046125cb565b906143f46143ee7f8be0079c531659141344cd1fd0a4f28419497f9722a3daafe3b4186f6b6457e093610a8c565b91610a8c565b916143fd610152565b806144078161021b565b0390a3565b61441590610517565b90565b63ffffffff1690565b63ffffffff60e01b1690565b61444161443c61444692614418565b610b64565b614421565b90565b604090614472614479949695939661446860608401985f85019061047d565b602083019061047d565b01906102c8565b565b6004926144b56144c995936144c4939461449c6323b872dd9294919261442d565b936144a5610152565b9788956020870190815201614449565b60208201810382520383610b3b565b6151be565b565b5f90565b60a0906144da6144cb565b502090565b6144f0670de0b6b3a7640000612402565b90565b90565b61450a61450561450f926144f3565b6104f8565b610164565b90565b6145829161452891614522610a88565b50612f2d565b61457d614551828361454b60026145466145406144df565b91613b3a565b612f2d565b91615272565b6145778184614571600361456c6145666144df565b916144f6565b612f2d565b91615272565b92612dd5565b612dd5565b90565b906145a291614592610a88565b509061459c6144df565b91615272565b90565b5f90565b67ffffffffffffffff81116145c7576145c3602091610b1d565b0190565b610b27565b906145de6145d9836145a9565b610dfc565b918252565b5f7f6d61782075696e74313238206578636565646564000000000000000000000000910152565b61461460146145cc565b90614621602083016145e3565b565b61462b61460a565b90565b614636614623565b90565b5190565b60209181520190565b61466561466e6020936146739361465c81614639565b9384809361463d565b95869101611c13565b610b1d565b0190565b61468c9160208201915f818403910152614646565b90565b156146975750565b6146b8906146a3610152565b91829162461bcd60e51b835260048301614677565b0390fd5b6146d06146cb6146d592610164565b6104f8565b6134ab565b90565b614720906146e46145a5565b5061471b8161470b6147056fffffffffffffffffffffffffffffffff613595565b91610164565b111561471561462e565b9061468f565b6146bc565b90565b9061475661474761475c9493614737610a88565b5093614741613ac6565b90612dd5565b91614750613a9a565b90612dd5565b91615272565b90565b614779614798939261479392614773610a88565b50612f2d565b61478d836147876001613a7e565b90611247565b90612dd5565b612fff565b90565b6147a490610517565b90565b91906040838203126147cf57806147c36147cc925f8601610b6a565b93602001610b6a565b90565b61015c565b6147df5f8092611c0a565b0190565b919361481a6148249294614810614832976148066101208801985f8901906135f1565b60a0870190614113565b60c08501906102c8565b60e083019061047d565b6101008183039101526147d4565b90565b614889604092614843610a88565b5061484c610a88565b506148585f8401610eca565b906148827f0000000000000000000000000000000000000000000000000000000000000000610523565b90916140c8565b6148923061479b565b906148e15f6148c07f0000000000000000000000000000000000000000000000000000000000000000610523565b926148ec6320b76e81919583986148d5610152565b998a9889978896610b64565b8652600486016147e3565b03925af1908115614936575f80919092614906575b509091565b9050614929915060403d811161492f575b6149218183610b3b565b8101906147a7565b5f614901565b503d614917565b610b97565b6149716149789461496760e09498979561495d61010086019a5f8701906135f1565b60a08501906102c8565b60c083019061047d565b019061047d565b565b6149833061479b565b9161498d3061479b565b6149b67f0000000000000000000000000000000000000000000000000000000000000000610523565b90638720316d93929490823b15614a34575f946149f186926149e6946149da610152565b998a9889978896610b64565b86526004860161493b565b03925af18015614a2f57614a03575b50565b614a22905f3d8111614a28575b614a1a8183610b3b565b810190611bf7565b5f614a00565b503d614a10565b610b97565b610b19565b916020614a5a929493614a5360408201965f83019061047d565b01906102c8565b565b90614a6e614a69836126a5565b610dfc565b918252565b606090565b3d5f14614a9357614a883d614a5c565b903d5f602084013e5b565b614a9b614a73565b90614a91565b90505190614aae82610607565b565b90602082820312614ac957614ac6915f01614aa1565b90565b61015c565b5f7f5361666520417070726f76650000000000000000000000000000000000000000910152565b614b02600c60209261463d565b614b0b81614ace565b0190565b614b249060208101905f818303910152614af5565b90565b15614b2e57565b614b36610152565b62461bcd60e51b815280614b4c60048201614b0f565b0390fd5b614baf926004614b915f94614b8286959463095ea7b360e01b92614b72610152565b9586946020860190815201614a39565b60208201810382520382610b3b565b82602082019151925af1614ba3614a78565b81614bb1575b50614b27565b565b9050614bbc81611c06565b614bce614bc85f6114b8565b91610164565b14908115614bde575b505f614ba9565b614bf991506020614bee82611c06565b818301019101614ab0565b5f614bd7565b614c0960a0610dfc565b90565b5f90565b614c1a6080610dfc565b90565b5f90565b606090565b5f90565b614c32614c10565b90602080808085614c41614c1d565b815201614c4c614c0c565b815201614c57614c21565b815201614c62614c26565b81525050565b614c70614c2a565b90565b614c7b614bff565b9060208080808086614c8b614c0c565b815201614c966124af565b815201614ca1614c0c565b815201614cac614c0c565b815201614cb7614c68565b81525050565b614cc5614c73565b90565b614cd260a0610dfc565b90565b52565b93614d1c614d2e94614d13614d259497614cf0614cbd565b509795919395614d0a614d01614cc8565b995f8b016122e6565b602089016122f4565b604087016122e6565b606085016122e6565b60808301614cd5565b90565b916020614d52929493614d4b60408201965f83019061047d565b0190614113565b565b9091614d97600491614d8863095ea7b3614d6f87939161442d565b92614d78610152565b9586946020860190815201614a39565b60208201810382520382610b3b565b90614dac614da6828490615295565b15610602565b614db6575b505050565b614e036004614e0894614dfe8491614def63095ea7b3614dd65f9161442d565b92614ddf610152565b9687946020860190815201614d31565b60208201810382520383610b3b565b6151be565b6151be565b5f8080614db1565b90614e57614e5c93614e4860049493614e2f63a9059cbb91939161442d565b92614e38610152565b9687946020860190815201614a39565b60208201810382520383610b3b565b6151be565b565b614e6860a0610dfc565b90565b614e73614e5e565b9060208080808086614e83614c0c565b815201614e8e6124af565b815201614e99614c0c565b815201614ea4614c0c565b815201614eaf614c68565b81525050565b614ebd614e6b565b90565b614eca60a0610dfc565b90565b93614f11614f2394614f08614f1a9497614ee5614eb5565b509795919395614eff614ef6614ec0565b995f8b016122e6565b602089016122f4565b604087016122e6565b606085016122e6565b60808301614cd5565b90565b9091614f6693614f4f614f5992614f456101008601965f8701906135f1565b60a08501906102c8565b60c083019061047d565b60e08183039101526147d4565b90565b614fa8614f7860208301610eca565b614fa17f0000000000000000000000000000000000000000000000000000000000000000610523565b8491614b50565b614fd17f0000000000000000000000000000000000000000000000000000000000000000610523565b9163238d6579919092614fe33061479b565b92813b15615057575f615009916150148296614ffd610152565b98899788968795610b64565b855260048501614f26565b03925af1801561505257615026575b50565b615045905f3d811161504b575b61503d8183610b3b565b810190611bf7565b5f615023565b503d615033565b610b97565b610b19565b909594926150a9946150986150a29261508e6101009661508461012088019c5f8901906135f1565b60a08701906102c8565b60c08501906102c8565b60e083019061047d565b019061047d565b565b906040906150b7610a88565b506150c0610a88565b506150c9610a88565b9261512e5f6150d73061479b565b926151396150e43061479b565b9461510e7f0000000000000000000000000000000000000000000000000000000000000000610523565b956350d8cd4b939799919091615122610152565b9a8b998a988997610b64565b87526004870161505c565b03925af1908115615183575f80919092615153575b509091565b9050615176915060403d811161517c575b61516e8183610b3b565b8101906147a7565b5f61514e565b503d615164565b610b97565b6a636f6e736f6c652e6c6f6790565b5f80916151a2615188565b602082519201905afa50565b5f90565b6151ba6151ae565b5090565b905f6020916151cb610a88565b506151d4610a88565b50828151910182855af115615267573d5f51906151f96151f35f6114b8565b91610164565b145f1461524d575061520a8161440c565b3b61521d6152175f6114b8565b91610164565b145b6152265750565b6152326152499161440c565b5f918291635274afe760e01b83526004830161048a565b0390fd5b61526061525a6001613a7e565b91610164565b141561521f565b6040513d5f823e3d90fd5b61528e929161528991615283610a88565b50612f2d565b612fff565b90565b5f90565b905f6020916152a2615291565b506152ab615291565b506152b4610a88565b506152bd610a88565b50828151910182855af13d915f519192836152d9575b50505090565b909192506152ef6152e95f6114b8565b91610164565b145f1461531d57615300915061440c565b3b61531361530d5f6114b8565b91610164565b115b5f80806152d3565b5061533161532b6001613a7e565b91610164565b14615315565b634e487b7160e01b5f52605160045260245ffd5b6001036153375761535b90615197565b56fea26469706673582212204b9e7f3f38d7e79569fbeb1bc20a4b6d9ba9cc40835312363d7506b34f6e519c64736f6c634300081e0033","linkReferences":{}},"methodIdentifiers":{"acceptOwnership()":"79ba5097","addSupportedCollateralToken((address,bytes32,address))":"5001c699","calcFlashLoanAmount(address,address,uint256)":"cedcf9a4","getCollateralValueInLoanToken(address,address,uint256)":"3ba7a314","getCoreLeveragePosition(address,address,address)":"dc72f255","getLiqLtv(address,address)":"e43478ef","getMaxLtv(address,address)":"62fd6add","getSafeLtv(address,address)":"6353c7e3","getSharesToAsset(address,address,uint256)":"ccf5e8ef","i_morpho()":"96d066f5","i_pendleRouter()":"dd2a7a17","leverage((address,address,uint256,(uint256,uint256,uint256,uint256,uint256),address,address,(uint8,address,bytes,bool),(address,uint256,((uint256,uint256,uint256,uint8,address,address,address,address,uint256,uint256,uint256,bytes),bytes,uint256)[],((uint256,uint256,uint256,uint8,address,address,address,address,uint256,uint256,uint256,bytes),bytes,uint256)[],bytes)))":"a12e89d0","onMorphoFlashLoan(uint256,bytes)":"31f57072","owner()":"8da5cb5b","pendingOwner()":"e30c3978","renounceOwnership()":"715018a6","setManager(address,bool)":"a5e90eee","transferOwnership(address)":"f2fde38b","unleverage((address,address,uint256,uint256,address,address,(uint8,address,bytes,bool),(address,uint256,((uint256,uint256,uint256,uint8,address,address,address,address,uint256,uint256,uint256,bytes),bytes,uint256)[],((uint256,uint256,uint256,uint8,address,address,address,address,uint256,uint256,uint256,bytes),bytes,uint256)[],bytes)))":"b9c1b423"},"id":71}