{"abi":[{"type":"constructor","inputs":[{"name":"morphoAddress","type":"address","internalType":"address"},{"name":"pendleRouter","type":"address","internalType":"address"},{"name":"liquidationBuffer","type":"uint256","internalType":"uint256"},{"name":"slippageBuffer","type":"uint256","internalType":"uint256"}],"stateMutability":"nonpayable"},{"type":"function","name":"acceptOwnership","inputs":[],"outputs":[],"stateMutability":"nonpayable"},{"type":"function","name":"addManager","inputs":[{"name":"manager","type":"address","internalType":"address"}],"outputs":[],"stateMutability":"nonpayable"},{"type":"function","name":"addSupportedCollateralTokens","inputs":[{"name":"tokenConfigs","type":"tuple[]","internalType":"struct CollateralTokenConfig[]","components":[{"name":"collateralToken","type":"address","internalType":"address"},{"name":"morphoMarketId","type":"bytes32","internalType":"bytes32"},{"name":"pendleMarket","type":"address","internalType":"address"}]}],"outputs":[],"stateMutability":"nonpayable"},{"type":"function","name":"calcLeverageFlashLoan","inputs":[{"name":"desiredLtv","type":"uint256","internalType":"uint256"},{"name":"collateralToken","type":"address","internalType":"address"},{"name":"loanToken","type":"address","internalType":"address"},{"name":"amountCollateral","type":"uint256","internalType":"uint256"}],"outputs":[{"name":"","type":"uint256","internalType":"uint256"}],"stateMutability":"view"},{"type":"function","name":"calcUnleverageFlashLoan","inputs":[{"name":"collateralToken","type":"address","internalType":"address"},{"name":"loanToken","type":"address","internalType":"address"},{"name":"sharesToBurn","type":"uint256","internalType":"uint256"}],"outputs":[{"name":"","type":"uint256","internalType":"uint256"}],"stateMutability":"view"},{"type":"function","name":"getCollateralValueInLoanToken","inputs":[{"name":"collateralToken","type":"address","internalType":"address"},{"name":"loanToken","type":"address","internalType":"address"},{"name":"amountCollateral","type":"uint256","internalType":"uint256"}],"outputs":[{"name":"","type":"uint256","internalType":"uint256"}],"stateMutability":"view"},{"type":"function","name":"getLiqLtv","inputs":[{"name":"collateralToken","type":"address","internalType":"address"},{"name":"loanToken","type":"address","internalType":"address"}],"outputs":[{"name":"","type":"uint256","internalType":"uint256"}],"stateMutability":"view"},{"type":"function","name":"getMaxLtv","inputs":[{"name":"collateralToken","type":"address","internalType":"address"},{"name":"loanToken","type":"address","internalType":"address"}],"outputs":[{"name":"","type":"uint256","internalType":"uint256"}],"stateMutability":"view"},{"type":"function","name":"getOrCreateUserProxy","inputs":[{"name":"user","type":"address","internalType":"address"},{"name":"desiredLtv","type":"uint256","internalType":"uint256"}],"outputs":[{"name":"proxy","type":"address","internalType":"address"}],"stateMutability":"nonpayable"},{"type":"function","name":"getSharesValueInLoanToken","inputs":[{"name":"collateralToken","type":"address","internalType":"address"},{"name":"loanToken","type":"address","internalType":"address"},{"name":"sharesBorrowed","type":"uint256","internalType":"uint256"}],"outputs":[{"name":"","type":"uint256","internalType":"uint256"}],"stateMutability":"view"},{"type":"function","name":"getUserCoreLeveragePosition","inputs":[{"name":"user","type":"address","internalType":"address"},{"name":"desiredLtv","type":"uint256","internalType":"uint256"},{"name":"collateralToken","type":"address","internalType":"address"},{"name":"loanToken","type":"address","internalType":"address"}],"outputs":[{"name":"","type":"tuple","internalType":"struct CoreLeveragePosition","components":[{"name":"amountCollateral","type":"uint256","internalType":"uint256"},{"name":"sharesBorrowed","type":"uint256","internalType":"uint256"}]}],"stateMutability":"view"},{"type":"function","name":"getUserProxy","inputs":[{"name":"user","type":"address","internalType":"address"},{"name":"desiredLtv","type":"uint256","internalType":"uint256"}],"outputs":[{"name":"","type":"address","internalType":"address"}],"stateMutability":"view"},{"type":"function","name":"i_liquidationBuffer","inputs":[],"outputs":[{"name":"","type":"uint256","internalType":"uint256"}],"stateMutability":"view"},{"type":"function","name":"i_morpho","inputs":[],"outputs":[{"name":"","type":"address","internalType":"contract IMorpho"}],"stateMutability":"view"},{"type":"function","name":"i_pendleRouter","inputs":[],"outputs":[{"name":"","type":"address","internalType":"contract IPAllActionV3"}],"stateMutability":"view"},{"type":"function","name":"i_slippageBuffer","inputs":[],"outputs":[{"name":"","type":"uint256","internalType":"uint256"}],"stateMutability":"view"},{"type":"function","name":"i_userProxyImplementation","inputs":[],"outputs":[{"name":"","type":"address","internalType":"address"}],"stateMutability":"view"},{"type":"function","name":"isManager","inputs":[{"name":"manager","type":"address","internalType":"address"}],"outputs":[{"name":"","type":"bool","internalType":"bool"}],"stateMutability":"view"},{"type":"function","name":"isSupportedCollateralToken","inputs":[{"name":"collateralToken","type":"address","internalType":"address"},{"name":"loanToken","type":"address","internalType":"address"}],"outputs":[{"name":"","type":"bool","internalType":"bool"}],"stateMutability":"view"},{"type":"function","name":"leverage","inputs":[{"name":"onBehalfOf","type":"address","internalType":"address"},{"name":"params","type":"tuple","internalType":"struct LeverageParams","components":[{"name":"desiredLtv","type":"uint256","internalType":"uint256"},{"name":"collateralToken","type":"address","internalType":"address"},{"name":"loanToken","type":"address","internalType":"address"},{"name":"amountCollateral","type":"uint256","internalType":"uint256"},{"name":"approxParams","type":"tuple","internalType":"struct ApproxParams","components":[{"name":"guessMin","type":"uint256","internalType":"uint256"},{"name":"guessMax","type":"uint256","internalType":"uint256"},{"name":"guessOffchain","type":"uint256","internalType":"uint256"},{"name":"maxIteration","type":"uint256","internalType":"uint256"},{"name":"eps","type":"uint256","internalType":"uint256"}]},{"name":"pendleSwap","type":"address","internalType":"address"},{"name":"tokenMintSy","type":"address","internalType":"address"},{"name":"minPtOut","type":"uint256","internalType":"uint256"},{"name":"swapData","type":"tuple","internalType":"struct SwapData","components":[{"name":"swapType","type":"uint8","internalType":"enum SwapType"},{"name":"extRouter","type":"address","internalType":"address"},{"name":"extCalldata","type":"bytes","internalType":"bytes"},{"name":"needScale","type":"bool","internalType":"bool"}]},{"name":"limitOrderData","type":"tuple","internalType":"struct LimitOrderData","components":[{"name":"limitRouter","type":"address","internalType":"address"},{"name":"epsSkipMarket","type":"uint256","internalType":"uint256"},{"name":"normalFills","type":"tuple[]","internalType":"struct FillOrderParams[]","components":[{"name":"order","type":"tuple","internalType":"struct Order","components":[{"name":"salt","type":"uint256","internalType":"uint256"},{"name":"expiry","type":"uint256","internalType":"uint256"},{"name":"nonce","type":"uint256","internalType":"uint256"},{"name":"orderType","type":"uint8","internalType":"enum IPLimitOrderType.OrderType"},{"name":"token","type":"address","internalType":"address"},{"name":"YT","type":"address","internalType":"address"},{"name":"maker","type":"address","internalType":"address"},{"name":"receiver","type":"address","internalType":"address"},{"name":"makingAmount","type":"uint256","internalType":"uint256"},{"name":"lnImpliedRate","type":"uint256","internalType":"uint256"},{"name":"failSafeRate","type":"uint256","internalType":"uint256"},{"name":"permit","type":"bytes","internalType":"bytes"}]},{"name":"signature","type":"bytes","internalType":"bytes"},{"name":"makingAmount","type":"uint256","internalType":"uint256"}]},{"name":"flashFills","type":"tuple[]","internalType":"struct FillOrderParams[]","components":[{"name":"order","type":"tuple","internalType":"struct Order","components":[{"name":"salt","type":"uint256","internalType":"uint256"},{"name":"expiry","type":"uint256","internalType":"uint256"},{"name":"nonce","type":"uint256","internalType":"uint256"},{"name":"orderType","type":"uint8","internalType":"enum IPLimitOrderType.OrderType"},{"name":"token","type":"address","internalType":"address"},{"name":"YT","type":"address","internalType":"address"},{"name":"maker","type":"address","internalType":"address"},{"name":"receiver","type":"address","internalType":"address"},{"name":"makingAmount","type":"uint256","internalType":"uint256"},{"name":"lnImpliedRate","type":"uint256","internalType":"uint256"},{"name":"failSafeRate","type":"uint256","internalType":"uint256"},{"name":"permit","type":"bytes","internalType":"bytes"}]},{"name":"signature","type":"bytes","internalType":"bytes"},{"name":"makingAmount","type":"uint256","internalType":"uint256"}]},{"name":"optData","type":"bytes","internalType":"bytes"}]}]}],"outputs":[],"stateMutability":"nonpayable"},{"type":"function","name":"onMorphoFlashLoan","inputs":[{"name":"amountLoan","type":"uint256","internalType":"uint256"},{"name":"data","type":"bytes","internalType":"bytes"}],"outputs":[],"stateMutability":"nonpayable"},{"type":"function","name":"owner","inputs":[],"outputs":[{"name":"","type":"address","internalType":"address"}],"stateMutability":"view"},{"type":"function","name":"pause","inputs":[],"outputs":[],"stateMutability":"nonpayable"},{"type":"function","name":"paused","inputs":[],"outputs":[{"name":"","type":"bool","internalType":"bool"}],"stateMutability":"view"},{"type":"function","name":"pendingOwner","inputs":[],"outputs":[{"name":"","type":"address","internalType":"address"}],"stateMutability":"view"},{"type":"function","name":"renounceOwnership","inputs":[],"outputs":[],"stateMutability":"nonpayable"},{"type":"function","name":"s_userProxies","inputs":[{"name":"user","type":"address","internalType":"address"},{"name":"desiredLtv","type":"uint256","internalType":"uint256"}],"outputs":[{"name":"proxyContract","type":"address","internalType":"address"}],"stateMutability":"view"},{"type":"function","name":"transferOwnership","inputs":[{"name":"newOwner","type":"address","internalType":"address"}],"outputs":[],"stateMutability":"nonpayable"},{"type":"function","name":"unleverage","inputs":[{"name":"onBehalfOf","type":"address","internalType":"address"},{"name":"params","type":"tuple","internalType":"struct UnleverageParams","components":[{"name":"desiredLtv","type":"uint256","internalType":"uint256"},{"name":"collateralToken","type":"address","internalType":"address"},{"name":"loanToken","type":"address","internalType":"address"},{"name":"sharesToBurn","type":"uint256","internalType":"uint256"},{"name":"amountCollateralToWithdraw","type":"uint256","internalType":"uint256"},{"name":"pendleSwap","type":"address","internalType":"address"},{"name":"tokenRedeemSy","type":"address","internalType":"address"},{"name":"minTokenOut","type":"uint256","internalType":"uint256"},{"name":"swapData","type":"tuple","internalType":"struct SwapData","components":[{"name":"swapType","type":"uint8","internalType":"enum SwapType"},{"name":"extRouter","type":"address","internalType":"address"},{"name":"extCalldata","type":"bytes","internalType":"bytes"},{"name":"needScale","type":"bool","internalType":"bool"}]},{"name":"limitOrderData","type":"tuple","internalType":"struct LimitOrderData","components":[{"name":"limitRouter","type":"address","internalType":"address"},{"name":"epsSkipMarket","type":"uint256","internalType":"uint256"},{"name":"normalFills","type":"tuple[]","internalType":"struct FillOrderParams[]","components":[{"name":"order","type":"tuple","internalType":"struct Order","components":[{"name":"salt","type":"uint256","internalType":"uint256"},{"name":"expiry","type":"uint256","internalType":"uint256"},{"name":"nonce","type":"uint256","internalType":"uint256"},{"name":"orderType","type":"uint8","internalType":"enum IPLimitOrderType.OrderType"},{"name":"token","type":"address","internalType":"address"},{"name":"YT","type":"address","internalType":"address"},{"name":"maker","type":"address","internalType":"address"},{"name":"receiver","type":"address","internalType":"address"},{"name":"makingAmount","type":"uint256","internalType":"uint256"},{"name":"lnImpliedRate","type":"uint256","internalType":"uint256"},{"name":"failSafeRate","type":"uint256","internalType":"uint256"},{"name":"permit","type":"bytes","internalType":"bytes"}]},{"name":"signature","type":"bytes","internalType":"bytes"},{"name":"makingAmount","type":"uint256","internalType":"uint256"}]},{"name":"flashFills","type":"tuple[]","internalType":"struct FillOrderParams[]","components":[{"name":"order","type":"tuple","internalType":"struct Order","components":[{"name":"salt","type":"uint256","internalType":"uint256"},{"name":"expiry","type":"uint256","internalType":"uint256"},{"name":"nonce","type":"uint256","internalType":"uint256"},{"name":"orderType","type":"uint8","internalType":"enum IPLimitOrderType.OrderType"},{"name":"token","type":"address","internalType":"address"},{"name":"YT","type":"address","internalType":"address"},{"name":"maker","type":"address","internalType":"address"},{"name":"receiver","type":"address","internalType":"address"},{"name":"makingAmount","type":"uint256","internalType":"uint256"},{"name":"lnImpliedRate","type":"uint256","internalType":"uint256"},{"name":"failSafeRate","type":"uint256","internalType":"uint256"},{"name":"permit","type":"bytes","internalType":"bytes"}]},{"name":"signature","type":"bytes","internalType":"bytes"},{"name":"makingAmount","type":"uint256","internalType":"uint256"}]},{"name":"optData","type":"bytes","internalType":"bytes"}]}]}],"outputs":[],"stateMutability":"nonpayable"},{"type":"function","name":"unpause","inputs":[],"outputs":[],"stateMutability":"nonpayable"},{"type":"event","name":"OwnershipTransferStarted","inputs":[{"name":"previousOwner","type":"address","indexed":true,"internalType":"address"},{"name":"newOwner","type":"address","indexed":true,"internalType":"address"}],"anonymous":false},{"type":"event","name":"OwnershipTransferred","inputs":[{"name":"previousOwner","type":"address","indexed":true,"internalType":"address"},{"name":"newOwner","type":"address","indexed":true,"internalType":"address"}],"anonymous":false},{"type":"event","name":"Paused","inputs":[{"name":"account","type":"address","indexed":false,"internalType":"address"}],"anonymous":false},{"type":"event","name":"Unpaused","inputs":[{"name":"account","type":"address","indexed":false,"internalType":"address"}],"anonymous":false},{"type":"error","name":"EnforcedPause","inputs":[]},{"type":"error","name":"ExpectedPause","inputs":[]},{"type":"error","name":"FailedDeployment","inputs":[]},{"type":"error","name":"FlashLeverageCore__AmountCollateralCannotBeZero","inputs":[]},{"type":"error","name":"FlashLeverageCore__EffectiveLtvTooHigh","inputs":[{"name":"desiredLtv","type":"uint256","internalType":"uint256"},{"name":"effectiveLtv","type":"uint256","internalType":"uint256"}]},{"type":"error","name":"FlashLeverageCore__ExceedsMaxLTV","inputs":[]},{"type":"error","name":"FlashLeverageCore__InsufficientCollateralToWithdraw","inputs":[]},{"type":"error","name":"FlashLeverageCore__InsufficientSharesToBurn","inputs":[]},{"type":"error","name":"FlashLeverageCore__InvalidCollateralToken","inputs":[]},{"type":"error","name":"FlashLeverageCore__InvalidCollateralTokenDecimals","inputs":[]},{"type":"error","name":"FlashLeverageCore__NotAManager","inputs":[]},{"type":"error","name":"FlashLeverageCore__SharesToBurnCannotBeZero","inputs":[]},{"type":"error","name":"FlashLeverageCore__UnsupportedCollateralToken","inputs":[]},{"type":"error","name":"FlashLeverageCore__UntrustedLender","inputs":[]},{"type":"error","name":"InsufficientBalance","inputs":[{"name":"balance","type":"uint256","internalType":"uint256"},{"name":"needed","type":"uint256","internalType":"uint256"}]},{"type":"error","name":"OwnableInvalidOwner","inputs":[{"name":"owner","type":"address","internalType":"address"}]},{"type":"error","name":"OwnableUnauthorizedAccount","inputs":[{"name":"account","type":"address","internalType":"address"}]},{"type":"error","name":"ReentrancyGuardReentrantCall","inputs":[]},{"type":"error","name":"SafeERC20FailedOperation","inputs":[{"name":"token","type":"address","internalType":"address"}]}],"bytecode":{"object":"0x610120604052346100ee5761001e610015610201565b9291909161029a565b6100266100f3565b615e146106118239608051818181610af101528181611390015281816116b501528181612559015281816129d001528181612d18015281816137aa01528181613ae001528181615402015281816154370152818161562e01528181615a2901528181615a590152615b95015260a051818181610c60015281816148ff0152818161493401528181614bd90152614c0e015260c051818181610df00152611b0b015260e051818181610b780152614dbf015261010051818181610bd10152611ab10152615e1490f35b6100f9565b60405190565b5f80fd5b601f801991011690565b634e487b7160e01b5f52604160045260245ffd5b90610125906100fd565b810190811060018060401b0382111761013d57604052565b610107565b9061015561014e6100f3565b928361011b565b565b5f80fd5b60018060a01b031690565b61016f9061015b565b90565b61017b81610166565b0361018257565b5f80fd5b9050519061019382610172565b565b90565b6101a181610195565b036101a857565b5f80fd5b905051906101b982610198565b565b6080818303126101fc576101d1825f8301610186565b926101f96101e28460208501610186565b936101f081604086016101ac565b936060016101ac565b90565b610157565b61021f616a6b8038038061021481610142565b9283398101906101bb565b90919293565b90565b61023c6102376102419261015b565b610225565b61015b565b90565b61024d90610228565b90565b61025990610244565b90565b61026590610166565b9052565b919061027c905f6020850194019061025c565b565b6102866100f3565b3d5f823e3d90fd5b61029790610244565b90565b906102a8913391909161030c565b60c05260e0526102b730610250565b6102bf6100f3565b90610646820182811060018060401b038211176103075782916102e9916106466164258539610269565b03905ff08015610302576102fc9061028e565b61010052565b61027e565b610107565b906103179291610319565b565b906103249291610351565b565b90565b61033d61033861034292610326565b610225565b61015b565b90565b61034e90610329565b90565b9161035b916103ad565b8061037661037061036b5f610345565b610166565b91610166565b146103865761038490610528565b565b6103a96103925f610345565b5f918291631e4fbdf760e01b835260048301610269565b0390fd5b906103b79161043f565b565b90565b6103d06103cb6103d5926103b9565b610225565b610195565b90565b6103e260016103bc565b90565b5f1b90565b906103f65f19916103e5565b9181191691161790565b61041461040f61041992610195565b610225565b610195565b90565b90565b9061043461042f61043b92610400565b61041c565b82546103ea565b9055565b9061044991610475565b61045b6104546103d8565b600361041f565b565b61046690610228565b90565b6104729061045d565b90565b610481610486926104a3565b610469565b60a052565b61049490610228565b90565b6104a09061048b565b90565b6104ac90610497565b608052565b1b90565b919060086104d59102916104cf60018060a01b03846104b1565b926104b1565b9181191691161790565b6104e890610244565b90565b90565b91906105046104ff61050c936104df565b6104eb565b9083546104b5565b9055565b5f90565b61052691610520610510565b916104ee565b565b61053c906105375f6005610514565b6105af565b565b5f1c90565b60018060a01b031690565b61055a61055f9161053e565b610543565b90565b61056c905461054e565b90565b9061058060018060a01b03916103e5565b9181191691161790565b9061059f61059a6105a6926104df565b6104eb565b825461056f565b9055565b5f0190565b6105b96004610562565b6105c482600461058a565b906105f86105f27f8be0079c531659141344cd1fd0a4f28419497f9722a3daafe3b4186f6b6457e0936104df565b916104df565b916106016100f3565b8061060b816105aa565b0390a356fe60a06040526004361015610013575b610e47565b61001d5f356101fc565b806314ee89c4146101f75780632d06177a146101f25780632ec23d66146101ed578063313b120e146101e857806331f57072146101e35780633ba7a314146101de5780633f4ba83a146101d95780635adb101c146101d45780635c975abb146101cf5780635d1593e7146101ca57806362fd6add146101c557806370f5585f146101c05780637130fa49146101bb578063715018a6146101b657806379ba5097146101b15780638456cb59146101ac5780638da5cb5b146101a757806394d49ab7146101a257806394ea07bb1461019d57806396d066f514610198578063bf43612b14610193578063d5c96c171461018e578063dc10160514610189578063dd2a7a1714610184578063e30c39781461017f578063e30e40cb1461017a578063e43478ef14610175578063f2fde38b14610170578063f3ae24151461016b5763fb56d3bb0361000e57610e12565b610db9565b610d86565b610d50565b610d1a565b610ce5565b610cb0565b610c28565b610bf3565b610b9a565b610b41565b610ab6565b6109f4565b6108ea565b6108b7565b610884565b610859565b610825565b610798565b610705565b6106a2565b61066d565b61060d565b610594565b61054f565b61051b565b610460565b6103d0565b61031c565b6102c3565b60e01c90565b60405190565b5f80fd5b5f80fd5b5f80fd5b60018060a01b031690565b61022890610214565b90565b6102348161021f565b0361023b57565b5f80fd5b9050359061024c8261022b565b565b90565b61025a8161024e565b0361026157565b5f80fd5b9050359061027282610251565b565b919060408382031261029c5780610290610299925f860161023f565b93602001610265565b90565b61020c565b6102aa9061021f565b9052565b91906102c1905f602085019401906102a1565b565b346102f4576102f06102df6102d9366004610274565b90610e75565b6102e7610202565b918291826102ae565b0390f35b610208565b906020828203126103125761030f915f0161023f565b90565b61020c565b5f0190565b3461034a5761033461032f3660046102f9565b610f46565b61033c610202565b8061034681610317565b0390f35b610208565b5f80fd5b5f80fd5b5f80fd5b909182601f830112156103955781359167ffffffffffffffff831161039057602001926060830284011161038b57565b610357565b610353565b61034f565b906020828203126103cb575f82013567ffffffffffffffff81116103c6576103c2920161035b565b9091565b610210565b61020c565b346103ff576103e96103e336600461039a565b90611590565b6103f1610202565b806103fb81610317565b0390f35b610208565b90916060828403126104395761043661041f845f850161023f565b9361042d816020860161023f565b93604001610265565b90565b61020c565b6104479061024e565b9052565b919061045e905f6020850194019061043e565b565b346104915761048d61047c610476366004610404565b916115d9565b610484610202565b9182918261044b565b0390f35b610208565b909182601f830112156104d05781359167ffffffffffffffff83116104cb5760200192600183028401116104c657565b610357565b610353565b61034f565b919091604081840312610516576104ee835f8301610265565b92602082013567ffffffffffffffff81116105115761050d9201610496565b9091565b610210565b61020c565b3461054a5761053461052e3660046104d5565b916116a5565b61053c610202565b8061054681610317565b0390f35b610208565b346105805761057c61056b610565366004610404565b916117d5565b610573610202565b9182918261044b565b0390f35b610208565b5f91031261058f57565b61020c565b346105c2576105a4366004610585565b6105ac6118df565b6105b4610202565b806105be81610317565b0390f35b610208565b608081830312610608576105dd825f8301610265565b926106056105ee846020850161023f565b936105fc816040860161023f565b93606001610265565b90565b61020c565b346106415761063d61062c6106233660046105c7565b92919091611941565b610634610202565b9182918261044b565b0390f35b610208565b151590565b61065490610646565b9052565b919061066b905f6020850194019061064b565b565b3461069d5761067d366004610585565b6106996106886119d5565b610690610202565b91829182610658565b0390f35b610208565b346106d3576106cf6106be6106b8366004610274565b90611a54565b6106c6610202565b918291826102ae565b0390f35b610208565b919060408382031261070057806106f46106fd925f860161023f565b9360200161023f565b90565b61020c565b346107365761073261072161071b3660046106d8565b90611af3565b610729610202565b9182918261044b565b0390f35b610208565b5f80fd5b90816101c091031261074e5790565b61073b565b9190916040818403126107935761076c835f830161023f565b92602082013567ffffffffffffffff811161078e5761078b920161073f565b90565b610210565b61020c565b346107c7576107b16107ab366004610753565b906125fe565b6107b9610202565b806107c381610317565b0390f35b610208565b90816101409103126107db5790565b61073b565b919091604081840312610820576107f9835f830161023f565b92602082013567ffffffffffffffff811161081b5761081892016107cc565b90565b610210565b61020c565b346108545761083e6108383660046107e0565b90612a75565b610846610202565b8061085081610317565b0390f35b610208565b3461087f57610869366004610585565b610871610202565b8061087b81610317565b0390f35b610208565b346108b257610894366004610585565b61089c612a81565b6108a4610202565b806108ae81610317565b0390f35b610208565b346108e5576108c7366004610585565b6108cf612aee565b6108d7610202565b806108e181610317565b0390f35b610208565b3461091a576108fa366004610585565b610916610905612af8565b61090d610202565b918291826102ae565b0390f35b610208565b90565b61093661093161093b92610214565b61091f565b610214565b90565b61094790610922565b90565b6109539061093e565b90565b906109609061094a565b5f5260205260405f2090565b61098061097b6109859261024e565b61091f565b61024e565b90565b906109929061096c565b5f5260205260405f2090565b1c90565b60018060a01b031690565b6109bd9060086109c2930261099e565b6109a2565b90565b906109d091546109ad565b90565b6109ec6109f1926109e76007935f94610956565b610988565b6109c5565b90565b34610a2557610a21610a10610a0a366004610274565b906109d3565b610a18610202565b918291826102ae565b0390f35b610208565b608081830312610a6b57610a40825f830161023f565b92610a68610a518460208501610265565b93610a5f816040860161023f565b9360600161023f565b90565b61020c565b610a799061024e565b9052565b90602080610a9f93610a955f8201515f860190610a70565b0151910190610a70565b565b9190610ab4905f60408501940190610a7d565b565b34610aea57610ae6610ad5610acc366004610a2a565b92919091612ba3565b610add610202565b91829182610aa1565b0390f35b610208565b7f000000000000000000000000000000000000000000000000000000000000000090565b610b1c9061093e565b90565b610b2890610b13565b9052565b9190610b3f905f60208501940190610b1f565b565b34610b7157610b51366004610585565b610b6d610b5c610aef565b610b64610202565b91829182610b2c565b0390f35b610208565b7f000000000000000000000000000000000000000000000000000000000000000090565b34610bca57610baa366004610585565b610bc6610bb5610b76565b610bbd610202565b9182918261044b565b0390f35b610208565b7f000000000000000000000000000000000000000000000000000000000000000090565b34610c2357610c03366004610585565b610c1f610c0e610bcf565b610c16610202565b918291826102ae565b0390f35b610208565b34610c5957610c55610c44610c3e3660046106d8565b90612bdd565b610c4c610202565b91829182610658565b0390f35b610208565b7f000000000000000000000000000000000000000000000000000000000000000090565b610c8b9061093e565b90565b610c9790610c82565b9052565b9190610cae905f60208501940190610c8e565b565b34610ce057610cc0366004610585565b610cdc610ccb610c5e565b610cd3610202565b91829182610c9b565b0390f35b610208565b34610d1557610cf5366004610585565b610d11610d00612c23565b610d08610202565b918291826102ae565b0390f35b610208565b34610d4b57610d47610d36610d30366004610404565b91612ce1565b610d3e610202565b9182918261044b565b0390f35b610208565b34610d8157610d7d610d6c610d663660046106d8565b90612d69565b610d74610202565b9182918261044b565b0390f35b610208565b34610db457610d9e610d993660046102f9565b612e05565b610da6610202565b80610db081610317565b0390f35b610208565b34610de957610de5610dd4610dcf3660046102f9565b612e31565b610ddc610202565b91829182610658565b0390f35b610208565b7f000000000000000000000000000000000000000000000000000000000000000090565b34610e4257610e22366004610585565b610e3e610e2d610dee565b610e35610202565b9182918261044b565b0390f35b610208565b5f80fd5b5f90565b5f1c90565b610e60610e6591610e4f565b6109a2565b90565b610e729054610e54565b90565b610e9a91610e90610e9592610e88610e4b565b506007610956565b610988565b610e68565b90565b610eae90610ea9612e50565b610f10565b565b90610eba9061094a565b5f5260205260405f2090565b5f1b90565b90610ed760ff91610ec6565b9181191691161790565b610eea90610646565b90565b90565b90610f05610f00610f0c92610ee1565b610eed565b8254610ecb565b9055565b610f22610f1c82612e31565b15610646565b610f2a575b50565b610f4090610f3b6001916006610eb0565b610ef0565b5f610f27565b610f4f90610e9d565b565b90610f6391610f5e612e50565b6112dc565b565b5f90565b6001610f75910161024e565b90565b5090565b634e487b7160e01b5f52603260045260245ffd5b9190811015610fa0576060020190565b610f7c565b5f80fd5b601f801991011690565b634e487b7160e01b5f52604160045260245ffd5b90610fd190610fa9565b810190811067ffffffffffffffff821117610feb57604052565b610fb3565b90611003610ffc610202565b9283610fc7565b565b5f80fd5b90565b61101581611009565b0361101c57565b5f80fd5b9050359061102d8261100c565b565b919060608382031261107b57611074906110496060610ff0565b93611056825f830161023f565b5f8601526110678260208301611020565b602086015260400161023f565b6040830152565b610fa5565b61108b90369061102f565b90565b611098905161021f565b90565b6110a490610922565b90565b6110b09061109b565b90565b6110bc9061093e565b90565b5f80fd5b60e01b90565b905051906110d68261022b565b565b909160608284031261110d5761110a6110f3845f85016110c9565b9361110181602086016110c9565b936040016110c9565b90565b61020c565b61111a610202565b3d5f823e3d90fd5b61112c9051611009565b90565b61113890611009565b90565b9050519061114882610251565b565b919060a0838203126111ba576111b39061116460a0610ff0565b93611171825f83016110c9565b5f86015261118282602083016110c9565b602086015261119482604083016110c9565b60408601526111a682606083016110c9565b606086015260800161113b565b6080830152565b610fa5565b9060a0828203126111d8576111d5915f0161114a565b90565b61020c565b6111e69061112f565b9052565b91906111fd905f602085019401906111dd565b565b1561120657565b5f638197c87b60e01b81528061121e60048201610317565b0390fd5b61122b90610922565b90565b61123790611222565b90565b6112439061093e565b90565b60ff1690565b61125581611246565b0361125c57565b5f80fd5b9050519061126d8261124c565b565b9060208282031261128857611285915f01611260565b90565b61020c565b90565b6112a461129f6112a99261128d565b61091f565b611246565b90565b6112b66012611290565b90565b156112c057565b5f63390ca6a760e01b8152806112d860048201610317565b0390fd5b6112e4610f65565b5b806113026112fc6112f7858790610f78565b61024e565b9161024e565b101561158b5761131c61131783858491610f90565b611080565b9061136061132b5f840161108e565b92606061134a6113456113406040850161108e565b6110a7565b6110b3565b632c8ce6bc90611358610202565b9485926110c3565b8252818061137060048201610317565b03915afa8015611586576113f1925f80929050611557575b5060a06113b47f0000000000000000000000000000000000000000000000000000000000000000610b13565b632c3c9157906113e66113d16113cc60208801611122565b61112f565b926113da610202565b978894859384936110c3565b8352600483016111ea565b03915afa801561155257611454935f91611524575b509061141b611415879261021f565b9161021f565b14806114fa575b61142b906111ff565b602061143e6114398761122e565b61123a565b63313ce5679061144c610202565b9586926110c3565b8252818061146460048201610317565b03915afa9283156114f5576114c2956114b06114b7936114ab6114bd976040955f916114c7575b506114a561149f61149a6112ac565b611246565b91611246565b146112b9565b612f74565b920161108e565b90613072565b610f69565b6112e5565b6114e8915060203d81116114ee575b6114e08183610fc7565b81019061126f565b5f61148b565b503d6114d6565b611112565b5061142b8561151c6115166115116020860161108e565b61021f565b9161021f565b149050611422565b611545915060a03d811161154b575b61153d8183610fc7565b8101906111bf565b5f611406565b503d611533565b611112565b611578915060603d811161157f575b6115708183610fc7565b8101906110d8565b5090611388565b503d611566565b611112565b505050565b9061159a91610f51565b565b906115a69061094a565b5f5260205260405f2090565b60ff1690565b6115c46115c991610e4f565b6115b2565b90565b6115d690546115b8565b90565b611615926115f3916115e9610f65565b5090839091612ce1565b9061160f61160a6116026112ac565b92600161159c565b6115cc565b91613133565b90565b1561161f57565b5f630bb206c760e31b81528061163760048201610317565b0390fd5b6002111561164557565b5f80fd5b905035906116568261163b565b565b906020828203126116715761166e915f01611649565b90565b61020c565b634e487b7160e01b5f52602160045260245ffd5b6002111561169457565b611676565b906116a38261168a565b565b916116ea336116e46116de6116d97f0000000000000000000000000000000000000000000000000000000000000000610b13565b61021f565b9161021f565b14611618565b6116f78282810190611658565b6117096117035f611699565b91611699565b145f1461171f5761171c92919091613b13565b5b565b61172b92919091613828565b61171d565b9061173a9061094a565b5f5260205260405f2090565b906117509061094a565b5f5260205260405f2090565b61176590610922565b90565b6117719061175c565b90565b61177d9061093e565b90565b9060208282031261179957611796915f0161113b565b90565b61020c565b634e487b7160e01b5f52601160045260245ffd5b6117be6117c491611246565b91611246565b019060ff82116117d057565b61179e565b602061181261180d61180860026118026117fb611828976117f4610f65565b505f611730565b8890611746565b01610e68565b611768565b611774565b63a035b1fe90611820610202565b9384926110c3565b8252818061183860048201610317565b03915afa9081156118be5761188d9361187f9261185d925f91611890575b5090613b42565b9161187961187461186c6112ac565b92600161159c565b6115cc565b906117b2565b6118876112ac565b91613133565b90565b6118b1915060203d81116118b7575b6118a98183610fc7565b810190611780565b5f611856565b503d61189f565b611112565b6118cb612e50565b6118d36118d5565b565b6118dd613c08565b565b6118e76118c3565b565b90565b6119006118fb611905926118e9565b61091f565b61024e565b90565b611919670de0b6b3a76400006118ec565b90565b61192b6119319193929361024e565b9261024e565b820391821161193c57565b61179e565b61197a6119616119a19561197f94611957610f65565b50908690916117d5565b91611974839161196f611908565b61191c565b90613c12565b61191c565b9061199b61199661198e6112ac565b92600161159c565b6115cc565b91613133565b90565b5f90565b60a01c90565b60ff1690565b6119c06119c5916119a8565b6119ae565b90565b6119d290546119b4565b90565b6119dd6119a4565b506119e860056119c8565b90565b90565b611a026119fd611a07926119eb565b61091f565b610214565b90565b611a13906119ee565b90565b90611a2760018060a01b0391610ec6565b9181191691161790565b90565b90611a49611a44611a509261094a565b611a31565b8254611a16565b9055565b90611a5d610e4b565b50611a7c611a77611a7060078590610956565b8390610988565b610e68565b9182611a98611a92611a8d5f611a0a565b61021f565b9161021f565b14611aa3575b505090565b611aec919250611ae7611ad57f0000000000000000000000000000000000000000000000000000000000000000613c39565b93611ae285936007610956565b610988565b611a34565b5f80611a9e565b611b3091611b0991611b03610f65565b50612d69565b7f00000000000000000000000000000000000000000000000000000000000000009061191c565b90565b15611b3a57565b5f6307bb643d60e11b815280611b5260048201610317565b0390fd5b90611b7191611b6c611b6733612e31565b611b33565b611b73565b565b90611b8591611b80613c58565b611bb7565b565b35611b918161022b565b90565b15611b9b57565b5f630a52f42d60e41b815280611bb360048201610317565b0390fd5b90611bea91611be5611be0611bce60208501611b87565b611bda60408601611b87565b90612bdd565b611b94565b611c38565b565b35611bf681610251565b90565b611c0d611c08611c12926119eb565b61091f565b61024e565b90565b15611c1c57565b5f63219e33d160e11b815280611c3460048201610317565b0390fd5b90611c6991611c64611c4c60608401611bec565b611c5e611c585f611bf9565b9161024e565b11611c15565b611c8e565b565b15611c7257565b5f6315138ff160e11b815280611c8a60048201610317565b0390fd5b90611ce191611cdc611ca15f8401611bec565b611cd5611ccf611cca611cb660208801611b87565b93611cc360408901611b87565b9094611af3565b61024e565b9161024e565b1115611c6b565b61247d565b565b5f80fd5b903590600160800381360303821215611cfe570190565b611ce3565b903590600160a00381360303821215611d1a570190565b611ce3565b611d2890611699565b90565b611d3490611d1f565b9052565b50611d47906020810190610265565b90565b906080611dc3611dcb93611d6c611d635f830183611d38565b5f860190610a70565b611d86611d7c6020830183611d38565b6020860190610a70565b611da0611d966040830183611d38565b6040860190610a70565b611dba611db06060830183611d38565b6060860190610a70565b82810190611d38565b910190610a70565b565b600b1115611dd757565b5f80fd5b90503590611de882611dcd565b565b50611df9906020810190611ddb565b90565b600b1115611e0657565b611676565b90611e1582611dfc565b565b611e2090611e0b565b90565b611e2c90611e17565b9052565b50611e3f90602081019061023f565b90565b611e4b9061021f565b9052565b5f80fd5b5f80fd5b5f80fd5b9035600160200382360303811215611e9c57016020813591019167ffffffffffffffff8211611e97576001820236038313611e9257565b611e53565b611e4f565b611e57565b60209181520190565b90825f939282370152565b9190611ecf81611ec881611ed495611ea1565b8095611eaa565b610fa9565b0190565b611ee181610646565b03611ee857565b5f80fd5b90503590611ef982611ed8565b565b50611f0a906020810190611eec565b90565b611f1690610646565b9052565b90611f8a906060611f82611f7860808401611f43611f3a5f890189611dea565b5f870190611e23565b611f5d611f536020890189611e30565b6020870190611e42565b611f6a6040880188611e5b565b908683036040880152611eb5565b9482810190611efb565b910190611f0d565b90565b9035600160200382360303811215611fce57016020813591019167ffffffffffffffff8211611fc9576020820236038313611fc457565b611e53565b611e4f565b611e57565b60209181520190565b90565b903560016101800382360303811215611ff6570190565b611e57565b6004111561200557565b5f80fd5b9050359061201682611ffb565b565b50612027906020810190612009565b90565b6004111561203457565b611676565b906120438261202a565b565b61204e90612039565b90565b61205a90612045565b9052565b6121a79161219861018082019261208361207a5f830183611d38565b5f850190610a70565b61209d6120936020830183611d38565b6020850190610a70565b6120b76120ad6040830183611d38565b6040850190610a70565b6120d16120c76060830183612018565b6060850190612051565b6120eb6120e16080830183611e30565b6080850190611e42565b6121056120fb60a0830183611e30565b60a0850190611e42565b61211f61211560c0830183611e30565b60c0850190611e42565b61213961212f60e0830183611e30565b60e0850190611e42565b61215561214a610100830183611d38565b610100850190610a70565b612171612166610120830183611d38565b610120850190610a70565b61218d612182610140830183611d38565b610140850190610a70565b610160810190611e5b565b91610160818503910152611eb5565b90565b906122039060406121fb6121f16121d6606085016121ca5f890189611fdf565b8682035f88015261205e565b6121e36020880188611e5b565b908683036020880152611eb5565b9482810190611d38565b910190610a70565b90565b90612210916121aa565b90565b9035600160600382360303811215612229570190565b611e57565b60200190565b918161223f91611fd3565b908161225060208302840194611fdc565b92835f925b8484106122655750505050505090565b909192939495602061229061228a83856001950388526122858b88612213565b612206565b9861222e565b940194019294939190612255565b612330916123226123176122fc60a084016122c76122be5f880188611e30565b5f870190611e42565b6122e16122d76020880188611d38565b6020870190610a70565b6122ee6040870187611f8d565b908683036040880152612234565b6123096060860186611f8d565b908583036060870152612234565b926080810190611e5b565b916080818503910152611eb5565b90565b9a99979593919896949290986102008c01995f8d0161235191611d2b565b60208c0161235e916102a1565b60408b0161236b9161043e565b60608a01612378916102a1565b60808901612385916102a1565b60a088016123929161043e565b60c0870161239f91611d4a565b61016086016123ad916102a1565b61018085016123bb916102a1565b6101a084016123c99161043e565b8281036101c08401526123db91611f1a565b90808203906101e001526123ee9161229e565b90565b5f9103126123fb57565b61020c565b5190565b60209181520190565b90825f9392825e0152565b6124376124406020936124459361242e81612400565b93848093612404565b9586910161240d565b610fa9565b0190565b61246d61247a94929361246360608401955f8501906102a1565b602083019061043e565b6040818403910152612418565b90565b9061248a60208201611b87565b91612553602061254461249f60408601611b87565b946124ac60608201611bec565b906124b988338491613ca6565b6124d16124c75f8301611bec565b8989908592611941565b975f96926124e05f8401611bec565b9190899060808501906124f66101208701611b87565b926125046101408801611b87565b946125126101608901611bec565b966125316125258a610180810190611ce7565b996101a0810190611d03565b9961253a610202565b9e8f9d8e01612333565b60208201810382520382610fc7565b9161257d7f0000000000000000000000000000000000000000000000000000000000000000610b13565b63e0232b4292919392813b156125f9575f6125ab916125b6829661259f610202565b988997889687956110c3565b855260048501612449565b03925af180156125f4576125c8575b50565b6125e7905f3d81116125ed575b6125df8183610fc7565b8101906123f1565b5f6125c5565b503d6125d5565b611112565b6110bf565b9061260891611b56565b565b906126259161262061261b33612e31565b611b33565b612627565b565b9061263991612634613c58565b61265e565b565b1561264257565b5f63f1e7f8e160e01b81528061265a60048201610317565b0390fd5b9061268f9161268a61267260608401611bec565b61268461267e5f611bf9565b9161024e565b1161263b565b612844565b565b9061269b9061094a565b5f5260205260405f2090565b906126b19061094a565b5f5260205260405f2090565b906126c79061094a565b5f5260205260405f2090565b90565b90565b6126e56126ea91610e4f565b6126d6565b90565b6126f790546126d9565b90565b1561270157565b5f632ad10c8b60e01b81528061271960048201610317565b0390fd5b1561272457565b5f63af020cc560e01b81528061273c60048201610317565b0390fd5b9061274b910361024e565b90565b9061275a5f1991610ec6565b9181191691161790565b90565b9061277c6127776127839261096c565b612764565b825461274e565b9055565b9a99979593919896949290986101808c01995f8d016127a591611d2b565b60208c016127b2916102a1565b60408b016127bf916102a1565b60608a016127cc916102a1565b608089016127d9916102a1565b60a088016127e69161043e565b60c087016127f39161043e565b60e08601612800916102a1565b610100850161280e916102a1565b610120840161281c9161043e565b82810361014084015261282e91611f1a565b908082039061016001526128419161229e565b90565b9061285160208201611b87565b906129ca60206129bb61286660408501611b87565b9461287360608601611bec565b9461289561288360808301611bec565b9861288f5f8401611bec565b90610e75565b9161294d6128c16128bc6128b56128ae60088890612691565b85906126a7565b8b906126bd565b6126d3565b6128e98b6128e26128dc6128d65f86016126ed565b9261024e565b9161024e565b10156126fa565b6129116128f8600183016126ed565b61290a6129048c61024e565b9161024e565b101561271d565b6129308b61292a5f840191612925836126ed565b612740565b90612767565b61294760018a920191612942836126ed565b612740565b90612767565b612959818989916115d9565b98600197339492918a9161296f60a08701611b87565b9261297c60c08801611b87565b9461298960e08901611bec565b966129a861299c8a610100810190611ce7565b99610120810190611d03565b996129b1610202565b9e8f9d8e01612787565b60208201810382520382610fc7565b916129f47f0000000000000000000000000000000000000000000000000000000000000000610b13565b63e0232b4292919392813b15612a70575f612a2291612a2d8296612a16610202565b988997889687956110c3565b855260048501612449565b03925af18015612a6b57612a3f575b50565b612a5e905f3d8111612a64575b612a568183610fc7565b8101906123f1565b5f612a3c565b503d612a4c565b611112565b6110bf565b90612a7f9161260a565b565b612a89613ce3565b612a91612c23565b612aa3612a9d8361021f565b9161021f565b03612ab357612ab190613d54565b565b612ace905f91829163118cdaa760e01b8352600483016102ae565b0390fd5b612ada612e50565b612ae2612ae4565b565b612aec613dcb565b565b612af6612ad2565b565b612b00610e4b565b50612b0b6004610e68565b90565b612b186040610ff0565b90565b5f90565b612b27612b0e565b9060208083612b34612b1b565b815201612b3f612b1b565b81525050565b612b4d612b1f565b90565b90612b5a9061024e565b9052565b90612b95612b8c6001612b6f612b0e565b94612b86612b7e5f83016126ed565b5f8801612b50565b016126ed565b60208401612b50565b565b612ba090612b5e565b90565b612bd592612bcb612bc4612bda9694612bd094612bbe612b45565b50610e75565b6008612691565b6126a7565b6126bd565b612b97565b90565b612bfe612c0492612bf9600193612bf26119a4565b505f611730565b611746565b01610e68565b612c1e612c18612c135f611a0a565b61021f565b9161021f565b141590565b612c2b610e4b565b50612c366005610e68565b90565b90612c439061021f565b9052565b612c5160a0610ff0565b90565b90612cd3612cca6004612c65612c47565b94612c7c612c745f8301610e68565b5f8801612c39565b612c94612c8b60018301610e68565b60208801612c39565b612cac612ca360028301610e68565b60408801612c39565b612cc4612cbb60038301610e68565b60608801612c39565b016126ed565b60808401612b50565b565b612cde90612c54565b90565b612d53612d4b612d6694612d3c612d16612d11612d0a612d5897612d03610f65565b505f611730565b8890611746565b612cd5565b7f0000000000000000000000000000000000000000000000000000000000000000614052565b939250905091909190916143ff565b92600161159c565b6115cc565b612d606112ac565b91613133565b90565b612d8a612d9092612d85600493612d7e610f65565b505f611730565b611746565b016126ed565b90565b612da490612d9f612e50565b612da6565b565b612db1816005611a34565b612db9612af8565b90612ded612de77f38d16b8cac22d99fc7c124b9cd0de2d3fa1faef420bfe791d8c362d765e227009361094a565b9161094a565b91612df6610202565b80612e0081610317565b0390a3565b612e0e90612d93565b565b612e1c612e2191610e4f565b6119ae565b90565b612e2e9054612e10565b90565b612e48612e4d91612e406119a4565b506006610eb0565b612e24565b90565b612e58612af8565b612e71612e6b612e66613ce3565b61021f565b9161021f565b03612e7857565b612e9a612e83613ce3565b5f91829163118cdaa760e01b8352600483016102ae565b0390fd5b612ea8905161024e565b90565b90612f2160806004612f2794612ece5f8201612ec85f880161108e565b90611a34565b612ee760018201612ee16020880161108e565b90611a34565b612f0060028201612efa6040880161108e565b90611a34565b612f1960038201612f136060880161108e565b90611a34565b019201612e9e565b90612767565b565b90612f3391612eab565b565b612f49612f44612f4e92611246565b61091f565b611246565b90565b90565b90612f69612f64612f7092612f35565b612f51565b8254610ecb565b9055565b612fde90612fab81612fa6612f955f612f8f6020870161108e565b90611730565b612fa05f860161108e565b90611746565b612f29565b6020612fc8612fc3612fbe5f850161108e565b61122e565b61123a565b63313ce56790612fd6610202565b9485926110c3565b82528180612fee60048201610317565b03915afa90811561305757613021925f92613023575b5061301c906130165f6001920161108e565b9061159c565b612f54565b565b61301c9192506130499060203d8111613050575b6130418183610fc7565b81019061126f565b9190613004565b503d613037565b611112565b906130669061094a565b5f5260205260405f2090565b6130816130869291600261305c565b611a34565b565b61309461309a91611246565b91611246565b90039060ff82116130a757565b61179e565b6130b590611246565b604d81116130c357600a0a90565b61179e565b6130d76130dd9193929361024e565b9261024e565b916130e983820261024e565b9281840414901517156130f857565b61179e565b634e487b7160e01b5f52601260045260245ffd5b61311d6131239161024e565b9161024e565b90811561312e570490565b6130fd565b9161313c610f65565b508161315061314a83611246565b91611246565b115f146131765761316861316d916131739493613088565b6130ac565b90613111565b90565b908061318a61318484611246565b91611246565b105f146131b0576131a26131a7916131ad9493613088565b6130ac565b906130c8565b90565b505090565b906131c892916131c3614466565b6136f9565b6131d06144cb565b565b6131db90610214565b90565b6131e7816131d2565b036131ee57565b5f80fd5b905035906131ff826131de565b565b5f80fd5b67ffffffffffffffff81116132235761321f602091610fa9565b0190565b610fb3565b9092919261323d61323882613205565b610ff0565b938185526020850190828401116132595761325792611eaa565b565b613201565b9080601f8301121561327c5781602061327993359101613228565b90565b61034f565b9190916080818403126132f8576132986080610ff0565b926132a5815f8401611ddb565b5f8501526132b6816020840161023f565b602085015260408201359167ffffffffffffffff83116132f3576132df826132ec94830161325e565b6040860152606001611eec565b6060830152565b611005565b610fa5565b67ffffffffffffffff81116133155760208091020190565b610fb3565b9190916101808184031261342a57613333610180610ff0565b92613340815f8401610265565b5f8501526133518160208401610265565b60208501526133638160408401610265565b60408501526133758160608401612009565b6060850152613387816080840161023f565b60808501526133998160a0840161023f565b60a08501526133ab8160c0840161023f565b60c08501526133bd8160e0840161023f565b60e08501526133d0816101008401610265565b6101008501526133e4816101208401610265565b6101208501526133f8816101408401610265565b61014085015261016082013567ffffffffffffffff81116134255761341d920161325e565b610160830152565b611005565b610fa5565b9190916060818403126134ac576134466060610ff0565b925f82013567ffffffffffffffff81116134a7578161346691840161331a565b5f85015260208201359167ffffffffffffffff83116134a25761348e8261349b94830161325e565b6020860152604001610265565b6040830152565b611005565b611005565b610fa5565b9291906134c56134c0826132fd565b610ff0565b938185526020808601920281019183831161351c5781905b8382106134eb575050505050565b813567ffffffffffffffff81116135175760209161350c878493870161342f565b8152019101906134dd565b61034f565b610357565b9080601f8301121561353f5781602061353c933591016134b1565b90565b61034f565b91909160a0818403126135fc5761355b60a0610ff0565b92613568815f840161023f565b5f8501526135798160208401610265565b6020850152604082013567ffffffffffffffff81116135f7578161359e918401613521565b6040850152606082013567ffffffffffffffff81116135f257816135c3918401613521565b6060850152608082013567ffffffffffffffff81116135ed576135e6920161325e565b6080830152565b611005565b611005565b611005565b610fa5565b91610180838303126136e857613619825f8501611649565b9261362783602083016131f2565b9261363581604084016131f2565b9261364382606085016131f2565b9261365183608083016131f2565b9261365f8160a08401610265565b9261366d8260c08501610265565b9261367b8360e083016131f2565b9261368a8161010084016131f2565b92613699826101208501610265565b9261014081013567ffffffffffffffff81116136e357836136bb918301613281565b9261016082013567ffffffffffffffff81116136de576136db9201613544565b90565b610210565b610210565b61020c565b6136f69061093e565b90565b9161374861374261373c61371761374e946137779690810190613601565b909a91999f969e9560809e959d94989e9c93999c52999897969b9d9c9a9e90506136ed565b9c6136ed565b976136ed565b986136ed565b9861376561375f60805192996136ed565b936136ed565b9394959690898d8c90918b93946144df565b8561378a6137845f611bf9565b9161024e565b1461381c576137a1969588909192939495966148eb565b6137d5826137ce7f0000000000000000000000000000000000000000000000000000000000000000610b13565b8691614a4c565b6137dd610f65565b50806137f16137eb8661024e565b9161024e565b116137fd575b50505050565b6138139361380a91612740565b90919091614a63565b5f8080806137f7565b50505050505050505050565b9061383392916131b5565b565b906138489291613843614466565b6139d9565b6138506144cb565b565b919060a0838203126138c2576138bb9061386c60a0610ff0565b93613879825f8301610265565b5f86015261388a8260208301610265565b602086015261389c8260408301610265565b60408601526138ae8260608301610265565b6060860152608001610265565b6080830152565b610fa5565b91610200838303126139af576138df825f8501611649565b926138ed83602083016131f2565b926138fb8160408401610265565b9261390982606085016131f2565b9261391783608083016131f2565b926139258160a08401610265565b926139338260c08501613852565b926139428361016083016131f2565b926139518161018084016131f2565b92613960826101a08501610265565b926101c081013567ffffffffffffffff81116139aa5783613982918301613281565b926101e082013567ffffffffffffffff81116139a5576139a29201613544565b90565b610210565b610210565b61020c565b6139c36139c99193929361024e565b9261024e565b82018092116139d457565b61179e565b9181016139e5916138c7565b92959a509092939597986139f8906136ed565b9896613a03906136ed565b97613a0d906136ed565b999593613a19906136ed565b94613a23906136ed565b929091928a9589958d90919293949596613a3c98614bc8565b613a45916139b4565b9281838686908992613a5694614d71565b90613a6091611a54565b9081818585908892613a7194614dfb565b91600890613a7e91612691565b90613a88916126a7565b83613a92916126bd565b613a9b906126d3565b91825f0190613aa9826126ed565b90613ab3916139b4565b613abc91612767565b9060010190613aca826126ed565b90613ad4916139b4565b613add91612767565b907f0000000000000000000000000000000000000000000000000000000000000000613b0890610b13565b613b1192614a4c565b565b90613b1e9291613835565b565b613b2c613b329161024e565b9161024e565b908115613b3d570490565b6130fd565b613b6691613b5891613b52610f65565b506130c8565b613b60611908565b90613b20565b90565b613b71614e3d565b613b79613bba565b565b60a01b90565b90613b9060ff60a01b91613b7b565b9181191691161790565b90613baf613baa613bb692610ee1565b610eed565b8254613b81565b9055565b613bc55f6005613b9a565b613bcd613ce3565b613c037f5db9ee0a495bf2e6ff9c91a7834c1ba4fdd244a5e8aa4e537bd38aeae4b073aa91613bfa610202565b918291826102ae565b0390a1565b613c10613b69565b565b90613c31613c3692613c22610f65565b50613c2b611908565b906130c8565b613b20565b90565b613c5590613c45610e4b565b50613c4f5f611bf9565b90614e7c565b90565b613c606119d5565b613c6657565b5f63d93c066560e01b815280613c7e60048201610317565b0390fd5b613c8b90610922565b90565b613c9790613c82565b90565b613ca39061093e565b90565b9180613cba613cb45f611bf9565b9161024e565b14613cde57613ccb613cdc93613c8e565b91613cd530613c9a565b9192614fbd565b565b505050565b613ceb610e4b565b503390565b1b90565b91906008613d14910291613d0e60018060a01b0384613cf0565b92613cf0565b9181191691161790565b9190613d34613d2f613d3c9361094a565b611a31565b908354613cf4565b9055565b613d5291613d4c610e4b565b91613d1e565b565b613d6890613d635f6005613d40565b61500d565b565b613d72613c58565b613d7a613d7c565b565b613d8860016005613b9a565b613d90613ce3565b613dc67f62e78cea01bee320cd4e420270b5ea74000d11b0c9f74754ebdbfc544b05a25891613dbd610202565b918291826102ae565b0390a1565b613dd3613d6a565b565b6fffffffffffffffffffffffffffffffff1690565b613df381613dd5565b03613dfa57565b5f80fd5b90505190613e0b82613dea565b565b919060c083820312613e8f57613e8890613e2760c0610ff0565b93613e34825f8301613dfe565b5f860152613e458260208301613dfe565b6020860152613e578260408301613dfe565b6040860152613e698260608301613dfe565b6060860152613e7b8260808301613dfe565b608086015260a001613dfe565b60a0830152565b610fa5565b9060c082820312613ead57613eaa915f01613e0d565b90565b61020c565b613ebc9051613dd5565b90565b613ed3613ece613ed892613dd5565b61091f565b61024e565b90565b613eef613eea613ef4926119eb565b61091f565b613dd5565b90565b613f0090610922565b90565b613f0c90613ef7565b90565b613f189061093e565b90565b90608080613f7393613f335f8201515f860190611e42565b613f4560208201516020860190611e42565b613f5760408201516040860190611e42565b613f6960608201516060860190611e42565b0151910190610a70565b565b613f7e90613dd5565b9052565b9060a080613fec93613f9a5f8201515f860190613f75565b613fac60208201516020860190613f75565b613fbe60408201516040860190613f75565b613fd060608201516060860190613f75565b613fe260808201516080860190613f75565b0151910190613f75565b565b9160a06140109294936140096101608201965f830190613f1b565b0190613f82565b565b61401e61402491613dd5565b91613dd5565b01906fffffffffffffffffffffffffffffffff821161403f57565b61179e565b9061404e90613dd5565b9052565b60c06140b591614060610f65565b50614069610f65565b50614072610f65565b5061407b610f65565b5061408e61408885615072565b91610b13565b6140aa635c60e39a61409e610202565b958694859384936110c3565b8352600483016111ea565b03915afa9081156143a0575f91614372575b50906140e7426140e16140dc60808601613eb2565b613ebf565b9061191c565b806140fa6140f45f611bf9565b9161024e565b14158061434c575b8061431e575b614166575b505061411a5f8201613eb2565b61412660208301613eb2565b9261416361415d61415761415161414b606061414460408a01613eb2565b9801613eb2565b95613ebf565b96613ebf565b94613ebf565b92613ebf565b90565b602061418461417f61417a6060860161108e565b613f03565b613f0f565b638c00bf6b93906141a786956141b261419b610202565b978895869485946110c3565b845260048401613fee565b03915afa918215614319576141ee926141e8915f916142eb575b50916141e26141dd60408701613eb2565b613ebf565b926150b5565b90615128565b6142166141fa8261527b565b614210604085019161420b83613eb2565b614012565b90614044565b61423d6142228261527b565b6142375f85019161423283613eb2565b614012565b90614044565b61424960a08301613eb2565b61425b6142555f613edb565b91613dd5565b03614267575b8061410d565b6142c96142c461428e6142e59361428861428360a08801613eb2565b613ebf565b90615128565b6142aa816142a56142a05f8901613eb2565b613ebf565b61191c565b6142be6142b960208801613eb2565b613ebf565b916152c6565b61527b565b6142df60208401916142da83613eb2565b614012565b90614044565b5f614261565b61430c915060203d8111614312575b6143048183610fc7565b810190611780565b5f6141cc565b503d6142fa565b611112565b5061432b6060830161108e565b61434561433f61433a5f611a0a565b61021f565b9161021f565b1415614108565b5061435960408401613eb2565b61436b6143655f613edb565b91613dd5565b1415614102565b614393915060c03d8111614399575b61438b8183610fc7565b810190613e94565b5f6140c7565b503d614381565b611112565b90565b6143bc6143b76143c1926143a5565b61091f565b61024e565b90565b6143ce60016143a8565b90565b90565b6143e86143e36143ed926143d1565b61091f565b61024e565b90565b6143fc620f42406143d4565b90565b9161443161442261443794614412610f65565b509361441c6143c4565b906139b4565b9161442b6143f0565b906139b4565b91615302565b90565b90565b61445161444c6144569261443a565b61091f565b61024e565b90565b614463600261443d565b90565b61447060036126ed565b61448961448361447e614459565b61024e565b9161024e565b146144a2576144a0614499614459565b6003612767565b565b5f633ee5aeb560e01b8152806144ba60048201610317565b0390fd5b6144c860016143a8565b90565b6144dd6144d66144be565b6003612767565b565b949392906144fc61450d936144f7614501935f611730565b611746565b612cd5565b938591859091926153d9565b50508061452261451c5f611bf9565b9161024e565b1161452d575b505050565b614539929190916155f9565b5f8080614528565b61454a9061093e565b90565b61455760a0610ff0565b90565b52565b90916060828403126145925761458f614578845f850161113b565b93614586816020860161113b565b9360400161113b565b90565b61020c565b6145b66145bf6020936145c4936145ad81612400565b93848093611ea1565b9586910161240d565b610fa9565b0190565b906146169060608061460b608084016145e75f8801515f870190611e23565b6145f960208801516020870190611e42565b60408701518582036040870152614597565b940151910190611f0d565b90565b61467a91608060a08201926146345f8201515f850190611e42565b61464660208201516020850190610a70565b61465860408201516040850190611e42565b61466a60608201516060850190611e42565b01519060808184039101526145c8565b90565b5190565b60200190565b61476f916101606101808201926146a45f8201515f850190610a70565b6146b660208201516020850190610a70565b6146c860408201516040850190610a70565b6146da60608201516060850190612051565b6146ec60808201516080850190611e42565b6146fe60a082015160a0850190611e42565b61471060c082015160c0850190611e42565b61472260e082015160e0850190611e42565b614736610100820151610100850190610a70565b61474a610120820151610120850190610a70565b61475e610140820151610140850190610a70565b015190610160818403910152614597565b90565b906147b1906040806147a6614794606085015f8801518682035f880152614687565b60208701518582036020870152614597565b940151910190610a70565b90565b906147be91614772565b90565b60200190565b906147db6147d48361467d565b8092611fd3565b90816147ec60208302840194614681565b925f915b8383106147ff57505050505090565b9091929394602061482161481b838560019503875289516147b4565b976147c1565b93019301919392906147f0565b61489591608061488461487260a0840161484e5f8701515f870190611e42565b61486060208701516020870190610a70565b604086015185820360408701526147c7565b606085015184820360608601526147c7565b920151906080818403910152614597565b90565b936148cd6148e896946148c36148da956148b960a08a01965f8b01906102a1565b60208901906102a1565b604087019061043e565b8482036060860152614619565b91608081840391015261482e565b90565b92939690969491946148fb610f65565b50837f000000000000000000000000000000000000000000000000000000000000000061492790610c82565b8790614932926157f5565b7f000000000000000000000000000000000000000000000000000000000000000061495c90610c82565b9663594a88cc953061496d90614541565b9560029061497a9161305c565b61498390610e68565b9799949290919261499261454d565b955f8701906149a091612c39565b60208601906149ae91612b50565b60408501906149bc91612c39565b60608401906149ca91612c39565b60808301906149d89161455a565b906149e1610202565b9687956149ee87966110c3565b865260048601946149fe95614898565b03815a6060945f91f1908115614a47575f91614a19575b5090565b614a3a915060603d8111614a40575b614a328183610fc7565b81019061455d565b50614a15565b503d614a28565b611112565b91614a59614a6193613c8e565b9190916158c7565b565b9180614a77614a715f611bf9565b9161024e565b14614a9257614a88614a9093613c8e565b919091615983565b565b505050565b614aa160a0610ff0565b90565b90608080614afc93614abc5f8201515f860190610a70565b614ace60208201516020860190610a70565b614ae060408201516040860190610a70565b614af260608201516060860190610a70565b0151910190610a70565b565b614b5f91608060a0820192614b195f8201515f850190611e42565b614b2b60208201516020850190610a70565b614b3d60408201516040850190611e42565b614b4f60608201516060850190611e42565b01519060808184039101526145c8565b90565b949091614bc59694614b9e614bb695614b94614ba894614b8a6101408c01985f8d01906102a1565b60208b01906102a1565b604089019061043e565b6060870190614aa4565b848203610100860152614afe565b9161012081840391015261482e565b90565b9297909394614bd5610f65565b50837f0000000000000000000000000000000000000000000000000000000000000000614c0190610c82565b8490614c0c92614a4c565b7f0000000000000000000000000000000000000000000000000000000000000000614c3690610c82565b9763c81f847a9630614c4790614541565b96600290614c549161305c565b614c5d90610e68565b989a959492909192614c6d614a97565b955f870190614c7b91612c39565b6020860190614c8991612b50565b6040850190614c9791612c39565b6060840190614ca591612c39565b6080830190614cb39161455a565b91614cbc610202565b978896614cc988976110c3565b87526004870195614cd996614b62565b03815a6060945f91f1908115614d22575f91614cf4575b5090565b614d15915060603d8111614d1b575b614d0d8183610fc7565b81019061455d565b50614cf0565b503d614d03565b611112565b916020614d48929493614d4160408201965f83019061043e565b019061043e565b565b15614d53575050565b614d6d5f928392630bcef0b960e21b845260048401614d27565b0390fd5b92614db292614d9f614d9a614d91614dad94614df99996908590916117d5565b9492600161159c565b6115cc565b614da76112ac565b91613133565b613c12565b80614def614de9614de4857f0000000000000000000000000000000000000000000000000000000000000000906139b4565b61024e565b9161024e565b1115919091614d4a565b565b90614e27614e22614e3a9694614e1d614e3294614e16610f65565b505f611730565b611746565b612cd5565b938290859091615a14565b919091615b4d565b90565b614e4e614e486119d5565b15610646565b614e5457565b5f638dfc202b60e01b815280614e6c60048201610317565b0390fd5b614e799061093e565b90565b614e84610e4b565b50614e8e30614e70565b31614ea1614e9b8461024e565b9161024e565b10614f25576037916e5af43d82803e903d91602b57fd5bf382763d602d80600a3d3981f3363d3d373d3d3d363d7300000060099460601b60e81c175f5260781b17602052f09081614f02614efc614ef75f611a0a565b61021f565b9161021f565b14614f0957565b5f63b06ebf3d60e01b815280614f2160048201610317565b0390fd5b50614f2f30614e70565b31614f4a5f92839263cf47918160e01b845260048401614d27565b0390fd5b614f579061093e565b90565b63ffffffff1690565b63ffffffff60e01b1690565b614f83614f7e614f8892614f5a565b6110c3565b614f63565b90565b604090614fb4614fbb9496959396614faa60608401985f8501906102a1565b60208301906102a1565b019061043e565b565b600492614ff761500b95936150069394614fde6323b872dd92949192614f6f565b93614fe7610202565b9788956020870190815201614f8b565b60208201810382520383610fc7565b615c69565b565b6150176004610e68565b615022826004611a34565b906150566150507f8be0079c531659141344cd1fd0a4f28419497f9722a3daafe3b4186f6b6457e09361094a565b9161094a565b9161505f610202565b8061506981610317565b0390a3565b5f90565b60a09061507d61506e565b502090565b615093670de0b6b3a76400006118ec565b90565b90565b6150ad6150a86150b292615096565b61091f565b61024e565b90565b615125916150cb916150c5610f65565b506130c8565b6151206150f482836150ee60026150e96150e3615082565b9161443d565b6130c8565b91615d1d565b61511a8184615114600361510f615109615082565b91615099565b6130c8565b91615d1d565b926139b4565b6139b4565b90565b9061514591615135610f65565b509061513f615082565b91615d1d565b90565b5f90565b67ffffffffffffffff811161516a57615166602091610fa9565b0190565b610fb3565b9061518161517c8361514c565b610ff0565b918252565b5f7f6d61782075696e74313238206578636565646564000000000000000000000000910152565b6151b7601461516f565b906151c460208301615186565b565b6151ce6151ad565b90565b6151d96151c6565b90565b5190565b60209181520190565b615208615211602093615216936151ff816151dc565b938480936151e0565b9586910161240d565b610fa9565b0190565b61522f9160208201915f8184039101526151e9565b90565b1561523a5750565b61525b90615246610202565b91829162461bcd60e51b83526004830161521a565b0390fd5b61527361526e6152789261024e565b61091f565b613dd5565b90565b6152c390615287615148565b506152be816152ae6152a86fffffffffffffffffffffffffffffffff613ebf565b9161024e565b11156152b86151d1565b90615232565b61525f565b90565b906152f96152ea6152ff94936152da610f65565b50936152e46143f0565b906139b4565b916152f36143c4565b906139b4565b91615d1d565b90565b61531c61533b939261533692615316610f65565b506130c8565b6153308361532a60016143a8565b9061191c565b906139b4565b613111565b90565b9190604083820312615366578061535a615363925f860161113b565b9360200161113b565b90565b61020c565b61537490611bf9565b9052565b6153835f8092612404565b0190565b91936153be6153c892946153b46153d6976153aa6101208801985f890190613f1b565b60a087019061536b565b60c085019061043e565b60e08301906102a1565b610100818303910152615378565b90565b61542d6040936153e7610f65565b506153f0610f65565b506153fc5f850161108e565b906154267f0000000000000000000000000000000000000000000000000000000000000000610b13565b9091614a4c565b9061547c5f61545b7f0000000000000000000000000000000000000000000000000000000000000000610b13565b926154876320b76e8191958398615470610202565b998a98899788966110c3565b865260048601615387565b03925af19081156154d1575f809190926154a1575b509091565b90506154c4915060403d81116154ca575b6154bc8183610fc7565b81019061533e565b5f61549c565b503d6154b2565b611112565b6154df9061093e565b90565b6154eb90610922565b90565b6154f7906154e2565b90565b6155039061093e565b90565b61553c6155439461553260e09498979561552861010086019a5f870190613f1b565b60a085019061043e565b60c08301906102a1565b01906102a1565b565b9092919261555a61555582613205565b610ff0565b93818552602085019082840111615576576155749261240d565b565b613201565b9080601f830112156155995781602061559693519101615545565b90565b61034f565b906020828203126155ce575f82015167ffffffffffffffff81116155c9576155c6920161557b565b90565b610210565b61020c565b916155f6926155e960408201935f8301906102a1565b6020818403910152612418565b90565b91905f9161569c838561568561561f61561a615614306154d6565b936154ee565b6154fa565b94615676631cff79cd936156527f0000000000000000000000000000000000000000000000000000000000000000610b13565b98929a61565d610202565b9b8c94600460208701638720316d60e01b815201615506565b60208201810382520388610fc7565b6156a7615690610202565b978896879586946110c3565b8452600484016155d3565b03925af180156156d9576156b9575b50565b6156d4903d805f833e6156cc8183610fc7565b81019061559e565b6156b6565b611112565b9160206156ff9294936156f860408201965f8301906102a1565b019061043e565b565b9061571361570e83613205565b610ff0565b918252565b606090565b3d5f146157385761572d3d615701565b903d5f602084013e5b565b615740615718565b90615736565b9050519061575382611ed8565b565b9060208282031261576e5761576b915f01615746565b90565b61020c565b5f7f5361666520417070726f76650000000000000000000000000000000000000000910152565b6157a7600c6020926151e0565b6157b081615773565b0190565b6157c99060208101905f81830391015261579a565b90565b156157d357565b6157db610202565b62461bcd60e51b8152806157f1600482016157b4565b0390fd5b6158549260046158365f9461582786959463095ea7b360e01b92615817610202565b95869460208601908152016156de565b60208201810382520382610fc7565b82602082019151925af161584861571d565b81615856575b506157cc565b565b905061586181612400565b61587361586d5f611bf9565b9161024e565b14908115615883575b505f61584e565b61589e9150602061589382612400565b818301019101615755565b5f61587c565b9160206158c59294936158be60408201965f8301906102a1565b019061536b565b565b909161590a6004916158fb63095ea7b36158e2879391614f6f565b926158eb610202565b95869460208601908152016156de565b60208201810382520382610fc7565b9061591f615919828490615d3c565b15610646565b615929575b505050565b615976600461597b94615971849161596263095ea7b36159495f91614f6f565b92615952610202565b96879460208601908152016158a4565b60208201810382520383610fc7565b615c69565b615c69565b5f8080615924565b906159ca6159cf936159bb600494936159a263a9059cbb919391614f6f565b926159ab610202565b96879460208601908152016156de565b60208201810382520383610fc7565b615c69565b565b9091615a11936159fa615a04926159f06101008601965f870190613f1b565b60a085019061043e565b60c08301906102a1565b60e0818303910152615378565b90565b91615a54615a246020840161108e565b615a4d7f0000000000000000000000000000000000000000000000000000000000000000610b13565b83916157f5565b615a7d7f0000000000000000000000000000000000000000000000000000000000000000610b13565b63238d657992919392813b15615af9575f615aab91615ab68296615a9f610202565b988997889687956110c3565b8552600485016159d1565b03925af18015615af457615ac8575b50565b615ae7905f3d8111615aed575b615adf8183610fc7565b8101906123f1565b5f615ac5565b503d615ad5565b611112565b6110bf565b90959492615b4b94615b3a615b4492615b3061010096615b2661012088019c5f890190613f1b565b60a087019061043e565b60c085019061043e565b60e08301906102a1565b01906102a1565b565b91905f91615b59610f65565b50615c0683615b66610f65565b95615bef8194615be0615b89615b84615b7e306154d6565b956154ee565b6154fa565b96631cff79cd94615bb97f0000000000000000000000000000000000000000000000000000000000000000610b13565b99939b919091615bc7610202565b9c8d956004602088016350d8cd4b60e01b815201615afe565b60208201810382520388610fc7565b615c11615bfa610202565b978896879586946110c3565b8452600484016155d3565b03925af18015615c6457615c3d915f91615c42575b506020615c3282612400565b81830101910161533e565b905090565b615c5e91503d805f833e615c568183610fc7565b81019061559e565b5f615c26565b611112565b905f602091615c76610f65565b50615c7f610f65565b50828151910182855af115615d12573d5f5190615ca4615c9e5f611bf9565b9161024e565b145f14615cf85750615cb581614f4e565b3b615cc8615cc25f611bf9565b9161024e565b145b615cd15750565b615cdd615cf491614f4e565b5f918291635274afe760e01b8352600483016102ae565b0390fd5b615d0b615d0560016143a8565b9161024e565b1415615cca565b6040513d5f823e3d90fd5b615d399291615d3491615d2e610f65565b506130c8565b613111565b90565b905f602091615d496119a4565b50615d526119a4565b50615d5b610f65565b50615d64610f65565b50828151910182855af13d915f51919283615d80575b50505090565b90919250615d96615d905f611bf9565b9161024e565b145f14615dc457615da79150614f4e565b3b615dba615db45f611bf9565b9161024e565b115b5f8080615d7a565b50615dd8615dd260016143a8565b9161024e565b14615dbc56fea264697066735822122035897ef1b14f137a599a36deda94cabfd545908b1e93eaf13d8a9203478ea37664736f6c634300081e003360a06040523461003f57610019610014610104565b610125565b610021610044565b61051b61012b82396080518181816101d101526102f1015261051b90f35b61004a565b60405190565b5f80fd5b601f801991011690565b634e487b7160e01b5f52604160045260245ffd5b906100769061004e565b810190811060018060401b0382111761008e57604052565b610058565b906100a661009f610044565b928361006c565b565b5f80fd5b60018060a01b031690565b6100c0906100ac565b90565b6100cc816100b7565b036100d357565b5f80fd5b905051906100e4826100c3565b565b906020828203126100ff576100fc915f016100d7565b90565b6100a8565b6101226106468038038061011781610093565b9283398101906100e6565b90565b60805256fe60806040526004361015610013575b61024a565b61001d5f3561003c565b80631cff79cd146100375763dd72047f0361000e57610215565b61018a565b60e01c90565b60405190565b5f80fd5b5f80fd5b5f80fd5b60018060a01b031690565b61006890610054565b90565b6100748161005f565b0361007b57565b5f80fd5b9050359061008c8261006b565b565b5f80fd5b5f80fd5b5f80fd5b909182601f830112156100d45781359167ffffffffffffffff83116100cf5760200192600183028401116100ca57565b610096565b610092565b61008e565b91909160408184031261011a576100f2835f830161007f565b92602082013567ffffffffffffffff811161011557610111920161009a565b9091565b610050565b61004c565b5190565b60209181520190565b90825f9392825e0152565b601f801991011690565b61016061016960209361016e936101578161011f565b93848093610123565b9586910161012c565b610137565b0190565b6101879160208201915f818403910152610141565b90565b346101bb576101b76101a66101a03660046100d9565b916104cf565b6101ae610042565b91829182610172565b0390f35b610048565b5f9103126101ca57565b61004c565b7f000000000000000000000000000000000000000000000000000000000000000090565b6101fc9061005f565b9052565b9190610213905f602085019401906101f3565b565b34610245576102253660046101c0565b6102416102306101cf565b610238610042565b91829182610200565b0390f35b610048565b5f80fd5b606090565b60209181520190565b5f7f5573657250726f78793a206f6e6c79206c6576657261676520636f7265000000910152565b610290601d602092610253565b6102998161025c565b0190565b6102b29060208101905f818303910152610283565b90565b156102bc57565b6102c4610042565b62461bcd60e51b8152806102da6004820161029d565b0390fd5b906103269392916103213361031b6103157f000000000000000000000000000000000000000000000000000000000000000061005f565b9161005f565b146102b5565b610499565b90565b905090565b90825f939282370152565b9091826103498161035093610329565b809361032e565b0190565b909161035f92610339565b90565b634e487b7160e01b5f52604160045260245ffd5b9061038090610137565b810190811067ffffffffffffffff82111761039a57604052565b610362565b906103b26103ab610042565b9283610376565b565b67ffffffffffffffff81116103d2576103ce602091610137565b0190565b610362565b906103e96103e4836103b4565b61039f565b918252565b3d5f14610409576103fe3d6103d7565b903d5f602084013e5b565b61041161024e565b90610407565b5f7f5573657250726f78793a2063616c6c206661696c656400000000000000000000910152565b61044b6016602092610253565b61045481610417565b0190565b61046d9060208101905f81830391015261043e565b90565b1561047757565b61047f610042565b62461bcd60e51b81528061049560048201610458565b0390fd5b925f80949281949350926104b76104ae610042565b93849283610354565b03925af16104cc6104c66103ee565b91610470565b90565b906104e292916104dd61024e565b6102de565b9056fea26469706673582212202a4b6b95e9beb7c98cff7e4d8098098d9e7303a0022473e6832680236226dc8b64736f6c634300081e0033","linkReferences":{}},"methodIdentifiers":{"acceptOwnership()":"79ba5097","addManager(address)":"2d06177a","addSupportedCollateralTokens((address,bytes32,address)[])":"2ec23d66","calcLeverageFlashLoan(uint256,address,address,uint256)":"5adb101c","calcUnleverageFlashLoan(address,address,uint256)":"313b120e","getCollateralValueInLoanToken(address,address,uint256)":"3ba7a314","getLiqLtv(address,address)":"e43478ef","getMaxLtv(address,address)":"62fd6add","getOrCreateUserProxy(address,uint256)":"5d1593e7","getSharesValueInLoanToken(address,address,uint256)":"e30e40cb","getUserCoreLeveragePosition(address,uint256,address,address)":"94ea07bb","getUserProxy(address,uint256)":"14ee89c4","i_liquidationBuffer()":"fb56d3bb","i_morpho()":"96d066f5","i_pendleRouter()":"dd2a7a17","i_slippageBuffer()":"bf43612b","i_userProxyImplementation()":"d5c96c17","isManager(address)":"f3ae2415","isSupportedCollateralToken(address,address)":"dc101605","leverage(address,(uint256,address,address,uint256,(uint256,uint256,uint256,uint256,uint256),address,address,uint256,(uint8,address,bytes,bool),(address,uint256,((uint256,uint256,uint256,uint8,address,address,address,address,uint256,uint256,uint256,bytes),bytes,uint256)[],((uint256,uint256,uint256,uint8,address,address,address,address,uint256,uint256,uint256,bytes),bytes,uint256)[],bytes)))":"70f5585f","onMorphoFlashLoan(uint256,bytes)":"31f57072","owner()":"8da5cb5b","pause()":"8456cb59","paused()":"5c975abb","pendingOwner()":"e30c3978","renounceOwnership()":"715018a6","s_userProxies(address,uint256)":"94d49ab7","transferOwnership(address)":"f2fde38b","unleverage(address,(uint256,address,address,uint256,uint256,address,address,uint256,(uint8,address,bytes,bool),(address,uint256,((uint256,uint256,uint256,uint8,address,address,address,address,uint256,uint256,uint256,bytes),bytes,uint256)[],((uint256,uint256,uint256,uint8,address,address,address,address,uint256,uint256,uint256,bytes),bytes,uint256)[],bytes)))":"7130fa49","unpause()":"3f4ba83a"},"id":77}