{"abi":[{"type":"constructor","inputs":[{"name":"morphoAddress","type":"address","internalType":"address"},{"name":"pendleRouter","type":"address","internalType":"address"},{"name":"liquidationBuffer","type":"uint256","internalType":"uint256"},{"name":"slippageBuffer","type":"uint256","internalType":"uint256"}],"stateMutability":"nonpayable"},{"type":"function","name":"acceptOwnership","inputs":[],"outputs":[],"stateMutability":"nonpayable"},{"type":"function","name":"addManager","inputs":[{"name":"manager","type":"address","internalType":"address"}],"outputs":[],"stateMutability":"nonpayable"},{"type":"function","name":"addSupportedCollateralTokens","inputs":[{"name":"tokensConfig","type":"tuple[]","internalType":"struct CollateralTokenConfig[]","components":[{"name":"collateralToken","type":"address","internalType":"address"},{"name":"morphoMarketId","type":"bytes32","internalType":"bytes32"},{"name":"pendleMarket","type":"address","internalType":"address"}]}],"outputs":[],"stateMutability":"nonpayable"},{"type":"function","name":"calcLeverageFlashLoan","inputs":[{"name":"desiredLtv","type":"uint256","internalType":"uint256"},{"name":"collateralToken","type":"address","internalType":"address"},{"name":"loanToken","type":"address","internalType":"address"},{"name":"amountCollateral","type":"uint256","internalType":"uint256"}],"outputs":[{"name":"","type":"uint256","internalType":"uint256"}],"stateMutability":"view"},{"type":"function","name":"calcUnleverageFlashLoan","inputs":[{"name":"collateralToken","type":"address","internalType":"address"},{"name":"loanToken","type":"address","internalType":"address"},{"name":"sharesToBurn","type":"uint256","internalType":"uint256"}],"outputs":[{"name":"","type":"uint256","internalType":"uint256"}],"stateMutability":"view"},{"type":"function","name":"getCollateralValueInLoanToken","inputs":[{"name":"collateralToken","type":"address","internalType":"address"},{"name":"loanToken","type":"address","internalType":"address"},{"name":"amountCollateral","type":"uint256","internalType":"uint256"}],"outputs":[{"name":"","type":"uint256","internalType":"uint256"}],"stateMutability":"view"},{"type":"function","name":"getLiqLtv","inputs":[{"name":"collateralToken","type":"address","internalType":"address"},{"name":"loanToken","type":"address","internalType":"address"}],"outputs":[{"name":"","type":"uint256","internalType":"uint256"}],"stateMutability":"view"},{"type":"function","name":"getMaxLtv","inputs":[{"name":"collateralToken","type":"address","internalType":"address"},{"name":"loanToken","type":"address","internalType":"address"}],"outputs":[{"name":"","type":"uint256","internalType":"uint256"}],"stateMutability":"view"},{"type":"function","name":"getOrCreateUserProxy","inputs":[{"name":"user","type":"address","internalType":"address"},{"name":"desiredLtv","type":"uint256","internalType":"uint256"}],"outputs":[{"name":"proxy","type":"address","internalType":"address"}],"stateMutability":"nonpayable"},{"type":"function","name":"getSharesValueInLoanToken","inputs":[{"name":"collateralToken","type":"address","internalType":"address"},{"name":"loanToken","type":"address","internalType":"address"},{"name":"sharesBorrowed","type":"uint256","internalType":"uint256"}],"outputs":[{"name":"","type":"uint256","internalType":"uint256"}],"stateMutability":"view"},{"type":"function","name":"getUserCoreLeveragePosition","inputs":[{"name":"user","type":"address","internalType":"address"},{"name":"desiredLtv","type":"uint256","internalType":"uint256"},{"name":"collateralToken","type":"address","internalType":"address"},{"name":"loanToken","type":"address","internalType":"address"}],"outputs":[{"name":"","type":"tuple","internalType":"struct CoreLeveragePosition","components":[{"name":"amountCollateral","type":"uint256","internalType":"uint256"},{"name":"sharesBorrowed","type":"uint256","internalType":"uint256"}]}],"stateMutability":"view"},{"type":"function","name":"getUserProxy","inputs":[{"name":"user","type":"address","internalType":"address"},{"name":"desiredLtv","type":"uint256","internalType":"uint256"}],"outputs":[{"name":"","type":"address","internalType":"address"}],"stateMutability":"view"},{"type":"function","name":"i_liquidationBuffer","inputs":[],"outputs":[{"name":"","type":"uint256","internalType":"uint256"}],"stateMutability":"view"},{"type":"function","name":"i_morpho","inputs":[],"outputs":[{"name":"","type":"address","internalType":"contract IMorpho"}],"stateMutability":"view"},{"type":"function","name":"i_pendleRouter","inputs":[],"outputs":[{"name":"","type":"address","internalType":"contract IPAllActionV3"}],"stateMutability":"view"},{"type":"function","name":"i_slippageBuffer","inputs":[],"outputs":[{"name":"","type":"uint256","internalType":"uint256"}],"stateMutability":"view"},{"type":"function","name":"i_userProxyImplementation","inputs":[],"outputs":[{"name":"","type":"address","internalType":"address"}],"stateMutability":"view"},{"type":"function","name":"isManager","inputs":[{"name":"manager","type":"address","internalType":"address"}],"outputs":[{"name":"","type":"bool","internalType":"bool"}],"stateMutability":"view"},{"type":"function","name":"isSupportedCollateralToken","inputs":[{"name":"collateralToken","type":"address","internalType":"address"},{"name":"loanToken","type":"address","internalType":"address"}],"outputs":[{"name":"","type":"bool","internalType":"bool"}],"stateMutability":"view"},{"type":"function","name":"leverage","inputs":[{"name":"onBehalfOf","type":"address","internalType":"address"},{"name":"params","type":"tuple","internalType":"struct LeverageParams","components":[{"name":"desiredLtv","type":"uint256","internalType":"uint256"},{"name":"collateralToken","type":"address","internalType":"address"},{"name":"loanToken","type":"address","internalType":"address"},{"name":"amountCollateral","type":"uint256","internalType":"uint256"},{"name":"approxParams","type":"tuple","internalType":"struct ApproxParams","components":[{"name":"guessMin","type":"uint256","internalType":"uint256"},{"name":"guessMax","type":"uint256","internalType":"uint256"},{"name":"guessOffchain","type":"uint256","internalType":"uint256"},{"name":"maxIteration","type":"uint256","internalType":"uint256"},{"name":"eps","type":"uint256","internalType":"uint256"}]},{"name":"pendleSwap","type":"address","internalType":"address"},{"name":"tokenMintSy","type":"address","internalType":"address"},{"name":"minPtOut","type":"uint256","internalType":"uint256"},{"name":"swapData","type":"tuple","internalType":"struct SwapData","components":[{"name":"swapType","type":"uint8","internalType":"enum SwapType"},{"name":"extRouter","type":"address","internalType":"address"},{"name":"extCalldata","type":"bytes","internalType":"bytes"},{"name":"needScale","type":"bool","internalType":"bool"}]},{"name":"limitOrderData","type":"tuple","internalType":"struct LimitOrderData","components":[{"name":"limitRouter","type":"address","internalType":"address"},{"name":"epsSkipMarket","type":"uint256","internalType":"uint256"},{"name":"normalFills","type":"tuple[]","internalType":"struct FillOrderParams[]","components":[{"name":"order","type":"tuple","internalType":"struct Order","components":[{"name":"salt","type":"uint256","internalType":"uint256"},{"name":"expiry","type":"uint256","internalType":"uint256"},{"name":"nonce","type":"uint256","internalType":"uint256"},{"name":"orderType","type":"uint8","internalType":"enum IPLimitOrderType.OrderType"},{"name":"token","type":"address","internalType":"address"},{"name":"YT","type":"address","internalType":"address"},{"name":"maker","type":"address","internalType":"address"},{"name":"receiver","type":"address","internalType":"address"},{"name":"makingAmount","type":"uint256","internalType":"uint256"},{"name":"lnImpliedRate","type":"uint256","internalType":"uint256"},{"name":"failSafeRate","type":"uint256","internalType":"uint256"},{"name":"permit","type":"bytes","internalType":"bytes"}]},{"name":"signature","type":"bytes","internalType":"bytes"},{"name":"makingAmount","type":"uint256","internalType":"uint256"}]},{"name":"flashFills","type":"tuple[]","internalType":"struct FillOrderParams[]","components":[{"name":"order","type":"tuple","internalType":"struct Order","components":[{"name":"salt","type":"uint256","internalType":"uint256"},{"name":"expiry","type":"uint256","internalType":"uint256"},{"name":"nonce","type":"uint256","internalType":"uint256"},{"name":"orderType","type":"uint8","internalType":"enum IPLimitOrderType.OrderType"},{"name":"token","type":"address","internalType":"address"},{"name":"YT","type":"address","internalType":"address"},{"name":"maker","type":"address","internalType":"address"},{"name":"receiver","type":"address","internalType":"address"},{"name":"makingAmount","type":"uint256","internalType":"uint256"},{"name":"lnImpliedRate","type":"uint256","internalType":"uint256"},{"name":"failSafeRate","type":"uint256","internalType":"uint256"},{"name":"permit","type":"bytes","internalType":"bytes"}]},{"name":"signature","type":"bytes","internalType":"bytes"},{"name":"makingAmount","type":"uint256","internalType":"uint256"}]},{"name":"optData","type":"bytes","internalType":"bytes"}]}]}],"outputs":[],"stateMutability":"nonpayable"},{"type":"function","name":"onMorphoFlashLoan","inputs":[{"name":"amountLoan","type":"uint256","internalType":"uint256"},{"name":"data","type":"bytes","internalType":"bytes"}],"outputs":[],"stateMutability":"nonpayable"},{"type":"function","name":"owner","inputs":[],"outputs":[{"name":"","type":"address","internalType":"address"}],"stateMutability":"view"},{"type":"function","name":"pendingOwner","inputs":[],"outputs":[{"name":"","type":"address","internalType":"address"}],"stateMutability":"view"},{"type":"function","name":"renounceOwnership","inputs":[],"outputs":[],"stateMutability":"nonpayable"},{"type":"function","name":"s_userProxies","inputs":[{"name":"user","type":"address","internalType":"address"},{"name":"desiredLtv","type":"uint256","internalType":"uint256"}],"outputs":[{"name":"proxyContract","type":"address","internalType":"address"}],"stateMutability":"view"},{"type":"function","name":"transferOwnership","inputs":[{"name":"newOwner","type":"address","internalType":"address"}],"outputs":[],"stateMutability":"nonpayable"},{"type":"function","name":"unleverage","inputs":[{"name":"onBehalfOf","type":"address","internalType":"address"},{"name":"params","type":"tuple","internalType":"struct UnleverageParams","components":[{"name":"desiredLtv","type":"uint256","internalType":"uint256"},{"name":"collateralToken","type":"address","internalType":"address"},{"name":"loanToken","type":"address","internalType":"address"},{"name":"sharesToBurn","type":"uint256","internalType":"uint256"},{"name":"amountCollateralToWithdraw","type":"uint256","internalType":"uint256"},{"name":"pendleSwap","type":"address","internalType":"address"},{"name":"tokenRedeemSy","type":"address","internalType":"address"},{"name":"minTokenOut","type":"uint256","internalType":"uint256"},{"name":"swapData","type":"tuple","internalType":"struct SwapData","components":[{"name":"swapType","type":"uint8","internalType":"enum SwapType"},{"name":"extRouter","type":"address","internalType":"address"},{"name":"extCalldata","type":"bytes","internalType":"bytes"},{"name":"needScale","type":"bool","internalType":"bool"}]},{"name":"limitOrderData","type":"tuple","internalType":"struct LimitOrderData","components":[{"name":"limitRouter","type":"address","internalType":"address"},{"name":"epsSkipMarket","type":"uint256","internalType":"uint256"},{"name":"normalFills","type":"tuple[]","internalType":"struct FillOrderParams[]","components":[{"name":"order","type":"tuple","internalType":"struct Order","components":[{"name":"salt","type":"uint256","internalType":"uint256"},{"name":"expiry","type":"uint256","internalType":"uint256"},{"name":"nonce","type":"uint256","internalType":"uint256"},{"name":"orderType","type":"uint8","internalType":"enum IPLimitOrderType.OrderType"},{"name":"token","type":"address","internalType":"address"},{"name":"YT","type":"address","internalType":"address"},{"name":"maker","type":"address","internalType":"address"},{"name":"receiver","type":"address","internalType":"address"},{"name":"makingAmount","type":"uint256","internalType":"uint256"},{"name":"lnImpliedRate","type":"uint256","internalType":"uint256"},{"name":"failSafeRate","type":"uint256","internalType":"uint256"},{"name":"permit","type":"bytes","internalType":"bytes"}]},{"name":"signature","type":"bytes","internalType":"bytes"},{"name":"makingAmount","type":"uint256","internalType":"uint256"}]},{"name":"flashFills","type":"tuple[]","internalType":"struct FillOrderParams[]","components":[{"name":"order","type":"tuple","internalType":"struct Order","components":[{"name":"salt","type":"uint256","internalType":"uint256"},{"name":"expiry","type":"uint256","internalType":"uint256"},{"name":"nonce","type":"uint256","internalType":"uint256"},{"name":"orderType","type":"uint8","internalType":"enum IPLimitOrderType.OrderType"},{"name":"token","type":"address","internalType":"address"},{"name":"YT","type":"address","internalType":"address"},{"name":"maker","type":"address","internalType":"address"},{"name":"receiver","type":"address","internalType":"address"},{"name":"makingAmount","type":"uint256","internalType":"uint256"},{"name":"lnImpliedRate","type":"uint256","internalType":"uint256"},{"name":"failSafeRate","type":"uint256","internalType":"uint256"},{"name":"permit","type":"bytes","internalType":"bytes"}]},{"name":"signature","type":"bytes","internalType":"bytes"},{"name":"makingAmount","type":"uint256","internalType":"uint256"}]},{"name":"optData","type":"bytes","internalType":"bytes"}]}]}],"outputs":[],"stateMutability":"nonpayable"},{"type":"event","name":"OwnershipTransferStarted","inputs":[{"name":"previousOwner","type":"address","indexed":true,"internalType":"address"},{"name":"newOwner","type":"address","indexed":true,"internalType":"address"}],"anonymous":false},{"type":"event","name":"OwnershipTransferred","inputs":[{"name":"previousOwner","type":"address","indexed":true,"internalType":"address"},{"name":"newOwner","type":"address","indexed":true,"internalType":"address"}],"anonymous":false},{"type":"error","name":"FailedDeployment","inputs":[]},{"type":"error","name":"FlashLeverageCore__AmountCollateralCannotBeZero","inputs":[]},{"type":"error","name":"FlashLeverageCore__EffectiveLtvTooHigh","inputs":[]},{"type":"error","name":"FlashLeverageCore__ExceedsMaxLTV","inputs":[]},{"type":"error","name":"FlashLeverageCore__InsufficientCollateralToWithdraw","inputs":[]},{"type":"error","name":"FlashLeverageCore__InsufficientSharesToBurn","inputs":[]},{"type":"error","name":"FlashLeverageCore__InvalidCollateralToken","inputs":[]},{"type":"error","name":"FlashLeverageCore__InvalidCollateralTokenDecimals","inputs":[]},{"type":"error","name":"FlashLeverageCore__NotAManager","inputs":[]},{"type":"error","name":"FlashLeverageCore__SharesToBurnCannotBeZero","inputs":[]},{"type":"error","name":"FlashLeverageCore__UnsupportedCollateralToken","inputs":[]},{"type":"error","name":"FlashLeverageCore__UntrustedLender","inputs":[]},{"type":"error","name":"InsufficientBalance","inputs":[{"name":"balance","type":"uint256","internalType":"uint256"},{"name":"needed","type":"uint256","internalType":"uint256"}]},{"type":"error","name":"OwnableInvalidOwner","inputs":[{"name":"owner","type":"address","internalType":"address"}]},{"type":"error","name":"OwnableUnauthorizedAccount","inputs":[{"name":"account","type":"address","internalType":"address"}]},{"type":"error","name":"ReentrancyGuardReentrantCall","inputs":[]},{"type":"error","name":"SafeERC20FailedOperation","inputs":[{"name":"token","type":"address","internalType":"address"}]}],"bytecode":{"object":"0x610120604052346100ee5761001e610015610201565b9291909161029a565b6100266100f3565b615b1e61060482396080518181816109ff015281816112c5015281816115ea0152818161240d0152818161287001528181612b960152818161362e015281816139640152818161510c01528181615141015281816153380152818161573301528181615763015261589f015260a051818181610b95015281816146450152818161467a0152818161491f0152614954015260c051818181610d2501526119d3015260e051818181610a860152614adc015261010051818181610adf01526119790152615b1e90f35b6100f9565b60405190565b5f80fd5b601f801991011690565b634e487b7160e01b5f52604160045260245ffd5b90610125906100fd565b810190811060018060401b0382111761013d57604052565b610107565b9061015561014e6100f3565b928361011b565b565b5f80fd5b60018060a01b031690565b61016f9061015b565b90565b61017b81610166565b0361018257565b5f80fd5b9050519061019382610172565b565b90565b6101a181610195565b036101a857565b5f80fd5b905051906101b982610198565b565b6080818303126101fc576101d1825f8301610186565b926101f96101e28460208501610186565b936101f081604086016101ac565b936060016101ac565b90565b610157565b61021f6167688038038061021481610142565b9283398101906101bb565b90919293565b90565b61023c6102376102419261015b565b610225565b61015b565b90565b61024d90610228565b90565b61025990610244565b90565b61026590610166565b9052565b919061027c905f6020850194019061025c565b565b6102866100f3565b3d5f823e3d90fd5b61029790610244565b90565b906102a8913391909161030c565b60c05260e0526102b730610250565b6102bf6100f3565b90610646820182811060018060401b038211176103075782916102e9916106466161228539610269565b03905ff08015610302576102fc9061028e565b61010052565b61027e565b610107565b906103179291610344565b565b90565b61033061032b61033592610319565b610225565b61015b565b90565b6103419061031c565b90565b9161034e916103a0565b8061036961036361035e5f610338565b610166565b91610166565b14610379576103779061051b565b565b61039c6103855f610338565b5f918291631e4fbdf760e01b835260048301610269565b0390fd5b906103aa91610432565b565b90565b6103c36103be6103c8926103ac565b610225565b610195565b90565b6103d560016103af565b90565b5f1b90565b906103e95f19916103d8565b9181191691161790565b61040761040261040c92610195565b610225565b610195565b90565b90565b9061042761042261042e926103f3565b61040f565b82546103dd565b9055565b9061043c91610468565b61044e6104476103cb565b6003610412565b565b61045990610228565b90565b61046590610450565b90565b61047461047992610496565b61045c565b60a052565b61048790610228565b90565b6104939061047e565b90565b61049f9061048a565b608052565b1b90565b919060086104c89102916104c260018060a01b03846104a4565b926104a4565b9181191691161790565b6104db90610244565b90565b90565b91906104f76104f26104ff936104d2565b6104de565b9083546104a8565b9055565b5f90565b61051991610513610503565b916104e1565b565b61052f9061052a5f6005610507565b6105a2565b565b5f1c90565b60018060a01b031690565b61054d61055291610531565b610536565b90565b61055f9054610541565b90565b9061057360018060a01b03916103d8565b9181191691161790565b9061059261058d610599926104d2565b6104de565b8254610562565b9055565b5f0190565b6105ac6004610555565b6105b782600461057d565b906105eb6105e57f8be0079c531659141344cd1fd0a4f28419497f9722a3daafe3b4186f6b6457e0936104d2565b916104d2565b916105f46100f3565b806105fe8161059d565b0390a356fe60a06040526004361015610013575b610d7c565b61001d5f356101cc565b806314ee89c4146101c75780632d06177a146101c25780632ec23d66146101bd578063313b120e146101b857806331f57072146101b35780633ba7a314146101ae5780635adb101c146101a95780635d1593e7146101a457806362fd6add1461019f57806370f5585f1461019a5780637130fa4914610195578063715018a61461019057806379ba50971461018b5780638da5cb5b1461018657806394d49ab71461018157806394ea07bb1461017c57806396d066f514610177578063bf43612b14610172578063d5c96c171461016d578063dc10160514610168578063dd2a7a1714610163578063e30c39781461015e578063e30e40cb14610159578063e43478ef14610154578063f2fde38b1461014f578063f3ae24151461014a5763fb56d3bb0361000e57610d47565b610cee565b610cbb565b610c85565b610c4f565b610c1a565b610be5565b610b5d565b610b01565b610aa8565b610a4f565b6109c4565b610902565b6107f8565b6107c5565b61079a565b610757565b6106ca565b610637565b6105d4565b61059b565b61051f565b6104eb565b610430565b6103a0565b6102ec565b610293565b60e01c90565b60405190565b5f80fd5b5f80fd5b5f80fd5b60018060a01b031690565b6101f8906101e4565b90565b610204816101ef565b0361020b57565b5f80fd5b9050359061021c826101fb565b565b90565b61022a8161021e565b0361023157565b5f80fd5b9050359061024282610221565b565b919060408382031261026c5780610260610269925f860161020f565b93602001610235565b90565b6101dc565b61027a906101ef565b9052565b9190610291905f60208501940190610271565b565b346102c4576102c06102af6102a9366004610244565b90610daa565b6102b76101d2565b9182918261027e565b0390f35b6101d8565b906020828203126102e2576102df915f0161020f565b90565b6101dc565b5f0190565b3461031a576103046102ff3660046102c9565b610e7b565b61030c6101d2565b80610316816102e7565b0390f35b6101d8565b5f80fd5b5f80fd5b5f80fd5b909182601f830112156103655781359167ffffffffffffffff831161036057602001926060830284011161035b57565b610327565b610323565b61031f565b9060208282031261039b575f82013567ffffffffffffffff811161039657610392920161032b565b9091565b6101e0565b6101dc565b346103cf576103b96103b336600461036a565b906114c5565b6103c16101d2565b806103cb816102e7565b0390f35b6101d8565b9091606082840312610409576104066103ef845f850161020f565b936103fd816020860161020f565b93604001610235565b90565b6101dc565b6104179061021e565b9052565b919061042e905f6020850194019061040e565b565b346104615761045d61044c6104463660046103d4565b9161150e565b6104546101d2565b9182918261041b565b0390f35b6101d8565b909182601f830112156104a05781359167ffffffffffffffff831161049b57602001926001830284011161049657565b610327565b610323565b61031f565b9190916040818403126104e6576104be835f8301610235565b92602082013567ffffffffffffffff81116104e1576104dd9201610466565b9091565b6101e0565b6101dc565b3461051a576105046104fe3660046104a5565b916115da565b61050c6101d2565b80610516816102e7565b0390f35b6101d8565b346105505761054c61053b6105353660046103d4565b9161170a565b6105436101d2565b9182918261041b565b0390f35b6101d8565b6080818303126105965761056b825f8301610235565b9261059361057c846020850161020f565b9361058a816040860161020f565b93606001610235565b90565b6101dc565b346105cf576105cb6105ba6105b1366004610555565b92919091611850565b6105c26101d2565b9182918261041b565b0390f35b6101d8565b34610605576106016105f06105ea366004610244565b9061191c565b6105f86101d2565b9182918261027e565b0390f35b6101d8565b9190604083820312610632578061062661062f925f860161020f565b9360200161020f565b90565b6101dc565b346106685761066461065361064d36600461060a565b906119bb565b61065b6101d2565b9182918261041b565b0390f35b6101d8565b5f80fd5b90816101c09103126106805790565b61066d565b9190916040818403126106c55761069e835f830161020f565b92602082013567ffffffffffffffff81116106c0576106bd9201610671565b90565b6101e0565b6101dc565b346106f9576106e36106dd366004610685565b906124b2565b6106eb6101d2565b806106f5816102e7565b0390f35b6101d8565b908161014091031261070d5790565b61066d565b9190916040818403126107525761072b835f830161020f565b92602082013567ffffffffffffffff811161074d5761074a92016106fe565b90565b6101e0565b6101dc565b346107865761077061076a366004610712565b90612915565b6107786101d2565b80610782816102e7565b0390f35b6101d8565b5f91031261079557565b6101dc565b346107c0576107aa36600461078b565b6107b26101d2565b806107bc816102e7565b0390f35b6101d8565b346107f3576107d536600461078b565b6107dd612921565b6107e56101d2565b806107ef816102e7565b0390f35b6101d8565b346108285761080836600461078b565b610824610813612972565b61081b6101d2565b9182918261027e565b0390f35b6101d8565b90565b61084461083f610849926101e4565b61082d565b6101e4565b90565b61085590610830565b90565b6108619061084c565b90565b9061086e90610858565b5f5260205260405f2090565b61088e6108896108939261021e565b61082d565b61021e565b90565b906108a09061087a565b5f5260205260405f2090565b1c90565b60018060a01b031690565b6108cb9060086108d093026108ac565b6108b0565b90565b906108de91546108bb565b90565b6108fa6108ff926108f56007935f94610864565b610896565b6108d3565b90565b346109335761092f61091e610918366004610244565b906108e1565b6109266101d2565b9182918261027e565b0390f35b6101d8565b6080818303126109795761094e825f830161020f565b9261097661095f8460208501610235565b9361096d816040860161020f565b9360600161020f565b90565b6101dc565b6109879061021e565b9052565b906020806109ad936109a35f8201515f86019061097e565b015191019061097e565b565b91906109c2905f6040850194019061098b565b565b346109f8576109f46109e36109da366004610938565b92919091612a1d565b6109eb6101d2565b918291826109af565b0390f35b6101d8565b7f000000000000000000000000000000000000000000000000000000000000000090565b610a2a9061084c565b90565b610a3690610a21565b9052565b9190610a4d905f60208501940190610a2d565b565b34610a7f57610a5f36600461078b565b610a7b610a6a6109fd565b610a726101d2565b91829182610a3a565b0390f35b6101d8565b7f000000000000000000000000000000000000000000000000000000000000000090565b34610ad857610ab836600461078b565b610ad4610ac3610a84565b610acb6101d2565b9182918261041b565b0390f35b6101d8565b7f000000000000000000000000000000000000000000000000000000000000000090565b34610b3157610b1136600461078b565b610b2d610b1c610add565b610b246101d2565b9182918261027e565b0390f35b6101d8565b151590565b610b4490610b36565b9052565b9190610b5b905f60208501940190610b3b565b565b34610b8e57610b8a610b79610b7336600461060a565b90612a5b565b610b816101d2565b91829182610b48565b0390f35b6101d8565b7f000000000000000000000000000000000000000000000000000000000000000090565b610bc09061084c565b90565b610bcc90610bb7565b9052565b9190610be3905f60208501940190610bc3565b565b34610c1557610bf536600461078b565b610c11610c00610b93565b610c086101d2565b91829182610bd0565b0390f35b6101d8565b34610c4a57610c2a36600461078b565b610c46610c35612aa1565b610c3d6101d2565b9182918261027e565b0390f35b6101d8565b34610c8057610c7c610c6b610c653660046103d4565b91612b5f565b610c736101d2565b9182918261041b565b0390f35b6101d8565b34610cb657610cb2610ca1610c9b36600461060a565b90612be7565b610ca96101d2565b9182918261041b565b0390f35b6101d8565b34610ce957610cd3610cce3660046102c9565b612c83565b610cdb6101d2565b80610ce5816102e7565b0390f35b6101d8565b34610d1e57610d1a610d09610d043660046102c9565b612cb5565b610d116101d2565b91829182610b48565b0390f35b6101d8565b7f000000000000000000000000000000000000000000000000000000000000000090565b34610d7757610d5736600461078b565b610d73610d62610d23565b610d6a6101d2565b9182918261041b565b0390f35b6101d8565b5f80fd5b5f90565b5f1c90565b610d95610d9a91610d84565b6108b0565b90565b610da79054610d89565b90565b610dcf91610dc5610dca92610dbd610d80565b506007610864565b610896565b610d9d565b90565b610de390610dde612cd4565b610e45565b565b90610def90610858565b5f5260205260405f2090565b5f1b90565b90610e0c60ff91610dfb565b9181191691161790565b610e1f90610b36565b90565b90565b90610e3a610e35610e4192610e16565b610e22565b8254610e00565b9055565b610e57610e5182612cb5565b15610b36565b610e5f575b50565b610e7590610e706001916006610de5565b610e25565b5f610e5c565b610e8490610dd2565b565b90610e9891610e93612cd4565b611211565b565b5f90565b6001610eaa910161021e565b90565b5090565b634e487b7160e01b5f52603260045260245ffd5b9190811015610ed5576060020190565b610eb1565b5f80fd5b601f801991011690565b634e487b7160e01b5f52604160045260245ffd5b90610f0690610ede565b810190811067ffffffffffffffff821117610f2057604052565b610ee8565b90610f38610f316101d2565b9283610efc565b565b5f80fd5b90565b610f4a81610f3e565b03610f5157565b5f80fd5b90503590610f6282610f41565b565b9190606083820312610fb057610fa990610f7e6060610f25565b93610f8b825f830161020f565b5f860152610f9c8260208301610f55565b602086015260400161020f565b6040830152565b610eda565b610fc0903690610f64565b90565b610fcd90516101ef565b90565b610fd990610830565b90565b610fe590610fd0565b90565b610ff19061084c565b90565b5f80fd5b60e01b90565b9050519061100b826101fb565b565b90916060828403126110425761103f611028845f8501610ffe565b936110368160208601610ffe565b93604001610ffe565b90565b6101dc565b61104f6101d2565b3d5f823e3d90fd5b6110619051610f3e565b90565b61106d90610f3e565b90565b9050519061107d82610221565b565b919060a0838203126110ef576110e89061109960a0610f25565b936110a6825f8301610ffe565b5f8601526110b78260208301610ffe565b60208601526110c98260408301610ffe565b60408601526110db8260608301610ffe565b6060860152608001611070565b6080830152565b610eda565b9060a08282031261110d5761110a915f0161107f565b90565b6101dc565b61111b90611064565b9052565b9190611132905f60208501940190611112565b565b1561113b57565b5f638197c87b60e01b815280611153600482016102e7565b0390fd5b61116090610830565b90565b61116c90611157565b90565b6111789061084c565b90565b60ff1690565b61118a8161117b565b0361119157565b5f80fd5b905051906111a282611181565b565b906020828203126111bd576111ba915f01611195565b90565b6101dc565b90565b6111d96111d46111de926111c2565b61082d565b61117b565b90565b6111eb60126111c5565b90565b156111f557565b5f63390ca6a760e01b81528061120d600482016102e7565b0390fd5b611219610e9a565b5b8061123761123161122c858790610ead565b61021e565b9161021e565b10156114c05761125161124c83858491610ec5565b610fb5565b906112956112605f8401610fc3565b92606061127f61127a61127560408501610fc3565b610fdc565b610fe8565b632c8ce6bc9061128d6101d2565b948592610ff8565b825281806112a5600482016102e7565b03915afa80156114bb57611326925f8092905061148c575b5060a06112e97f0000000000000000000000000000000000000000000000000000000000000000610a21565b632c3c91579061131b61130661130160208801611057565b611064565b9261130f6101d2565b97889485938493610ff8565b83526004830161111f565b03915afa801561148757611389935f91611459575b509061135061134a87926101ef565b916101ef565b148061142f575b61136090611134565b602061137361136e87611163565b61116f565b63313ce567906113816101d2565b958692610ff8565b82528180611399600482016102e7565b03915afa92831561142a576113f7956113e56113ec936113e06113f2976040955f916113fc575b506113da6113d46113cf6111e1565b61117b565b9161117b565b146111ee565b612df8565b9201610fc3565b90612ef6565b610e9e565b61121a565b61141d915060203d8111611423575b6114158183610efc565b8101906111a4565b5f6113c0565b503d61140b565b611047565b506113608561145161144b61144660208601610fc3565b6101ef565b916101ef565b149050611357565b61147a915060a03d8111611480575b6114728183610efc565b8101906110f4565b5f61133b565b503d611468565b611047565b6114ad915060603d81116114b4575b6114a58183610efc565b81019061100d565b50906112bd565b503d61149b565b611047565b505050565b906114cf91610e86565b565b906114db90610858565b5f5260205260405f2090565b60ff1690565b6114f96114fe91610d84565b6114e7565b90565b61150b90546114ed565b90565b61154a926115289161151e610e9a565b5090839091612b5f565b9061154461153f6115376111e1565b9260016114d1565b611501565b91612fb7565b90565b1561155457565b5f630bb206c760e31b81528061156c600482016102e7565b0390fd5b6002111561157a57565b5f80fd5b9050359061158b82611570565b565b906020828203126115a6576115a3915f0161157e565b90565b6101dc565b634e487b7160e01b5f52602160045260245ffd5b600211156115c957565b6115ab565b906115d8826115bf565b565b9161161f3361161961161361160e7f0000000000000000000000000000000000000000000000000000000000000000610a21565b6101ef565b916101ef565b1461154d565b61162c828281019061158d565b61163e6116385f6115ce565b916115ce565b145f146116545761165192919091613997565b5b565b611660929190916136ac565b611652565b9061166f90610858565b5f5260205260405f2090565b9061168590610858565b5f5260205260405f2090565b61169a90610830565b90565b6116a690611691565b90565b6116b29061084c565b90565b906020828203126116ce576116cb915f01611070565b90565b6101dc565b634e487b7160e01b5f52601160045260245ffd5b6116f36116f99161117b565b9161117b565b019060ff821161170557565b6116d3565b602061174761174261173d600261173761173061175d97611729610e9a565b505f611665565b889061167b565b01610d9d565b61169d565b6116a9565b63a035b1fe906117556101d2565b938492610ff8565b8252818061176d600482016102e7565b03915afa9081156117f3576117c2936117b492611792925f916117c5575b50906139c6565b916117ae6117a96117a16111e1565b9260016114d1565b611501565b906116e7565b6117bc6111e1565b91612fb7565b90565b6117e6915060203d81116117ec575b6117de8183610efc565b8101906116b5565b5f61178b565b503d6117d4565b611047565b90565b61180f61180a611814926117f8565b61082d565b61021e565b90565b611828670de0b6b3a76400006117fb565b90565b61183a6118409193929361021e565b9261021e565b820391821161184b57565b6116d3565b6118896118706118b09561188e94611866610e9a565b509086909161170a565b91611883839161187e611817565b61182b565b906139ed565b61182b565b906118aa6118a561189d6111e1565b9260016114d1565b611501565b91612fb7565b90565b90565b6118ca6118c56118cf926118b3565b61082d565b6101e4565b90565b6118db906118b6565b90565b906118ef60018060a01b0391610dfb565b9181191691161790565b90565b9061191161190c61191892610858565b6118f9565b82546118de565b9055565b90611925610d80565b5061194461193f61193860078590610864565b8390610896565b610d9d565b918261196061195a6119555f6118d2565b6101ef565b916101ef565b1461196b575b505090565b6119b49192506119af61199d7f0000000000000000000000000000000000000000000000000000000000000000613a14565b936119aa85936007610864565b610896565b6118fc565b5f80611966565b6119f8916119d1916119cb610e9a565b50612be7565b7f00000000000000000000000000000000000000000000000000000000000000009061182b565b90565b15611a0257565b5f6307bb643d60e11b815280611a1a600482016102e7565b0390fd5b90611a3991611a34611a2f33612cb5565b6119fb565b611a6b565b565b35611a45816101fb565b90565b15611a4f57565b5f630a52f42d60e41b815280611a67600482016102e7565b0390fd5b90611a9e91611a99611a94611a8260208501611a3b565b611a8e60408601611a3b565b90612a5b565b611a48565b611aec565b565b35611aaa81610221565b90565b611ac1611abc611ac6926118b3565b61082d565b61021e565b90565b15611ad057565b5f63219e33d160e11b815280611ae8600482016102e7565b0390fd5b90611b1d91611b18611b0060608401611aa0565b611b12611b0c5f611aad565b9161021e565b11611ac9565b611b42565b565b15611b2657565b5f6315138ff160e11b815280611b3e600482016102e7565b0390fd5b90611b9591611b90611b555f8401611aa0565b611b89611b83611b7e611b6a60208801611a3b565b93611b7760408901611a3b565b90946119bb565b61021e565b9161021e565b1115611b1f565b612331565b565b5f80fd5b903590600160800381360303821215611bb2570190565b611b97565b903590600160a00381360303821215611bce570190565b611b97565b611bdc906115ce565b90565b611be890611bd3565b9052565b50611bfb906020810190610235565b90565b906080611c77611c7f93611c20611c175f830183611bec565b5f86019061097e565b611c3a611c306020830183611bec565b602086019061097e565b611c54611c4a6040830183611bec565b604086019061097e565b611c6e611c646060830183611bec565b606086019061097e565b82810190611bec565b91019061097e565b565b600b1115611c8b57565b5f80fd5b90503590611c9c82611c81565b565b50611cad906020810190611c8f565b90565b600b1115611cba57565b6115ab565b90611cc982611cb0565b565b611cd490611cbf565b90565b611ce090611ccb565b9052565b50611cf390602081019061020f565b90565b611cff906101ef565b9052565b5f80fd5b5f80fd5b5f80fd5b9035600160200382360303811215611d5057016020813591019167ffffffffffffffff8211611d4b576001820236038313611d4657565b611d07565b611d03565b611d0b565b60209181520190565b90825f939282370152565b9190611d8381611d7c81611d8895611d55565b8095611d5e565b610ede565b0190565b611d9581610b36565b03611d9c57565b5f80fd5b90503590611dad82611d8c565b565b50611dbe906020810190611da0565b90565b611dca90610b36565b9052565b90611e3e906060611e36611e2c60808401611df7611dee5f890189611c9e565b5f870190611cd7565b611e11611e076020890189611ce4565b6020870190611cf6565b611e1e6040880188611d0f565b908683036040880152611d69565b9482810190611daf565b910190611dc1565b90565b9035600160200382360303811215611e8257016020813591019167ffffffffffffffff8211611e7d576020820236038313611e7857565b611d07565b611d03565b611d0b565b60209181520190565b90565b903560016101800382360303811215611eaa570190565b611d0b565b60041115611eb957565b5f80fd5b90503590611eca82611eaf565b565b50611edb906020810190611ebd565b90565b60041115611ee857565b6115ab565b90611ef782611ede565b565b611f0290611eed565b90565b611f0e90611ef9565b9052565b61205b9161204c610180820192611f37611f2e5f830183611bec565b5f85019061097e565b611f51611f476020830183611bec565b602085019061097e565b611f6b611f616040830183611bec565b604085019061097e565b611f85611f7b6060830183611ecc565b6060850190611f05565b611f9f611f956080830183611ce4565b6080850190611cf6565b611fb9611faf60a0830183611ce4565b60a0850190611cf6565b611fd3611fc960c0830183611ce4565b60c0850190611cf6565b611fed611fe360e0830183611ce4565b60e0850190611cf6565b612009611ffe610100830183611bec565b61010085019061097e565b61202561201a610120830183611bec565b61012085019061097e565b612041612036610140830183611bec565b61014085019061097e565b610160810190611d0f565b91610160818503910152611d69565b90565b906120b79060406120af6120a561208a6060850161207e5f890189611e93565b8682035f880152611f12565b6120976020880188611d0f565b908683036020880152611d69565b9482810190611bec565b91019061097e565b90565b906120c49161205e565b90565b90356001606003823603038112156120dd570190565b611d0b565b60200190565b91816120f391611e87565b908161210460208302840194611e90565b92835f925b8484106121195750505050505090565b909192939495602061214461213e83856001950388526121398b886120c7565b6120ba565b986120e2565b940194019294939190612109565b6121e4916121d66121cb6121b060a0840161217b6121725f880188611ce4565b5f870190611cf6565b61219561218b6020880188611bec565b602087019061097e565b6121a26040870187611e41565b9086830360408801526120e8565b6121bd6060860186611e41565b9085830360608701526120e8565b926080810190611d0f565b916080818503910152611d69565b90565b9a99979593919896949290986102008c01995f8d0161220591611bdf565b60208c0161221291610271565b60408b0161221f9161040e565b60608a0161222c91610271565b6080890161223991610271565b60a088016122469161040e565b60c0870161225391611bfe565b610160860161226191610271565b610180850161226f91610271565b6101a0840161227d9161040e565b8281036101c084015261228f91611dce565b90808203906101e001526122a291612152565b90565b5f9103126122af57565b6101dc565b5190565b60209181520190565b90825f9392825e0152565b6122eb6122f46020936122f9936122e2816122b4565b938480936122b8565b958691016122c1565b610ede565b0190565b61232161232e94929361231760608401955f850190610271565b602083019061040e565b60408184039101526122cc565b90565b9061233e60208201611a3b565b9161240760206123f861235360408601611a3b565b9461236060608201611aa0565b9061236d88338491613a57565b61238561237b5f8301611aa0565b8989908592611850565b975f96926123945f8401611aa0565b9190899060808501906123aa6101208701611a3b565b926123b86101408801611a3b565b946123c66101608901611aa0565b966123e56123d98a610180810190611b9b565b996101a0810190611bb7565b996123ee6101d2565b9e8f9d8e016121e7565b60208201810382520382610efc565b916124317f0000000000000000000000000000000000000000000000000000000000000000610a21565b63e0232b4292919392813b156124ad575f61245f9161246a82966124536101d2565b98899788968795610ff8565b8552600485016122fd565b03925af180156124a85761247c575b50565b61249b905f3d81116124a1575b6124938183610efc565b8101906122a5565b5f612479565b503d612489565b611047565b610ff4565b906124bc91611a1e565b565b906124d9916124d46124cf33612cb5565b6119fb565b6124fe565b565b156124e257565b5f63f1e7f8e160e01b8152806124fa600482016102e7565b0390fd5b9061252f9161252a61251260608401611aa0565b61252461251e5f611aad565b9161021e565b116124db565b6126e4565b565b9061253b90610858565b5f5260205260405f2090565b9061255190610858565b5f5260205260405f2090565b9061256790610858565b5f5260205260405f2090565b90565b90565b61258561258a91610d84565b612576565b90565b6125979054612579565b90565b156125a157565b5f632ad10c8b60e01b8152806125b9600482016102e7565b0390fd5b156125c457565b5f63af020cc560e01b8152806125dc600482016102e7565b0390fd5b906125eb910361021e565b90565b906125fa5f1991610dfb565b9181191691161790565b90565b9061261c6126176126239261087a565b612604565b82546125ee565b9055565b9a99979593919896949290986101808c01995f8d0161264591611bdf565b60208c0161265291610271565b60408b0161265f91610271565b60608a0161266c91610271565b6080890161267991610271565b60a088016126869161040e565b60c087016126939161040e565b60e086016126a091610271565b61010085016126ae91610271565b61012084016126bc9161040e565b8281036101408401526126ce91611dce565b908082039061016001526126e191612152565b90565b906126f160208201611a3b565b9061286a602061285b61270660408501611a3b565b9461271360608601611aa0565b9461273561272360808301611aa0565b9861272f5f8401611aa0565b90610daa565b916127ed61276161275c61275561274e60088890612531565b8590612547565b8b9061255d565b612573565b6127898b61278261277c6127765f860161258d565b9261021e565b9161021e565b101561259a565b6127b16127986001830161258d565b6127aa6127a48c61021e565b9161021e565b10156125bd565b6127d08b6127ca5f8401916127c58361258d565b6125e0565b90612607565b6127e760018a9201916127e28361258d565b6125e0565b90612607565b6127f98189899161150e565b98600197339492918a9161280f60a08701611a3b565b9261281c60c08801611a3b565b9461282960e08901611aa0565b9661284861283c8a610100810190611b9b565b99610120810190611bb7565b996128516101d2565b9e8f9d8e01612627565b60208201810382520382610efc565b916128947f0000000000000000000000000000000000000000000000000000000000000000610a21565b63e0232b4292919392813b15612910575f6128c2916128cd82966128b66101d2565b98899788968795610ff8565b8552600485016122fd565b03925af1801561290b576128df575b50565b6128fe905f3d8111612904575b6128f68183610efc565b8101906122a5565b5f6128dc565b503d6128ec565b611047565b610ff4565b9061291f916124be565b565b612929613a94565b612931612aa1565b61294361293d836101ef565b916101ef565b036129535761295190613b05565b565b61296e905f91829163118cdaa760e01b83526004830161027e565b0390fd5b61297a610d80565b506129856004610d9d565b90565b6129926040610f25565b90565b5f90565b6129a1612988565b90602080836129ae612995565b8152016129b9612995565b81525050565b6129c7612999565b90565b906129d49061021e565b9052565b90612a0f612a0660016129e9612988565b94612a006129f85f830161258d565b5f88016129ca565b0161258d565b602084016129ca565b565b612a1a906129d8565b90565b612a4f92612a45612a3e612a549694612a4a94612a386129bf565b50610daa565b6008612531565b612547565b61255d565b612a11565b90565b5f90565b612a7c612a8292612a77600193612a70612a57565b505f611665565b61167b565b01610d9d565b612a9c612a96612a915f6118d2565b6101ef565b916101ef565b141590565b612aa9610d80565b50612ab46005610d9d565b90565b90612ac1906101ef565b9052565b612acf60a0610f25565b90565b90612b51612b486004612ae3612ac5565b94612afa612af25f8301610d9d565b5f8801612ab7565b612b12612b0960018301610d9d565b60208801612ab7565b612b2a612b2160028301610d9d565b60408801612ab7565b612b42612b3960038301610d9d565b60608801612ab7565b0161258d565b608084016129ca565b565b612b5c90612ad2565b90565b612bd1612bc9612be494612bba612b94612b8f612b88612bd697612b81610e9a565b505f611665565b889061167b565b612b53565b7f0000000000000000000000000000000000000000000000000000000000000000613d98565b93925090509190919091614145565b9260016114d1565b611501565b612bde6111e1565b91612fb7565b90565b612c08612c0e92612c03600493612bfc610e9a565b505f611665565b61167b565b0161258d565b90565b612c2290612c1d612cd4565b612c24565b565b612c2f8160056118fc565b612c37612972565b90612c6b612c657f38d16b8cac22d99fc7c124b9cd0de2d3fa1faef420bfe791d8c362d765e2270093610858565b91610858565b91612c746101d2565b80612c7e816102e7565b0390a3565b612c8c90612c11565b565b60ff1690565b612ca0612ca591610d84565b612c8e565b90565b612cb29054612c94565b90565b612ccc612cd191612cc4612a57565b506006610de5565b612ca8565b90565b612cdc612972565b612cf5612cef612cea613a94565b6101ef565b916101ef565b03612cfc57565b612d1e612d07613a94565b5f91829163118cdaa760e01b83526004830161027e565b0390fd5b612d2c905161021e565b90565b90612da560806004612dab94612d525f8201612d4c5f8801610fc3565b906118fc565b612d6b60018201612d6560208801610fc3565b906118fc565b612d8460028201612d7e60408801610fc3565b906118fc565b612d9d60038201612d9760608801610fc3565b906118fc565b019201612d22565b90612607565b565b90612db791612d2f565b565b612dcd612dc8612dd29261117b565b61082d565b61117b565b90565b90565b90612ded612de8612df492612db9565b612dd5565b8254610e00565b9055565b612e6290612e2f81612e2a612e195f612e1360208701610fc3565b90611665565b612e245f8601610fc3565b9061167b565b612dad565b6020612e4c612e47612e425f8501610fc3565b611163565b61116f565b63313ce56790612e5a6101d2565b948592610ff8565b82528180612e72600482016102e7565b03915afa908115612edb57612ea5925f92612ea7575b50612ea090612e9a5f60019201610fc3565b906114d1565b612dd8565b565b612ea0919250612ecd9060203d8111612ed4575b612ec58183610efc565b8101906111a4565b9190612e88565b503d612ebb565b611047565b90612eea90610858565b5f5260205260405f2090565b612f05612f0a92916002612ee0565b6118fc565b565b612f18612f1e9161117b565b9161117b565b90039060ff8211612f2b57565b6116d3565b612f399061117b565b604d8111612f4757600a0a90565b6116d3565b612f5b612f619193929361021e565b9261021e565b91612f6d83820261021e565b928184041490151715612f7c57565b6116d3565b634e487b7160e01b5f52601260045260245ffd5b612fa1612fa79161021e565b9161021e565b908115612fb2570490565b612f81565b91612fc0610e9a565b5081612fd4612fce8361117b565b9161117b565b115f14612ffa57612fec612ff191612ff79493612f0c565b612f30565b90612f95565b90565b908061300e6130088461117b565b9161117b565b105f146130345761302661302b916130319493612f0c565b612f30565b90612f4c565b90565b505090565b9061304c92916130476141ac565b61357d565b613054614211565b565b61305f906101e4565b90565b61306b81613056565b0361307257565b5f80fd5b9050359061308382613062565b565b5f80fd5b67ffffffffffffffff81116130a7576130a3602091610ede565b0190565b610ee8565b909291926130c16130bc82613089565b610f25565b938185526020850190828401116130dd576130db92611d5e565b565b613085565b9080601f83011215613100578160206130fd933591016130ac565b90565b61031f565b91909160808184031261317c5761311c6080610f25565b92613129815f8401611c8f565b5f85015261313a816020840161020f565b602085015260408201359167ffffffffffffffff831161317757613163826131709483016130e2565b6040860152606001611da0565b6060830152565b610f3a565b610eda565b67ffffffffffffffff81116131995760208091020190565b610ee8565b919091610180818403126132ae576131b7610180610f25565b926131c4815f8401610235565b5f8501526131d58160208401610235565b60208501526131e78160408401610235565b60408501526131f98160608401611ebd565b606085015261320b816080840161020f565b608085015261321d8160a0840161020f565b60a085015261322f8160c0840161020f565b60c08501526132418160e0840161020f565b60e0850152613254816101008401610235565b610100850152613268816101208401610235565b61012085015261327c816101408401610235565b61014085015261016082013567ffffffffffffffff81116132a9576132a192016130e2565b610160830152565b610f3a565b610eda565b919091606081840312613330576132ca6060610f25565b925f82013567ffffffffffffffff811161332b57816132ea91840161319e565b5f85015260208201359167ffffffffffffffff8311613326576133128261331f9483016130e2565b6020860152604001610235565b6040830152565b610f3a565b610f3a565b610eda565b92919061334961334482613181565b610f25565b93818552602080860192028101918383116133a05781905b83821061336f575050505050565b813567ffffffffffffffff811161339b5760209161339087849387016132b3565b815201910190613361565b61031f565b610327565b9080601f830112156133c3578160206133c093359101613335565b90565b61031f565b91909160a081840312613480576133df60a0610f25565b926133ec815f840161020f565b5f8501526133fd8160208401610235565b6020850152604082013567ffffffffffffffff811161347b57816134229184016133a5565b6040850152606082013567ffffffffffffffff811161347657816134479184016133a5565b6060850152608082013567ffffffffffffffff81116134715761346a92016130e2565b6080830152565b610f3a565b610f3a565b610f3a565b610eda565b916101808383031261356c5761349d825f850161157e565b926134ab8360208301613076565b926134b98160408401613076565b926134c78260608501613076565b926134d58360808301613076565b926134e38160a08401610235565b926134f18260c08501610235565b926134ff8360e08301613076565b9261350e816101008401613076565b9261351d826101208501610235565b9261014081013567ffffffffffffffff8111613567578361353f918301613105565b9261016082013567ffffffffffffffff81116135625761355f92016133c8565b90565b6101e0565b6101e0565b6101dc565b61357a9061084c565b90565b916135cc6135c66135c061359b6135d2946135fb9690810190613485565b909a91999f969e9560809e959d94989e9c93999c52999897969b9d9c9a9e9050613571565b9c613571565b97613571565b98613571565b986135e96135e36080519299613571565b93613571565b9394959690898d8c90918b9394614225565b8561360e6136085f611aad565b9161021e565b146136a05761362596958890919293949596614631565b613659826136527f0000000000000000000000000000000000000000000000000000000000000000610a21565b8691614792565b613661610e9a565b508061367561366f8661021e565b9161021e565b11613681575b50505050565b6136979361368e916125e0565b909190916147a9565b5f80808061367b565b50505050505050505050565b906136b79291613039565b565b906136cc92916136c76141ac565b61385d565b6136d4614211565b565b919060a0838203126137465761373f906136f060a0610f25565b936136fd825f8301610235565b5f86015261370e8260208301610235565b60208601526137208260408301610235565b60408601526137328260608301610235565b6060860152608001610235565b6080830152565b610eda565b916102008383031261383357613763825f850161157e565b926137718360208301613076565b9261377f8160408401610235565b9261378d8260608501613076565b9261379b8360808301613076565b926137a98160a08401610235565b926137b78260c085016136d6565b926137c6836101608301613076565b926137d5816101808401613076565b926137e4826101a08501610235565b926101c081013567ffffffffffffffff811161382e5783613806918301613105565b926101e082013567ffffffffffffffff81116138295761382692016133c8565b90565b6101e0565b6101e0565b6101dc565b61384761384d9193929361021e565b9261021e565b820180921161385857565b6116d3565b9181016138699161374b565b92959a5090929395979861387c90613571565b989661388790613571565b9761389190613571565b99959361389d90613571565b946138a790613571565b929091928a9589958d909192939495966138c09861490e565b6138c991613838565b92818386869089926138da94614a8f565b906138e49161191c565b90818185859088926138f594614b15565b9160089061390291612531565b9061390c91612547565b836139169161255d565b61391f90612573565b91825f019061392d8261258d565b9061393791613838565b61394091612607565b906001019061394e8261258d565b9061395891613838565b61396191612607565b907f000000000000000000000000000000000000000000000000000000000000000061398c90610a21565b61399592614792565b565b906139a292916136b9565b565b6139b06139b69161021e565b9161021e565b9081156139c1570490565b612f81565b6139ea916139dc916139d6610e9a565b50612f4c565b6139e4611817565b906139a4565b90565b90613a0c613a11926139fd610e9a565b50613a06611817565b90612f4c565b6139a4565b90565b613a3090613a20610d80565b50613a2a5f611aad565b90614b86565b90565b613a3c90610830565b90565b613a4890613a33565b90565b613a549061084c565b90565b9180613a6b613a655f611aad565b9161021e565b14613a8f57613a7c613a8d93613a3f565b91613a8630613a4b565b9192614cc7565b565b505050565b613a9c610d80565b503390565b1b90565b91906008613ac5910291613abf60018060a01b0384613aa1565b92613aa1565b9181191691161790565b9190613ae5613ae0613aed93610858565b6118f9565b908354613aa5565b9055565b613b0391613afd610d80565b91613acf565b565b613b1990613b145f6005613af1565b614d17565b565b6fffffffffffffffffffffffffffffffff1690565b613b3981613b1b565b03613b4057565b5f80fd5b90505190613b5182613b30565b565b919060c083820312613bd557613bce90613b6d60c0610f25565b93613b7a825f8301613b44565b5f860152613b8b8260208301613b44565b6020860152613b9d8260408301613b44565b6040860152613baf8260608301613b44565b6060860152613bc18260808301613b44565b608086015260a001613b44565b60a0830152565b610eda565b9060c082820312613bf357613bf0915f01613b53565b90565b6101dc565b613c029051613b1b565b90565b613c19613c14613c1e92613b1b565b61082d565b61021e565b90565b613c35613c30613c3a926118b3565b61082d565b613b1b565b90565b613c4690610830565b90565b613c5290613c3d565b90565b613c5e9061084c565b90565b90608080613cb993613c795f8201515f860190611cf6565b613c8b60208201516020860190611cf6565b613c9d60408201516040860190611cf6565b613caf60608201516060860190611cf6565b015191019061097e565b565b613cc490613b1b565b9052565b9060a080613d3293613ce05f8201515f860190613cbb565b613cf260208201516020860190613cbb565b613d0460408201516040860190613cbb565b613d1660608201516060860190613cbb565b613d2860808201516080860190613cbb565b0151910190613cbb565b565b9160a0613d56929493613d4f6101608201965f830190613c61565b0190613cc8565b565b613d64613d6a91613b1b565b91613b1b565b01906fffffffffffffffffffffffffffffffff8211613d8557565b6116d3565b90613d9490613b1b565b9052565b60c0613dfb91613da6610e9a565b50613daf610e9a565b50613db8610e9a565b50613dc1610e9a565b50613dd4613dce85614d7c565b91610a21565b613df0635c60e39a613de46101d2565b95869485938493610ff8565b83526004830161111f565b03915afa9081156140e6575f916140b8575b5090613e2d42613e27613e2260808601613bf8565b613c05565b9061182b565b80613e40613e3a5f611aad565b9161021e565b141580614092575b80614064575b613eac575b5050613e605f8201613bf8565b613e6c60208301613bf8565b92613ea9613ea3613e9d613e97613e916060613e8a60408a01613bf8565b9801613bf8565b95613c05565b96613c05565b94613c05565b92613c05565b90565b6020613eca613ec5613ec060608601610fc3565b613c49565b613c55565b638c00bf6b9390613eed8695613ef8613ee16101d2565b97889586948594610ff8565b845260048401613d34565b03915afa91821561405f57613f3492613f2e915f91614031575b5091613f28613f2360408701613bf8565b613c05565b92614dbf565b90614e32565b613f5c613f4082614f85565b613f566040850191613f5183613bf8565b613d58565b90613d8a565b613f83613f6882614f85565b613f7d5f850191613f7883613bf8565b613d58565b90613d8a565b613f8f60a08301613bf8565b613fa1613f9b5f613c21565b91613b1b565b03613fad575b80613e53565b61400f61400a613fd461402b93613fce613fc960a08801613bf8565b613c05565b90614e32565b613ff081613feb613fe65f8901613bf8565b613c05565b61182b565b614004613fff60208801613bf8565b613c05565b91614fd0565b614f85565b614025602084019161402083613bf8565b613d58565b90613d8a565b5f613fa7565b614052915060203d8111614058575b61404a8183610efc565b8101906116b5565b5f613f12565b503d614040565b611047565b5061407160608301610fc3565b61408b6140856140805f6118d2565b6101ef565b916101ef565b1415613e4e565b5061409f60408401613bf8565b6140b16140ab5f613c21565b91613b1b565b1415613e48565b6140d9915060c03d81116140df575b6140d18183610efc565b810190613bda565b5f613e0d565b503d6140c7565b611047565b90565b6141026140fd614107926140eb565b61082d565b61021e565b90565b61411460016140ee565b90565b90565b61412e61412961413392614117565b61082d565b61021e565b90565b614142620f424061411a565b90565b9161417761416861417d94614158610e9a565b509361416261410a565b90613838565b91614171614136565b90613838565b9161500c565b90565b90565b61419761419261419c92614180565b61082d565b61021e565b90565b6141a96002614183565b90565b6141b6600361258d565b6141cf6141c96141c461419f565b61021e565b9161021e565b146141e8576141e66141df61419f565b6003612607565b565b5f633ee5aeb560e01b815280614200600482016102e7565b0390fd5b61420e60016140ee565b90565b61422361421c614204565b6003612607565b565b949392906142426142539361423d614247935f611665565b61167b565b612b53565b938591859091926150e3565b5050806142686142625f611aad565b9161021e565b11614273575b505050565b61427f92919091615303565b5f808061426e565b6142909061084c565b90565b61429d60a0610f25565b90565b52565b90916060828403126142d8576142d56142be845f8501611070565b936142cc8160208601611070565b93604001611070565b90565b6101dc565b6142fc61430560209361430a936142f3816122b4565b93848093611d55565b958691016122c1565b610ede565b0190565b9061435c906060806143516080840161432d5f8801515f870190611cd7565b61433f60208801516020870190611cf6565b604087015185820360408701526142dd565b940151910190611dc1565b90565b6143c091608060a082019261437a5f8201515f850190611cf6565b61438c6020820151602085019061097e565b61439e60408201516040850190611cf6565b6143b060608201516060850190611cf6565b015190608081840391015261430e565b90565b5190565b60200190565b6144b5916101606101808201926143ea5f8201515f85019061097e565b6143fc6020820151602085019061097e565b61440e6040820151604085019061097e565b61442060608201516060850190611f05565b61443260808201516080850190611cf6565b61444460a082015160a0850190611cf6565b61445660c082015160c0850190611cf6565b61446860e082015160e0850190611cf6565b61447c61010082015161010085019061097e565b61449061012082015161012085019061097e565b6144a461014082015161014085019061097e565b0151906101608184039101526142dd565b90565b906144f7906040806144ec6144da606085015f8801518682035f8801526143cd565b602087015185820360208701526142dd565b94015191019061097e565b90565b90614504916144b8565b90565b60200190565b9061452161451a836143c3565b8092611e87565b9081614532602083028401946143c7565b925f915b83831061454557505050505090565b90919293946020614567614561838560019503875289516144fa565b97614507565b9301930191939290614536565b6145db9160806145ca6145b860a084016145945f8701515f870190611cf6565b6145a66020870151602087019061097e565b6040860151858203604087015261450d565b6060850151848203606086015261450d565b9201519060808184039101526142dd565b90565b9361461361462e9694614609614620956145ff60a08a01965f8b0190610271565b6020890190610271565b604087019061040e565b848203606086015261435f565b916080818403910152614574565b90565b9293969096949194614641610e9a565b50837f000000000000000000000000000000000000000000000000000000000000000061466d90610bb7565b8790614678926154ff565b7f00000000000000000000000000000000000000000000000000000000000000006146a290610bb7565b9663594a88cc95306146b390614287565b956002906146c091612ee0565b6146c990610d9d565b979994929091926146d8614293565b955f8701906146e691612ab7565b60208601906146f4916129ca565b604085019061470291612ab7565b606084019061471091612ab7565b608083019061471e916142a0565b906147276101d2565b9687956147348796610ff8565b86526004860194614744956145de565b03815a6060945f91f190811561478d575f9161475f575b5090565b614780915060603d8111614786575b6147788183610efc565b8101906142a3565b5061475b565b503d61476e565b611047565b9161479f6147a793613a3f565b9190916155d1565b565b91806147bd6147b75f611aad565b9161021e565b146147d8576147ce6147d693613a3f565b91909161568d565b565b505050565b6147e760a0610f25565b90565b90608080614842936148025f8201515f86019061097e565b6148146020820151602086019061097e565b6148266040820151604086019061097e565b6148386060820151606086019061097e565b015191019061097e565b565b6148a591608060a082019261485f5f8201515f850190611cf6565b6148716020820151602085019061097e565b61488360408201516040850190611cf6565b61489560608201516060850190611cf6565b015190608081840391015261430e565b90565b94909161490b96946148e46148fc956148da6148ee946148d06101408c01985f8d0190610271565b60208b0190610271565b604089019061040e565b60608701906147ea565b848203610100860152614844565b91610120818403910152614574565b90565b929790939461491b610e9a565b50837f000000000000000000000000000000000000000000000000000000000000000061494790610bb7565b849061495292614792565b7f000000000000000000000000000000000000000000000000000000000000000061497c90610bb7565b9763c81f847a963061498d90614287565b9660029061499a91612ee0565b6149a390610d9d565b989a9594929091926149b36147dd565b955f8701906149c191612ab7565b60208601906149cf916129ca565b60408501906149dd91612ab7565b60608401906149eb91612ab7565b60808301906149f9916142a0565b91614a026101d2565b978896614a0f8897610ff8565b87526004870195614a1f966148a8565b03815a6060945f91f1908115614a68575f91614a3a575b5090565b614a5b915060603d8111614a61575b614a538183610efc565b8101906142a3565b50614a36565b503d614a49565b611047565b15614a7457565b5f622582ad60e91b815280614a8b600482016102e7565b0390fd5b92614ad9614b1395614ad4614b0c95614ac6614ac1614ab8614b0197614b06999085909161170a565b949260016114d1565b611501565b614ace6111e1565b91612fb7565b6139ed565b937f000000000000000000000000000000000000000000000000000000000000000090613838565b61021e565b9161021e565b1115614a6d565b565b90614b41614b3c614b549694614b37614b4c94614b30610e9a565b505f611665565b61167b565b612b53565b93829085909161571e565b919091615857565b90565b614b609061084c565b90565b916020614b84929493614b7d60408201965f83019061040e565b019061040e565b565b614b8e610d80565b50614b9830614b57565b31614bab614ba58461021e565b9161021e565b10614c2f576037916e5af43d82803e903d91602b57fd5bf382763d602d80600a3d3981f3363d3d373d3d3d363d7300000060099460601b60e81c175f5260781b17602052f09081614c0c614c06614c015f6118d2565b6101ef565b916101ef565b14614c1357565b5f63b06ebf3d60e01b815280614c2b600482016102e7565b0390fd5b50614c3930614b57565b31614c545f92839263cf47918160e01b845260048401614b63565b0390fd5b614c619061084c565b90565b63ffffffff1690565b63ffffffff60e01b1690565b614c8d614c88614c9292614c64565b610ff8565b614c6d565b90565b604090614cbe614cc59496959396614cb460608401985f850190610271565b6020830190610271565b019061040e565b565b600492614d01614d159593614d109394614ce86323b872dd92949192614c79565b93614cf16101d2565b9788956020870190815201614c95565b60208201810382520383610efc565b615973565b565b614d216004610d9d565b614d2c8260046118fc565b90614d60614d5a7f8be0079c531659141344cd1fd0a4f28419497f9722a3daafe3b4186f6b6457e093610858565b91610858565b91614d696101d2565b80614d73816102e7565b0390a3565b5f90565b60a090614d87614d78565b502090565b614d9d670de0b6b3a76400006117fb565b90565b90565b614db7614db2614dbc92614da0565b61082d565b61021e565b90565b614e2f91614dd591614dcf610e9a565b50612f4c565b614e2a614dfe8283614df86002614df3614ded614d8c565b91614183565b612f4c565b91615a27565b614e248184614e1e6003614e19614e13614d8c565b91614da3565b612f4c565b91615a27565b92613838565b613838565b90565b90614e4f91614e3f610e9a565b5090614e49614d8c565b91615a27565b90565b5f90565b67ffffffffffffffff8111614e7457614e70602091610ede565b0190565b610ee8565b90614e8b614e8683614e56565b610f25565b918252565b5f7f6d61782075696e74313238206578636565646564000000000000000000000000910152565b614ec16014614e79565b90614ece60208301614e90565b565b614ed8614eb7565b90565b614ee3614ed0565b90565b5190565b60209181520190565b614f12614f1b602093614f2093614f0981614ee6565b93848093614eea565b958691016122c1565b610ede565b0190565b614f399160208201915f818403910152614ef3565b90565b15614f445750565b614f6590614f506101d2565b91829162461bcd60e51b835260048301614f24565b0390fd5b614f7d614f78614f829261021e565b61082d565b613b1b565b90565b614fcd90614f91614e52565b50614fc881614fb8614fb26fffffffffffffffffffffffffffffffff613c05565b9161021e565b1115614fc2614edb565b90614f3c565b614f69565b90565b90615003614ff46150099493614fe4610e9a565b5093614fee614136565b90613838565b91614ffd61410a565b90613838565b91615a27565b90565b615026615045939261504092615020610e9a565b50612f4c565b61503a8361503460016140ee565b9061182b565b90613838565b612f95565b90565b9190604083820312615070578061506461506d925f8601611070565b93602001611070565b90565b6101dc565b61507e90611aad565b9052565b61508d5f80926122b8565b0190565b91936150c86150d292946150be6150e0976150b46101208801985f890190613c61565b60a0870190615075565b60c085019061040e565b60e0830190610271565b610100818303910152615082565b90565b6151376040936150f1610e9a565b506150fa610e9a565b506151065f8501610fc3565b906151307f0000000000000000000000000000000000000000000000000000000000000000610a21565b9091614792565b906151865f6151657f0000000000000000000000000000000000000000000000000000000000000000610a21565b926151916320b76e819195839861517a6101d2565b998a9889978896610ff8565b865260048601615091565b03925af19081156151db575f809190926151ab575b509091565b90506151ce915060403d81116151d4575b6151c68183610efc565b810190615048565b5f6151a6565b503d6151bc565b611047565b6151e99061084c565b90565b6151f590610830565b90565b615201906151ec565b90565b61520d9061084c565b90565b61524661524d9461523c60e09498979561523261010086019a5f870190613c61565b60a085019061040e565b60c0830190610271565b0190610271565b565b9092919261526461525f82613089565b610f25565b938185526020850190828401116152805761527e926122c1565b565b613085565b9080601f830112156152a3578160206152a09351910161524f565b90565b61031f565b906020828203126152d8575f82015167ffffffffffffffff81116152d3576152d09201615285565b90565b6101e0565b6101dc565b91615300926152f360408201935f830190610271565b60208184039101526122cc565b90565b91905f916153a6838561538f61532961532461531e306151e0565b936151f8565b615204565b94615380631cff79cd9361535c7f0000000000000000000000000000000000000000000000000000000000000000610a21565b98929a6153676101d2565b9b8c94600460208701638720316d60e01b815201615210565b60208201810382520388610efc565b6153b161539a6101d2565b97889687958694610ff8565b8452600484016152dd565b03925af180156153e3576153c3575b50565b6153de903d805f833e6153d68183610efc565b8101906152a8565b6153c0565b611047565b91602061540992949361540260408201965f830190610271565b019061040e565b565b9061541d61541883613089565b610f25565b918252565b606090565b3d5f14615442576154373d61540b565b903d5f602084013e5b565b61544a615422565b90615440565b9050519061545d82611d8c565b565b9060208282031261547857615475915f01615450565b90565b6101dc565b5f7f5361666520417070726f76650000000000000000000000000000000000000000910152565b6154b1600c602092614eea565b6154ba8161547d565b0190565b6154d39060208101905f8183039101526154a4565b90565b156154dd57565b6154e56101d2565b62461bcd60e51b8152806154fb600482016154be565b0390fd5b61555e9260046155405f9461553186959463095ea7b360e01b926155216101d2565b95869460208601908152016153e8565b60208201810382520382610efc565b82602082019151925af1615552615427565b81615560575b506154d6565b565b905061556b816122b4565b61557d6155775f611aad565b9161021e565b1490811561558d575b505f615558565b6155a89150602061559d826122b4565b81830101910161545f565b5f615586565b9160206155cf9294936155c860408201965f830190610271565b0190615075565b565b909161561460049161560563095ea7b36155ec879391614c79565b926155f56101d2565b95869460208601908152016153e8565b60208201810382520382610efc565b90615629615623828490615a46565b15610b36565b615633575b505050565b61568060046156859461567b849161566c63095ea7b36156535f91614c79565b9261565c6101d2565b96879460208601908152016155ae565b60208201810382520383610efc565b615973565b615973565b5f808061562e565b906156d46156d9936156c5600494936156ac63a9059cbb919391614c79565b926156b56101d2565b96879460208601908152016153e8565b60208201810382520383610efc565b615973565b565b909161571b9361570461570e926156fa6101008601965f870190613c61565b60a085019061040e565b60c0830190610271565b60e0818303910152615082565b90565b9161575e61572e60208401610fc3565b6157577f0000000000000000000000000000000000000000000000000000000000000000610a21565b83916154ff565b6157877f0000000000000000000000000000000000000000000000000000000000000000610a21565b63238d657992919392813b15615803575f6157b5916157c082966157a96101d2565b98899788968795610ff8565b8552600485016156db565b03925af180156157fe576157d2575b50565b6157f1905f3d81116157f7575b6157e98183610efc565b8101906122a5565b5f6157cf565b503d6157df565b611047565b610ff4565b909594926158559461584461584e9261583a6101009661583061012088019c5f890190613c61565b60a087019061040e565b60c085019061040e565b60e0830190610271565b0190610271565b565b91905f91615863610e9a565b5061591083615870610e9a565b956158f981946158ea61589361588e615888306151e0565b956151f8565b615204565b96631cff79cd946158c37f0000000000000000000000000000000000000000000000000000000000000000610a21565b99939b9190916158d16101d2565b9c8d956004602088016350d8cd4b60e01b815201615808565b60208201810382520388610efc565b61591b6159046101d2565b97889687958694610ff8565b8452600484016152dd565b03925af1801561596e57615947915f9161594c575b50602061593c826122b4565b818301019101615048565b905090565b61596891503d805f833e6159608183610efc565b8101906152a8565b5f615930565b611047565b905f602091615980610e9a565b50615989610e9a565b50828151910182855af115615a1c573d5f51906159ae6159a85f611aad565b9161021e565b145f14615a0257506159bf81614c58565b3b6159d26159cc5f611aad565b9161021e565b145b6159db5750565b6159e76159fe91614c58565b5f918291635274afe760e01b83526004830161027e565b0390fd5b615a15615a0f60016140ee565b9161021e565b14156159d4565b6040513d5f823e3d90fd5b615a439291615a3e91615a38610e9a565b50612f4c565b612f95565b90565b905f602091615a53612a57565b50615a5c612a57565b50615a65610e9a565b50615a6e610e9a565b50828151910182855af13d915f51919283615a8a575b50505090565b90919250615aa0615a9a5f611aad565b9161021e565b145f14615ace57615ab19150614c58565b3b615ac4615abe5f611aad565b9161021e565b115b5f8080615a84565b50615ae2615adc60016140ee565b9161021e565b14615ac656fea264697066735822122016c45ae84aa68102e2894fc9c2790748dbb1fb7401c67743567669c36f9796e864736f6c634300081e003360a06040523461003f57610019610014610104565b610125565b610021610044565b61051b61012b82396080518181816101d101526102f1015261051b90f35b61004a565b60405190565b5f80fd5b601f801991011690565b634e487b7160e01b5f52604160045260245ffd5b906100769061004e565b810190811060018060401b0382111761008e57604052565b610058565b906100a661009f610044565b928361006c565b565b5f80fd5b60018060a01b031690565b6100c0906100ac565b90565b6100cc816100b7565b036100d357565b5f80fd5b905051906100e4826100c3565b565b906020828203126100ff576100fc915f016100d7565b90565b6100a8565b6101226106468038038061011781610093565b9283398101906100e6565b90565b60805256fe60806040526004361015610013575b61024a565b61001d5f3561003c565b80631cff79cd146100375763dd72047f0361000e57610215565b61018a565b60e01c90565b60405190565b5f80fd5b5f80fd5b5f80fd5b60018060a01b031690565b61006890610054565b90565b6100748161005f565b0361007b57565b5f80fd5b9050359061008c8261006b565b565b5f80fd5b5f80fd5b5f80fd5b909182601f830112156100d45781359167ffffffffffffffff83116100cf5760200192600183028401116100ca57565b610096565b610092565b61008e565b91909160408184031261011a576100f2835f830161007f565b92602082013567ffffffffffffffff811161011557610111920161009a565b9091565b610050565b61004c565b5190565b60209181520190565b90825f9392825e0152565b601f801991011690565b61016061016960209361016e936101578161011f565b93848093610123565b9586910161012c565b610137565b0190565b6101879160208201915f818403910152610141565b90565b346101bb576101b76101a66101a03660046100d9565b916104cf565b6101ae610042565b91829182610172565b0390f35b610048565b5f9103126101ca57565b61004c565b7f000000000000000000000000000000000000000000000000000000000000000090565b6101fc9061005f565b9052565b9190610213905f602085019401906101f3565b565b34610245576102253660046101c0565b6102416102306101cf565b610238610042565b91829182610200565b0390f35b610048565b5f80fd5b606090565b60209181520190565b5f7f5573657250726f78793a206f6e6c79206c6576657261676520636f7265000000910152565b610290601d602092610253565b6102998161025c565b0190565b6102b29060208101905f818303910152610283565b90565b156102bc57565b6102c4610042565b62461bcd60e51b8152806102da6004820161029d565b0390fd5b906103269392916103213361031b6103157f000000000000000000000000000000000000000000000000000000000000000061005f565b9161005f565b146102b5565b610499565b90565b905090565b90825f939282370152565b9091826103498161035093610329565b809361032e565b0190565b909161035f92610339565b90565b634e487b7160e01b5f52604160045260245ffd5b9061038090610137565b810190811067ffffffffffffffff82111761039a57604052565b610362565b906103b26103ab610042565b9283610376565b565b67ffffffffffffffff81116103d2576103ce602091610137565b0190565b610362565b906103e96103e4836103b4565b61039f565b918252565b3d5f14610409576103fe3d6103d7565b903d5f602084013e5b565b61041161024e565b90610407565b5f7f5573657250726f78793a2063616c6c206661696c656400000000000000000000910152565b61044b6016602092610253565b61045481610417565b0190565b61046d9060208101905f81830391015261043e565b90565b1561047757565b61047f610042565b62461bcd60e51b81528061049560048201610458565b0390fd5b925f80949281949350926104b76104ae610042565b93849283610354565b03925af16104cc6104c66103ee565b91610470565b90565b906104e292916104dd61024e565b6102de565b9056fea26469706673582212202a4b6b95e9beb7c98cff7e4d8098098d9e7303a0022473e6832680236226dc8b64736f6c634300081e0033","linkReferences":{}},"methodIdentifiers":{"acceptOwnership()":"79ba5097","addManager(address)":"2d06177a","addSupportedCollateralTokens((address,bytes32,address)[])":"2ec23d66","calcLeverageFlashLoan(uint256,address,address,uint256)":"5adb101c","calcUnleverageFlashLoan(address,address,uint256)":"313b120e","getCollateralValueInLoanToken(address,address,uint256)":"3ba7a314","getLiqLtv(address,address)":"e43478ef","getMaxLtv(address,address)":"62fd6add","getOrCreateUserProxy(address,uint256)":"5d1593e7","getSharesValueInLoanToken(address,address,uint256)":"e30e40cb","getUserCoreLeveragePosition(address,uint256,address,address)":"94ea07bb","getUserProxy(address,uint256)":"14ee89c4","i_liquidationBuffer()":"fb56d3bb","i_morpho()":"96d066f5","i_pendleRouter()":"dd2a7a17","i_slippageBuffer()":"bf43612b","i_userProxyImplementation()":"d5c96c17","isManager(address)":"f3ae2415","isSupportedCollateralToken(address,address)":"dc101605","leverage(address,(uint256,address,address,uint256,(uint256,uint256,uint256,uint256,uint256),address,address,uint256,(uint8,address,bytes,bool),(address,uint256,((uint256,uint256,uint256,uint8,address,address,address,address,uint256,uint256,uint256,bytes),bytes,uint256)[],((uint256,uint256,uint256,uint8,address,address,address,address,uint256,uint256,uint256,bytes),bytes,uint256)[],bytes)))":"70f5585f","onMorphoFlashLoan(uint256,bytes)":"31f57072","owner()":"8da5cb5b","pendingOwner()":"e30c3978","renounceOwnership()":"715018a6","s_userProxies(address,uint256)":"94d49ab7","transferOwnership(address)":"f2fde38b","unleverage(address,(uint256,address,address,uint256,uint256,address,address,uint256,(uint8,address,bytes,bool),(address,uint256,((uint256,uint256,uint256,uint8,address,address,address,address,uint256,uint256,uint256,bytes),bytes,uint256)[],((uint256,uint256,uint256,uint8,address,address,address,address,uint256,uint256,uint256,bytes),bytes,uint256)[],bytes)))":"7130fa49"},"id":80}