{"abi":[{"type":"constructor","inputs":[{"name":"morphoAddress","type":"address","internalType":"address"},{"name":"pendleRouter","type":"address","internalType":"address"}],"stateMutability":"nonpayable"},{"type":"function","name":"LIQUIDATION_BUFFER","inputs":[],"outputs":[{"name":"","type":"uint256","internalType":"uint256"}],"stateMutability":"view"},{"type":"function","name":"SLIPPAGE_BUFFER","inputs":[],"outputs":[{"name":"","type":"uint256","internalType":"uint256"}],"stateMutability":"view"},{"type":"function","name":"acceptOwnership","inputs":[],"outputs":[],"stateMutability":"nonpayable"},{"type":"function","name":"addManager","inputs":[{"name":"manager","type":"address","internalType":"address"}],"outputs":[],"stateMutability":"nonpayable"},{"type":"function","name":"addSupportedCollateralTokens","inputs":[{"name":"tokenConfigs","type":"tuple[]","internalType":"struct CollateralTokenConfig[]","components":[{"name":"collateralToken","type":"address","internalType":"address"},{"name":"morphoMarketId","type":"bytes32","internalType":"bytes32"},{"name":"pendleMarket","type":"address","internalType":"address"}]}],"outputs":[],"stateMutability":"nonpayable"},{"type":"function","name":"calcLeverageFlashLoan","inputs":[{"name":"desiredLtv","type":"uint256","internalType":"uint256"},{"name":"collateralToken","type":"address","internalType":"address"},{"name":"loanToken","type":"address","internalType":"address"},{"name":"amountCollateral","type":"uint256","internalType":"uint256"}],"outputs":[{"name":"","type":"uint256","internalType":"uint256"}],"stateMutability":"view"},{"type":"function","name":"calcUnleverageFlashLoan","inputs":[{"name":"collateralToken","type":"address","internalType":"address"},{"name":"loanToken","type":"address","internalType":"address"},{"name":"sharesToBurn","type":"uint256","internalType":"uint256"}],"outputs":[{"name":"","type":"uint256","internalType":"uint256"}],"stateMutability":"view"},{"type":"function","name":"getCollateralValueInLoanToken","inputs":[{"name":"collateralToken","type":"address","internalType":"address"},{"name":"loanToken","type":"address","internalType":"address"},{"name":"amountCollateral","type":"uint256","internalType":"uint256"}],"outputs":[{"name":"","type":"uint256","internalType":"uint256"}],"stateMutability":"view"},{"type":"function","name":"getLiqLtv","inputs":[{"name":"collateralToken","type":"address","internalType":"address"},{"name":"loanToken","type":"address","internalType":"address"}],"outputs":[{"name":"","type":"uint256","internalType":"uint256"}],"stateMutability":"view"},{"type":"function","name":"getMaxLtv","inputs":[{"name":"collateralToken","type":"address","internalType":"address"},{"name":"loanToken","type":"address","internalType":"address"}],"outputs":[{"name":"","type":"uint256","internalType":"uint256"}],"stateMutability":"view"},{"type":"function","name":"getOrCreateUserProxy","inputs":[{"name":"user","type":"address","internalType":"address"},{"name":"desiredLtv","type":"uint256","internalType":"uint256"}],"outputs":[{"name":"proxy","type":"address","internalType":"address"}],"stateMutability":"nonpayable"},{"type":"function","name":"getSharesValueInLoanToken","inputs":[{"name":"collateralToken","type":"address","internalType":"address"},{"name":"loanToken","type":"address","internalType":"address"},{"name":"sharesBorrowed","type":"uint256","internalType":"uint256"}],"outputs":[{"name":"","type":"uint256","internalType":"uint256"}],"stateMutability":"view"},{"type":"function","name":"getUserCoreLeveragePosition","inputs":[{"name":"user","type":"address","internalType":"address"},{"name":"desiredLtv","type":"uint256","internalType":"uint256"},{"name":"collateralToken","type":"address","internalType":"address"},{"name":"loanToken","type":"address","internalType":"address"}],"outputs":[{"name":"","type":"tuple","internalType":"struct CoreLeveragePosition","components":[{"name":"amountCollateral","type":"uint256","internalType":"uint256"},{"name":"sharesBorrowed","type":"uint256","internalType":"uint256"}]}],"stateMutability":"view"},{"type":"function","name":"getUserProxy","inputs":[{"name":"user","type":"address","internalType":"address"},{"name":"desiredLtv","type":"uint256","internalType":"uint256"}],"outputs":[{"name":"","type":"address","internalType":"address"}],"stateMutability":"view"},{"type":"function","name":"i_morpho","inputs":[],"outputs":[{"name":"","type":"address","internalType":"contract IMorpho"}],"stateMutability":"view"},{"type":"function","name":"i_pendleRouter","inputs":[],"outputs":[{"name":"","type":"address","internalType":"contract IPAllActionV3"}],"stateMutability":"view"},{"type":"function","name":"i_userProxyImplementation","inputs":[],"outputs":[{"name":"","type":"address","internalType":"address"}],"stateMutability":"view"},{"type":"function","name":"isManager","inputs":[{"name":"manager","type":"address","internalType":"address"}],"outputs":[{"name":"","type":"bool","internalType":"bool"}],"stateMutability":"view"},{"type":"function","name":"isSupportedCollateralToken","inputs":[{"name":"collateralToken","type":"address","internalType":"address"},{"name":"loanToken","type":"address","internalType":"address"}],"outputs":[{"name":"","type":"bool","internalType":"bool"}],"stateMutability":"view"},{"type":"function","name":"leverage","inputs":[{"name":"onBehalfOf","type":"address","internalType":"address"},{"name":"params","type":"tuple","internalType":"struct LeverageParams","components":[{"name":"desiredLtv","type":"uint256","internalType":"uint256"},{"name":"collateralToken","type":"address","internalType":"address"},{"name":"loanToken","type":"address","internalType":"address"},{"name":"amountCollateral","type":"uint256","internalType":"uint256"},{"name":"approxParams","type":"tuple","internalType":"struct ApproxParams","components":[{"name":"guessMin","type":"uint256","internalType":"uint256"},{"name":"guessMax","type":"uint256","internalType":"uint256"},{"name":"guessOffchain","type":"uint256","internalType":"uint256"},{"name":"maxIteration","type":"uint256","internalType":"uint256"},{"name":"eps","type":"uint256","internalType":"uint256"}]},{"name":"pendleSwap","type":"address","internalType":"address"},{"name":"tokenMintSy","type":"address","internalType":"address"},{"name":"minPtOut","type":"uint256","internalType":"uint256"},{"name":"swapData","type":"tuple","internalType":"struct SwapData","components":[{"name":"swapType","type":"uint8","internalType":"enum SwapType"},{"name":"extRouter","type":"address","internalType":"address"},{"name":"extCalldata","type":"bytes","internalType":"bytes"},{"name":"needScale","type":"bool","internalType":"bool"}]},{"name":"limitOrderData","type":"tuple","internalType":"struct LimitOrderData","components":[{"name":"limitRouter","type":"address","internalType":"address"},{"name":"epsSkipMarket","type":"uint256","internalType":"uint256"},{"name":"normalFills","type":"tuple[]","internalType":"struct FillOrderParams[]","components":[{"name":"order","type":"tuple","internalType":"struct Order","components":[{"name":"salt","type":"uint256","internalType":"uint256"},{"name":"expiry","type":"uint256","internalType":"uint256"},{"name":"nonce","type":"uint256","internalType":"uint256"},{"name":"orderType","type":"uint8","internalType":"enum IPLimitOrderType.OrderType"},{"name":"token","type":"address","internalType":"address"},{"name":"YT","type":"address","internalType":"address"},{"name":"maker","type":"address","internalType":"address"},{"name":"receiver","type":"address","internalType":"address"},{"name":"makingAmount","type":"uint256","internalType":"uint256"},{"name":"lnImpliedRate","type":"uint256","internalType":"uint256"},{"name":"failSafeRate","type":"uint256","internalType":"uint256"},{"name":"permit","type":"bytes","internalType":"bytes"}]},{"name":"signature","type":"bytes","internalType":"bytes"},{"name":"makingAmount","type":"uint256","internalType":"uint256"}]},{"name":"flashFills","type":"tuple[]","internalType":"struct FillOrderParams[]","components":[{"name":"order","type":"tuple","internalType":"struct Order","components":[{"name":"salt","type":"uint256","internalType":"uint256"},{"name":"expiry","type":"uint256","internalType":"uint256"},{"name":"nonce","type":"uint256","internalType":"uint256"},{"name":"orderType","type":"uint8","internalType":"enum IPLimitOrderType.OrderType"},{"name":"token","type":"address","internalType":"address"},{"name":"YT","type":"address","internalType":"address"},{"name":"maker","type":"address","internalType":"address"},{"name":"receiver","type":"address","internalType":"address"},{"name":"makingAmount","type":"uint256","internalType":"uint256"},{"name":"lnImpliedRate","type":"uint256","internalType":"uint256"},{"name":"failSafeRate","type":"uint256","internalType":"uint256"},{"name":"permit","type":"bytes","internalType":"bytes"}]},{"name":"signature","type":"bytes","internalType":"bytes"},{"name":"makingAmount","type":"uint256","internalType":"uint256"}]},{"name":"optData","type":"bytes","internalType":"bytes"}]}]}],"outputs":[],"stateMutability":"nonpayable"},{"type":"function","name":"onMorphoFlashLoan","inputs":[{"name":"amountLoan","type":"uint256","internalType":"uint256"},{"name":"data","type":"bytes","internalType":"bytes"}],"outputs":[],"stateMutability":"nonpayable"},{"type":"function","name":"owner","inputs":[],"outputs":[{"name":"","type":"address","internalType":"address"}],"stateMutability":"view"},{"type":"function","name":"pendingOwner","inputs":[],"outputs":[{"name":"","type":"address","internalType":"address"}],"stateMutability":"view"},{"type":"function","name":"renounceOwnership","inputs":[],"outputs":[],"stateMutability":"nonpayable"},{"type":"function","name":"s_userProxies","inputs":[{"name":"user","type":"address","internalType":"address"},{"name":"desiredLtv","type":"uint256","internalType":"uint256"}],"outputs":[{"name":"proxyContract","type":"address","internalType":"address"}],"stateMutability":"view"},{"type":"function","name":"transferOwnership","inputs":[{"name":"newOwner","type":"address","internalType":"address"}],"outputs":[],"stateMutability":"nonpayable"},{"type":"function","name":"unleverage","inputs":[{"name":"onBehalfOf","type":"address","internalType":"address"},{"name":"params","type":"tuple","internalType":"struct UnleverageParams","components":[{"name":"desiredLtv","type":"uint256","internalType":"uint256"},{"name":"collateralToken","type":"address","internalType":"address"},{"name":"loanToken","type":"address","internalType":"address"},{"name":"sharesToBurn","type":"uint256","internalType":"uint256"},{"name":"amountCollateralToWithdraw","type":"uint256","internalType":"uint256"},{"name":"pendleSwap","type":"address","internalType":"address"},{"name":"tokenRedeemSy","type":"address","internalType":"address"},{"name":"minTokenOut","type":"uint256","internalType":"uint256"},{"name":"swapData","type":"tuple","internalType":"struct SwapData","components":[{"name":"swapType","type":"uint8","internalType":"enum SwapType"},{"name":"extRouter","type":"address","internalType":"address"},{"name":"extCalldata","type":"bytes","internalType":"bytes"},{"name":"needScale","type":"bool","internalType":"bool"}]},{"name":"limitOrderData","type":"tuple","internalType":"struct LimitOrderData","components":[{"name":"limitRouter","type":"address","internalType":"address"},{"name":"epsSkipMarket","type":"uint256","internalType":"uint256"},{"name":"normalFills","type":"tuple[]","internalType":"struct FillOrderParams[]","components":[{"name":"order","type":"tuple","internalType":"struct Order","components":[{"name":"salt","type":"uint256","internalType":"uint256"},{"name":"expiry","type":"uint256","internalType":"uint256"},{"name":"nonce","type":"uint256","internalType":"uint256"},{"name":"orderType","type":"uint8","internalType":"enum IPLimitOrderType.OrderType"},{"name":"token","type":"address","internalType":"address"},{"name":"YT","type":"address","internalType":"address"},{"name":"maker","type":"address","internalType":"address"},{"name":"receiver","type":"address","internalType":"address"},{"name":"makingAmount","type":"uint256","internalType":"uint256"},{"name":"lnImpliedRate","type":"uint256","internalType":"uint256"},{"name":"failSafeRate","type":"uint256","internalType":"uint256"},{"name":"permit","type":"bytes","internalType":"bytes"}]},{"name":"signature","type":"bytes","internalType":"bytes"},{"name":"makingAmount","type":"uint256","internalType":"uint256"}]},{"name":"flashFills","type":"tuple[]","internalType":"struct FillOrderParams[]","components":[{"name":"order","type":"tuple","internalType":"struct Order","components":[{"name":"salt","type":"uint256","internalType":"uint256"},{"name":"expiry","type":"uint256","internalType":"uint256"},{"name":"nonce","type":"uint256","internalType":"uint256"},{"name":"orderType","type":"uint8","internalType":"enum IPLimitOrderType.OrderType"},{"name":"token","type":"address","internalType":"address"},{"name":"YT","type":"address","internalType":"address"},{"name":"maker","type":"address","internalType":"address"},{"name":"receiver","type":"address","internalType":"address"},{"name":"makingAmount","type":"uint256","internalType":"uint256"},{"name":"lnImpliedRate","type":"uint256","internalType":"uint256"},{"name":"failSafeRate","type":"uint256","internalType":"uint256"},{"name":"permit","type":"bytes","internalType":"bytes"}]},{"name":"signature","type":"bytes","internalType":"bytes"},{"name":"makingAmount","type":"uint256","internalType":"uint256"}]},{"name":"optData","type":"bytes","internalType":"bytes"}]}]}],"outputs":[],"stateMutability":"nonpayable"},{"type":"event","name":"OwnershipTransferStarted","inputs":[{"name":"previousOwner","type":"address","indexed":true,"internalType":"address"},{"name":"newOwner","type":"address","indexed":true,"internalType":"address"}],"anonymous":false},{"type":"event","name":"OwnershipTransferred","inputs":[{"name":"previousOwner","type":"address","indexed":true,"internalType":"address"},{"name":"newOwner","type":"address","indexed":true,"internalType":"address"}],"anonymous":false},{"type":"error","name":"FailedDeployment","inputs":[]},{"type":"error","name":"FlashLeverageCore__AmountCollateralCannotBeZero","inputs":[]},{"type":"error","name":"FlashLeverageCore__CannotBeZeroAddress","inputs":[]},{"type":"error","name":"FlashLeverageCore__EffectiveLtvTooHigh","inputs":[{"name":"desiredLtv","type":"uint256","internalType":"uint256"},{"name":"effectiveLtv","type":"uint256","internalType":"uint256"}]},{"type":"error","name":"FlashLeverageCore__ExceedsMaxLTV","inputs":[]},{"type":"error","name":"FlashLeverageCore__InsufficientCollateralToWithdraw","inputs":[]},{"type":"error","name":"FlashLeverageCore__InsufficientSharesToBurn","inputs":[]},{"type":"error","name":"FlashLeverageCore__InvalidCollateralToken","inputs":[]},{"type":"error","name":"FlashLeverageCore__InvalidCollateralTokenDecimals","inputs":[]},{"type":"error","name":"FlashLeverageCore__NotAManager","inputs":[]},{"type":"error","name":"FlashLeverageCore__SharesToBurnCannotBeZero","inputs":[]},{"type":"error","name":"FlashLeverageCore__UnsupportedCollateralToken","inputs":[]},{"type":"error","name":"FlashLeverageCore__UntrustedLender","inputs":[]},{"type":"error","name":"InsufficientBalance","inputs":[{"name":"balance","type":"uint256","internalType":"uint256"},{"name":"needed","type":"uint256","internalType":"uint256"}]},{"type":"error","name":"OwnableInvalidOwner","inputs":[{"name":"owner","type":"address","internalType":"address"}]},{"type":"error","name":"OwnableUnauthorizedAccount","inputs":[{"name":"account","type":"address","internalType":"address"}]},{"type":"error","name":"ReentrancyGuardReentrantCall","inputs":[]},{"type":"error","name":"SafeERC20FailedOperation","inputs":[{"name":"token","type":"address","internalType":"address"}]}],"bytecode":{"object":"0x60e0604052346100d05761001a6100146101a4565b9061026b565b6100226100d5565b615d3d6106068239608051818181610ae30152818161136a0152818161168f0152818161246e015281816128d101528181612bf70152818161368f015281816139c50152818161520a0152818161523a015281816153260152818161555701528181615952015281816159820152615abe015260a051818181610c20015281816146a6015281816146db0152818161498001526149b5015260c051818181610b6a01526119f30152615d3d90f35b6100db565b60405190565b5f80fd5b601f801991011690565b634e487b7160e01b5f52604160045260245ffd5b90610107906100df565b810190811060018060401b0382111761011f57604052565b6100e9565b906101376101306100d5565b92836100fd565b565b5f80fd5b60018060a01b031690565b6101519061013d565b90565b61015d81610148565b0361016457565b5f80fd5b9050519061017582610154565b565b919060408382031261019f578061019361019c925f8601610168565b93602001610168565b90565b610139565b6101c2616989803803806101b781610124565b928339810190610177565b9091565b90565b90565b6101e06101db6101e5926101c6565b6101c9565b61013d565b90565b6101f1906101cc565b90565b5f0190565b61020d6102086102129261013d565b6101c9565b61013d565b90565b61021e906101f9565b90565b61022a90610215565b90565b61023690610148565b9052565b919061024d905f6020850194019061022d565b565b6102576100d5565b3d5f823e3d90fd5b61026890610215565b90565b6102773383839161033b565b61029161028b6102865f6101e8565b610148565b91610148565b14908115610318575b506102fc576102a830610221565b6102b06100d5565b90610646820182811060018060401b038211176102f75782916102da91610646616343853961023a565b03905ff080156102f2576102ed9061025f565b60c052565b61024f565b6100e9565b5f630959660360e11b815280610314600482016101f4565b0390fd5b905061033461032e6103295f6101e8565b610148565b91610148565b145f61029a565b906103469291610348565b565b91610352916103a4565b8061036d6103676103625f6101e8565b610148565b91610148565b1461037d5761037b90610522565b565b6103a06103895f6101e8565b5f918291631e4fbdf760e01b83526004830161023a565b0390fd5b906103ae91610439565b565b90565b90565b6103ca6103c56103cf926103b0565b6101c9565b6103b3565b90565b6103dc60016103b6565b90565b5f1b90565b906103f05f19916103df565b9181191691161790565b61040e610409610413926103b3565b6101c9565b6103b3565b90565b90565b9061042e610429610435926103fa565b610416565b82546103e4565b9055565b906104439161046f565b61045561044e6103d2565b6003610419565b565b610460906101f9565b90565b61046c90610457565b90565b61047b6104809261049d565b610463565b60a052565b61048e906101f9565b90565b61049a90610485565b90565b6104a690610491565b608052565b1b90565b919060086104cf9102916104c960018060a01b03846104ab565b926104ab565b9181191691161790565b6104e290610215565b90565b90565b91906104fe6104f9610506936104d9565b6104e5565b9083546104af565b9055565b5f90565b6105209161051a61050a565b916104e8565b565b610536906105315f600561050e565b6105a4565b565b5f1c90565b60018060a01b031690565b61055461055991610538565b61053d565b90565b6105669054610548565b90565b9061057a60018060a01b03916103df565b9181191691161790565b906105996105946105a0926104d9565b6104e5565b8254610569565b9055565b6105ae600461055c565b6105b9826004610584565b906105ed6105e77f8be0079c531659141344cd1fd0a4f28419497f9722a3daafe3b4186f6b6457e0936104d9565b916104d9565b916105f66100d5565b80610600816101f4565b0390a356fe60a06040526004361015610013575b610dae565b61001d5f356101cc565b806314ee89c4146101c757806324b31145146101c25780632d06177a146101bd5780632ec23d66146101b8578063313b120e146101b357806331f57072146101ae5780633ba7a314146101a95780635adb101c146101a45780635d1593e71461019f57806362fd6add1461019a57806370f5585f146101955780637130fa4914610190578063715018a61461018b57806379ba50971461018657806383da2a3c146101815780638da5cb5b1461017c57806394d49ab71461017757806394ea07bb1461017257806396d066f51461016d578063d5c96c1714610168578063dc10160514610163578063dd2a7a171461015e578063e30c397814610159578063e30e40cb14610154578063e43478ef1461014f578063f2fde38b1461014a5763f3ae24150361000e57610d79565b610d46565b610d10565b610cda565b610ca5565b610c70565b610be8565b610b8c565b610b33565b610aa8565b6109e6565b6108df565b6108aa565b61083a565b61080f565b6107db565b61074e565b6106bb565b610658565b61061f565b6105a3565b61056f565b6104b4565b610446565b610392565b61033a565b610293565b60e01c90565b60405190565b5f80fd5b5f80fd5b5f80fd5b60018060a01b031690565b6101f8906101e4565b90565b610204816101ef565b0361020b57565b5f80fd5b9050359061021c826101fb565b565b90565b61022a8161021e565b0361023157565b5f80fd5b9050359061024282610221565b565b919060408382031261026c5780610260610269925f860161020f565b93602001610235565b90565b6101dc565b61027a906101ef565b9052565b9190610291905f60208501940190610271565b565b346102c4576102c06102af6102a9366004610244565b90610ddc565b6102b76101d2565b9182918261027e565b0390f35b6101d8565b5f9103126102d357565b6101dc565b90565b90565b6102f26102ed6102f7926102d8565b6102db565b61021e565b90565b61030a662386f26fc100006102de565b90565b6103156102fa565b90565b6103219061021e565b9052565b9190610338905f60208501940190610318565b565b3461036a5761034a3660046102c9565b61036661035561030d565b61035d6101d2565b91829182610325565b0390f35b6101d8565b9060208282031261038857610385915f0161020f565b90565b6101dc565b5f0190565b346103c0576103aa6103a536600461036f565b610ead565b6103b26101d2565b806103bc8161038d565b0390f35b6101d8565b5f80fd5b5f80fd5b5f80fd5b909182601f8301121561040b5781359167ffffffffffffffff831161040657602001926060830284011161040157565b6103cd565b6103c9565b6103c5565b90602082820312610441575f82013567ffffffffffffffff811161043c5761043892016103d1565b9091565b6101e0565b6101dc565b346104755761045f610459366004610410565b9061156a565b6104676101d2565b806104718161038d565b0390f35b6101d8565b90916060828403126104af576104ac610495845f850161020f565b936104a3816020860161020f565b93604001610235565b90565b6101dc565b346104e5576104e16104d06104ca36600461047a565b916115b3565b6104d86101d2565b91829182610325565b0390f35b6101d8565b909182601f830112156105245781359167ffffffffffffffff831161051f57602001926001830284011161051a57565b6103cd565b6103c9565b6103c5565b91909160408184031261056a57610542835f8301610235565b92602082013567ffffffffffffffff81116105655761056192016104ea565b9091565b6101e0565b6101dc565b3461059e57610588610582366004610529565b9161167f565b6105906101d2565b8061059a8161038d565b0390f35b6101d8565b346105d4576105d06105bf6105b936600461047a565b916117af565b6105c76101d2565b91829182610325565b0390f35b6101d8565b60808183031261061a576105ef825f8301610235565b92610617610600846020850161020f565b9361060e816040860161020f565b93606001610235565b90565b6101dc565b346106535761064f61063e6106353660046105d9565b929190916118f5565b6106466101d2565b91829182610325565b0390f35b6101d8565b346106895761068561067461066e366004610244565b90611996565b61067c6101d2565b9182918261027e565b0390f35b6101d8565b91906040838203126106b657806106aa6106b3925f860161020f565b9360200161020f565b90565b6101dc565b346106ec576106e86106d76106d136600461068e565b90611a35565b6106df6101d2565b91829182610325565b0390f35b6101d8565b5f80fd5b90816101c09103126107045790565b6106f1565b91909160408184031261074957610722835f830161020f565b92602082013567ffffffffffffffff81116107445761074192016106f5565b90565b6101e0565b6101dc565b3461077d57610767610761366004610709565b90612513565b61076f6101d2565b806107798161038d565b0390f35b6101d8565b90816101409103126107915790565b6106f1565b9190916040818403126107d6576107af835f830161020f565b92602082013567ffffffffffffffff81116107d1576107ce9201610782565b90565b6101e0565b6101dc565b3461080a576107f46107ee366004610796565b90612976565b6107fc6101d2565b806108068161038d565b0390f35b6101d8565b346108355761081f3660046102c9565b6108276101d2565b806108318161038d565b0390f35b6101d8565b346108685761084a3660046102c9565b610852612982565b61085a6101d2565b806108648161038d565b0390f35b6101d8565b90565b61088461087f6108899261086d565b6102db565b61021e565b90565b61089c6658d15e17628000610870565b90565b6108a761088c565b90565b346108da576108ba3660046102c9565b6108d66108c561089f565b6108cd6101d2565b91829182610325565b0390f35b6101d8565b3461090f576108ef3660046102c9565b61090b6108fa6129d3565b6109026101d2565b9182918261027e565b0390f35b6101d8565b61092861092361092d926101e4565b6102db565b6101e4565b90565b61093990610914565b90565b61094590610930565b90565b906109529061093c565b5f5260205260405f2090565b61097261096d6109779261021e565b6102db565b61021e565b90565b906109849061095e565b5f5260205260405f2090565b1c90565b60018060a01b031690565b6109af9060086109b49302610990565b610994565b90565b906109c2915461099f565b90565b6109de6109e3926109d96007935f94610948565b61097a565b6109b7565b90565b34610a1757610a13610a026109fc366004610244565b906109c5565b610a0a6101d2565b9182918261027e565b0390f35b6101d8565b608081830312610a5d57610a32825f830161020f565b92610a5a610a438460208501610235565b93610a51816040860161020f565b9360600161020f565b90565b6101dc565b610a6b9061021e565b9052565b90602080610a9193610a875f8201515f860190610a62565b0151910190610a62565b565b9190610aa6905f60408501940190610a6f565b565b34610adc57610ad8610ac7610abe366004610a1c565b92919091612a7e565b610acf6101d2565b91829182610a93565b0390f35b6101d8565b7f000000000000000000000000000000000000000000000000000000000000000090565b610b0e90610930565b90565b610b1a90610b05565b9052565b9190610b31905f60208501940190610b11565b565b34610b6357610b433660046102c9565b610b5f610b4e610ae1565b610b566101d2565b91829182610b1e565b0390f35b6101d8565b7f000000000000000000000000000000000000000000000000000000000000000090565b34610bbc57610b9c3660046102c9565b610bb8610ba7610b68565b610baf6101d2565b9182918261027e565b0390f35b6101d8565b151590565b610bcf90610bc1565b9052565b9190610be6905f60208501940190610bc6565b565b34610c1957610c15610c04610bfe36600461068e565b90612abc565b610c0c6101d2565b91829182610bd3565b0390f35b6101d8565b7f000000000000000000000000000000000000000000000000000000000000000090565b610c4b90610930565b90565b610c5790610c42565b9052565b9190610c6e905f60208501940190610c4e565b565b34610ca057610c803660046102c9565b610c9c610c8b610c1e565b610c936101d2565b91829182610c5b565b0390f35b6101d8565b34610cd557610cb53660046102c9565b610cd1610cc0612b02565b610cc86101d2565b9182918261027e565b0390f35b6101d8565b34610d0b57610d07610cf6610cf036600461047a565b91612bc0565b610cfe6101d2565b91829182610325565b0390f35b6101d8565b34610d4157610d3d610d2c610d2636600461068e565b90612c48565b610d346101d2565b91829182610325565b0390f35b6101d8565b34610d7457610d5e610d5936600461036f565b612ce4565b610d666101d2565b80610d708161038d565b0390f35b6101d8565b34610da957610da5610d94610d8f36600461036f565b612d16565b610d9c6101d2565b91829182610bd3565b0390f35b6101d8565b5f80fd5b5f90565b5f1c90565b610dc7610dcc91610db6565b610994565b90565b610dd99054610dbb565b90565b610e0191610df7610dfc92610def610db2565b506007610948565b61097a565b610dcf565b90565b610e1590610e10612d35565b610e77565b565b90610e219061093c565b5f5260205260405f2090565b5f1b90565b90610e3e60ff91610e2d565b9181191691161790565b610e5190610bc1565b90565b90565b90610e6c610e67610e7392610e48565b610e54565b8254610e32565b9055565b610e89610e8382612d16565b15610bc1565b610e91575b50565b610ea790610ea26001916006610e17565b610e57565b5f610e8e565b610eb690610e04565b565b90610eca91610ec5612d35565b611291565b565b5f90565b6001610edc910161021e565b90565b5090565b634e487b7160e01b5f52603260045260245ffd5b9190811015610f07576060020190565b610ee3565b5f80fd5b601f801991011690565b634e487b7160e01b5f52604160045260245ffd5b90610f3890610f10565b810190811067ffffffffffffffff821117610f5257604052565b610f1a565b90610f6a610f636101d2565b9283610f2e565b565b5f80fd5b90565b610f7c81610f70565b03610f8357565b5f80fd5b90503590610f9482610f73565b565b9190606083820312610fe257610fdb90610fb06060610f57565b93610fbd825f830161020f565b5f860152610fce8260208301610f87565b602086015260400161020f565b6040830152565b610f0c565b610ff2903690610f96565b90565b610fff90516101ef565b90565b90565b61101961101461101e92611002565b6102db565b6101e4565b90565b61102a90611005565b90565b1561103457565b5f630959660360e11b81528061104c6004820161038d565b0390fd5b61105990610914565b90565b61106590611050565b90565b61107190610930565b90565b5f80fd5b60e01b90565b9050519061108b826101fb565b565b90916060828403126110c2576110bf6110a8845f850161107e565b936110b6816020860161107e565b9360400161107e565b90565b6101dc565b6110cf6101d2565b3d5f823e3d90fd5b6110e19051610f70565b90565b6110ed90610f70565b90565b905051906110fd82610221565b565b919060a08382031261116f576111689061111960a0610f57565b93611126825f830161107e565b5f860152611137826020830161107e565b6020860152611149826040830161107e565b604086015261115b826060830161107e565b60608601526080016110f0565b6080830152565b610f0c565b9060a08282031261118d5761118a915f016110ff565b90565b6101dc565b61119b906110e4565b9052565b91906111b2905f60208501940190611192565b565b156111bb57565b5f638197c87b60e01b8152806111d36004820161038d565b0390fd5b6111e090610914565b90565b6111ec906111d7565b90565b6111f890610930565b90565b60ff1690565b61120a816111fb565b0361121157565b5f80fd5b9050519061122282611201565b565b9060208282031261123d5761123a915f01611215565b90565b6101dc565b90565b61125961125461125e92611242565b6102db565b6111fb565b90565b61126b6012611245565b90565b1561127557565b5f63390ca6a760e01b81528061128d6004820161038d565b0390fd5b611299610ecc565b5b806112b76112b16112ac858790610edf565b61021e565b9161021e565b1015611565576112d16112cc83858491610ef7565b610fe7565b9061133a6112e05f8401610ff5565b92611306846112ff6112f96112f45f611021565b6101ef565b916101ef565b141561102d565b606061132461131f61131a60408501610ff5565b61105c565b611068565b632c8ce6bc906113326101d2565b948592611078565b8252818061134a6004820161038d565b03915afa8015611560576113cb925f80929050611531575b5060a061138e7f0000000000000000000000000000000000000000000000000000000000000000610b05565b632c3c9157906113c06113ab6113a6602088016110d7565b6110e4565b926113b46101d2565b97889485938493611078565b83526004830161119f565b03915afa801561152c5761142e935f916114fe575b50906113f56113ef87926101ef565b916101ef565b14806114d4575b611405906111b4565b6020611418611413876111e3565b6111ef565b63313ce567906114266101d2565b958692611078565b8252818061143e6004820161038d565b03915afa9283156114cf5761149c9561148a61149193611485611497976040955f916114a1575b5061147f611479611474611261565b6111fb565b916111fb565b1461126e565b612e59565b9201610ff5565b90612f57565b610ed0565b61129a565b6114c2915060203d81116114c8575b6114ba8183610f2e565b810190611224565b5f611465565b503d6114b0565b6110c7565b50611405856114f66114f06114eb60208601610ff5565b6101ef565b916101ef565b1490506113fc565b61151f915060a03d8111611525575b6115178183610f2e565b810190611174565b5f6113e0565b503d61150d565b6110c7565b611552915060603d8111611559575b61154a8183610f2e565b81019061108d565b5090611362565b503d611540565b6110c7565b505050565b9061157491610eb8565b565b906115809061093c565b5f5260205260405f2090565b60ff1690565b61159e6115a391610db6565b61158c565b90565b6115b09054611592565b90565b6115ef926115cd916115c3610ecc565b5090839091612bc0565b906115e96115e46115dc611261565b926001611576565b6115a6565b91613018565b90565b156115f957565b5f630bb206c760e31b8152806116116004820161038d565b0390fd5b6002111561161f57565b5f80fd5b9050359061163082611615565b565b9060208282031261164b57611648915f01611623565b90565b6101dc565b634e487b7160e01b5f52602160045260245ffd5b6002111561166e57565b611650565b9061167d82611664565b565b916116c4336116be6116b86116b37f0000000000000000000000000000000000000000000000000000000000000000610b05565b6101ef565b916101ef565b146115f2565b6116d18282810190611632565b6116e36116dd5f611673565b91611673565b145f146116f9576116f6929190916139f8565b5b565b6117059291909161370d565b6116f7565b906117149061093c565b5f5260205260405f2090565b9061172a9061093c565b5f5260205260405f2090565b61173f90610914565b90565b61174b90611736565b90565b61175790610930565b90565b9060208282031261177357611770915f016110f0565b90565b6101dc565b634e487b7160e01b5f52601160045260245ffd5b61179861179e916111fb565b916111fb565b019060ff82116117aa57565b611778565b60206117ec6117e76117e260026117dc6117d5611802976117ce610ecc565b505f61170a565b8890611720565b01610dcf565b611742565b61174e565b63a035b1fe906117fa6101d2565b938492611078565b825281806118126004820161038d565b03915afa908115611898576118679361185992611837925f9161186a575b5090613a27565b9161185361184e611846611261565b926001611576565b6115a6565b9061178c565b611861611261565b91613018565b90565b61188b915060203d8111611891575b6118838183610f2e565b81019061175a565b5f611830565b503d611879565b6110c7565b90565b6118b46118af6118b99261189d565b6102db565b61021e565b90565b6118cd670de0b6b3a76400006118a0565b90565b6118df6118e59193929361021e565b9261021e565b82039182116118f057565b611778565b61192e611915611955956119339461190b610ecc565b50908690916117af565b9161192883916119236118bc565b6118d0565b90613a4e565b6118d0565b9061194f61194a611942611261565b926001611576565b6115a6565b91613018565b90565b9061196960018060a01b0391610e2d565b9181191691161790565b90565b9061198b6119866119929261093c565b611973565b8254611958565b9055565b9061199f610db2565b506119be6119b96119b260078590610948565b839061097a565b610dcf565b91826119da6119d46119cf5f611021565b6101ef565b916101ef565b146119e5575b505090565b611a2e919250611a29611a177f0000000000000000000000000000000000000000000000000000000000000000613a75565b93611a2485936007610948565b61097a565b611976565b5f806119e0565b611a5991611a4b91611a45610ecc565b50612c48565b611a5361088c565b906118d0565b90565b15611a6357565b5f6307bb643d60e11b815280611a7b6004820161038d565b0390fd5b90611a9a91611a95611a9033612d16565b611a5c565b611acc565b565b35611aa6816101fb565b90565b15611ab057565b5f630a52f42d60e41b815280611ac86004820161038d565b0390fd5b90611aff91611afa611af5611ae360208501611a9c565b611aef60408601611a9c565b90612abc565b611aa9565b611b4d565b565b35611b0b81610221565b90565b611b22611b1d611b2792611002565b6102db565b61021e565b90565b15611b3157565b5f63219e33d160e11b815280611b496004820161038d565b0390fd5b90611b7e91611b79611b6160608401611b01565b611b73611b6d5f611b0e565b9161021e565b11611b2a565b611ba3565b565b15611b8757565b5f6315138ff160e11b815280611b9f6004820161038d565b0390fd5b90611bf691611bf1611bb65f8401611b01565b611bea611be4611bdf611bcb60208801611a9c565b93611bd860408901611a9c565b9094611a35565b61021e565b9161021e565b1115611b80565b612392565b565b5f80fd5b903590600160800381360303821215611c13570190565b611bf8565b903590600160a00381360303821215611c2f570190565b611bf8565b611c3d90611673565b90565b611c4990611c34565b9052565b50611c5c906020810190610235565b90565b906080611cd8611ce093611c81611c785f830183611c4d565b5f860190610a62565b611c9b611c916020830183611c4d565b6020860190610a62565b611cb5611cab6040830183611c4d565b6040860190610a62565b611ccf611cc56060830183611c4d565b6060860190610a62565b82810190611c4d565b910190610a62565b565b600b1115611cec57565b5f80fd5b90503590611cfd82611ce2565b565b50611d0e906020810190611cf0565b90565b600b1115611d1b57565b611650565b90611d2a82611d11565b565b611d3590611d20565b90565b611d4190611d2c565b9052565b50611d5490602081019061020f565b90565b611d60906101ef565b9052565b5f80fd5b5f80fd5b5f80fd5b9035600160200382360303811215611db157016020813591019167ffffffffffffffff8211611dac576001820236038313611da757565b611d68565b611d64565b611d6c565b60209181520190565b90825f939282370152565b9190611de481611ddd81611de995611db6565b8095611dbf565b610f10565b0190565b611df681610bc1565b03611dfd57565b5f80fd5b90503590611e0e82611ded565b565b50611e1f906020810190611e01565b90565b611e2b90610bc1565b9052565b90611e9f906060611e97611e8d60808401611e58611e4f5f890189611cff565b5f870190611d38565b611e72611e686020890189611d45565b6020870190611d57565b611e7f6040880188611d70565b908683036040880152611dca565b9482810190611e10565b910190611e22565b90565b9035600160200382360303811215611ee357016020813591019167ffffffffffffffff8211611ede576020820236038313611ed957565b611d68565b611d64565b611d6c565b60209181520190565b90565b903560016101800382360303811215611f0b570190565b611d6c565b60041115611f1a57565b5f80fd5b90503590611f2b82611f10565b565b50611f3c906020810190611f1e565b90565b60041115611f4957565b611650565b90611f5882611f3f565b565b611f6390611f4e565b90565b611f6f90611f5a565b9052565b6120bc916120ad610180820192611f98611f8f5f830183611c4d565b5f850190610a62565b611fb2611fa86020830183611c4d565b6020850190610a62565b611fcc611fc26040830183611c4d565b6040850190610a62565b611fe6611fdc6060830183611f2d565b6060850190611f66565b612000611ff66080830183611d45565b6080850190611d57565b61201a61201060a0830183611d45565b60a0850190611d57565b61203461202a60c0830183611d45565b60c0850190611d57565b61204e61204460e0830183611d45565b60e0850190611d57565b61206a61205f610100830183611c4d565b610100850190610a62565b61208661207b610120830183611c4d565b610120850190610a62565b6120a2612097610140830183611c4d565b610140850190610a62565b610160810190611d70565b91610160818503910152611dca565b90565b906121189060406121106121066120eb606085016120df5f890189611ef4565b8682035f880152611f73565b6120f86020880188611d70565b908683036020880152611dca565b9482810190611c4d565b910190610a62565b90565b90612125916120bf565b90565b903560016060038236030381121561213e570190565b611d6c565b60200190565b918161215491611ee8565b908161216560208302840194611ef1565b92835f925b84841061217a5750505050505090565b90919293949560206121a561219f838560019503885261219a8b88612128565b61211b565b98612143565b94019401929493919061216a565b6122459161223761222c61221160a084016121dc6121d35f880188611d45565b5f870190611d57565b6121f66121ec6020880188611c4d565b6020870190610a62565b6122036040870187611ea2565b908683036040880152612149565b61221e6060860186611ea2565b908583036060870152612149565b926080810190611d70565b916080818503910152611dca565b90565b9a99979593919896949290986102008c01995f8d0161226691611c40565b60208c0161227391610271565b60408b0161228091610318565b60608a0161228d91610271565b6080890161229a91610271565b60a088016122a791610318565b60c087016122b491611c5f565b61016086016122c291610271565b61018085016122d091610271565b6101a084016122de91610318565b8281036101c08401526122f091611e2f565b90808203906101e00152612303916121b3565b90565b5f91031261231057565b6101dc565b5190565b60209181520190565b90825f9392825e0152565b61234c61235560209361235a9361234381612315565b93848093612319565b95869101612322565b610f10565b0190565b61238261238f94929361237860608401955f850190610271565b6020830190610318565b604081840391015261232d565b90565b9061239f60208201611a9c565b9161246860206124596123b460408601611a9c565b946123c160608201611b01565b906123ce88338491613ab8565b6123e66123dc5f8301611b01565b89899085926118f5565b975f96926123f55f8401611b01565b91908990608085019061240b6101208701611a9c565b926124196101408801611a9c565b946124276101608901611b01565b9661244661243a8a610180810190611bfc565b996101a0810190611c18565b9961244f6101d2565b9e8f9d8e01612248565b60208201810382520382610f2e565b916124927f0000000000000000000000000000000000000000000000000000000000000000610b05565b63e0232b4292919392813b1561250e575f6124c0916124cb82966124b46101d2565b98899788968795611078565b85526004850161235e565b03925af18015612509576124dd575b50565b6124fc905f3d8111612502575b6124f48183610f2e565b810190612306565b5f6124da565b503d6124ea565b6110c7565b611074565b9061251d91611a7f565b565b9061253a9161253561253033612d16565b611a5c565b61255f565b565b1561254357565b5f63f1e7f8e160e01b81528061255b6004820161038d565b0390fd5b906125909161258b61257360608401611b01565b61258561257f5f611b0e565b9161021e565b1161253c565b612745565b565b9061259c9061093c565b5f5260205260405f2090565b906125b29061093c565b5f5260205260405f2090565b906125c89061093c565b5f5260205260405f2090565b90565b90565b6125e66125eb91610db6565b6125d7565b90565b6125f890546125da565b90565b1561260257565b5f632ad10c8b60e01b81528061261a6004820161038d565b0390fd5b1561262557565b5f63af020cc560e01b81528061263d6004820161038d565b0390fd5b9061264c910361021e565b90565b9061265b5f1991610e2d565b9181191691161790565b90565b9061267d6126786126849261095e565b612665565b825461264f565b9055565b9a99979593919896949290986101808c01995f8d016126a691611c40565b60208c016126b391610271565b60408b016126c091610271565b60608a016126cd91610271565b608089016126da91610271565b60a088016126e791610318565b60c087016126f491610318565b60e0860161270191610271565b610100850161270f91610271565b610120840161271d91610318565b82810361014084015261272f91611e2f565b90808203906101600152612742916121b3565b90565b9061275260208201611a9c565b906128cb60206128bc61276760408501611a9c565b9461277460608601611b01565b9461279661278460808301611b01565b986127905f8401611b01565b90610ddc565b9161284e6127c26127bd6127b66127af60088890612592565b85906125a8565b8b906125be565b6125d4565b6127ea8b6127e36127dd6127d75f86016125ee565b9261021e565b9161021e565b10156125fb565b6128126127f9600183016125ee565b61280b6128058c61021e565b9161021e565b101561261e565b6128318b61282b5f840191612826836125ee565b612641565b90612668565b61284860018a920191612843836125ee565b612641565b90612668565b61285a818989916115b3565b98600197339492918a9161287060a08701611a9c565b9261287d60c08801611a9c565b9461288a60e08901611b01565b966128a961289d8a610100810190611bfc565b99610120810190611c18565b996128b26101d2565b9e8f9d8e01612688565b60208201810382520382610f2e565b916128f57f0000000000000000000000000000000000000000000000000000000000000000610b05565b63e0232b4292919392813b15612971575f6129239161292e82966129176101d2565b98899788968795611078565b85526004850161235e565b03925af1801561296c57612940575b50565b61295f905f3d8111612965575b6129578183610f2e565b810190612306565b5f61293d565b503d61294d565b6110c7565b611074565b906129809161251f565b565b61298a613af5565b612992612b02565b6129a461299e836101ef565b916101ef565b036129b4576129b290613b66565b565b6129cf905f91829163118cdaa760e01b83526004830161027e565b0390fd5b6129db610db2565b506129e66004610dcf565b90565b6129f36040610f57565b90565b5f90565b612a026129e9565b9060208083612a0f6129f6565b815201612a1a6129f6565b81525050565b612a286129fa565b90565b90612a359061021e565b9052565b90612a70612a676001612a4a6129e9565b94612a61612a595f83016125ee565b5f8801612a2b565b016125ee565b60208401612a2b565b565b612a7b90612a39565b90565b612ab092612aa6612a9f612ab59694612aab94612a99612a20565b50610ddc565b6008612592565b6125a8565b6125be565b612a72565b90565b5f90565b612add612ae392612ad8600193612ad1612ab8565b505f61170a565b611720565b01610dcf565b612afd612af7612af25f611021565b6101ef565b916101ef565b141590565b612b0a610db2565b50612b156005610dcf565b90565b90612b22906101ef565b9052565b612b3060a0610f57565b90565b90612bb2612ba96004612b44612b26565b94612b5b612b535f8301610dcf565b5f8801612b18565b612b73612b6a60018301610dcf565b60208801612b18565b612b8b612b8260028301610dcf565b60408801612b18565b612ba3612b9a60038301610dcf565b60608801612b18565b016125ee565b60808401612a2b565b565b612bbd90612b33565b90565b612c32612c2a612c4594612c1b612bf5612bf0612be9612c3797612be2610ecc565b505f61170a565b8890611720565b612bb4565b7f0000000000000000000000000000000000000000000000000000000000000000613df9565b939250905091909190916141a6565b926001611576565b6115a6565b612c3f611261565b91613018565b90565b612c69612c6f92612c64600493612c5d610ecc565b505f61170a565b611720565b016125ee565b90565b612c8390612c7e612d35565b612c85565b565b612c90816005611976565b612c986129d3565b90612ccc612cc67f38d16b8cac22d99fc7c124b9cd0de2d3fa1faef420bfe791d8c362d765e227009361093c565b9161093c565b91612cd56101d2565b80612cdf8161038d565b0390a3565b612ced90612c72565b565b60ff1690565b612d01612d0691610db6565b612cef565b90565b612d139054612cf5565b90565b612d2d612d3291612d25612ab8565b506006610e17565b612d09565b90565b612d3d6129d3565b612d56612d50612d4b613af5565b6101ef565b916101ef565b03612d5d57565b612d7f612d68613af5565b5f91829163118cdaa760e01b83526004830161027e565b0390fd5b612d8d905161021e565b90565b90612e0660806004612e0c94612db35f8201612dad5f8801610ff5565b90611976565b612dcc60018201612dc660208801610ff5565b90611976565b612de560028201612ddf60408801610ff5565b90611976565b612dfe60038201612df860608801610ff5565b90611976565b019201612d83565b90612668565b565b90612e1891612d90565b565b612e2e612e29612e33926111fb565b6102db565b6111fb565b90565b90565b90612e4e612e49612e5592612e1a565b612e36565b8254610e32565b9055565b612ec390612e9081612e8b612e7a5f612e7460208701610ff5565b9061170a565b612e855f8601610ff5565b90611720565b612e0e565b6020612ead612ea8612ea35f8501610ff5565b6111e3565b6111ef565b63313ce56790612ebb6101d2565b948592611078565b82528180612ed36004820161038d565b03915afa908115612f3c57612f06925f92612f08575b50612f0190612efb5f60019201610ff5565b90611576565b612e39565b565b612f01919250612f2e9060203d8111612f35575b612f268183610f2e565b810190611224565b9190612ee9565b503d612f1c565b6110c7565b90612f4b9061093c565b5f5260205260405f2090565b612f66612f6b92916002612f41565b611976565b565b612f79612f7f916111fb565b916111fb565b90039060ff8211612f8c57565b611778565b612f9a906111fb565b604d8111612fa857600a0a90565b611778565b612fbc612fc29193929361021e565b9261021e565b91612fce83820261021e565b928184041490151715612fdd57565b611778565b634e487b7160e01b5f52601260045260245ffd5b6130026130089161021e565b9161021e565b908115613013570490565b612fe2565b91613021610ecc565b508161303561302f836111fb565b916111fb565b115f1461305b5761304d613052916130589493612f6d565b612f91565b90612ff6565b90565b908061306f613069846111fb565b916111fb565b105f146130955761308761308c916130929493612f6d565b612f91565b90612fad565b90565b505090565b906130ad92916130a861420d565b6135de565b6130b5614272565b565b6130c0906101e4565b90565b6130cc816130b7565b036130d357565b5f80fd5b905035906130e4826130c3565b565b5f80fd5b67ffffffffffffffff811161310857613104602091610f10565b0190565b610f1a565b9092919261312261311d826130ea565b610f57565b9381855260208501908284011161313e5761313c92611dbf565b565b6130e6565b9080601f830112156131615781602061315e9335910161310d565b90565b6103c5565b9190916080818403126131dd5761317d6080610f57565b9261318a815f8401611cf0565b5f85015261319b816020840161020f565b602085015260408201359167ffffffffffffffff83116131d8576131c4826131d1948301613143565b6040860152606001611e01565b6060830152565b610f6c565b610f0c565b67ffffffffffffffff81116131fa5760208091020190565b610f1a565b9190916101808184031261330f57613218610180610f57565b92613225815f8401610235565b5f8501526132368160208401610235565b60208501526132488160408401610235565b604085015261325a8160608401611f1e565b606085015261326c816080840161020f565b608085015261327e8160a0840161020f565b60a08501526132908160c0840161020f565b60c08501526132a28160e0840161020f565b60e08501526132b5816101008401610235565b6101008501526132c9816101208401610235565b6101208501526132dd816101408401610235565b61014085015261016082013567ffffffffffffffff811161330a576133029201613143565b610160830152565b610f6c565b610f0c565b9190916060818403126133915761332b6060610f57565b925f82013567ffffffffffffffff811161338c578161334b9184016131ff565b5f85015260208201359167ffffffffffffffff83116133875761337382613380948301613143565b6020860152604001610235565b6040830152565b610f6c565b610f6c565b610f0c565b9291906133aa6133a5826131e2565b610f57565b93818552602080860192028101918383116134015781905b8382106133d0575050505050565b813567ffffffffffffffff81116133fc576020916133f18784938701613314565b8152019101906133c2565b6103c5565b6103cd565b9080601f830112156134245781602061342193359101613396565b90565b6103c5565b91909160a0818403126134e15761344060a0610f57565b9261344d815f840161020f565b5f85015261345e8160208401610235565b6020850152604082013567ffffffffffffffff81116134dc5781613483918401613406565b6040850152606082013567ffffffffffffffff81116134d757816134a8918401613406565b6060850152608082013567ffffffffffffffff81116134d2576134cb9201613143565b6080830152565b610f6c565b610f6c565b610f6c565b610f0c565b91610180838303126135cd576134fe825f8501611623565b9261350c83602083016130d7565b9261351a81604084016130d7565b9261352882606085016130d7565b9261353683608083016130d7565b926135448160a08401610235565b926135528260c08501610235565b926135608360e083016130d7565b9261356f8161010084016130d7565b9261357e826101208501610235565b9261014081013567ffffffffffffffff81116135c857836135a0918301613166565b9261016082013567ffffffffffffffff81116135c3576135c09201613429565b90565b6101e0565b6101e0565b6101dc565b6135db90610930565b90565b9161362d6136276136216135fc6136339461365c96908101906134e6565b909a91999f969e9560809e959d94989e9c93999c52999897969b9d9c9a9e90506135d2565b9c6135d2565b976135d2565b986135d2565b9861364a61364460805192996135d2565b936135d2565b9394959690898d8c90918b9394614286565b8561366f6136695f611b0e565b9161021e565b146137015761368696958890919293949596614692565b6136ba826136b37f0000000000000000000000000000000000000000000000000000000000000000610b05565b86916147f3565b6136c2610ecc565b50806136d66136d08661021e565b9161021e565b116136e2575b50505050565b6136f8936136ef91612641565b9091909161480a565b5f8080806136dc565b50505050505050505050565b90613718929161309a565b565b9061372d929161372861420d565b6138be565b613735614272565b565b919060a0838203126137a7576137a09061375160a0610f57565b9361375e825f8301610235565b5f86015261376f8260208301610235565b60208601526137818260408301610235565b60408601526137938260608301610235565b6060860152608001610235565b6080830152565b610f0c565b9161020083830312613894576137c4825f8501611623565b926137d283602083016130d7565b926137e08160408401610235565b926137ee82606085016130d7565b926137fc83608083016130d7565b9261380a8160a08401610235565b926138188260c08501613737565b926138278361016083016130d7565b926138368161018084016130d7565b92613845826101a08501610235565b926101c081013567ffffffffffffffff811161388f5783613867918301613166565b926101e082013567ffffffffffffffff811161388a576138879201613429565b90565b6101e0565b6101e0565b6101dc565b6138a86138ae9193929361021e565b9261021e565b82018092116138b957565b611778565b9181016138ca916137ac565b92959a509092939597986138dd906135d2565b98966138e8906135d2565b976138f2906135d2565b9995936138fe906135d2565b94613908906135d2565b929091928a9589958d909192939495966139219861496f565b61392a91613899565b928183868690899261393b94614b18565b9061394591611996565b908181858590889261395694614b89565b9160089061396391612592565b9061396d916125a8565b83613977916125be565b613980906125d4565b91825f019061398e826125ee565b9061399891613899565b6139a191612668565b90600101906139af826125ee565b906139b991613899565b6139c291612668565b907f00000000000000000000000000000000000000000000000000000000000000006139ed90610b05565b6139f6926147f3565b565b90613a03929161371a565b565b613a11613a179161021e565b9161021e565b908115613a22570490565b612fe2565b613a4b91613a3d91613a37610ecc565b50612fad565b613a456118bc565b90613a05565b90565b90613a6d613a7292613a5e610ecc565b50613a676118bc565b90612fad565b613a05565b90565b613a9190613a81610db2565b50613a8b5f611b0e565b90614bd7565b90565b613a9d90610914565b90565b613aa990613a94565b90565b613ab590610930565b90565b9180613acc613ac65f611b0e565b9161021e565b14613af057613add613aee93613aa0565b91613ae730613aac565b9192614d18565b565b505050565b613afd610db2565b503390565b1b90565b91906008613b26910291613b2060018060a01b0384613b02565b92613b02565b9181191691161790565b9190613b46613b41613b4e9361093c565b611973565b908354613b06565b9055565b613b6491613b5e610db2565b91613b30565b565b613b7a90613b755f6005613b52565b614d68565b565b6fffffffffffffffffffffffffffffffff1690565b613b9a81613b7c565b03613ba157565b5f80fd5b90505190613bb282613b91565b565b919060c083820312613c3657613c2f90613bce60c0610f57565b93613bdb825f8301613ba5565b5f860152613bec8260208301613ba5565b6020860152613bfe8260408301613ba5565b6040860152613c108260608301613ba5565b6060860152613c228260808301613ba5565b608086015260a001613ba5565b60a0830152565b610f0c565b9060c082820312613c5457613c51915f01613bb4565b90565b6101dc565b613c639051613b7c565b90565b613c7a613c75613c7f92613b7c565b6102db565b61021e565b90565b613c96613c91613c9b92611002565b6102db565b613b7c565b90565b613ca790610914565b90565b613cb390613c9e565b90565b613cbf90610930565b90565b90608080613d1a93613cda5f8201515f860190611d57565b613cec60208201516020860190611d57565b613cfe60408201516040860190611d57565b613d1060608201516060860190611d57565b0151910190610a62565b565b613d2590613b7c565b9052565b9060a080613d9393613d415f8201515f860190613d1c565b613d5360208201516020860190613d1c565b613d6560408201516040860190613d1c565b613d7760608201516060860190613d1c565b613d8960808201516080860190613d1c565b0151910190613d1c565b565b9160a0613db7929493613db06101608201965f830190613cc2565b0190613d29565b565b613dc5613dcb91613b7c565b91613b7c565b01906fffffffffffffffffffffffffffffffff8211613de657565b611778565b90613df590613b7c565b9052565b60c0613e5c91613e07610ecc565b50613e10610ecc565b50613e19610ecc565b50613e22610ecc565b50613e35613e2f85614dcd565b91610b05565b613e51635c60e39a613e456101d2565b95869485938493611078565b83526004830161119f565b03915afa908115614147575f91614119575b5090613e8e42613e88613e8360808601613c59565b613c66565b906118d0565b80613ea1613e9b5f611b0e565b9161021e565b1415806140f3575b806140c5575b613f0d575b5050613ec15f8201613c59565b613ecd60208301613c59565b92613f0a613f04613efe613ef8613ef26060613eeb60408a01613c59565b9801613c59565b95613c66565b96613c66565b94613c66565b92613c66565b90565b6020613f2b613f26613f2160608601610ff5565b613caa565b613cb6565b638c00bf6b9390613f4e8695613f59613f426101d2565b97889586948594611078565b845260048401613d95565b03915afa9182156140c057613f9592613f8f915f91614092575b5091613f89613f8460408701613c59565b613c66565b92614e10565b90614e83565b613fbd613fa182614fd6565b613fb76040850191613fb283613c59565b613db9565b90613deb565b613fe4613fc982614fd6565b613fde5f850191613fd983613c59565b613db9565b90613deb565b613ff060a08301613c59565b614002613ffc5f613c82565b91613b7c565b0361400e575b80613eb4565b61407061406b61403561408c9361402f61402a60a08801613c59565b613c66565b90614e83565b6140518161404c6140475f8901613c59565b613c66565b6118d0565b61406561406060208801613c59565b613c66565b91615021565b614fd6565b614086602084019161408183613c59565b613db9565b90613deb565b5f614008565b6140b3915060203d81116140b9575b6140ab8183610f2e565b81019061175a565b5f613f73565b503d6140a1565b6110c7565b506140d260608301610ff5565b6140ec6140e66140e15f611021565b6101ef565b916101ef565b1415613eaf565b5061410060408401613c59565b61411261410c5f613c82565b91613b7c565b1415613ea9565b61413a915060c03d8111614140575b6141328183610f2e565b810190613c3b565b5f613e6e565b503d614128565b6110c7565b90565b61416361415e6141689261414c565b6102db565b61021e565b90565b614175600161414f565b90565b90565b61418f61418a61419492614178565b6102db565b61021e565b90565b6141a3620f424061417b565b90565b916141d86141c96141de946141b9610ecc565b50936141c361416b565b90613899565b916141d2614197565b90613899565b9161505d565b90565b90565b6141f86141f36141fd926141e1565b6102db565b61021e565b90565b61420a60026141e4565b90565b61421760036125ee565b61423061422a614225614200565b61021e565b9161021e565b1461424957614247614240614200565b6003612668565b565b5f633ee5aeb560e01b8152806142616004820161038d565b0390fd5b61426f600161414f565b90565b61428461427d614265565b6003612668565b565b949392906142a36142b49361429e6142a8935f61170a565b611720565b612bb4565b938591859091926151e1565b5050806142c96142c35f611b0e565b9161021e565b116142d4575b505050565b6142e092919091615522565b5f80806142cf565b6142f190610930565b90565b6142fe60a0610f57565b90565b52565b90916060828403126143395761433661431f845f85016110f0565b9361432d81602086016110f0565b936040016110f0565b90565b6101dc565b61435d61436660209361436b9361435481612315565b93848093611db6565b95869101612322565b610f10565b0190565b906143bd906060806143b26080840161438e5f8801515f870190611d38565b6143a060208801516020870190611d57565b6040870151858203604087015261433e565b940151910190611e22565b90565b61442191608060a08201926143db5f8201515f850190611d57565b6143ed60208201516020850190610a62565b6143ff60408201516040850190611d57565b61441160608201516060850190611d57565b015190608081840391015261436f565b90565b5190565b60200190565b6145169161016061018082019261444b5f8201515f850190610a62565b61445d60208201516020850190610a62565b61446f60408201516040850190610a62565b61448160608201516060850190611f66565b61449360808201516080850190611d57565b6144a560a082015160a0850190611d57565b6144b760c082015160c0850190611d57565b6144c960e082015160e0850190611d57565b6144dd610100820151610100850190610a62565b6144f1610120820151610120850190610a62565b614505610140820151610140850190610a62565b01519061016081840391015261433e565b90565b906145589060408061454d61453b606085015f8801518682035f88015261442e565b6020870151858203602087015261433e565b940151910190610a62565b90565b9061456591614519565b90565b60200190565b9061458261457b83614424565b8092611ee8565b908161459360208302840194614428565b925f915b8383106145a657505050505090565b909192939460206145c86145c28385600195038752895161455b565b97614568565b9301930191939290614597565b61463c91608061462b61461960a084016145f55f8701515f870190611d57565b61460760208701516020870190610a62565b6040860151858203604087015261456e565b6060850151848203606086015261456e565b92015190608081840391015261433e565b90565b9361467461468f969461466a6146819561466060a08a01965f8b0190610271565b6020890190610271565b6040870190610318565b84820360608601526143c0565b9160808184039101526145d5565b90565b92939690969491946146a2610ecc565b50837f00000000000000000000000000000000000000000000000000000000000000006146ce90610c42565b87906146d99261571e565b7f000000000000000000000000000000000000000000000000000000000000000061470390610c42565b9663594a88cc9530614714906142e8565b9560029061472191612f41565b61472a90610dcf565b979994929091926147396142f4565b955f87019061474791612b18565b602086019061475591612a2b565b604085019061476391612b18565b606084019061477191612b18565b608083019061477f91614301565b906147886101d2565b9687956147958796611078565b865260048601946147a59561463f565b03815a6060945f91f19081156147ee575f916147c0575b5090565b6147e1915060603d81116147e7575b6147d98183610f2e565b810190614304565b506147bc565b503d6147cf565b6110c7565b9161480061480893613aa0565b9190916157f0565b565b918061481e6148185f611b0e565b9161021e565b146148395761482f61483793613aa0565b9190916158ac565b565b505050565b61484860a0610f57565b90565b906080806148a3936148635f8201515f860190610a62565b61487560208201516020860190610a62565b61488760408201516040860190610a62565b61489960608201516060860190610a62565b0151910190610a62565b565b61490691608060a08201926148c05f8201515f850190611d57565b6148d260208201516020850190610a62565b6148e460408201516040850190611d57565b6148f660608201516060850190611d57565b015190608081840391015261436f565b90565b94909161496c969461494561495d9561493b61494f946149316101408c01985f8d0190610271565b60208b0190610271565b6040890190610318565b606087019061484b565b8482036101008601526148a5565b916101208184039101526145d5565b90565b929790939461497c610ecc565b50837f00000000000000000000000000000000000000000000000000000000000000006149a890610c42565b84906149b3926147f3565b7f00000000000000000000000000000000000000000000000000000000000000006149dd90610c42565b9763c81f847a96306149ee906142e8565b966002906149fb91612f41565b614a0490610dcf565b989a959492909192614a1461483e565b955f870190614a2291612b18565b6020860190614a3091612a2b565b6040850190614a3e91612b18565b6060840190614a4c91612b18565b6080830190614a5a91614301565b91614a636101d2565b978896614a708897611078565b87526004870195614a8096614909565b03815a6060945f91f1908115614ac9575f91614a9b575b5090565b614abc915060603d8111614ac2575b614ab48183610f2e565b810190614304565b50614a97565b503d614aaa565b6110c7565b916020614aef929493614ae860408201965f830190610318565b0190610318565b565b15614afa575050565b614b145f928392630bcef0b960e21b845260048401614ace565b0390fd5b92614b5992614b46614b41614b38614b5494614b879996908590916117af565b94926001611576565b6115a6565b614b4e611261565b91613018565b613a4e565b80614b7d614b77614b7285614b6c6102fa565b90613899565b61021e565b9161021e565b1115919091614af1565b565b90614bb5614bb0614bc89694614bab614bc094614ba4610ecc565b505f61170a565b611720565b612bb4565b93829085909161593d565b919091615a76565b90565b614bd490610930565b90565b614bdf610db2565b50614be930614bcb565b31614bfc614bf68461021e565b9161021e565b10614c80576037916e5af43d82803e903d91602b57fd5bf382763d602d80600a3d3981f3363d3d373d3d3d363d7300000060099460601b60e81c175f5260781b17602052f09081614c5d614c57614c525f611021565b6101ef565b916101ef565b14614c6457565b5f63b06ebf3d60e01b815280614c7c6004820161038d565b0390fd5b50614c8a30614bcb565b31614ca55f92839263cf47918160e01b845260048401614ace565b0390fd5b614cb290610930565b90565b63ffffffff1690565b63ffffffff60e01b1690565b614cde614cd9614ce392614cb5565b611078565b614cbe565b90565b604090614d0f614d169496959396614d0560608401985f850190610271565b6020830190610271565b0190610318565b565b600492614d52614d669593614d619394614d396323b872dd92949192614cca565b93614d426101d2565b9788956020870190815201614ce6565b60208201810382520383610f2e565b615b92565b565b614d726004610dcf565b614d7d826004611976565b90614db1614dab7f8be0079c531659141344cd1fd0a4f28419497f9722a3daafe3b4186f6b6457e09361093c565b9161093c565b91614dba6101d2565b80614dc48161038d565b0390a3565b5f90565b60a090614dd8614dc9565b502090565b614dee670de0b6b3a76400006118a0565b90565b90565b614e08614e03614e0d92614df1565b6102db565b61021e565b90565b614e8091614e2691614e20610ecc565b50612fad565b614e7b614e4f8283614e496002614e44614e3e614ddd565b916141e4565b612fad565b91615c46565b614e758184614e6f6003614e6a614e64614ddd565b91614df4565b612fad565b91615c46565b92613899565b613899565b90565b90614ea091614e90610ecc565b5090614e9a614ddd565b91615c46565b90565b5f90565b67ffffffffffffffff8111614ec557614ec1602091610f10565b0190565b610f1a565b90614edc614ed783614ea7565b610f57565b918252565b5f7f6d61782075696e74313238206578636565646564000000000000000000000000910152565b614f126014614eca565b90614f1f60208301614ee1565b565b614f29614f08565b90565b614f34614f21565b90565b5190565b60209181520190565b614f63614f6c602093614f7193614f5a81614f37565b93848093614f3b565b95869101612322565b610f10565b0190565b614f8a9160208201915f818403910152614f44565b90565b15614f955750565b614fb690614fa16101d2565b91829162461bcd60e51b835260048301614f75565b0390fd5b614fce614fc9614fd39261021e565b6102db565b613b7c565b90565b61501e90614fe2614ea3565b50615019816150096150036fffffffffffffffffffffffffffffffff613c66565b9161021e565b1115615013614f2c565b90614f8d565b614fba565b90565b9061505461504561505a9493615035610ecc565b509361503f614197565b90613899565b9161504e61416b565b90613899565b91615c46565b90565b615077615096939261509192615071610ecc565b50612fad565b61508b83615085600161414f565b906118d0565b90613899565b612ff6565b90565b91906150ac905f60a08501940190613cc2565b565b60200190565b9190606083820312615100576150f9906150ce6060610f57565b936150db825f83016110f0565b5f8601526150ec8260208301613ba5565b6020860152604001613ba5565b6040830152565b610f0c565b9060608282031261511e5761511b915f016150b4565b90565b6101dc565b91602061514492949361513d60408201965f830190611192565b0190610271565b565b919060408382031261516e578061516261516b925f86016110f0565b936020016110f0565b90565b6101dc565b61517c90611b0e565b9052565b61518b5f8092612319565b0190565b91936151c66151d092946151bc6151de976151b26101208801985f890190613cc2565b60a0870190615173565b60c0850190610318565b60e0830190610271565b610100818303910152615180565b90565b9291615235906151ef610ecc565b506151f8610ecc565b506152045f8401610ff5565b9061522e7f0000000000000000000000000000000000000000000000000000000000000000610b05565b90916147f3565b61525e7f0000000000000000000000000000000000000000000000000000000000000000610b05565b9160606393c52062936152ac615285615294866152796101d2565b92839160208301615099565b60208201810382520382610f2e565b6152a66152a082612315565b916150ae565b206110e4565b906152c987966152d46152bd6101d2565b98899586948594611078565b845260048401615123565b03915afa9283156153fa576152f960206040956152fe935f916153cc575b5001613c59565b613c66565b908161531261530c8361021e565b9161021e565b105f146153c557505b929061536b5f61534a7f0000000000000000000000000000000000000000000000000000000000000000610b05565b926153766320b76e819195839861535f6101d2565b998a9889978896611078565b86526004860161518f565b03925af19081156153c0575f80919092615390575b509091565b90506153b3915060403d81116153b9575b6153ab8183610f2e565b810190615146565b5f61538b565b503d6153a1565b6110c7565b905061531b565b6153ed915060603d81116153f3575b6153e58183610f2e565b810190615105565b5f6152f2565b503d6153db565b6110c7565b61540890610930565b90565b61541490610914565b90565b6154209061540b565b90565b61542c90610930565b90565b61546561546c9461545b60e09498979561545161010086019a5f870190613cc2565b60a0850190610318565b60c0830190610271565b0190610271565b565b9092919261548361547e826130ea565b610f57565b9381855260208501908284011161549f5761549d92612322565b565b6130e6565b9080601f830112156154c2578160206154bf9351910161546e565b90565b6103c5565b906020828203126154f7575f82015167ffffffffffffffff81116154f2576154ef92016154a4565b90565b6101e0565b6101dc565b9161551f9261551260408201935f830190610271565b602081840391015261232d565b90565b91905f916155c583856155ae61554861554361553d306153ff565b93615417565b615423565b9461559f631cff79cd9361557b7f0000000000000000000000000000000000000000000000000000000000000000610b05565b98929a6155866101d2565b9b8c94600460208701638720316d60e01b81520161542f565b60208201810382520388610f2e565b6155d06155b96101d2565b97889687958694611078565b8452600484016154fc565b03925af18015615602576155e2575b50565b6155fd903d805f833e6155f58183610f2e565b8101906154c7565b6155df565b6110c7565b91602061562892949361562160408201965f830190610271565b0190610318565b565b9061563c615637836130ea565b610f57565b918252565b606090565b3d5f14615661576156563d61562a565b903d5f602084013e5b565b615669615641565b9061565f565b9050519061567c82611ded565b565b9060208282031261569757615694915f0161566f565b90565b6101dc565b5f7f5361666520417070726f76650000000000000000000000000000000000000000910152565b6156d0600c602092614f3b565b6156d98161569c565b0190565b6156f29060208101905f8183039101526156c3565b90565b156156fc57565b6157046101d2565b62461bcd60e51b81528061571a600482016156dd565b0390fd5b61577d92600461575f5f9461575086959463095ea7b360e01b926157406101d2565b9586946020860190815201615607565b60208201810382520382610f2e565b82602082019151925af1615771615646565b8161577f575b506156f5565b565b905061578a81612315565b61579c6157965f611b0e565b9161021e565b149081156157ac575b505f615777565b6157c7915060206157bc82612315565b81830101910161567e565b5f6157a5565b9160206157ee9294936157e760408201965f830190610271565b0190615173565b565b909161583360049161582463095ea7b361580b879391614cca565b926158146101d2565b9586946020860190815201615607565b60208201810382520382610f2e565b90615848615842828490615c65565b15610bc1565b615852575b505050565b61589f60046158a49461589a849161588b63095ea7b36158725f91614cca565b9261587b6101d2565b96879460208601908152016157cd565b60208201810382520383610f2e565b615b92565b615b92565b5f808061584d565b906158f36158f8936158e4600494936158cb63a9059cbb919391614cca565b926158d46101d2565b9687946020860190815201615607565b60208201810382520383610f2e565b615b92565b565b909161593a9361592361592d926159196101008601965f870190613cc2565b60a0850190610318565b60c0830190610271565b60e0818303910152615180565b90565b9161597d61594d60208401610ff5565b6159767f0000000000000000000000000000000000000000000000000000000000000000610b05565b839161571e565b6159a67f0000000000000000000000000000000000000000000000000000000000000000610b05565b63238d657992919392813b15615a22575f6159d4916159df82966159c86101d2565b98899788968795611078565b8552600485016158fa565b03925af18015615a1d576159f1575b50565b615a10905f3d8111615a16575b615a088183610f2e565b810190612306565b5f6159ee565b503d6159fe565b6110c7565b611074565b90959492615a7494615a63615a6d92615a5961010096615a4f61012088019c5f890190613cc2565b60a0870190610318565b60c0850190610318565b60e0830190610271565b0190610271565b565b91905f91615a82610ecc565b50615b2f83615a8f610ecc565b95615b188194615b09615ab2615aad615aa7306153ff565b95615417565b615423565b96631cff79cd94615ae27f0000000000000000000000000000000000000000000000000000000000000000610b05565b99939b919091615af06101d2565b9c8d956004602088016350d8cd4b60e01b815201615a27565b60208201810382520388610f2e565b615b3a615b236101d2565b97889687958694611078565b8452600484016154fc565b03925af18015615b8d57615b66915f91615b6b575b506020615b5b82612315565b818301019101615146565b905090565b615b8791503d805f833e615b7f8183610f2e565b8101906154c7565b5f615b4f565b6110c7565b905f602091615b9f610ecc565b50615ba8610ecc565b50828151910182855af115615c3b573d5f5190615bcd615bc75f611b0e565b9161021e565b145f14615c215750615bde81614ca9565b3b615bf1615beb5f611b0e565b9161021e565b145b615bfa5750565b615c06615c1d91614ca9565b5f918291635274afe760e01b83526004830161027e565b0390fd5b615c34615c2e600161414f565b9161021e565b1415615bf3565b6040513d5f823e3d90fd5b615c629291615c5d91615c57610ecc565b50612fad565b612ff6565b90565b905f602091615c72612ab8565b50615c7b612ab8565b50615c84610ecc565b50615c8d610ecc565b50828151910182855af13d915f51919283615ca9575b50505090565b90919250615cbf615cb95f611b0e565b9161021e565b145f14615ced57615cd09150614ca9565b3b615ce3615cdd5f611b0e565b9161021e565b115b5f8080615ca3565b50615d01615cfb600161414f565b9161021e565b14615ce556fea2646970667358221220ef0ce7dc8fceefe142704271e3efa11d7dcf3625140256cfe4f25e48faafa6c564736f6c634300081e003360a06040523461003f57610019610014610104565b610125565b610021610044565b61051b61012b82396080518181816101d101526102f1015261051b90f35b61004a565b60405190565b5f80fd5b601f801991011690565b634e487b7160e01b5f52604160045260245ffd5b906100769061004e565b810190811060018060401b0382111761008e57604052565b610058565b906100a661009f610044565b928361006c565b565b5f80fd5b60018060a01b031690565b6100c0906100ac565b90565b6100cc816100b7565b036100d357565b5f80fd5b905051906100e4826100c3565b565b906020828203126100ff576100fc915f016100d7565b90565b6100a8565b6101226106468038038061011781610093565b9283398101906100e6565b90565b60805256fe60806040526004361015610013575b61024a565b61001d5f3561003c565b80631cff79cd146100375763dd72047f0361000e57610215565b61018a565b60e01c90565b60405190565b5f80fd5b5f80fd5b5f80fd5b60018060a01b031690565b61006890610054565b90565b6100748161005f565b0361007b57565b5f80fd5b9050359061008c8261006b565b565b5f80fd5b5f80fd5b5f80fd5b909182601f830112156100d45781359167ffffffffffffffff83116100cf5760200192600183028401116100ca57565b610096565b610092565b61008e565b91909160408184031261011a576100f2835f830161007f565b92602082013567ffffffffffffffff811161011557610111920161009a565b9091565b610050565b61004c565b5190565b60209181520190565b90825f9392825e0152565b601f801991011690565b61016061016960209361016e936101578161011f565b93848093610123565b9586910161012c565b610137565b0190565b6101879160208201915f818403910152610141565b90565b346101bb576101b76101a66101a03660046100d9565b916104cf565b6101ae610042565b91829182610172565b0390f35b610048565b5f9103126101ca57565b61004c565b7f000000000000000000000000000000000000000000000000000000000000000090565b6101fc9061005f565b9052565b9190610213905f602085019401906101f3565b565b34610245576102253660046101c0565b6102416102306101cf565b610238610042565b91829182610200565b0390f35b610048565b5f80fd5b606090565b60209181520190565b5f7f5573657250726f78793a206f6e6c79206c6576657261676520636f7265000000910152565b610290601d602092610253565b6102998161025c565b0190565b6102b29060208101905f818303910152610283565b90565b156102bc57565b6102c4610042565b62461bcd60e51b8152806102da6004820161029d565b0390fd5b906103269392916103213361031b6103157f000000000000000000000000000000000000000000000000000000000000000061005f565b9161005f565b146102b5565b610499565b90565b905090565b90825f939282370152565b9091826103498161035093610329565b809361032e565b0190565b909161035f92610339565b90565b634e487b7160e01b5f52604160045260245ffd5b9061038090610137565b810190811067ffffffffffffffff82111761039a57604052565b610362565b906103b26103ab610042565b9283610376565b565b67ffffffffffffffff81116103d2576103ce602091610137565b0190565b610362565b906103e96103e4836103b4565b61039f565b918252565b3d5f14610409576103fe3d6103d7565b903d5f602084013e5b565b61041161024e565b90610407565b5f7f5573657250726f78793a2063616c6c206661696c656400000000000000000000910152565b61044b6016602092610253565b61045481610417565b0190565b61046d9060208101905f81830391015261043e565b90565b1561047757565b61047f610042565b62461bcd60e51b81528061049560048201610458565b0390fd5b925f80949281949350926104b76104ae610042565b93849283610354565b03925af16104cc6104c66103ee565b91610470565b90565b906104e292916104dd61024e565b6102de565b9056fea26469706673582212202a4b6b95e9beb7c98cff7e4d8098098d9e7303a0022473e6832680236226dc8b64736f6c634300081e0033","linkReferences":{}},"methodIdentifiers":{"LIQUIDATION_BUFFER()":"83da2a3c","SLIPPAGE_BUFFER()":"24b31145","acceptOwnership()":"79ba5097","addManager(address)":"2d06177a","addSupportedCollateralTokens((address,bytes32,address)[])":"2ec23d66","calcLeverageFlashLoan(uint256,address,address,uint256)":"5adb101c","calcUnleverageFlashLoan(address,address,uint256)":"313b120e","getCollateralValueInLoanToken(address,address,uint256)":"3ba7a314","getLiqLtv(address,address)":"e43478ef","getMaxLtv(address,address)":"62fd6add","getOrCreateUserProxy(address,uint256)":"5d1593e7","getSharesValueInLoanToken(address,address,uint256)":"e30e40cb","getUserCoreLeveragePosition(address,uint256,address,address)":"94ea07bb","getUserProxy(address,uint256)":"14ee89c4","i_morpho()":"96d066f5","i_pendleRouter()":"dd2a7a17","i_userProxyImplementation()":"d5c96c17","isManager(address)":"f3ae2415","isSupportedCollateralToken(address,address)":"dc101605","leverage(address,(uint256,address,address,uint256,(uint256,uint256,uint256,uint256,uint256),address,address,uint256,(uint8,address,bytes,bool),(address,uint256,((uint256,uint256,uint256,uint8,address,address,address,address,uint256,uint256,uint256,bytes),bytes,uint256)[],((uint256,uint256,uint256,uint8,address,address,address,address,uint256,uint256,uint256,bytes),bytes,uint256)[],bytes)))":"70f5585f","onMorphoFlashLoan(uint256,bytes)":"31f57072","owner()":"8da5cb5b","pendingOwner()":"e30c3978","renounceOwnership()":"715018a6","s_userProxies(address,uint256)":"94d49ab7","transferOwnership(address)":"f2fde38b","unleverage(address,(uint256,address,address,uint256,uint256,address,address,uint256,(uint8,address,bytes,bool),(address,uint256,((uint256,uint256,uint256,uint8,address,address,address,address,uint256,uint256,uint256,bytes),bytes,uint256)[],((uint256,uint256,uint256,uint8,address,address,address,address,uint256,uint256,uint256,bytes),bytes,uint256)[],bytes)))":"7130fa49"},"id":76}