{"abi":[{"type":"constructor","inputs":[{"name":"morphoAddress","type":"address","internalType":"address"},{"name":"pendleRouter","type":"address","internalType":"address"}],"stateMutability":"nonpayable"},{"type":"function","name":"LIQUIDATION_BUFFER","inputs":[],"outputs":[{"name":"","type":"uint256","internalType":"uint256"}],"stateMutability":"view"},{"type":"function","name":"SLIPPAGE_BUFFER","inputs":[],"outputs":[{"name":"","type":"uint256","internalType":"uint256"}],"stateMutability":"view"},{"type":"function","name":"acceptOwnership","inputs":[],"outputs":[],"stateMutability":"nonpayable"},{"type":"function","name":"addManager","inputs":[{"name":"manager","type":"address","internalType":"address"}],"outputs":[],"stateMutability":"nonpayable"},{"type":"function","name":"addSupportedCollateralTokens","inputs":[{"name":"tokenConfigs","type":"tuple[]","internalType":"struct CollateralTokenConfig[]","components":[{"name":"collateralToken","type":"address","internalType":"address"},{"name":"morphoMarketId","type":"bytes32","internalType":"bytes32"},{"name":"pendleMarket","type":"address","internalType":"address"}]}],"outputs":[],"stateMutability":"nonpayable"},{"type":"function","name":"calcLeverageFlashLoan","inputs":[{"name":"desiredLtv","type":"uint256","internalType":"uint256"},{"name":"collateralToken","type":"address","internalType":"address"},{"name":"loanToken","type":"address","internalType":"address"},{"name":"amountCollateral","type":"uint256","internalType":"uint256"}],"outputs":[{"name":"","type":"uint256","internalType":"uint256"}],"stateMutability":"view"},{"type":"function","name":"calcUnleverageFlashLoan","inputs":[{"name":"collateralToken","type":"address","internalType":"address"},{"name":"loanToken","type":"address","internalType":"address"},{"name":"sharesToBurn","type":"uint256","internalType":"uint256"}],"outputs":[{"name":"","type":"uint256","internalType":"uint256"}],"stateMutability":"view"},{"type":"function","name":"getCollateralValueInLoanToken","inputs":[{"name":"collateralToken","type":"address","internalType":"address"},{"name":"loanToken","type":"address","internalType":"address"},{"name":"amountCollateral","type":"uint256","internalType":"uint256"}],"outputs":[{"name":"","type":"uint256","internalType":"uint256"}],"stateMutability":"view"},{"type":"function","name":"getLiqLtv","inputs":[{"name":"collateralToken","type":"address","internalType":"address"},{"name":"loanToken","type":"address","internalType":"address"}],"outputs":[{"name":"","type":"uint256","internalType":"uint256"}],"stateMutability":"view"},{"type":"function","name":"getMaxLtv","inputs":[{"name":"collateralToken","type":"address","internalType":"address"},{"name":"loanToken","type":"address","internalType":"address"}],"outputs":[{"name":"","type":"uint256","internalType":"uint256"}],"stateMutability":"view"},{"type":"function","name":"getOrCreateUserProxy","inputs":[{"name":"user","type":"address","internalType":"address"},{"name":"desiredLtv","type":"uint256","internalType":"uint256"}],"outputs":[{"name":"proxy","type":"address","internalType":"address"}],"stateMutability":"nonpayable"},{"type":"function","name":"getSharesValueInLoanToken","inputs":[{"name":"collateralToken","type":"address","internalType":"address"},{"name":"loanToken","type":"address","internalType":"address"},{"name":"sharesBorrowed","type":"uint256","internalType":"uint256"}],"outputs":[{"name":"","type":"uint256","internalType":"uint256"}],"stateMutability":"view"},{"type":"function","name":"getUserCoreLeveragePosition","inputs":[{"name":"user","type":"address","internalType":"address"},{"name":"desiredLtv","type":"uint256","internalType":"uint256"},{"name":"collateralToken","type":"address","internalType":"address"},{"name":"loanToken","type":"address","internalType":"address"}],"outputs":[{"name":"","type":"tuple","internalType":"struct CoreLeveragePosition","components":[{"name":"amountCollateral","type":"uint256","internalType":"uint256"},{"name":"sharesBorrowed","type":"uint256","internalType":"uint256"}]}],"stateMutability":"view"},{"type":"function","name":"getUserProxy","inputs":[{"name":"user","type":"address","internalType":"address"},{"name":"desiredLtv","type":"uint256","internalType":"uint256"}],"outputs":[{"name":"","type":"address","internalType":"address"}],"stateMutability":"view"},{"type":"function","name":"i_morpho","inputs":[],"outputs":[{"name":"","type":"address","internalType":"contract IMorpho"}],"stateMutability":"view"},{"type":"function","name":"i_pendleRouter","inputs":[],"outputs":[{"name":"","type":"address","internalType":"contract IPAllActionV3"}],"stateMutability":"view"},{"type":"function","name":"i_userProxyImplementation","inputs":[],"outputs":[{"name":"","type":"address","internalType":"address"}],"stateMutability":"view"},{"type":"function","name":"isManager","inputs":[{"name":"manager","type":"address","internalType":"address"}],"outputs":[{"name":"","type":"bool","internalType":"bool"}],"stateMutability":"view"},{"type":"function","name":"isSupportedCollateralToken","inputs":[{"name":"collateralToken","type":"address","internalType":"address"},{"name":"loanToken","type":"address","internalType":"address"}],"outputs":[{"name":"","type":"bool","internalType":"bool"}],"stateMutability":"view"},{"type":"function","name":"leverage","inputs":[{"name":"onBehalfOf","type":"address","internalType":"address"},{"name":"params","type":"tuple","internalType":"struct LeverageParams","components":[{"name":"desiredLtv","type":"uint256","internalType":"uint256"},{"name":"collateralToken","type":"address","internalType":"address"},{"name":"loanToken","type":"address","internalType":"address"},{"name":"amountCollateral","type":"uint256","internalType":"uint256"},{"name":"approxParams","type":"tuple","internalType":"struct ApproxParams","components":[{"name":"guessMin","type":"uint256","internalType":"uint256"},{"name":"guessMax","type":"uint256","internalType":"uint256"},{"name":"guessOffchain","type":"uint256","internalType":"uint256"},{"name":"maxIteration","type":"uint256","internalType":"uint256"},{"name":"eps","type":"uint256","internalType":"uint256"}]},{"name":"pendleSwap","type":"address","internalType":"address"},{"name":"tokenMintSy","type":"address","internalType":"address"},{"name":"minPtOut","type":"uint256","internalType":"uint256"},{"name":"swapData","type":"tuple","internalType":"struct SwapData","components":[{"name":"swapType","type":"uint8","internalType":"enum SwapType"},{"name":"extRouter","type":"address","internalType":"address"},{"name":"extCalldata","type":"bytes","internalType":"bytes"},{"name":"needScale","type":"bool","internalType":"bool"}]},{"name":"limitOrderData","type":"tuple","internalType":"struct LimitOrderData","components":[{"name":"limitRouter","type":"address","internalType":"address"},{"name":"epsSkipMarket","type":"uint256","internalType":"uint256"},{"name":"normalFills","type":"tuple[]","internalType":"struct FillOrderParams[]","components":[{"name":"order","type":"tuple","internalType":"struct Order","components":[{"name":"salt","type":"uint256","internalType":"uint256"},{"name":"expiry","type":"uint256","internalType":"uint256"},{"name":"nonce","type":"uint256","internalType":"uint256"},{"name":"orderType","type":"uint8","internalType":"enum IPLimitOrderType.OrderType"},{"name":"token","type":"address","internalType":"address"},{"name":"YT","type":"address","internalType":"address"},{"name":"maker","type":"address","internalType":"address"},{"name":"receiver","type":"address","internalType":"address"},{"name":"makingAmount","type":"uint256","internalType":"uint256"},{"name":"lnImpliedRate","type":"uint256","internalType":"uint256"},{"name":"failSafeRate","type":"uint256","internalType":"uint256"},{"name":"permit","type":"bytes","internalType":"bytes"}]},{"name":"signature","type":"bytes","internalType":"bytes"},{"name":"makingAmount","type":"uint256","internalType":"uint256"}]},{"name":"flashFills","type":"tuple[]","internalType":"struct FillOrderParams[]","components":[{"name":"order","type":"tuple","internalType":"struct Order","components":[{"name":"salt","type":"uint256","internalType":"uint256"},{"name":"expiry","type":"uint256","internalType":"uint256"},{"name":"nonce","type":"uint256","internalType":"uint256"},{"name":"orderType","type":"uint8","internalType":"enum IPLimitOrderType.OrderType"},{"name":"token","type":"address","internalType":"address"},{"name":"YT","type":"address","internalType":"address"},{"name":"maker","type":"address","internalType":"address"},{"name":"receiver","type":"address","internalType":"address"},{"name":"makingAmount","type":"uint256","internalType":"uint256"},{"name":"lnImpliedRate","type":"uint256","internalType":"uint256"},{"name":"failSafeRate","type":"uint256","internalType":"uint256"},{"name":"permit","type":"bytes","internalType":"bytes"}]},{"name":"signature","type":"bytes","internalType":"bytes"},{"name":"makingAmount","type":"uint256","internalType":"uint256"}]},{"name":"optData","type":"bytes","internalType":"bytes"}]}]}],"outputs":[],"stateMutability":"nonpayable"},{"type":"function","name":"onMorphoFlashLoan","inputs":[{"name":"amountLoan","type":"uint256","internalType":"uint256"},{"name":"data","type":"bytes","internalType":"bytes"}],"outputs":[],"stateMutability":"nonpayable"},{"type":"function","name":"owner","inputs":[],"outputs":[{"name":"","type":"address","internalType":"address"}],"stateMutability":"view"},{"type":"function","name":"pendingOwner","inputs":[],"outputs":[{"name":"","type":"address","internalType":"address"}],"stateMutability":"view"},{"type":"function","name":"recoveryMode","inputs":[],"outputs":[{"name":"","type":"bool","internalType":"bool"}],"stateMutability":"view"},{"type":"function","name":"renounceOwnership","inputs":[],"outputs":[],"stateMutability":"nonpayable"},{"type":"function","name":"s_userProxies","inputs":[{"name":"user","type":"address","internalType":"address"},{"name":"desiredLtv","type":"uint256","internalType":"uint256"}],"outputs":[{"name":"proxyContract","type":"address","internalType":"address"}],"stateMutability":"view"},{"type":"function","name":"setRecoveryMode","inputs":[{"name":"_enabled","type":"bool","internalType":"bool"}],"outputs":[],"stateMutability":"nonpayable"},{"type":"function","name":"transferOwnership","inputs":[{"name":"newOwner","type":"address","internalType":"address"}],"outputs":[],"stateMutability":"nonpayable"},{"type":"function","name":"unleverage","inputs":[{"name":"onBehalfOf","type":"address","internalType":"address"},{"name":"params","type":"tuple","internalType":"struct UnleverageParams","components":[{"name":"desiredLtv","type":"uint256","internalType":"uint256"},{"name":"collateralToken","type":"address","internalType":"address"},{"name":"loanToken","type":"address","internalType":"address"},{"name":"sharesToBurn","type":"uint256","internalType":"uint256"},{"name":"amountCollateralToWithdraw","type":"uint256","internalType":"uint256"},{"name":"pendleSwap","type":"address","internalType":"address"},{"name":"tokenRedeemSy","type":"address","internalType":"address"},{"name":"minTokenOut","type":"uint256","internalType":"uint256"},{"name":"swapData","type":"tuple","internalType":"struct SwapData","components":[{"name":"swapType","type":"uint8","internalType":"enum SwapType"},{"name":"extRouter","type":"address","internalType":"address"},{"name":"extCalldata","type":"bytes","internalType":"bytes"},{"name":"needScale","type":"bool","internalType":"bool"}]},{"name":"limitOrderData","type":"tuple","internalType":"struct LimitOrderData","components":[{"name":"limitRouter","type":"address","internalType":"address"},{"name":"epsSkipMarket","type":"uint256","internalType":"uint256"},{"name":"normalFills","type":"tuple[]","internalType":"struct FillOrderParams[]","components":[{"name":"order","type":"tuple","internalType":"struct Order","components":[{"name":"salt","type":"uint256","internalType":"uint256"},{"name":"expiry","type":"uint256","internalType":"uint256"},{"name":"nonce","type":"uint256","internalType":"uint256"},{"name":"orderType","type":"uint8","internalType":"enum IPLimitOrderType.OrderType"},{"name":"token","type":"address","internalType":"address"},{"name":"YT","type":"address","internalType":"address"},{"name":"maker","type":"address","internalType":"address"},{"name":"receiver","type":"address","internalType":"address"},{"name":"makingAmount","type":"uint256","internalType":"uint256"},{"name":"lnImpliedRate","type":"uint256","internalType":"uint256"},{"name":"failSafeRate","type":"uint256","internalType":"uint256"},{"name":"permit","type":"bytes","internalType":"bytes"}]},{"name":"signature","type":"bytes","internalType":"bytes"},{"name":"makingAmount","type":"uint256","internalType":"uint256"}]},{"name":"flashFills","type":"tuple[]","internalType":"struct FillOrderParams[]","components":[{"name":"order","type":"tuple","internalType":"struct Order","components":[{"name":"salt","type":"uint256","internalType":"uint256"},{"name":"expiry","type":"uint256","internalType":"uint256"},{"name":"nonce","type":"uint256","internalType":"uint256"},{"name":"orderType","type":"uint8","internalType":"enum IPLimitOrderType.OrderType"},{"name":"token","type":"address","internalType":"address"},{"name":"YT","type":"address","internalType":"address"},{"name":"maker","type":"address","internalType":"address"},{"name":"receiver","type":"address","internalType":"address"},{"name":"makingAmount","type":"uint256","internalType":"uint256"},{"name":"lnImpliedRate","type":"uint256","internalType":"uint256"},{"name":"failSafeRate","type":"uint256","internalType":"uint256"},{"name":"permit","type":"bytes","internalType":"bytes"}]},{"name":"signature","type":"bytes","internalType":"bytes"},{"name":"makingAmount","type":"uint256","internalType":"uint256"}]},{"name":"optData","type":"bytes","internalType":"bytes"}]}]}],"outputs":[],"stateMutability":"nonpayable"},{"type":"event","name":"OwnershipTransferStarted","inputs":[{"name":"previousOwner","type":"address","indexed":true,"internalType":"address"},{"name":"newOwner","type":"address","indexed":true,"internalType":"address"}],"anonymous":false},{"type":"event","name":"OwnershipTransferred","inputs":[{"name":"previousOwner","type":"address","indexed":true,"internalType":"address"},{"name":"newOwner","type":"address","indexed":true,"internalType":"address"}],"anonymous":false},{"type":"error","name":"FailedDeployment","inputs":[]},{"type":"error","name":"FlashLeverageCore__AmountCollateralCannotBeZero","inputs":[]},{"type":"error","name":"FlashLeverageCore__CannotBeZeroAddress","inputs":[]},{"type":"error","name":"FlashLeverageCore__EffectiveLtvTooHigh","inputs":[{"name":"desiredLtv","type":"uint256","internalType":"uint256"},{"name":"effectiveLtv","type":"uint256","internalType":"uint256"}]},{"type":"error","name":"FlashLeverageCore__ExceedsMaxLTV","inputs":[]},{"type":"error","name":"FlashLeverageCore__InsufficientCollateralToWithdraw","inputs":[]},{"type":"error","name":"FlashLeverageCore__InsufficientSharesToBurn","inputs":[]},{"type":"error","name":"FlashLeverageCore__InvalidCollateralToken","inputs":[]},{"type":"error","name":"FlashLeverageCore__InvalidCollateralTokenDecimals","inputs":[]},{"type":"error","name":"FlashLeverageCore__NotAManager","inputs":[]},{"type":"error","name":"FlashLeverageCore__SharesToBurnCannotBeZero","inputs":[]},{"type":"error","name":"FlashLeverageCore__UnsupportedCollateralToken","inputs":[]},{"type":"error","name":"FlashLeverageCore__UntrustedLender","inputs":[]},{"type":"error","name":"InsufficientBalance","inputs":[{"name":"balance","type":"uint256","internalType":"uint256"},{"name":"needed","type":"uint256","internalType":"uint256"}]},{"type":"error","name":"OwnableInvalidOwner","inputs":[{"name":"owner","type":"address","internalType":"address"}]},{"type":"error","name":"OwnableUnauthorizedAccount","inputs":[{"name":"account","type":"address","internalType":"address"}]},{"type":"error","name":"ReentrancyGuardReentrantCall","inputs":[]},{"type":"error","name":"SafeERC20FailedOperation","inputs":[{"name":"token","type":"address","internalType":"address"}]}],"bytecode":{"object":"0x60e0346101e057601f61549938819003918201601f19168301916001600160401b038311848410176101a15780849260409485528339810103126101e057610052602061004b836101e4565b92016101e4565b6001600160a01b039182166080819052911660a081905260016003559033156101cd57600580546001600160a01b0319908116909155600480549182163390811790915560405193916001600160a01b03167f8be0079c531659141344cd1fd0a4f28419497f9722a3daafe3b4186f6b6457e05f80a381159081156101c4575b506101b55761071d8281016001600160401b038111848210176101a1576040928492614d7c843930825260208201520301905ff08015610196576001600160a01b031660c052604051614b8390816101f9823960805181818161056001528181610c11015281816111fa015281816116c9015281816117060152818161183001528181611a3801528181611c240152818161302d0152613b30015260a0518181816103d3015281816113a60152613d3e015260c0518181816104f101526128250152f35b6040513d5f823e3d90fd5b634e487b7160e01b5f52604160045260245ffd5b630959660360e11b5f5260045ffd5b9050155f6100d2565b631e4fbdf760e01b5f525f60045260245ffd5b5f80fd5b51906001600160a01b03821682036101e05756fe6080806040526004361015610012575f80fd5b5f905f3560e01c90816307a00b1f146123905750806314ee89c41461230b57806324b31145146122cc5780632d06177a146122285780632ec23d6614611ba9578063313b120e14611b9057806331f57072146111675780633ba7a3141461114d5780635adb101c146110fc5780635d1593e71461109857806362fd6add1461105357806370f5585f14610d5f5780637130fa4914610940578063715018a61461090e57806379ba50971461080457806383da2a3c146107c45780638da5cb5b1461077257806392905bf7146106fd57806394d49ab71461068e57806394ea07bb1461058457806396d066f514610515578063d5c96c17146104a6578063dc101605146103f7578063dd2a7a1714610388578063e30c397814610336578063e30e40cb1461031c578063e43478ef14610287578063f2fde38b146101c75763f3ae24151461015d575f80fd5b346101c45760207ffffffffffffffffffffffffffffffffffffffffffffffffffffffffffffffffc3601126101c45760ff604060209273ffffffffffffffffffffffffffffffffffffffff6101b06123cd565b168152600684522054166040519015158152f35b80fd5b50346101c45760207ffffffffffffffffffffffffffffffffffffffffffffffffffffffffffffffffc3601126101c45773ffffffffffffffffffffffffffffffffffffffff6102146123cd565b61021c6134aa565b16807fffffffffffffffffffffffff0000000000000000000000000000000000000000600554161760055573ffffffffffffffffffffffffffffffffffffffff600454167f38d16b8cac22d99fc7c124b9cd0de2d3fa1faef420bfe791d8c362d765e227008380a380f35b50346101c45760407ffffffffffffffffffffffffffffffffffffffffffffffffffffffffffffffffc3601126101c45760206103146102c46123cd565b6102cc6123f0565b9073ffffffffffffffffffffffffffffffffffffffff165f525f60205273ffffffffffffffffffffffffffffffffffffffff60405f2091165f52602052600460405f20015490565b604051908152f35b50346101c457602061031461033036612457565b91612f0c565b50346101c457807ffffffffffffffffffffffffffffffffffffffffffffffffffffffffffffffffc3601126101c457602073ffffffffffffffffffffffffffffffffffffffff60055416604051908152f35b50346101c457807ffffffffffffffffffffffffffffffffffffffffffffffffffffffffffffffffc3601126101c457602060405173ffffffffffffffffffffffffffffffffffffffff7f0000000000000000000000000000000000000000000000000000000000000000168152f35b50346101c45760407ffffffffffffffffffffffffffffffffffffffffffffffffffffffffffffffffc3601126101c457602061049c6104346123cd565b61043c6123f0565b9073ffffffffffffffffffffffffffffffffffffffff165f525f60205273ffffffffffffffffffffffffffffffffffffffff60405f2091165f5260205273ffffffffffffffffffffffffffffffffffffffff600160405f20015416151590565b6040519015158152f35b50346101c457807ffffffffffffffffffffffffffffffffffffffffffffffffffffffffffffffffc3601126101c457602060405173ffffffffffffffffffffffffffffffffffffffff7f0000000000000000000000000000000000000000000000000000000000000000168152f35b50346101c457807ffffffffffffffffffffffffffffffffffffffffffffffffffffffffffffffffc3601126101c457602060405173ffffffffffffffffffffffffffffffffffffffff7f0000000000000000000000000000000000000000000000000000000000000000168152f35b50346101c45760807ffffffffffffffffffffffffffffffffffffffffffffffffffffffffffffffffc3601126101c4576105bc6123cd565b906105c5612413565b906064359273ffffffffffffffffffffffffffffffffffffffff8416840361068a578173ffffffffffffffffffffffffffffffffffffffff60409281946020855161060f8161253b565b828152015216815260076020528181206024358252602052828282205416815260086020522091165f5260205273ffffffffffffffffffffffffffffffffffffffff60405f2091165f526020526040805f20815161066c8161253b565b60206001835493848452015491019081528251918252516020820152f35b5080fd5b50346101c45760407ffffffffffffffffffffffffffffffffffffffffffffffffffffffffffffffffc3601126101c45773ffffffffffffffffffffffffffffffffffffffff6040602092826106e16123cd565b1681526007845281812060243582528452205416604051908152f35b50346101c45760207ffffffffffffffffffffffffffffffffffffffffffffffffffffffffffffffffc3601126101c45760043580151580910361068a576107426134aa565b60ff7fffffffffffffffffffffffffffffffffffffffffffffffffffffffffffffff006009541691161760095580f35b50346101c457807ffffffffffffffffffffffffffffffffffffffffffffffffffffffffffffffffc3601126101c457602073ffffffffffffffffffffffffffffffffffffffff60045416604051908152f35b50346101c457807ffffffffffffffffffffffffffffffffffffffffffffffffffffffffffffffffc3601126101c45760206040516658d15e176280008152f35b50346101c457807ffffffffffffffffffffffffffffffffffffffffffffffffffffffffffffffffc3601126101c4576005543373ffffffffffffffffffffffffffffffffffffffff8216036108e2577fffffffffffffffffffffffff000000000000000000000000000000000000000016600555600454337fffffffffffffffffffffffff000000000000000000000000000000000000000082161760045573ffffffffffffffffffffffffffffffffffffffff3391167f8be0079c531659141344cd1fd0a4f28419497f9722a3daafe3b4186f6b6457e08380a380f35b6024827f118cdaa700000000000000000000000000000000000000000000000000000000815233600452fd5b50346101c457807ffffffffffffffffffffffffffffffffffffffffffffffffffffffffffffffffc3601126101c45780f35b50346101c45760407ffffffffffffffffffffffffffffffffffffffffffffffffffffffffffffffffc3601126101c4576109786123cd565b906024359167ffffffffffffffff831161068a57826004016101407ffffffffffffffffffffffffffffffffffffffffffffffffffffffffffffffffc8536030112610d5b57338352600660205260ff60408420541615610d33576064840135908115610d0b576109ea602486016129d9565b906109f7604487016129d9565b9273ffffffffffffffffffffffffffffffffffffffff6084880135951686526007602052604086208235875260205273ffffffffffffffffffffffffffffffffffffffff6040872054169182875260086020526040872073ffffffffffffffffffffffffffffffffffffffff85165f5260205260405f2073ffffffffffffffffffffffffffffffffffffffff86165f5260205260405f2097885498878a10610ce357600181019081549a858c10610cbb579a85918a8c9d039055039055610abf838787612602565b96610acc60a483016129d9565b610ad860c484016129d9565b91610ae76101048501866129fa565b946101248501610af691612a2d565b9560405198899860208a01600190523360408b015260608a015273ffffffffffffffffffffffffffffffffffffffff16608089015273ffffffffffffffffffffffffffffffffffffffff8a1660a089015260c088015260e087015273ffffffffffffffffffffffffffffffffffffffff1661010086015273ffffffffffffffffffffffffffffffffffffffff1661012085015260e40135610140840152610160830161018090526101a08301610bab91612b28565b8281037fffffffffffffffffffffffffffffffffffffffffffffffffffffffffffffffe001610180840152610bdf91612e0d565b037fffffffffffffffffffffffffffffffffffffffffffffffffffffffffffffffe081018252610c0f9082612557565b7f000000000000000000000000000000000000000000000000000000000000000073ffffffffffffffffffffffffffffffffffffffff16803b15610cb757610c8a93858094604051968795869485937fe0232b4200000000000000000000000000000000000000000000000000000000855260048501612eda565b03925af18015610cac57610c9b5750f35b81610ca591612557565b6101c45780f35b6040513d84823e3d90fd5b8480fd5b60048b7faf020cc5000000000000000000000000000000000000000000000000000000008152fd5b6004897f2ad10c8b000000000000000000000000000000000000000000000000000000008152fd5b6004847ff1e7f8e1000000000000000000000000000000000000000000000000000000008152fd5b6004837f0f76c87a000000000000000000000000000000000000000000000000000000008152fd5b8280fd5b50346101c45760407ffffffffffffffffffffffffffffffffffffffffffffffffffffffffffffffffc3601126101c457610d976123cd565b906024359167ffffffffffffffff831161068a5782600401926101c07ffffffffffffffffffffffffffffffffffffffffffffffffffffffffffffffffc8236030112610d5b57338352600660205260ff60408420541615610d33576024810193610e00856129d9565b92610e12604484019461043c866129d9565b1561102b57606483013593841561100357823592610e41610e32896129d9565b610e3b846129d9565b90612960565b8411610fdb57610e5187986129d9565b91610e5b906129d9565b94610e678733856142d9565b610e7387878588612769565b96610e8161012483016129d9565b610e8e61014484016129d9565b91610e9d6101848501866129fa565b946101a48501610eac91612a2d565b956040519889988d60208b015273ffffffffffffffffffffffffffffffffffffffff1660408a0152606089015273ffffffffffffffffffffffffffffffffffffffff16608088015273ffffffffffffffffffffffffffffffffffffffff891660a088015260c0870152608483013560e087015260a483013561010087015260c483013561012087015260e483013561014087015261010483013561016087015273ffffffffffffffffffffffffffffffffffffffff1661018086015273ffffffffffffffffffffffffffffffffffffffff166101a085015261016401356101c08401526101e0830161020090526102208301610fa791612b28565b8281037fffffffffffffffffffffffffffffffffffffffffffffffffffffffffffffffe001610200840152610bdf91612e0d565b6004877f2a271fe2000000000000000000000000000000000000000000000000000000008152fd5b6004867f433c67a2000000000000000000000000000000000000000000000000000000008152fd5b6004857fa52f42d0000000000000000000000000000000000000000000000000000000008152fd5b50346101c45760407ffffffffffffffffffffffffffffffffffffffffffffffffffffffffffffffffc3601126101c45760206103146110906123cd565b610e3b6123f0565b50346101c45760407ffffffffffffffffffffffffffffffffffffffffffffffffffffffffffffffffc3601126101c45760206110de6110d56123cd565b602435906127ba565b73ffffffffffffffffffffffffffffffffffffffff60405191168152f35b50346101c45760807ffffffffffffffffffffffffffffffffffffffffffffffffffffffffffffffffc3601126101c45760206103146111396123f0565b611141612413565b60643591600435612769565b50346101c457602061031461116136612457565b9161263c565b5034611ab85760407ffffffffffffffffffffffffffffffffffffffffffffffffffffffffffffffffc360112611ab85767ffffffffffffffff60243511611ab857366023602435011215611ab8576024356004013567ffffffffffffffff8111611ab8576024803501908060243501916024830192368411611ab85773ffffffffffffffffffffffffffffffffffffffff7f0000000000000000000000000000000000000000000000000000000000000000163303611b68576024908135900301917fffffffffffffffffffffffffffffffffffffffffffffffffffffffffffffffdc83019160208312611ab85780356002811015611ab857611b4f575050610200906112726143a1565b12611ab857611285604460243501612436565b611293608460243501612436565b9260a07fffffffffffffffffffffffffffffffffffffffffffffffffffffffffffffff1c6112c560a460243501612436565b940112611ab857604051906112d98261251f565b60e4602435013582526101046024350135602083015260408201916101246024350135835260608101946101446024350135865260808201906101646024350135825261132b61018460243501612436565b9161133b6101a460243501612436565b906101e4602435013567ffffffffffffffff8111611ab857866024611363928135010161366c565b95610204602435013567ffffffffffffffff8111611ab857602435016024019061138c916138d8565b9273ffffffffffffffffffffffffffffffffffffffff16987f000000000000000000000000000000000000000000000000000000000000000073ffffffffffffffffffffffffffffffffffffffff16966004356113ea90898d6146d2565b73ffffffffffffffffffffffffffffffffffffffff8c165f52600260205260405f205473ffffffffffffffffffffffffffffffffffffffff1695604051946114318661251f565b8c8652600435602087015273ffffffffffffffffffffffffffffffffffffffff16604086015273ffffffffffffffffffffffffffffffffffffffff166060850152608084015260405197889687967fc81f847a00000000000000000000000000000000000000000000000000000000885230600489015260248801526024356101c401356044880152805160648801526020015160848701525160a48601525160c48501525160e48401526101048301610140905261014483016114f491614408565b8281037ffffffffffffffffffffffffffffffffffffffffffffffffffffffffffffffffc0161012484015261152891614669565b03815a6060945f91f18015611aad5761154f915f91611b1e575b5060c460243501356142a1565b90611594611574838573ffffffffffffffffffffffffffffffffffffffff881661263c565b845f52600160205261158f60ff60405f205416600435613566565b6142ae565b60243560640135662386f26fc100008101908110611af1578111611abc57506115da9073ffffffffffffffffffffffffffffffffffffffff6064602435013591166127ba565b9073ffffffffffffffffffffffffffffffffffffffff84165f525f60205260405f2073ffffffffffffffffffffffffffffffffffffffff84165f5260205260405f206116ef826040519261162d8461251f565b73ffffffffffffffffffffffffffffffffffffffff8154168452600473ffffffffffffffffffffffffffffffffffffffff6001830154169182602087015273ffffffffffffffffffffffffffffffffffffffff600282015416604087015273ffffffffffffffffffffffffffffffffffffffff60038201541660608701520154608085015273ffffffffffffffffffffffffffffffffffffffff7f00000000000000000000000000000000000000000000000000000000000000001690614991565b73ffffffffffffffffffffffffffffffffffffffff7f0000000000000000000000000000000000000000000000000000000000000000163b15611ab85773ffffffffffffffffffffffffffffffffffffffff604051937f238d65790000000000000000000000000000000000000000000000000000000085526117f560048601846080809173ffffffffffffffffffffffffffffffffffffffff815116845273ffffffffffffffffffffffffffffffffffffffff602082015116602085015273ffffffffffffffffffffffffffffffffffffffff604082015116604085015273ffffffffffffffffffffffffffffffffffffffff60608201511660608501520151910152565b8360a486015216928360c482015261010060e48201525f6101048201525f81610124818373ffffffffffffffffffffffffffffffffffffffff7f0000000000000000000000000000000000000000000000000000000000000000165af18015611aad57611a93575b5090856119839261191b604051917f50d8cd4b00000000000000000000000000000000000000000000000000000000602084015260248301906080809173ffffffffffffffffffffffffffffffffffffffff815116845273ffffffffffffffffffffffffffffffffffffffff602082015116602085015273ffffffffffffffffffffffffffffffffffffffff604082015116604085015273ffffffffffffffffffffffffffffffffffffffff60608201511660608501520151910152565b60043560c48201528160e48201528461010482015230610124820152610124815261194861014482612557565b604051809481927f09c5eabe000000000000000000000000000000000000000000000000000000008352602060048401526024830190612e97565b038183875af1908115611a8857611a5e956119b5600193611a1b958a91611a66575b50602080825183010191016143f2565b9590508852600860205273ffffffffffffffffffffffffffffffffffffffff8060408a209216165f5260205260405f2073ffffffffffffffffffffffffffffffffffffffff86165f52602052611a1060405f209182546142a1565b8155019182546142a1565b90556004359073ffffffffffffffffffffffffffffffffffffffff7f000000000000000000000000000000000000000000000000000000000000000016906146d2565b600160035580f35b611a8291503d808c833e611a7a8183612557565b81019061492e565b5f6119a5565b6040513d88823e3d90fd5b611983929196505f611aa491612557565b5f95909161185d565b6040513d5f823e3d90fd5b5f80fd5b7f2f3bc2e4000000000000000000000000000000000000000000000000000000005f526064602435013560045260245260445ffd5b7f4e487b71000000000000000000000000000000000000000000000000000000005f52601160045260245ffd5b611b40915060603d606011611b48575b611b388183612557565b8101906144d1565b50505f611542565b503d611b2e565b91509150611a5e9250611b606143a1565b600435613974565b7f5d903638000000000000000000000000000000000000000000000000000000005f5260045ffd5b34611ab8576020610314611ba336612457565b91612602565b34611ab85760207ffffffffffffffffffffffffffffffffffffffffffffffffffffffffffffffffc360112611ab85760043567ffffffffffffffff8111611ab85736602382011215611ab85780600401359067ffffffffffffffff8211611ab8573660246060840283010111611ab85790611c226134aa565b7f000000000000000000000000000000000000000000000000000000000000000073ffffffffffffffffffffffffffffffffffffffff16915f5b82811015612226576060810282019060607fffffffffffffffffffffffffffffffffffffffffffffffffffffffffffffffdc8336030112611ab857604051611ca3816124d6565b73ffffffffffffffffffffffffffffffffffffffff611cc460248501612436565b8083526040611ce0606460208601976044810135895201612436565b9301928352169081156121fe57600493606073ffffffffffffffffffffffffffffffffffffffff835116604051968780927f2c8ce6bc0000000000000000000000000000000000000000000000000000000082525afa948515611aad575f956121cb575b505193604051947f2c3c9157000000000000000000000000000000000000000000000000000000008652600486015260a0856024818b5afa948515611aad575f9561212f575b5073ffffffffffffffffffffffffffffffffffffffff1682148061210c575b156120e4576040517f313ce567000000000000000000000000000000000000000000000000000000008152602081600481865afa908115611aad5760129160ff915f916120c6575b50160361209e57600490602080860173ffffffffffffffffffffffffffffffffffffffff8151165f525f825260405f2073ffffffffffffffffffffffffffffffffffffffff80895116165f52825260405f2073ffffffffffffffffffffffffffffffffffffffff80895116928184167fffffffffffffffffffffffff0000000000000000000000000000000000000000845416178355511673ffffffffffffffffffffffffffffffffffffffff6001830191167fffffffffffffffffffffffff000000000000000000000000000000000000000082541617905573ffffffffffffffffffffffffffffffffffffffff60408901511673ffffffffffffffffffffffffffffffffffffffff6002830191167fffffffffffffffffffffffff000000000000000000000000000000000000000082541617905573ffffffffffffffffffffffffffffffffffffffff60608901511673ffffffffffffffffffffffffffffffffffffffff6003830191167fffffffffffffffffffffffff0000000000000000000000000000000000000000825416179055846080890151910155604051938480927f313ce5670000000000000000000000000000000000000000000000000000000082525afa8015611aad5760019573ffffffffffffffffffffffffffffffffffffffff935f9261206c575b50839051165f528560205260ff60405f2091167fffffffffffffffffffffffffffffffffffffffffffffffffffffffffffffff008254161790555116905f52600260205273ffffffffffffffffffffffffffffffffffffffff60405f2091167fffffffffffffffffffffffff000000000000000000000000000000000000000082541617905501611c5c565b849192506120909060203d8111612097575b6120888183612557565b8101906125e9565b9190611fe0565b503d61207e565b7f390ca6a7000000000000000000000000000000000000000000000000000000005f5260045ffd5b6120de915060203d8111612097576120888183612557565b8a611df1565b7f8197c87b000000000000000000000000000000000000000000000000000000005f5260045ffd5b5073ffffffffffffffffffffffffffffffffffffffff6020850151168214611da9565b90945060a0813d82116121c3575b8161214a60a09383612557565b81010312611ab85773ffffffffffffffffffffffffffffffffffffffff906080604051916121778361251f565b61218081612598565b835261218e60208201612598565b602084015261219f60408201612598565b60408401526121b060608201612598565b6060840152015160808201529490611d8a565b3d915061213d565b6121ed91955060603d81116121f7575b6121e58183612557565b8101906125b9565b5090509388611d44565b503d6121db565b7f12b2cc06000000000000000000000000000000000000000000000000000000005f5260045ffd5b005b34611ab85760207ffffffffffffffffffffffffffffffffffffffffffffffffffffffffffffffffc360112611ab85773ffffffffffffffffffffffffffffffffffffffff6122746123cd565b61227c6134aa565b16805f52600660205260ff60405f2054161561229457005b5f52600660205260405f2060017fffffffffffffffffffffffffffffffffffffffffffffffffffffffffffffff008254161790555f80f35b34611ab8575f7ffffffffffffffffffffffffffffffffffffffffffffffffffffffffffffffffc360112611ab8576020604051662386f26fc100008152f35b34611ab85760407ffffffffffffffffffffffffffffffffffffffffffffffffffffffffffffffffc360112611ab85773ffffffffffffffffffffffffffffffffffffffff6123576123cd565b165f52600760205260405f206024355f52602052602073ffffffffffffffffffffffffffffffffffffffff60405f205416604051908152f35b34611ab8575f7ffffffffffffffffffffffffffffffffffffffffffffffffffffffffffffffffc360112611ab85760209060ff6009541615158152f35b6004359073ffffffffffffffffffffffffffffffffffffffff82168203611ab857565b6024359073ffffffffffffffffffffffffffffffffffffffff82168203611ab857565b6044359073ffffffffffffffffffffffffffffffffffffffff82168203611ab857565b359073ffffffffffffffffffffffffffffffffffffffff82168203611ab857565b7ffffffffffffffffffffffffffffffffffffffffffffffffffffffffffffffffc6060910112611ab85760043573ffffffffffffffffffffffffffffffffffffffff81168103611ab8579060243573ffffffffffffffffffffffffffffffffffffffff81168103611ab8579060443590565b35908115158203611ab857565b6060810190811067ffffffffffffffff8211176124f257604052565b7f4e487b71000000000000000000000000000000000000000000000000000000005f52604160045260245ffd5b60a0810190811067ffffffffffffffff8211176124f257604052565b6040810190811067ffffffffffffffff8211176124f257604052565b90601f7fffffffffffffffffffffffffffffffffffffffffffffffffffffffffffffffe0910116810190811067ffffffffffffffff8211176124f257604052565b519073ffffffffffffffffffffffffffffffffffffffff82168203611ab857565b90816060910312611ab8576125cd81612598565b916125e660406125df60208501612598565b9301612598565b90565b90816020910312611ab8575160ff81168103611ab85790565b6126256125e6938373ffffffffffffffffffffffffffffffffffffffff93612f0c565b91165f52600160205260ff60405f205416906135b0565b9173ffffffffffffffffffffffffffffffffffffffff60049293165f525f60205260405f2073ffffffffffffffffffffffffffffffffffffffff84165f52602052602073ffffffffffffffffffffffffffffffffffffffff600260405f20015416604051938480927fa035b1fe0000000000000000000000000000000000000000000000000000000082525afa918215611aad575f92612726575b5061270073ffffffffffffffffffffffffffffffffffffffff92670de0b6b3a76400009261351c565b0491165f52600160205260ff60405f20541660120160ff8111611af1576125e691613566565b91506020823d602011612754575b8161274160209383612557565b81010312611ab8579051906127006126d7565b3d9150612734565b91908203918211611af157565b92826127749261263c565b91670de0b6b3a76400000391670de0b6b3a76400008311611af157612625816127b56125e69573ffffffffffffffffffffffffffffffffffffffff946142ae565b61275c565b9073ffffffffffffffffffffffffffffffffffffffff5f921691825f52600760205260405f20825f5260205273ffffffffffffffffffffffffffffffffffffffff60405f20541692831561280f575b50505090565b909192506e5af43d82803e903d91602b57fd5bf37f0000000000000000000000000000000000000000000000000000000000000000763d602d80600a3d3981f3363d3d373d3d3d363d7300000062ffffff8260881c16175f5260781b17602052603760095ff09173ffffffffffffffffffffffffffffffffffffffff83169283156129385793833b15611ab857604051927fc4d66de80000000000000000000000000000000000000000000000000000000084528060048501525f8460248183895af1938415611aad57604094612923575b508252600760205282822090825260205220907fffffffffffffffffffffffff00000000000000000000000000000000000000008254161790555f8080612809565b6129309193505f90612557565b5f915f6128e1565b7fb06ebf3d000000000000000000000000000000000000000000000000000000005f5260045ffd5b906129ac9173ffffffffffffffffffffffffffffffffffffffff165f525f60205273ffffffffffffffffffffffffffffffffffffffff60405f2091165f52602052600460405f20015490565b7fffffffffffffffffffffffffffffffffffffffffffffffffffa72ea1e89d80008101908111611af15790565b3573ffffffffffffffffffffffffffffffffffffffff81168103611ab85790565b9035907fffffffffffffffffffffffffffffffffffffffffffffffffffffffffffffff8181360301821215611ab8570190565b9035907fffffffffffffffffffffffffffffffffffffffffffffffffffffffffffffff6181360301821215611ab8570190565b90600b821015612a6d5752565b7f4e487b71000000000000000000000000000000000000000000000000000000005f52602160045260245ffd5b90357fffffffffffffffffffffffffffffffffffffffffffffffffffffffffffffffe182360301811215611ab857016020813591019167ffffffffffffffff8211611ab8578136038313611ab857565b601f82602094937fffffffffffffffffffffffffffffffffffffffffffffffffffffffffffffffe093818652868601375f8582860101520116010190565b908135600b811015611ab85781612b3e91612a60565b73ffffffffffffffffffffffffffffffffffffffff612b5f60208401612436565b1660208201526060612b9381612b8c612b7b6040870187612a9a565b608060408801526080870191612aea565b94016124c9565b151591015290565b90357fffffffffffffffffffffffffffffffffffffffffffffffffffffffffffffffe182360301811215611ab857016020813591019167ffffffffffffffff8211611ab8578160051b36038313611ab857565b906004821015612a6d5752565b906020838281520160208260051b85010193835f915b848310612c215750505050505090565b9091929394957fffffffffffffffffffffffffffffffffffffffffffffffffffffffffffffffe082820301855286357fffffffffffffffffffffffffffffffffffffffffffffffffffffffffffffffa184360301811215611ab857830180357ffffffffffffffffffffffffffffffffffffffffffffffffffffffffffffffe8182360301811215611ab8578101606083528035606084015260208101356080840152604081013560a08401526060810135916004831015611ab85783604080612df9612de0612dcc60209897612cfe8a9960c060019d0190612bee565b73ffffffffffffffffffffffffffffffffffffffff612d1f60808301612436565b1660e088015273ffffffffffffffffffffffffffffffffffffffff612d4660a08301612436565b1661010088015273ffffffffffffffffffffffffffffffffffffffff612d6e60c08301612436565b1661012088015273ffffffffffffffffffffffffffffffffffffffff612d9660e08301612436565b166101408801526101008101356101608801526101208101356101808801526101408101356101a0880152610160810190612a9a565b6101806101c08801526101e0870191612aea565b612dec87870187612a9a565b9086830389880152612aea565b930135910152980196950193019190612c11565b6125e69173ffffffffffffffffffffffffffffffffffffffff612e2f83612436565b16815260208201356020820152612e89612e7e612e63612e526040860186612b9b565b60a0604087015260a0860191612bfb565b612e706060860186612b9b565b908583036060870152612bfb565b926080810190612a9a565b916080818503910152612aea565b907fffffffffffffffffffffffffffffffffffffffffffffffffffffffffffffffe0601f602080948051918291828752018686015e5f8582860101520116010190565b6125e6939273ffffffffffffffffffffffffffffffffffffffff60609316825260208201528160408201520190612e97565b73ffffffffffffffffffffffffffffffffffffffff165f525f60205260405f2073ffffffffffffffffffffffffffffffffffffffff82165f5260205260405f2060405190612f598261251f565b73ffffffffffffffffffffffffffffffffffffffff815416825273ffffffffffffffffffffffffffffffffffffffff600182015416602083015273ffffffffffffffffffffffffffffffffffffffff6002820154166040830152600473ffffffffffffffffffffffffffffffffffffffff60038301541691606084019283520154608083015260a0822091604051927f5c60e39a000000000000000000000000000000000000000000000000000000008452600484015260c08360248173ffffffffffffffffffffffffffffffffffffffff7f0000000000000000000000000000000000000000000000000000000000000000165afa928315611aad575f936133f8575b5060808301906130806fffffffffffffffffffffffffffffffff8351164261275c565b92831515806133d9575b806133b9575b61312a575b505050506fffffffffffffffffffffffffffffffff606081604084015116920151169060018101809111611af157620f4240820193848311611af157620f423f916130df9161351c565b9101838111611af1576125e69361310e6131139273ffffffffffffffffffffffffffffffffffffffff946142a1565b61352f565b91165f52600160205260ff60405f20541690613566565b51604080517f8c00bf6b000000000000000000000000000000000000000000000000000000008152835173ffffffffffffffffffffffffffffffffffffffff908116600483015260208501518116602483015291840151821660448201526060840151821660648201526080909301516084840152166fffffffffffffffffffffffffffffffff85511660a483015260208501936fffffffffffffffffffffffffffffffff85511660c48401526fffffffffffffffffffffffffffffffff60408701948186511660e48601528160608901511661010486015251166101248401526020836101648160a08a01956fffffffffffffffffffffffffffffffff8751166101448301525afa928315611aad575f93613383575b506132ad6fffffffffffffffffffffffffffffffff936132a7613271670de0b6b3a764000094878951169361351c565b6132a2671bc16d674ec80000613287838061351c565b046729a2241af62c000061329b848361351c565b04926142a1565b6142a1565b9061351c565b0492826132c56132bc86614887565b8284511661436f565b169052816132de6132d585614887565b8288511661436f565b168552511690816132f0575b80613095565b670de0b6b3a7640000916133039161351c565b04613321816fffffffffffffffffffffffffffffffff85511661275c565b6fffffffffffffffffffffffffffffffff83511691620f42408301809311611af15760018201809211611af1576133736133789261310e6fffffffffffffffffffffffffffffffff956132bc9461351c565b614887565b1690525f80806132ea565b92506020833d6020116133b1575b8161339e60209383612557565b81010312611ab8579151916132ad613241565b3d9150613391565b5073ffffffffffffffffffffffffffffffffffffffff8151161515613090565b506fffffffffffffffffffffffffffffffff604086015116151561308a565b90925060c0813d60c0116134a2575b8161341460c09383612557565b81010312611ab8576040519060c0820182811067ffffffffffffffff8211176124f2576134969160a09160405261344a81614352565b845261345860208201614352565b602085015261346960408201614352565b604085015261347a60608201614352565b606085015261348b60808201614352565b608085015201614352565b60a0820152915f61305d565b3d9150613407565b73ffffffffffffffffffffffffffffffffffffffff6004541633036134cb57565b7f118cdaa7000000000000000000000000000000000000000000000000000000005f523360045260245ffd5b9060ff8091169116039060ff8211611af157565b60ff16604d8111611af157600a0a90565b81810292918115918404141715611af157565b8115613539570490565b7f4e487b71000000000000000000000000000000000000000000000000000000005f52601260045260245ffd5b9060ff8116601281111561359257509061358c61358760126125e6946134f7565b61350b565b9061352f565b601211156135ac57906132a76135876125e69360126134f7565b5090565b9060ff8116806012115f146135d257509061358c6135876125e69360126134f7565b601210156135ac57906132a761358760126125e6946134f7565b67ffffffffffffffff81116124f257601f017fffffffffffffffffffffffffffffffffffffffffffffffffffffffffffffffe01660200190565b81601f82011215611ab85780359061363d826135ec565b9261364b6040519485612557565b82845260208383010111611ab857815f926020809301838601378301015290565b919091608081840312611ab857604051906080820182811067ffffffffffffffff8211176124f25760405281938135600b811015611ab85783526136b260208301612436565b602084015260408201359067ffffffffffffffff8211611ab857826136e0606094926136eb94869401613626565b6040860152016124c9565b910152565b9080601f83011215611ab85781359167ffffffffffffffff83116124f2578260051b91604051936137246020850186612557565b845260208085019383010191818311611ab85760208101935b83851061374c57505050505090565b843567ffffffffffffffff8111611ab857820160607fffffffffffffffffffffffffffffffffffffffffffffffffffffffffffffffe08286030112611ab85760405191613798836124d6565b602082013567ffffffffffffffff8111611ab85760209083010161018081870312611ab85760405190610180820182811067ffffffffffffffff8211176124f25760405280358252602081013560208301526040810135604083015260608101356004811015611ab857606083015261381360808201612436565b608083015261382460a08201612436565b60a083015261383560c08201612436565b60c083015261384660e08201612436565b60e08301526101008101356101008301526101208101356101208301526101408101356101408301526101608101359067ffffffffffffffff8211611ab85761389191889101613626565b610160820152835260408201359267ffffffffffffffff8411611ab8576060836138c2886020809881980101613626565b858401520135604082015281520194019361373d565b919060a083820312611ab857604051906138f18261251f565b81936138fc81612436565b835260208101356020840152604081013567ffffffffffffffff8111611ab857826139289183016136f0565b6040840152606081013567ffffffffffffffff8111611ab8578261394d9183016136f0565b606084015260808101359167ffffffffffffffff8311611ab8576080926136eb9201613626565b9181019061018081830312611ab857600281351015611ab85761399960208201612436565b916139a660408301612436565b6139b260608401612436565b6139be60808501612436565b9160a08501359160c0860135916139d760e08801612436565b966139e56101008201612436565b6101208201359361014083013567ffffffffffffffff8111611ab85789613a0d91850161366c565b926101608101359967ffffffffffffffff8b11611ab85773ffffffffffffffffffffffffffffffffffffffff808f9381613a4f613b579f9582968394016138d8565b991695169b169c16931697895f525f60205260405f2073ffffffffffffffffffffffffffffffffffffffff8d165f5260205260405f209a8b92600473ffffffffffffffffffffffffffffffffffffffff60405195613aac8761251f565b54169d8e865273ffffffffffffffffffffffffffffffffffffffff600182015416602087015273ffffffffffffffffffffffffffffffffffffffff600282015416604087015273ffffffffffffffffffffffffffffffffffffffff60038201541660608701520154608085015273ffffffffffffffffffffffffffffffffffffffff7f000000000000000000000000000000000000000000000000000000000000000016809d6146d2565b8a60606040516020810190613bec82876080809173ffffffffffffffffffffffffffffffffffffffff815116845273ffffffffffffffffffffffffffffffffffffffff602082015116602085015273ffffffffffffffffffffffffffffffffffffffff604082015116604085015273ffffffffffffffffffffffffffffffffffffffff60608201511660608501520151910152565b60a08152613bfb60c082612557565b5190206044604051809481937f93c5206200000000000000000000000000000000000000000000000000000000835260048301528860248301525afa8015611aad578c915f91614220575b50906101445f936fffffffffffffffffffffffffffffffff602060409501511690808210861461421957505b83517f20b76e81000000000000000000000000000000000000000000000000000000008152865173ffffffffffffffffffffffffffffffffffffffff908116600483015260208801518116602483015260408801518116604483015260608801511660648201526080870151608482015294859384928260a485015260c48401528860e4840152610120610104840152816101248401525af18015611aad576141fa575b5086159182156140ab575b505061409e5773ffffffffffffffffffffffffffffffffffffffff7f00000000000000000000000000000000000000000000000000000000000000001695613d6a86888a614991565b875f52600260205273ffffffffffffffffffffffffffffffffffffffff60405f20541697604051987f2f13b60c000000000000000000000000000000000000000000000000000000008a5260208a600481845afa8015611aad578c9a5f9161406f575b50613f245750935f936060989693613ea893613e789b99978752600260205273ffffffffffffffffffffffffffffffffffffffff604088205416956040519a613e158c61251f565b8b5260208b015260408a0152898901526080880152604051988997889687957f594a88cc0000000000000000000000000000000000000000000000000000000087523060048801526024870152604486015260a0606486015260a4850190614408565b907ffffffffffffffffffffffffffffffffffffffffffffffffffffffffffffffffc848303016084850152614669565b03925af1908115611aad57613ec99186915f91613f03575b50925b846146d2565b838111613ed7575b50505050565b613efa9373ffffffffffffffffffffffffffffffffffffffff910392169061481e565b5f808080613ed1565b613f1c915060603d606011611b4857611b388183612557565b50505f613ec0565b905060049392979598506060919450604051938480927f2c8ce6bc0000000000000000000000000000000000000000000000000000000082525afa908115611aad5760409673ffffffffffffffffffffffffffffffffffffffff945f94859461404b575b50885199613f958b61251f565b8c8b5260208b0152888a015260608901526080880152613ffc8651978896879586947f47f1de220000000000000000000000000000000000000000000000000000000086523060048701521660248501526044840152608060648401526084830190614408565b03925af1908115611aad57613ec99186915f9161401b575b5092613ec3565b61403d915060403d604011614044575b6140358183612557565b8101906143f2565b505f614014565b503d61402b565b61406591945060603d6060116121f7576121e58183612557565b915050925f613f88565b614091915060203d602011614097575b6140898183612557565b8101906143da565b5f613dcd565b503d61407f565b5050505050505050505050565b6141cb5f9291839261416a604051917f8720316d00000000000000000000000000000000000000000000000000000000602084015260248301906080809173ffffffffffffffffffffffffffffffffffffffff815116845273ffffffffffffffffffffffffffffffffffffffff602082015116602085015273ffffffffffffffffffffffffffffffffffffffff604082015116604085015273ffffffffffffffffffffffffffffffffffffffff60608201511660608501520151910152565b8a60c48201528160e482015230610104820152610104815261418e61012482612557565b6040519485809481937f09c5eabe000000000000000000000000000000000000000000000000000000008352602060048401526024830190612e97565b03925af18015611aad576141e0575b80613d21565b6141f3903d805f833e611a7a8183612557565b505f6141da565b6142129060403d604011614044576140358183612557565b9050613d16565b9050613c72565b9150506060813d606011614299575b8161423c60609383612557565b81010312611ab8578b6101445f936fffffffffffffffffffffffffffffffff602060409561428987805192614270846124d6565b8051845261427f858201614352565b8585015201614352565b8782015294955050509350613c46565b3d915061422f565b91908201809211611af157565b90670de0b6b3a7640000820291808304670de0b6b3a76400001490151715611af1576125e69161352f565b91801561434d5761434b9273ffffffffffffffffffffffffffffffffffffffff9182604051947f23b872dd000000000000000000000000000000000000000000000000000000006020870152166024850152306044850152606484015260648352614345608484612557565b16614ac6565b565b505050565b51906fffffffffffffffffffffffffffffffff82168203611ab857565b906fffffffffffffffffffffffffffffffff809116911601906fffffffffffffffffffffffffffffffff8211611af157565b6002600354146143b2576002600355565b7f3ee5aeb5000000000000000000000000000000000000000000000000000000005f5260045ffd5b90816020910312611ab857518015158103611ab85790565b9190826040910312611ab8576020825192015190565b60809073ffffffffffffffffffffffffffffffffffffffff81511683526020810151602084015273ffffffffffffffffffffffffffffffffffffffff604082015116604084015273ffffffffffffffffffffffffffffffffffffffff606082015116606084015201519060a0608082015261448760a082018351612a60565b73ffffffffffffffffffffffffffffffffffffffff60208301511660c082015261010060606144c66040850151608060e0860152610120850190612e97565b930151151591015290565b90816060910312611ab8578051916040602083015192015190565b9080602083519182815201916020808360051b8301019401925f915b83831061451757505050505090565b9091929394602080827fffffffffffffffffffffffffffffffffffffffffffffffffffffffffffffffe08560019503018652885190604080614654614644610160865160608752805160608801528881015160808801528481015160a0880152614589606082015160c0890190612bee565b73ffffffffffffffffffffffffffffffffffffffff60808201511660e088015273ffffffffffffffffffffffffffffffffffffffff60a08201511661010088015273ffffffffffffffffffffffffffffffffffffffff60c08201511661012088015273ffffffffffffffffffffffffffffffffffffffff60e082015116610140880152610100810151828801526101208101516101808801526101408101516101a088015201516101806101c08701526101e0860190612e97565b8686015185820388870152612e97565b93015191015297019301930191939290614508565b6125e69173ffffffffffffffffffffffffffffffffffffffff82511681526020820151602082015260806146c16146af604085015160a0604086015260a08501906144ec565b606085015184820360608601526144ec565b920151906080818403910152612e97565b73ffffffffffffffffffffffffffffffffffffffff909291921660205f6040519361477a8561474e858201937f095ea7b300000000000000000000000000000000000000000000000000000000855289602484016020909392919373ffffffffffffffffffffffffffffffffffffffff60408201951681520152565b037fffffffffffffffffffffffffffffffffffffffffffffffffffffffffffffffe08101875286612557565b84519082855af15f513d82614802575b50501561479657505050565b6147fd61434b9373ffffffffffffffffffffffffffffffffffffffff604051917f095ea7b30000000000000000000000000000000000000000000000000000000060208401521660248201525f6044820152604481526147f7606482612557565b82614ac6565b614ac6565b9091506148165750803b15155b5f8061478a565b60011461480f565b9190811561434d576040517fa9059cbb00000000000000000000000000000000000000000000000000000000602082015273ffffffffffffffffffffffffffffffffffffffff918216602482015260448082019390935291825261434b92614345606484612557565b604051614895604082612557565b601481527f6d61782075696e7431323820657863656564656400000000000000000000000060208201526fffffffffffffffffffffffffffffffff82116148ec57506fffffffffffffffffffffffffffffffff1690565b61492a906040519182917f08c379a0000000000000000000000000000000000000000000000000000000008352602060048401526024830190612e97565b0390fd5b602081830312611ab85780519067ffffffffffffffff8211611ab8570181601f82011215611ab857805190614962826135ec565b926149706040519485612557565b82845260208383010111611ab857815f9260208093018386015e8301015290565b6040517f095ea7b3000000000000000000000000000000000000000000000000000000006020820190815273ffffffffffffffffffffffffffffffffffffffff9390931660248201526044808201949094529283525f9283929083906149f8606482612557565b51925af13d15614abf573d614a0c816135ec565b90614a1a6040519283612557565b81523d5f602083013e5b81614a90575b5015614a3257565b60646040517f08c379a000000000000000000000000000000000000000000000000000000000815260206004820152600c60248201527f5361666520417070726f766500000000000000000000000000000000000000006044820152fd5b8051801592508215614aa5575b50505f614a2a565b614ab892506020809183010191016143da565b5f80614a9d565b6060614a24565b905f602091828151910182855af115611aad575f513d614b44575073ffffffffffffffffffffffffffffffffffffffff81163b155b614b025750565b73ffffffffffffffffffffffffffffffffffffffff907f5274afe7000000000000000000000000000000000000000000000000000000005f521660045260245ffd5b60011415614afb56fea2646970667358221220b04a95cfa082db26fa67b593fe591e8b1f51929c3d49c4df6ffbb1dd871adade64736f6c634300081e003360c03461008757601f61071d38819003918201601f19168301916001600160401b0383118484101761008b57808492604094855283398101031261008757610052602061004b8361009f565b920161009f565b9060805260a05260405161066990816100b48239608051818181609d01526102e4015260a05181818161010f015261033f0152f35b5f80fd5b634e487b7160e01b5f52604160045260245ffd5b51906001600160a01b03821682036100875756fe6080806040526004361015610012575f80fd5b5f3560e01c90816309c5eabe14610275575080634f8632ba14610225578063c4d66de814610133578063d8fbc833146100c55763dd72047f14610053575f80fd5b346100c1575f7ffffffffffffffffffffffffffffffffffffffffffffffffffffffffffffffffc3601126100c157602060405173ffffffffffffffffffffffffffffffffffffffff7f0000000000000000000000000000000000000000000000000000000000000000168152f35b5f80fd5b346100c1575f7ffffffffffffffffffffffffffffffffffffffffffffffffffffffffffffffffc3601126100c157602060405173ffffffffffffffffffffffffffffffffffffffff7f0000000000000000000000000000000000000000000000000000000000000000168152f35b346100c15760207ffffffffffffffffffffffffffffffffffffffffffffffffffffffffffffffffc3601126100c15760043573ffffffffffffffffffffffffffffffffffffffff81168091036100c1575f5473ffffffffffffffffffffffffffffffffffffffff81166101c7577fffffffffffffffffffffffff000000000000000000000000000000000000000016175f55005b60646040517f08c379a000000000000000000000000000000000000000000000000000000000815260206004820152601e60248201527f5573657250726f78793a20416c726561647920496e697469616c697a656400006044820152fd5b346100c1575f7ffffffffffffffffffffffffffffffffffffffffffffffffffffffffffffffffc3601126100c157602073ffffffffffffffffffffffffffffffffffffffff5f5416604051908152f35b346100c15760207ffffffffffffffffffffffffffffffffffffffffffffffffffffffffffffffffc3601126100c15760043567ffffffffffffffff81116100c157366023820112156100c15780600401359167ffffffffffffffff83116100c15736602484840101116100c1577f00000000000000000000000000000000000000000000000000000000000000009073ffffffffffffffffffffffffffffffffffffffff8216330361041b575b505060245f929182849360405193849301833781018381520390827f00000000000000000000000000000000000000000000000000000000000000005af16103686105d6565b90156103bd5760406020917fffffffffffffffffffffffffffffffffffffffffffffffffffffffffffffffe0601f835194859381855280519182918282880152018686015e5f85828601015201168101030190f35b60646040517f08c379a000000000000000000000000000000000000000000000000000000000815260206004820152601660248201527f5573657250726f78793a2043616c6c204661696c6564000000000000000000006044820152fd5b73ffffffffffffffffffffffffffffffffffffffff5f541633145f1461050c57505f80916040518260208201917f07a00b1f0000000000000000000000000000000000000000000000000000000083526004815261047a602482610568565b51925af1506104876105d6565b6020818051810103126100c157602001518015908115036100c1576104ae5760245f610322565b60646040517f08c379a000000000000000000000000000000000000000000000000000000000815260206004820152601f60248201527f5573657250726f78793a204e6f7420696e205265636f76657279204d6f6465006044820152fd5b807f08c379a0000000000000000000000000000000000000000000000000000000006064925260206004820152601760248201527f5573657250726f78793a20556e617574686f72697365640000000000000000006044820152fd5b90601f7fffffffffffffffffffffffffffffffffffffffffffffffffffffffffffffffe0910116810190811067ffffffffffffffff8211176105a957604052565b7f4e487b71000000000000000000000000000000000000000000000000000000005f52604160045260245ffd5b3d1561062e573d9067ffffffffffffffff82116105a9576040519161062360207fffffffffffffffffffffffffffffffffffffffffffffffffffffffffffffffe0601f8401160184610568565b82523d5f602084013e565b60609056fea26469706673582212207fbef786f82b4f1fa2fe482ee5dffb2ad595b5bb3fa79d343b13a090f5878ee564736f6c634300081e0033","linkReferences":{}},"methodIdentifiers":{"LIQUIDATION_BUFFER()":"83da2a3c","SLIPPAGE_BUFFER()":"24b31145","acceptOwnership()":"79ba5097","addManager(address)":"2d06177a","addSupportedCollateralTokens((address,bytes32,address)[])":"2ec23d66","calcLeverageFlashLoan(uint256,address,address,uint256)":"5adb101c","calcUnleverageFlashLoan(address,address,uint256)":"313b120e","getCollateralValueInLoanToken(address,address,uint256)":"3ba7a314","getLiqLtv(address,address)":"e43478ef","getMaxLtv(address,address)":"62fd6add","getOrCreateUserProxy(address,uint256)":"5d1593e7","getSharesValueInLoanToken(address,address,uint256)":"e30e40cb","getUserCoreLeveragePosition(address,uint256,address,address)":"94ea07bb","getUserProxy(address,uint256)":"14ee89c4","i_morpho()":"96d066f5","i_pendleRouter()":"dd2a7a17","i_userProxyImplementation()":"d5c96c17","isManager(address)":"f3ae2415","isSupportedCollateralToken(address,address)":"dc101605","leverage(address,(uint256,address,address,uint256,(uint256,uint256,uint256,uint256,uint256),address,address,uint256,(uint8,address,bytes,bool),(address,uint256,((uint256,uint256,uint256,uint8,address,address,address,address,uint256,uint256,uint256,bytes),bytes,uint256)[],((uint256,uint256,uint256,uint8,address,address,address,address,uint256,uint256,uint256,bytes),bytes,uint256)[],bytes)))":"70f5585f","onMorphoFlashLoan(uint256,bytes)":"31f57072","owner()":"8da5cb5b","pendingOwner()":"e30c3978","recoveryMode()":"07a00b1f","renounceOwnership()":"715018a6","s_userProxies(address,uint256)":"94d49ab7","setRecoveryMode(bool)":"92905bf7","transferOwnership(address)":"f2fde38b","unleverage(address,(uint256,address,address,uint256,uint256,address,address,uint256,(uint8,address,bytes,bool),(address,uint256,((uint256,uint256,uint256,uint8,address,address,address,address,uint256,uint256,uint256,bytes),bytes,uint256)[],((uint256,uint256,uint256,uint8,address,address,address,address,uint256,uint256,uint256,bytes),bytes,uint256)[],bytes)))":"7130fa49"},"id":76}