{"abi":[{"type":"constructor","inputs":[{"name":"morphoAddress","type":"address","internalType":"address"},{"name":"pendleRouter","type":"address","internalType":"address"},{"name":"oracleRouter","type":"address","internalType":"address"},{"name":"amountCollateralCap","type":"uint256","internalType":"uint256"}],"stateMutability":"nonpayable"},{"type":"function","name":"LIQUIDATION_BUFFER","inputs":[],"outputs":[{"name":"","type":"uint256","internalType":"uint256"}],"stateMutability":"view"},{"type":"function","name":"acceptOwnership","inputs":[],"outputs":[],"stateMutability":"nonpayable"},{"type":"function","name":"addSupportedCollateralTokens","inputs":[{"name":"configs","type":"tuple[]","internalType":"struct CollateralTokenConfig[]","components":[{"name":"collateralToken","type":"address","internalType":"address"},{"name":"loanToken","type":"address","internalType":"address"},{"name":"morphoMarketId","type":"bytes32","internalType":"bytes32"},{"name":"underlyingToken","type":"address","internalType":"address"},{"name":"pendleMarket","type":"address","internalType":"address"}]}],"outputs":[],"stateMutability":"nonpayable"},{"type":"function","name":"calcLoanAmount","inputs":[{"name":"collateralToken","type":"address","internalType":"address"},{"name":"loanToken","type":"address","internalType":"address"},{"name":"userCollateralAmount","type":"uint256","internalType":"uint256"}],"outputs":[{"name":"","type":"uint256","internalType":"uint256"}],"stateMutability":"view"},{"type":"function","name":"getAmountUserCollateralCap","inputs":[],"outputs":[{"name":"","type":"uint256","internalType":"uint256"}],"stateMutability":"view"},{"type":"function","name":"getMaxLtv","inputs":[{"name":"collateralToken","type":"address","internalType":"address"},{"name":"loanToken","type":"address","internalType":"address"}],"outputs":[{"name":"","type":"uint256","internalType":"uint256"}],"stateMutability":"view"},{"type":"function","name":"getSharesToAsset","inputs":[{"name":"collateralToken","type":"address","internalType":"address"},{"name":"loanToken","type":"address","internalType":"address"},{"name":"sharesBorrowed","type":"uint256","internalType":"uint256"}],"outputs":[{"name":"amountRepay","type":"uint256","internalType":"uint256"}],"stateMutability":"view"},{"type":"function","name":"getTokenUsdValue","inputs":[{"name":"token","type":"address","internalType":"address"},{"name":"amount","type":"uint256","internalType":"uint256"}],"outputs":[{"name":"","type":"uint256","internalType":"uint256"}],"stateMutability":"view"},{"type":"function","name":"getUserLeveragePosition","inputs":[{"name":"user","type":"address","internalType":"address"},{"name":"collateralToken","type":"address","internalType":"address"},{"name":"loanToken","type":"address","internalType":"address"}],"outputs":[{"name":"","type":"tuple","internalType":"struct CoreLeveragePosition","components":[{"name":"amountCollateral","type":"uint256","internalType":"uint256"},{"name":"sharesBorrowed","type":"uint256","internalType":"uint256"}]}],"stateMutability":"view"},{"type":"function","name":"leverage","inputs":[{"name":"params","type":"tuple","internalType":"struct LeverageParams","components":[{"name":"collateralToken","type":"address","internalType":"address"},{"name":"loanToken","type":"address","internalType":"address"},{"name":"amountCollateral","type":"uint256","internalType":"uint256"},{"name":"approxParams","type":"tuple","internalType":"struct ApproxParams","components":[{"name":"guessMin","type":"uint256","internalType":"uint256"},{"name":"guessMax","type":"uint256","internalType":"uint256"},{"name":"guessOffchain","type":"uint256","internalType":"uint256"},{"name":"maxIteration","type":"uint256","internalType":"uint256"},{"name":"eps","type":"uint256","internalType":"uint256"}]},{"name":"pendleSwap","type":"address","internalType":"address"},{"name":"swapData","type":"tuple","internalType":"struct SwapData","components":[{"name":"swapType","type":"uint8","internalType":"enum SwapType"},{"name":"extRouter","type":"address","internalType":"address"},{"name":"extCalldata","type":"bytes","internalType":"bytes"},{"name":"needScale","type":"bool","internalType":"bool"}]},{"name":"limitOrderData","type":"tuple","internalType":"struct LimitOrderData","components":[{"name":"limitRouter","type":"address","internalType":"address"},{"name":"epsSkipMarket","type":"uint256","internalType":"uint256"},{"name":"normalFills","type":"tuple[]","internalType":"struct FillOrderParams[]","components":[{"name":"order","type":"tuple","internalType":"struct Order","components":[{"name":"salt","type":"uint256","internalType":"uint256"},{"name":"expiry","type":"uint256","internalType":"uint256"},{"name":"nonce","type":"uint256","internalType":"uint256"},{"name":"orderType","type":"uint8","internalType":"enum IPLimitOrderType.OrderType"},{"name":"token","type":"address","internalType":"address"},{"name":"YT","type":"address","internalType":"address"},{"name":"maker","type":"address","internalType":"address"},{"name":"receiver","type":"address","internalType":"address"},{"name":"makingAmount","type":"uint256","internalType":"uint256"},{"name":"lnImpliedRate","type":"uint256","internalType":"uint256"},{"name":"failSafeRate","type":"uint256","internalType":"uint256"},{"name":"permit","type":"bytes","internalType":"bytes"}]},{"name":"signature","type":"bytes","internalType":"bytes"},{"name":"makingAmount","type":"uint256","internalType":"uint256"}]},{"name":"flashFills","type":"tuple[]","internalType":"struct FillOrderParams[]","components":[{"name":"order","type":"tuple","internalType":"struct Order","components":[{"name":"salt","type":"uint256","internalType":"uint256"},{"name":"expiry","type":"uint256","internalType":"uint256"},{"name":"nonce","type":"uint256","internalType":"uint256"},{"name":"orderType","type":"uint8","internalType":"enum IPLimitOrderType.OrderType"},{"name":"token","type":"address","internalType":"address"},{"name":"YT","type":"address","internalType":"address"},{"name":"maker","type":"address","internalType":"address"},{"name":"receiver","type":"address","internalType":"address"},{"name":"makingAmount","type":"uint256","internalType":"uint256"},{"name":"lnImpliedRate","type":"uint256","internalType":"uint256"},{"name":"failSafeRate","type":"uint256","internalType":"uint256"},{"name":"permit","type":"bytes","internalType":"bytes"}]},{"name":"signature","type":"bytes","internalType":"bytes"},{"name":"makingAmount","type":"uint256","internalType":"uint256"}]},{"name":"optData","type":"bytes","internalType":"bytes"}]}]}],"outputs":[{"name":"amountTotalCollateral","type":"uint256","internalType":"uint256"},{"name":"sharesBorrowed","type":"uint256","internalType":"uint256"}],"stateMutability":"nonpayable"},{"type":"function","name":"onMorphoFlashLoan","inputs":[{"name":"amountLoan","type":"uint256","internalType":"uint256"},{"name":"data","type":"bytes","internalType":"bytes"}],"outputs":[],"stateMutability":"nonpayable"},{"type":"function","name":"owner","inputs":[],"outputs":[{"name":"","type":"address","internalType":"address"}],"stateMutability":"view"},{"type":"function","name":"pendingOwner","inputs":[],"outputs":[{"name":"","type":"address","internalType":"address"}],"stateMutability":"view"},{"type":"function","name":"renounceOwnership","inputs":[],"outputs":[],"stateMutability":"nonpayable"},{"type":"function","name":"setAmountUserCollateralCap","inputs":[{"name":"newAmountUserCollateralCap","type":"uint256","internalType":"uint256"}],"outputs":[],"stateMutability":"nonpayable"},{"type":"function","name":"transferOwnership","inputs":[{"name":"newOwner","type":"address","internalType":"address"}],"outputs":[],"stateMutability":"nonpayable"},{"type":"function","name":"unleverage","inputs":[{"name":"params","type":"tuple","internalType":"struct UnleverageParams","components":[{"name":"collateralToken","type":"address","internalType":"address"},{"name":"loanToken","type":"address","internalType":"address"},{"name":"sharesToBurn","type":"uint256","internalType":"uint256"},{"name":"amountCollateralToWithdraw","type":"uint256","internalType":"uint256"},{"name":"pendleSwap","type":"address","internalType":"address"},{"name":"swapData","type":"tuple","internalType":"struct SwapData","components":[{"name":"swapType","type":"uint8","internalType":"enum SwapType"},{"name":"extRouter","type":"address","internalType":"address"},{"name":"extCalldata","type":"bytes","internalType":"bytes"},{"name":"needScale","type":"bool","internalType":"bool"}]},{"name":"limitOrderData","type":"tuple","internalType":"struct LimitOrderData","components":[{"name":"limitRouter","type":"address","internalType":"address"},{"name":"epsSkipMarket","type":"uint256","internalType":"uint256"},{"name":"normalFills","type":"tuple[]","internalType":"struct FillOrderParams[]","components":[{"name":"order","type":"tuple","internalType":"struct Order","components":[{"name":"salt","type":"uint256","internalType":"uint256"},{"name":"expiry","type":"uint256","internalType":"uint256"},{"name":"nonce","type":"uint256","internalType":"uint256"},{"name":"orderType","type":"uint8","internalType":"enum IPLimitOrderType.OrderType"},{"name":"token","type":"address","internalType":"address"},{"name":"YT","type":"address","internalType":"address"},{"name":"maker","type":"address","internalType":"address"},{"name":"receiver","type":"address","internalType":"address"},{"name":"makingAmount","type":"uint256","internalType":"uint256"},{"name":"lnImpliedRate","type":"uint256","internalType":"uint256"},{"name":"failSafeRate","type":"uint256","internalType":"uint256"},{"name":"permit","type":"bytes","internalType":"bytes"}]},{"name":"signature","type":"bytes","internalType":"bytes"},{"name":"makingAmount","type":"uint256","internalType":"uint256"}]},{"name":"flashFills","type":"tuple[]","internalType":"struct FillOrderParams[]","components":[{"name":"order","type":"tuple","internalType":"struct Order","components":[{"name":"salt","type":"uint256","internalType":"uint256"},{"name":"expiry","type":"uint256","internalType":"uint256"},{"name":"nonce","type":"uint256","internalType":"uint256"},{"name":"orderType","type":"uint8","internalType":"enum IPLimitOrderType.OrderType"},{"name":"token","type":"address","internalType":"address"},{"name":"YT","type":"address","internalType":"address"},{"name":"maker","type":"address","internalType":"address"},{"name":"receiver","type":"address","internalType":"address"},{"name":"makingAmount","type":"uint256","internalType":"uint256"},{"name":"lnImpliedRate","type":"uint256","internalType":"uint256"},{"name":"failSafeRate","type":"uint256","internalType":"uint256"},{"name":"permit","type":"bytes","internalType":"bytes"}]},{"name":"signature","type":"bytes","internalType":"bytes"},{"name":"makingAmount","type":"uint256","internalType":"uint256"}]},{"name":"optData","type":"bytes","internalType":"bytes"}]}]}],"outputs":[],"stateMutability":"nonpayable"},{"type":"event","name":"OwnershipTransferStarted","inputs":[{"name":"previousOwner","type":"address","indexed":true,"internalType":"address"},{"name":"newOwner","type":"address","indexed":true,"internalType":"address"}],"anonymous":false},{"type":"event","name":"OwnershipTransferred","inputs":[{"name":"previousOwner","type":"address","indexed":true,"internalType":"address"},{"name":"newOwner","type":"address","indexed":true,"internalType":"address"}],"anonymous":false},{"type":"error","name":"FlashLeverageCore__InvalidAmountCollateral","inputs":[]},{"type":"error","name":"FlashLeverageCore__UnsupportedCollateralToken","inputs":[]},{"type":"error","name":"FlashLeverageCore__UntrustedLender","inputs":[]},{"type":"error","name":"OwnableInvalidOwner","inputs":[{"name":"owner","type":"address","internalType":"address"}]},{"type":"error","name":"OwnableUnauthorizedAccount","inputs":[{"name":"account","type":"address","internalType":"address"}]},{"type":"error","name":"SafeERC20FailedOperation","inputs":[{"name":"token","type":"address","internalType":"address"}]}],"bytecode":{"object":"0x60e0604052346100b75761001d6100146101ca565b9291909161027f565b6100256100bc565b614e6d610528823960805181818161166e01528181611aa501528181611c27015281816123d001528181612ab101528181612d6b01528181612fae01528181614457015281816144950152818161458b01528181614b6701528181614b970152614cd4015260a051818181613c1101528181613c4401528181613e6a0152613e9a015260c05181611f3d0152614e6d90f35b6100c2565b60405190565b5f80fd5b601f801991011690565b634e487b7160e01b5f52604160045260245ffd5b906100ee906100c6565b810190811060018060401b0382111761010657604052565b6100d0565b9061011e6101176100bc565b92836100e4565b565b5f80fd5b60018060a01b031690565b61013890610124565b90565b6101448161012f565b0361014b57565b5f80fd5b9050519061015c8261013b565b565b90565b61016a8161015e565b0361017157565b5f80fd5b9050519061018282610161565b565b6080818303126101c55761019a825f830161014f565b926101c26101ab846020850161014f565b936101b9816040860161014f565b93606001610175565b90565b610120565b6101e8615395803803806101dd8161010b565b928339810190610184565b90919293565b90565b61020561020061020a92610124565b6101ee565b610124565b90565b610216906101f1565b90565b6102229061020d565b90565b5f1b90565b906102365f1991610225565b9181191691161790565b61025461024f6102599261015e565b6101ee565b61015e565b90565b90565b9061027461026f61027b92610240565b61025c565b825461022a565b9055565b9161029561029a926102a49594339190916102a6565b610219565b60c052600461025f565b565b906102b19291610300565b565b90565b6102ca6102c56102cf926102b3565b6101ee565b610124565b90565b6102db906102b6565b90565b6102e79061012f565b9052565b91906102fe905f602085019401906102de565b565b9161030a9161035c565b8061032561031f61031a5f6102d2565b61012f565b9161012f565b14610335576103339061043f565b565b6103586103415f6102d2565b5f918291631e4fbdf760e01b8352600483016102eb565b0390fd5b9061036691610380565b565b610371906101f1565b90565b61037d90610368565b90565b61038c610391926103ae565b610374565b60a052565b61039f906101f1565b90565b6103ab90610396565b90565b6103b7906103a2565b608052565b1b90565b919060086103e09102916103da60018060a01b03846103bc565b926103bc565b9181191691161790565b6103f3906101f1565b90565b6103ff906103ea565b90565b90565b919061041b610416610423936103f6565b610402565b9083546103c0565b9055565b5f90565b61043d91610437610427565b91610405565b565b6104539061044e5f600361042b565b6104c6565b565b5f1c90565b60018060a01b031690565b61047161047691610455565b61045a565b90565b6104839054610465565b90565b9061049760018060a01b0391610225565b9181191691161790565b906104b66104b16104bd926103f6565b610402565b8254610486565b9055565b5f0190565b6104d06002610479565b6104db8260026104a1565b9061050f6105097f8be0079c531659141344cd1fd0a4f28419497f9722a3daafe3b4186f6b6457e0936103f6565b916103f6565b916105186100bc565b80610522816104c1565b0390a356fe60806040526004361015610013575b611021565b61001d5f3561012c565b80631d09cc7e1461012757806331dea21b1461012257806331f570721461011d57806334692f5b1461011857806362fd6add1461011357806369558a2a1461010e578063715018a61461010957806373b267d71461010457806379ba5097146100ff5780637d685b40146100fa57806383da2a3c146100f55780638da5cb5b146100f0578063abb778aa146100eb578063b3ec4046146100e6578063ccf5e8ef146100e1578063e30c3978146100dc5763f2fde38b0361000e57610fee565b610f9b565b610f65565b610f2f565b610ec0565b610e8b565b610e34565b610dbe565b610d0b565b610cd5565b610c7d565b610c3b565b610be7565b610b72565b6109d5565b61095a565b610780565b60e01c90565b60405190565b5f80fd5b5f80fd5b5f80fd5b5f80fd5b601f801991011690565b634e487b7160e01b5f52604160045260245ffd5b9061017090610148565b810190811067ffffffffffffffff82111761018a57604052565b610152565b906101a261019b610132565b9283610166565b565b5f80fd5b60018060a01b031690565b6101bc906101a8565b90565b6101c8816101b3565b036101cf57565b5f80fd5b905035906101e0826101bf565b565b90565b6101ee816101e2565b036101f557565b5f80fd5b90503590610206826101e5565b565b600b111561021257565b5f80fd5b9050359061022382610208565b565b5f80fd5b5f80fd5b67ffffffffffffffff811161024b57610247602091610148565b0190565b610152565b90825f939282370152565b9092919261027061026b8261022d565b61018f565b9381855260208501908284011161028c5761028a92610250565b565b610229565b9080601f830112156102af578160206102ac9335910161025b565b90565b610225565b151590565b6102c2816102b4565b036102c957565b5f80fd5b905035906102da826102b9565b565b919091608081840312610353576102f3608061018f565b92610300815f8401610216565b5f85015261031181602084016101d3565b602085015260408201359167ffffffffffffffff831161034e5761033a82610347948301610291565b60408601526060016102cd565b6060830152565b6101a4565b610144565b67ffffffffffffffff81116103705760208091020190565b610152565b5f80fd5b6004111561038357565b5f80fd5b9050359061039482610379565b565b919091610180818403126104a6576103af61018061018f565b926103bc815f84016101f9565b5f8501526103cd81602084016101f9565b60208501526103df81604084016101f9565b60408501526103f18160608401610387565b606085015261040381608084016101d3565b60808501526104158160a084016101d3565b60a08501526104278160c084016101d3565b60c08501526104398160e084016101d3565b60e085015261044c8161010084016101f9565b6101008501526104608161012084016101f9565b6101208501526104748161014084016101f9565b61014085015261016082013567ffffffffffffffff81116104a1576104999201610291565b610160830152565b6101a4565b610144565b919091606081840312610528576104c2606061018f565b925f82013567ffffffffffffffff811161052357816104e2918401610396565b5f85015260208201359167ffffffffffffffff831161051e5761050a82610517948301610291565b60208601526040016101f9565b6040830152565b6101a4565b6101a4565b610144565b92919061054161053c82610358565b61018f565b93818552602080860192028101918383116105985781905b838210610567575050505050565b813567ffffffffffffffff81116105935760209161058887849387016104ab565b815201910190610559565b610225565b610375565b9080601f830112156105bb578160206105b89335910161052d565b90565b610225565b91909160a081840312610678576105d760a061018f565b926105e4815f84016101d3565b5f8501526105f581602084016101f9565b6020850152604082013567ffffffffffffffff8111610673578161061a91840161059d565b6040850152606082013567ffffffffffffffff811161066e578161063f91840161059d565b6060850152608082013567ffffffffffffffff8111610669576106629201610291565b6080830152565b6101a4565b6101a4565b6101a4565b610144565b91909160e0818403126107415761069460e061018f565b926106a1815f84016101d3565b5f8501526106b281602084016101d3565b60208501526106c481604084016101f9565b60408501526106d681606084016101f9565b60608501526106e881608084016101d3565b608085015260a082013567ffffffffffffffff811161073c578161070d9184016102dc565b60a085015260c082013567ffffffffffffffff81116107375761073092016105c0565b60c0830152565b6101a4565b6101a4565b610144565b90602082820312610776575f82013567ffffffffffffffff81116107715761076e920161067d565b90565b610140565b61013c565b5f0190565b346107ae57610798610793366004610746565b6115ac565b6107a0610132565b806107aa8161077b565b0390f35b610138565b919060a0838203126108235761081c906107cd60a061018f565b936107da825f83016101f9565b5f8601526107eb82602083016101f9565b60208601526107fd82604083016101f9565b604086015261080f82606083016101f9565b60608601526080016101f9565b6080830152565b610144565b919091610160818403126108f05761084060e061018f565b9261084d815f84016101d3565b5f85015261085e81602084016101d3565b602085015261087081604084016101f9565b604085015261088281606084016107b3565b60608501526108958161010084016101d3565b608085015261012082013567ffffffffffffffff81116108eb57816108bb9184016102dc565b60a085015261014082013567ffffffffffffffff81116108e6576108df92016105c0565b60c0830152565b6101a4565b6101a4565b610144565b90602082820312610925575f82013567ffffffffffffffff81116109205761091d9201610828565b90565b610140565b61013c565b610933906101e2565b9052565b91602061095892949361095160408201965f83019061092a565b019061092a565b565b3461098b5761097261096d3660046108f5565b611b9b565b9061098761097e610132565b92839283610937565b0390f35b610138565b9190916040818403126109d0576109a9835f83016101f9565b92602082013567ffffffffffffffff81116109cb576109c89201610291565b90565b610140565b61013c565b34610a04576109ee6109e8366004610990565b90611c17565b6109f6610132565b80610a008161077b565b0390f35b610138565b67ffffffffffffffff8111610a215760208091020190565b610152565b90565b610a3281610a26565b03610a3957565b5f80fd5b90503590610a4a82610a29565b565b919060a083820312610abc57610ab590610a6660a061018f565b93610a73825f83016101d3565b5f860152610a8482602083016101d3565b6020860152610a968260408301610a3d565b6040860152610aa882606083016101d3565b60608601526080016101d3565b6080830152565b610144565b90929192610ad6610ad182610a09565b61018f565b9381855260a0602086019202830192818411610b1557915b838310610afb5750505050565b602060a091610b0a8486610a4c565b815201920191610aee565b610375565b9080601f83011215610b3857816020610b3593359101610ac1565b90565b610225565b90602082820312610b6d575f82013567ffffffffffffffff8111610b6857610b659201610b1a565b90565b610140565b61013c565b34610ba057610b8a610b85366004610b3d565b611df0565b610b92610132565b80610b9c8161077b565b0390f35b610138565b9190604083820312610bcd5780610bc1610bca925f86016101d3565b936020016101d3565b90565b61013c565b9190610be5905f6020850194019061092a565b565b34610c1857610c14610c03610bfd366004610ba5565b90611dfb565b610c0b610132565b91829182610bd2565b0390f35b610138565b90602082820312610c3657610c33915f016101f9565b90565b61013c565b34610c6957610c53610c4e366004610c1d565b611eb0565b610c5b610132565b80610c658161077b565b0390f35b610138565b5f910312610c7857565b61013c565b34610ca357610c8d366004610c6e565b610c95610132565b80610c9f8161077b565b0390f35b610138565b9190604083820312610cd05780610cc4610ccd925f86016101d3565b936020016101f9565b90565b61013c565b34610d0657610d02610cf1610ceb366004610ca8565b90611f2c565b610cf9610132565b91829182610bd2565b0390f35b610138565b34610d3957610d1b366004610c6e565b610d23611fdf565b610d2b610132565b80610d358161077b565b0390f35b610138565b9091606082840312610d7357610d70610d59845f85016101d3565b93610d6781602086016101d3565b936040016101d3565b90565b61013c565b610d81906101e2565b9052565b90602080610da793610d9d5f8201515f860190610d78565b0151910190610d78565b565b9190610dbc905f60408501940190610d85565b565b34610def57610deb610dda610dd4366004610d3e565b91612107565b610de2610132565b91829182610da9565b0390f35b610138565b90565b90565b610e0e610e09610e1392610df4565b610df7565b6101e2565b90565b610e2666b1a2bc2ec50000610dfa565b90565b610e31610e16565b90565b34610e6457610e44366004610c6e565b610e60610e4f610e29565b610e57610132565b91829182610bd2565b0390f35b610138565b610e72906101b3565b9052565b9190610e89905f60208501940190610e69565b565b34610ebb57610e9b366004610c6e565b610eb7610ea661213c565b610eae610132565b91829182610e76565b0390f35b610138565b34610ef057610ed0366004610c6e565b610eec610edb612152565b610ee3610132565b91829182610bd2565b0390f35b610138565b9091606082840312610f2a57610f27610f10845f85016101d3565b93610f1e81602086016101d3565b936040016101f9565b90565b61013c565b34610f6057610f5c610f4b610f45366004610ef5565b91612225565b610f53610132565b91829182610bd2565b0390f35b610138565b34610f9657610f92610f81610f7b366004610ef5565b916123a3565b610f89610132565b91829182610bd2565b0390f35b610138565b34610fcb57610fab366004610c6e565b610fc7610fb6612406565b610fbe610132565b91829182610e76565b0390f35b610138565b90602082820312610fe957610fe6915f016101d3565b90565b61013c565b3461101c57611006611001366004610fd0565b6124cc565b61100e610132565b806110188161077b565b0390f35b610138565b5f80fd5b61102f90516101b3565b90565b61103c90516101e2565b90565b60209181520190565b5f7f53686172657320626f72726f7765642065786365656465640000000000000000910152565b61107c601860209261103f565b61108581611048565b0190565b61109e9060208101905f81830391015261106f565b90565b156110a857565b6110b0610132565b62461bcd60e51b8152806110c660048201611089565b0390fd5b634e487b7160e01b5f52602160045260245ffd5b600211156110e857565b6110ca565b906110f7826110de565b565b611102906110ed565b90565b61110e906110f9565b9052565b600b111561111c57565b6110ca565b9061112b82611112565b565b61113690611121565b90565b6111429061112d565b9052565b61114f906101b3565b9052565b5190565b60209181520190565b90825f9392825e0152565b61118a6111936020936111989361118181611153565b93848093611157565b95869101611160565b610148565b0190565b6111a5906102b4565b9052565b906111f7906060806111ec608084016111c85f8801515f870190611139565b6111da60208801516020870190611146565b6040870151858203604087015261116b565b94015191019061119c565b90565b5190565b60209181520190565b60200190565b6004111561121757565b6110ca565b906112268261120d565b565b6112319061121c565b90565b61123d90611228565b9052565b6113299161016061018082019261125e5f8201515f850190610d78565b61127060208201516020850190610d78565b61128260408201516040850190610d78565b61129460608201516060850190611234565b6112a660808201516080850190611146565b6112b860a082015160a0850190611146565b6112ca60c082015160c0850190611146565b6112dc60e082015160e0850190611146565b6112f0610100820151610100850190610d78565b611304610120820151610120850190610d78565b611318610140820151610140850190610d78565b01519061016081840391015261116b565b90565b9061136b9060408061136061134e606085015f8801518682035f880152611241565b6020870151858203602087015261116b565b940151910190610d78565b90565b906113789161132c565b90565b60200190565b9061139561138e836111fa565b80926111fe565b90816113a660208302840194611207565b925f915b8383106113b957505050505090565b909192939460206113db6113d58385600195038752895161136e565b9761137b565b93019301919392906113aa565b61144f91608061143e61142c60a084016114085f8701515f870190611146565b61141a60208701516020870190610d78565b60408601518582036040870152611381565b60608501518482036060860152611381565b92015190608081840391015261116b565b90565b97969492909593916101208901965f8a0161146c91611105565b6020890161147991610e69565b6040880161148691610e69565b6060870161149391610e69565b608086016114a09161092a565b60a085016114ad9161092a565b60c084016114ba91610e69565b82810360e08401526114cb916111a9565b908082039061010001526114de916113e8565b90565b6114f56114f06114fa926101a8565b610df7565b6101a8565b90565b611506906114e1565b90565b611512906114fd565b90565b5f80fd5b60e01b90565b5f91031261152957565b61013c565b60209181520190565b61155661155f6020936115649361154d81611153565b9384809361152e565b95869101611160565b610148565b0190565b61158c61159994929361158260608401955f850190610e69565b602083019061092a565b6040818403910152611537565b90565b6115a4610132565b3d5f823e3d90fd5b6115b75f8201611025565b906116696115c760208301611025565b916115d460408201611032565b9061165f3361160c6115f360206115ed848b8b91612107565b01611032565b6116056115ff876101e2565b916101e2565b10156110a1565b611650600191938890888761162360608401611032565b9061163060808501611025565b9260c060a086015195015195611644610132565b9a8b9960208b01611452565b60208201810382520382610166565b93908390916123a3565b6116927f0000000000000000000000000000000000000000000000000000000000000000611509565b63e0232b4292919392813b1561170e575f6116c0916116cb82966116b4610132565b98899788968795611519565b855260048501611568565b03925af18015611709576116dd575b50565b6116fc905f3d8111611702575b6116f48183610166565b81019061151f565b5f6116da565b503d6116ea565b61159c565b611515565b5f90565b90565b61172e61172961173392611717565b610df7565b6101e2565b90565b5f1c90565b90565b61174a61174f91611736565b61173b565b90565b61175c905461173e565b90565b1561176657565b5f63c97342f560e01b81528061177e6004820161077b565b0390fd5b906117bd92916117b861179760408501611032565b806117aa6117a45f61171a565b916101e2565b1190816117c1575b5061175f565b6119b9565b9091565b90506117de6117d86117d36004611752565b6101e2565b916101e2565b11155f6117b2565b6117ef906114fd565b90565b906117fc906117e6565b5f5260205260405f2090565b90611812906117e6565b5f5260205260405f2090565b60018060a01b031690565b61183561183a91611736565b61181e565b90565b6118479054611829565b90565b61185e61185961186392611717565b610df7565b6101a8565b90565b61186f9061184a565b90565b1561187957565b5f630a52f42d60e41b8152806118916004820161077b565b0390fd5b906080806118ed936118ad5f8201515f860190610d78565b6118bf60208201516020860190610d78565b6118d160408201516040860190610d78565b6118e360608201516060860190610d78565b0151910190610d78565b565b97969492909593916101a08901965f8a0161190991611105565b6020890161191691610e69565b6040880161192391610e69565b6060870161193091610e69565b6080860161193d9161092a565b60a0850161194a91611895565b610140840161195891610e69565b82810361016084015261196a916111a9565b9080820390610180015261197d916113e8565b90565b634e487b7160e01b5f52601160045260245ffd5b6119a36119a9919392936101e2565b926101e2565b82039182116119b457565b611980565b92919250506119c95f8301611025565b916119d660208201611025565b906119e360408201611032565b933391611a2a611a096001611a036119fc5f87906117f2565b8890611808565b0161183d565b611a23611a1d611a185f611866565b6101b3565b916101b3565b1415611872565b611a36823388916124fb565b611a92611a4583868991612225565b96611a835f91869486918990606083015190611a6360808501611025565b9260c060a086015195015195611a77610132565b9a8b9960208b016118ef565b60208201810382520382610166565b92611a9f83838391612107565b95611ac97f0000000000000000000000000000000000000000000000000000000000000000611509565b9063e0232b429183919692813b15611b96575f611af991611b048296611aed610132565b9b8c9788968795611519565b855260048501611568565b03925af1928315611b9157611b6294611b2594611b65575b50919091612107565b92611b5c6020611b5581611b4e611b3d5f8a01611032565b611b485f8801611032565b90611994565b9701611032565b9201611032565b90611994565b90565b611b84905f3d8111611b8a575b611b7c8183610166565b81019061151f565b5f611b1c565b503d611b72565b61159c565b611515565b611bb590611ba7611713565b611baf611713565b90611782565b9091565b15611bc057565b5f630bb206c760e31b815280611bd86004820161077b565b0390fd5b60021115611be657565b5f80fd5b90505190611bf782611bdc565b565b90602082820312611c1257611c0f915f01611bea565b90565b61013c565b90611c5c33611c56611c50611c4b7f0000000000000000000000000000000000000000000000000000000000000000611509565b6101b3565b916101b3565b14611bb9565b611c76816020611c6b82611153565b818301019101611bf9565b611c88611c825f6110ed565b916110ed565b145f14611c9b57611c9891612ceb565b5b565b611ca491612a3b565b611c99565b611cba90611cb5612e09565b611d2b565b565b5190565b6001611ccc91016101e2565b90565b634e487b7160e01b5f52603260045260245ffd5b90611ced82611cbc565b811015611cfe576020809102010190565b611ccf565b611d0d9051610a26565b90565b611d1a604061018f565b90565b90611d27906101b3565b9052565b90611d3582611cbc565b90611d3f5f61171a565b5b80611d53611d4d856101e2565b916101e2565b1015611dea57611de590611de0611d6b868390611ce3565b51611d98611d7a5f8301611025565b611d8660208401611025565b611d9260408501611d03565b91612fa2565b611da35f8201611025565b611ddb611dbe6080611db760608601611025565b9401611025565b611dd2611dc9611d10565b945f8601611d1d565b60208401611d1d565b6130c4565b611cc0565b611d40565b50915050565b611df990611ca9565b565b6004611e1f611e3393611e1a611e2594611e13611713565b505f6117f2565b611808565b01611752565b611e2d610e16565b90611994565b90565b611e4790611e42612e09565b611ea3565b565b5f1b90565b90611e5a5f1991611e49565b9181191691161790565b611e78611e73611e7d926101e2565b610df7565b6101e2565b90565b90565b90611e98611e93611e9f92611e64565b611e80565b8254611e4e565b9055565b611eae906004611e83565b565b611eb990611e36565b565b611ec4906114fd565b90565b61034890565b90505190611eda826101e5565b565b90602082820312611ef557611ef2915f01611ecd565b90565b61013c565b604090611f23611f2a9496959396611f1960608401985f85019061092a565b6020830190610e69565b0190610e69565b565b602090611f37611713565b50611f617f0000000000000000000000000000000000000000000000000000000000000000611ebb565b611f8b63ae68676c949294611f96611f77611ec7565b611f7f610132565b97889687958695611519565b855260048501611efa565b03915afa908115611fda575f91611fac575b5090565b611fcd915060203d8111611fd3575b611fc58183610166565b810190611edc565b5f611fa8565b503d611fbb565b61159c565b611fe76130da565b611fef612406565b612001611ffb836101b3565b916101b3565b036120115761200f9061314b565b565b61202c905f91829163118cdaa760e01b835260048301610e76565b0390fd5b61203a604061018f565b90565b5f90565b612049612030565b906020808361205661203d565b81520161206161203d565b81525050565b61206f612041565b90565b9061207c906117e6565b5f5260205260405f2090565b90612092906117e6565b5f5260205260405f2090565b906120a8906117e6565b5f5260205260405f2090565b906120be906101e2565b9052565b906120f96120f060016120d3612030565b946120ea6120e25f8301611752565b5f88016120b4565b01611752565b602084016120b4565b565b612104906120c2565b90565b9161212b612130926121266121359561211e612067565b506005612072565b612088565b61209e565b6120fb565b90565b5f90565b612144612138565b5061214f600261183d565b90565b61215a611713565b506121656004611752565b90565b90565b61217f61217a61218492612168565b610df7565b6101e2565b90565b612198670de0b6b3a764000061216b565b90565b6121a4906114e1565b90565b6121b09061219b565b90565b6121bc906114fd565b90565b60ff1690565b6121ce816121bf565b036121d557565b5f80fd5b905051906121e6826121c5565b565b90602082820312612201576121fe915f016121d9565b90565b61013c565b90565b61221d61221861222292612206565b610df7565b6121bf565b90565b61226c906122676122426122979561223b611713565b5083611f2c565b91612261839161225b612253612187565b918890611dfb565b90611994565b906131cc565b611994565b602061228161227c6012946121a7565b6121b3565b63313ce5679061228f610132565b958692611519565b825281806122a76004820161077b565b03915afa918215612304576122cd935f936122d0575b506122c790612209565b90613255565b90565b6122c79193506122f69060203d81116122fd575b6122ee8183610166565b8101906121e8565b92906122bd565b503d6122e4565b61159c565b61231360a061018f565b90565b9061239561238c6004612327612309565b9461233e6123365f830161183d565b5f8801611d1d565b61235661234d6001830161183d565b60208801611d1d565b61236e6123656002830161183d565b60408801611d1d565b61238661237d6003830161183d565b60608801611d1d565b01611752565b608084016120b4565b565b6123a090612316565b90565b6123ce6123c961240394936123c46123f4946123bd611713565b505f6117f2565b611808565b612397565b7f0000000000000000000000000000000000000000000000000000000000000000613554565b93925090509190919091613901565b90565b61240e612138565b50612419600361183d565b90565b61242d90612428612e09565b61246d565b565b9061244060018060a01b0391611e49565b9181191691161790565b90565b9061246261245d612469926117e6565b61244a565b825461242f565b9055565b61247881600361244d565b61248061213c565b906124b46124ae7f38d16b8cac22d99fc7c124b9cd0de2d3fa1faef420bfe791d8c362d765e22700936117e6565b916117e6565b916124bd610132565b806124c78161077b565b0390a3565b6124d59061241c565b565b6124e0906114e1565b90565b6124ec906124d7565b90565b6124f8906114fd565b90565b918061250f6125095f61171a565b916101e2565b1461253357612520612531936124e3565b9161252a306124ef565b91926139ab565b565b505050565b612541906101a8565b90565b61254d81612538565b0361255457565b5f80fd5b9050519061256582612544565b565b9050519061257482610208565b565b90505190612583826101bf565b565b9092919261259a6125958261022d565b61018f565b938185526020850190828401116125b6576125b492611160565b565b610229565b9080601f830112156125d9578160206125d693519101612585565b90565b610225565b905051906125eb826102b9565b565b91909160808184031261266457612604608061018f565b92612611815f8401612567565b5f8501526126228160208401612576565b602085015260408201519167ffffffffffffffff831161265f5761264b826126589483016125bb565b60408601526060016125de565b6060830152565b6101a4565b610144565b9050519061267682610379565b565b919091610180818403126127885761269161018061018f565b9261269e815f8401611ecd565b5f8501526126af8160208401611ecd565b60208501526126c18160408401611ecd565b60408501526126d38160608401612669565b60608501526126e58160808401612576565b60808501526126f78160a08401612576565b60a08501526127098160c08401612576565b60c085015261271b8160e08401612576565b60e085015261272e816101008401611ecd565b610100850152612742816101208401611ecd565b610120850152612756816101408401611ecd565b61014085015261016082015167ffffffffffffffff81116127835761277b92016125bb565b610160830152565b6101a4565b610144565b91909160608184031261280a576127a4606061018f565b925f82015167ffffffffffffffff811161280557816127c4918401612678565b5f85015260208201519167ffffffffffffffff8311612800576127ec826127f99483016125bb565b6020860152604001611ecd565b6040830152565b6101a4565b6101a4565b610144565b92919061282361281e82610358565b61018f565b938185526020808601920281019183831161287a5781905b838210612849575050505050565b815167ffffffffffffffff81116128755760209161286a878493870161278d565b81520191019061283b565b610225565b610375565b9080601f8301121561289d5781602061289a9351910161280f565b90565b610225565b91909160a08184031261295a576128b960a061018f565b926128c6815f8401612576565b5f8501526128d78160208401611ecd565b6020850152604082015167ffffffffffffffff811161295557816128fc91840161287f565b6040850152606082015167ffffffffffffffff8111612950578161292191840161287f565b6060850152608082015167ffffffffffffffff811161294b5761294492016125bb565b6080830152565b6101a4565b6101a4565b6101a4565b610144565b9161012083830312612a1957612977825f8501611bea565b926129858360208301612558565b926129938160408401612558565b926129a18260608501612558565b926129af8360808301611ecd565b926129bd8160a08401611ecd565b926129cb8260c08501612558565b9260e081015167ffffffffffffffff8111612a1457836129ec9183016125ed565b9261010082015167ffffffffffffffff8111612a0f57612a0c92016128a2565b90565b610140565b610140565b61013c565b612a27906114fd565b90565b90612a3591036101e2565b90565b90565b90612a4581611153565b60208201019060200190612a589161295f565b929496612a6a91929850989398612a1e565b94612a7490612a1e565b95612a7e90612a1e565b979396612a8a90612a1e565b90918689858a908892612a9c946139fb565b869289928990919293612aae95613bdd565b867f0000000000000000000000000000000000000000000000000000000000000000612ad990611509565b8390612ae492613d0e565b612aec611713565b508082612af8906101e2565b90612b02906101e2565b11612b7097612b33612b6a97612b2e600198612b5997612b3d97612b3897612b72575b50506005612072565b612088565b61209e565b612a38565b94612b535f870191612b4e83611752565b611994565b90611e83565b920191612b6583611752565b611994565b90611e83565b565b612b8991612b7f91612a2a565b8690839091613d25565b5f80612b25565b919060a083820312612c0057612bf990612baa60a061018f565b93612bb7825f8301611ecd565b5f860152612bc88260208301611ecd565b6020860152612bda8260408301611ecd565b6040860152612bec8260608301611ecd565b6060860152608001611ecd565b6080830152565b610144565b916101a083830312612cc157612c1d825f8501611bea565b92612c2b8360208301612558565b92612c398160408401612558565b92612c478260608501612558565b92612c558360808301611ecd565b92612c638160a08401612b90565b92612c72826101408501612558565b9261016081015167ffffffffffffffff8111612cbc5783612c949183016125ed565b9261018082015167ffffffffffffffff8111612cb757612cb492016128a2565b90565b610140565b610140565b61013c565b612cd5612cdb919392936101e2565b926101e2565b8201809211612ce657565b611980565b90612cf581611153565b60208201019060200190612d0891612c05565b919294959897509295612d1a90612a1e565b97612d2490612a1e565b94612d2e90612a1e565b959391612d3a90612a1e565b9286938693899091929394612d4e96613e30565b612d5791612cc6565b938183868691612d6693613f5c565b9383907f0000000000000000000000000000000000000000000000000000000000000000612d9390611509565b612d9c92613d0e565b600590612da891612072565b90612db291612088565b90612dbc9161209e565b612dc590612a38565b91825f0190612dd382611752565b90612ddd91612cc6565b612de691611e83565b9060010190612df482611752565b90612dfe91612cc6565b612e0791611e83565b565b612e1161213c565b612e2a612e24612e1f6130da565b6101b3565b916101b3565b03612e3157565b612e53612e3c6130da565b5f91829163118cdaa760e01b835260048301610e76565b0390fd5b612e6090610a26565b90565b919060a083820312612ed357612ecc90612e7d60a061018f565b93612e8a825f8301612576565b5f860152612e9b8260208301612576565b6020860152612ead8260408301612576565b6040860152612ebf8260608301612576565b6060860152608001611ecd565b6080830152565b610144565b9060a082820312612ef157612eee915f01612e63565b90565b61013c565b612eff90612e57565b9052565b9190612f16905f60208501940190612ef6565b565b90612f8e60806004612f9494612f3b5f8201612f355f8801611025565b9061244d565b612f5460018201612f4e60208801611025565b9061244d565b612f6d60028201612f6760408801611025565b9061244d565b612f8660038201612f8060608801611025565b9061244d565b019201611032565b90611e83565b565b90612fa091612f18565b565b9060a061300393612fd27f0000000000000000000000000000000000000000000000000000000000000000611509565b612ff8612fe3632c3c915793612e57565b92612fec610132565b97889485938493611519565b835260048301612f03565b03915afa90811561306a57613032935f92613034575b5061302861302d92935f6117f2565b611808565b612f96565b565b61302d925061305c6130289160a03d8111613063575b6130548183610166565b810190612ed8565b9250613019565b503d61304a565b61159c565b90613079906117e6565b5f5260205260405f2090565b906130b0602060016130b6946130a85f82016130a25f8801611025565b9061244d565b019201611025565b9061244d565b565b906130c291613085565b565b6130d36130d89291600161306f565b6130b8565b565b6130e2612138565b503390565b1b90565b9190600861310b91029161310560018060a01b03846130e7565b926130e7565b9181191691161790565b919061312b613126613133936117e6565b61244a565b9083546130eb565b9055565b61314991613143612138565b91613115565b565b61315f9061315a5f6003613137565b613f99565b565b613170613176919392936101e2565b926101e2565b916131828382026101e2565b92818404149015171561319157565b611980565b634e487b7160e01b5f52601260045260245ffd5b6131b66131bc916101e2565b916101e2565b9081156131c7570490565b613196565b906131eb6131f0926131dc611713565b506131e5612187565b90613161565b6131aa565b90565b6131ff613205916121bf565b916121bf565b90039060ff821161321257565b611980565b613220906121bf565b604d811161322e57600a0a90565b611980565b61323f613245916101e2565b916101e2565b908115613250570490565b613196565b9161325e611713565b508161327261326c836121bf565b916121bf565b115f146132985761328a61328f9161329594936131f3565b613217565b90613233565b90565b90806132ac6132a6846121bf565b916121bf565b105f146132d2576132c46132c9916132cf94936131f3565b613217565b90613161565b90565b505090565b6fffffffffffffffffffffffffffffffff1690565b6132f5816132d7565b036132fc57565b5f80fd5b9050519061330d826132ec565b565b919060c0838203126133915761338a9061332960c061018f565b93613336825f8301613300565b5f8601526133478260208301613300565b60208601526133598260408301613300565b604086015261336b8260608301613300565b606086015261337d8260808301613300565b608086015260a001613300565b60a0830152565b610144565b9060c0828203126133af576133ac915f0161330f565b90565b61013c565b6133be90516132d7565b90565b6133d56133d06133da926132d7565b610df7565b6101e2565b90565b6133f16133ec6133f692611717565b610df7565b6132d7565b90565b613402906114e1565b90565b61340e906133f9565b90565b61341a906114fd565b90565b90608080613475936134355f8201515f860190611146565b61344760208201516020860190611146565b61345960408201516040860190611146565b61346b60608201516060860190611146565b0151910190610d78565b565b613480906132d7565b9052565b9060a0806134ee9361349c5f8201515f860190613477565b6134ae60208201516020860190613477565b6134c060408201516040860190613477565b6134d260608201516060860190613477565b6134e460808201516080860190613477565b0151910190613477565b565b9160a061351292949361350b6101608201965f83019061341d565b0190613484565b565b613520613526916132d7565b916132d7565b01906fffffffffffffffffffffffffffffffff821161354157565b611980565b90613550906132d7565b9052565b60c06135b791613562611713565b5061356b611713565b50613574611713565b5061357d611713565b5061359061358a85613ffe565b91611509565b6135ac635c60e39a6135a0610132565b95869485938493611519565b835260048301612f03565b03915afa9081156138a2575f91613874575b50906135e9426135e36135de608086016133b4565b6133c1565b90611994565b806135fc6135f65f61171a565b916101e2565b14158061384e575b80613820575b613668575b505061361c5f82016133b4565b613628602083016133b4565b9261366561365f61365961365361364d606061364660408a016133b4565b98016133b4565b956133c1565b966133c1565b946133c1565b926133c1565b90565b602061368661368161367c60608601611025565b613405565b613411565b638c00bf6b93906136a986956136b461369d610132565b97889586948594611519565b8452600484016134f0565b03915afa91821561381b576136f0926136ea915f916137ed575b50916136e46136df604087016133b4565b6133c1565b92614060565b906140d3565b6137186136fc8261421d565b613712604085019161370d836133b4565b613514565b90613546565b61373f6137248261421d565b6137395f850191613734836133b4565b613514565b90613546565b61374b60a083016133b4565b61375d6137575f6133dd565b916132d7565b03613769575b8061360f565b6137cb6137c66137906137e79361378a61378560a088016133b4565b6133c1565b906140d3565b6137ac816137a76137a25f89016133b4565b6133c1565b611994565b6137c06137bb602088016133b4565b6133c1565b91614268565b61421d565b6137e160208401916137dc836133b4565b613514565b90613546565b5f613763565b61380e915060203d8111613814575b6138068183610166565b810190611edc565b5f6136ce565b503d6137fc565b61159c565b5061382d60608301611025565b61384761384161383c5f611866565b6101b3565b916101b3565b141561360a565b5061385b604084016133b4565b61386d6138675f6133dd565b916132d7565b1415613604565b613895915060c03d811161389b575b61388d8183610166565b810190613396565b5f6135c9565b503d613883565b61159c565b90565b6138be6138b96138c3926138a7565b610df7565b6101e2565b90565b6138d060016138aa565b90565b90565b6138ea6138e56138ef926138d3565b610df7565b6101e2565b90565b6138fe620f42406138d6565b90565b9161393361392461393994613914611713565b509361391e6138c6565b90612cc6565b9161392d6138f2565b90612cc6565b916142a4565b90565b613945906114fd565b90565b63ffffffff1690565b63ffffffff60e01b1690565b61397161396c61397692613948565b611519565b613951565b90565b6040906139a26139a9949695939661399860608401985f850190610e69565b6020830190610e69565b019061092a565b565b6004926139e56139f995936139f493946139cc6323b872dd9294919261395d565b936139d5610132565b9788956020870190815201613979565b60208201810382520383610166565b6142e0565b565b91613a1e613a19613a2893613a14613a2f98965f6117f2565b611808565b612397565b928391909161442e565b5050614573565b565b613a3b604061018f565b90565b90613a75613a6c6001613a4f613a31565b94613a66613a5e5f830161183d565b5f8801611d1d565b0161183d565b60208401611d1d565b565b613a8090613a3e565b90565b613a8c906114fd565b90565b613a98906114fd565b90565b9091606082840312613ad057613acd613ab6845f8501611ecd565b93613ac48160208601611ecd565b93604001611ecd565b90565b61013c565b90613b2390606080613b1860808401613af45f8801515f870190611139565b613b0660208801516020870190611146565b6040870151858203604087015261116b565b94015191019061119c565b90565b613b8791608060a0820192613b415f8201515f850190611146565b613b5360208201516020850190610d78565b613b6560408201516040850190611146565b613b7760608201516060850190611146565b0151906080818403910152613ad5565b90565b93613bbf613bda9694613bb5613bcc95613bab60a08a01965f8b0190610e69565b6020890190610e69565b604087019061092a565b8482036060860152613b26565b9160808184039101526113e8565b90565b9194606094613cc5613cba935f93613bf3611713565b50613c3c613c0b613c0660018a9061306f565b613a77565b97613c357f0000000000000000000000000000000000000000000000000000000000000000613a83565b8c9161473a565b613ca4613c687f0000000000000000000000000000000000000000000000000000000000000000613a83565b9763594a88cc95613c7830613a8f565b9a613c8560208401611025565b9d95613c9e613c968b809601611025565b92939461171a565b906148c2565b9091613cae610132565b9a8b998a988997611519565b875260048701613b8a565b03925af1908115613d09575f91613cdb575b5090565b613cfc915060603d8111613d02575b613cf48183610166565b810190613a9b565b50613cd7565b503d613cea565b61159c565b91613d1b613d23936124e3565b91909161493e565b565b9180613d39613d335f61171a565b916101e2565b14613d5457613d4a613d52936124e3565b9190916149fa565b565b505050565b613d629061171a565b9052565b613dc791608060a0820192613d815f8201515f850190611146565b613d9360208201516020850190610d78565b613da560408201516040850190611146565b613db760608201516060850190611146565b0151906080818403910152613ad5565b90565b949091613e2d9694613e06613e1e95613dfc613e1094613df26101408c01985f8d0190610e69565b60208b0190610e69565b6040890190613d59565b6060870190611895565b848203610100860152613d66565b916101208184039101526113e8565b90565b93613f1360609694613ef298613f089597613e5e613e595f97613e51611713565b50600161306f565b613a77565b9a8b99613e9583613e8e7f0000000000000000000000000000000000000000000000000000000000000000613a83565b8391613d0e565b613ebe7f0000000000000000000000000000000000000000000000000000000000000000613a83565b9963c81f847a97613eda6020613ed330613a8f565b9e01611025565b9e613eea8b809997959201611025565b919293614ab7565b9192613efc610132565b9b8c9a8b998a98611519565b885260048801613dca565b03925af1908115613f57575f91613f29575b5090565b613f4a915060603d8111613f50575b613f428183610166565b810190613a9b565b50613f25565b503d613f38565b61159c565b613f88613f83613f94959493613f7e613f8f94613f77611713565b505f6117f2565b611808565b612397565b9182614b53565b614c95565b905090565b613fa3600261183d565b613fae82600261244d565b90613fe2613fdc7f8be0079c531659141344cd1fd0a4f28419497f9722a3daafe3b4186f6b6457e0936117e6565b916117e6565b91613feb610132565b80613ff58161077b565b0390a3565b5f90565b60a090614009613ffa565b502090565b61401f670de0b6b3a764000061216b565b90565b90565b61403961403461403e92614022565b610df7565b6101e2565b90565b90565b61405861405361405d92614041565b610df7565b6101e2565b90565b6140d09161407691614070611713565b50613161565b6140cb61409f8283614099600261409461408e61400e565b91614025565b613161565b91614d72565b6140c581846140bf60036140ba6140b461400e565b91614044565b613161565b91614d72565b92612cc6565b612cc6565b90565b906140f0916140e0611713565b50906140ea61400e565b91614d72565b90565b5f90565b67ffffffffffffffff811161411557614111602091610148565b0190565b610152565b9061412c614127836140f7565b61018f565b918252565b5f7f6d61782075696e74313238206578636565646564000000000000000000000000910152565b614162601461411a565b9061416f60208301614131565b565b614179614158565b90565b614184614171565b90565b5190565b6141aa6141b36020936141b8936141a181614187565b9384809361103f565b95869101611160565b610148565b0190565b6141d19160208201915f81840391015261418b565b90565b156141dc5750565b6141fd906141e8610132565b91829162461bcd60e51b8352600483016141bc565b0390fd5b61421561421061421a926101e2565b610df7565b6132d7565b90565b614265906142296140f3565b506142608161425061424a6fffffffffffffffffffffffffffffffff6133c1565b916101e2565b111561425a61417c565b906141d4565b614201565b90565b9061429b61428c6142a1949361427c611713565b50936142866138f2565b90612cc6565b916142956138c6565b90612cc6565b91614d72565b90565b6142be6142dd93926142d8926142b8611713565b50613161565b6142d2836142cc60016138aa565b90611994565b90612cc6565b613233565b90565b905f6020916142ed611713565b506142f6611713565b50828151910182855af115614389573d5f519061431b6143155f61171a565b916101e2565b145f1461436f575061432c8161393c565b3b61433f6143395f61171a565b916101e2565b145b6143485750565b61435461436b9161393c565b5f918291635274afe760e01b835260048301610e76565b0390fd5b61438261437c60016138aa565b916101e2565b1415614341565b6040513d5f823e3d90fd5b61439d906114fd565b90565b91906040838203126143c857806143bc6143c5925f8601611ecd565b93602001611ecd565b90565b61013c565b6143d85f809261152e565b0190565b919361441361441d929461440961442b976143ff6101208801985f89019061341d565b60a0870190613d59565b60c085019061092a565b60e0830190610e69565b6101008183039101526143cd565b90565b61448260409261443c611713565b50614445611713565b506144515f8401611025565b9061447b7f0000000000000000000000000000000000000000000000000000000000000000611509565b9091613d0e565b61448b30614394565b906144da5f6144b97f0000000000000000000000000000000000000000000000000000000000000000611509565b926144e56320b76e81919583986144ce610132565b998a9889978896611519565b8652600486016143dc565b03925af190811561452f575f809190926144ff575b509091565b9050614522915060403d8111614528575b61451a8183610166565b8101906143a0565b5f6144fa565b503d614510565b61159c565b61456a6145719461456060e09498979561455661010086019a5f87019061341d565b60a085019061092a565b60c0830190610e69565b0190610e69565b565b61457c30614394565b9161458630614394565b6145af7f0000000000000000000000000000000000000000000000000000000000000000611509565b90638720316d93929490823b1561462d575f946145ea86926145df946145d3610132565b998a9889978896611519565b865260048601614534565b03925af18015614628576145fc575b50565b61461b905f3d8111614621575b6146138183610166565b81019061151f565b5f6145f9565b503d614609565b61159c565b611515565b91602061465392949361464c60408201965f830190610e69565b019061092a565b565b906146676146628361022d565b61018f565b918252565b606090565b3d5f1461468c576146813d614655565b903d5f602084013e5b565b61469461466c565b9061468a565b906020828203126146b3576146b0915f016125de565b90565b61013c565b5f7f5361666520417070726f76650000000000000000000000000000000000000000910152565b6146ec600c60209261103f565b6146f5816146b8565b0190565b61470e9060208101905f8183039101526146df565b90565b1561471857565b614720610132565b62461bcd60e51b815280614736600482016146f9565b0390fd5b61479992600461477b5f9461476c86959463095ea7b360e01b9261475c610132565b9586946020860190815201614632565b60208201810382520382610166565b82602082019151925af161478d614671565b8161479b575b50614711565b565b90506147a681611153565b6147b86147b25f61171a565b916101e2565b149081156147c8575b505f614793565b6147e3915060206147d882611153565b81830101910161469a565b5f6147c1565b6147f360a061018f565b90565b5f90565b614804608061018f565b90565b5f90565b606090565b5f90565b61481c6147fa565b9060208080808561482b614807565b8152016148366147f6565b81520161484161480b565b81520161484c614810565b81525050565b61485a614814565b90565b6148656147e9565b90602080808080866148756147f6565b81520161488061203d565b81520161488b6147f6565b8152016148966147f6565b8152016148a1614852565b81525050565b6148af61485d565b90565b6148bc60a061018f565b90565b52565b93614906614918946148fd61490f94976148da6148a7565b5097959193956148f46148eb6148b2565b995f8b01611d1d565b602089016120b4565b60408701611d1d565b60608501611d1d565b608083016148bf565b90565b91602061493c92949361493560408201965f830190610e69565b0190613d59565b565b909161498160049161497263095ea7b361495987939161395d565b92614962610132565b9586946020860190815201614632565b60208201810382520382610166565b90614996614990828490614d95565b156102b4565b6149a0575b505050565b6149ed60046149f2946149e884916149d963095ea7b36149c05f9161395d565b926149c9610132565b968794602086019081520161491b565b60208201810382520383610166565b6142e0565b6142e0565b5f808061499b565b90614a41614a4693614a3260049493614a1963a9059cbb91939161395d565b92614a22610132565b9687946020860190815201614632565b60208201810382520383610166565b6142e0565b565b614a5260a061018f565b90565b614a5d614a48565b9060208080808086614a6d6147f6565b815201614a7861203d565b815201614a836147f6565b815201614a8e6147f6565b815201614a99614852565b81525050565b614aa7614a55565b90565b614ab460a061018f565b90565b93614afb614b0d94614af2614b049497614acf614a9f565b509795919395614ae9614ae0614aaa565b995f8b01611d1d565b602089016120b4565b60408701611d1d565b60608501611d1d565b608083016148bf565b90565b9091614b5093614b39614b4392614b2f6101008601965f87019061341d565b60a085019061092a565b60c0830190610e69565b60e08183039101526143cd565b90565b614b92614b6260208301611025565b614b8b7f0000000000000000000000000000000000000000000000000000000000000000611509565b849161473a565b614bbb7f0000000000000000000000000000000000000000000000000000000000000000611509565b9163238d6579919092614bcd30614394565b92813b15614c41575f614bf391614bfe8296614be7610132565b98899788968795611519565b855260048501614b10565b03925af18015614c3c57614c10575b50565b614c2f905f3d8111614c35575b614c278183610166565b81019061151f565b5f614c0d565b503d614c1d565b61159c565b611515565b90959492614c9394614c82614c8c92614c7861010096614c6e61012088019c5f89019061341d565b60a087019061092a565b60c085019061092a565b60e0830190610e69565b0190610e69565b565b90604090614ca1611713565b50614caa611713565b50614cb3611713565b92614d185f614cc130614394565b92614d23614cce30614394565b94614cf87f0000000000000000000000000000000000000000000000000000000000000000611509565b956350d8cd4b939799919091614d0c610132565b9a8b998a988997611519565b875260048701614c46565b03925af1908115614d6d575f80919092614d3d575b509091565b9050614d60915060403d8111614d66575b614d588183610166565b8101906143a0565b5f614d38565b503d614d4e565b61159c565b614d8e9291614d8991614d83611713565b50613161565b613233565b90565b5f90565b905f602091614da2614d91565b50614dab614d91565b50614db4611713565b50614dbd611713565b50828151910182855af13d915f51919283614dd9575b50505090565b90919250614def614de95f61171a565b916101e2565b145f14614e1d57614e00915061393c565b3b614e13614e0d5f61171a565b916101e2565b115b5f8080614dd3565b50614e31614e2b60016138aa565b916101e2565b14614e1556fea2646970667358221220613697dd8e92231a591e3f3d127878c9318f9641189e146e35aef007e9593c7264736f6c634300081e0033","linkReferences":{}},"methodIdentifiers":{"LIQUIDATION_BUFFER()":"83da2a3c","acceptOwnership()":"79ba5097","addSupportedCollateralTokens((address,address,bytes32,address,address)[])":"34692f5b","calcLoanAmount(address,address,uint256)":"b3ec4046","getAmountUserCollateralCap()":"abb778aa","getMaxLtv(address,address)":"62fd6add","getSharesToAsset(address,address,uint256)":"ccf5e8ef","getTokenUsdValue(address,uint256)":"73b267d7","getUserLeveragePosition(address,address,address)":"7d685b40","leverage((address,address,uint256,(uint256,uint256,uint256,uint256,uint256),address,(uint8,address,bytes,bool),(address,uint256,((uint256,uint256,uint256,uint8,address,address,address,address,uint256,uint256,uint256,bytes),bytes,uint256)[],((uint256,uint256,uint256,uint8,address,address,address,address,uint256,uint256,uint256,bytes),bytes,uint256)[],bytes)))":"31dea21b","onMorphoFlashLoan(uint256,bytes)":"31f57072","owner()":"8da5cb5b","pendingOwner()":"e30c3978","renounceOwnership()":"715018a6","setAmountUserCollateralCap(uint256)":"69558a2a","transferOwnership(address)":"f2fde38b","unleverage((address,address,uint256,uint256,address,(uint8,address,bytes,bool),(address,uint256,((uint256,uint256,uint256,uint8,address,address,address,address,uint256,uint256,uint256,bytes),bytes,uint256)[],((uint256,uint256,uint256,uint8,address,address,address,address,uint256,uint256,uint256,bytes),bytes,uint256)[],bytes)))":"1d09cc7e"},"id":100}