{"abi":[{"type":"constructor","inputs":[{"name":"pyUSD","type":"address","internalType":"address"},{"name":"flashLeverage","type":"address","internalType":"address"}],"stateMutability":"nonpayable"},{"type":"function","name":"acceptOwnership","inputs":[],"outputs":[],"stateMutability":"nonpayable"},{"type":"function","name":"addSupportedCollateralTokens","inputs":[{"name":"collateralTokens","type":"address[]","internalType":"address[]"},{"name":"curvePools","type":"address[]","internalType":"address[]"}],"outputs":[],"stateMutability":"nonpayable"},{"type":"function","name":"leverage","inputs":[{"name":"collateralToken","type":"address","internalType":"address"},{"name":"desiredLtv","type":"uint256","internalType":"uint256"},{"name":"amountPyUsd","type":"uint256","internalType":"uint256"}],"outputs":[],"stateMutability":"nonpayable"},{"type":"function","name":"owner","inputs":[],"outputs":[{"name":"","type":"address","internalType":"address"}],"stateMutability":"view"},{"type":"function","name":"pendingOwner","inputs":[],"outputs":[{"name":"","type":"address","internalType":"address"}],"stateMutability":"view"},{"type":"function","name":"renounceOwnership","inputs":[],"outputs":[],"stateMutability":"nonpayable"},{"type":"function","name":"transferOwnership","inputs":[{"name":"newOwner","type":"address","internalType":"address"}],"outputs":[],"stateMutability":"nonpayable"},{"type":"event","name":"OwnershipTransferStarted","inputs":[{"name":"previousOwner","type":"address","indexed":true,"internalType":"address"},{"name":"newOwner","type":"address","indexed":true,"internalType":"address"}],"anonymous":false},{"type":"event","name":"OwnershipTransferred","inputs":[{"name":"previousOwner","type":"address","indexed":true,"internalType":"address"},{"name":"newOwner","type":"address","indexed":true,"internalType":"address"}],"anonymous":false},{"type":"error","name":"OwnableInvalidOwner","inputs":[{"name":"owner","type":"address","internalType":"address"}]},{"type":"error","name":"OwnableUnauthorizedAccount","inputs":[{"name":"account","type":"address","internalType":"address"}]},{"type":"error","name":"PositionManager__InvalidTokenAddress","inputs":[]},{"type":"error","name":"SafeERC20FailedOperation","inputs":[{"name":"token","type":"address","internalType":"address"}]}],"bytecode":{"object":"0x60c060405234801561000f575f5ffd5b5060405161158438038061158483398181016040528101906100319190610276565b335f73ffffffffffffffffffffffffffffffffffffffff168173ffffffffffffffffffffffffffffffffffffffff16036100a2575f6040517f1e4fbdf700000000000000000000000000000000000000000000000000000000815260040161009991906102c3565b60405180910390fd5b6100b18161012160201b60201c565b508073ffffffffffffffffffffffffffffffffffffffff1660808173ffffffffffffffffffffffffffffffffffffffff16815250508173ffffffffffffffffffffffffffffffffffffffff1660a08173ffffffffffffffffffffffffffffffffffffffff168152505050506102dc565b60015f6101000a81549073ffffffffffffffffffffffffffffffffffffffff02191690556101548161015760201b60201c565b50565b5f5f5f9054906101000a900473ffffffffffffffffffffffffffffffffffffffff169050815f5f6101000a81548173ffffffffffffffffffffffffffffffffffffffff021916908373ffffffffffffffffffffffffffffffffffffffff1602179055508173ffffffffffffffffffffffffffffffffffffffff168173ffffffffffffffffffffffffffffffffffffffff167f8be0079c531659141344cd1fd0a4f28419497f9722a3daafe3b4186f6b6457e060405160405180910390a35050565b5f5ffd5b5f73ffffffffffffffffffffffffffffffffffffffff82169050919050565b5f6102458261021c565b9050919050565b6102558161023b565b811461025f575f5ffd5b50565b5f815190506102708161024c565b92915050565b5f5f6040838503121561028c5761028b610218565b5b5f61029985828601610262565b92505060206102aa85828601610262565b9150509250929050565b6102bd8161023b565b82525050565b5f6020820190506102d65f8301846102b4565b92915050565b60805160a05161127961030b5f395f818161012801526101b301525f818161026d015261029401526112795ff3fe608060405234801561000f575f5ffd5b506004361061007b575f3560e01c806379ba50971161005957806379ba5097146100c15780638da5cb5b146100cb578063e30c3978146100e9578063f2fde38b146101075761007b565b80631ef240551461007f5780634b7f11a71461009b578063715018a6146100b7575b5f5ffd5b61009960048036038101906100949190610c06565b610123565b005b6100b560048036038101906100b09190610da6565b610325565b005b6100bf6104bf565b005b6100c96104d2565b005b6100d3610560565b6040516100e09190610e2b565b60405180910390f35b6100f1610587565b6040516100fe9190610e2b565b60405180910390f35b610121600480360381019061011c9190610e44565b6105af565b005b61014e7f0000000000000000000000000000000000000000000000000000000000000000338361065b565b5f60025f8573ffffffffffffffffffffffffffffffffffffffff1673ffffffffffffffffffffffffffffffffffffffff1681526020019081526020015f205f9054906101000a900473ffffffffffffffffffffffffffffffffffffffff1690506101d97f00000000000000000000000000000000000000000000000000000000000000008284610696565b5f8173ffffffffffffffffffffffffffffffffffffffff1663a64833a060015f865f306040518663ffffffff1660e01b815260040161021c959493929190610ef9565b6020604051808303815f875af1158015610238573d5f5f3e3d5ffd5b505050506040513d601f19601f8201168201806040525081019061025c9190610f5e565b9050610267816107e5565b610292857f000000000000000000000000000000000000000000000000000000000000000083610696565b7f000000000000000000000000000000000000000000000000000000000000000073ffffffffffffffffffffffffffffffffffffffff1663a230922e338784886040518563ffffffff1660e01b81526004016102f19493929190610f89565b5f604051808303815f87803b158015610308575f5ffd5b505af115801561031a573d5f5f3e3d5ffd5b505050505050505050565b61032d61087e565b8051825114610371576040517f08c379a000000000000000000000000000000000000000000000000000000000815260040161036890611026565b60405180910390fd5b5f5f90505b82518110156104ba575f73ffffffffffffffffffffffffffffffffffffffff168382815181106103a9576103a8611044565b5b602002602001015173ffffffffffffffffffffffffffffffffffffffff16036103fe576040517f8c459d2e00000000000000000000000000000000000000000000000000000000815260040160405180910390fd5b81818151811061041157610410611044565b5b602002602001015160025f85848151811061042f5761042e611044565b5b602002602001015173ffffffffffffffffffffffffffffffffffffffff1673ffffffffffffffffffffffffffffffffffffffff1681526020019081526020015f205f6101000a81548173ffffffffffffffffffffffffffffffffffffffff021916908373ffffffffffffffffffffffffffffffffffffffff1602179055508080600101915050610376565b505050565b6104c761087e565b6104d05f610905565b565b5f6104db610935565b90508073ffffffffffffffffffffffffffffffffffffffff166104fc610587565b73ffffffffffffffffffffffffffffffffffffffff161461055457806040517f118cdaa700000000000000000000000000000000000000000000000000000000815260040161054b9190610e2b565b60405180910390fd5b61055d81610905565b50565b5f5f5f9054906101000a900473ffffffffffffffffffffffffffffffffffffffff16905090565b5f60015f9054906101000a900473ffffffffffffffffffffffffffffffffffffffff16905090565b6105b761087e565b8060015f6101000a81548173ffffffffffffffffffffffffffffffffffffffff021916908373ffffffffffffffffffffffffffffffffffffffff1602179055508073ffffffffffffffffffffffffffffffffffffffff16610616610560565b73ffffffffffffffffffffffffffffffffffffffff167f38d16b8cac22d99fc7c124b9cd0de2d3fa1faef420bfe791d8c362d765e2270060405160405180910390a350565b5f810315610691576106908230838673ffffffffffffffffffffffffffffffffffffffff1661093c909392919063ffffffff16565b5b505050565b5f5f8473ffffffffffffffffffffffffffffffffffffffff1663095ea7b360e01b85856040516024016106ca929190611071565b604051602081830303815290604052907bffffffffffffffffffffffffffffffffffffffffffffffffffffffff19166020820180517bffffffffffffffffffffffffffffffffffffffffffffffffffffffff838183161783525050505060405161073491906110ea565b5f604051808303815f865af19150503d805f811461076d576040519150601f19603f3d011682016040523d82523d5f602084013e610772565b606091505b509150915081801561079f57505f8151148061079e57508080602001905181019061079d9190611135565b5b5b6107de576040517f08c379a00000000000000000000000000000000000000000000000000000000081526004016107d5906111aa565b60405180910390fd5b5050505050565b61087b816040516024016107f991906111c8565b6040516020818303038152906040527ff82c50f1000000000000000000000000000000000000000000000000000000007bffffffffffffffffffffffffffffffffffffffffffffffffffffffff19166020820180517bffffffffffffffffffffffffffffffffffffffffffffffffffffffff83818316178352505050506109be565b50565b610886610935565b73ffffffffffffffffffffffffffffffffffffffff166108a4610560565b73ffffffffffffffffffffffffffffffffffffffff1614610903576108c7610935565b6040517f118cdaa70000000000000000000000000000000000000000000000000000000081526004016108fa9190610e2b565b60405180910390fd5b565b60015f6101000a81549073ffffffffffffffffffffffffffffffffffffffff0219169055610932816109d8565b50565b5f33905090565b6109b8848573ffffffffffffffffffffffffffffffffffffffff166323b872dd868686604051602401610971939291906111e1565b604051602081830303815290604052915060e01b6020820180517bffffffffffffffffffffffffffffffffffffffffffffffffffffffff8381831617835250505050610a99565b50505050565b6109d5816109cd610b34610b53565b63ffffffff16565b50565b5f5f5f9054906101000a900473ffffffffffffffffffffffffffffffffffffffff169050815f5f6101000a81548173ffffffffffffffffffffffffffffffffffffffff021916908373ffffffffffffffffffffffffffffffffffffffff1602179055508173ffffffffffffffffffffffffffffffffffffffff168173ffffffffffffffffffffffffffffffffffffffff167f8be0079c531659141344cd1fd0a4f28419497f9722a3daafe3b4186f6b6457e060405160405180910390a35050565b5f5f60205f8451602086015f885af180610ab8576040513d5f823e3d81fd5b3d92505f519150505f8214610ad1576001811415610aec565b5f8473ffffffffffffffffffffffffffffffffffffffff163b145b15610b2e57836040517f5274afe7000000000000000000000000000000000000000000000000000000008152600401610b259190610e2b565b60405180910390fd5b50505050565b5f6a636f6e736f6c652e6c6f6790505f5f835160208501845afa505050565b610b5e819050919050565b610b66611216565b565b5f604051905090565b5f5ffd5b5f5ffd5b5f73ffffffffffffffffffffffffffffffffffffffff82169050919050565b5f610ba282610b79565b9050919050565b610bb281610b98565b8114610bbc575f5ffd5b50565b5f81359050610bcd81610ba9565b92915050565b5f819050919050565b610be581610bd3565b8114610bef575f5ffd5b50565b5f81359050610c0081610bdc565b92915050565b5f5f5f60608486031215610c1d57610c1c610b71565b5b5f610c2a86828701610bbf565b9350506020610c3b86828701610bf2565b9250506040610c4c86828701610bf2565b9150509250925092565b5f5ffd5b5f601f19601f8301169050919050565b7f4e487b71000000000000000000000000000000000000000000000000000000005f52604160045260245ffd5b610ca082610c5a565b810181811067ffffffffffffffff82111715610cbf57610cbe610c6a565b5b80604052505050565b5f610cd1610b68565b9050610cdd8282610c97565b919050565b5f67ffffffffffffffff821115610cfc57610cfb610c6a565b5b602082029050602081019050919050565b5f5ffd5b5f610d23610d1e84610ce2565b610cc8565b90508083825260208201905060208402830185811115610d4657610d45610d0d565b5b835b81811015610d6f5780610d5b8882610bbf565b845260208401935050602081019050610d48565b5050509392505050565b5f82601f830112610d8d57610d8c610c56565b5b8135610d9d848260208601610d11565b91505092915050565b5f5f60408385031215610dbc57610dbb610b71565b5b5f83013567ffffffffffffffff811115610dd957610dd8610b75565b5b610de585828601610d79565b925050602083013567ffffffffffffffff811115610e0657610e05610b75565b5b610e1285828601610d79565b9150509250929050565b610e2581610b98565b82525050565b5f602082019050610e3e5f830184610e1c565b92915050565b5f60208284031215610e5957610e58610b71565b5b5f610e6684828501610bbf565b91505092915050565b5f819050919050565b5f819050919050565b5f610e9b610e96610e9184610e6f565b610e78565b610bd3565b9050919050565b610eab81610e81565b82525050565b5f819050919050565b5f610ed4610ecf610eca84610eb1565b610e78565b610bd3565b9050919050565b610ee481610eba565b82525050565b610ef381610bd3565b82525050565b5f60a082019050610f0c5f830188610ea2565b610f196020830187610edb565b610f266040830186610eea565b610f336060830185610edb565b610f406080830184610e1c565b9695505050505050565b5f81519050610f5881610bdc565b92915050565b5f60208284031215610f7357610f72610b71565b5b5f610f8084828501610f4a565b91505092915050565b5f608082019050610f9c5f830187610e1c565b610fa96020830186610e1c565b610fb66040830185610eea565b610fc36060830184610eea565b95945050505050565b5f82825260208201905092915050565b7f4c656e677468204d69736d6174636800000000000000000000000000000000005f82015250565b5f611010600f83610fcc565b915061101b82610fdc565b602082019050919050565b5f6020820190508181035f83015261103d81611004565b9050919050565b7f4e487b71000000000000000000000000000000000000000000000000000000005f52603260045260245ffd5b5f6040820190506110845f830185610e1c565b6110916020830184610eea565b9392505050565b5f81519050919050565b5f81905092915050565b8281835e5f83830152505050565b5f6110c482611098565b6110ce81856110a2565b93506110de8185602086016110ac565b80840191505092915050565b5f6110f582846110ba565b915081905092915050565b5f8115159050919050565b61111481611100565b811461111e575f5ffd5b50565b5f8151905061112f8161110b565b92915050565b5f6020828403121561114a57611149610b71565b5b5f61115784828501611121565b91505092915050565b7f5361666520417070726f766500000000000000000000000000000000000000005f82015250565b5f611194600c83610fcc565b915061119f82611160565b602082019050919050565b5f6020820190508181035f8301526111c181611188565b9050919050565b5f6020820190506111db5f830184610eea565b92915050565b5f6060820190506111f45f830186610e1c565b6112016020830185610e1c565b61120e6040830184610eea565b949350505050565b7f4e487b71000000000000000000000000000000000000000000000000000000005f52605160045260245ffdfea2646970667358221220986d6bb071a818edea17504d3aec9681fb752da9591352db37c948f621da6d2664736f6c634300081e0033","linkReferences":{}},"methodIdentifiers":{"acceptOwnership()":"79ba5097","addSupportedCollateralTokens(address[],address[])":"4b7f11a7","leverage(address,uint256,uint256)":"1ef24055","owner()":"8da5cb5b","pendingOwner()":"e30c3978","renounceOwnership()":"715018a6","transferOwnership(address)":"f2fde38b"},"id":74}