{"abi":[{"type":"constructor","inputs":[{"name":"positionManager","type":"address","internalType":"address"},{"name":"pyUSD","type":"address","internalType":"address"},{"name":"curvePool","type":"address","internalType":"address"}],"stateMutability":"nonpayable"},{"type":"function","name":"acceptOwnership","inputs":[],"outputs":[],"stateMutability":"nonpayable"},{"type":"function","name":"openPosition","inputs":[{"name":"collateralToken","type":"address","internalType":"address"},{"name":"amountCollateral","type":"uint256","internalType":"uint256"},{"name":"amountToMint","type":"uint256","internalType":"uint256"}],"outputs":[{"name":"positionId","type":"uint256","internalType":"uint256"}],"stateMutability":"nonpayable"},{"type":"function","name":"owner","inputs":[],"outputs":[{"name":"","type":"address","internalType":"address"}],"stateMutability":"view"},{"type":"function","name":"pendingOwner","inputs":[],"outputs":[{"name":"","type":"address","internalType":"address"}],"stateMutability":"view"},{"type":"function","name":"renounceOwnership","inputs":[],"outputs":[],"stateMutability":"nonpayable"},{"type":"function","name":"transferOwnership","inputs":[{"name":"newOwner","type":"address","internalType":"address"}],"outputs":[],"stateMutability":"nonpayable"},{"type":"function","name":"updateCurvePoolAddress","inputs":[{"name":"curvePool","type":"address","internalType":"address"}],"outputs":[],"stateMutability":"nonpayable"},{"type":"event","name":"OwnershipTransferStarted","inputs":[{"name":"previousOwner","type":"address","indexed":true,"internalType":"address"},{"name":"newOwner","type":"address","indexed":true,"internalType":"address"}],"anonymous":false},{"type":"event","name":"OwnershipTransferred","inputs":[{"name":"previousOwner","type":"address","indexed":true,"internalType":"address"},{"name":"newOwner","type":"address","indexed":true,"internalType":"address"}],"anonymous":false},{"type":"error","name":"OwnableInvalidOwner","inputs":[{"name":"owner","type":"address","internalType":"address"}]},{"type":"error","name":"OwnableUnauthorizedAccount","inputs":[{"name":"account","type":"address","internalType":"address"}]},{"type":"error","name":"SafeERC20FailedOperation","inputs":[{"name":"token","type":"address","internalType":"address"}]}],"bytecode":{"object":"0x60e060405234801561000f575f5ffd5b5060405161125f38038061125f83398181016040528101906100319190610359565b335f73ffffffffffffffffffffffffffffffffffffffff168173ffffffffffffffffffffffffffffffffffffffff16036100a2575f6040517f1e4fbdf700000000000000000000000000000000000000000000000000000000815260040161009991906103b8565b60405180910390fd5b6100b18161020460201b60201c565b508273ffffffffffffffffffffffffffffffffffffffff1660808173ffffffffffffffffffffffffffffffffffffffff168152505060805173ffffffffffffffffffffffffffffffffffffffff166355b74db06040518163ffffffff1660e01b8152600401602060405180830381865afa158015610131573d5f5f3e3d5ffd5b505050506040513d601f19601f8201168201806040525081019061015591906103d1565b73ffffffffffffffffffffffffffffffffffffffff1660a08173ffffffffffffffffffffffffffffffffffffffff16815250508173ffffffffffffffffffffffffffffffffffffffff1660c08173ffffffffffffffffffffffffffffffffffffffff16815250508060025f6101000a81548173ffffffffffffffffffffffffffffffffffffffff021916908373ffffffffffffffffffffffffffffffffffffffff1602179055505050506103fc565b60015f6101000a81549073ffffffffffffffffffffffffffffffffffffffff02191690556102378161023a60201b60201c565b50565b5f5f5f9054906101000a900473ffffffffffffffffffffffffffffffffffffffff169050815f5f6101000a81548173ffffffffffffffffffffffffffffffffffffffff021916908373ffffffffffffffffffffffffffffffffffffffff1602179055508173ffffffffffffffffffffffffffffffffffffffff168173ffffffffffffffffffffffffffffffffffffffff167f8be0079c531659141344cd1fd0a4f28419497f9722a3daafe3b4186f6b6457e060405160405180910390a35050565b5f5ffd5b5f73ffffffffffffffffffffffffffffffffffffffff82169050919050565b5f610328826102ff565b9050919050565b6103388161031e565b8114610342575f5ffd5b50565b5f815190506103538161032f565b92915050565b5f5f5f606084860312156103705761036f6102fb565b5b5f61037d86828701610345565b935050602061038e86828701610345565b925050604061039f86828701610345565b9150509250925092565b6103b28161031e565b82525050565b5f6020820190506103cb5f8301846103a9565b92915050565b5f602082840312156103e6576103e56102fb565b5b5f6103f384828501610345565b91505092915050565b60805160a05160c051610e2e6104315f395f50505f6102da01525f81816102110152818161023801526103c70152610e2e5ff3fe608060405234801561000f575f5ffd5b506004361061007b575f3560e01c8063c5654acc11610059578063c5654acc146100b1578063d3c20e0d146100e1578063e30c3978146100fd578063f2fde38b1461011b5761007b565b8063715018a61461007f57806379ba5097146100895780638da5cb5b14610093575b5f5ffd5b610087610137565b005b61009161014a565b005b61009b6101d8565b6040516100a891906109d8565b60405180910390f35b6100cb60048036038101906100c69190610a52565b6101ff565b6040516100d89190610ab1565b60405180910390f35b6100fb60048036038101906100f69190610aca565b610454565b005b61010561049f565b60405161011291906109d8565b60405180910390f35b61013560048036038101906101309190610aca565b6104c7565b005b61013f610573565b6101485f6105fa565b565b5f61015361062a565b90508073ffffffffffffffffffffffffffffffffffffffff1661017461049f565b73ffffffffffffffffffffffffffffffffffffffff16146101cc57806040517f118cdaa70000000000000000000000000000000000000000000000000000000081526004016101c391906109d8565b60405180910390fd5b6101d5816105fa565b50565b5f5f5f9054906101000a900473ffffffffffffffffffffffffffffffffffffffff16905090565b5f61020b843385610631565b610236847f00000000000000000000000000000000000000000000000000000000000000008561066c565b7f000000000000000000000000000000000000000000000000000000000000000073ffffffffffffffffffffffffffffffffffffffff1663c5654acc8585856040518463ffffffff1660e01b815260040161029393929190610af5565b6020604051808303815f875af11580156102af573d5f5f3e3d5ffd5b505050506040513d601f19601f820116820180604052508101906102d39190610b3e565b90506103217f000000000000000000000000000000000000000000000000000000000000000060025f9054906101000a900473ffffffffffffffffffffffffffffffffffffffff168461066c565b60025f9054906101000a900473ffffffffffffffffffffffffffffffffffffffff1673ffffffffffffffffffffffffffffffffffffffff1663a64833a060015f855f336040518663ffffffff1660e01b8152600401610384959493929190610be4565b6020604051808303815f875af11580156103a0573d5f5f3e3d5ffd5b505050506040513d601f19601f820116820180604052508101906103c49190610b3e565b507f000000000000000000000000000000000000000000000000000000000000000073ffffffffffffffffffffffffffffffffffffffff1663751f890682336040518363ffffffff1660e01b8152600401610420929190610c35565b5f604051808303815f87803b158015610437575f5ffd5b505af1158015610449573d5f5f3e3d5ffd5b505050509392505050565b61045c610573565b8060025f6101000a81548173ffffffffffffffffffffffffffffffffffffffff021916908373ffffffffffffffffffffffffffffffffffffffff16021790555050565b5f60015f9054906101000a900473ffffffffffffffffffffffffffffffffffffffff16905090565b6104cf610573565b8060015f6101000a81548173ffffffffffffffffffffffffffffffffffffffff021916908373ffffffffffffffffffffffffffffffffffffffff1602179055508073ffffffffffffffffffffffffffffffffffffffff1661052e6101d8565b73ffffffffffffffffffffffffffffffffffffffff167f38d16b8cac22d99fc7c124b9cd0de2d3fa1faef420bfe791d8c362d765e2270060405160405180910390a350565b61057b61062a565b73ffffffffffffffffffffffffffffffffffffffff166105996101d8565b73ffffffffffffffffffffffffffffffffffffffff16146105f8576105bc61062a565b6040517f118cdaa70000000000000000000000000000000000000000000000000000000081526004016105ef91906109d8565b60405180910390fd5b565b60015f6101000a81549073ffffffffffffffffffffffffffffffffffffffff0219169055610627816107bb565b50565b5f33905090565b5f810315610667576106668230838673ffffffffffffffffffffffffffffffffffffffff1661087c909392919063ffffffff16565b5b505050565b5f5f8473ffffffffffffffffffffffffffffffffffffffff1663095ea7b360e01b85856040516024016106a0929190610c5c565b604051602081830303815290604052907bffffffffffffffffffffffffffffffffffffffffffffffffffffffff19166020820180517bffffffffffffffffffffffffffffffffffffffffffffffffffffffff838183161783525050505060405161070a9190610cd5565b5f604051808303815f865af19150503d805f8114610743576040519150601f19603f3d011682016040523d82523d5f602084013e610748565b606091505b509150915081801561077557505f815114806107745750808060200190518101906107739190610d20565b5b5b6107b4576040517f08c379a00000000000000000000000000000000000000000000000000000000081526004016107ab90610da5565b60405180910390fd5b5050505050565b5f5f5f9054906101000a900473ffffffffffffffffffffffffffffffffffffffff169050815f5f6101000a81548173ffffffffffffffffffffffffffffffffffffffff021916908373ffffffffffffffffffffffffffffffffffffffff1602179055508173ffffffffffffffffffffffffffffffffffffffff168173ffffffffffffffffffffffffffffffffffffffff167f8be0079c531659141344cd1fd0a4f28419497f9722a3daafe3b4186f6b6457e060405160405180910390a35050565b6108f8848573ffffffffffffffffffffffffffffffffffffffff166323b872dd8686866040516024016108b193929190610dc3565b604051602081830303815290604052915060e01b6020820180517bffffffffffffffffffffffffffffffffffffffffffffffffffffffff83818316178352505050506108fe565b50505050565b5f5f60205f8451602086015f885af18061091d576040513d5f823e3d81fd5b3d92505f519150505f8214610936576001811415610951565b5f8473ffffffffffffffffffffffffffffffffffffffff163b145b1561099357836040517f5274afe700000000000000000000000000000000000000000000000000000000815260040161098a91906109d8565b60405180910390fd5b50505050565b5f73ffffffffffffffffffffffffffffffffffffffff82169050919050565b5f6109c282610999565b9050919050565b6109d2816109b8565b82525050565b5f6020820190506109eb5f8301846109c9565b92915050565b5f5ffd5b6109fe816109b8565b8114610a08575f5ffd5b50565b5f81359050610a19816109f5565b92915050565b5f819050919050565b610a3181610a1f565b8114610a3b575f5ffd5b50565b5f81359050610a4c81610a28565b92915050565b5f5f5f60608486031215610a6957610a686109f1565b5b5f610a7686828701610a0b565b9350506020610a8786828701610a3e565b9250506040610a9886828701610a3e565b9150509250925092565b610aab81610a1f565b82525050565b5f602082019050610ac45f830184610aa2565b92915050565b5f60208284031215610adf57610ade6109f1565b5b5f610aec84828501610a0b565b91505092915050565b5f606082019050610b085f8301866109c9565b610b156020830185610aa2565b610b226040830184610aa2565b949350505050565b5f81519050610b3881610a28565b92915050565b5f60208284031215610b5357610b526109f1565b5b5f610b6084828501610b2a565b91505092915050565b5f819050919050565b5f819050919050565b5f610b95610b90610b8b84610b69565b610b72565b610a1f565b9050919050565b610ba581610b7b565b82525050565b5f819050919050565b5f610bce610bc9610bc484610bab565b610b72565b610a1f565b9050919050565b610bde81610bb4565b82525050565b5f60a082019050610bf75f830188610b9c565b610c046020830187610bd5565b610c116040830186610aa2565b610c1e6060830185610bd5565b610c2b60808301846109c9565b9695505050505050565b5f604082019050610c485f830185610aa2565b610c5560208301846109c9565b9392505050565b5f604082019050610c6f5f8301856109c9565b610c7c6020830184610aa2565b9392505050565b5f81519050919050565b5f81905092915050565b8281835e5f83830152505050565b5f610caf82610c83565b610cb98185610c8d565b9350610cc9818560208601610c97565b80840191505092915050565b5f610ce08284610ca5565b915081905092915050565b5f8115159050919050565b610cff81610ceb565b8114610d09575f5ffd5b50565b5f81519050610d1a81610cf6565b92915050565b5f60208284031215610d3557610d346109f1565b5b5f610d4284828501610d0c565b91505092915050565b5f82825260208201905092915050565b7f5361666520417070726f766500000000000000000000000000000000000000005f82015250565b5f610d8f600c83610d4b565b9150610d9a82610d5b565b602082019050919050565b5f6020820190508181035f830152610dbc81610d83565b9050919050565b5f606082019050610dd65f8301866109c9565b610de360208301856109c9565b610df06040830184610aa2565b94935050505056fea2646970667358221220debb7558a98ce3169bd21ed6672151c6df581c14bf306a0008f32ae5567034ec64736f6c634300081e0033","linkReferences":{}},"methodIdentifiers":{"acceptOwnership()":"79ba5097","openPosition(address,uint256,uint256)":"c5654acc","owner()":"8da5cb5b","pendingOwner()":"e30c3978","renounceOwnership()":"715018a6","transferOwnership(address)":"f2fde38b","updateCurvePoolAddress(address)":"d3c20e0d"},"id":73}