{"abi":[{"type":"constructor","inputs":[{"name":"positionManagerAddress","type":"address","internalType":"address"},{"name":"treasury","type":"address","internalType":"address"}],"stateMutability":"nonpayable"},{"type":"function","name":"MAX_LEVERAGE_LTV","inputs":[],"outputs":[{"name":"","type":"uint256","internalType":"uint256"}],"stateMutability":"view"},{"type":"function","name":"acceptOwnership","inputs":[],"outputs":[],"stateMutability":"nonpayable"},{"type":"function","name":"addSupportedCollateralTokens","inputs":[{"name":"collateralTokens","type":"address[]","internalType":"address[]"},{"name":"curvePools","type":"address[]","internalType":"address[]"}],"outputs":[],"stateMutability":"nonpayable"},{"type":"function","name":"getUserLeveragePositions","inputs":[{"name":"user","type":"address","internalType":"address"}],"outputs":[{"name":"","type":"tuple[]","internalType":"struct LeveragePosition[]","components":[{"name":"debtPositionId","type":"uint256","internalType":"uint256"},{"name":"userCollateralDeposited","type":"uint256","internalType":"uint256"}]}],"stateMutability":"view"},{"type":"function","name":"leverage","inputs":[{"name":"collateralToken","type":"address","internalType":"address"},{"name":"userCollateralAmount","type":"uint256","internalType":"uint256"},{"name":"desiredLtv","type":"uint256","internalType":"uint256"}],"outputs":[],"stateMutability":"nonpayable"},{"type":"function","name":"onFlashLoan","inputs":[{"name":"initiator","type":"address","internalType":"address"},{"name":"token","type":"address","internalType":"address"},{"name":"amountLoan","type":"uint256","internalType":"uint256"},{"name":"fee","type":"uint256","internalType":"uint256"},{"name":"data","type":"bytes","internalType":"bytes"}],"outputs":[{"name":"","type":"bytes32","internalType":"bytes32"}],"stateMutability":"nonpayable"},{"type":"function","name":"owner","inputs":[],"outputs":[{"name":"","type":"address","internalType":"address"}],"stateMutability":"view"},{"type":"function","name":"pendingOwner","inputs":[],"outputs":[{"name":"","type":"address","internalType":"address"}],"stateMutability":"view"},{"type":"function","name":"renounceOwnership","inputs":[],"outputs":[],"stateMutability":"nonpayable"},{"type":"function","name":"transferOwnership","inputs":[{"name":"newOwner","type":"address","internalType":"address"}],"outputs":[],"stateMutability":"nonpayable"},{"type":"function","name":"unleverage","inputs":[{"name":"leveragePositionId","type":"uint256","internalType":"uint256"}],"outputs":[],"stateMutability":"nonpayable"},{"type":"event","name":"OwnershipTransferStarted","inputs":[{"name":"previousOwner","type":"address","indexed":true,"internalType":"address"},{"name":"newOwner","type":"address","indexed":true,"internalType":"address"}],"anonymous":false},{"type":"event","name":"OwnershipTransferred","inputs":[{"name":"previousOwner","type":"address","indexed":true,"internalType":"address"},{"name":"newOwner","type":"address","indexed":true,"internalType":"address"}],"anonymous":false},{"type":"error","name":"FlashLeverage__ExceedsMaxLTV","inputs":[]},{"type":"error","name":"FlashLeverage__ExceedsMaxLeverageLTV","inputs":[]},{"type":"error","name":"FlashLeverage__InsufficientCollateralToUnleverage","inputs":[]},{"type":"error","name":"FlashLeverage__InvalidLoanToken","inputs":[]},{"type":"error","name":"FlashLeverage__UntrustedLender","inputs":[]},{"type":"error","name":"FlashLeverage__UntrustedLoanInitiator","inputs":[]},{"type":"error","name":"OwnableInvalidOwner","inputs":[{"name":"owner","type":"address","internalType":"address"}]},{"type":"error","name":"OwnableUnauthorizedAccount","inputs":[{"name":"account","type":"address","internalType":"address"}]},{"type":"error","name":"PositionManager__InvalidTokenAddress","inputs":[]},{"type":"error","name":"PositionManager__UnsupportedCollateralToken","inputs":[]},{"type":"error","name":"SafeERC20FailedOperation","inputs":[{"name":"token","type":"address","internalType":"address"}]}],"bytecode":{"object":"0x60c060405234801561000f575f5ffd5b50604051612e08380380612e0883398181016040528101906100319190610324565b335f73ffffffffffffffffffffffffffffffffffffffff168173ffffffffffffffffffffffffffffffffffffffff16036100a2575f6040517f1e4fbdf70000000000000000000000000000000000000000000000000000000081526004016100999190610371565b60405180910390fd5b6100b1816101cf60201b60201c565b508173ffffffffffffffffffffffffffffffffffffffff1660a08173ffffffffffffffffffffffffffffffffffffffff168152505060a05173ffffffffffffffffffffffffffffffffffffffff166355b74db06040518163ffffffff1660e01b8152600401602060405180830381865afa158015610131573d5f5f3e3d5ffd5b505050506040513d601f19601f82011682018060405250810190610155919061038a565b73ffffffffffffffffffffffffffffffffffffffff1660808173ffffffffffffffffffffffffffffffffffffffff16815250508060035f6101000a81548173ffffffffffffffffffffffffffffffffffffffff021916908373ffffffffffffffffffffffffffffffffffffffff16021790555050506103b5565b60015f6101000a81549073ffffffffffffffffffffffffffffffffffffffff02191690556102028161020560201b60201c565b50565b5f5f5f9054906101000a900473ffffffffffffffffffffffffffffffffffffffff169050815f5f6101000a81548173ffffffffffffffffffffffffffffffffffffffff021916908373ffffffffffffffffffffffffffffffffffffffff1602179055508173ffffffffffffffffffffffffffffffffffffffff168173ffffffffffffffffffffffffffffffffffffffff167f8be0079c531659141344cd1fd0a4f28419497f9722a3daafe3b4186f6b6457e060405160405180910390a35050565b5f5ffd5b5f73ffffffffffffffffffffffffffffffffffffffff82169050919050565b5f6102f3826102ca565b9050919050565b610303816102e9565b811461030d575f5ffd5b50565b5f8151905061031e816102fa565b92915050565b5f5f6040838503121561033a576103396102c6565b5b5f61034785828601610310565b925050602061035885828601610310565b9150509250929050565b61036b816102e9565b82525050565b5f6020820190506103845f830184610362565b92915050565b5f6020828403121561039f5761039e6102c6565b5b5f6103ac84828501610310565b91505092915050565b60805160a0516129bb61044d5f395f81816101ec015281816103820152818161059c0152818161066501528181610c7701528181610e4501528181610f020152818161119501528181611216015281816112fc0152818161143c01526116a801525f81816103bf015281816105d90152818161074f01528181611049015281816112c00152818161166c015261176001526129bb5ff3fe608060405234801561000f575f5ffd5b50600436106100a7575f3560e01c8063715018a61161006f578063715018a61461015f57806379ba5097146101695780638da5cb5b146101735780638dced9be14610191578063e30c3978146101af578063f2fde38b146101cd576100a7565b80631d430ef4146100ab5780631ef24055146100c757806323e30c8b146100e35780634b7f11a714610113578063544e5eca1461012f575b5f5ffd5b6100c560048036038101906100c09190611bcf565b6101e9565b005b6100e160048036038101906100dc9190611c54565b610449565b005b6100fd60048036038101906100f89190611d05565b610662565b60405161010a9190611db3565b60405180910390f35b61012d60048036038101906101289190611f14565b61085b565b005b61014960048036038101906101449190611f8a565b6109f5565b6040516101569190612099565b60405180910390f35b610167610aa1565b005b610171610aa3565b005b61017b610b31565b60405161018891906120c8565b60405180910390f35b610199610b58565b6040516101a691906120f0565b60405180910390f35b6101b7610b64565b6040516101c491906120c8565b60405180910390f35b6101e760048036038101906101e29190611f8a565b610b8c565b005b5f7f000000000000000000000000000000000000000000000000000000000000000073ffffffffffffffffffffffffffffffffffffffff1663eb02c30160045f3373ffffffffffffffffffffffffffffffffffffffff1673ffffffffffffffffffffffffffffffffffffffff1681526020019081526020015f20848154811061027557610274612109565b5b905f5260205f2090600202015f01546040518263ffffffff1660e01b81526004016102a091906120f0565b608060405180830381865afa1580156102bb573d5f5f3e3d5ffd5b505050506040513d601f19601f820116820180604052508101906102df91906121d7565b90505f6001338484602001518560400151604051602001610304959493929190612275565b604051602081830303815290604052905060045f3373ffffffffffffffffffffffffffffffffffffffff1673ffffffffffffffffffffffffffffffffffffffff1681526020019081526020015f20838154811061036457610363612109565b5b905f5260205f2090600202015f5f82015f9055600182015f905550507f000000000000000000000000000000000000000000000000000000000000000073ffffffffffffffffffffffffffffffffffffffff16635cffe9de307f00000000000000000000000000000000000000000000000000000000000000008560600151856040518563ffffffff1660e01b81526004016104039493929190612381565b6020604051808303815f875af115801561041f573d5f5f3e3d5ffd5b505050506040513d601f19601f820116820180604052508101906104439190612400565b50505050565b825f73ffffffffffffffffffffffffffffffffffffffff1660025f8373ffffffffffffffffffffffffffffffffffffffff1673ffffffffffffffffffffffffffffffffffffffff1681526020019081526020015f205f9054906101000a900473ffffffffffffffffffffffffffffffffffffffff1673ffffffffffffffffffffffffffffffffffffffff160361050b576040517fc086bcd300000000000000000000000000000000000000000000000000000000815260040160405180910390fd5b670b1a2bc2ec50000082111561054d576040517f45b436de00000000000000000000000000000000000000000000000000000000815260040160405180910390fd5b610558843385610c38565b5f610564858585610c73565b9050610571858286610d66565b5f5f338787604051602001610589949392919061242b565b60405160208183030381529060405290507f000000000000000000000000000000000000000000000000000000000000000073ffffffffffffffffffffffffffffffffffffffff16635cffe9de307f000000000000000000000000000000000000000000000000000000000000000085856040518563ffffffff1660e01b81526004016106199493929190612381565b6020604051808303815f875af1158015610635573d5f5f3e3d5ffd5b505050506040513d601f19601f820116820180604052508101906106599190612400565b50505050505050565b5f7f000000000000000000000000000000000000000000000000000000000000000073ffffffffffffffffffffffffffffffffffffffff163373ffffffffffffffffffffffffffffffffffffffff16146106e8576040517f3baf0ef200000000000000000000000000000000000000000000000000000000815260040160405180910390fd5b3073ffffffffffffffffffffffffffffffffffffffff168773ffffffffffffffffffffffffffffffffffffffff161461074d576040517ff151fc4d00000000000000000000000000000000000000000000000000000000815260040160405180910390fd5b7f000000000000000000000000000000000000000000000000000000000000000073ffffffffffffffffffffffffffffffffffffffff168673ffffffffffffffffffffffffffffffffffffffff16146107d2576040517f47b73a6e00000000000000000000000000000000000000000000000000000000815260040160405180910390fd5b5f83838101906107e29190612491565b90505f60018111156107f7576107f6612202565b5b81600181111561080a57610809612202565b5b036108205761081b86868686610fce565b61082d565b61082c8686868661141e565b5b7f439148f0bbc682ca079e46d6e2c2f0c1e3b820f1a291b069d8882abf8cf18dd99150509695505050505050565b61086361188b565b80518251146108a7576040517f08c379a000000000000000000000000000000000000000000000000000000000815260040161089e90612516565b60405180910390fd5b5f5f90505b82518110156109f0575f73ffffffffffffffffffffffffffffffffffffffff168382815181106108df576108de612109565b5b602002602001015173ffffffffffffffffffffffffffffffffffffffff1603610934576040517f8c459d2e00000000000000000000000000000000000000000000000000000000815260040160405180910390fd5b81818151811061094757610946612109565b5b602002602001015160025f85848151811061096557610964612109565b5b602002602001015173ffffffffffffffffffffffffffffffffffffffff1673ffffffffffffffffffffffffffffffffffffffff1681526020019081526020015f205f6101000a81548173ffffffffffffffffffffffffffffffffffffffff021916908373ffffffffffffffffffffffffffffffffffffffff16021790555080806001019150506108ac565b505050565b606060045f8373ffffffffffffffffffffffffffffffffffffffff1673ffffffffffffffffffffffffffffffffffffffff1681526020019081526020015f20805480602002602001604051908101604052809291908181526020015f905b82821015610a96578382905f5260205f2090600202016040518060400160405290815f820154815260200160018201548152505081526020019060010190610a53565b505050509050919050565b565b5f610aac611912565b90508073ffffffffffffffffffffffffffffffffffffffff16610acd610b64565b73ffffffffffffffffffffffffffffffffffffffff1614610b2557806040517f118cdaa7000000000000000000000000000000000000000000000000000000008152600401610b1c91906120c8565b60405180910390fd5b610b2e81611919565b50565b5f5f5f9054906101000a900473ffffffffffffffffffffffffffffffffffffffff16905090565b670b1a2bc2ec50000081565b5f60015f9054906101000a900473ffffffffffffffffffffffffffffffffffffffff16905090565b610b9461188b565b8060015f6101000a81548173ffffffffffffffffffffffffffffffffffffffff021916908373ffffffffffffffffffffffffffffffffffffffff1602179055508073ffffffffffffffffffffffffffffffffffffffff16610bf3610b31565b73ffffffffffffffffffffffffffffffffffffffff167f38d16b8cac22d99fc7c124b9cd0de2d3fa1faef420bfe791d8c362d765e2270060405160405180910390a350565b5f810315610c6e57610c6d8230838673ffffffffffffffffffffffffffffffffffffffff16611949909392919063ffffffff16565b5b505050565b5f5f7f000000000000000000000000000000000000000000000000000000000000000073ffffffffffffffffffffffffffffffffffffffff166373b267d786866040518363ffffffff1660e01b8152600401610cd0929190612534565b602060405180830381865afa158015610ceb573d5f5f3e3d5ffd5b505050506040513d601f19601f82011682018060405250810190610d0f919061255b565b905080610d5284670de0b6b3a7640000610d2991906125b3565b610d4484670de0b6b3a76400006119cb90919063ffffffff16565b6119fd90919063ffffffff16565b610d5c91906125b3565b9150509392505050565b5f60025f8573ffffffffffffffffffffffffffffffffffffffff1673ffffffffffffffffffffffffffffffffffffffff1681526020019081526020015f205f9054906101000a900473ffffffffffffffffffffffffffffffffffffffff1673ffffffffffffffffffffffffffffffffffffffff1663556d6e9f60015f866040518463ffffffff1660e01b8152600401610e0193929190612658565b602060405180830381865afa158015610e1c573d5f5f3e3d5ffd5b505050506040513d601f19601f82011682018060405250810190610e40919061255b565b90505f7f000000000000000000000000000000000000000000000000000000000000000073ffffffffffffffffffffffffffffffffffffffff166373b267d7868585610e8c919061268d565b6040518363ffffffff1660e01b8152600401610ea9929190612534565b602060405180830381865afa158015610ec4573d5f5f3e3d5ffd5b505050506040513d601f19601f82011682018060405250810190610ee8919061255b565b90505f610efe82866119fd90919063ffffffff16565b90507f000000000000000000000000000000000000000000000000000000000000000073ffffffffffffffffffffffffffffffffffffffff166381bf8d3d6040518163ffffffff1660e01b8152600401602060405180830381865afa158015610f69573d5f5f3e3d5ffd5b505050506040513d601f19601f82011682018060405250810190610f8d919061255b565b811115610fc6576040517fdcbc554e00000000000000000000000000000000000000000000000000000000815260040160405180910390fd5b505050505050565b5f5f5f8484810190610fe091906126fb565b935093509350505f60025f8473ffffffffffffffffffffffffffffffffffffffff1673ffffffffffffffffffffffffffffffffffffffff1681526020019081526020015f205f9054906101000a900473ffffffffffffffffffffffffffffffffffffffff1690507f000000000000000000000000000000000000000000000000000000000000000073ffffffffffffffffffffffffffffffffffffffff1663095ea7b3828a6040518363ffffffff1660e01b81526004016110a2929190612534565b6020604051808303815f875af11580156110be573d5f5f3e3d5ffd5b505050506040513d601f19601f820116820180604052508101906110e29190612400565b505f8173ffffffffffffffffffffffffffffffffffffffff1663a64833a060015f8c5f306040518663ffffffff1660e01b815260040161112695949392919061275f565b6020604051808303815f875af1158015611142573d5f5f3e3d5ffd5b505050506040513d601f19601f82011682018060405250810190611166919061255b565b90505f8184611175919061268d565b90508473ffffffffffffffffffffffffffffffffffffffff1663095ea7b37f0000000000000000000000000000000000000000000000000000000000000000836040518363ffffffff1660e01b81526004016111d2929190612534565b6020604051808303815f875af11580156111ee573d5f5f3e3d5ffd5b505050506040513d601f19601f820116820180604052508101906112129190612400565b505f7f000000000000000000000000000000000000000000000000000000000000000073ffffffffffffffffffffffffffffffffffffffff1663c5654acc87848d8f61125e919061268d565b6040518463ffffffff1660e01b815260040161127c939291906127b0565b6020604051808303815f875af1158015611298573d5f5f3e3d5ffd5b505050506040513d601f19601f820116820180604052508101906112bc919061255b565b90507f000000000000000000000000000000000000000000000000000000000000000073ffffffffffffffffffffffffffffffffffffffff1663a9059cbb7f00000000000000000000000000000000000000000000000000000000000000008c8e611327919061268d565b6040518363ffffffff1660e01b8152600401611344929190612534565b6020604051808303815f875af1158015611360573d5f5f3e3d5ffd5b505050506040513d601f19601f820116820180604052508101906113849190612400565b5060045f8873ffffffffffffffffffffffffffffffffffffffff1673ffffffffffffffffffffffffffffffffffffffff1681526020019081526020015f20604051806040016040528083815260200187815250908060018154018082558091505060019003905f5260205f2090600202015f909190919091505f820151815f01556020820151816001015550505050505050505050505050565b5f5f5f5f858581019061143191906127e5565b9450945094509450507f000000000000000000000000000000000000000000000000000000000000000073ffffffffffffffffffffffffffffffffffffffff1663e16437bc84838b6040518463ffffffff1660e01b81526004016114979392919061285c565b5f604051808303815f87803b1580156114ae575f5ffd5b505af11580156114c0573d5f5f3e3d5ffd5b505050505f60025f8473ffffffffffffffffffffffffffffffffffffffff1673ffffffffffffffffffffffffffffffffffffffff1681526020019081526020015f205f9054906101000a900473ffffffffffffffffffffffffffffffffffffffff1690508273ffffffffffffffffffffffffffffffffffffffff1663095ea7b382846040518363ffffffff1660e01b815260040161155f929190612534565b6020604051808303815f875af115801561157b573d5f5f3e3d5ffd5b505050506040513d601f19601f8201168201806040525081019061159f9190612400565b505f8173ffffffffffffffffffffffffffffffffffffffff1663a64833a05f6001865f306040518663ffffffff1660e01b81526004016115e3959493929190612891565b6020604051808303815f875af11580156115ff573d5f5f3e3d5ffd5b505050506040513d601f19601f82011682018060405250810190611623919061255b565b9050888a611631919061268d565b81101561166a576040517fa3c44c1e00000000000000000000000000000000000000000000000000000000815260040160405180910390fd5b7f000000000000000000000000000000000000000000000000000000000000000073ffffffffffffffffffffffffffffffffffffffff1663a9059cbb7f00000000000000000000000000000000000000000000000000000000000000008b8d6116d3919061268d565b6040518363ffffffff1660e01b81526004016116f0929190612534565b6020604051808303815f875af115801561170c573d5f5f3e3d5ffd5b505050506040513d601f19601f820116820180604052508101906117309190612400565b50888a61173d919061268d565b81111561187f575f898b611751919061268d565b8261175c91906125b3565b90507f000000000000000000000000000000000000000000000000000000000000000073ffffffffffffffffffffffffffffffffffffffff1663095ea7b384836040518363ffffffff1660e01b81526004016117b9929190612534565b6020604051808303815f875af11580156117d5573d5f5f3e3d5ffd5b505050506040513d601f19601f820116820180604052508101906117f99190612400565b508273ffffffffffffffffffffffffffffffffffffffff1663a64833a060015f845f8c6040518663ffffffff1660e01b815260040161183c95949392919061275f565b6020604051808303815f875af1158015611858573d5f5f3e3d5ffd5b505050506040513d601f19601f8201168201806040525081019061187c919061255b565b50505b50505050505050505050565b611893611912565b73ffffffffffffffffffffffffffffffffffffffff166118b1610b31565b73ffffffffffffffffffffffffffffffffffffffff1614611910576118d4611912565b6040517f118cdaa700000000000000000000000000000000000000000000000000000000815260040161190791906120c8565b60405180910390fd5b565b5f33905090565b60015f6101000a81549073ffffffffffffffffffffffffffffffffffffffff021916905561194681611a2f565b50565b6119c5848573ffffffffffffffffffffffffffffffffffffffff166323b872dd86868660405160240161197e939291906128e2565b604051602081830303815290604052915060e01b6020820180517bffffffffffffffffffffffffffffffffffffffffffffffffffffffff8381831617835250505050611af0565b50505050565b5f5f82846119d99190612917565b9050670de0b6b3a764000081816119f3576119f2612958565b5b0491505092915050565b5f5f670de0b6b3a764000084611a139190612917565b9050828181611a2557611a24612958565b5b0491505092915050565b5f5f5f9054906101000a900473ffffffffffffffffffffffffffffffffffffffff169050815f5f6101000a81548173ffffffffffffffffffffffffffffffffffffffff021916908373ffffffffffffffffffffffffffffffffffffffff1602179055508173ffffffffffffffffffffffffffffffffffffffff168173ffffffffffffffffffffffffffffffffffffffff167f8be0079c531659141344cd1fd0a4f28419497f9722a3daafe3b4186f6b6457e060405160405180910390a35050565b5f5f60205f8451602086015f885af180611b0f576040513d5f823e3d81fd5b3d92505f519150505f8214611b28576001811415611b43565b5f8473ffffffffffffffffffffffffffffffffffffffff163b145b15611b8557836040517f5274afe7000000000000000000000000000000000000000000000000000000008152600401611b7c91906120c8565b60405180910390fd5b50505050565b5f604051905090565b5f5ffd5b5f5ffd5b5f819050919050565b611bae81611b9c565b8114611bb8575f5ffd5b50565b5f81359050611bc981611ba5565b92915050565b5f60208284031215611be457611be3611b94565b5b5f611bf184828501611bbb565b91505092915050565b5f73ffffffffffffffffffffffffffffffffffffffff82169050919050565b5f611c2382611bfa565b9050919050565b611c3381611c19565b8114611c3d575f5ffd5b50565b5f81359050611c4e81611c2a565b92915050565b5f5f5f60608486031215611c6b57611c6a611b94565b5b5f611c7886828701611c40565b9350506020611c8986828701611bbb565b9250506040611c9a86828701611bbb565b9150509250925092565b5f5ffd5b5f5ffd5b5f5ffd5b5f5f83601f840112611cc557611cc4611ca4565b5b8235905067ffffffffffffffff811115611ce257611ce1611ca8565b5b602083019150836001820283011115611cfe57611cfd611cac565b5b9250929050565b5f5f5f5f5f5f60a08789031215611d1f57611d1e611b94565b5b5f611d2c89828a01611c40565b9650506020611d3d89828a01611c40565b9550506040611d4e89828a01611bbb565b9450506060611d5f89828a01611bbb565b935050608087013567ffffffffffffffff811115611d8057611d7f611b98565b5b611d8c89828a01611cb0565b92509250509295509295509295565b5f819050919050565b611dad81611d9b565b82525050565b5f602082019050611dc65f830184611da4565b92915050565b5f601f19601f8301169050919050565b7f4e487b71000000000000000000000000000000000000000000000000000000005f52604160045260245ffd5b611e1282611dcc565b810181811067ffffffffffffffff82111715611e3157611e30611ddc565b5b80604052505050565b5f611e43611b8b565b9050611e4f8282611e09565b919050565b5f67ffffffffffffffff821115611e6e57611e6d611ddc565b5b602082029050602081019050919050565b5f611e91611e8c84611e54565b611e3a565b90508083825260208201905060208402830185811115611eb457611eb3611cac565b5b835b81811015611edd5780611ec98882611c40565b845260208401935050602081019050611eb6565b5050509392505050565b5f82601f830112611efb57611efa611ca4565b5b8135611f0b848260208601611e7f565b91505092915050565b5f5f60408385031215611f2a57611f29611b94565b5b5f83013567ffffffffffffffff811115611f4757611f46611b98565b5b611f5385828601611ee7565b925050602083013567ffffffffffffffff811115611f7457611f73611b98565b5b611f8085828601611ee7565b9150509250929050565b5f60208284031215611f9f57611f9e611b94565b5b5f611fac84828501611c40565b91505092915050565b5f81519050919050565b5f82825260208201905092915050565b5f819050602082019050919050565b611fe781611b9c565b82525050565b604082015f8201516120015f850182611fde565b5060208201516120146020850182611fde565b50505050565b5f6120258383611fed565b60408301905092915050565b5f602082019050919050565b5f61204782611fb5565b6120518185611fbf565b935061205c83611fcf565b805f5b8381101561208c578151612073888261201a565b975061207e83612031565b92505060018101905061205f565b5085935050505092915050565b5f6020820190508181035f8301526120b1818461203d565b905092915050565b6120c281611c19565b82525050565b5f6020820190506120db5f8301846120b9565b92915050565b6120ea81611b9c565b82525050565b5f6020820190506121035f8301846120e1565b92915050565b7f4e487b71000000000000000000000000000000000000000000000000000000005f52603260045260245ffd5b5f5ffd5b5f8151905061214881611c2a565b92915050565b5f8151905061215c81611ba5565b92915050565b5f6080828403121561217757612176612136565b5b6121816080611e3a565b90505f6121908482850161213a565b5f8301525060206121a38482850161213a565b60208301525060406121b78482850161214e565b60408301525060606121cb8482850161214e565b60608301525092915050565b5f608082840312156121ec576121eb611b94565b5b5f6121f984828501612162565b91505092915050565b7f4e487b71000000000000000000000000000000000000000000000000000000005f52602160045260245ffd5b600281106122405761223f612202565b5b50565b5f8190506122508261222f565b919050565b5f61225f82612243565b9050919050565b61226f81612255565b82525050565b5f60a0820190506122885f830188612266565b61229560208301876120b9565b6122a260408301866120e1565b6122af60608301856120b9565b6122bc60808301846120e1565b9695505050505050565b5f819050919050565b5f6122e96122e46122df84611bfa565b6122c6565b611bfa565b9050919050565b5f6122fa826122cf565b9050919050565b5f61230b826122f0565b9050919050565b61231b81612301565b82525050565b5f81519050919050565b5f82825260208201905092915050565b8281835e5f83830152505050565b5f61235382612321565b61235d818561232b565b935061236d81856020860161233b565b61237681611dcc565b840191505092915050565b5f6080820190506123945f830187612312565b6123a160208301866120b9565b6123ae60408301856120e1565b81810360608301526123c08184612349565b905095945050505050565b5f8115159050919050565b6123df816123cb565b81146123e9575f5ffd5b50565b5f815190506123fa816123d6565b92915050565b5f6020828403121561241557612414611b94565b5b5f612422848285016123ec565b91505092915050565b5f60808201905061243e5f830187612266565b61244b60208301866120b9565b61245860408301856120b9565b61246560608301846120e1565b95945050505050565b6002811061247a575f5ffd5b50565b5f8135905061248b8161246e565b92915050565b5f602082840312156124a6576124a5611b94565b5b5f6124b38482850161247d565b91505092915050565b5f82825260208201905092915050565b7f4c656e677468204d69736d6174636800000000000000000000000000000000005f82015250565b5f612500600f836124bc565b915061250b826124cc565b602082019050919050565b5f6020820190508181035f83015261252d816124f4565b9050919050565b5f6040820190506125475f8301856120b9565b61255460208301846120e1565b9392505050565b5f602082840312156125705761256f611b94565b5b5f61257d8482850161214e565b91505092915050565b7f4e487b71000000000000000000000000000000000000000000000000000000005f52601160045260245ffd5b5f6125bd82611b9c565b91506125c883611b9c565b92508282039050818111156125e0576125df612586565b5b92915050565b5f819050919050565b5f6126096126046125ff846125e6565b6122c6565b611b9c565b9050919050565b612619816125ef565b82525050565b5f819050919050565b5f61264261263d6126388461261f565b6122c6565b611b9c565b9050919050565b61265281612628565b82525050565b5f60608201905061266b5f830186612610565b6126786020830185612649565b61268560408301846120e1565b949350505050565b5f61269782611b9c565b91506126a283611b9c565b92508282019050808211156126ba576126b9612586565b5b92915050565b5f6126ca82611bfa565b9050919050565b6126da816126c0565b81146126e4575f5ffd5b50565b5f813590506126f5816126d1565b92915050565b5f5f5f5f6080858703121561271357612712611b94565b5b5f6127208782880161247d565b9450506020612731878288016126e7565b9350506040612742878288016126e7565b925050606061275387828801611bbb565b91505092959194509250565b5f60a0820190506127725f830188612610565b61277f6020830187612649565b61278c60408301866120e1565b6127996060830185612649565b6127a660808301846120b9565b9695505050505050565b5f6060820190506127c35f8301866120b9565b6127d060208301856120e1565b6127dd60408301846120e1565b949350505050565b5f5f5f5f5f60a086880312156127fe576127fd611b94565b5b5f61280b8882890161247d565b955050602061281c888289016126e7565b945050604061282d88828901611bbb565b935050606061283e888289016126e7565b925050608061284f88828901611bbb565b9150509295509295909350565b5f60608201905061286f5f8301866120e1565b61287c60208301856120e1565b61288960408301846120e1565b949350505050565b5f60a0820190506128a45f830188612649565b6128b16020830187612610565b6128be60408301866120e1565b6128cb6060830185612649565b6128d860808301846120b9565b9695505050505050565b5f6060820190506128f55f8301866120b9565b61290260208301856120b9565b61290f60408301846120e1565b949350505050565b5f61292182611b9c565b915061292c83611b9c565b925082820261293a81611b9c565b9150828204841483151761295157612950612586565b5b5092915050565b7f4e487b71000000000000000000000000000000000000000000000000000000005f52601260045260245ffdfea2646970667358221220a100e7e5697630064ff1f67899dd9107830e8754eeb98840e74283f7edb34ddd64736f6c634300081e0033","linkReferences":{}},"methodIdentifiers":{"MAX_LEVERAGE_LTV()":"8dced9be","acceptOwnership()":"79ba5097","addSupportedCollateralTokens(address[],address[])":"4b7f11a7","getUserLeveragePositions(address)":"544e5eca","leverage(address,uint256,uint256)":"1ef24055","onFlashLoan(address,address,uint256,uint256,bytes)":"23e30c8b","owner()":"8da5cb5b","pendingOwner()":"e30c3978","renounceOwnership()":"715018a6","transferOwnership(address)":"f2fde38b","unleverage(uint256)":"1d430ef4"},"id":53}