{"abi":[{"type":"constructor","inputs":[{"name":"morphoAddress","type":"address","internalType":"address"},{"name":"pendleRouter","type":"address","internalType":"address"},{"name":"swapRouters","type":"address[]","internalType":"address[]"},{"name":"treasury","type":"address","internalType":"address"}],"stateMutability":"nonpayable"},{"type":"function","name":"LIQUIDATION_BUFFER","inputs":[],"outputs":[{"name":"","type":"uint256","internalType":"uint256"}],"stateMutability":"view"},{"type":"function","name":"acceptOwnership","inputs":[],"outputs":[],"stateMutability":"nonpayable"},{"type":"function","name":"addSupportedCollateralTokens","inputs":[{"name":"tokenConfigs","type":"tuple[]","internalType":"struct CollateralTokenConfig[]","components":[{"name":"collateralToken","type":"address","internalType":"address"},{"name":"morphoMarketId","type":"bytes32","internalType":"bytes32"},{"name":"pendleMarket","type":"address","internalType":"address"}]}],"outputs":[],"stateMutability":"nonpayable"},{"type":"function","name":"addSwapRouter","inputs":[{"name":"swapRouter","type":"address","internalType":"address"}],"outputs":[],"stateMutability":"nonpayable"},{"type":"function","name":"calcDeleverageFlashLoan","inputs":[{"name":"collateralToken","type":"address","internalType":"address"},{"name":"loanToken","type":"address","internalType":"address"},{"name":"sharesToBurn","type":"uint256","internalType":"uint256"}],"outputs":[{"name":"","type":"uint256","internalType":"uint256"}],"stateMutability":"view"},{"type":"function","name":"calcLeverageFlashLoan","inputs":[{"name":"desiredLtv","type":"uint256","internalType":"uint256"},{"name":"collateralToken","type":"address","internalType":"address"},{"name":"loanToken","type":"address","internalType":"address"},{"name":"amountCollateral","type":"uint256","internalType":"uint256"}],"outputs":[{"name":"","type":"uint256","internalType":"uint256"}],"stateMutability":"view"},{"type":"function","name":"createUserProxy","inputs":[{"name":"user","type":"address","internalType":"address"}],"outputs":[{"name":"proxy","type":"address","internalType":"address"}],"stateMutability":"nonpayable"},{"type":"function","name":"deleverage","inputs":[{"name":"positionId","type":"uint256","internalType":"uint256"},{"name":"params","type":"tuple","internalType":"struct DeleverageParams","components":[{"name":"swapData","type":"tuple","internalType":"struct SwapData","components":[{"name":"swapType","type":"uint8","internalType":"enum SwapType"},{"name":"extRouter","type":"address","internalType":"address"},{"name":"extCalldata","type":"bytes","internalType":"bytes"},{"name":"needScale","type":"bool","internalType":"bool"}]},{"name":"minTokenOut","type":"uint256","internalType":"uint256"},{"name":"pendleSwap","type":"address","internalType":"address"},{"name":"tokenRedeemSy","type":"address","internalType":"address"},{"name":"limitOrderData","type":"tuple","internalType":"struct LimitOrderData","components":[{"name":"limitRouter","type":"address","internalType":"address"},{"name":"epsSkipMarket","type":"uint256","internalType":"uint256"},{"name":"normalFills","type":"tuple[]","internalType":"struct FillOrderParams[]","components":[{"name":"order","type":"tuple","internalType":"struct Order","components":[{"name":"salt","type":"uint256","internalType":"uint256"},{"name":"expiry","type":"uint256","internalType":"uint256"},{"name":"nonce","type":"uint256","internalType":"uint256"},{"name":"orderType","type":"uint8","internalType":"enum IPLimitOrderType.OrderType"},{"name":"token","type":"address","internalType":"address"},{"name":"YT","type":"address","internalType":"address"},{"name":"maker","type":"address","internalType":"address"},{"name":"receiver","type":"address","internalType":"address"},{"name":"makingAmount","type":"uint256","internalType":"uint256"},{"name":"lnImpliedRate","type":"uint256","internalType":"uint256"},{"name":"failSafeRate","type":"uint256","internalType":"uint256"},{"name":"permit","type":"bytes","internalType":"bytes"}]},{"name":"signature","type":"bytes","internalType":"bytes"},{"name":"makingAmount","type":"uint256","internalType":"uint256"}]},{"name":"flashFills","type":"tuple[]","internalType":"struct FillOrderParams[]","components":[{"name":"order","type":"tuple","internalType":"struct Order","components":[{"name":"salt","type":"uint256","internalType":"uint256"},{"name":"expiry","type":"uint256","internalType":"uint256"},{"name":"nonce","type":"uint256","internalType":"uint256"},{"name":"orderType","type":"uint8","internalType":"enum IPLimitOrderType.OrderType"},{"name":"token","type":"address","internalType":"address"},{"name":"YT","type":"address","internalType":"address"},{"name":"maker","type":"address","internalType":"address"},{"name":"receiver","type":"address","internalType":"address"},{"name":"makingAmount","type":"uint256","internalType":"uint256"},{"name":"lnImpliedRate","type":"uint256","internalType":"uint256"},{"name":"failSafeRate","type":"uint256","internalType":"uint256"},{"name":"permit","type":"bytes","internalType":"bytes"}]},{"name":"signature","type":"bytes","internalType":"bytes"},{"name":"makingAmount","type":"uint256","internalType":"uint256"}]},{"name":"optData","type":"bytes","internalType":"bytes"}]}]}],"outputs":[],"stateMutability":"nonpayable"},{"type":"function","name":"enableRecoveryMode","inputs":[{"name":"userProxy","type":"address","internalType":"address"}],"outputs":[],"stateMutability":"nonpayable"},{"type":"function","name":"getCollateralValueInLoanToken","inputs":[{"name":"collateralToken","type":"address","internalType":"address"},{"name":"loanToken","type":"address","internalType":"address"},{"name":"amountCollateral","type":"uint256","internalType":"uint256"}],"outputs":[{"name":"","type":"uint256","internalType":"uint256"}],"stateMutability":"view"},{"type":"function","name":"getLiqLtv","inputs":[{"name":"collateralToken","type":"address","internalType":"address"},{"name":"loanToken","type":"address","internalType":"address"}],"outputs":[{"name":"","type":"uint256","internalType":"uint256"}],"stateMutability":"view"},{"type":"function","name":"getMaxLtv","inputs":[{"name":"collateralToken","type":"address","internalType":"address"},{"name":"loanToken","type":"address","internalType":"address"}],"outputs":[{"name":"","type":"uint256","internalType":"uint256"}],"stateMutability":"view"},{"type":"function","name":"getSharesValueInLoanToken","inputs":[{"name":"collateralToken","type":"address","internalType":"address"},{"name":"loanToken","type":"address","internalType":"address"},{"name":"sharesBorrowed","type":"uint256","internalType":"uint256"}],"outputs":[{"name":"","type":"uint256","internalType":"uint256"}],"stateMutability":"view"},{"type":"function","name":"getTreasury","inputs":[],"outputs":[{"name":"","type":"address","internalType":"address"}],"stateMutability":"view"},{"type":"function","name":"getUserLeveragePosition","inputs":[{"name":"user","type":"address","internalType":"address"},{"name":"positionId","type":"uint256","internalType":"uint256"}],"outputs":[{"name":"","type":"tuple","internalType":"struct LeveragePosition","components":[{"name":"open","type":"bool","internalType":"bool"},{"name":"collateralToken","type":"address","internalType":"address"},{"name":"loanToken","type":"address","internalType":"address"},{"name":"amountCollateral","type":"uint256","internalType":"uint256"},{"name":"amountLeveragedCollateral","type":"uint256","internalType":"uint256"},{"name":"sharesBorrowed","type":"uint256","internalType":"uint256"},{"name":"userProxy","type":"address","internalType":"address"},{"name":"amountCollateralInLoanToken","type":"uint256","internalType":"uint256"}]}],"stateMutability":"view"},{"type":"function","name":"getUserLeveragePositions","inputs":[{"name":"user","type":"address","internalType":"address"}],"outputs":[{"name":"","type":"tuple[]","internalType":"struct LeveragePosition[]","components":[{"name":"open","type":"bool","internalType":"bool"},{"name":"collateralToken","type":"address","internalType":"address"},{"name":"loanToken","type":"address","internalType":"address"},{"name":"amountCollateral","type":"uint256","internalType":"uint256"},{"name":"amountLeveragedCollateral","type":"uint256","internalType":"uint256"},{"name":"sharesBorrowed","type":"uint256","internalType":"uint256"},{"name":"userProxy","type":"address","internalType":"address"},{"name":"amountCollateralInLoanToken","type":"uint256","internalType":"uint256"}]}],"stateMutability":"view"},{"type":"function","name":"getYieldFee","inputs":[],"outputs":[{"name":"","type":"uint256","internalType":"uint256"}],"stateMutability":"view"},{"type":"function","name":"i_morpho","inputs":[],"outputs":[{"name":"","type":"address","internalType":"contract IMorpho"}],"stateMutability":"view"},{"type":"function","name":"i_userProxyImplementation","inputs":[],"outputs":[{"name":"","type":"address","internalType":"address"}],"stateMutability":"view"},{"type":"function","name":"isSupportedCollateralToken","inputs":[{"name":"collateralToken","type":"address","internalType":"address"},{"name":"loanToken","type":"address","internalType":"address"}],"outputs":[{"name":"","type":"bool","internalType":"bool"}],"stateMutability":"view"},{"type":"function","name":"leverage","inputs":[{"name":"onBehalfOf","type":"address","internalType":"address"},{"name":"params","type":"tuple","internalType":"struct LeverageParams","components":[{"name":"desiredLtv","type":"uint256","internalType":"uint256"},{"name":"collateralToken","type":"address","internalType":"address"},{"name":"loanToken","type":"address","internalType":"address"},{"name":"amountCollateral","type":"uint256","internalType":"uint256"},{"name":"swapData","type":"tuple","internalType":"struct SwapData","components":[{"name":"swapType","type":"uint8","internalType":"enum SwapType"},{"name":"extRouter","type":"address","internalType":"address"},{"name":"extCalldata","type":"bytes","internalType":"bytes"},{"name":"needScale","type":"bool","internalType":"bool"}]},{"name":"minTokenOut","type":"uint256","internalType":"uint256"},{"name":"pendleSwap","type":"address","internalType":"address"},{"name":"approxParams","type":"tuple","internalType":"struct ApproxParams","components":[{"name":"guessMin","type":"uint256","internalType":"uint256"},{"name":"guessMax","type":"uint256","internalType":"uint256"},{"name":"guessOffchain","type":"uint256","internalType":"uint256"},{"name":"maxIteration","type":"uint256","internalType":"uint256"},{"name":"eps","type":"uint256","internalType":"uint256"}]},{"name":"tokenMintSy","type":"address","internalType":"address"},{"name":"limitOrderData","type":"tuple","internalType":"struct LimitOrderData","components":[{"name":"limitRouter","type":"address","internalType":"address"},{"name":"epsSkipMarket","type":"uint256","internalType":"uint256"},{"name":"normalFills","type":"tuple[]","internalType":"struct FillOrderParams[]","components":[{"name":"order","type":"tuple","internalType":"struct Order","components":[{"name":"salt","type":"uint256","internalType":"uint256"},{"name":"expiry","type":"uint256","internalType":"uint256"},{"name":"nonce","type":"uint256","internalType":"uint256"},{"name":"orderType","type":"uint8","internalType":"enum IPLimitOrderType.OrderType"},{"name":"token","type":"address","internalType":"address"},{"name":"YT","type":"address","internalType":"address"},{"name":"maker","type":"address","internalType":"address"},{"name":"receiver","type":"address","internalType":"address"},{"name":"makingAmount","type":"uint256","internalType":"uint256"},{"name":"lnImpliedRate","type":"uint256","internalType":"uint256"},{"name":"failSafeRate","type":"uint256","internalType":"uint256"},{"name":"permit","type":"bytes","internalType":"bytes"}]},{"name":"signature","type":"bytes","internalType":"bytes"},{"name":"makingAmount","type":"uint256","internalType":"uint256"}]},{"name":"flashFills","type":"tuple[]","internalType":"struct FillOrderParams[]","components":[{"name":"order","type":"tuple","internalType":"struct Order","components":[{"name":"salt","type":"uint256","internalType":"uint256"},{"name":"expiry","type":"uint256","internalType":"uint256"},{"name":"nonce","type":"uint256","internalType":"uint256"},{"name":"orderType","type":"uint8","internalType":"enum IPLimitOrderType.OrderType"},{"name":"token","type":"address","internalType":"address"},{"name":"YT","type":"address","internalType":"address"},{"name":"maker","type":"address","internalType":"address"},{"name":"receiver","type":"address","internalType":"address"},{"name":"makingAmount","type":"uint256","internalType":"uint256"},{"name":"lnImpliedRate","type":"uint256","internalType":"uint256"},{"name":"failSafeRate","type":"uint256","internalType":"uint256"},{"name":"permit","type":"bytes","internalType":"bytes"}]},{"name":"signature","type":"bytes","internalType":"bytes"},{"name":"makingAmount","type":"uint256","internalType":"uint256"}]},{"name":"optData","type":"bytes","internalType":"bytes"}]}]}],"outputs":[],"stateMutability":"nonpayable"},{"type":"function","name":"onMorphoFlashLoan","inputs":[{"name":"amountLoan","type":"uint256","internalType":"uint256"},{"name":"data","type":"bytes","internalType":"bytes"}],"outputs":[],"stateMutability":"nonpayable"},{"type":"function","name":"owner","inputs":[],"outputs":[{"name":"","type":"address","internalType":"address"}],"stateMutability":"view"},{"type":"function","name":"pendingOwner","inputs":[],"outputs":[{"name":"","type":"address","internalType":"address"}],"stateMutability":"view"},{"type":"function","name":"recover","inputs":[{"name":"token","type":"address","internalType":"address"}],"outputs":[],"stateMutability":"nonpayable"},{"type":"function","name":"renounceOwnership","inputs":[],"outputs":[],"stateMutability":"nonpayable"},{"type":"function","name":"s_isSwapRouter","inputs":[{"name":"","type":"address","internalType":"address"}],"outputs":[{"name":"","type":"bool","internalType":"bool"}],"stateMutability":"view"},{"type":"function","name":"s_pendleMarket","inputs":[{"name":"collateralToken","type":"address","internalType":"address"}],"outputs":[{"name":"pendleMarket","type":"address","internalType":"address"}],"stateMutability":"view"},{"type":"function","name":"s_pendleRouter","inputs":[],"outputs":[{"name":"","type":"address","internalType":"contract IPAllActionV3"}],"stateMutability":"view"},{"type":"function","name":"transferOwnership","inputs":[{"name":"newOwner","type":"address","internalType":"address"}],"outputs":[],"stateMutability":"nonpayable"},{"type":"function","name":"updatePendleRouter","inputs":[{"name":"pendleRouter","type":"address","internalType":"address"}],"outputs":[],"stateMutability":"nonpayable"},{"type":"function","name":"updateTreasury","inputs":[{"name":"newTreasury","type":"address","internalType":"address"}],"outputs":[],"stateMutability":"nonpayable"},{"type":"function","name":"updateYieldFee","inputs":[{"name":"newYieldFee","type":"uint256","internalType":"uint256"}],"outputs":[],"stateMutability":"nonpayable"},{"type":"event","name":"LeveragePositionClosed","inputs":[{"name":"user","type":"address","indexed":true,"internalType":"address"},{"name":"positionId","type":"uint256","indexed":true,"internalType":"uint256"},{"name":"amountReturnedInLoanToken","type":"uint256","indexed":true,"internalType":"uint256"}],"anonymous":false},{"type":"event","name":"LeveragePositionOpened","inputs":[{"name":"user","type":"address","indexed":true,"internalType":"address"},{"name":"positionId","type":"uint256","indexed":true,"internalType":"uint256"},{"name":"amountDepositedInLoanToken","type":"uint256","indexed":true,"internalType":"uint256"}],"anonymous":false},{"type":"event","name":"OwnershipTransferStarted","inputs":[{"name":"previousOwner","type":"address","indexed":true,"internalType":"address"},{"name":"newOwner","type":"address","indexed":true,"internalType":"address"}],"anonymous":false},{"type":"event","name":"OwnershipTransferred","inputs":[{"name":"previousOwner","type":"address","indexed":true,"internalType":"address"},{"name":"newOwner","type":"address","indexed":true,"internalType":"address"}],"anonymous":false},{"type":"error","name":"FailedDeployment","inputs":[]},{"type":"error","name":"FlashLeverage__CannotBeZeroAddress","inputs":[]},{"type":"error","name":"FlashLeverage__InvalidCollateralToken","inputs":[]},{"type":"error","name":"FlashLeverage__InvalidYieldFee","inputs":[]},{"type":"error","name":"FlashLeverage__PositionAlreadyClosed","inputs":[]},{"type":"error","name":"FlashLeverage__SlippageExceeded","inputs":[]},{"type":"error","name":"FlashLeverage__UntrustedLender","inputs":[]},{"type":"error","name":"InsufficientBalance","inputs":[{"name":"balance","type":"uint256","internalType":"uint256"},{"name":"needed","type":"uint256","internalType":"uint256"}]},{"type":"error","name":"OwnableInvalidOwner","inputs":[{"name":"owner","type":"address","internalType":"address"}]},{"type":"error","name":"OwnableUnauthorizedAccount","inputs":[{"name":"account","type":"address","internalType":"address"}]},{"type":"error","name":"ReentrancyGuardReentrantCall","inputs":[]},{"type":"error","name":"SafeERC20FailedOperation","inputs":[{"name":"token","type":"address","internalType":"address"}]}],"bytecode":{"object":"0x60c0604052346102d6576142fa80380380610019816102da565b9283398101906080818303126102d657610032816102ff565b9161003f602083016102ff565b60408301519092906001600160401b0381116102d65781019180601f840112156102d6578251926001600160401b038411610277578360051b906020806100878185016102da565b8097815201928201019283116102d657602001905b8282106102be5750505060606100b291016102ff565b6001600160a01b039384166080819052600280546001600160a01b03191694909516939093179093555f5b815181101561011557600190818060a01b0360208260051b85010151165f52600460205260405f208260ff19825416179055016100dd565b5050600160055533156102ab57600780546001600160a01b0319908116909155600680549182163390811790915560405192916001600160a01b03167f8be0079c531659141344cd1fd0a4f28419497f9722a3daafe3b4186f6b6457e05f80a38015801561029a575b61028b576105518281016001600160401b03811184821017610277576040928492613da9843930825260208201520301905ff0801561026c576001600160a01b0390811660a052600980546001600160a01b0319169290911691909117905567016345785d8a0000600a55604051613a9590816103148239608051818181610487015281816106bc01528181610b3101528181610e7f01528181610ea701528181610f240152818161100201528181611488015281816114f8015281816115930152818161173601528181611b98015281816121760152612fdb015260a0518181816103790152612e840152f35b6040513d5f823e3d90fd5b634e487b7160e01b5f52604160045260245ffd5b637938257360e11b5f5260045ffd5b506001600160a01b0383161561017e565b631e4fbdf760e01b5f525f60045260245ffd5b602080916102cb846102ff565b81520191019061009c565b5f80fd5b6040519190601f01601f191682016001600160401b0381118382101761027757604052565b51906001600160a01b03821682036102d65756fe60806040526004361015610011575f80fd5b5f5f3560e01c80630cd865ec14612203578063158013b914611efb57806315ec777a14611eb15780632ec23d6614611b3d57806331f5707214610adc5780633819e5d314610abe5780633b19e84a14610a955780633ba7a31414610a7b57806342e22f9014610a525780634943e3de14610a13578063544e5eca146109455780635adb101c146109045780635f58c554146108b857806362fd6add14610869578063642afd9214610831578063715018a61461081d57806379ba50971461079a5780637f51bb1f1461073f57806382290a321461051b578063839b4b541461050157806383da2a3c146104df5780638da5cb5b146104b657806396d066f514610471578063a1f196101461041f578063b7faa8c3146103de578063bc3d92e2146103a8578063d5c96c1714610363578063dc10160514610309578063dc3f574e14610292578063e30c397814610269578063e30e40cb1461024f578063e43478ef146101f55763f2fde38b14610185575f80fd5b346101f25760203660031901126101f25761019e6122ad565b6101a6613390565b600780546001600160a01b0319166001600160a01b039283169081179091556006549091167f38d16b8cac22d99fc7c124b9cd0de2d3fa1faef420bfe791d8c362d765e227008380a380f35b80fd5b50346101f25760403660031901126101f25760206102476102146122ad565b61021c6122c3565b6001600160a01b039182165f9081526020818152604080832093909416825291909152206004015490565b604051908152f35b50346101f2576020610247610263366122ed565b91612f40565b50346101f257806003193601126101f2576007546040516001600160a01b039091168152602090f35b50346101f25760203660031901126101f257806102ad6122ad565b6102b5613390565b6001600160a01b0316803b1561030657818091600460405180948193632a54225d60e11b83525af180156102fb576102ea5750f35b816102f4916123f2565b6101f25780f35b6040513d84823e3d90fd5b50fd5b50346101f25760403660031901126101f25760406103256122ad565b9161032e6122c3565b6001600160a01b0393841682526020828152929091209083165f90815290825260409081902060010154905192161515825290f35b50346101f257806003193601126101f2576040517f00000000000000000000000000000000000000000000000000000000000000006001600160a01b03168152602090f35b50346101f25760203660031901126101f25760206103cc6103c76122ad565b612e71565b6040516001600160a01b039091168152f35b50346101f25760203660031901126101f2576020906001600160a01b036104036122ad565b16815260038252604060018060a01b0391205416604051908152f35b50346101f25760203660031901126101f25760043561043c613390565b8015158061045f575b1561045057600a5580f35b6305e5b5e560e31b8252600482fd5b5067016345785d8a0000811115610445565b50346101f257806003193601126101f2576040517f00000000000000000000000000000000000000000000000000000000000000006001600160a01b03168152602090f35b50346101f257806003193601126101f2576006546040516001600160a01b039091168152602090f35b50346101f257806003193601126101f25760206040516658d15e176280008152f35b50346101f2576020610247610515366122ed565b91612e63565b50346101f25760403660031901126101f257602435906004356001600160401b03831161073b5760a0600319843603011261073b576040519061055d826123bb565b83600401356001600160401b038111610737576105809060043691870101612481565b825260208201936024810135855261059a604482016122d9565b90604084019182526105ae606482016122d9565b906060850191825260848101356001600160401b038111610733576105d8913691016004016126d4565b6080850190815233865260086020526105f48460408820612c15565b5080549060ff82161561072457936106ba936004969361063f6106ac948b9c9860ff198216815560018060a01b036001820154169a8b9101549160018060a01b039060081c16612e63565b985196519260018060a01b039051169160018060a01b0390511690519161068a604051988997600160208a01523360408a015260608901526101006080890152610120880190612ca0565b9360a087015260c086015260e0850152601f1984830301610100850152612e08565b03601f1981018352826123f2565b7f00000000000000000000000000000000000000000000000000000000000000006001600160a01b0316803b156107205761070f938580946040519687958694859363701195a160e11b8552600485016129d5565b03925af180156102fb576102ea5750f35b8480fd5b63c926dcb360e01b8852600488fd5b8680fd5b8380fd5b5080fd5b50346101f25760203660031901126101f2576107596122ad565b610761613390565b6001600160a01b0316801561078b576bffffffffffffffffffffffff60a01b600954161760095580f35b637938257360e11b8252600482fd5b50346101f257806003193601126101f257600754336001600160a01b0382160361080a576001600160a01b0319908116600755600680543392811683179091556001600160a01b03167f8be0079c531659141344cd1fd0a4f28419497f9722a3daafe3b4186f6b6457e08380a380f35b63118cdaa760e01b825233600452602482fd5b50346101f257806003193601126101f25780f35b50346101f25760403660031901126101f25761010061085a6108516122ad565b60243590612c42565b6108676040518092612327565bf35b50346101f25760403660031901126101f2576108866102146122ad565b6658d15e17627fff198101919082116108a457602082604051908152f35b634e487b7160e01b81526011600452602490fd5b50346101f25760203660031901126101f2576108d26122ad565b6108da613390565b6001600160a01b0316801561078b576bffffffffffffffffffffffff60a01b600254161760025580f35b50346101f25760803660031901126101f25761091e6122c3565b90604435906001600160a01b03821682036101f25760206102476064358486600435612b98565b50346101f25760203660031901126101f2576001600160a01b036109676122ad565b168152600860205260408120805461097e81612503565b9061098c60405192836123f2565b80825260208201809385526020852085915b8383106109f557868587604051928392602084019060208552518091526040840192915b8181106109d0575050500390f35b919350916020610100826109e76001948851612327565b0194019101918493926109c2565b60076020600192610a0585612b1e565b81520192019201919061099e565b50346101f25760203660031901126101f25760209060ff906040906001600160a01b03610a3e6122ad565b168152600484522054166040519015158152f35b50346101f257806003193601126101f2576002546040516001600160a01b039091168152602090f35b50346101f2576020610247610a8f366122ed565b91612a3d565b50346101f257806003193601126101f2576009546040516001600160a01b039091168152602090f35b50346101f257806003193601126101f2576020600a54604051908152f35b50346101f25760403660031901126101f2576001600160401b03602435116101f2573660236024350112156101f257602435600401356001600160401b03811161073b5760243501903660248301116101f2577f00000000000000000000000000000000000000000000000000000000000000006001600160a01b03163303611b2e57602480358303908101906020811261131157602480350135906002821015610737578391611315576101e090610b936135c6565b126113115761073b57610baa6044602435016122d9565b610bb86064602435016122d9565b91610bc76084602435016122d9565b9460c460243501356001600160401b03811161129057610bf09060248084019181350101612481565b9060a0610c02610104602435016122d9565b936101231901126112905760405191610c1a836123bb565b60243561012481013584526101448101356020850152610164810135604085015261018481013560608501526101a48101356080850152610c5e906101c4016122d9565b916001600160401b036101e460243501351161130d57918791610c9360248b9796950160246101e481350135813501016126d4565b6001600160a01b0389811685526003602052604085205491929116156112ea5791610dbe606096949260809694610cdf60043560018060a01b036002541660018060a01b038d166137b0565b6002546001600160a01b038d81168752600360205260408088205490519c928216999116959091610d0f8d6123bb565b60018060a01b03168c5260043560208d015260018060a01b031660408c015260018060a01b0316898b0152878a0152610dab604051998a988997889663640fc23d60e11b8852306004890152602488015260e4602435013560448801528051606488015260208101516084880152604081015160a48801528b81015160c4880152015160e4860152610140610104860152610144850190613747565b8381036003190161012485015290612e08565b03925af19081156112df5784916112ae575b505b60e46024350135811061129f57610def9060a460243501356134b2565b90610e026001600160a01b038216612e71565b6001600160a01b038085168652602086815260408088209289165f9081529290915290819020905191949190610ea5908590610e3d846123bb565b80546001600160a01b039081168552600182015481166020860181905260028301548216604087015260038301548216606087015260049092015460808601527f000000000000000000000000000000000000000000000000000000000000000016906139a4565b7f00000000000000000000000000000000000000000000000000000000000000006001600160a01b03163b156112905760405163238d657960e01b815294610ef06004870183613567565b8460a487015260018060a01b0316948560c482015261010060e4820152866101048201528681610124818360018060a01b037f0000000000000000000000000000000000000000000000000000000000000000165af180156112945790879161127b575b506040516350d8cd4b60e01b6020820152610fc692610f77906024830190613567565b60043560c48201528160e482015286610104820152306101248201526101248152610fa4610144826123f2565b604051809381926304e2f55f60e11b83526020600484015260248301906129b1565b038183895af19081156112705790610fef91879161124e575b5060208082518301019101613615565b93905061102b6004356001600160a01b037f00000000000000000000000000000000000000000000000000000000000000008116908a166137b0565b61104860243560a401356001600160a01b03898116908516612a3d565b60405163313ce56760e01b8152906020826004816001600160a01b038d165afa918215611243579061108292918992611212575b506134d3565b9460018060a01b0384168752600860205260408720549460018060a01b038516885260086020526040882092604051996110bb8b6123d6565b60018b526001600160a01b0395861660208c01908152951660408b0190815260243560a4013560608c0190815260808c0192835260a08c0193845260c08c0194855260e08c018a815286549096919291680100000000000000008210156111fe579061112c91600182018155612c15565b9790976111ea579b5187549c516001600160a81b0319909d1660ff911515919091161760089c909c1b610100600160a81b03169b909b17865599516001860180546001600160a01b03199081166001600160a01b03938416179091559a51600287015590516003860155905160048501559051600584018054909916908216179097555160069190910155929391929091167fa4f732b8c6eeb0f534d2e40c2bfb293de7684855cdae052e554ff9d53f37a8258480a4600160055580f35b634e487b7160e01b8c5260048c905260248cfd5b634e487b7160e01b8d52604160045260248dfd5b61123591925060203d60201161123c575b61122d81836123f2565b810190613457565b905f61107c565b503d611223565b6040513d8a823e3d90fd5b61126a91503d8089833e61126281836123f2565b810190613942565b5f610fdf565b6040513d88823e3d90fd5b81611285916123f2565b61129057855f610f54565b8580fd5b6040513d89823e3d90fd5b63206ffe1f60e01b8452600484fd5b6112d0915060603d6060116112d8575b6112c881836123f2565b810190613795565b50505f610dd0565b503d6112be565b6040513d86823e3d90fd5b6113089650945050600435925050506001600160a01b03871661362b565b610dd2565b8780fd5b8280fd5b905061010091506113279392936135c6565b1261073b5761133a6044602435016122d9565b906064602435013590608460243501356001600160401b0381116107205761136b9060248084019181350101612481565b9060a460243501359061138260c4602435016122d9565b9461139160e4602435016122d9565b9161010460243501356001600160401b038111611b17576024806113ba930191813501016126d4565b6001600160a01b03918216969282169492909116916113d98688612c42565b928860018060a01b0360c08601511696602086019460018060a01b0386511695604088019960018060a01b038b51169760808a019889519060a08c015192885287602052604088209060018060a01b03165f5260205260405f20916114b060405193611444856123bb565b80546001600160a01b0390811680875260018301548216602088015260028301548216604088015260038301548216606088015260049283015460808801529135917f0000000000000000000000000000000000000000000000000000000000000000909116906137b0565b60405160208101906114c28286613567565b60a081526114d160c0826123f2565b5190206040516349e2903160e11b81526004810191909152602481018590526060816044817f00000000000000000000000000000000000000000000000000000000000000006001600160a01b03165afa908115611b23578991611ab3575b50602001516001600160801b03169080821015611aab5750925b6040516320b76e8160e01b8152936115656004860185613567565b60a4850189905260c485015260e484018190526101206101048501526101248401889052604084610144818b7f00000000000000000000000000000000000000000000000000000000000000006001600160a01b03165af1938415611243578894611a8c575b50816119e3575b505082516001600160a01b03908116875260036020526040872054161591506119c090505751895196516002546001600160a01b0398891698928316979196919261162091889116896139a4565b868552600360205260018060a01b03604086205416604051630bc4ed8360e21b8152602081600481855afa908115611294578791611991575b50611875575060609694926116e8989694926116fa9260018060a01b0360025416978652600360205260018060a01b03604087205416946040519961169d8b6123bb565b8a528d60208b015260408a015289890152608088015260405198899788968795631652a23360e21b87523060048801526024870152604486015260a0606486015260a4850190613747565b83810360031901608485015290612e08565b03925af1908115611294578791611854575b505b915b821061184557825185936117bb9390926117a79261175e90600435906001600160a01b037f0000000000000000000000000000000000000000000000000000000000000000811691166137b0565b88916004358111611837575b5060e001519060018060a01b038451168952600160205260ff60408a20541661179581600a546134d3565b8a938084116117e7575b505050612b8b565b9051909485916001600160a01b03166133b7565b7fcd2b4e62cfe22ecc5a38c25a2dce9e2dd3a29a3e10fa499505b5bfb6aec9b1238480a4600160055580f35b839450611809916117fe6118039261180f96612b8b565b613470565b91613483565b90613494565b835160095491929161182f9184916001600160a01b0390811691166133b7565b5f808061179f565b6004359003915060e061176a565b63206ffe1f60e01b8652600486fd5b61186d915060603d6060116112d8576112c881836123f2565b50505f61170c565b6004975060609198969495935060405197888092630b2339af60e21b82525afa9081156102fb5761191597604097849361195d575b5060018060a01b0360025416958851976118c3896123bb565b88528b602089015288880152606087015260808601528551968795869485936323f8ef1160e11b855230600486015260018060a01b031660248501526044840152608060648401526084830190613747565b03925af190811561129457879161192d575b5061170e565b61194f915060403d604011611956575b61194781836123f2565b810190613615565b505f611927565b503d61193d565b61198091935060603d60601161198a575b61197881836123f2565b810190612a10565b915050915f6118aa565b503d61196e565b6119b3915060203d6020116119b9575b6119ab81836123f2565b81019061372f565b5f611659565b503d6119a1565b5195516119dd969094506001600160a01b0316925061362b915050565b91611710565b604051638720316d60e01b60208201528493611a4f9390611a08906024840190613567565b60c48201528160e4820152306101048201526101048152611a2b610124826123f2565b6040519485809481936304e2f55f60e11b83526020600484015260248301906129b1565b03925af18015611a8157611a67575b808086926115d2565b611a7a903d8087833e61126281836123f2565b505f611a5e565b6040513d87823e3d90fd5b611aa49060403d6040116119565761194781836123f2565b90506115cb565b90509261154a565b90506060813d606011611b1b575b81611ace606093836123f2565b81010312611b175760206001600160801b0391611b0b6040805192611af28461238c565b80518452611b01858201613553565b8585015201613553565b60408201529150611530565b8880fd5b3d9150611ac1565b6040513d8b823e3d90fd5b631dd7877960e11b8152600490fd5b50346101f25760203660031901126101f2576004356001600160401b03811161073b573660238201121561073b5780600401356001600160401b0381116113115736602460608302840101116113115790611b96613390565b7f00000000000000000000000000000000000000000000000000000000000000006001600160a01b031690835b83811015611ead576060810282016060602319823603011261129057604051611beb8161238c565b611bf7602483016122d9565b8082526040611c136064602085019560448101358752016122d9565b92019182526001600160a01b0316918215611e9e575160405190632c3c915760e01b8252600482015260a081602481895afa908115611243578891611e1a575b506020810180516001600160a01b03168403611e0c5780516001600160a01b039081168a5260208a81526040808c20855184165f908152908352819020855181549085166001600160a01b03199182168117835595516001830180549187169183169190911790558683015160028301805491871691831691909117905560608701516003830180549190961691161790935560808501516004938401555163313ce56760e01b815293929091849182905afa918215611b23578992611dec575b50516001600160a01b039081168952600160205260408920805460ff191660ff939093169290921790915581511680611d53575b505050600101611bc3565b606060049160405192838092630b2339af60e21b82525afa908115611243578891611dcb575b506001600160a01b03168203611dbd575190865260036020526040862080546001600160a01b0319166001600160a01b039290921691909117905560015f80611d48565b62cf68ad60e21b8752600487fd5b611de3915060603d811161198a5761197881836123f2565b5090505f611d79565b611e0591925060203d811161123c5761122d81836123f2565b905f611d14565b62cf68ad60e21b8952600489fd5b905060a0813d8211611e96575b81611e3460a093836123f2565b8101031261130d57608060405191611e4b836123bb565b611e54816129fc565b8352611e62602082016129fc565b6020840152611e73604082016129fc565b6040840152611e84606082016129fc565b6060840152015160808201525f611c53565b3d9150611e27565b637938257360e11b8852600488fd5b8480f35b50346101f25760203660031901126101f257611ecb6122ad565b611ed3613390565b6001600160a01b0316801561078b578152600460205260408120805460ff1916600117905580f35b50346121ff5760403660031901126121ff57611f156122ad565b6024356001600160401b0381116121ff57803603916101c06003198401126121ff576024820192611f458461276d565b92611f57606482013580953390613410565b611f608561276d565b93611f87611f81826044850197611f768961276d565b908660040135612b98565b9661276d565b611f908661276d565b90608484013560821986018112156121ff578401906004820190611fb660c4870161276d565b94611fc4610184880161276d565b976101a48801359060a219018112156121ff5787019460048601926040519a5f60208d015260018060a01b031660408c015260018060a01b031660608b015260018060a01b031660808a015260a08901526101e060c0890152813596600b8810156121ff5761016489976106ac97612096606461208f8c6102806121749f6121669b60448e61205b61207d94610200880190612781565b6001600160a01b0361206f602483016122d9565b1661022087015201906127a2565b919092608061024082015201916127d3565b9801612474565b15156102608b015260a482013560e08b01526001600160a01b039081166101008b015260e48201356101208b01526101048201356101408b01526101248201356101608b01526101448201356101808b01529101356101a08901529081166101c0880152868403601f19016101e0880152612110826122d9565b16835260248401356020840152608461215e61214361213260448801856127f3565b60a0604089015260a0880191612834565b61215060648801856127f3565b908783036060890152612834565b9401906127a2565b9160808185039101526127d3565b7f00000000000000000000000000000000000000000000000000000000000000006001600160a01b0316916121a89061276d565b91803b156121ff576121d4935f80946040519687958694859363701195a160e11b8552600485016129d5565b03925af180156121f4576121e6575080f35b6121f291505f906123f2565b005b6040513d5f823e3d90fd5b5f80fd5b346121ff5760203660031901126121ff5761221c6122ad565b612224613390565b6001600160a01b0381169081612243576121f2915047905b33906133b7565b6020602492604051938480926370a0823160e01b82523060048301525afa80156121f4575f90612279575b6121f292509061223c565b506020823d6020116122a5575b81612293602093836123f2565b810103126121ff576121f2915161226e565b3d9150612286565b600435906001600160a01b03821682036121ff57565b602435906001600160a01b03821682036121ff57565b35906001600160a01b03821682036121ff57565b60609060031901126121ff576004356001600160a01b03811681036121ff57906024356001600160a01b03811681036121ff579060443590565b60e0809180511515845260018060a01b03602082015116602085015260018060a01b036040820151166040850152606081015160608501526080810151608085015260a081015160a085015260018060a01b0360c08201511660c08501520151910152565b606081019081106001600160401b038211176123a757604052565b634e487b7160e01b5f52604160045260245ffd5b60a081019081106001600160401b038211176123a757604052565b61010081019081106001600160401b038211176123a757604052565b90601f801991011681019081106001600160401b038211176123a757604052565b6001600160401b0381116123a757601f01601f191660200190565b81601f820112156121ff5780359061244582612413565b9261245360405194856123f2565b828452602083830101116121ff57815f926020809301838601378301015290565b359081151582036121ff57565b9190916080818403126121ff5760405190608082018281106001600160401b038211176123a75760405281938135600b8110156121ff5783526124c6602083016122d9565b60208401526040820135906001600160401b0382116121ff57826124f3606094926124fe9486940161242e565b604086015201612474565b910152565b6001600160401b0381116123a75760051b60200190565b81601f820112156121ff5780359061253182612503565b9261253f60405194856123f2565b82845260208085019360051b830101918183116121ff5760208101935b83851061256b57505050505090565b84356001600160401b0381116121ff5782016060818503601f1901126121ff57604051916125988361238c565b60208201356001600160401b0381116121ff57602090830101610180818703126121ff576040519061018082018281106001600160401b038211176123a757604052803582526020810135602083015260408101356040830152606081013560048110156121ff576060830152612611608082016122d9565b608083015261262260a082016122d9565b60a083015261263360c082016122d9565b60c083015261264460e082016122d9565b60e0830152610100810135610100830152610120810135610120830152610140810135610140830152610160810135906001600160401b0382116121ff5761268e9188910161242e565b61016082015283526040820135926001600160401b0384116121ff576060836126be88602080988198010161242e565b858401520135604082015281520194019361255c565b919060a0838203126121ff57604051906126ed826123bb565b81936126f8816122d9565b83526020810135602084015260408101356001600160401b0381116121ff578261272391830161251a565b604084015260608101356001600160401b0381116121ff578261274791830161251a565b60608401526080810135916001600160401b0383116121ff576080926124fe920161242e565b356001600160a01b03811681036121ff5790565b90600b82101561278e5752565b634e487b7160e01b5f52602160045260245ffd5b9035601e19823603018112156121ff5701602081359101916001600160401b0382116121ff5781360383136121ff57565b908060209392818452848401375f828201840152601f01601f1916010190565b9035601e19823603018112156121ff5701602081359101916001600160401b0382116121ff578160051b360383136121ff57565b90600482101561278e5752565b906020838281520160208260051b85010193835f915b84831061285a5750505050505090565b909192939495601f198282030185528635605e19843603018112156121ff578301803561017e19823603018112156121ff578101606083528035606084015260208101356080840152604081013560a084015260608101359160048310156121ff578360408061299d612984612970602098976128de8a9960c060019d0190612827565b8a8060a01b036128f0608083016122d9565b1660e08801528a8060a01b0361290860a083016122d9565b166101008801528a8060a01b0361292160c083016122d9565b166101208801528a8060a01b0361293a60e083016122d9565b166101408801526101008101356101608801526101208101356101808801526101408101356101a08801526101608101906127a2565b6101806101c08801526101e08701916127d3565b612990878701876127a2565b90868303898801526127d3565b93013591015298019695019301919061284a565b805180835260209291819084018484015e5f828201840152601f01601f1916010190565b6129f9939260609260018060a01b03168252602082015281604082015201906129b1565b90565b51906001600160a01b03821682036121ff57565b908160609103126121ff57612a24816129fc565b916129f96040612a36602085016129fc565b93016129fc565b6001600160a01b039081165f90815260208181526040808320848616845282529182902060020154915163501ad8ff60e11b815293949392909183916004918391165afa9081156121f4575f91612ae4575b50612aa390670de0b6b3a764000092613470565b049060018060a01b03165f52600160205260ff60405f20541660120160ff8111612ad0576129f991613518565b634e487b7160e01b5f52601160045260245ffd5b90506020813d602011612b16575b81612aff602093836123f2565b810103126121ff5751670de0b6b3a7640000612a8f565b3d9150612af2565b90604051612b2b816123d6565b825460ff81161515825260081c6001600160a01b0390811660208301526001840154811660408301526002840154606083015260038401546080830152600484015460a083015260058401541660c08201526006929092015460e0830152565b91908203918211612ad057565b9282612ba392612a3d565b91670de0b6b3a764000003670de0b6b3a76400008111612ad057670de0b6b3a7640000830292808404670de0b6b3a76400001481151715612ad057612bee612bf3926129f995613494565b612b8b565b6001600160a01b039091165f9081526001602052604090205460ff16906134d3565b8054821015612c2e575f52600760205f20910201905f90565b634e487b7160e01b5f52603260045260245ffd5b6129f991612c9a915f60e0604051612c59816123d6565b8281528260208201528260408201528260608201528260808201528260a08201528260c0820152015260018060a01b03165f52600860205260405f20612c15565b50612b1e565b90612cac818351612781565b60018060a01b036020830151166020820152606080612cda60408501516080604086015260808501906129b1565b930151151591015290565b9080602083519182815201916020808360051b8301019401925f915b838310612d1057505050505090565b9091929394602080600192601f19858203018652885190604080612df3612de3610160865160608752805160608801528881015160808801528481015160a0880152612d64606082015160c0890190612827565b8a8060a01b0360808201511660e08801528a8060a01b0360a0820151166101008801528a8060a01b0360c0820151166101208801528a8060a01b0360e082015116610140880152610100810151828801526101208101516101808801526101408101516101a088015201516101806101c08701526101e08601906129b1565b86860151858203888701526129b1565b93015191015297019301930191939290612d01565b6129f99160018060a01b038251168152602082015160208201526080612e52612e40604085015160a0604086015260a0850190612ce5565b60608501518482036060860152612ce5565b9201519060808184039101526129b1565b6129f99282612bf392612f40565b906e5af43d82803e903d91602b57fd5bf37f0000000000000000000000000000000000000000000000000000000000000000763d602d80600a3d3981f3363d3d373d3d3d363d7300000062ffffff8260881c16175f5260781b17602052603760095ff06001600160a01b038116908115612f315792813b156121ff5760405163189acdbd60e31b81526001600160a01b039091166004820152905f908290602490829084905af180156121f457612f255750565b5f612f2f916123f2565b565b63b06ebf3d60e01b5f5260045ffd5b6001600160a01b039081165f90815260208181526040808320938516835292905281902090519290612f71846123bb565b80546001600160a01b039081168552600182015481166020860152600282015481166040808701919091526003830154821660608701908152600493840154608088015260a087209151632e3071cd60e11b81529384019190915291949060c090869060249082907f0000000000000000000000000000000000000000000000000000000000000000165afa9485156121f4575f956132df575b5060808501906130256001600160801b0383511642612b8b565b92831515806132c9575b806132b6575b6130bc575b505050506001600160801b03606081604086015116940151169260018101809111612ad057620f4240840191828511612ad057620f423f9161307b91613470565b930190808211612ad05761309561309a926129f9956134b2565b613494565b6001600160a01b039091165f9081526001602052604090205460ff1690613518565b51604051638c00bf6b60e01b8152916001600160a01b03909116906130e5906004840190613567565b6001600160801b0387511660a483015260208701936001600160801b0385511660c48401526001600160801b0360408901948186511660e48601528160608b01511661010486015251166101248401526020836101648160a08c01956001600160801b038751166101448301525afa9283156121f4575f93613280575b506131c56001600160801b03936131bf613189670de0b6b3a7640000948789511693613470565b6131ba671bc16d674ec8000061319f8380613470565b046729a2241af62c00006131b38483613470565b04926134b2565b6134b2565b90613470565b0492826131dd6131d486613878565b828451166135a6565b169052816131f66131ed85613878565b828a51166135a6565b16875251169081613208575b8061303a565b670de0b6b3a76400009161321b91613470565b04613230816001600160801b03875116612b8b565b6001600160801b0383511691620f42408301809311612ad05760018201809211612ad057613270613275926130956001600160801b03956131d494613470565b613878565b1690525f8080613202565b92506020833d6020116132ae575b8161329b602093836123f2565b810103126121ff579151916131c5613162565b3d915061328e565b5080516001600160a01b03161515613035565b506001600160801b03604088015116151561302f565b90945060c0813d60c011613388575b816132fb60c093836123f2565b810103126121ff576040519060c082018281106001600160401b038211176123a75761337c9160a09160405261333081613553565b845261333e60208201613553565b602085015261334f60408201613553565b604085015261336060608201613553565b606085015261337160808201613553565b608085015201613553565b60a0820152935f61300b565b3d91506132ee565b6006546001600160a01b031633036133a457565b63118cdaa760e01b5f523360045260245ffd5b919091811561340b5760405163a9059cbb60e01b60208201526001600160a01b03939093166024840152604480840192909252908252612f2f91906133fd6064836123f2565b6001600160a01b03166138ea565b505050565b821561340b576040516323b872dd60e01b60208201526001600160a01b039092166024830152306044830152606480830193909352918152612f2f916133fd6084836123f2565b908160209103126121ff575160ff811681036121ff5790565b81810292918115918404141715612ad057565b60ff16604d8111612ad057600a0a90565b811561349e570490565b634e487b7160e01b5f52601260045260245ffd5b91908201809211612ad057565b9060ff8091169116039060ff8211612ad057565b9060ff8116806012115f146134fa5750906118096134f56129f99360126134bf565b613483565b6012101561351457906131bf6134f560126129f9946134bf565b5090565b9060ff811660128111156135395750906118096134f560126129f9946134bf565b6012111561351457906131bf6134f56129f99360126134bf565b51906001600160801b03821682036121ff57565b80516001600160a01b03908116835260208083015182169084015260408083015182169084015260608083015190911690830152608090810151910152565b906001600160801b03809116911601906001600160801b038211612ad057565b6002600554146135d7576002600555565b633ee5aeb560e01b5f5260045ffd5b3d15613610573d906135f782612413565b9161360560405193846123f2565b82523d5f602084013e565b606090565b91908260409103126121ff576020825192015190565b9091602081019260018060a01b038451165f52600460205260ff60405f205416156136ea575f9361366a604092869560018060a01b03845116906137b0565b5191015180519160209091019083906001600160a01b03165af161368c6135e6565b90156136a5578060208061351493518301019101613615565b60405162461bcd60e51b815260206004820152601760248201527f5377617020726f757465722063616c6c206661696c65640000000000000000006044820152606490fd5b60405162461bcd60e51b815260206004820152601760248201527f556e737570706f72746564205377617020526f757465720000000000000000006044820152606490fd5b908160209103126121ff575180151581036121ff5790565b80516001600160a01b039081168352602080830151908401526040808301518216908401526060808301519091169083015260809081015160a09183018290526129f9929190910190612ca0565b908160609103126121ff578051916040602083015192015190565b60405163095ea7b360e01b60208083019182526001600160a01b038581166024850152604480850197909752958352939491939290911691905f906137f66064866123f2565b84519082855af15f513d8261385c575b50501561381257505050565b60405163095ea7b360e01b60208201526001600160a01b0390931660248401525f6044808501919091528352612f2f92613857906138516064826123f2565b826138ea565b6138ea565b9091506138705750803b15155b5f80613806565b600114613869565b6040516138866040826123f2565b60148152731b585e081d5a5b9d0c4c8e08195e18d95959195960621b60208201526001600160801b0382116138c257506001600160801b031690565b60405162461bcd60e51b8152602060048201529081906138e69060248301906129b1565b0390fd5b905f602091828151910182855af1156121f4575f513d61393957506001600160a01b0381163b155b6139195750565b635274afe760e01b5f9081526001600160a01b0391909116600452602490fd5b60011415613912565b6020818303126121ff578051906001600160401b0382116121ff570181601f820112156121ff5780519061397582612413565b9261398360405194856123f2565b828452602083830101116121ff57815f9260208093018386015e8301015290565b60405163095ea7b360e01b602082019081526001600160a01b03909316602482015260448101939093525f9283929083906139e281606481016106ac565b51925af16139ee6135e6565b81613a30575b50156139fc57565b60405162461bcd60e51b815260206004820152600c60248201526b5361666520417070726f766560a01b6044820152606490fd5b8051801592508215613a45575b50505f6139f4565b613a58925060208091830101910161372f565b5f80613a3d56fea2646970667358221220103af0e2ff83c1ababce6e2863a86dd2789048fde33bd7bbcdfe5fdc2b434bc464736f6c634300081e003360c03461008e57601f61055138819003918201601f19168301916001600160401b0383118484101761009257808492604094855283398101031261008e57610052602061004b836100a6565b92016100a6565b9060805260a05260405161049690816100bb823960805181818161014d01528181610210015261028f015260a051818181607e01526102d80152f35b5f80fd5b634e487b7160e01b5f52604160045260245ffd5b51906001600160a01b038216820361008e5756fe6080806040526004361015610012575f80fd5b5f3560e01c90816307a00b1f1461043f5750806309c5eabe1461023f5780631e02700e146101fb5780634f8632ba146101d457806354a844ba1461013b578063c4d66de8146100b15763d8fbc83314610069575f80fd5b346100ad575f3660031901126100ad576040517f00000000000000000000000000000000000000000000000000000000000000006001600160a01b03168152602090f35b5f80fd5b346100ad5760203660031901126100ad576004356001600160a01b038116908190036100ad575f546001600160a01b0381166100f6576001600160a01b031916175f55005b60405162461bcd60e51b815260206004820152601e60248201527f5573657250726f78793a20416c726561647920496e697469616c697a656400006044820152606490fd5b346100ad575f3660031901126100ad577f00000000000000000000000000000000000000000000000000000000000000006001600160a01b0316330361018f575f805460ff60a01b1916600160a01b179055005b60405162461bcd60e51b815260206004820152601760248201527f5573657250726f78793a20556e617574686f72697365640000000000000000006044820152606490fd5b346100ad575f3660031901126100ad575f546040516001600160a01b039091168152602090f35b346100ad575f3660031901126100ad576040517f00000000000000000000000000000000000000000000000000000000000000006001600160a01b03168152602090f35b346100ad5760203660031901126100ad5760043567ffffffffffffffff81116100ad57366023820112156100ad57806004013567ffffffffffffffff81116100ad5736602482840101116100ad577f00000000000000000000000000000000000000000000000000000000000000006001600160a01b031633036103d4575b60245f9282849360405193849301833781018381520390827f00000000000000000000000000000000000000000000000000000000000000005af13d156103cc573d9067ffffffffffffffff82116103b85760405191601f8101601f19908116603f0116830167ffffffffffffffff8111848210176103b85760405282523d5f602084013e5b1561037a576040602091815192839181835280519182918282860152018484015e5f828201840152601f01601f19168101030190f35b60405162461bcd60e51b8152602060048201526016602482015275155cd95c941c9bde1e4e8810d85b1b0811985a5b195960521b6044820152606490fd5b634e487b7160e01b5f52604160045260245ffd5b606090610344565b5f54909190336001600160a01b0382160361018f5760a01c60ff16156103fa57906102be565b60405162461bcd60e51b815260206004820152601f60248201527f5573657250726f78793a204e6f7420696e205265636f76657279204d6f6465006044820152606490fd5b346100ad575f3660031901126100ad5760209060ff5f5460a01c1615158152f3fea26469706673582212202254098261a6e56e1f4a59888bfe65b61d5c35a9073c9812e31f4603c1ba19df64736f6c634300081e0033","linkReferences":{}},"methodIdentifiers":{"LIQUIDATION_BUFFER()":"83da2a3c","acceptOwnership()":"79ba5097","addSupportedCollateralTokens((address,bytes32,address)[])":"2ec23d66","addSwapRouter(address)":"15ec777a","calcDeleverageFlashLoan(address,address,uint256)":"839b4b54","calcLeverageFlashLoan(uint256,address,address,uint256)":"5adb101c","createUserProxy(address)":"bc3d92e2","deleverage(uint256,((uint8,address,bytes,bool),uint256,address,address,(address,uint256,((uint256,uint256,uint256,uint8,address,address,address,address,uint256,uint256,uint256,bytes),bytes,uint256)[],((uint256,uint256,uint256,uint8,address,address,address,address,uint256,uint256,uint256,bytes),bytes,uint256)[],bytes)))":"82290a32","enableRecoveryMode(address)":"dc3f574e","getCollateralValueInLoanToken(address,address,uint256)":"3ba7a314","getLiqLtv(address,address)":"e43478ef","getMaxLtv(address,address)":"62fd6add","getSharesValueInLoanToken(address,address,uint256)":"e30e40cb","getTreasury()":"3b19e84a","getUserLeveragePosition(address,uint256)":"642afd92","getUserLeveragePositions(address)":"544e5eca","getYieldFee()":"3819e5d3","i_morpho()":"96d066f5","i_userProxyImplementation()":"d5c96c17","isSupportedCollateralToken(address,address)":"dc101605","leverage(address,(uint256,address,address,uint256,(uint8,address,bytes,bool),uint256,address,(uint256,uint256,uint256,uint256,uint256),address,(address,uint256,((uint256,uint256,uint256,uint8,address,address,address,address,uint256,uint256,uint256,bytes),bytes,uint256)[],((uint256,uint256,uint256,uint8,address,address,address,address,uint256,uint256,uint256,bytes),bytes,uint256)[],bytes)))":"158013b9","onMorphoFlashLoan(uint256,bytes)":"31f57072","owner()":"8da5cb5b","pendingOwner()":"e30c3978","recover(address)":"0cd865ec","renounceOwnership()":"715018a6","s_isSwapRouter(address)":"4943e3de","s_pendleMarket(address)":"b7faa8c3","s_pendleRouter()":"42e22f90","transferOwnership(address)":"f2fde38b","updatePendleRouter(address)":"5f58c554","updateTreasury(address)":"7f51bb1f","updateYieldFee(uint256)":"a1f19610"},"id":74}