{"abi":[{"type":"constructor","inputs":[{"name":"morphoAddress","type":"address","internalType":"address"},{"name":"pendleRouter","type":"address","internalType":"address"},{"name":"oracleRouter","type":"address","internalType":"address"},{"name":"amountUserCollateralCap","type":"uint256","internalType":"uint256"}],"stateMutability":"nonpayable"},{"type":"function","name":"LIQUIDATION_BUFFER","inputs":[],"outputs":[{"name":"","type":"uint256","internalType":"uint256"}],"stateMutability":"view"},{"type":"function","name":"acceptOwnership","inputs":[],"outputs":[],"stateMutability":"nonpayable"},{"type":"function","name":"addSupportedCollateralTokens","inputs":[{"name":"configs","type":"tuple[]","internalType":"struct CollateralTokenConfig[]","components":[{"name":"collateralToken","type":"address","internalType":"address"},{"name":"loanToken","type":"address","internalType":"address"},{"name":"morphoMarketId","type":"bytes32","internalType":"bytes32"},{"name":"underlyingToken","type":"address","internalType":"address"},{"name":"pendleMarket","type":"address","internalType":"address"}]}],"outputs":[],"stateMutability":"nonpayable"},{"type":"function","name":"calcLoanAmount","inputs":[{"name":"collateralToken","type":"address","internalType":"address"},{"name":"loanToken","type":"address","internalType":"address"},{"name":"userCollateralAmount","type":"uint256","internalType":"uint256"}],"outputs":[{"name":"","type":"uint256","internalType":"uint256"}],"stateMutability":"view"},{"type":"function","name":"getAmountUserCollateralCap","inputs":[],"outputs":[{"name":"","type":"uint256","internalType":"uint256"}],"stateMutability":"view"},{"type":"function","name":"getMaxLtv","inputs":[{"name":"collateralToken","type":"address","internalType":"address"},{"name":"loanToken","type":"address","internalType":"address"}],"outputs":[{"name":"","type":"uint256","internalType":"uint256"}],"stateMutability":"view"},{"type":"function","name":"getRepayAmount","inputs":[{"name":"collateralToken","type":"address","internalType":"address"},{"name":"loanToken","type":"address","internalType":"address"},{"name":"sharesBorrowed","type":"uint256","internalType":"uint256"}],"outputs":[{"name":"amountRepay","type":"uint256","internalType":"uint256"}],"stateMutability":"view"},{"type":"function","name":"getTokenUsdValue","inputs":[{"name":"token","type":"address","internalType":"address"},{"name":"amount","type":"uint256","internalType":"uint256"}],"outputs":[{"name":"","type":"uint256","internalType":"uint256"}],"stateMutability":"view"},{"type":"function","name":"getUserLeveragePosition","inputs":[{"name":"user","type":"address","internalType":"address"},{"name":"positionId","type":"uint256","internalType":"uint256"}],"outputs":[{"name":"","type":"tuple","internalType":"struct LeveragePosition","components":[{"name":"collateralToken","type":"address","internalType":"address"},{"name":"loanToken","type":"address","internalType":"address"},{"name":"amountUserCollateral","type":"uint256","internalType":"uint256"},{"name":"amountTotalCollateral","type":"uint256","internalType":"uint256"},{"name":"sharesBorrowed","type":"uint256","internalType":"uint256"},{"name":"open","type":"bool","internalType":"bool"}]}],"stateMutability":"view"},{"type":"function","name":"getUserLeveragePositions","inputs":[{"name":"user","type":"address","internalType":"address"}],"outputs":[{"name":"","type":"tuple[]","internalType":"struct LeveragePosition[]","components":[{"name":"collateralToken","type":"address","internalType":"address"},{"name":"loanToken","type":"address","internalType":"address"},{"name":"amountUserCollateral","type":"uint256","internalType":"uint256"},{"name":"amountTotalCollateral","type":"uint256","internalType":"uint256"},{"name":"sharesBorrowed","type":"uint256","internalType":"uint256"},{"name":"open","type":"bool","internalType":"bool"}]}],"stateMutability":"view"},{"type":"function","name":"leverage","inputs":[{"name":"onBehalfOf","type":"address","internalType":"address"},{"name":"params","type":"tuple","internalType":"struct LeverageParams","components":[{"name":"collateralToken","type":"address","internalType":"address"},{"name":"loanToken","type":"address","internalType":"address"},{"name":"amountUserCollateral","type":"uint256","internalType":"uint256"},{"name":"approxParams","type":"tuple","internalType":"struct ApproxParams","components":[{"name":"guessMin","type":"uint256","internalType":"uint256"},{"name":"guessMax","type":"uint256","internalType":"uint256"},{"name":"guessOffchain","type":"uint256","internalType":"uint256"},{"name":"maxIteration","type":"uint256","internalType":"uint256"},{"name":"eps","type":"uint256","internalType":"uint256"}]},{"name":"pendleSwap","type":"address","internalType":"address"},{"name":"swapData","type":"tuple","internalType":"struct SwapData","components":[{"name":"swapType","type":"uint8","internalType":"enum SwapType"},{"name":"extRouter","type":"address","internalType":"address"},{"name":"extCalldata","type":"bytes","internalType":"bytes"},{"name":"needScale","type":"bool","internalType":"bool"}]},{"name":"limitOrderData","type":"tuple","internalType":"struct LimitOrderData","components":[{"name":"limitRouter","type":"address","internalType":"address"},{"name":"epsSkipMarket","type":"uint256","internalType":"uint256"},{"name":"normalFills","type":"tuple[]","internalType":"struct FillOrderParams[]","components":[{"name":"order","type":"tuple","internalType":"struct Order","components":[{"name":"salt","type":"uint256","internalType":"uint256"},{"name":"expiry","type":"uint256","internalType":"uint256"},{"name":"nonce","type":"uint256","internalType":"uint256"},{"name":"orderType","type":"uint8","internalType":"enum IPLimitOrderType.OrderType"},{"name":"token","type":"address","internalType":"address"},{"name":"YT","type":"address","internalType":"address"},{"name":"maker","type":"address","internalType":"address"},{"name":"receiver","type":"address","internalType":"address"},{"name":"makingAmount","type":"uint256","internalType":"uint256"},{"name":"lnImpliedRate","type":"uint256","internalType":"uint256"},{"name":"failSafeRate","type":"uint256","internalType":"uint256"},{"name":"permit","type":"bytes","internalType":"bytes"}]},{"name":"signature","type":"bytes","internalType":"bytes"},{"name":"makingAmount","type":"uint256","internalType":"uint256"}]},{"name":"flashFills","type":"tuple[]","internalType":"struct FillOrderParams[]","components":[{"name":"order","type":"tuple","internalType":"struct Order","components":[{"name":"salt","type":"uint256","internalType":"uint256"},{"name":"expiry","type":"uint256","internalType":"uint256"},{"name":"nonce","type":"uint256","internalType":"uint256"},{"name":"orderType","type":"uint8","internalType":"enum IPLimitOrderType.OrderType"},{"name":"token","type":"address","internalType":"address"},{"name":"YT","type":"address","internalType":"address"},{"name":"maker","type":"address","internalType":"address"},{"name":"receiver","type":"address","internalType":"address"},{"name":"makingAmount","type":"uint256","internalType":"uint256"},{"name":"lnImpliedRate","type":"uint256","internalType":"uint256"},{"name":"failSafeRate","type":"uint256","internalType":"uint256"},{"name":"permit","type":"bytes","internalType":"bytes"}]},{"name":"signature","type":"bytes","internalType":"bytes"},{"name":"makingAmount","type":"uint256","internalType":"uint256"}]},{"name":"optData","type":"bytes","internalType":"bytes"}]}]}],"outputs":[],"stateMutability":"nonpayable"},{"type":"function","name":"onMorphoFlashLoan","inputs":[{"name":"amountLoan","type":"uint256","internalType":"uint256"},{"name":"data","type":"bytes","internalType":"bytes"}],"outputs":[],"stateMutability":"nonpayable"},{"type":"function","name":"owner","inputs":[],"outputs":[{"name":"","type":"address","internalType":"address"}],"stateMutability":"view"},{"type":"function","name":"pendingOwner","inputs":[],"outputs":[{"name":"","type":"address","internalType":"address"}],"stateMutability":"view"},{"type":"function","name":"renounceOwnership","inputs":[],"outputs":[],"stateMutability":"nonpayable"},{"type":"function","name":"setAmountUserCollateralCap","inputs":[{"name":"newAmountUserCollateralCap","type":"uint256","internalType":"uint256"}],"outputs":[],"stateMutability":"nonpayable"},{"type":"function","name":"transferOwnership","inputs":[{"name":"newOwner","type":"address","internalType":"address"}],"outputs":[],"stateMutability":"nonpayable"},{"type":"function","name":"unleverage","inputs":[{"name":"positionId","type":"uint256","internalType":"uint256"},{"name":"pendleSwap","type":"address","internalType":"address"},{"name":"swapData","type":"tuple","internalType":"struct SwapData","components":[{"name":"swapType","type":"uint8","internalType":"enum SwapType"},{"name":"extRouter","type":"address","internalType":"address"},{"name":"extCalldata","type":"bytes","internalType":"bytes"},{"name":"needScale","type":"bool","internalType":"bool"}]},{"name":"limitOrderData","type":"tuple","internalType":"struct LimitOrderData","components":[{"name":"limitRouter","type":"address","internalType":"address"},{"name":"epsSkipMarket","type":"uint256","internalType":"uint256"},{"name":"normalFills","type":"tuple[]","internalType":"struct FillOrderParams[]","components":[{"name":"order","type":"tuple","internalType":"struct Order","components":[{"name":"salt","type":"uint256","internalType":"uint256"},{"name":"expiry","type":"uint256","internalType":"uint256"},{"name":"nonce","type":"uint256","internalType":"uint256"},{"name":"orderType","type":"uint8","internalType":"enum IPLimitOrderType.OrderType"},{"name":"token","type":"address","internalType":"address"},{"name":"YT","type":"address","internalType":"address"},{"name":"maker","type":"address","internalType":"address"},{"name":"receiver","type":"address","internalType":"address"},{"name":"makingAmount","type":"uint256","internalType":"uint256"},{"name":"lnImpliedRate","type":"uint256","internalType":"uint256"},{"name":"failSafeRate","type":"uint256","internalType":"uint256"},{"name":"permit","type":"bytes","internalType":"bytes"}]},{"name":"signature","type":"bytes","internalType":"bytes"},{"name":"makingAmount","type":"uint256","internalType":"uint256"}]},{"name":"flashFills","type":"tuple[]","internalType":"struct FillOrderParams[]","components":[{"name":"order","type":"tuple","internalType":"struct Order","components":[{"name":"salt","type":"uint256","internalType":"uint256"},{"name":"expiry","type":"uint256","internalType":"uint256"},{"name":"nonce","type":"uint256","internalType":"uint256"},{"name":"orderType","type":"uint8","internalType":"enum IPLimitOrderType.OrderType"},{"name":"token","type":"address","internalType":"address"},{"name":"YT","type":"address","internalType":"address"},{"name":"maker","type":"address","internalType":"address"},{"name":"receiver","type":"address","internalType":"address"},{"name":"makingAmount","type":"uint256","internalType":"uint256"},{"name":"lnImpliedRate","type":"uint256","internalType":"uint256"},{"name":"failSafeRate","type":"uint256","internalType":"uint256"},{"name":"permit","type":"bytes","internalType":"bytes"}]},{"name":"signature","type":"bytes","internalType":"bytes"},{"name":"makingAmount","type":"uint256","internalType":"uint256"}]},{"name":"optData","type":"bytes","internalType":"bytes"}]}],"outputs":[],"stateMutability":"nonpayable"},{"type":"event","name":"LeveragePositionClosed","inputs":[{"name":"user","type":"address","indexed":true,"internalType":"address"},{"name":"positionId","type":"uint256","indexed":true,"internalType":"uint256"},{"name":"amountReturned","type":"uint256","indexed":true,"internalType":"uint256"}],"anonymous":false},{"type":"event","name":"LeveragePositionOpened","inputs":[{"name":"user","type":"address","indexed":true,"internalType":"address"},{"name":"positionId","type":"uint256","indexed":true,"internalType":"uint256"}],"anonymous":false},{"type":"event","name":"OwnershipTransferStarted","inputs":[{"name":"previousOwner","type":"address","indexed":true,"internalType":"address"},{"name":"newOwner","type":"address","indexed":true,"internalType":"address"}],"anonymous":false},{"type":"event","name":"OwnershipTransferred","inputs":[{"name":"previousOwner","type":"address","indexed":true,"internalType":"address"},{"name":"newOwner","type":"address","indexed":true,"internalType":"address"}],"anonymous":false},{"type":"error","name":"FlashLeverage__InvalidAmountCollateral","inputs":[]},{"type":"error","name":"FlashLeverage__PositionAlreadyUnleveraged","inputs":[]},{"type":"error","name":"FlashLeverage__PositionDoesNotExist","inputs":[]},{"type":"error","name":"FlashLeverage__UnsupportedCollateralToken","inputs":[]},{"type":"error","name":"FlashLeverage__UntrustedLender","inputs":[]},{"type":"error","name":"OwnableInvalidOwner","inputs":[{"name":"owner","type":"address","internalType":"address"}]},{"type":"error","name":"OwnableUnauthorizedAccount","inputs":[{"name":"account","type":"address","internalType":"address"}]},{"type":"error","name":"SafeERC20FailedOperation","inputs":[{"name":"token","type":"address","internalType":"address"}]}],"bytecode":{"object":"0x60e060405234801561000f575f5ffd5b506040516163c93803806163c9833981810160405281019061003191906102ec565b3383858073ffffffffffffffffffffffffffffffffffffffff1660808173ffffffffffffffffffffffffffffffffffffffff1681525050508073ffffffffffffffffffffffffffffffffffffffff1660a08173ffffffffffffffffffffffffffffffffffffffff1681525050505f73ffffffffffffffffffffffffffffffffffffffff168173ffffffffffffffffffffffffffffffffffffffff160361010e575f6040517f1e4fbdf7000000000000000000000000000000000000000000000000000000008152600401610105919061035f565b60405180910390fd5b61011d8161016260201b60201c565b508173ffffffffffffffffffffffffffffffffffffffff1660c08173ffffffffffffffffffffffffffffffffffffffff16815250508060058190555050505050610378565b60035f6101000a81549073ffffffffffffffffffffffffffffffffffffffff02191690556101958161019860201b60201c565b50565b5f60025f9054906101000a900473ffffffffffffffffffffffffffffffffffffffff1690508160025f6101000a81548173ffffffffffffffffffffffffffffffffffffffff021916908373ffffffffffffffffffffffffffffffffffffffff1602179055508173ffffffffffffffffffffffffffffffffffffffff168173ffffffffffffffffffffffffffffffffffffffff167f8be0079c531659141344cd1fd0a4f28419497f9722a3daafe3b4186f6b6457e060405160405180910390a35050565b5f5ffd5b5f73ffffffffffffffffffffffffffffffffffffffff82169050919050565b5f6102888261025f565b9050919050565b6102988161027e565b81146102a2575f5ffd5b50565b5f815190506102b38161028f565b92915050565b5f819050919050565b6102cb816102b9565b81146102d5575f5ffd5b50565b5f815190506102e6816102c2565b92915050565b5f5f5f5f608085870312156103045761030361025b565b5b5f610311878288016102a5565b9450506020610322878288016102a5565b9350506040610333878288016102a5565b9250506060610344878288016102d8565b91505092959194509250565b6103598161027e565b82525050565b5f6020820190506103725f830184610350565b92915050565b60805160a05160c051615fbe61040b5f395f6111d301525f81816124410152818161246801528181612a610152612a8801525f8181610515015281816107d00152818161083c0152818161113a01528181611a6b01528181611c4001528181611d7c01528181612d7101528181612d9801528181612e3101528181612ff90152818161302401526130db0152615fbe5ff3fe608060405234801561000f575f5ffd5b5060043610610114575f3560e01c8063715018a6116100a05780638da5cb5b1161006f5780638da5cb5b146102c6578063abb778aa146102e4578063b3ec404614610302578063e30c397814610332578063f2fde38b1461035057610114565b8063715018a61461026457806373b267d71461026e57806379ba50971461029e57806383da2a3c146102a857610114565b8063544e5eca116100e7578063544e5eca1461019c57806362fd6add146101cc578063642afd92146101fc57806369558a2a1461022c5780636e0030521461024857610114565b8063062c43c6146101185780632553c96b1461013457806331f570721461016457806334692f5b14610180575b5f5ffd5b610132600480360381019061012d9190613cbd565b61036c565b005b61014e60048036038101906101499190613d59565b6105e5565b60405161015b9190613db8565b60405180910390f35b61017e60048036038101906101799190613dd1565b61083a565b005b61019a60048036038101906101959190613fa7565b610920565b005b6101b660048036038101906101b19190613fee565b6109d4565b6040516101c39190614167565b60405180910390f35b6101e660048036038101906101e19190614187565b610b4e565b6040516101f39190613db8565b60405180910390f35b610216600480360381019061021191906141c5565b610be4565b604051610223919061427c565b60405180910390f35b61024660048036038101906102419190614295565b610d3b565b005b610262600480360381019061025d9190614436565b610d4d565b005b61026c6111ce565b005b610288600480360381019061028391906141c5565b6111d0565b6040516102959190613db8565b60405180910390f35b6102a6611277565b005b6102b0611305565b6040516102bd9190613db8565b60405180910390f35b6102ce611310565b6040516102db919061449f565b60405180910390f35b6102ec611338565b6040516102f99190613db8565b60405180910390f35b61031c60048036038101906103179190613d59565b611341565b6040516103299190613db8565b60405180910390f35b61033a61141e565b604051610347919061449f565b60405180910390f35b61036a60048036038101906103659190613fee565b611446565b005b5f33905060045f8273ffffffffffffffffffffffffffffffffffffffff1673ffffffffffffffffffffffffffffffffffffffff1681526020019081526020015f208054905085106103e9576040517f33a9e83f00000000000000000000000000000000000000000000000000000000815260040160405180910390fd5b5f60045f8373ffffffffffffffffffffffffffffffffffffffff1673ffffffffffffffffffffffffffffffffffffffff1681526020019081526020015f208681548110610439576104386144b8565b5b905f5260205f2090600602019050806005015f9054906101000a900460ff1661048e576040517f891e6c9f00000000000000000000000000000000000000000000000000000000815260040160405180910390fd5b5f600183888888886040516020016104ab96959493929190614935565b60405160208183030381529060405290505f610511835f015f9054906101000a900473ffffffffffffffffffffffffffffffffffffffff16846001015f9054906101000a900473ffffffffffffffffffffffffffffffffffffffff1685600401546105e5565b90507f000000000000000000000000000000000000000000000000000000000000000073ffffffffffffffffffffffffffffffffffffffff1663e0232b42846001015f9054906101000a900473ffffffffffffffffffffffffffffffffffffffff1683856040518463ffffffff1660e01b8152600401610593939291906149ea565b5f604051808303815f87803b1580156105aa575f5ffd5b505af11580156105bc573d5f5f3e3d5ffd5b505050505f836005015f6101000a81548160ff0219169083151502179055505050505050505050565b5f5f5f5f8673ffffffffffffffffffffffffffffffffffffffff1673ffffffffffffffffffffffffffffffffffffffff1681526020019081526020015f205f8573ffffffffffffffffffffffffffffffffffffffff1673ffffffffffffffffffffffffffffffffffffffff1681526020019081526020015f206040518060a00160405290815f82015f9054906101000a900473ffffffffffffffffffffffffffffffffffffffff1673ffffffffffffffffffffffffffffffffffffffff1673ffffffffffffffffffffffffffffffffffffffff168152602001600182015f9054906101000a900473ffffffffffffffffffffffffffffffffffffffff1673ffffffffffffffffffffffffffffffffffffffff1673ffffffffffffffffffffffffffffffffffffffff168152602001600282015f9054906101000a900473ffffffffffffffffffffffffffffffffffffffff1673ffffffffffffffffffffffffffffffffffffffff1673ffffffffffffffffffffffffffffffffffffffff168152602001600382015f9054906101000a900473ffffffffffffffffffffffffffffffffffffffff1673ffffffffffffffffffffffffffffffffffffffff1673ffffffffffffffffffffffffffffffffffffffff16815260200160048201548152505090505f5f610813837f000000000000000000000000000000000000000000000000000000000000000073ffffffffffffffffffffffffffffffffffffffff166114f290919063ffffffff16565b93509350505061082e8282876118b49092919063ffffffff16565b93505050509392505050565b7f000000000000000000000000000000000000000000000000000000000000000073ffffffffffffffffffffffffffffffffffffffff163373ffffffffffffffffffffffffffffffffffffffff16146108bf576040517f3baf0ef200000000000000000000000000000000000000000000000000000000815260040160405180910390fd5b5f818060200190518101906108d49190614a49565b90505f60018111156108e9576108e86144e5565b5b8160018111156108fc576108fb6144e5565b5b036109105761090b83836118ed565b61091b565b61091a8383611ae1565b5b505050565b610928611cf3565b5f815190505f5f90505b818110156109cf575f83828151811061094e5761094d6144b8565b5b6020026020010151905061096e815f015182602001518360400151611d7a565b6109c3815f01516040518060400160405280846060015173ffffffffffffffffffffffffffffffffffffffff168152602001846080015173ffffffffffffffffffffffffffffffffffffffff16815250611fb1565b50806001019050610932565b505050565b606060045f8373ffffffffffffffffffffffffffffffffffffffff1673ffffffffffffffffffffffffffffffffffffffff1681526020019081526020015f20805480602002602001604051908101604052809291908181526020015f905b82821015610b43578382905f5260205f2090600602016040518060c00160405290815f82015f9054906101000a900473ffffffffffffffffffffffffffffffffffffffff1673ffffffffffffffffffffffffffffffffffffffff1673ffffffffffffffffffffffffffffffffffffffff168152602001600182015f9054906101000a900473ffffffffffffffffffffffffffffffffffffffff1673ffffffffffffffffffffffffffffffffffffffff1673ffffffffffffffffffffffffffffffffffffffff168152602001600282015481526020016003820154815260200160048201548152602001600582015f9054906101000a900460ff16151515158152505081526020019060010190610a32565b505050509050919050565b5f66b1a2bc2ec500005f5f8573ffffffffffffffffffffffffffffffffffffffff1673ffffffffffffffffffffffffffffffffffffffff1681526020019081526020015f205f8473ffffffffffffffffffffffffffffffffffffffff1673ffffffffffffffffffffffffffffffffffffffff1681526020019081526020015f2060040154610bdc9190614aa1565b905092915050565b610bec6134a9565b60045f8473ffffffffffffffffffffffffffffffffffffffff1673ffffffffffffffffffffffffffffffffffffffff1681526020019081526020015f208281548110610c3b57610c3a6144b8565b5b905f5260205f2090600602016040518060c00160405290815f82015f9054906101000a900473ffffffffffffffffffffffffffffffffffffffff1673ffffffffffffffffffffffffffffffffffffffff1673ffffffffffffffffffffffffffffffffffffffff168152602001600182015f9054906101000a900473ffffffffffffffffffffffffffffffffffffffff1673ffffffffffffffffffffffffffffffffffffffff1673ffffffffffffffffffffffffffffffffffffffff168152602001600282015481526020016003820154815260200160048201548152602001600582015f9054906101000a900460ff161515151581525050905092915050565b610d43611cf3565b8060058190555050565b815f73ffffffffffffffffffffffffffffffffffffffff168173ffffffffffffffffffffffffffffffffffffffff1603610db3576040517f5e9275cc00000000000000000000000000000000000000000000000000000000815260040160405180910390fd5b81604001515f81118015610dc957506005548111155b610dff576040517f5e9275cc00000000000000000000000000000000000000000000000000000000815260040160405180910390fd5b5f835f015190505f846020015190505f856040015190505f73ffffffffffffffffffffffffffffffffffffffff165f5f8573ffffffffffffffffffffffffffffffffffffffff1673ffffffffffffffffffffffffffffffffffffffff1681526020019081526020015f205f8473ffffffffffffffffffffffffffffffffffffffff1673ffffffffffffffffffffffffffffffffffffffff1681526020019081526020015f206001015f9054906101000a900473ffffffffffffffffffffffffffffffffffffffff1673ffffffffffffffffffffffffffffffffffffffff1603610f14576040517f0f97113700000000000000000000000000000000000000000000000000000000815260040160405180910390fd5b610f1f833383612080565b5f610f2b848484611341565b90505f60045f8a73ffffffffffffffffffffffffffffffffffffffff1673ffffffffffffffffffffffffffffffffffffffff1681526020019081526020015f2080549050905060045f8a73ffffffffffffffffffffffffffffffffffffffff1673ffffffffffffffffffffffffffffffffffffffff1681526020019081526020015f206040518060c001604052808773ffffffffffffffffffffffffffffffffffffffff1681526020018673ffffffffffffffffffffffffffffffffffffffff1681526020018581526020015f81526020015f815260200160011515815250908060018154018082558091505060019003905f5260205f2090600602015f909190919091505f820151815f015f6101000a81548173ffffffffffffffffffffffffffffffffffffffff021916908373ffffffffffffffffffffffffffffffffffffffff1602179055506020820151816001015f6101000a81548173ffffffffffffffffffffffffffffffffffffffff021916908373ffffffffffffffffffffffffffffffffffffffff16021790555060408201518160020155606082015181600301556080820151816004015560a0820151816005015f6101000a81548160ff02191690831515021790555050505f5f8a838b606001518c608001518d60a001518e60c001516040516020016111279796959493929190614b3a565b60405160208183030381529060405290507f000000000000000000000000000000000000000000000000000000000000000073ffffffffffffffffffffffffffffffffffffffff1663e0232b428685846040518463ffffffff1660e01b8152600401611195939291906149ea565b5f604051808303815f87803b1580156111ac575f5ffd5b505af11580156111be573d5f5f3e3d5ffd5b5050505050505050505050505050565b565b5f7f000000000000000000000000000000000000000000000000000000000000000073ffffffffffffffffffffffffffffffffffffffff1663ae68676c83856103486040518463ffffffff1660e01b815260040161123093929190614bb9565b602060405180830381865afa15801561124b573d5f5f3e3d5ffd5b505050506040513d601f19601f8201168201806040525081019061126f9190614c02565b905092915050565b5f6112806120bb565b90508073ffffffffffffffffffffffffffffffffffffffff166112a161141e565b73ffffffffffffffffffffffffffffffffffffffff16146112f957806040517f118cdaa70000000000000000000000000000000000000000000000000000000081526004016112f0919061449f565b60405180910390fd5b611302816120c2565b50565b66b1a2bc2ec5000081565b5f60025f9054906101000a900473ffffffffffffffffffffffffffffffffffffffff16905090565b5f600554905090565b5f5f61134d85846111d0565b90505f61137f61135d8787610b4e565b670de0b6b3a76400006113709190614aa1565b836120f290919063ffffffff16565b90505f828261138e9190614aa1565b905061141260128773ffffffffffffffffffffffffffffffffffffffff1663313ce5676040518163ffffffff1660e01b8152600401602060405180830381865afa1580156113de573d5f5f3e3d5ffd5b505050506040513d601f19601f820116820180604052508101906114029190614c63565b836121249092919063ffffffff16565b93505050509392505050565b5f60035f9054906101000a900473ffffffffffffffffffffffffffffffffffffffff16905090565b61144e611cf3565b8060035f6101000a81548173ffffffffffffffffffffffffffffffffffffffff021916908373ffffffffffffffffffffffffffffffffffffffff1602179055508073ffffffffffffffffffffffffffffffffffffffff166114ad611310565b73ffffffffffffffffffffffffffffffffffffffff167f38d16b8cac22d99fc7c124b9cd0de2d3fa1faef420bfe791d8c362d765e2270060405160405180910390a350565b5f5f5f5f5f611500866121a0565b90505f8773ffffffffffffffffffffffffffffffffffffffff16635c60e39a836040518263ffffffff1660e01b815260040161153c9190614cae565b60c060405180830381865afa158015611557573d5f5f3e3d5ffd5b505050506040513d601f19601f8201168201806040525081019061157b9190614da9565b90505f81608001516fffffffffffffffffffffffffffffffff16426115a09190614aa1565b90505f81141580156115c857505f82604001516fffffffffffffffffffffffffffffffff1614155b801561160457505f73ffffffffffffffffffffffffffffffffffffffff16886060015173ffffffffffffffffffffffffffffffffffffffff1614155b15611839575f886060015173ffffffffffffffffffffffffffffffffffffffff16638c00bf6b8a856040518363ffffffff1660e01b8152600401611649929190614ec2565b602060405180830381865afa158015611664573d5f5f3e3d5ffd5b505050506040513d601f19601f820116820180604052508101906116889190614c02565b90505f6116c66116a184846121ac90919063ffffffff16565b85604001516fffffffffffffffffffffffffffffffff1661222290919063ffffffff16565b90506116d18161223e565b846040018181516116e29190614eea565b9150906fffffffffffffffffffffffffffffffff1690816fffffffffffffffffffffffffffffffff16815250506117188161223e565b845f018181516117289190614eea565b9150906fffffffffffffffffffffffffffffffff1690816fffffffffffffffffffffffffffffffff16815250505f8460a001516fffffffffffffffffffffffffffffffff1614611836575f61179c8560a001516fffffffffffffffffffffffffffffffff168361222290919063ffffffff16565b90505f6117ea82875f01516fffffffffffffffffffffffffffffffff166117c39190614aa1565b87602001516fffffffffffffffffffffffffffffffff16846122d59092919063ffffffff16565b90506117f58161223e565b866020018181516118069190614eea565b9150906fffffffffffffffffffffffffffffffff1690816fffffffffffffffffffffffffffffffff168152505050505b50505b815f0151826020015183604001518460600151836fffffffffffffffffffffffffffffffff169350826fffffffffffffffffffffffffffffffff169250816fffffffffffffffffffffffffffffffff169150806fffffffffffffffffffffffffffffffff169050965096509650965050505092959194509250565b5f6118e46001846118c59190614f2d565b620f4240846118d49190614f2d565b8661230e9092919063ffffffff16565b90509392505050565b5f5f5f5f5f5f8680602001905181019061190791906154d7565b965096509650965096509650505f60045f8873ffffffffffffffffffffffffffffffffffffffff1673ffffffffffffffffffffffffffffffffffffffff1681526020019081526020015f208681548110611964576119636144b8565b5b905f5260205f20906006020190505f6119c7826001015f9054906101000a900473ffffffffffffffffffffffffffffffffffffffff16835f015f9054906101000a900473ffffffffffffffffffffffffffffffffffffffff168c89898989612346565b90508082600201546119d99190614f2d565b82600301819055505f611a37835f015f9054906101000a900473ffffffffffffffffffffffffffffffffffffffff16846001015f9054906101000a900473ffffffffffffffffffffffffffffffffffffffff1685600301548e61252f565b9050808360040181905550611a90836001015f9054906101000a900473ffffffffffffffffffffffffffffffffffffffff167f00000000000000000000000000000000000000000000000000000000000000008d612735565b878973ffffffffffffffffffffffffffffffffffffffff167f156f6d0646dd158e7f2defae7688ad0969dd6582e7b5fb776a1692db7cea287360405160405180910390a35050505050505050505050565b5f5f5f5f5f85806020019051810190611afa91906155b0565b95509550955095509550505f60045f8773ffffffffffffffffffffffffffffffffffffffff1673ffffffffffffffffffffffffffffffffffffffff1681526020019081526020015f208581548110611b5557611b546144b8565b5b905f5260205f2090600602019050611bbd815f015f9054906101000a900473ffffffffffffffffffffffffffffffffffffffff16826001015f9054906101000a900473ffffffffffffffffffffffffffffffffffffffff168a84600301548560040154612765565b5f611c15825f015f9054906101000a900473ffffffffffffffffffffffffffffffffffffffff16836001015f9054906101000a900473ffffffffffffffffffffffffffffffffffffffff168460030154888888612966565b9050611c65826001015f9054906101000a900473ffffffffffffffffffffffffffffffffffffffff167f00000000000000000000000000000000000000000000000000000000000000008b612735565b5f89821115611ca2578982039050611ca1836001015f9054906101000a900473ffffffffffffffffffffffffffffffffffffffff168983612b4c565b5b80878973ffffffffffffffffffffffffffffffffffffffff167fcd2b4e62cfe22ecc5a38c25a2dce9e2dd3a29a3e10fa499505b5bfb6aec9b12360405160405180910390a450505050505050505050565b611cfb6120bb565b73ffffffffffffffffffffffffffffffffffffffff16611d19611310565b73ffffffffffffffffffffffffffffffffffffffff1614611d7857611d3c6120bb565b6040517f118cdaa7000000000000000000000000000000000000000000000000000000008152600401611d6f919061449f565b60405180910390fd5b565b7f000000000000000000000000000000000000000000000000000000000000000073ffffffffffffffffffffffffffffffffffffffff16632c3c9157826040518263ffffffff1660e01b8152600401611dd39190614cae565b60a060405180830381865afa158015611dee573d5f5f3e3d5ffd5b505050506040513d601f19601f82011682018060405250810190611e1291906156fa565b5f5f8573ffffffffffffffffffffffffffffffffffffffff1673ffffffffffffffffffffffffffffffffffffffff1681526020019081526020015f205f8473ffffffffffffffffffffffffffffffffffffffff1673ffffffffffffffffffffffffffffffffffffffff1681526020019081526020015f205f820151815f015f6101000a81548173ffffffffffffffffffffffffffffffffffffffff021916908373ffffffffffffffffffffffffffffffffffffffff1602179055506020820151816001015f6101000a81548173ffffffffffffffffffffffffffffffffffffffff021916908373ffffffffffffffffffffffffffffffffffffffff1602179055506040820151816002015f6101000a81548173ffffffffffffffffffffffffffffffffffffffff021916908373ffffffffffffffffffffffffffffffffffffffff1602179055506060820151816003015f6101000a81548173ffffffffffffffffffffffffffffffffffffffff021916908373ffffffffffffffffffffffffffffffffffffffff16021790555060808201518160040155905050505050565b8060015f8473ffffffffffffffffffffffffffffffffffffffff1673ffffffffffffffffffffffffffffffffffffffff1681526020019081526020015f205f820151815f015f6101000a81548173ffffffffffffffffffffffffffffffffffffffff021916908373ffffffffffffffffffffffffffffffffffffffff1602179055506020820151816001015f6101000a81548173ffffffffffffffffffffffffffffffffffffffff021916908373ffffffffffffffffffffffffffffffffffffffff1602179055509050505050565b5f8103156120b6576120b58230838673ffffffffffffffffffffffffffffffffffffffff16612b85909392919063ffffffff16565b5b505050565b5f33905090565b60035f6101000a81549073ffffffffffffffffffffffffffffffffffffffff02191690556120ef81612c07565b50565b5f5f670de0b6b3a7640000846121089190615725565b905082818161211a57612119615766565b5b0491505092915050565b5f8160ff168360ff16111561215d57818361213f9190615793565b600a61214b91906158f6565b846121569190615940565b9050612199565b8160ff168360ff1610156121955782826121779190615793565b600a61218391906158f6565b8461218e9190615725565b9050612199565b8390505b9392505050565b5f60a082209050919050565b5f5f82846121ba9190615725565b90505f6121dc8283670de0b6b3a764000060026121d79190615725565b612cca565b90505f6121fe8284670de0b6b3a764000060036121f99190615725565b612cca565b905080828461220d9190614f2d565b6122179190614f2d565b935050505092915050565b5f6122368383670de0b6b3a7640000612cca565b905092915050565b5f6fffffffffffffffffffffffffffffffff80168211156040518060400160405280601481526020017f6d61782075696e74313238206578636565646564000000000000000000000000815250906122cc576040517f08c379a00000000000000000000000000000000000000000000000000000000081526004016122c391906159c2565b60405180910390fd5b50819050919050565b5f612305620f4240836122e89190614f2d565b6001856122f59190614f2d565b86612cca9092919063ffffffff16565b90509392505050565b5f8160018361231d9190614aa1565b84866123299190615725565b6123339190614f2d565b61233d9190615940565b90509392505050565b5f5f60015f8973ffffffffffffffffffffffffffffffffffffffff1673ffffffffffffffffffffffffffffffffffffffff1681526020019081526020015f206040518060400160405290815f82015f9054906101000a900473ffffffffffffffffffffffffffffffffffffffff1673ffffffffffffffffffffffffffffffffffffffff1673ffffffffffffffffffffffffffffffffffffffff168152602001600182015f9054906101000a900473ffffffffffffffffffffffffffffffffffffffff1673ffffffffffffffffffffffffffffffffffffffff1673ffffffffffffffffffffffffffffffffffffffff16815250509050612466897f000000000000000000000000000000000000000000000000000000000000000089612735565b7f000000000000000000000000000000000000000000000000000000000000000073ffffffffffffffffffffffffffffffffffffffff1663c81f847a3083602001515f8a6124ba8f8e895f01518e8e612ceb565b896040518763ffffffff1660e01b81526004016124dc96959493929190615af7565b6060604051808303815f875af11580156124f8573d5f5f3e3d5ffd5b505050506040513d601f19601f8201168201806040525081019061251c9190615b67565b9050508092505050979650505050505050565b5f5f5f5f8773ffffffffffffffffffffffffffffffffffffffff1673ffffffffffffffffffffffffffffffffffffffff1681526020019081526020015f205f8673ffffffffffffffffffffffffffffffffffffffff1673ffffffffffffffffffffffffffffffffffffffff1681526020019081526020015f206040518060a00160405290815f82015f9054906101000a900473ffffffffffffffffffffffffffffffffffffffff1673ffffffffffffffffffffffffffffffffffffffff1673ffffffffffffffffffffffffffffffffffffffff168152602001600182015f9054906101000a900473ffffffffffffffffffffffffffffffffffffffff1673ffffffffffffffffffffffffffffffffffffffff1673ffffffffffffffffffffffffffffffffffffffff168152602001600282015f9054906101000a900473ffffffffffffffffffffffffffffffffffffffff1673ffffffffffffffffffffffffffffffffffffffff1673ffffffffffffffffffffffffffffffffffffffff168152602001600382015f9054906101000a900473ffffffffffffffffffffffffffffffffffffffff1673ffffffffffffffffffffffffffffffffffffffff1673ffffffffffffffffffffffffffffffffffffffff168152602001600482015481525050905061271c8185612d67565b6127268184612e24565b90508092505050949350505050565b61276082828573ffffffffffffffffffffffffffffffffffffffff16612ee19092919063ffffffff16565b505050565b5f5f5f8773ffffffffffffffffffffffffffffffffffffffff1673ffffffffffffffffffffffffffffffffffffffff1681526020019081526020015f205f8673ffffffffffffffffffffffffffffffffffffffff1673ffffffffffffffffffffffffffffffffffffffff1681526020019081526020015f206040518060a00160405290815f82015f9054906101000a900473ffffffffffffffffffffffffffffffffffffffff1673ffffffffffffffffffffffffffffffffffffffff1673ffffffffffffffffffffffffffffffffffffffff168152602001600182015f9054906101000a900473ffffffffffffffffffffffffffffffffffffffff1673ffffffffffffffffffffffffffffffffffffffff1673ffffffffffffffffffffffffffffffffffffffff168152602001600282015f9054906101000a900473ffffffffffffffffffffffffffffffffffffffff1673ffffffffffffffffffffffffffffffffffffffff1673ffffffffffffffffffffffffffffffffffffffff168152602001600382015f9054906101000a900473ffffffffffffffffffffffffffffffffffffffff1673ffffffffffffffffffffffffffffffffffffffff1673ffffffffffffffffffffffffffffffffffffffff1681526020016004820154815250509050612952818584612fee565b505061295e81846130d1565b505050505050565b5f5f60015f8973ffffffffffffffffffffffffffffffffffffffff1673ffffffffffffffffffffffffffffffffffffffff1681526020019081526020015f206040518060400160405290815f82015f9054906101000a900473ffffffffffffffffffffffffffffffffffffffff1673ffffffffffffffffffffffffffffffffffffffff1673ffffffffffffffffffffffffffffffffffffffff168152602001600182015f9054906101000a900473ffffffffffffffffffffffffffffffffffffffff1673ffffffffffffffffffffffffffffffffffffffff1673ffffffffffffffffffffffffffffffffffffffff16815250509050612a86887f00000000000000000000000000000000000000000000000000000000000000008861316b565b7f000000000000000000000000000000000000000000000000000000000000000073ffffffffffffffffffffffffffffffffffffffff1663594a88cc30836020015189612ad98c5f885f01518d8d6132ba565b886040518663ffffffff1660e01b8152600401612afa959493929190615c2a565b6060604051808303815f875af1158015612b16573d5f5f3e3d5ffd5b505050506040513d601f19601f82011682018060405250810190612b3a9190615b67565b90505080925050509695505050505050565b5f810315612b8057612b7f82828573ffffffffffffffffffffffffffffffffffffffff166133369092919063ffffffff16565b5b505050565b612c01848573ffffffffffffffffffffffffffffffffffffffff166323b872dd868686604051602401612bba93929190615c89565b604051602081830303815290604052915060e01b6020820180517bffffffffffffffffffffffffffffffffffffffffffffffffffffffff83818316178352505050506133b5565b50505050565b5f60025f9054906101000a900473ffffffffffffffffffffffffffffffffffffffff1690508160025f6101000a81548173ffffffffffffffffffffffffffffffffffffffff021916908373ffffffffffffffffffffffffffffffffffffffff1602179055508173ffffffffffffffffffffffffffffffffffffffff168173ffffffffffffffffffffffffffffffffffffffff167f8be0079c531659141344cd1fd0a4f28419497f9722a3daafe3b4186f6b6457e060405160405180910390a35050565b5f818385612cd89190615725565b612ce29190615940565b90509392505050565b612cf3613507565b6040518060a001604052808773ffffffffffffffffffffffffffffffffffffffff1681526020018681526020018573ffffffffffffffffffffffffffffffffffffffff1681526020018473ffffffffffffffffffffffffffffffffffffffff16815260200183815250905095945050505050565b612d9682602001517f00000000000000000000000000000000000000000000000000000000000000008361316b565b7f000000000000000000000000000000000000000000000000000000000000000073ffffffffffffffffffffffffffffffffffffffff1663238d65798383306040518463ffffffff1660e01b8152600401612df393929190615ce1565b5f604051808303815f87803b158015612e0a575f5ffd5b505af1158015612e1c573d5f5f3e3d5ffd5b505050505050565b5f5f5f5f3090505f3090507f000000000000000000000000000000000000000000000000000000000000000073ffffffffffffffffffffffffffffffffffffffff166350d8cd4b88888686866040518663ffffffff1660e01b8152600401612e90959493929190615d2a565b60408051808303815f875af1158015612eab573d5f5f3e3d5ffd5b505050506040513d601f19601f82011682018060405250810190612ecf9190615d7d565b80955081965050505050509250929050565b5f8373ffffffffffffffffffffffffffffffffffffffff1663095ea7b38484604051602401612f11929190615dbb565b604051602081830303815290604052915060e01b6020820180517bffffffffffffffffffffffffffffffffffffffffffffffffffffffff83818316178352505050509050612f5f8482613450565b612fe857612fdd848573ffffffffffffffffffffffffffffffffffffffff1663095ea7b3865f604051602401612f96929190615de2565b604051602081830303815290604052915060e01b6020820180517bffffffffffffffffffffffffffffffffffffffffffffffffffffffff83818316178352505050506133b5565b612fe784826133b5565b5b50505050565b5f5f61301e855f01517f000000000000000000000000000000000000000000000000000000000000000086612735565b5f3090507f000000000000000000000000000000000000000000000000000000000000000073ffffffffffffffffffffffffffffffffffffffff166320b76e81875f87856040518563ffffffff1660e01b81526004016130819493929190615e09565b60408051808303815f875af115801561309c573d5f5f3e3d5ffd5b505050506040513d601f19601f820116820180604052508101906130c09190615d7d565b809350819450505050935093915050565b5f3090505f3090507f000000000000000000000000000000000000000000000000000000000000000073ffffffffffffffffffffffffffffffffffffffff16638720316d858585856040518563ffffffff1660e01b81526004016131389493929190615e61565b5f604051808303815f87803b15801561314f575f5ffd5b505af1158015613161573d5f5f3e3d5ffd5b5050505050505050565b5f5f8473ffffffffffffffffffffffffffffffffffffffff1663095ea7b360e01b858560405160240161319f929190615dbb565b604051602081830303815290604052907bffffffffffffffffffffffffffffffffffffffffffffffffffffffff19166020820180517bffffffffffffffffffffffffffffffffffffffffffffffffffffffff83818316178352505050506040516132099190615edf565b5f604051808303815f865af19150503d805f8114613242576040519150601f19603f3d011682016040523d82523d5f602084013e613247565b606091505b509150915081801561327457505f815114806132735750808060200190518101906132729190615ef5565b5b5b6132b3576040517f08c379a00000000000000000000000000000000000000000000000000000000081526004016132aa90615f6a565b60405180910390fd5b5050505050565b6132c261357a565b6040518060a001604052808773ffffffffffffffffffffffffffffffffffffffff1681526020018681526020018573ffffffffffffffffffffffffffffffffffffffff1681526020018473ffffffffffffffffffffffffffffffffffffffff16815260200183815250905095945050505050565b6133b0838473ffffffffffffffffffffffffffffffffffffffff1663a9059cbb8585604051602401613369929190615dbb565b604051602081830303815290604052915060e01b6020820180517bffffffffffffffffffffffffffffffffffffffffffffffffffffffff83818316178352505050506133b5565b505050565b5f5f60205f8451602086015f885af1806133d4576040513d5f823e3d81fd5b3d92505f519150505f82146133ed576001811415613408565b5f8473ffffffffffffffffffffffffffffffffffffffff163b145b1561344a57836040517f5274afe7000000000000000000000000000000000000000000000000000000008152600401613441919061449f565b60405180910390fd5b50505050565b5f5f5f5f60205f8651602088015f8a5af192503d91505f51905082801561349e57505f8214613482576001811461349d565b5f8673ffffffffffffffffffffffffffffffffffffffff163b115b5b935050505092915050565b6040518060c001604052805f73ffffffffffffffffffffffffffffffffffffffff1681526020015f73ffffffffffffffffffffffffffffffffffffffff1681526020015f81526020015f81526020015f81526020015f151581525090565b6040518060a001604052805f73ffffffffffffffffffffffffffffffffffffffff1681526020015f81526020015f73ffffffffffffffffffffffffffffffffffffffff1681526020015f73ffffffffffffffffffffffffffffffffffffffff1681526020016135746135ed565b81525090565b6040518060a001604052805f73ffffffffffffffffffffffffffffffffffffffff1681526020015f81526020015f73ffffffffffffffffffffffffffffffffffffffff1681526020015f73ffffffffffffffffffffffffffffffffffffffff1681526020016135e76135ed565b81525090565b60405180608001604052805f600a81111561360b5761360a6144e5565b5b81526020015f73ffffffffffffffffffffffffffffffffffffffff168152602001606081526020015f151581525090565b5f604051905090565b5f5ffd5b5f5ffd5b5f819050919050565b61365f8161364d565b8114613669575f5ffd5b50565b5f8135905061367a81613656565b92915050565b5f73ffffffffffffffffffffffffffffffffffffffff82169050919050565b5f6136a982613680565b9050919050565b6136b98161369f565b81146136c3575f5ffd5b50565b5f813590506136d4816136b0565b92915050565b5f5ffd5b5f601f19601f8301169050919050565b7f4e487b71000000000000000000000000000000000000000000000000000000005f52604160045260245ffd5b613724826136de565b810181811067ffffffffffffffff82111715613743576137426136ee565b5b80604052505050565b5f61375561363c565b9050613761828261371b565b919050565b5f5ffd5b600b8110613776575f5ffd5b50565b5f813590506137878161376a565b92915050565b5f5ffd5b5f5ffd5b5f67ffffffffffffffff8211156137af576137ae6136ee565b5b6137b8826136de565b9050602081019050919050565b828183375f83830152505050565b5f6137e56137e084613795565b61374c565b90508281526020810184848401111561380157613800613791565b5b61380c8482856137c5565b509392505050565b5f82601f8301126138285761382761378d565b5b81356138388482602086016137d3565b91505092915050565b5f8115159050919050565b61385581613841565b811461385f575f5ffd5b50565b5f813590506138708161384c565b92915050565b5f6080828403121561388b5761388a6136da565b5b613895608061374c565b90505f6138a484828501613779565b5f8301525060206138b7848285016136c6565b602083015250604082013567ffffffffffffffff8111156138db576138da613766565b5b6138e784828501613814565b60408301525060606138fb84828501613862565b60608301525092915050565b5f67ffffffffffffffff821115613921576139206136ee565b5b602082029050602081019050919050565b5f5ffd5b60048110613942575f5ffd5b50565b5f8135905061395381613936565b92915050565b5f610180828403121561396f5761396e6136da565b5b61397a61018061374c565b90505f6139898482850161366c565b5f83015250602061399c8482850161366c565b60208301525060406139b08482850161366c565b60408301525060606139c484828501613945565b60608301525060806139d8848285016136c6565b60808301525060a06139ec848285016136c6565b60a08301525060c0613a00848285016136c6565b60c08301525060e0613a14848285016136c6565b60e083015250610100613a298482850161366c565b61010083015250610120613a3f8482850161366c565b61012083015250610140613a558482850161366c565b6101408301525061016082013567ffffffffffffffff811115613a7b57613a7a613766565b5b613a8784828501613814565b6101608301525092915050565b5f60608284031215613aa957613aa86136da565b5b613ab3606061374c565b90505f82013567ffffffffffffffff811115613ad257613ad1613766565b5b613ade84828501613959565b5f83015250602082013567ffffffffffffffff811115613b0157613b00613766565b5b613b0d84828501613814565b6020830152506040613b218482850161366c565b60408301525092915050565b5f613b3f613b3a84613907565b61374c565b90508083825260208201905060208402830185811115613b6257613b61613932565b5b835b81811015613ba957803567ffffffffffffffff811115613b8757613b8661378d565b5b808601613b948982613a94565b85526020850194505050602081019050613b64565b5050509392505050565b5f82601f830112613bc757613bc661378d565b5b8135613bd7848260208601613b2d565b91505092915050565b5f60a08284031215613bf557613bf46136da565b5b613bff60a061374c565b90505f613c0e848285016136c6565b5f830152506020613c218482850161366c565b602083015250604082013567ffffffffffffffff811115613c4557613c44613766565b5b613c5184828501613bb3565b604083015250606082013567ffffffffffffffff811115613c7557613c74613766565b5b613c8184828501613bb3565b606083015250608082013567ffffffffffffffff811115613ca557613ca4613766565b5b613cb184828501613814565b60808301525092915050565b5f5f5f5f60808587031215613cd557613cd4613645565b5b5f613ce28782880161366c565b9450506020613cf3878288016136c6565b935050604085013567ffffffffffffffff811115613d1457613d13613649565b5b613d2087828801613876565b925050606085013567ffffffffffffffff811115613d4157613d40613649565b5b613d4d87828801613be0565b91505092959194509250565b5f5f5f60608486031215613d7057613d6f613645565b5b5f613d7d868287016136c6565b9350506020613d8e868287016136c6565b9250506040613d9f8682870161366c565b9150509250925092565b613db28161364d565b82525050565b5f602082019050613dcb5f830184613da9565b92915050565b5f5f60408385031215613de757613de6613645565b5b5f613df48582860161366c565b925050602083013567ffffffffffffffff811115613e1557613e14613649565b5b613e2185828601613814565b9150509250929050565b5f67ffffffffffffffff821115613e4557613e446136ee565b5b602082029050602081019050919050565b5f819050919050565b613e6881613e56565b8114613e72575f5ffd5b50565b5f81359050613e8381613e5f565b92915050565b5f60a08284031215613e9e57613e9d6136da565b5b613ea860a061374c565b90505f613eb7848285016136c6565b5f830152506020613eca848285016136c6565b6020830152506040613ede84828501613e75565b6040830152506060613ef2848285016136c6565b6060830152506080613f06848285016136c6565b60808301525092915050565b5f613f24613f1f84613e2b565b61374c565b90508083825260208201905060a08402830185811115613f4757613f46613932565b5b835b81811015613f705780613f5c8882613e89565b84526020840193505060a081019050613f49565b5050509392505050565b5f82601f830112613f8e57613f8d61378d565b5b8135613f9e848260208601613f12565b91505092915050565b5f60208284031215613fbc57613fbb613645565b5b5f82013567ffffffffffffffff811115613fd957613fd8613649565b5b613fe584828501613f7a565b91505092915050565b5f6020828403121561400357614002613645565b5b5f614010848285016136c6565b91505092915050565b5f81519050919050565b5f82825260208201905092915050565b5f819050602082019050919050565b61404b8161369f565b82525050565b61405a8161364d565b82525050565b61406981613841565b82525050565b60c082015f8201516140835f850182614042565b5060208201516140966020850182614042565b5060408201516140a96040850182614051565b5060608201516140bc6060850182614051565b5060808201516140cf6080850182614051565b5060a08201516140e260a0850182614060565b50505050565b5f6140f3838361406f565b60c08301905092915050565b5f602082019050919050565b5f61411582614019565b61411f8185614023565b935061412a83614033565b805f5b8381101561415a57815161414188826140e8565b975061414c836140ff565b92505060018101905061412d565b5085935050505092915050565b5f6020820190508181035f83015261417f818461410b565b905092915050565b5f5f6040838503121561419d5761419c613645565b5b5f6141aa858286016136c6565b92505060206141bb858286016136c6565b9150509250929050565b5f5f604083850312156141db576141da613645565b5b5f6141e8858286016136c6565b92505060206141f98582860161366c565b9150509250929050565b60c082015f8201516142175f850182614042565b50602082015161422a6020850182614042565b50604082015161423d6040850182614051565b5060608201516142506060850182614051565b5060808201516142636080850182614051565b5060a082015161427660a0850182614060565b50505050565b5f60c08201905061428f5f830184614203565b92915050565b5f602082840312156142aa576142a9613645565b5b5f6142b78482850161366c565b91505092915050565b5f60a082840312156142d5576142d46136da565b5b6142df60a061374c565b90505f6142ee8482850161366c565b5f8301525060206143018482850161366c565b60208301525060406143158482850161366c565b60408301525060606143298482850161366c565b606083015250608061433d8482850161366c565b60808301525092915050565b5f610160828403121561435f5761435e6136da565b5b61436960e061374c565b90505f614378848285016136c6565b5f83015250602061438b848285016136c6565b602083015250604061439f8482850161366c565b60408301525060606143b3848285016142c0565b6060830152506101006143c8848285016136c6565b60808301525061012082013567ffffffffffffffff8111156143ed576143ec613766565b5b6143f984828501613876565b60a08301525061014082013567ffffffffffffffff81111561441e5761441d613766565b5b61442a84828501613be0565b60c08301525092915050565b5f5f6040838503121561444c5761444b613645565b5b5f614459858286016136c6565b925050602083013567ffffffffffffffff81111561447a57614479613649565b5b61448685828601614349565b9150509250929050565b6144998161369f565b82525050565b5f6020820190506144b25f830184614490565b92915050565b7f4e487b71000000000000000000000000000000000000000000000000000000005f52603260045260245ffd5b7f4e487b71000000000000000000000000000000000000000000000000000000005f52602160045260245ffd5b60028110614523576145226144e5565b5b50565b5f81905061453382614512565b919050565b5f61454282614526565b9050919050565b61455281614538565b82525050565b600b8110614569576145686144e5565b5b50565b5f81905061457982614558565b919050565b5f6145888261456c565b9050919050565b6145988161457e565b82525050565b5f81519050919050565b5f82825260208201905092915050565b8281835e5f83830152505050565b5f6145d08261459e565b6145da81856145a8565b93506145ea8185602086016145b8565b6145f3816136de565b840191505092915050565b5f608083015f8301516146135f86018261458f565b5060208301516146266020860182614042565b506040830151848203604086015261463e82826145c6565b91505060608301516146536060860182614060565b508091505092915050565b5f81519050919050565b5f82825260208201905092915050565b5f819050602082019050919050565b60048110614698576146976144e5565b5b50565b5f8190506146a882614687565b919050565b5f6146b78261469b565b9050919050565b6146c7816146ad565b82525050565b5f61018083015f8301516146e35f860182614051565b5060208301516146f66020860182614051565b5060408301516147096040860182614051565b50606083015161471c60608601826146be565b50608083015161472f6080860182614042565b5060a083015161474260a0860182614042565b5060c083015161475560c0860182614042565b5060e083015161476860e0860182614042565b5061010083015161477d610100860182614051565b50610120830151614792610120860182614051565b506101408301516147a7610140860182614051565b506101608301518482036101608601526147c182826145c6565b9150508091505092915050565b5f606083015f8301518482035f8601526147e882826146cd565b9150506020830151848203602086015261480282826145c6565b91505060408301516148176040860182614051565b508091505092915050565b5f61482d83836147ce565b905092915050565b5f602082019050919050565b5f61484b8261465e565b6148558185614668565b93508360208202850161486785614678565b805f5b858110156148a257848403895281516148838582614822565b945061488e83614835565b925060208a0199505060018101905061486a565b50829750879550505050505092915050565b5f60a083015f8301516148c95f860182614042565b5060208301516148dc6020860182614051565b50604083015184820360408601526148f48282614841565b9150506060830151848203606086015261490e8282614841565b9150506080830151848203608086015261492882826145c6565b9150508091505092915050565b5f60c0820190506149485f830189614549565b6149556020830188614490565b6149626040830187613da9565b61496f6060830186614490565b818103608083015261498181856145fe565b905081810360a083015261499581846148b4565b9050979650505050505050565b5f82825260208201905092915050565b5f6149bc8261459e565b6149c681856149a2565b93506149d68185602086016145b8565b6149df816136de565b840191505092915050565b5f6060820190506149fd5f830186614490565b614a0a6020830185613da9565b8181036040830152614a1c81846149b2565b9050949350505050565b60028110614a32575f5ffd5b50565b5f81519050614a4381614a26565b92915050565b5f60208284031215614a5e57614a5d613645565b5b5f614a6b84828501614a35565b91505092915050565b7f4e487b71000000000000000000000000000000000000000000000000000000005f52601160045260245ffd5b5f614aab8261364d565b9150614ab68361364d565b9250828203905081811115614ace57614acd614a74565b5b92915050565b60a082015f820151614ae85f850182614051565b506020820151614afb6020850182614051565b506040820151614b0e6040850182614051565b506060820151614b216060850182614051565b506080820151614b346080850182614051565b50505050565b5f61016082019050614b4e5f83018a614549565b614b5b6020830189614490565b614b686040830188613da9565b614b756060830187614ad4565b614b83610100830186614490565b818103610120830152614b9681856145fe565b9050818103610140830152614bab81846148b4565b905098975050505050505050565b5f606082019050614bcc5f830186613da9565b614bd96020830185614490565b614be66040830184614490565b949350505050565b5f81519050614bfc81613656565b92915050565b5f60208284031215614c1757614c16613645565b5b5f614c2484828501614bee565b91505092915050565b5f60ff82169050919050565b614c4281614c2d565b8114614c4c575f5ffd5b50565b5f81519050614c5d81614c39565b92915050565b5f60208284031215614c7857614c77613645565b5b5f614c8584828501614c4f565b91505092915050565b5f614c9882613e56565b9050919050565b614ca881614c8e565b82525050565b5f602082019050614cc15f830184614c9f565b92915050565b5f6fffffffffffffffffffffffffffffffff82169050919050565b614ceb81614cc7565b8114614cf5575f5ffd5b50565b5f81519050614d0681614ce2565b92915050565b5f60c08284031215614d2157614d206136da565b5b614d2b60c061374c565b90505f614d3a84828501614cf8565b5f830152506020614d4d84828501614cf8565b6020830152506040614d6184828501614cf8565b6040830152506060614d7584828501614cf8565b6060830152506080614d8984828501614cf8565b60808301525060a0614d9d84828501614cf8565b60a08301525092915050565b5f60c08284031215614dbe57614dbd613645565b5b5f614dcb84828501614d0c565b91505092915050565b60a082015f820151614de85f850182614042565b506020820151614dfb6020850182614042565b506040820151614e0e6040850182614042565b506060820151614e216060850182614042565b506080820151614e346080850182614051565b50505050565b614e4381614cc7565b82525050565b60c082015f820151614e5d5f850182614e3a565b506020820151614e706020850182614e3a565b506040820151614e836040850182614e3a565b506060820151614e966060850182614e3a565b506080820151614ea96080850182614e3a565b5060a0820151614ebc60a0850182614e3a565b50505050565b5f61016082019050614ed65f830185614dd4565b614ee360a0830184614e49565b9392505050565b5f614ef482614cc7565b9150614eff83614cc7565b925082820190506fffffffffffffffffffffffffffffffff811115614f2757614f26614a74565b5b92915050565b5f614f378261364d565b9150614f428361364d565b9250828201905080821115614f5a57614f59614a74565b5b92915050565b5f614f6a82613680565b9050919050565b614f7a81614f60565b8114614f84575f5ffd5b50565b5f81519050614f9581614f71565b92915050565b5f60a08284031215614fb057614faf6136da565b5b614fba60a061374c565b90505f614fc984828501614bee565b5f830152506020614fdc84828501614bee565b6020830152506040614ff084828501614bee565b604083015250606061500484828501614bee565b606083015250608061501884828501614bee565b60808301525092915050565b5f815190506150328161376a565b92915050565b5f81519050615046816136b0565b92915050565b5f61505e61505984613795565b61374c565b90508281526020810184848401111561507a57615079613791565b5b6150858482856145b8565b509392505050565b5f82601f8301126150a1576150a061378d565b5b81516150b184826020860161504c565b91505092915050565b5f815190506150c88161384c565b92915050565b5f608082840312156150e3576150e26136da565b5b6150ed608061374c565b90505f6150fc84828501615024565b5f83015250602061510f84828501615038565b602083015250604082015167ffffffffffffffff81111561513357615132613766565b5b61513f8482850161508d565b6040830152506060615153848285016150ba565b60608301525092915050565b5f8151905061516d81613936565b92915050565b5f6101808284031215615189576151886136da565b5b61519461018061374c565b90505f6151a384828501614bee565b5f8301525060206151b684828501614bee565b60208301525060406151ca84828501614bee565b60408301525060606151de8482850161515f565b60608301525060806151f284828501615038565b60808301525060a061520684828501615038565b60a08301525060c061521a84828501615038565b60c08301525060e061522e84828501615038565b60e08301525061010061524384828501614bee565b6101008301525061012061525984828501614bee565b6101208301525061014061526f84828501614bee565b6101408301525061016082015167ffffffffffffffff81111561529557615294613766565b5b6152a18482850161508d565b6101608301525092915050565b5f606082840312156152c3576152c26136da565b5b6152cd606061374c565b90505f82015167ffffffffffffffff8111156152ec576152eb613766565b5b6152f884828501615173565b5f83015250602082015167ffffffffffffffff81111561531b5761531a613766565b5b6153278482850161508d565b602083015250604061533b84828501614bee565b60408301525092915050565b5f61535961535484613907565b61374c565b9050808382526020820190506020840283018581111561537c5761537b613932565b5b835b818110156153c357805167ffffffffffffffff8111156153a1576153a061378d565b5b8086016153ae89826152ae565b8552602085019450505060208101905061537e565b5050509392505050565b5f82601f8301126153e1576153e061378d565b5b81516153f1848260208601615347565b91505092915050565b5f60a0828403121561540f5761540e6136da565b5b61541960a061374c565b90505f61542884828501615038565b5f83015250602061543b84828501614bee565b602083015250604082015167ffffffffffffffff81111561545f5761545e613766565b5b61546b848285016153cd565b604083015250606082015167ffffffffffffffff81111561548f5761548e613766565b5b61549b848285016153cd565b606083015250608082015167ffffffffffffffff8111156154bf576154be613766565b5b6154cb8482850161508d565b60808301525092915050565b5f5f5f5f5f5f5f610160888a0312156154f3576154f2613645565b5b5f6155008a828b01614a35565b97505060206155118a828b01614f87565b96505060406155228a828b01614bee565b95505060606155338a828b01614f9b565b9450506101006155458a828b01614f87565b93505061012088015167ffffffffffffffff81111561556757615566613649565b5b6155738a828b016150ce565b92505061014088015167ffffffffffffffff81111561559557615594613649565b5b6155a18a828b016153fa565b91505092959891949750929550565b5f5f5f5f5f5f60c087890312156155ca576155c9613645565b5b5f6155d789828a01614a35565b96505060206155e889828a01614f87565b95505060406155f989828a01614bee565b945050606061560a89828a01614f87565b935050608087015167ffffffffffffffff81111561562b5761562a613649565b5b61563789828a016150ce565b92505060a087015167ffffffffffffffff81111561565857615657613649565b5b61566489828a016153fa565b9150509295509295509295565b5f60a08284031215615686576156856136da565b5b61569060a061374c565b90505f61569f84828501615038565b5f8301525060206156b284828501615038565b60208301525060406156c684828501615038565b60408301525060606156da84828501615038565b60608301525060806156ee84828501614bee565b60808301525092915050565b5f60a0828403121561570f5761570e613645565b5b5f61571c84828501615671565b91505092915050565b5f61572f8261364d565b915061573a8361364d565b92508282026157488161364d565b9150828204841483151761575f5761575e614a74565b5b5092915050565b7f4e487b71000000000000000000000000000000000000000000000000000000005f52601260045260245ffd5b5f61579d82614c2d565b91506157a883614c2d565b9250828203905060ff8111156157c1576157c0614a74565b5b92915050565b5f8160011c9050919050565b5f5f8291508390505b600185111561581c578086048111156157f8576157f7614a74565b5b60018516156158075780820291505b8081029050615815856157c7565b94506157dc565b94509492505050565b5f8261583457600190506158ef565b81615841575f90506158ef565b8160018114615857576002811461586157615890565b60019150506158ef565b60ff84111561587357615872614a74565b5b8360020a91508482111561588a57615889614a74565b5b506158ef565b5060208310610133831016604e8410600b84101617156158c55782820a9050838111156158c0576158bf614a74565b5b6158ef565b6158d284848460016157d3565b925090508184048111156158e9576158e8614a74565b5b81810290505b9392505050565b5f6159008261364d565b915061590b83614c2d565b92506159387fffffffffffffffffffffffffffffffffffffffffffffffffffffffffffffffff8484615825565b905092915050565b5f61594a8261364d565b91506159558361364d565b92508261596557615964615766565b5b828204905092915050565b5f81519050919050565b5f82825260208201905092915050565b5f61599482615970565b61599e818561597a565b93506159ae8185602086016145b8565b6159b7816136de565b840191505092915050565b5f6020820190508181035f8301526159da818461598a565b905092915050565b5f819050919050565b5f819050919050565b5f615a0e615a09615a04846159e2565b6159eb565b61364d565b9050919050565b615a1e816159f4565b82525050565b5f608083015f830151615a395f86018261458f565b506020830151615a4c6020860182614042565b5060408301518482036040860152615a6482826145c6565b9150506060830151615a796060860182614060565b508091505092915050565b5f60a083015f830151615a995f860182614042565b506020830151615aac6020860182614051565b506040830151615abf6040860182614042565b506060830151615ad26060860182614042565b5060808301518482036080860152615aea8282615a24565b9150508091505092915050565b5f61014082019050615b0b5f830189614490565b615b186020830188614490565b615b256040830187615a15565b615b326060830186614ad4565b818103610100830152615b458185615a84565b9050818103610120830152615b5a81846148b4565b9050979650505050505050565b5f5f5f60608486031215615b7e57615b7d613645565b5b5f615b8b86828701614bee565b9350506020615b9c86828701614bee565b9250506040615bad86828701614bee565b9150509250925092565b5f60a083015f830151615bcc5f860182614042565b506020830151615bdf6020860182614051565b506040830151615bf26040860182614042565b506060830151615c056060860182614042565b5060808301518482036080860152615c1d8282615a24565b9150508091505092915050565b5f60a082019050615c3d5f830188614490565b615c4a6020830187614490565b615c576040830186613da9565b8181036060830152615c698185615bb7565b90508181036080830152615c7d81846148b4565b90509695505050505050565b5f606082019050615c9c5f830186614490565b615ca96020830185614490565b615cb66040830184613da9565b949350505050565b50565b5f615ccc5f836149a2565b9150615cd782615cbe565b5f82019050919050565b5f61010082019050615cf55f830186614dd4565b615d0260a0830185613da9565b615d0f60c0830184614490565b81810360e0830152615d2081615cc1565b9050949350505050565b5f61012082019050615d3e5f830188614dd4565b615d4b60a0830187613da9565b615d5860c0830186613da9565b615d6560e0830185614490565b615d73610100830184614490565b9695505050505050565b5f5f60408385031215615d9357615d92613645565b5b5f615da085828601614bee565b9250506020615db185828601614bee565b9150509250929050565b5f604082019050615dce5f830185614490565b615ddb6020830184613da9565b9392505050565b5f604082019050615df55f830185614490565b615e026020830184615a15565b9392505050565b5f61012082019050615e1d5f830187614dd4565b615e2a60a0830186615a15565b615e3760c0830185613da9565b615e4460e0830184614490565b818103610100830152615e5681615cc1565b905095945050505050565b5f61010082019050615e755f830187614dd4565b615e8260a0830186613da9565b615e8f60c0830185614490565b615e9c60e0830184614490565b95945050505050565b5f81905092915050565b5f615eb98261459e565b615ec38185615ea5565b9350615ed38185602086016145b8565b80840191505092915050565b5f615eea8284615eaf565b915081905092915050565b5f60208284031215615f0a57615f09613645565b5b5f615f17848285016150ba565b91505092915050565b7f5361666520417070726f766500000000000000000000000000000000000000005f82015250565b5f615f54600c8361597a565b9150615f5f82615f20565b602082019050919050565b5f6020820190508181035f830152615f8181615f48565b905091905056fea2646970667358221220e212c342b44a4939861b564ceb13b9b2a4b9765513389a6f95022fae2e2f92e064736f6c634300081e0033","linkReferences":{}},"methodIdentifiers":{"LIQUIDATION_BUFFER()":"83da2a3c","acceptOwnership()":"79ba5097","addSupportedCollateralTokens((address,address,bytes32,address,address)[])":"34692f5b","calcLoanAmount(address,address,uint256)":"b3ec4046","getAmountUserCollateralCap()":"abb778aa","getMaxLtv(address,address)":"62fd6add","getRepayAmount(address,address,uint256)":"2553c96b","getTokenUsdValue(address,uint256)":"73b267d7","getUserLeveragePosition(address,uint256)":"642afd92","getUserLeveragePositions(address)":"544e5eca","leverage(address,(address,address,uint256,(uint256,uint256,uint256,uint256,uint256),address,(uint8,address,bytes,bool),(address,uint256,((uint256,uint256,uint256,uint8,address,address,address,address,uint256,uint256,uint256,bytes),bytes,uint256)[],((uint256,uint256,uint256,uint8,address,address,address,address,uint256,uint256,uint256,bytes),bytes,uint256)[],bytes)))":"6e003052","onMorphoFlashLoan(uint256,bytes)":"31f57072","owner()":"8da5cb5b","pendingOwner()":"e30c3978","renounceOwnership()":"715018a6","setAmountUserCollateralCap(uint256)":"69558a2a","transferOwnership(address)":"f2fde38b","unleverage(uint256,address,(uint8,address,bytes,bool),(address,uint256,((uint256,uint256,uint256,uint8,address,address,address,address,uint256,uint256,uint256,bytes),bytes,uint256)[],((uint256,uint256,uint256,uint8,address,address,address,address,uint256,uint256,uint256,bytes),bytes,uint256)[],bytes))":"062c43c6"},"id":99}