{"abi":[{"type":"constructor","inputs":[{"name":"flashLeverageCore","type":"address","internalType":"address"},{"name":"pendleRouter","type":"address","internalType":"address"},{"name":"treasury","type":"address","internalType":"address"}],"stateMutability":"nonpayable"},{"type":"function","name":"YIELD_FEE","inputs":[],"outputs":[{"name":"","type":"uint256","internalType":"uint256"}],"stateMutability":"view"},{"type":"function","name":"acceptOwnership","inputs":[],"outputs":[],"stateMutability":"nonpayable"},{"type":"function","name":"addSupportedCollateralTokens","inputs":[{"name":"tokensConfig","type":"tuple[]","internalType":"struct CollateralTokenConfig[]","components":[{"name":"collateralToken","type":"address","internalType":"address"},{"name":"morphoMarketId","type":"bytes32","internalType":"bytes32"},{"name":"pendleMarket","type":"address","internalType":"address"}]}],"outputs":[],"stateMutability":"nonpayable"},{"type":"function","name":"getTreasury","inputs":[],"outputs":[{"name":"","type":"address","internalType":"address"}],"stateMutability":"view"},{"type":"function","name":"getUserLeveragePosition","inputs":[{"name":"user","type":"address","internalType":"address"},{"name":"positionId","type":"uint256","internalType":"uint256"}],"outputs":[{"name":"","type":"tuple","internalType":"struct LeveragePosition","components":[{"name":"open","type":"bool","internalType":"bool"},{"name":"desiredLtv","type":"uint256","internalType":"uint256"},{"name":"collateralToken","type":"address","internalType":"address"},{"name":"loanToken","type":"address","internalType":"address"},{"name":"amountCollateral","type":"uint256","internalType":"uint256"},{"name":"amountCollateralInLoanToken","type":"uint256","internalType":"uint256"},{"name":"amountLeveragedCollateral","type":"uint256","internalType":"uint256"},{"name":"sharesBorrowed","type":"uint256","internalType":"uint256"}]}],"stateMutability":"view"},{"type":"function","name":"getUserLeveragePositions","inputs":[{"name":"user","type":"address","internalType":"address"}],"outputs":[{"name":"","type":"tuple[]","internalType":"struct LeveragePosition[]","components":[{"name":"open","type":"bool","internalType":"bool"},{"name":"desiredLtv","type":"uint256","internalType":"uint256"},{"name":"collateralToken","type":"address","internalType":"address"},{"name":"loanToken","type":"address","internalType":"address"},{"name":"amountCollateral","type":"uint256","internalType":"uint256"},{"name":"amountCollateralInLoanToken","type":"uint256","internalType":"uint256"},{"name":"amountLeveragedCollateral","type":"uint256","internalType":"uint256"},{"name":"sharesBorrowed","type":"uint256","internalType":"uint256"}]}],"stateMutability":"view"},{"type":"function","name":"i_flashLeverageCore","inputs":[],"outputs":[{"name":"","type":"address","internalType":"contract IFlashLeverageCore"}],"stateMutability":"view"},{"type":"function","name":"i_pendleRouter","inputs":[],"outputs":[{"name":"","type":"address","internalType":"contract IPAllActionV3"}],"stateMutability":"view"},{"type":"function","name":"isSupportedCollateralToken","inputs":[{"name":"collateralToken","type":"address","internalType":"address"}],"outputs":[{"name":"","type":"bool","internalType":"bool"}],"stateMutability":"view"},{"type":"function","name":"leverage","inputs":[{"name":"onBehalfOf","type":"address","internalType":"address"},{"name":"leverageParams","type":"tuple","internalType":"struct LeverageParams","components":[{"name":"desiredLtv","type":"uint256","internalType":"uint256"},{"name":"collateralToken","type":"address","internalType":"address"},{"name":"loanToken","type":"address","internalType":"address"},{"name":"amountCollateral","type":"uint256","internalType":"uint256"},{"name":"approxParams","type":"tuple","internalType":"struct ApproxParams","components":[{"name":"guessMin","type":"uint256","internalType":"uint256"},{"name":"guessMax","type":"uint256","internalType":"uint256"},{"name":"guessOffchain","type":"uint256","internalType":"uint256"},{"name":"maxIteration","type":"uint256","internalType":"uint256"},{"name":"eps","type":"uint256","internalType":"uint256"}]},{"name":"pendleSwap","type":"address","internalType":"address"},{"name":"tokenMintSy","type":"address","internalType":"address"},{"name":"minPtOut","type":"uint256","internalType":"uint256"},{"name":"swapData","type":"tuple","internalType":"struct SwapData","components":[{"name":"swapType","type":"uint8","internalType":"enum SwapType"},{"name":"extRouter","type":"address","internalType":"address"},{"name":"extCalldata","type":"bytes","internalType":"bytes"},{"name":"needScale","type":"bool","internalType":"bool"}]},{"name":"limitOrderData","type":"tuple","internalType":"struct LimitOrderData","components":[{"name":"limitRouter","type":"address","internalType":"address"},{"name":"epsSkipMarket","type":"uint256","internalType":"uint256"},{"name":"normalFills","type":"tuple[]","internalType":"struct FillOrderParams[]","components":[{"name":"order","type":"tuple","internalType":"struct Order","components":[{"name":"salt","type":"uint256","internalType":"uint256"},{"name":"expiry","type":"uint256","internalType":"uint256"},{"name":"nonce","type":"uint256","internalType":"uint256"},{"name":"orderType","type":"uint8","internalType":"enum IPLimitOrderType.OrderType"},{"name":"token","type":"address","internalType":"address"},{"name":"YT","type":"address","internalType":"address"},{"name":"maker","type":"address","internalType":"address"},{"name":"receiver","type":"address","internalType":"address"},{"name":"makingAmount","type":"uint256","internalType":"uint256"},{"name":"lnImpliedRate","type":"uint256","internalType":"uint256"},{"name":"failSafeRate","type":"uint256","internalType":"uint256"},{"name":"permit","type":"bytes","internalType":"bytes"}]},{"name":"signature","type":"bytes","internalType":"bytes"},{"name":"makingAmount","type":"uint256","internalType":"uint256"}]},{"name":"flashFills","type":"tuple[]","internalType":"struct FillOrderParams[]","components":[{"name":"order","type":"tuple","internalType":"struct Order","components":[{"name":"salt","type":"uint256","internalType":"uint256"},{"name":"expiry","type":"uint256","internalType":"uint256"},{"name":"nonce","type":"uint256","internalType":"uint256"},{"name":"orderType","type":"uint8","internalType":"enum IPLimitOrderType.OrderType"},{"name":"token","type":"address","internalType":"address"},{"name":"YT","type":"address","internalType":"address"},{"name":"maker","type":"address","internalType":"address"},{"name":"receiver","type":"address","internalType":"address"},{"name":"makingAmount","type":"uint256","internalType":"uint256"},{"name":"lnImpliedRate","type":"uint256","internalType":"uint256"},{"name":"failSafeRate","type":"uint256","internalType":"uint256"},{"name":"permit","type":"bytes","internalType":"bytes"}]},{"name":"signature","type":"bytes","internalType":"bytes"},{"name":"makingAmount","type":"uint256","internalType":"uint256"}]},{"name":"optData","type":"bytes","internalType":"bytes"}]}]}],"outputs":[],"stateMutability":"nonpayable"},{"type":"function","name":"owner","inputs":[],"outputs":[{"name":"","type":"address","internalType":"address"}],"stateMutability":"view"},{"type":"function","name":"pendingOwner","inputs":[],"outputs":[{"name":"","type":"address","internalType":"address"}],"stateMutability":"view"},{"type":"function","name":"renounceOwnership","inputs":[],"outputs":[],"stateMutability":"nonpayable"},{"type":"function","name":"swapAndLeverage","inputs":[{"name":"onBehalfOf","type":"address","internalType":"address"},{"name":"swapParams","type":"tuple","internalType":"struct SwapParams","components":[{"name":"tokenIn","type":"address","internalType":"address"},{"name":"amountTokenIn","type":"uint256","internalType":"uint256"},{"name":"minPtOut","type":"uint256","internalType":"uint256"},{"name":"approxParams","type":"tuple","internalType":"struct ApproxParams","components":[{"name":"guessMin","type":"uint256","internalType":"uint256"},{"name":"guessMax","type":"uint256","internalType":"uint256"},{"name":"guessOffchain","type":"uint256","internalType":"uint256"},{"name":"maxIteration","type":"uint256","internalType":"uint256"},{"name":"eps","type":"uint256","internalType":"uint256"}]},{"name":"pendleSwap","type":"address","internalType":"address"},{"name":"tokenMintSy","type":"address","internalType":"address"},{"name":"swapData","type":"tuple","internalType":"struct SwapData","components":[{"name":"swapType","type":"uint8","internalType":"enum SwapType"},{"name":"extRouter","type":"address","internalType":"address"},{"name":"extCalldata","type":"bytes","internalType":"bytes"},{"name":"needScale","type":"bool","internalType":"bool"}]},{"name":"limitOrderData","type":"tuple","internalType":"struct LimitOrderData","components":[{"name":"limitRouter","type":"address","internalType":"address"},{"name":"epsSkipMarket","type":"uint256","internalType":"uint256"},{"name":"normalFills","type":"tuple[]","internalType":"struct FillOrderParams[]","components":[{"name":"order","type":"tuple","internalType":"struct Order","components":[{"name":"salt","type":"uint256","internalType":"uint256"},{"name":"expiry","type":"uint256","internalType":"uint256"},{"name":"nonce","type":"uint256","internalType":"uint256"},{"name":"orderType","type":"uint8","internalType":"enum IPLimitOrderType.OrderType"},{"name":"token","type":"address","internalType":"address"},{"name":"YT","type":"address","internalType":"address"},{"name":"maker","type":"address","internalType":"address"},{"name":"receiver","type":"address","internalType":"address"},{"name":"makingAmount","type":"uint256","internalType":"uint256"},{"name":"lnImpliedRate","type":"uint256","internalType":"uint256"},{"name":"failSafeRate","type":"uint256","internalType":"uint256"},{"name":"permit","type":"bytes","internalType":"bytes"}]},{"name":"signature","type":"bytes","internalType":"bytes"},{"name":"makingAmount","type":"uint256","internalType":"uint256"}]},{"name":"flashFills","type":"tuple[]","internalType":"struct FillOrderParams[]","components":[{"name":"order","type":"tuple","internalType":"struct Order","components":[{"name":"salt","type":"uint256","internalType":"uint256"},{"name":"expiry","type":"uint256","internalType":"uint256"},{"name":"nonce","type":"uint256","internalType":"uint256"},{"name":"orderType","type":"uint8","internalType":"enum IPLimitOrderType.OrderType"},{"name":"token","type":"address","internalType":"address"},{"name":"YT","type":"address","internalType":"address"},{"name":"maker","type":"address","internalType":"address"},{"name":"receiver","type":"address","internalType":"address"},{"name":"makingAmount","type":"uint256","internalType":"uint256"},{"name":"lnImpliedRate","type":"uint256","internalType":"uint256"},{"name":"failSafeRate","type":"uint256","internalType":"uint256"},{"name":"permit","type":"bytes","internalType":"bytes"}]},{"name":"signature","type":"bytes","internalType":"bytes"},{"name":"makingAmount","type":"uint256","internalType":"uint256"}]},{"name":"optData","type":"bytes","internalType":"bytes"}]}]},{"name":"leverageParams","type":"tuple","internalType":"struct LeverageParams","components":[{"name":"desiredLtv","type":"uint256","internalType":"uint256"},{"name":"collateralToken","type":"address","internalType":"address"},{"name":"loanToken","type":"address","internalType":"address"},{"name":"amountCollateral","type":"uint256","internalType":"uint256"},{"name":"approxParams","type":"tuple","internalType":"struct ApproxParams","components":[{"name":"guessMin","type":"uint256","internalType":"uint256"},{"name":"guessMax","type":"uint256","internalType":"uint256"},{"name":"guessOffchain","type":"uint256","internalType":"uint256"},{"name":"maxIteration","type":"uint256","internalType":"uint256"},{"name":"eps","type":"uint256","internalType":"uint256"}]},{"name":"pendleSwap","type":"address","internalType":"address"},{"name":"tokenMintSy","type":"address","internalType":"address"},{"name":"minPtOut","type":"uint256","internalType":"uint256"},{"name":"swapData","type":"tuple","internalType":"struct SwapData","components":[{"name":"swapType","type":"uint8","internalType":"enum SwapType"},{"name":"extRouter","type":"address","internalType":"address"},{"name":"extCalldata","type":"bytes","internalType":"bytes"},{"name":"needScale","type":"bool","internalType":"bool"}]},{"name":"limitOrderData","type":"tuple","internalType":"struct LimitOrderData","components":[{"name":"limitRouter","type":"address","internalType":"address"},{"name":"epsSkipMarket","type":"uint256","internalType":"uint256"},{"name":"normalFills","type":"tuple[]","internalType":"struct FillOrderParams[]","components":[{"name":"order","type":"tuple","internalType":"struct Order","components":[{"name":"salt","type":"uint256","internalType":"uint256"},{"name":"expiry","type":"uint256","internalType":"uint256"},{"name":"nonce","type":"uint256","internalType":"uint256"},{"name":"orderType","type":"uint8","internalType":"enum IPLimitOrderType.OrderType"},{"name":"token","type":"address","internalType":"address"},{"name":"YT","type":"address","internalType":"address"},{"name":"maker","type":"address","internalType":"address"},{"name":"receiver","type":"address","internalType":"address"},{"name":"makingAmount","type":"uint256","internalType":"uint256"},{"name":"lnImpliedRate","type":"uint256","internalType":"uint256"},{"name":"failSafeRate","type":"uint256","internalType":"uint256"},{"name":"permit","type":"bytes","internalType":"bytes"}]},{"name":"signature","type":"bytes","internalType":"bytes"},{"name":"makingAmount","type":"uint256","internalType":"uint256"}]},{"name":"flashFills","type":"tuple[]","internalType":"struct FillOrderParams[]","components":[{"name":"order","type":"tuple","internalType":"struct Order","components":[{"name":"salt","type":"uint256","internalType":"uint256"},{"name":"expiry","type":"uint256","internalType":"uint256"},{"name":"nonce","type":"uint256","internalType":"uint256"},{"name":"orderType","type":"uint8","internalType":"enum IPLimitOrderType.OrderType"},{"name":"token","type":"address","internalType":"address"},{"name":"YT","type":"address","internalType":"address"},{"name":"maker","type":"address","internalType":"address"},{"name":"receiver","type":"address","internalType":"address"},{"name":"makingAmount","type":"uint256","internalType":"uint256"},{"name":"lnImpliedRate","type":"uint256","internalType":"uint256"},{"name":"failSafeRate","type":"uint256","internalType":"uint256"},{"name":"permit","type":"bytes","internalType":"bytes"}]},{"name":"signature","type":"bytes","internalType":"bytes"},{"name":"makingAmount","type":"uint256","internalType":"uint256"}]},{"name":"optData","type":"bytes","internalType":"bytes"}]}]}],"outputs":[],"stateMutability":"nonpayable"},{"type":"function","name":"transferOwnership","inputs":[{"name":"newOwner","type":"address","internalType":"address"}],"outputs":[],"stateMutability":"nonpayable"},{"type":"function","name":"unleverage","inputs":[{"name":"user","type":"address","internalType":"address"},{"name":"positionId","type":"uint256","internalType":"uint256"},{"name":"pendleSwap","type":"address","internalType":"address"},{"name":"tokenRedeemSy","type":"address","internalType":"address"},{"name":"minTokenOut","type":"uint256","internalType":"uint256"},{"name":"swapData","type":"tuple","internalType":"struct SwapData","components":[{"name":"swapType","type":"uint8","internalType":"enum SwapType"},{"name":"extRouter","type":"address","internalType":"address"},{"name":"extCalldata","type":"bytes","internalType":"bytes"},{"name":"needScale","type":"bool","internalType":"bool"}]},{"name":"limitOrderData","type":"tuple","internalType":"struct LimitOrderData","components":[{"name":"limitRouter","type":"address","internalType":"address"},{"name":"epsSkipMarket","type":"uint256","internalType":"uint256"},{"name":"normalFills","type":"tuple[]","internalType":"struct FillOrderParams[]","components":[{"name":"order","type":"tuple","internalType":"struct Order","components":[{"name":"salt","type":"uint256","internalType":"uint256"},{"name":"expiry","type":"uint256","internalType":"uint256"},{"name":"nonce","type":"uint256","internalType":"uint256"},{"name":"orderType","type":"uint8","internalType":"enum IPLimitOrderType.OrderType"},{"name":"token","type":"address","internalType":"address"},{"name":"YT","type":"address","internalType":"address"},{"name":"maker","type":"address","internalType":"address"},{"name":"receiver","type":"address","internalType":"address"},{"name":"makingAmount","type":"uint256","internalType":"uint256"},{"name":"lnImpliedRate","type":"uint256","internalType":"uint256"},{"name":"failSafeRate","type":"uint256","internalType":"uint256"},{"name":"permit","type":"bytes","internalType":"bytes"}]},{"name":"signature","type":"bytes","internalType":"bytes"},{"name":"makingAmount","type":"uint256","internalType":"uint256"}]},{"name":"flashFills","type":"tuple[]","internalType":"struct FillOrderParams[]","components":[{"name":"order","type":"tuple","internalType":"struct Order","components":[{"name":"salt","type":"uint256","internalType":"uint256"},{"name":"expiry","type":"uint256","internalType":"uint256"},{"name":"nonce","type":"uint256","internalType":"uint256"},{"name":"orderType","type":"uint8","internalType":"enum IPLimitOrderType.OrderType"},{"name":"token","type":"address","internalType":"address"},{"name":"YT","type":"address","internalType":"address"},{"name":"maker","type":"address","internalType":"address"},{"name":"receiver","type":"address","internalType":"address"},{"name":"makingAmount","type":"uint256","internalType":"uint256"},{"name":"lnImpliedRate","type":"uint256","internalType":"uint256"},{"name":"failSafeRate","type":"uint256","internalType":"uint256"},{"name":"permit","type":"bytes","internalType":"bytes"}]},{"name":"signature","type":"bytes","internalType":"bytes"},{"name":"makingAmount","type":"uint256","internalType":"uint256"}]},{"name":"optData","type":"bytes","internalType":"bytes"}]}],"outputs":[{"name":"amountReturned","type":"uint256","internalType":"uint256"}],"stateMutability":"nonpayable"},{"type":"function","name":"updateTreasury","inputs":[{"name":"newTreasury","type":"address","internalType":"address"}],"outputs":[],"stateMutability":"nonpayable"},{"type":"event","name":"LeveragePositionClosed","inputs":[{"name":"user","type":"address","indexed":true,"internalType":"address"},{"name":"positionId","type":"uint256","indexed":true,"internalType":"uint256"},{"name":"amountReturnedInLoanToken","type":"uint256","indexed":true,"internalType":"uint256"}],"anonymous":false},{"type":"event","name":"LeveragePositionOpened","inputs":[{"name":"user","type":"address","indexed":true,"internalType":"address"},{"name":"positionId","type":"uint256","indexed":true,"internalType":"uint256"},{"name":"amountDepositedInLoanToken","type":"uint256","indexed":true,"internalType":"uint256"}],"anonymous":false},{"type":"event","name":"OwnershipTransferStarted","inputs":[{"name":"previousOwner","type":"address","indexed":true,"internalType":"address"},{"name":"newOwner","type":"address","indexed":true,"internalType":"address"}],"anonymous":false},{"type":"event","name":"OwnershipTransferred","inputs":[{"name":"previousOwner","type":"address","indexed":true,"internalType":"address"},{"name":"newOwner","type":"address","indexed":true,"internalType":"address"}],"anonymous":false},{"type":"error","name":"FlashLeverage__AmountCannotBeZero","inputs":[]},{"type":"error","name":"FlashLeverage__ExceedsMaxLTV","inputs":[]},{"type":"error","name":"FlashLeverage__InvalidOnBehalfOfAddress","inputs":[]},{"type":"error","name":"FlashLeverage__OnlyOwnerCanCloseBeforeMaturity","inputs":[]},{"type":"error","name":"FlashLeverage__PositionAlreadyUnleveraged","inputs":[]},{"type":"error","name":"FlashLeverage__PositionDoesNotExist","inputs":[]},{"type":"error","name":"FlashLeverage__TreasuryCannotBeZero","inputs":[]},{"type":"error","name":"FlashLeverage__UnsupportedCollateralToken","inputs":[]},{"type":"error","name":"OwnableInvalidOwner","inputs":[{"name":"owner","type":"address","internalType":"address"}]},{"type":"error","name":"OwnableUnauthorizedAccount","inputs":[{"name":"account","type":"address","internalType":"address"}]},{"type":"error","name":"SafeERC20FailedOperation","inputs":[{"name":"token","type":"address","internalType":"address"}]}],"bytecode":{"object":"0x60c0604052346100885761001a610014610169565b91610236565b61002261008d565b6142b3610422823960805181818161096b015281816123cd0152612408015260a051818181610a8201528181610d3d015281816112450152818161151501528181612c9c01528181612d0d01528181612d7f01528181612e2f015261389a01526142b390f35b610093565b60405190565b5f80fd5b601f801991011690565b634e487b7160e01b5f52604160045260245ffd5b906100bf90610097565b810190811060018060401b038211176100d757604052565b6100a1565b906100ef6100e861008d565b92836100b5565b565b5f80fd5b60018060a01b031690565b610109906100f5565b90565b61011581610100565b0361011c57565b5f80fd5b9050519061012d8261010c565b565b90916060828403126101645761016161014a845f8501610120565b936101588160208601610120565b93604001610120565b90565b6100f1565b6101876146d58038038061017c816100dc565b92833981019061012f565b909192565b90565b6101a361019e6101a8926100f5565b61018c565b6100f5565b90565b6101b49061018f565b90565b6101c0906101ab565b90565b6101cc9061018f565b90565b6101d8906101c3565b90565b5f1b90565b906101f160018060a01b03916101db565b9181191691161790565b6102049061018f565b90565b610210906101fb565b90565b90565b9061022b61022661023292610207565b610213565b82546101e0565b9055565b61026292916102506102589261024b33610264565b6101b7565b60a0526101cf565b6080526002610216565b565b61026d906102bc565b565b90565b61028661028161028b9261026f565b61018c565b6100f5565b90565b61029790610272565b90565b6102a390610100565b9052565b91906102ba905f6020850194019061029a565b565b806102d76102d16102cc5f61028e565b610100565b91610100565b146102e7576102e590610376565b565b61030a6102f35f61028e565b5f918291631e4fbdf760e01b8352600483016102a7565b0390fd5b1b90565b9190600861033291029161032c60018060a01b038461030e565b9261030e565b9181191691161790565b919061035261034d61035a93610207565b610213565b908354610312565b9055565b5f90565b6103749161036e61035e565b9161033c565b565b61038a906103855f6001610362565b6103c2565b565b5f1c90565b60018060a01b031690565b6103a86103ad9161038c565b610391565b90565b6103ba905461039c565b90565b5f0190565b6103cb5f6103b0565b6103d5825f610216565b906104096104037f8be0079c531659141344cd1fd0a4f28419497f9722a3daafe3b4186f6b6457e093610207565b91610207565b9161041261008d565b8061041c816103bd565b0390a356fe60806040526004361015610013575b610b07565b61001d5f3561012c565b80632ec23d661461012757806337f60d8a146101225780633b19e84a1461011d578063544e5eca14610118578063568fb21c14610113578063642afd921461010e57806370f5585f14610109578063715018a61461010457806379ba5097146100ff5780637f51bb1f146100fa5780638da5cb5b146100f5578063ba02a005146100f0578063dad87911146100eb578063dd2a7a17146100e6578063e30c3978146100e1578063f2fde38b146100dc5763f6a5c87c0361000e57610ad2565b610a4d565b610a18565b6109e3565b61092d565b610831565b6107da565b6107a7565b610774565b610749565b610715565b61069a565b610570565b6104a6565b6102e1565b610273565b6101ca565b60e01c90565b60405190565b5f80fd5b5f80fd5b5f80fd5b5f80fd5b5f80fd5b5f80fd5b909182601f8301121561018a5781359167ffffffffffffffff831161018557602001926060830284011161018057565b61014c565b610148565b610144565b906020828203126101c0575f82013567ffffffffffffffff81116101bb576101b79201610150565b9091565b610140565b61013c565b5f0190565b346101f9576101e36101dd36600461018f565b90610d79565b6101eb610132565b806101f5816101c5565b0390f35b610138565b5f91031261020857565b61013c565b90565b90565b90565b61022a61022561022f9261020d565b610213565b610210565b90565b61024367016345785d8a0000610216565b90565b61024e610232565b90565b61025a90610210565b9052565b9190610271905f60208501940190610251565b565b346102a3576102833660046101fe565b61029f61028e610246565b610296610132565b9182918261025e565b0390f35b610138565b60018060a01b031690565b6102bc906102a8565b90565b6102c8906102b3565b9052565b91906102df905f602085019401906102bf565b565b34610311576102f13660046101fe565b61030d6102fc610dba565b610304610132565b918291826102cc565b0390f35b610138565b61031f816102b3565b0361032657565b5f80fd5b9050359061033782610316565b565b906020828203126103525761034f915f0161032a565b90565b61013c565b5190565b60209181520190565b60200190565b151590565b6103789061036a565b9052565b61038590610210565b9052565b610392906102b3565b9052565b9060e080610424936103ae5f8201515f86019061036f565b6103c06020820151602086019061037c565b6103d260408201516040860190610389565b6103e460608201516060860190610389565b6103f66080820151608086019061037c565b61040860a082015160a086019061037c565b61041a60c082015160c086019061037c565b015191019061037c565b565b906104348161010093610396565b0190565b60200190565b9061045b61045561044e84610357565b809361035b565b92610364565b905f5b81811061046b5750505090565b90919261048461047e6001928651610426565b94610438565b910191909161045e565b6104a39160208201915f81840391015261043e565b90565b346104d6576104d26104c16104bc366004610339565b610fdf565b6104c9610132565b9182918261048e565b0390f35b610138565b5f80fd5b90816101809103126104ee5790565b6104db565b90816101c09103126105025790565b6104db565b9160608383031261056b5761051e825f850161032a565b92602081013567ffffffffffffffff8111610566578361053f9183016104df565b92604082013567ffffffffffffffff81116105615761055e92016104f3565b90565b610140565b610140565b61013c565b3461059f57610589610583366004610507565b9161137a565b610591610132565b8061059b816101c5565b0390f35b610138565b6105ad81610210565b036105b457565b5f80fd5b905035906105c5826105a4565b565b91906040838203126105ef57806105e36105ec925f860161032a565b936020016105b8565b90565b61013c565b9060e0806106829361060c5f8201515f86019061036f565b61061e6020820151602086019061037c565b61063060408201516040860190610389565b61064260608201516060860190610389565b6106546080820151608086019061037c565b61066660a082015160a086019061037c565b61067860c082015160c086019061037c565b015191019061037c565b565b9190610698905f61010085019401906105f4565b565b346106cb576106c76106b66106b03660046105c7565b90611434565b6106be610132565b91829182610684565b0390f35b610138565b919091604081840312610710576106e9835f830161032a565b92602082013567ffffffffffffffff811161070b5761070892016104f3565b90565b610140565b61013c565b346107445761072e6107283660046106d0565b90611601565b610736610132565b80610740816101c5565b0390f35b610138565b3461076f576107593660046101fe565b610761610132565b8061076b816101c5565b0390f35b610138565b346107a2576107843660046101fe565b61078c61160d565b610794610132565b8061079e816101c5565b0390f35b610138565b346107d5576107bf6107ba366004610339565b6116c6565b6107c7610132565b806107d1816101c5565b0390f35b610138565b3461080a576107ea3660046101fe565b6108066107f56116d1565b6107fd610132565b918291826102cc565b0390f35b610138565b6108189061036a565b9052565b919061082f905f6020850194019061080f565b565b346108615761085d61084c610847366004610339565b6116ea565b610854610132565b9182918261081c565b0390f35b610138565b908160809103126108745790565b6104db565b908160a09103126108875790565b6104db565b9060e082820312610928576108a3815f840161032a565b926108b182602085016105b8565b926108bf836040830161032a565b926108cd816060840161032a565b926108db82608085016105b8565b9260a081013567ffffffffffffffff811161092357836108fc918301610866565b9260c082013567ffffffffffffffff811161091e5761091b9201610879565b90565b610140565b610140565b61013c565b346109645761096061094f61094336600461088c565b95949094939193611791565b610957610132565b9182918261025e565b0390f35b610138565b7f000000000000000000000000000000000000000000000000000000000000000090565b6109a161099c6109a6926102a8565b610213565b6102a8565b90565b6109b29061098d565b90565b6109be906109a9565b90565b6109ca906109b5565b9052565b91906109e1905f602085019401906109c1565b565b34610a13576109f33660046101fe565b610a0f6109fe610969565b610a06610132565b918291826109ce565b0390f35b610138565b34610a4857610a283660046101fe565b610a44610a33611851565b610a3b610132565b918291826102cc565b0390f35b610138565b34610a7b57610a65610a60366004610339565b6118d9565b610a6d610132565b80610a77816101c5565b0390f35b610138565b7f000000000000000000000000000000000000000000000000000000000000000090565b610aad906109a9565b90565b610ab990610aa4565b9052565b9190610ad0905f60208501940190610ab0565b565b34610b0257610ae23660046101fe565b610afe610aed610a80565b610af5610132565b91829182610abd565b0390f35b610138565b5f80fd5b90610b1d91610b186118e4565b610cba565b565b5f90565b6001610b2f9101610210565b90565b5090565b634e487b7160e01b5f52603260045260245ffd5b9190811015610b5a576060020190565b610b36565b5f80fd5b601f801991011690565b634e487b7160e01b5f52604160045260245ffd5b90610b8b90610b63565b810190811067ffffffffffffffff821117610ba557604052565b610b6d565b90610bbd610bb6610132565b9283610b81565b565b5f80fd5b90565b610bcf81610bc3565b03610bd657565b5f80fd5b90503590610be782610bc6565b565b9190606083820312610c3557610c2e90610c036060610baa565b93610c10825f830161032a565b5f860152610c218260208301610bda565b602086015260400161032a565b6040830152565b610b5f565b610c45903690610be9565b90565b610c5290516102b3565b90565b610c5e906109a9565b90565b90610c6b90610c55565b5f5260205260405f2090565b5f1b90565b90610c8d60018060a01b0391610c77565b9181191691161790565b90565b90610caf610caa610cb692610c55565b610c97565b8254610c7c565b9055565b919091610cc5610b1f565b5b80610ce3610cdd610cd8858890610b32565b610210565b91610210565b1015610d7357610d6e90610d69610d385f610d08610d03878a8791610b4a565b610c3a565b610d32610d1760408301610c48565b610d2d6003610d27868601610c48565b90610c61565b610c9a565b01610c48565b610d617f0000000000000000000000000000000000000000000000000000000000000000610aa4565b5f1991611a8d565b610b23565b610cc6565b50509050565b90610d8391610b0b565b565b5f90565b5f1c90565b60018060a01b031690565b610da5610daa91610d89565b610d8e565b90565b610db79054610d99565b90565b610dc2610d85565b50610dcd6002610dad565b90565b606090565b90610ddf90610c55565b5f5260205260405f2090565b5490565b67ffffffffffffffff8111610e075760208091020190565b610b6d565b90610e1e610e1983610def565b610baa565b918252565b5f5260205f2090565b60ff1690565b610e3e610e4391610d89565b610e2c565b90565b610e509054610e32565b90565b90610e5d9061036a565b9052565b90565b610e70610e7591610d89565b610e61565b90565b610e829054610e64565b90565b90610e8f90610210565b9052565b90610e9d906102b3565b9052565b610eac610100610baa565b90565b90610f76610f6d6007610ec0610ea1565b94610ed7610ecf5f8301610e46565b5f8801610e53565b610eef610ee660018301610e78565b60208801610e85565b610f07610efe60028301610dad565b60408801610e93565b610f1f610f1660038301610dad565b60608801610e93565b610f37610f2e60048301610e78565b60808801610e85565b610f4f610f4660058301610e78565b60a08801610e85565b610f67610f5e60068301610e78565b60c08801610e85565b01610e78565b60e08401610e85565b565b610f8190610eaf565b90565b90610f8e82610deb565b610f9781610e0c565b92610fa56020850191610e23565b5f915b838310610fb55750505050565b60086020600192610fc585610f78565b815201920192019190610fa8565b610fdc90610f84565b90565b610ff6610ffb91610fee610dd0565b506004610dd5565b610fd3565b90565b90565b61101561101061101a92610ffe565b610213565b6102a8565b90565b61102690611001565b90565b1561103057565b5f6302ac650b60e21b815280611048600482016101c5565b0390fd5b9061107c92916110778161107061106a6110655f61101d565b6102b3565b916102b3565b1415611029565b6110ae565b565b3561108881610316565b90565b1561109257565b5f630f97113760e01b8152806110aa600482016101c5565b0390fd5b906110d592916110d06110cb6110c66020860161107e565b6116ea565b61108b565b611123565b565b356110e1816105a4565b90565b6110f86110f36110fd92610ffe565b610213565b610210565b90565b1561110757565b5f63b02cb97d60e01b81528061111f600482016101c5565b0390fd5b906111559291611150611138602084016110d7565b61114a6111445f6110e4565b91610210565b11611100565b611157565b565b90611189929161118461116c606085016110d7565b61117e6111785f6110e4565b91610210565b11611100565b611218565b565b5f80fd5b60e01b90565b905051906111a2826105a4565b565b906020828203126111bd576111ba915f01611195565b90565b61013c565b9160206111e39294936111dc60408201965f8301906102bf565b01906102bf565b565b6111ed610132565b3d5f823e3d90fd5b156111fc57565b5f636e5e2aa760e11b815280611214600482016101c5565b0390fd5b91906112255f83016110d7565b926112326020840161107e565b60206112406040860161107e565b6112697f0000000000000000000000000000000000000000000000000000000000000000610aa4565b61128b6362fd6add94929461129661127f610132565b9687958694859461118f565b8452600484016111c2565b03915afa9485156112fe576112c26112bc6112ce976112c9945f916112d0575b50610210565b91610210565b11156111f5565b611303565b565b6112f1915060203d81116112f7575b6112e98183610b81565b8101906111a4565b5f6112b6565b503d6112df565b6111e5565b61135d92916113296113165f830161107e565b33611323602085016110d7565b91611b60565b6113345f820161107e565b61135161134b6113466020870161107e565b6102b3565b916102b3565b0361135f575b50612c64565b565b6113749061136f6020850161107e565b6123b7565b5f611357565b90611385929161104c565b565b5f90565b5f90565b5f90565b61139b610ea1565b90602080808080808080896113ae611387565b8152016113b961138b565b8152016113c461138f565b8152016113cf61138f565b8152016113da61138b565b8152016113e561138b565b8152016113f061138b565b8152016113fb61138b565b81525050565b611409611393565b90565b61141581610deb565b82101561142f57611427600891610e23565b910201905f90565b610b36565b61145a9161144f61145492611447611401565b506004610dd5565b61140c565b50610f78565b90565b9061148c916114878161148061147a6114755f61101d565b6102b3565b916102b3565b1415611029565b61148e565b565b906114b4916114af6114aa6114a56020850161107e565b6116ea565b61108b565b6114b6565b565b906114e7916114e26114ca606084016110d7565b6114dc6114d65f6110e4565b91610210565b11611100565b6114e9565b565b906114f55f82016110d7565b916115026020830161107e565b60206115106040850161107e565b6115397f0000000000000000000000000000000000000000000000000000000000000000610aa4565b61155b6362fd6add94929461156661154f610132565b9687958694859461118f565b8452600484016111c2565b03915afa9384156115ce5761159261158c61159e96611599945f916115a0575b50610210565b91610210565b11156111f5565b6115d3565b565b6115c1915060203d81116115c7575b6115b98183610b81565b8101906111a4565b5f611586565b503d6115af565b6111e5565b906115ff916115fa6115e76020840161107e565b336115f4606086016110d7565b91611b60565b612c64565b565b9061160b9161145d565b565b61161561310d565b61161d611851565b61162f611629836102b3565b916102b3565b0361163f5761163d9061317a565b565b61165a905f91829163118cdaa760e01b8352600483016102cc565b0390fd5b61166f9061166a6118e4565b611694565b565b1561167857565b5f6308ba3ead60e11b815280611690600482016101c5565b0390fd5b6116c4906116bd816116b66116b06116ab5f61101d565b6102b3565b916102b3565b1415611671565b6002610c9a565b565b6116cf9061165e565b565b6116d9610d85565b506116e35f610dad565b90565b5f90565b611701611706916116f96116e6565b506003610c61565b610dad565b61172061171a6117155f61101d565b6102b3565b916102b3565b141590565b1561172c57565b5f6333a9e83f60e01b815280611744600482016101c5565b0390fd5b90565b1561175257565b5f63f39ebff960e01b81528061176a600482016101c5565b0390fd5b1561177557565b5f63891e6c9f60e01b81528061178d600482016101c5565b0390fd5b9161182d969492959391956117a4610b1f565b506117d4876117ce6117c86117c36117be60048790610dd5565b610deb565b610210565b91610210565b10611725565b6117f36117ed6117e660048490610dd5565b899061140c565b50611748565b9061180861180360028401610dad565b6131b4565b611830575b61182061181b5f8401610e46565b61176e565b9690919293949596613887565b90565b61184c33611846611840846102b3565b916102b3565b1461174b565b61180d565b611859610d85565b506118646001610dad565b90565b611878906118736118e4565b61187a565b565b611885816001610c9a565b61188d6116d1565b906118c16118bb7f38d16b8cac22d99fc7c124b9cd0de2d3fa1faef420bfe791d8c362d765e2270093610c55565b91610c55565b916118ca610132565b806118d4816101c5565b0390a3565b6118e290611867565b565b6118ec6116d1565b6119056118ff6118fa61310d565b6102b3565b916102b3565b0361190c57565b61192e61191761310d565b5f91829163118cdaa760e01b8352600483016102cc565b0390fd5b91602061195392949361194c60408201965f8301906102bf565b0190610251565b565b67ffffffffffffffff81116119735761196f602091610b63565b0190565b610b6d565b9061198a61198583611955565b610baa565b918252565b606090565b3d5f146119af576119a43d611978565b903d5f602084013e5b565b6119b761198f565b906119ad565b5190565b6119ca8161036a565b036119d157565b5f80fd5b905051906119e2826119c1565b565b906020828203126119fd576119fa915f016119d5565b90565b61013c565b60209181520190565b5f7f5361666520417070726f76650000000000000000000000000000000000000000910152565b611a3f600c602092611a02565b611a4881611a0b565b0190565b611a619060208101905f818303910152611a32565b90565b15611a6b57565b611a73610132565b62461bcd60e51b815280611a8960048201611a4c565b0390fd5b611aec926004611ace5f94611abf86959463095ea7b360e01b92611aaf610132565b9586946020860190815201611932565b60208201810382520382610b81565b82602082019151925af1611ae0611994565b81611aee575b50611a64565b565b9050611af9816119bd565b611b0b611b055f6110e4565b91610210565b14908115611b1b575b505f611ae6565b611b3691506020611b2b826119bd565b8183010191016119e4565b5f611b14565b611b459061098d565b90565b611b5190611b3c565b90565b611b5d906109a9565b90565b9180611b74611b6e5f6110e4565b91610210565b14611b9857611b85611b9693611b48565b91611b8f30611b54565b9192613c53565b565b505050565b611ba6906109a9565b90565b5f80fd5b903590600160800381360303821215611bc4570190565b611ba9565b611bd360a0610baa565b90565b600b1115611be057565b5f80fd5b90503590611bf182611bd6565b565b5f80fd5b90825f939282370152565b90929192611c17611c1282611955565b610baa565b93818552602085019082840111611c3357611c3192611bf7565b565b611bf3565b9080601f83011215611c5657816020611c5393359101611c02565b90565b610144565b90503590611c68826119c1565b565b919091608081840312611ce157611c816080610baa565b92611c8e815f8401611be4565b5f850152611c9f816020840161032a565b602085015260408201359167ffffffffffffffff8311611cdc57611cc882611cd5948301611c38565b6040860152606001611c5b565b6060830152565b610bbf565b610b5f565b611cf1903690611c6a565b90565b52565b903590600160a00381360303821215611d0e570190565b611ba9565b9091606082840312611d4857611d45611d2e845f8501611195565b93611d3c8160208601611195565b93604001611195565b90565b61013c565b50611d5c9060208101906105b8565b90565b906080611dd8611de093611d81611d785f830183611d4d565b5f86019061037c565b611d9b611d916020830183611d4d565b602086019061037c565b611db5611dab6040830183611d4d565b604086019061037c565b611dcf611dc56060830183611d4d565b606086019061037c565b82810190611d4d565b91019061037c565b565b634e487b7160e01b5f52602160045260245ffd5b600b1115611e0057565b611de2565b90611e0f82611df6565b565b611e1a90611e05565b90565b611e2690611e11565b9052565b60209181520190565b90825f9392825e0152565b611e5d611e66602093611e6b93611e54816119bd565b93848093611e2a565b95869101611e33565b610b63565b0190565b90611ebd90606080611eb260808401611e8e5f8801515f870190611e1d565b611ea060208801516020870190610389565b60408701518582036040870152611e3e565b94015191019061036f565b90565b611f2191608060a0820192611edb5f8201515f850190610389565b611eed6020820151602085019061037c565b611eff60408201516040850190610389565b611f1160608201516060850190610389565b0151906080818403910152611e6f565b90565b50611f3390602081019061032a565b90565b5f80fd5b5f80fd5b5f80fd5b9035600160200382360303811215611f8357016020813591019167ffffffffffffffff8211611f7e576020820236038313611f7957565b611f3a565b611f36565b611f3e565b60209181520190565b90565b903560016101800382360303811215611fab570190565b611f3e565b60041115611fba57565b5f80fd5b90503590611fcb82611fb0565b565b50611fdc906020810190611fbe565b90565b60041115611fe957565b611de2565b90611ff882611fdf565b565b61200390611fee565b90565b61200f90611ffa565b9052565b903560016020038236030381121561205457016020813591019167ffffffffffffffff821161204f57600182023603831361204a57565b611f3a565b611f36565b611f3e565b91906120738161206c8161207895611e2a565b8095611bf7565b610b63565b0190565b6121c5916121b66101808201926120a16120985f830183611d4d565b5f85019061037c565b6120bb6120b16020830183611d4d565b602085019061037c565b6120d56120cb6040830183611d4d565b604085019061037c565b6120ef6120e56060830183611fcd565b6060850190612006565b6121096120ff6080830183611f24565b6080850190610389565b61212361211960a0830183611f24565b60a0850190610389565b61213d61213360c0830183611f24565b60c0850190610389565b61215761214d60e0830183611f24565b60e0850190610389565b612173612168610100830183611d4d565b61010085019061037c565b61218f612184610120830183611d4d565b61012085019061037c565b6121ab6121a0610140830183611d4d565b61014085019061037c565b610160810190612013565b91610160818503910152612059565b90565b9061222190604061221961220f6121f4606085016121e85f890189611f94565b8682035f88015261207c565b6122016020880188612013565b908683036020880152612059565b9482810190611d4d565b91019061037c565b90565b9061222e916121c8565b90565b9035600160600382360303811215612247570190565b611f3e565b60200190565b918161225d91611f88565b908161226e60208302840194611f91565b92835f925b8484106122835750505050505090565b90919293949560206122ae6122a883856001950388526122a38b88612231565b612224565b9861224c565b940194019294939190612273565b61234e9161234061233561231a60a084016122e56122dc5f880188611f24565b5f870190610389565b6122ff6122f56020880188611d4d565b602087019061037c565b61230c6040870187611f42565b908683036040880152612252565b6123276060860186611f42565b908583036060870152612252565b926080810190612013565b916080818503910152612059565b90565b9490916123b4969461238d6123a595612383612397946123796101408c01985f8d01906102bf565b60208b01906102bf565b6040890190610251565b6060870190611d5f565b848203610100860152611ec0565b916101208184039101526122bc565b90565b6060906124036123c85f850161107e565b6123f17f00000000000000000000000000000000000000000000000000000000000000006109b5565b6123fd602087016110d7565b91613ca3565b61242c7f00000000000000000000000000000000000000000000000000000000000000006109b5565b6125175f63c81f847a61252261245461244f61244730611b9d565b976003610c61565b610dad565b9783612462604083016110d7565b916125028a8201916124f76124ee61247b86840161107e565b6124e961248a602086016110d7565b6124e061249a610120880161107e565b6124d76124aa6101008a0161107e565b936124ce6124bd8b610140810190611bad565b976124c6611bc9565b9e8f01610e93565b60208d01610e85565b60408b01610e93565b60608901610e93565b611ce6565b60808601611cf4565b610160810190611cf7565b9261250b610132565b9b8c9a8b998a9861118f565b885260048801612351565b03925af1801561256257612534575b50565b6125549060603d811161255b575b61254c8183610b81565b810190611d13565b5050612531565b503d612542565b6111e5565b91906040838203126125a15761259a906125816040610baa565b9361258e825f8301611195565b5f860152602001611195565b6020830152565b610b5f565b906040828203126125bf576125bc915f01612567565b90565b61013c565b6125f9612600946125ef6060949897956125e5608086019a5f8701906102bf565b6020850190610251565b60408301906102bf565b01906102bf565b565b5f91031261260c57565b61013c565b5090565b90608061268e6126969361263761262e5f830183611d4d565b5f86019061037c565b6126516126476020830183611d4d565b602086019061037c565b61266b6126616040830183611d4d565b604086019061037c565b61268561267b6060830183611d4d565b606086019061037c565b82810190611d4d565b91019061037c565b565b90356001608003823603038112156126ae570190565b611f3e565b506126c2906020810190611be4565b90565b506126d4906020810190611c5b565b90565b9061274790606061273f612735608084016127006126f75f8901896126b3565b5f870190611e1d565b61271a6127106020890189611f24565b6020870190610389565b6127276040880188612013565b908683036040880152612059565b94828101906126c5565b91019061036f565b90565b9035600160a00382360303811215612760570190565b611f3e565b6127f7916127e96127de6127c360a0840161278e6127855f880188611f24565b5f870190610389565b6127a861279e6020880188611d4d565b602087019061037c565b6127b56040870187611f42565b908683036040880152612252565b6127d06060860186611f42565b908583036060870152612252565b926080810190612013565b916080818503910152612059565b90565b612914916129056128f96101c083016128216128185f870187611d4d565b5f86019061037c565b61283b6128316020870187611f24565b6020860190610389565b61285561284b6040870187611f24565b6040860190610389565b61286f6128656060870187611d4d565b606086019061037c565b61288961287f6080870187612611565b6080860190612615565b6128a561289a610120870187611f24565b610120860190610389565b6128c16128b6610140870187611f24565b610140860190610389565b6128dd6128d2610160870187611d4d565b61016086019061037c565b6128eb610180860186612698565b8482036101808601526126d7565b926101a081019061274a565b906101a0818403910152612765565b90565b9161293a9261292d60408201935f8301906102bf565b60208184039101526127fa565b90565b6129479051610210565b90565b634e487b7160e01b5f52601160045260245ffd5b61296d61297391939293610210565b92610210565b820391821161297e57565b61294a565b6040906129ac6129b394969593966129a260608401985f8501906102bf565b60208301906102bf565b0190610251565b565b90565b60ff1690565b6129d26129cd6129d7926129b5565b610213565b6129b8565b90565b6129e460126129be565b90565b6129f09061098d565b90565b6129fc906129e7565b90565b612a08906109a9565b90565b612a14816129b8565b03612a1b57565b5f80fd5b90505190612a2c82612a0b565b565b90602082820312612a4757612a44915f01612a1f565b90565b61013c565b90565b612a5a610100610baa565b90565b5f5260205f2090565b5490565b612a7381612a66565b821015612a8d57612a85600891612a5d565b910201905f90565b610b36565b634e487b7160e01b5f525f60045260245ffd5b612aaf905161036a565b90565b90612abe60ff91610c77565b9181191691161790565b612ad19061036a565b90565b90565b90612aec612ae7612af392612ac8565b612ad4565b8254612ab2565b9055565b90612b035f1991610c77565b9181191691161790565b612b21612b1c612b2692610210565b610213565b610210565b90565b90565b90612b41612b3c612b4892612b0d565b612b29565b8254612af7565b9055565b90612c0d60e06007612c1394612b6f5f8201612b695f8801612aa5565b90612ad7565b612b8860018201612b826020880161293d565b90612b2c565b612ba160028201612b9b60408801610c48565b90610c9a565b612bba60038201612bb460608801610c48565b90610c9a565b612bd360048201612bcd6080880161293d565b90612b2c565b612bec60058201612be660a0880161293d565b90612b2c565b612c0560068201612bff60c0880161293d565b90612b2c565b01920161293d565b90612b2c565b565b9190612c2657612c2491612b4c565b565b612a92565b1b90565b9081549168010000000000000000831015612c5f5782612c57916001612c5d95018155612a6a565b90612c15565b565b610b6d565b90612c716020820161107e565b91612c7e6040830161107e565b92612c8a5f84016110d7565b90612c97606085016110d7565b612cc07f0000000000000000000000000000000000000000000000000000000000000000610aa4565b60406394ea07bb918690612ce98794612cf4888d90612cdd610132565b9889978896879661118f565b8652600486016125c4565b03915afa908115613108575f916130da575b5094612d317f0000000000000000000000000000000000000000000000000000000000000000610aa4565b906370f5585f90869092803b156130d557612d5f5f8094612d6a612d53610132565b9788968795869461118f565b845260048401612917565b03925af180156130d0576130a4575b50612da37f0000000000000000000000000000000000000000000000000000000000000000610aa4565b60406394ea07bb918690612dcc8794612dd7888d90612dc0610132565b9889978896879661118f565b8652600486016125c4565b03915afa801561309f57612e2a915f91613071575b5095612e246020612e1d81612e16612e055f8d0161293d565b612e105f880161293d565b9061295e565b9a0161293d565b920161293d565b9061295e565b612e537f0000000000000000000000000000000000000000000000000000000000000000610aa4565b6020633ba7a314918590612e7a8b94612e8588612e6e610132565b9788968795869561118f565b855260048501612983565b03915afa801561306c57612ecc915f9161303e575b50612ea36129da565b6020612eb6612eb18c6129f3565b6129ff565b63313ce56790612ec4610132565b95869261118f565b82528180612edc600482016101c5565b03915afa91821561303957612ef8935f93613009575b50613d65565b95600486612f0591610dd5565b612f0e90610deb565b97600487612f1b91610dd5565b612f2490612a4c565b956001959190949189939495612f38612a4f565b975f890190612f4691610e53565b6020880190612f5491610e85565b6040870190612f6291610e93565b6060860190612f7091610e93565b6080850190612f7e91610e85565b60a0840190612f8c91610e85565b60c0830190612f9a91610e85565b60e0820190612fa891610e85565b612fb191612c2f565b917fa4f732b8c6eeb0f534d2e40c2bfb293de7684855cdae052e554ff9d53f37a82592612fdd90610c55565b90612fe790612b0d565b91612ff190612b0d565b92612ffa610132565b80613004816101c5565b0390a4565b61302b91935060203d8111613032575b6130238183610b81565b810190612a2e565b915f612ef2565b503d613019565b6111e5565b61305f915060203d8111613065575b6130578183610b81565b8101906111a4565b5f612e9a565b503d61304d565b6111e5565b613092915060403d8111613098575b61308a8183610b81565b8101906125a6565b5f612dec565b503d613080565b6111e5565b6130c3905f3d81116130c9575b6130bb8183610b81565b810190612602565b5f612d79565b503d6130b1565b6111e5565b61118b565b6130fb915060403d8111613101575b6130f38183610b81565b8101906125a6565b5f612d06565b503d6130e9565b6111e5565b613115610d85565b503390565b9190600861313a91029161313460018060a01b0384612c2b565b92612c2b565b9181191691161790565b919061315a61315561316293610c55565b610c97565b90835461311a565b9055565b61317891613172610d85565b91613144565b565b61318e906131895f6001613166565b613de7565b565b6131999061098d565b90565b6131a590613190565b90565b6131b1906109a9565b90565b60206131e56131e06131db6131d66131fb956131ce6116e6565b506003610c61565b610dad565b61319c565b6131a8565b632f13b60c906131f3610132565b93849261118f565b8252818061320b600482016101c5565b03915afa801561325857613227915f9161322a575b501561036a565b90565b61324b915060203d8111613251575b6132438183610b81565b8101906119e4565b5f613220565b503d613239565b6111e5565b613268610140610baa565b90565b67ffffffffffffffff81116132835760208091020190565b610b6d565b91909161018081840312613398576132a1610180610baa565b926132ae815f84016105b8565b5f8501526132bf81602084016105b8565b60208501526132d181604084016105b8565b60408501526132e38160608401611fbe565b60608501526132f5816080840161032a565b60808501526133078160a0840161032a565b60a08501526133198160c0840161032a565b60c085015261332b8160e0840161032a565b60e085015261333e8161010084016105b8565b6101008501526133528161012084016105b8565b6101208501526133668161014084016105b8565b61014085015261016082013567ffffffffffffffff81116133935761338b9201611c38565b610160830152565b610bbf565b610b5f565b91909160608184031261341a576133b46060610baa565b925f82013567ffffffffffffffff811161341557816133d4918401613288565b5f85015260208201359167ffffffffffffffff8311613410576133fc82613409948301611c38565b60208601526040016105b8565b6040830152565b610bbf565b610bbf565b610b5f565b92919061343361342e8261326b565b610baa565b938185526020808601920281019183831161348a5781905b838210613459575050505050565b813567ffffffffffffffff81116134855760209161347a878493870161339d565b81520191019061344b565b610144565b61014c565b9080601f830112156134ad578160206134aa9335910161341f565b90565b610144565b91909160a08184031261356a576134c960a0610baa565b926134d6815f840161032a565b5f8501526134e781602084016105b8565b6020850152604082013567ffffffffffffffff8111613565578161350c91840161348f565b6040850152606082013567ffffffffffffffff8111613560578161353191840161348f565b6060850152608082013567ffffffffffffffff811161355b576135549201611c38565b6080830152565b610bbf565b610bbf565b610bbf565b610b5f565b61357a9036906134b2565b90565b52565b5190565b60200190565b613672916101606101808201926135a75f8201515f85019061037c565b6135b96020820151602085019061037c565b6135cb6040820151604085019061037c565b6135dd60608201516060850190612006565b6135ef60808201516080850190610389565b61360160a082015160a0850190610389565b61361360c082015160c0850190610389565b61362560e082015160e0850190610389565b61363961010082015161010085019061037c565b61364d61012082015161012085019061037c565b61366161014082015161014085019061037c565b015190610160818403910152611e3e565b90565b906136b4906040806136a9613697606085015f8801518682035f88015261358a565b60208701518582036020870152611e3e565b94015191019061037c565b90565b906136c191613675565b90565b60200190565b906136de6136d783613580565b8092611f88565b90816136ef60208302840194613584565b925f915b83831061370257505050505090565b9091929394602061372461371e838560019503875289516136b7565b976136c4565b93019301919392906136f3565b61379891608061378761377560a084016137515f8701515f870190610389565b6137636020870151602087019061037c565b604086015185820360408701526136ca565b606085015184820360608601526136ca565b920151906080818403910152611e3e565b90565b61385e9161012061384c61014083016137ba5f8601515f86019061037c565b6137cc60208601516020860190610389565b6137de60408601516040860190610389565b6137f06060860151606086019061037c565b6138026080860151608086019061037c565b61381460a086015160a0860190610389565b61382660c086015160c0860190610389565b61383860e086015160e086019061037c565b610100850151848203610100860152611e6f565b92015190610120818403910152613731565b90565b916138849261387760408201935f8301906102bf565b602081840391015261379b565b90565b9491979690959293613897610b1f565b507f00000000000000000000000000000000000000000000000000000000000000006138c290610aa4565b91637130fa499487948b6002016138d890610dad565b938c6003016138e690610dad565b988d806001016138f590610e78565b9a8160070161390390610e78565b9160060161391090610e78565b92939495969761391e61325d565b9c5f8e019061392c91610e85565b60208d019061393a91610e93565b60408c019061394891610e93565b60608b019061395691610e85565b60808a019061396491610e85565b60a089019061397291610e93565b60c088019061398091610e93565b60e087019061398e91610e85565b61399790611ce6565b6101008601906139a691611cf4565b6139af9061356f565b6101208501906139be9161357d565b803b15613c11576139e25f80946139ed6139d6610132565b9788968795869461118f565b845260048401613861565b03925af18015613c0c57613be0575b50613a095f5f8601612ad7565b613a406020613a2a613a25613a2060038901610dad565b6129f3565b6129ff565b63313ce56790613a38610132565b93849261118f565b82528180613a50600482016101c5565b03915afa908115613bdb576003613af1613b0093613af8935f91613bad575b50613ae189613ab7613aa8613aa387613a9c613a8d60058701610e78565b88613a966129da565b91613d65565b9401610dad565b613e52565b84613ab16129da565b91613d65565b8b613ac0610b1f565b9282613ad4613ace83610210565b91610210565b11613b57575b505061295e565b90613aea6129da565b9091613d65565b9601610dad565b828691613f9a565b908390613b3f613b39613b337fcd2b4e62cfe22ecc5a38c25a2dce9e2dd3a29a3e10fa499505b5bfb6aec9b12395610c55565b92612b0d565b92612b0d565b92613b48610132565b80613b52816101c5565b0390a4565b613ba691935087613b7c613b6e613b83938661295e565b613b76610232565b90613f73565b9401610dad565b613b8d6002610dad565b613ba085613b996129da565b8991613d65565b91613f9a565b8b5f613ada565b613bce915060203d8111613bd4575b613bc68183610b81565b810190612a2e565b5f613a6f565b503d613bbc565b6111e5565b613bff905f3d8111613c05575b613bf78183610b81565b810190612602565b5f6139fc565b503d613bed565b6111e5565b61118b565b613c1f906109a9565b90565b63ffffffff1690565b63ffffffff60e01b1690565b613c4b613c46613c5092613c22565b61118f565b613c2b565b90565b600492613c8d613ca19593613c9c9394613c746323b872dd92949192613c37565b93613c7d610132565b9788956020870190815201612983565b60208201810382520383610b81565b613fed565b565b91613cb0613cb893611b48565b9190916140d1565b565b613cc6613ccc916129b8565b916129b8565b90039060ff8211613cd957565b61294a565b613ce7906129b8565b604d8111613cf557600a0a90565b61294a565b613d09613d0f91939293610210565b92610210565b91613d1b838202610210565b928184041490151715613d2a57565b61294a565b634e487b7160e01b5f52601260045260245ffd5b613d4f613d5591610210565b91610210565b908115613d60570490565b613d2f565b91613d6e610b1f565b5081613d82613d7c836129b8565b916129b8565b115f14613da857613d9a613d9f91613da59493613cba565b613cde565b90613d43565b90565b9080613dbc613db6846129b8565b916129b8565b105f14613de257613dd4613dd991613ddf9493613cba565b613cde565b90613cfa565b90565b505090565b613df05f610dad565b613dfa825f610c9a565b90613e2e613e287f8be0079c531659141344cd1fd0a4f28419497f9722a3daafe3b4186f6b6457e093610c55565b91610c55565b91613e37610132565b80613e41816101c5565b0390a3565b613e4f5f61101d565b90565b613e5a610b1f565b5080613e75613e6f613e6a613e46565b6102b3565b916102b3565b145f14613e8b5750613e8630611b54565b315b90565b6020613ea1613e9c613ed393611b48565b613c16565b6370a0823190613ec8613eb330611b54565b92613ebc610132565b9586948593849361118f565b8352600483016102cc565b03915afa908115613f19575f91613eeb575b50613e88565b613f0c915060203d8111613f12575b613f048183610b81565b8101906111a4565b5f613ee5565b503d613efa565b6111e5565b90565b613f35613f30613f3a92613f1e565b610213565b610210565b90565b613f4e670de0b6b3a7640000613f21565b90565b613f5d613f6391610210565b91610210565b908115613f6e570490565b613d2f565b613f9791613f8991613f83610b1f565b50613cfa565b613f91613f3d565b90613f51565b90565b9180613fae613fa85f6110e4565b91610210565b14613fc957613fbf613fc793611b48565b91909161418d565b565b505050565b90565b613fe5613fe0613fea92613fce565b610213565b610210565b90565b905f602091613ffa610b1f565b50614003610b1f565b50828151910182855af115614096573d5f51906140286140225f6110e4565b91610210565b145f1461407c575061403981613c16565b3b61404c6140465f6110e4565b91610210565b145b6140555750565b61406161407891613c16565b5f918291635274afe760e01b8352600483016102cc565b0390fd5b61408f6140896001613fd1565b91610210565b141561404e565b6040513d5f823e3d90fd5b6140aa906110e4565b9052565b9160206140cf9294936140c860408201965f8301906102bf565b01906140a1565b565b909161411460049161410563095ea7b36140ec879391613c37565b926140f5610132565b9586946020860190815201611932565b60208201810382520382610b81565b906141296141238284906141db565b1561036a565b614133575b505050565b61418060046141859461417b849161416c63095ea7b36141535f91613c37565b9261415c610132565b96879460208601908152016140ae565b60208201810382520383610b81565b613fed565b613fed565b5f808061412e565b906141d46141d9936141c5600494936141ac63a9059cbb919391613c37565b926141b5610132565b9687946020860190815201611932565b60208201810382520383610b81565b613fed565b565b905f6020916141e86116e6565b506141f16116e6565b506141fa610b1f565b50614203610b1f565b50828151910182855af13d915f5191928361421f575b50505090565b9091925061423561422f5f6110e4565b91610210565b145f14614263576142469150613c16565b3b6142596142535f6110e4565b91610210565b115b5f8080614219565b506142776142716001613fd1565b91610210565b1461425b56fea2646970667358221220f8f83665318a0caebeb44bdada6ddf87d35a12691c2a6df3f349d6d8368bb02764736f6c634300081e0033","linkReferences":{}},"methodIdentifiers":{"YIELD_FEE()":"37f60d8a","acceptOwnership()":"79ba5097","addSupportedCollateralTokens((address,bytes32,address)[])":"2ec23d66","getTreasury()":"3b19e84a","getUserLeveragePosition(address,uint256)":"642afd92","getUserLeveragePositions(address)":"544e5eca","i_flashLeverageCore()":"f6a5c87c","i_pendleRouter()":"dd2a7a17","isSupportedCollateralToken(address)":"ba02a005","leverage(address,(uint256,address,address,uint256,(uint256,uint256,uint256,uint256,uint256),address,address,uint256,(uint8,address,bytes,bool),(address,uint256,((uint256,uint256,uint256,uint8,address,address,address,address,uint256,uint256,uint256,bytes),bytes,uint256)[],((uint256,uint256,uint256,uint8,address,address,address,address,uint256,uint256,uint256,bytes),bytes,uint256)[],bytes)))":"70f5585f","owner()":"8da5cb5b","pendingOwner()":"e30c3978","renounceOwnership()":"715018a6","swapAndLeverage(address,(address,uint256,uint256,(uint256,uint256,uint256,uint256,uint256),address,address,(uint8,address,bytes,bool),(address,uint256,((uint256,uint256,uint256,uint8,address,address,address,address,uint256,uint256,uint256,bytes),bytes,uint256)[],((uint256,uint256,uint256,uint8,address,address,address,address,uint256,uint256,uint256,bytes),bytes,uint256)[],bytes)),(uint256,address,address,uint256,(uint256,uint256,uint256,uint256,uint256),address,address,uint256,(uint8,address,bytes,bool),(address,uint256,((uint256,uint256,uint256,uint8,address,address,address,address,uint256,uint256,uint256,bytes),bytes,uint256)[],((uint256,uint256,uint256,uint8,address,address,address,address,uint256,uint256,uint256,bytes),bytes,uint256)[],bytes)))":"568fb21c","transferOwnership(address)":"f2fde38b","unleverage(address,uint256,address,address,uint256,(uint8,address,bytes,bool),(address,uint256,((uint256,uint256,uint256,uint8,address,address,address,address,uint256,uint256,uint256,bytes),bytes,uint256)[],((uint256,uint256,uint256,uint8,address,address,address,address,uint256,uint256,uint256,bytes),bytes,uint256)[],bytes))":"dad87911","updateTreasury(address)":"7f51bb1f"},"id":74}