{"abi":[{"type":"constructor","inputs":[{"name":"flashLeverageCore","type":"address","internalType":"address"},{"name":"pendleRouter","type":"address","internalType":"address"},{"name":"treasury","type":"address","internalType":"address"}],"stateMutability":"nonpayable"},{"type":"function","name":"YIELD_FEE","inputs":[],"outputs":[{"name":"","type":"uint256","internalType":"uint256"}],"stateMutability":"view"},{"type":"function","name":"acceptOwnership","inputs":[],"outputs":[],"stateMutability":"nonpayable"},{"type":"function","name":"addSupportedCollateralTokens","inputs":[{"name":"tokensConfig","type":"tuple[]","internalType":"struct CollateralTokenConfig[]","components":[{"name":"collateralToken","type":"address","internalType":"address"},{"name":"morphoMarketId","type":"bytes32","internalType":"bytes32"},{"name":"pendleMarket","type":"address","internalType":"address"}]}],"outputs":[],"stateMutability":"nonpayable"},{"type":"function","name":"getPositionYieldInLoanToken","inputs":[{"name":"user","type":"address","internalType":"address"},{"name":"positionId","type":"uint256","internalType":"uint256"}],"outputs":[{"name":"","type":"uint256","internalType":"uint256"}],"stateMutability":"view"},{"type":"function","name":"getTreasury","inputs":[],"outputs":[{"name":"","type":"address","internalType":"address"}],"stateMutability":"view"},{"type":"function","name":"getUserLeveragePosition","inputs":[{"name":"user","type":"address","internalType":"address"},{"name":"positionId","type":"uint256","internalType":"uint256"}],"outputs":[{"name":"","type":"tuple","internalType":"struct LeveragePosition","components":[{"name":"open","type":"bool","internalType":"bool"},{"name":"collateralToken","type":"address","internalType":"address"},{"name":"loanToken","type":"address","internalType":"address"},{"name":"desiredLtv","type":"uint256","internalType":"uint256"},{"name":"amountCollateral","type":"uint256","internalType":"uint256"},{"name":"amountCollateralInLoanToken","type":"uint256","internalType":"uint256"},{"name":"amountLeveragedCollateral","type":"uint256","internalType":"uint256"},{"name":"sharesBorrowed","type":"uint256","internalType":"uint256"},{"name":"positionValueInLoanToken","type":"uint256","internalType":"uint256"},{"name":"impliedApy","type":"uint256","internalType":"uint256"}]}],"stateMutability":"view"},{"type":"function","name":"getUserLeveragePositions","inputs":[{"name":"user","type":"address","internalType":"address"}],"outputs":[{"name":"","type":"tuple[]","internalType":"struct LeveragePosition[]","components":[{"name":"open","type":"bool","internalType":"bool"},{"name":"collateralToken","type":"address","internalType":"address"},{"name":"loanToken","type":"address","internalType":"address"},{"name":"desiredLtv","type":"uint256","internalType":"uint256"},{"name":"amountCollateral","type":"uint256","internalType":"uint256"},{"name":"amountCollateralInLoanToken","type":"uint256","internalType":"uint256"},{"name":"amountLeveragedCollateral","type":"uint256","internalType":"uint256"},{"name":"sharesBorrowed","type":"uint256","internalType":"uint256"},{"name":"positionValueInLoanToken","type":"uint256","internalType":"uint256"},{"name":"impliedApy","type":"uint256","internalType":"uint256"}]}],"stateMutability":"view"},{"type":"function","name":"i_flashLeverageCore","inputs":[],"outputs":[{"name":"","type":"address","internalType":"contract IFlashLeverageCore"}],"stateMutability":"view"},{"type":"function","name":"i_pendleRouter","inputs":[],"outputs":[{"name":"","type":"address","internalType":"contract IPAllActionV3"}],"stateMutability":"view"},{"type":"function","name":"leverage","inputs":[{"name":"onBehalfOf","type":"address","internalType":"address"},{"name":"impliedApy","type":"uint256","internalType":"uint256"},{"name":"leverageParams","type":"tuple","internalType":"struct LeverageParams","components":[{"name":"desiredLtv","type":"uint256","internalType":"uint256"},{"name":"collateralToken","type":"address","internalType":"address"},{"name":"loanToken","type":"address","internalType":"address"},{"name":"amountCollateral","type":"uint256","internalType":"uint256"},{"name":"approxParams","type":"tuple","internalType":"struct ApproxParams","components":[{"name":"guessMin","type":"uint256","internalType":"uint256"},{"name":"guessMax","type":"uint256","internalType":"uint256"},{"name":"guessOffchain","type":"uint256","internalType":"uint256"},{"name":"maxIteration","type":"uint256","internalType":"uint256"},{"name":"eps","type":"uint256","internalType":"uint256"}]},{"name":"pendleSwap","type":"address","internalType":"address"},{"name":"tokenMintSy","type":"address","internalType":"address"},{"name":"swapData","type":"tuple","internalType":"struct SwapData","components":[{"name":"swapType","type":"uint8","internalType":"enum SwapType"},{"name":"extRouter","type":"address","internalType":"address"},{"name":"extCalldata","type":"bytes","internalType":"bytes"},{"name":"needScale","type":"bool","internalType":"bool"}]},{"name":"limitOrderData","type":"tuple","internalType":"struct LimitOrderData","components":[{"name":"limitRouter","type":"address","internalType":"address"},{"name":"epsSkipMarket","type":"uint256","internalType":"uint256"},{"name":"normalFills","type":"tuple[]","internalType":"struct FillOrderParams[]","components":[{"name":"order","type":"tuple","internalType":"struct Order","components":[{"name":"salt","type":"uint256","internalType":"uint256"},{"name":"expiry","type":"uint256","internalType":"uint256"},{"name":"nonce","type":"uint256","internalType":"uint256"},{"name":"orderType","type":"uint8","internalType":"enum IPLimitOrderType.OrderType"},{"name":"token","type":"address","internalType":"address"},{"name":"YT","type":"address","internalType":"address"},{"name":"maker","type":"address","internalType":"address"},{"name":"receiver","type":"address","internalType":"address"},{"name":"makingAmount","type":"uint256","internalType":"uint256"},{"name":"lnImpliedRate","type":"uint256","internalType":"uint256"},{"name":"failSafeRate","type":"uint256","internalType":"uint256"},{"name":"permit","type":"bytes","internalType":"bytes"}]},{"name":"signature","type":"bytes","internalType":"bytes"},{"name":"makingAmount","type":"uint256","internalType":"uint256"}]},{"name":"flashFills","type":"tuple[]","internalType":"struct FillOrderParams[]","components":[{"name":"order","type":"tuple","internalType":"struct Order","components":[{"name":"salt","type":"uint256","internalType":"uint256"},{"name":"expiry","type":"uint256","internalType":"uint256"},{"name":"nonce","type":"uint256","internalType":"uint256"},{"name":"orderType","type":"uint8","internalType":"enum IPLimitOrderType.OrderType"},{"name":"token","type":"address","internalType":"address"},{"name":"YT","type":"address","internalType":"address"},{"name":"maker","type":"address","internalType":"address"},{"name":"receiver","type":"address","internalType":"address"},{"name":"makingAmount","type":"uint256","internalType":"uint256"},{"name":"lnImpliedRate","type":"uint256","internalType":"uint256"},{"name":"failSafeRate","type":"uint256","internalType":"uint256"},{"name":"permit","type":"bytes","internalType":"bytes"}]},{"name":"signature","type":"bytes","internalType":"bytes"},{"name":"makingAmount","type":"uint256","internalType":"uint256"}]},{"name":"optData","type":"bytes","internalType":"bytes"}]}]}],"outputs":[],"stateMutability":"nonpayable"},{"type":"function","name":"owner","inputs":[],"outputs":[{"name":"","type":"address","internalType":"address"}],"stateMutability":"view"},{"type":"function","name":"pendingOwner","inputs":[],"outputs":[{"name":"","type":"address","internalType":"address"}],"stateMutability":"view"},{"type":"function","name":"renounceOwnership","inputs":[],"outputs":[],"stateMutability":"pure"},{"type":"function","name":"swapAndLeverage","inputs":[{"name":"onBehalfOf","type":"address","internalType":"address"},{"name":"impliedApy","type":"uint256","internalType":"uint256"},{"name":"swapParams","type":"tuple","internalType":"struct SwapParams","components":[{"name":"tokenIn","type":"address","internalType":"address"},{"name":"amountTokenIn","type":"uint256","internalType":"uint256"},{"name":"minOut","type":"uint256","internalType":"uint256"},{"name":"approxParams","type":"tuple","internalType":"struct ApproxParams","components":[{"name":"guessMin","type":"uint256","internalType":"uint256"},{"name":"guessMax","type":"uint256","internalType":"uint256"},{"name":"guessOffchain","type":"uint256","internalType":"uint256"},{"name":"maxIteration","type":"uint256","internalType":"uint256"},{"name":"eps","type":"uint256","internalType":"uint256"}]},{"name":"pendleSwap","type":"address","internalType":"address"},{"name":"tokenMintSy","type":"address","internalType":"address"},{"name":"swapData","type":"tuple","internalType":"struct SwapData","components":[{"name":"swapType","type":"uint8","internalType":"enum SwapType"},{"name":"extRouter","type":"address","internalType":"address"},{"name":"extCalldata","type":"bytes","internalType":"bytes"},{"name":"needScale","type":"bool","internalType":"bool"}]},{"name":"limitOrderData","type":"tuple","internalType":"struct LimitOrderData","components":[{"name":"limitRouter","type":"address","internalType":"address"},{"name":"epsSkipMarket","type":"uint256","internalType":"uint256"},{"name":"normalFills","type":"tuple[]","internalType":"struct FillOrderParams[]","components":[{"name":"order","type":"tuple","internalType":"struct Order","components":[{"name":"salt","type":"uint256","internalType":"uint256"},{"name":"expiry","type":"uint256","internalType":"uint256"},{"name":"nonce","type":"uint256","internalType":"uint256"},{"name":"orderType","type":"uint8","internalType":"enum IPLimitOrderType.OrderType"},{"name":"token","type":"address","internalType":"address"},{"name":"YT","type":"address","internalType":"address"},{"name":"maker","type":"address","internalType":"address"},{"name":"receiver","type":"address","internalType":"address"},{"name":"makingAmount","type":"uint256","internalType":"uint256"},{"name":"lnImpliedRate","type":"uint256","internalType":"uint256"},{"name":"failSafeRate","type":"uint256","internalType":"uint256"},{"name":"permit","type":"bytes","internalType":"bytes"}]},{"name":"signature","type":"bytes","internalType":"bytes"},{"name":"makingAmount","type":"uint256","internalType":"uint256"}]},{"name":"flashFills","type":"tuple[]","internalType":"struct FillOrderParams[]","components":[{"name":"order","type":"tuple","internalType":"struct Order","components":[{"name":"salt","type":"uint256","internalType":"uint256"},{"name":"expiry","type":"uint256","internalType":"uint256"},{"name":"nonce","type":"uint256","internalType":"uint256"},{"name":"orderType","type":"uint8","internalType":"enum IPLimitOrderType.OrderType"},{"name":"token","type":"address","internalType":"address"},{"name":"YT","type":"address","internalType":"address"},{"name":"maker","type":"address","internalType":"address"},{"name":"receiver","type":"address","internalType":"address"},{"name":"makingAmount","type":"uint256","internalType":"uint256"},{"name":"lnImpliedRate","type":"uint256","internalType":"uint256"},{"name":"failSafeRate","type":"uint256","internalType":"uint256"},{"name":"permit","type":"bytes","internalType":"bytes"}]},{"name":"signature","type":"bytes","internalType":"bytes"},{"name":"makingAmount","type":"uint256","internalType":"uint256"}]},{"name":"optData","type":"bytes","internalType":"bytes"}]}]},{"name":"leverageParams","type":"tuple","internalType":"struct LeverageParams","components":[{"name":"desiredLtv","type":"uint256","internalType":"uint256"},{"name":"collateralToken","type":"address","internalType":"address"},{"name":"loanToken","type":"address","internalType":"address"},{"name":"amountCollateral","type":"uint256","internalType":"uint256"},{"name":"approxParams","type":"tuple","internalType":"struct ApproxParams","components":[{"name":"guessMin","type":"uint256","internalType":"uint256"},{"name":"guessMax","type":"uint256","internalType":"uint256"},{"name":"guessOffchain","type":"uint256","internalType":"uint256"},{"name":"maxIteration","type":"uint256","internalType":"uint256"},{"name":"eps","type":"uint256","internalType":"uint256"}]},{"name":"pendleSwap","type":"address","internalType":"address"},{"name":"tokenMintSy","type":"address","internalType":"address"},{"name":"swapData","type":"tuple","internalType":"struct SwapData","components":[{"name":"swapType","type":"uint8","internalType":"enum SwapType"},{"name":"extRouter","type":"address","internalType":"address"},{"name":"extCalldata","type":"bytes","internalType":"bytes"},{"name":"needScale","type":"bool","internalType":"bool"}]},{"name":"limitOrderData","type":"tuple","internalType":"struct LimitOrderData","components":[{"name":"limitRouter","type":"address","internalType":"address"},{"name":"epsSkipMarket","type":"uint256","internalType":"uint256"},{"name":"normalFills","type":"tuple[]","internalType":"struct FillOrderParams[]","components":[{"name":"order","type":"tuple","internalType":"struct Order","components":[{"name":"salt","type":"uint256","internalType":"uint256"},{"name":"expiry","type":"uint256","internalType":"uint256"},{"name":"nonce","type":"uint256","internalType":"uint256"},{"name":"orderType","type":"uint8","internalType":"enum IPLimitOrderType.OrderType"},{"name":"token","type":"address","internalType":"address"},{"name":"YT","type":"address","internalType":"address"},{"name":"maker","type":"address","internalType":"address"},{"name":"receiver","type":"address","internalType":"address"},{"name":"makingAmount","type":"uint256","internalType":"uint256"},{"name":"lnImpliedRate","type":"uint256","internalType":"uint256"},{"name":"failSafeRate","type":"uint256","internalType":"uint256"},{"name":"permit","type":"bytes","internalType":"bytes"}]},{"name":"signature","type":"bytes","internalType":"bytes"},{"name":"makingAmount","type":"uint256","internalType":"uint256"}]},{"name":"flashFills","type":"tuple[]","internalType":"struct FillOrderParams[]","components":[{"name":"order","type":"tuple","internalType":"struct Order","components":[{"name":"salt","type":"uint256","internalType":"uint256"},{"name":"expiry","type":"uint256","internalType":"uint256"},{"name":"nonce","type":"uint256","internalType":"uint256"},{"name":"orderType","type":"uint8","internalType":"enum IPLimitOrderType.OrderType"},{"name":"token","type":"address","internalType":"address"},{"name":"YT","type":"address","internalType":"address"},{"name":"maker","type":"address","internalType":"address"},{"name":"receiver","type":"address","internalType":"address"},{"name":"makingAmount","type":"uint256","internalType":"uint256"},{"name":"lnImpliedRate","type":"uint256","internalType":"uint256"},{"name":"failSafeRate","type":"uint256","internalType":"uint256"},{"name":"permit","type":"bytes","internalType":"bytes"}]},{"name":"signature","type":"bytes","internalType":"bytes"},{"name":"makingAmount","type":"uint256","internalType":"uint256"}]},{"name":"optData","type":"bytes","internalType":"bytes"}]}]}],"outputs":[],"stateMutability":"nonpayable"},{"type":"function","name":"transferOwnership","inputs":[{"name":"newOwner","type":"address","internalType":"address"}],"outputs":[],"stateMutability":"nonpayable"},{"type":"function","name":"unleverage","inputs":[{"name":"positionId","type":"uint256","internalType":"uint256"},{"name":"pendleSwap","type":"address","internalType":"address"},{"name":"tokenRedeemSy","type":"address","internalType":"address"},{"name":"swapData","type":"tuple","internalType":"struct SwapData","components":[{"name":"swapType","type":"uint8","internalType":"enum SwapType"},{"name":"extRouter","type":"address","internalType":"address"},{"name":"extCalldata","type":"bytes","internalType":"bytes"},{"name":"needScale","type":"bool","internalType":"bool"}]},{"name":"limitOrderData","type":"tuple","internalType":"struct LimitOrderData","components":[{"name":"limitRouter","type":"address","internalType":"address"},{"name":"epsSkipMarket","type":"uint256","internalType":"uint256"},{"name":"normalFills","type":"tuple[]","internalType":"struct FillOrderParams[]","components":[{"name":"order","type":"tuple","internalType":"struct Order","components":[{"name":"salt","type":"uint256","internalType":"uint256"},{"name":"expiry","type":"uint256","internalType":"uint256"},{"name":"nonce","type":"uint256","internalType":"uint256"},{"name":"orderType","type":"uint8","internalType":"enum IPLimitOrderType.OrderType"},{"name":"token","type":"address","internalType":"address"},{"name":"YT","type":"address","internalType":"address"},{"name":"maker","type":"address","internalType":"address"},{"name":"receiver","type":"address","internalType":"address"},{"name":"makingAmount","type":"uint256","internalType":"uint256"},{"name":"lnImpliedRate","type":"uint256","internalType":"uint256"},{"name":"failSafeRate","type":"uint256","internalType":"uint256"},{"name":"permit","type":"bytes","internalType":"bytes"}]},{"name":"signature","type":"bytes","internalType":"bytes"},{"name":"makingAmount","type":"uint256","internalType":"uint256"}]},{"name":"flashFills","type":"tuple[]","internalType":"struct FillOrderParams[]","components":[{"name":"order","type":"tuple","internalType":"struct Order","components":[{"name":"salt","type":"uint256","internalType":"uint256"},{"name":"expiry","type":"uint256","internalType":"uint256"},{"name":"nonce","type":"uint256","internalType":"uint256"},{"name":"orderType","type":"uint8","internalType":"enum IPLimitOrderType.OrderType"},{"name":"token","type":"address","internalType":"address"},{"name":"YT","type":"address","internalType":"address"},{"name":"maker","type":"address","internalType":"address"},{"name":"receiver","type":"address","internalType":"address"},{"name":"makingAmount","type":"uint256","internalType":"uint256"},{"name":"lnImpliedRate","type":"uint256","internalType":"uint256"},{"name":"failSafeRate","type":"uint256","internalType":"uint256"},{"name":"permit","type":"bytes","internalType":"bytes"}]},{"name":"signature","type":"bytes","internalType":"bytes"},{"name":"makingAmount","type":"uint256","internalType":"uint256"}]},{"name":"optData","type":"bytes","internalType":"bytes"}]}],"outputs":[{"name":"amountReturned","type":"uint256","internalType":"uint256"}],"stateMutability":"nonpayable"},{"type":"function","name":"updateTreasury","inputs":[{"name":"newTreasury","type":"address","internalType":"address"}],"outputs":[],"stateMutability":"nonpayable"},{"type":"event","name":"LeveragePositionClosed","inputs":[{"name":"user","type":"address","indexed":true,"internalType":"address"},{"name":"positionId","type":"uint256","indexed":true,"internalType":"uint256"},{"name":"amountReturned","type":"uint256","indexed":true,"internalType":"uint256"}],"anonymous":false},{"type":"event","name":"LeveragePositionOpened","inputs":[{"name":"user","type":"address","indexed":true,"internalType":"address"},{"name":"positionId","type":"uint256","indexed":true,"internalType":"uint256"}],"anonymous":false},{"type":"event","name":"OwnershipTransferStarted","inputs":[{"name":"previousOwner","type":"address","indexed":true,"internalType":"address"},{"name":"newOwner","type":"address","indexed":true,"internalType":"address"}],"anonymous":false},{"type":"event","name":"OwnershipTransferred","inputs":[{"name":"previousOwner","type":"address","indexed":true,"internalType":"address"},{"name":"newOwner","type":"address","indexed":true,"internalType":"address"}],"anonymous":false},{"type":"error","name":"FlashLeverage__AmountCannotBeZero","inputs":[]},{"type":"error","name":"FlashLeverage__InvalidOnBehalfOfAddress","inputs":[]},{"type":"error","name":"FlashLeverage__PositionAlreadyUnleveraged","inputs":[]},{"type":"error","name":"FlashLeverage__PositionDoesNotExist","inputs":[]},{"type":"error","name":"FlashLeverage__RenounceOwnershipDisabled","inputs":[]},{"type":"error","name":"FlashLeverage__TreasuryCannotBeZero","inputs":[]},{"type":"error","name":"FlashLeverage__UnsupportedCollateralToken","inputs":[]},{"type":"error","name":"OwnableInvalidOwner","inputs":[{"name":"owner","type":"address","internalType":"address"}]},{"type":"error","name":"OwnableUnauthorizedAccount","inputs":[{"name":"account","type":"address","internalType":"address"}]},{"type":"error","name":"SafeERC20FailedOperation","inputs":[{"name":"token","type":"address","internalType":"address"}]}],"bytecode":{"object":"0x60c0604052346100885761001a610014610169565b91610236565b61002261008d565b61421761042282396080518181816108cb015281816130ff015261313a015260a051818181610a9d01528181610d5801528181611971015281816138a4015281816139150152818161398701528181613a3a01528181613cb60152613d27015261421790f35b610093565b60405190565b5f80fd5b601f801991011690565b634e487b7160e01b5f52604160045260245ffd5b906100bf90610097565b810190811060018060401b038211176100d757604052565b6100a1565b906100ef6100e861008d565b92836100b5565b565b5f80fd5b60018060a01b031690565b610109906100f5565b90565b61011581610100565b0361011c57565b5f80fd5b9050519061012d8261010c565b565b90916060828403126101645761016161014a845f8501610120565b936101588160208601610120565b93604001610120565b90565b6100f1565b6101876146398038038061017c816100dc565b92833981019061012f565b909192565b90565b6101a361019e6101a8926100f5565b61018c565b6100f5565b90565b6101b49061018f565b90565b6101c0906101ab565b90565b6101cc9061018f565b90565b6101d8906101c3565b90565b5f1b90565b906101f160018060a01b03916101db565b9181191691161790565b6102049061018f565b90565b610210906101fb565b90565b90565b9061022b61022661023292610207565b610213565b82546101e0565b9055565b61026292916102506102589261024b33610264565b6101b7565b60a0526101cf565b6080526004610216565b565b61026d906102bc565b565b90565b61028661028161028b9261026f565b61018c565b6100f5565b90565b61029790610272565b90565b6102a390610100565b9052565b91906102ba905f6020850194019061029a565b565b806102d76102d16102cc5f61028e565b610100565b91610100565b146102e7576102e590610376565b565b61030a6102f35f61028e565b5f918291631e4fbdf760e01b8352600483016102a7565b0390fd5b1b90565b9190600861033291029161032c60018060a01b038461030e565b9261030e565b9181191691161790565b919061035261034d61035a93610207565b610213565b908354610312565b9055565b5f90565b6103749161036e61035e565b9161033c565b565b61038a906103855f6001610362565b6103c2565b565b5f1c90565b60018060a01b031690565b6103a86103ad9161038c565b610391565b90565b6103ba905461039c565b90565b5f0190565b6103cb5f6103b0565b6103d5825f610216565b906104096104037f8be0079c531659141344cd1fd0a4f28419497f9722a3daafe3b4186f6b6457e093610207565b91610207565b9161041261008d565b8061041c816103bd565b0390a356fe60806040526004361015610013575b610b22565b61001d5f3561012c565b80632ec23d66146101275780632f0a50c61461012257806337f60d8a1461011d5780633b19e84a14610118578063544e5eca14610113578063642afd921461010e578063715018a61461010957806379ba5097146101045780637f51bb1f146100ff5780638da5cb5b146100fa578063becc650d146100f5578063dd2a7a17146100f0578063de62c156146100eb578063e0c53af1146100e6578063e30c3978146100e1578063f2fde38b146100dc5763f6a5c87c0361000e57610aed565b610a68565b610a33565b6109ff565b610978565b610943565b610892565b6107be565b61078b565b610758565b61073e565b610708565b6105d9565b610410565b6103b9565b610331565b6101ca565b60e01c90565b60405190565b5f80fd5b5f80fd5b5f80fd5b5f80fd5b5f80fd5b5f80fd5b909182601f8301121561018a5781359167ffffffffffffffff831161018557602001926060830284011161018057565b61014c565b610148565b610144565b906020828203126101c0575f82013567ffffffffffffffff81116101bb576101b79201610150565b9091565b610140565b61013c565b5f0190565b346101f9576101e36101dd36600461018f565b90610d94565b6101eb610132565b806101f5816101c5565b0390f35b610138565b90565b61020a816101fe565b0361021157565b5f80fd5b9050359061022282610201565b565b60018060a01b031690565b61023890610224565b90565b6102448161022f565b0361024b57565b5f80fd5b9050359061025c8261023b565b565b5f80fd5b908160809103126102705790565b61025e565b908160a09103126102835790565b61025e565b91909160a08184031261030a576102a1835f8301610215565b926102af816020840161024f565b926102bd826040850161024f565b92606081013567ffffffffffffffff811161030557836102de918301610262565b92608082013567ffffffffffffffff8111610300576102fd9201610275565b90565b610140565b610140565b61013c565b610318906101fe565b9052565b919061032f905f6020850194019061030f565b565b3461036557610361610350610347366004610288565b939290926118f7565b610358610132565b9182918261031c565b0390f35b610138565b5f91031261037457565b61013c565b90565b90565b61039361038e61039892610379565b61037c565b6101fe565b90565b6103ab66b1a2bc2ec5000061037f565b90565b6103b661039b565b90565b346103e9576103c936600461036a565b6103e56103d46103ae565b6103dc610132565b9182918261031c565b0390f35b610138565b6103f79061022f565b9052565b919061040e905f602085019401906103ee565b565b346104405761042036600461036a565b61043c61042b611cce565b610433610132565b918291826103fb565b0390f35b610138565b9060208282031261045e5761045b915f0161024f565b90565b61013c565b5190565b60209181520190565b60200190565b151590565b61048490610476565b9052565b6104919061022f565b9052565b61049e906101fe565b9052565b9061012080610557936104bb5f8201515f86019061047b565b6104cd60208201516020860190610488565b6104df60408201516040860190610488565b6104f160608201516060860190610495565b61050360808201516080860190610495565b61051560a082015160a0860190610495565b61052760c082015160c0860190610495565b61053960e082015160e0860190610495565b61054d610100820151610100860190610495565b0151910190610495565b565b9061056781610140936104a2565b0190565b60200190565b9061058e61058861058184610463565b8093610467565b92610470565b905f5b81811061059e5750505090565b9091926105b76105b16001928651610559565b9461056b565b9101919091610591565b6105d69160208201915f818403910152610571565b90565b34610609576106056105f46105ef366004610445565b611e9a565b6105fc610132565b918291826105c1565b0390f35b610138565b9190604083820312610636578061062a610633925f860161024f565b93602001610215565b90565b61013c565b90610120806106f0936106545f8201515f86019061047b565b61066660208201516020860190610488565b61067860408201516040860190610488565b61068a60608201516060860190610495565b61069c60808201516080860190610495565b6106ae60a082015160a0860190610495565b6106c060c082015160c0860190610495565b6106d260e082015160e0860190610495565b6106e6610100820151610100860190610495565b0151910190610495565b565b9190610706905f610140850194019061063b565b565b346107395761073561072461071e36600461060e565b90611f56565b61072c610132565b918291826106f2565b0390f35b610138565b346107535761074e36600461036a565b611f7f565b610138565b346107865761076836600461036a565b610770611f9b565b610778610132565b80610782816101c5565b0390f35b610138565b346107b9576107a361079e366004610445565b61207f565b6107ab610132565b806107b5816101c5565b0390f35b610138565b346107ee576107ce36600461036a565b6107ea6107d961208a565b6107e1610132565b918291826103fb565b0390f35b610138565b90816101809103126108025790565b61025e565b90816101a09103126108165790565b61025e565b9060808282031261088d57610832815f840161024f565b926108408260208501610215565b92604081013567ffffffffffffffff811161088857836108619183016107f3565b92606082013567ffffffffffffffff8111610883576108809201610807565b90565b610140565b610140565b61013c565b346108c4576108ae6108a536600461081b565b92919091612398565b6108b6610132565b806108c0816101c5565b0390f35b610138565b7f000000000000000000000000000000000000000000000000000000000000000090565b6109016108fc61090692610224565b61037c565b610224565b90565b610912906108ed565b90565b61091e90610909565b90565b61092a90610915565b9052565b9190610941905f60208501940190610921565b565b346109735761095336600461036a565b61096f61095e6108c9565b610966610132565b9182918261092e565b0390f35b610138565b346109a9576109a561099461098e36600461060e565b906123b3565b61099c610132565b9182918261031c565b0390f35b610138565b916060838303126109fa576109c5825f850161024f565b926109d38360208301610215565b92604082013567ffffffffffffffff81116109f5576109f29201610807565b90565b610140565b61013c565b34610a2e57610a18610a123660046109ae565b9161252f565b610a20610132565b80610a2a816101c5565b0390f35b610138565b34610a6357610a4336600461036a565b610a5f610a4e61253c565b610a56610132565b918291826103fb565b0390f35b610138565b34610a9657610a80610a7b366004610445565b6125c4565b610a88610132565b80610a92816101c5565b0390f35b610138565b7f000000000000000000000000000000000000000000000000000000000000000090565b610ac890610909565b90565b610ad490610abf565b9052565b9190610aeb905f60208501940190610acb565b565b34610b1d57610afd36600461036a565b610b19610b08610a9b565b610b10610132565b91829182610ad8565b0390f35b610138565b5f80fd5b90610b3891610b336125cf565b610cd5565b565b5f90565b6001610b4a91016101fe565b90565b5090565b634e487b7160e01b5f52603260045260245ffd5b9190811015610b75576060020190565b610b51565b5f80fd5b601f801991011690565b634e487b7160e01b5f52604160045260245ffd5b90610ba690610b7e565b810190811067ffffffffffffffff821117610bc057604052565b610b88565b90610bd8610bd1610132565b9283610b9c565b565b5f80fd5b90565b610bea81610bde565b03610bf157565b5f80fd5b90503590610c0282610be1565b565b9190606083820312610c5057610c4990610c1e6060610bc5565b93610c2b825f830161024f565b5f860152610c3c8260208301610bf5565b602086015260400161024f565b6040830152565b610b7a565b610c60903690610c04565b90565b610c6d905161022f565b90565b610c7990610909565b90565b90610c8690610c70565b5f5260205260405f2090565b5f1b90565b90610ca860018060a01b0391610c92565b9181191691161790565b90565b90610cca610cc5610cd192610c70565b610cb2565b8254610c97565b9055565b919091610ce0610b3a565b5b80610cfe610cf8610cf3858890610b4d565b6101fe565b916101fe565b1015610d8e57610d8990610d84610d535f610d23610d1e878a8791610b65565b610c55565b610d4d610d3260408301610c63565b610d486003610d42868601610c63565b90610c7c565b610cb5565b01610c63565b610d7c7f0000000000000000000000000000000000000000000000000000000000000000610abf565b5f1991612710565b610b3e565b610ce1565b50509050565b90610d9e91610b26565b565b90610daa90610c70565b5f5260205260405f2090565b5490565b15610dc157565b5f6333a9e83f60e01b815280610dd9600482016101c5565b0390fd5b5f5260205f2090565b610def81610db6565b821015610e0957610e01600991610ddd565b910201905f90565b610b51565b90565b5f1c90565b60ff1690565b610e28610e2d91610e11565b610e16565b90565b610e3a9054610e1c565b90565b15610e4457565b5f63891e6c9f60e01b815280610e5c600482016101c5565b0390fd5b60081c90565b60018060a01b031690565b610e7d610e8291610e60565b610e66565b90565b610e8f9054610e71565b90565b610e9e610ea391610e11565b610e66565b90565b610eb09054610e92565b90565b90565b610ec2610ec791610e11565b610eb3565b90565b610ed49054610eb6565b90565b610ee2610120610bc5565b90565b90610eef906101fe565b9052565b90610efd9061022f565b9052565b600b1115610f0b57565b5f80fd5b90503590610f1c82610f01565b565b5f80fd5b67ffffffffffffffff8111610f4057610f3c602091610b7e565b0190565b610b88565b90825f939282370152565b90929192610f65610f6082610f22565b610bc5565b93818552602085019082840111610f8157610f7f92610f45565b565b610f1e565b9080601f83011215610fa457816020610fa193359101610f50565b90565b610144565b610fb281610476565b03610fb957565b5f80fd5b90503590610fca82610fa9565b565b91909160808184031261104357610fe36080610bc5565b92610ff0815f8401610f0f565b5f850152611001816020840161024f565b602085015260408201359167ffffffffffffffff831161103e5761102a82611037948301610f86565b6040860152606001610fbd565b6060830152565b610bda565b610b7a565b611053903690610fcc565b90565b52565b67ffffffffffffffff81116110715760208091020190565b610b88565b6004111561108057565b5f80fd5b9050359061109182611076565b565b919091610180818403126111a3576110ac610180610bc5565b926110b9815f8401610215565b5f8501526110ca8160208401610215565b60208501526110dc8160408401610215565b60408501526110ee8160608401611084565b6060850152611100816080840161024f565b60808501526111128160a0840161024f565b60a08501526111248160c0840161024f565b60c08501526111368160e0840161024f565b60e0850152611149816101008401610215565b61010085015261115d816101208401610215565b610120850152611171816101408401610215565b61014085015261016082013567ffffffffffffffff811161119e576111969201610f86565b610160830152565b610bda565b610b7a565b919091606081840312611225576111bf6060610bc5565b925f82013567ffffffffffffffff811161122057816111df918401611093565b5f85015260208201359167ffffffffffffffff831161121b5761120782611214948301610f86565b6020860152604001610215565b6040830152565b610bda565b610bda565b610b7a565b92919061123e61123982611059565b610bc5565b93818552602080860192028101918383116112955781905b838210611264575050505050565b813567ffffffffffffffff81116112905760209161128587849387016111a8565b815201910190611256565b610144565b61014c565b9080601f830112156112b8578160206112b59335910161122a565b90565b610144565b91909160a081840312611375576112d460a0610bc5565b926112e1815f840161024f565b5f8501526112f28160208401610215565b6020850152604082013567ffffffffffffffff8111611370578161131791840161129a565b6040850152606082013567ffffffffffffffff811161136b578161133c91840161129a565b6060850152608082013567ffffffffffffffff81116113665761135f9201610f86565b6080830152565b610bda565b610bda565b610bda565b610b7a565b6113859036906112bd565b90565b52565b5f80fd5b60e01b90565b5f91031261139f57565b61013c565b634e487b7160e01b5f52602160045260245ffd5b600b11156113c257565b6113a4565b906113d1826113b8565b565b6113dc906113c7565b90565b6113e8906113d3565b9052565b5190565b60209181520190565b90825f9392825e0152565b61142361142c6020936114319361141a816113ec565b938480936113f0565b958691016113f9565b610b7e565b0190565b9061148390606080611478608084016114545f8801515f8701906113df565b61146660208801516020870190610488565b60408701518582036040870152611404565b94015191019061047b565b90565b5190565b60209181520190565b60200190565b600411156114a357565b6113a4565b906114b282611499565b565b6114bd906114a8565b90565b6114c9906114b4565b9052565b6115b5916101606101808201926114ea5f8201515f850190610495565b6114fc60208201516020850190610495565b61150e60408201516040850190610495565b611520606082015160608501906114c0565b61153260808201516080850190610488565b61154460a082015160a0850190610488565b61155660c082015160c0850190610488565b61156860e082015160e0850190610488565b61157c610100820151610100850190610495565b611590610120820151610120850190610495565b6115a4610140820151610140850190610495565b015190610160818403910152611404565b90565b906115f7906040806115ec6115da606085015f8801518682035f8801526114cd565b60208701518582036020870152611404565b940151910190610495565b90565b90611604916115b8565b90565b60200190565b9061162161161a83611486565b809261148a565b908161163260208302840194611493565b925f915b83831061164557505050505090565b90919293946020611667611661838560019503875289516115fa565b97611607565b9301930191939290611636565b6116db9160806116ca6116b860a084016116945f8701515f870190610488565b6116a660208701516020870190610495565b6040860151858203604087015261160d565b6060850151848203606086015261160d565b920151906080818403910152611404565b90565b61178d9161010061177b61012083016116fd5f8601515f860190610495565b61170f60208601516020860190610488565b61172160408601516040860190610488565b61173360608601516060860190610495565b61174560808601516080860190610495565b61175760a086015160a0860190610488565b61176960c086015160c0860190610488565b60e085015184820360e0860152611435565b92015190610100818403910152611674565b90565b916117b3926117a660408201935f8301906103ee565b60208184039101526116de565b90565b6117be610132565b3d5f823e3d90fd5b906117d260ff91610c92565b9181191691161790565b6117e590610476565b90565b90565b906118006117fb611807926117dc565b6117e8565b82546117c6565b9055565b611814906108ed565b90565b6118209061180b565b90565b61182c90610909565b90565b60ff1690565b61183e8161182f565b0361184557565b5f80fd5b9050519061185682611835565b565b906020828203126118715761186e915f01611849565b90565b61013c565b90565b61188d61188861189292611876565b61037c565b61182f565b90565b61189f6012611879565b90565b634e487b7160e01b5f52601160045260245ffd5b6118c56118cb919392936101fe565b926101fe565b82039182116118d657565b6118a2565b6118ef6118ea6118f4926101fe565b61037c565b6101fe565b90565b92919493611903610b3a565b5033928460028561191391610da0565b61191c90610db6565b611925906101fe565b9061192f906101fe565b1061193990610dba565b60028461194591610da0565b8561194f91610de6565b5061195990610e0e565b96875f0161196690610e30565b61196f90610e3d565b7f000000000000000000000000000000000000000000000000000000000000000061199990610abf565b9063da6248b69386938a5f016119ae90610e85565b928b6001016119bc90610ea6565b978c806002016119cb90610eca565b99816006016119d990610eca565b916005016119e690610eca565b92939495966119f3610ed7565b9b5f8d0190611a0191610ee5565b60208c0190611a0f91610ef3565b60408b0190611a1d91610ef3565b60608a0190611a2b91610ee5565b6080890190611a3991610ee5565b60a0880190611a4791610ef3565b60c0870190611a5591610ef3565b611a5e90611048565b60e0860190611a6c91611056565b611a759061137a565b610100850190611a8491611388565b803b15611cc557611aa85f8094611ab3611a9c610132565b9788968795869461138f565b845260048401611790565b03925af18015611cc057611c94575b50611acf5f5f86016117eb565b611b066020611af0611aeb611ae660018901610ea6565b611817565b611823565b63313ce56790611afe610132565b93849261138f565b82528180611b16600482016101c5565b03915afa908115611c8f576001611ba5611bb493611bac935f91611c61575b50611b9589611b6b611b5c611b5787611b5060048601610eca565b9401610ea6565b612804565b84611b65611895565b9161297b565b8b611b74610b3a565b9282611b88611b82836101fe565b916101fe565b11611c0b575b50506118b6565b90611b9e611895565b909161297b565b9601610ea6565b828691612a79565b908390611bf3611bed611be77fcd2b4e62cfe22ecc5a38c25a2dce9e2dd3a29a3e10fa499505b5bfb6aec9b12395610c70565b926118db565b926118db565b92611bfc610132565b80611c06816101c5565b0390a4565b611c5a91935087611c30611c22611c3793866118b6565b611c2a61039b565b90612a52565b9401610ea6565b611c416004610ea6565b611c5485611c4d611895565b899161297b565b91612a79565b8b5f611b8e565b611c82915060203d8111611c88575b611c7a8183610b9c565b810190611858565b5f611b35565b503d611c70565b6117b6565b611cb3905f3d8111611cb9575b611cab8183610b9c565b810190611395565b5f611ac2565b503d611ca1565b6117b6565b61138b565b5f90565b611cd6611cca565b50611ce16004610ea6565b90565b606090565b67ffffffffffffffff8111611d015760208091020190565b610b88565b90611d18611d1383611ce9565b610bc5565b918252565b90611d2790610476565b9052565b611d36610140610bc5565b90565b90611e31611e276008611d4a611d2b565b94611d61611d595f8301610e30565b5f8801611d1d565b611d78611d6f5f8301610e85565b60208801610ef3565b611d90611d8760018301610ea6565b60408801610ef3565b611da8611d9f60028301610eca565b60608801610ee5565b611dc0611db760038301610eca565b60808801610ee5565b611dd8611dcf60048301610eca565b60a08801610ee5565b611df0611de760058301610eca565b60c08801610ee5565b611e08611dff60068301610eca565b60e08801610ee5565b611e21611e1760078301610eca565b6101008801610ee5565b01610eca565b6101208401610ee5565b565b611e3c90611d39565b90565b90611e4982610db6565b611e5281611d06565b92611e606020850191610ddd565b5f915b838310611e705750505050565b60096020600192611e8085611e33565b815201920192019190611e63565b611e9790611e3f565b90565b611eb1611eb691611ea9611ce4565b506002610da0565b611e8e565b90565b5f90565b5f90565b5f90565b611ecd611d2b565b9060208080808080808080808b611ee2611eb9565b815201611eed611ebd565b815201611ef8611ebd565b815201611f03611ec1565b815201611f0e611ec1565b815201611f19611ec1565b815201611f24611ec1565b815201611f2f611ec1565b815201611f3a611ec1565b815201611f45611ec1565b81525050565b611f53611ec5565b90565b611f7c91611f71611f7692611f69611f4b565b506002610da0565b610de6565b50611e33565b90565b5f634b3b8eeb60e01b815280611f97600482016101c5565b0390fd5b611fa3612aad565b611fab61253c565b611fbd611fb78361022f565b9161022f565b03611fcd57611fcb90612b1e565b565b611fe8905f91829163118cdaa760e01b8352600483016103fb565b0390fd5b611ffd90611ff86125cf565b61204d565b565b90565b61201661201161201b92611fff565b61037c565b610224565b90565b61202790612002565b90565b1561203157565b5f6308ba3ead60e11b815280612049600482016101c5565b0390fd5b61207d906120768161206f6120696120645f61201e565b61022f565b9161022f565b141561202a565b6004610cb5565b565b61208890611fec565b565b612092611cca565b5061209c5f610ea6565b90565b156120a657565b5f6302ac650b60e21b8152806120be600482016101c5565b0390fd5b906120f39392916120ee816120e76120e16120dc5f61201e565b61022f565b9161022f565b141561209f565b612141565b565b356120ff81610201565b90565b61211661211161211b92611fff565b61037c565b6101fe565b90565b1561212557565b5f63b02cb97d60e01b81528061213d600482016101c5565b0390fd5b9061217493929161216f612157602085016120f5565b6121696121635f612102565b916101fe565b1161211e565b612176565b565b906121a99392916121a461218c606086016120f5565b61219e6121985f612102565b916101fe565b1161211e565b61226a565b565b356121b58161023b565b90565b156121bf57565b5f630f97113760e01b8152806121d7600482016101c5565b0390fd5b6121e4906108ed565b90565b6121f0906121db565b90565b6121fc90610909565b90565b61220890610909565b90565b9050519061221882610fa9565b565b9060208282031261223357612230915f0161220b565b90565b61013c565b604090612261612268949695939661225760608401985f8501906103ee565b60208301906103ee565b019061030f565b565b9290919261227a602083016121ab565b6122b261229161228c60038490610c7c565b610ea6565b6122ab6122a56122a05f61201e565b61022f565b9161022f565b14156121b8565b6122cd6122c86122c35f88016121ab565b6121e7565b6121f3565b9460206323b872dd9633906123085f6122e5306121ff565b9a6123136122f48789016120f5565b6122fc610132565b9d8e978896879561138f565b855260048501612238565b03925af19586156123935761235596612367575b506123335f82016121ab565b61234561233f8461022f565b9161022f565b03612357575b505091909161386d565b565b612360916130e9565b5f8061234b565b6123879060203d811161238c575b61237f8183610b9c565b81019061221a565b612327565b503d612375565b6117b6565b906123a49392916120c2565b565b6123b090516101fe565b90565b6123d9916123ce6123d3926123c6610b3a565b506002610da0565b610de6565b50611e33565b6124216123e961010083016123a6565b916123f660208201610c63565b9061240360408201610c63565b61241b60e061241460c085016123a6565b93016123a6565b92613ca4565b908161243561242f836101fe565b916101fe565b111561244757612444916118b6565b90565b50506124525f612102565b90565b9061248592916124808161247961247361246e5f61201e565b61022f565b9161022f565b141561209f565b612487565b565b906124b992916124b461249c606085016120f5565b6124ae6124a85f612102565b916101fe565b1161211e565b6124bb565b565b9161252d926125036124e26124dd60036124d7602087016121ab565b90610c7c565b610ea6565b6124fc6124f66124f15f61201e565b61022f565b9161022f565b14156121b8565b612525612512602084016121ab565b3361251f606086016120f5565b91613dfa565b91909161386d565b565b9061253a9291612455565b565b612544611cca565b5061254f6001610ea6565b90565b6125639061255e6125cf565b612565565b565b612570816001610cb5565b61257861208a565b906125ac6125a67f38d16b8cac22d99fc7c124b9cd0de2d3fa1faef420bfe791d8c362d765e2270093610c70565b91610c70565b916125b5610132565b806125bf816101c5565b0390a3565b6125cd90612552565b565b6125d761208a565b6125f06125ea6125e5612aad565b61022f565b9161022f565b036125f757565b612619612602612aad565b5f91829163118cdaa760e01b8352600483016103fb565b0390fd5b91602061263e92949361263760408201965f8301906103ee565b019061030f565b565b9061265261264d83610f22565b610bc5565b918252565b606090565b3d5f146126775761266c3d612640565b903d5f602084013e5b565b61267f612657565b90612675565b60209181520190565b5f7f5361666520417070726f76650000000000000000000000000000000000000000910152565b6126c2600c602092612685565b6126cb8161268e565b0190565b6126e49060208101905f8183039101526126b5565b90565b156126ee57565b6126f6610132565b62461bcd60e51b81528061270c600482016126cf565b0390fd5b61276f9260046127515f9461274286959463095ea7b360e01b92612732610132565b958694602086019081520161261d565b60208201810382520382610b9c565b82602082019151925af161276361265c565b81612771575b506126e7565b565b905061277c816113ec565b61278e6127885f612102565b916101fe565b1490811561279e575b505f612769565b6127b9915060206127ae826113ec565b81830101910161221a565b5f612797565b6127c85f61201e565b90565b6127d490610909565b90565b905051906127e482610201565b565b906020828203126127ff576127fc915f016127d7565b90565b61013c565b61280c610b3a565b508061282761282161281c6127bf565b61022f565b9161022f565b145f1461283d5750612838306127cb565b315b90565b602061285361284e612885936121e7565b6121f3565b6370a082319061287a612865306127cb565b9261286e610132565b9586948593849361138f565b8352600483016103fb565b03915afa9081156128cb575f9161289d575b5061283a565b6128be915060203d81116128c4575b6128b68183610b9c565b8101906127e6565b5f612897565b503d6128ac565b6117b6565b6128dc6128e29161182f565b9161182f565b90039060ff82116128ef57565b6118a2565b6128fd9061182f565b604d811161290b57600a0a90565b6118a2565b61291f612925919392936101fe565b926101fe565b916129318382026101fe565b92818404149015171561294057565b6118a2565b634e487b7160e01b5f52601260045260245ffd5b61296561296b916101fe565b916101fe565b908115612976570490565b612945565b91612984610b3a565b50816129986129928361182f565b9161182f565b115f146129be576129b06129b5916129bb94936128d0565b6128f4565b90612959565b90565b90806129d26129cc8461182f565b9161182f565b105f146129f8576129ea6129ef916129f594936128d0565b6128f4565b90612910565b90565b505090565b90565b612a14612a0f612a19926129fd565b61037c565b6101fe565b90565b612a2d670de0b6b3a7640000612a00565b90565b612a3c612a42916101fe565b916101fe565b908115612a4d570490565b612945565b612a7691612a6891612a62610b3a565b50612910565b612a70612a1c565b90612a30565b90565b9180612a8d612a875f612102565b916101fe565b14612aa857612a9e612aa6936121e7565b919091613e68565b565b505050565b612ab5611cca565b503390565b1b90565b91906008612ade910291612ad860018060a01b0384612aba565b92612aba565b9181191691161790565b9190612afe612af9612b0693610c70565b610cb2565b908354612abe565b9055565b612b1c91612b16611cca565b91612ae8565b565b612b3290612b2d5f6001612b0a565b613eb6565b565b5f80fd5b903590600160800381360303821215612b4f570190565b612b34565b612b5e60a0610bc5565b90565b903590600160a00381360303821215612b78570190565b612b34565b9091606082840312612bb257612baf612b98845f85016127d7565b93612ba681602086016127d7565b936040016127d7565b90565b61013c565b50612bc6906020810190610215565b90565b906080612c42612c4a93612beb612be25f830183612bb7565b5f860190610495565b612c05612bfb6020830183612bb7565b6020860190610495565b612c1f612c156040830183612bb7565b6040860190610495565b612c39612c2f6060830183612bb7565b6060860190610495565b82810190612bb7565b910190610495565b565b612cad91608060a0820192612c675f8201515f850190610488565b612c7960208201516020850190610495565b612c8b60408201516040850190610488565b612c9d60608201516060850190610488565b0151906080818403910152611435565b90565b50612cbf90602081019061024f565b90565b5f80fd5b5f80fd5b5f80fd5b9035600160200382360303811215612d0f57016020813591019167ffffffffffffffff8211612d0a576020820236038313612d0557565b612cc6565b612cc2565b612cca565b90565b903560016101800382360303811215612d2e570190565b612cca565b50612d42906020810190611084565b90565b9035600160200382360303811215612d8657016020813591019167ffffffffffffffff8211612d81576001820236038313612d7c57565b612cc6565b612cc2565b612cca565b9190612da581612d9e81612daa956113f0565b8095610f45565b610b7e565b0190565b612ef791612ee8610180820192612dd3612dca5f830183612bb7565b5f850190610495565b612ded612de36020830183612bb7565b6020850190610495565b612e07612dfd6040830183612bb7565b6040850190610495565b612e21612e176060830183612d33565b60608501906114c0565b612e3b612e316080830183612cb0565b6080850190610488565b612e55612e4b60a0830183612cb0565b60a0850190610488565b612e6f612e6560c0830183612cb0565b60c0850190610488565b612e89612e7f60e0830183612cb0565b60e0850190610488565b612ea5612e9a610100830183612bb7565b610100850190610495565b612ec1612eb6610120830183612bb7565b610120850190610495565b612edd612ed2610140830183612bb7565b610140850190610495565b610160810190612d45565b91610160818503910152612d8b565b90565b90612f53906040612f4b612f41612f2660608501612f1a5f890189612d17565b8682035f880152612dae565b612f336020880188612d45565b908683036020880152612d8b565b9482810190612bb7565b910190610495565b90565b90612f6091612efa565b90565b9035600160600382360303811215612f79570190565b612cca565b60200190565b9181612f8f9161148a565b9081612fa060208302840194612d14565b92835f925b848410612fb55750505050505090565b9091929394956020612fe0612fda8385600195038852612fd58b88612f63565b612f56565b98612f7e565b940194019294939190612fa5565b6130809161307261306761304c60a0840161301761300e5f880188612cb0565b5f870190610488565b6130316130276020880188612bb7565b6020870190610495565b61303e6040870187612cce565b908683036040880152612f84565b6130596060860186612cce565b908583036060870152612f84565b926080810190612d45565b916080818503910152612d8b565b90565b9490916130e696946130bf6130d7956130b56130c9946130ab6101408c01985f8d01906103ee565b60208b01906103ee565b604089019061030f565b6060870190612bc9565b848203610100860152612c4c565b91610120818403910152612fee565b90565b6060906131356130fa5f85016121ab565b6131237f0000000000000000000000000000000000000000000000000000000000000000610915565b61312f602087016120f5565b91613f15565b61315e7f0000000000000000000000000000000000000000000000000000000000000000610915565b6132495f63c81f847a613254613186613181613179306121ff565b976003610c7c565b610ea6565b9783613194604083016120f5565b916132348a8201916132296132206131ad8684016121ab565b61321b6131bc602086016120f5565b6132126131cc61012088016121ab565b6132096131dc6101008a016121ab565b936132006131ef8b610140810190612b38565b976131f8612b54565b9e8f01610ef3565b60208d01610ee5565b60408b01610ef3565b60608901610ef3565b611048565b60808601611056565b610160810190612b61565b9261323d610132565b9b8c9a8b998a9861138f565b885260048801613083565b03925af1801561329457613266575b50565b6132869060603d811161328d575b61327e8183610b9c565b810190612b7d565b5050613263565b503d613274565b6117b6565b91906040838203126132d3576132cc906132b36040610bc5565b936132c0825f83016127d7565b5f8601526020016127d7565b6020830152565b610b7a565b906040828203126132f1576132ee915f01613299565b90565b61013c565b61332b61333294613321606094989795613317608086019a5f8701906103ee565b602085019061030f565b60408301906103ee565b01906103ee565b565b5090565b9060806133b16133b99361335a6133515f830183612bb7565b5f860190610495565b61337461336a6020830183612bb7565b6020860190610495565b61338e6133846040830183612bb7565b6040860190610495565b6133a861339e6060830183612bb7565b6060860190610495565b82810190612bb7565b910190610495565b565b90356001608003823603038112156133d1570190565b612cca565b506133e5906020810190610f0f565b90565b506133f7906020810190610fbd565b90565b9061346a9060606134626134586080840161342361341a5f8901896133d6565b5f8701906113df565b61343d6134336020890189612cb0565b6020870190610488565b61344a6040880188612d45565b908683036040880152612d8b565b94828101906133e8565b91019061047b565b90565b9035600160a00382360303811215613483570190565b612cca565b61351a9161350c6135016134e660a084016134b16134a85f880188612cb0565b5f870190610488565b6134cb6134c16020880188612bb7565b6020870190610495565b6134d86040870187612cce565b908683036040880152612f84565b6134f36060860186612cce565b908583036060870152612f84565b926080810190612d45565b916080818503910152612d8b565b90565b61361b9161360c6136006101a0830161354461353b5f870187612bb7565b5f860190610495565b61355e6135546020870187612cb0565b6020860190610488565b61357861356e6040870187612cb0565b6040860190610488565b6135926135886060870187612bb7565b6060860190610495565b6135ac6135a26080870187613334565b6080860190613338565b6135c86135bd610120870187612cb0565b610120860190610488565b6135e46135d9610140870187612cb0565b610140860190610488565b6135f26101608601866133bb565b8482036101608601526133fa565b9261018081019061346d565b90610180818403910152613488565b90565b916136419261363460408201935f8301906103ee565b602081840391015261351d565b90565b90565b613652610140610bc5565b90565b5f5260205f2090565b5490565b61366b8161365e565b8210156136855761367d600991613655565b910201905f90565b610b51565b634e487b7160e01b5f525f60045260245ffd5b6136a79051610476565b90565b60081b90565b906136c3610100600160a81b03916136aa565b9181191691161790565b906136e26136dd6136e992610c70565b610cb2565b82546136b0565b9055565b906136f95f1991610c92565b9181191691161790565b90565b9061371b613716613722926118db565b613703565b82546136ed565b9055565b9061381a61012060086138209461374a5f82016137445f880161369d565b906117eb565b6137625f820161375c60208801610c63565b906136cd565b61377b6001820161377560408801610c63565b90610cb5565b6137946002820161378e606088016123a6565b90613706565b6137ad600382016137a7608088016123a6565b90613706565b6137c6600482016137c060a088016123a6565b90613706565b6137df600582016137d960c088016123a6565b90613706565b6137f8600682016137f260e088016123a6565b90613706565b6138126007820161380c61010088016123a6565b90613706565b0192016123a6565b90613706565b565b91906138335761383191613726565b565b61368a565b9081549168010000000000000000831015613868578261386091600161386695018155613662565b90613822565b565b610b88565b9061387a602084016121ab565b613886604085016121ab565b6138915f86016120f5565b9261389e606087016120f5565b956138c87f0000000000000000000000000000000000000000000000000000000000000000610abf565b60406394ea07bb9188906138f189946138fc8a8a906138e5610132565b9889978896879661138f565b8652600486016132f6565b03915afa908115613c9f575f91613c71575b50906139397f0000000000000000000000000000000000000000000000000000000000000000610abf565b9063867dd3fd90889092803b15613c6c576139675f809461397261395b610132565b9788968795869461138f565b84526004840161361e565b03925af18015613c6757613c3b575b506139ab7f0000000000000000000000000000000000000000000000000000000000000000610abf565b60406394ea07bb9188906139d489946139df8a8a906139c8610132565b9889978896879661138f565b8652600486016132f6565b03915afa8015613c3657613a32915f91613c08575b5091613a2c6020613a2581613a1e613a0d5f89016123a6565b613a185f88016123a6565b906118b6565b96016123a6565b92016123a6565b906118b6565b876020613a5e7f0000000000000000000000000000000000000000000000000000000000000000610abf565b633ba7a31490613a828992613a8d8a96613a76610132565b9788968795869561138f565b855260048501612238565b03915afa908115613c03575f91613bd5575b50918585828491613aaf93613ca4565b92600289613abc91610da0565b613ac590610db6565b9960028a613ad291610da0565b613adb90613644565b98600198979091929394959697613af0613647565b995f8b0190613afe91611d1d565b60208a0190613b0c91610ef3565b6040890190613b1a91610ef3565b6060880190613b2891610ee5565b6080870190613b3691610ee5565b60a0860190613b4491610ee5565b60c0850190613b5291610ee5565b60e0840190613b6091610ee5565b610100830190613b6f91610ee5565b610120820190613b7e91610ee5565b613b8791613838565b907f156f6d0646dd158e7f2defae7688ad0969dd6582e7b5fb776a1692db7cea287391613bb390610c70565b90613bbd906118db565b91613bc6610132565b80613bd0816101c5565b0390a3565b613bf6915060203d8111613bfc575b613bee8183610b9c565b8101906127e6565b5f613a9f565b503d613be4565b6117b6565b613c29915060403d8111613c2f575b613c218183610b9c565b8101906132d8565b5f6139f4565b503d613c17565b6117b6565b613c5a905f3d8111613c60575b613c528183610b9c565b810190611395565b5f613981565b503d613c48565b6117b6565b61138b565b613c92915060403d8111613c98575b613c8a8183610b9c565b8101906132d8565b5f61390e565b503d613c80565b6117b6565b9190613cae610b3a565b506020613cda7f0000000000000000000000000000000000000000000000000000000000000000610abf565b633ba7a31490613cfe8692613d098697613cf2610132565b9889968795869561138f565b855260048501612238565b03915afa8015613df5576020925f91613dc8575b5092613d6b613d4b7f0000000000000000000000000000000000000000000000000000000000000000610abf565b91613d7663e30e40cb919497613d5f610132565b9889968795869561138f565b855260048501612238565b03915afa8015613dc357613d92925f91613d95575b50906118b6565b90565b613db6915060203d8111613dbc575b613dae8183610b9c565b8101906127e6565b5f613d8b565b503d613da4565b6117b6565b613de89150833d8111613dee575b613de08183610b9c565b8101906127e6565b5f613d1d565b503d613dd6565b6117b6565b9180613e0e613e085f612102565b916101fe565b14613e3257613e1f613e30936121e7565b91613e29306127cb565b9192613f2c565b565b505050565b63ffffffff1690565b63ffffffff60e01b1690565b613e60613e5b613e6592613e37565b61138f565b613e40565b90565b90613eaf613eb493613ea060049493613e8763a9059cbb919391613e4c565b92613e90610132565b968794602086019081520161261d565b60208201810382520383610b9c565b613f9b565b565b613ebf5f610ea6565b613ec9825f610cb5565b90613efd613ef77f8be0079c531659141344cd1fd0a4f28419497f9722a3daafe3b4186f6b6457e093610c70565b91610c70565b91613f06610132565b80613f10816101c5565b0390a3565b91613f22613f2a936121e7565b91909161407f565b565b600492613f66613f7a9593613f759394613f4d6323b872dd92949192613e4c565b93613f56610132565b9788956020870190815201612238565b60208201810382520383610b9c565b613f9b565b565b90565b613f93613f8e613f9892613f7c565b61037c565b6101fe565b90565b905f602091613fa8610b3a565b50613fb1610b3a565b50828151910182855af115614044573d5f5190613fd6613fd05f612102565b916101fe565b145f1461402a5750613fe7816121f3565b3b613ffa613ff45f612102565b916101fe565b145b6140035750565b61400f614026916121f3565b5f918291635274afe760e01b8352600483016103fb565b0390fd5b61403d6140376001613f7f565b916101fe565b1415613ffc565b6040513d5f823e3d90fd5b61405890612102565b9052565b91602061407d92949361407660408201965f8301906103ee565b019061404f565b565b90916140c26004916140b363095ea7b361409a879391613e4c565b926140a3610132565b958694602086019081520161261d565b60208201810382520382610b9c565b906140d76140d182849061413f565b15610476565b6140e1575b505050565b61412e600461413394614129849161411a63095ea7b36141015f91613e4c565b9261410a610132565b968794602086019081520161405c565b60208201810382520383610b9c565b613f9b565b613f9b565b5f80806140dc565b5f90565b905f60209161414c61413b565b5061415561413b565b5061415e610b3a565b50614167610b3a565b50828151910182855af13d915f51919283614183575b50505090565b909192506141996141935f612102565b916101fe565b145f146141c7576141aa91506121f3565b3b6141bd6141b75f612102565b916101fe565b115b5f808061417d565b506141db6141d56001613f7f565b916101fe565b146141bf56fea264697066735822122021797e5b6fd4d57fda92e5cbbc4696e48329ee1b29c012042931a3be732d83c264736f6c634300081e0033","linkReferences":{}},"methodIdentifiers":{"YIELD_FEE()":"37f60d8a","acceptOwnership()":"79ba5097","addSupportedCollateralTokens((address,bytes32,address)[])":"2ec23d66","getPositionYieldInLoanToken(address,uint256)":"de62c156","getTreasury()":"3b19e84a","getUserLeveragePosition(address,uint256)":"642afd92","getUserLeveragePositions(address)":"544e5eca","i_flashLeverageCore()":"f6a5c87c","i_pendleRouter()":"dd2a7a17","leverage(address,uint256,(uint256,address,address,uint256,(uint256,uint256,uint256,uint256,uint256),address,address,(uint8,address,bytes,bool),(address,uint256,((uint256,uint256,uint256,uint8,address,address,address,address,uint256,uint256,uint256,bytes),bytes,uint256)[],((uint256,uint256,uint256,uint8,address,address,address,address,uint256,uint256,uint256,bytes),bytes,uint256)[],bytes)))":"e0c53af1","owner()":"8da5cb5b","pendingOwner()":"e30c3978","renounceOwnership()":"715018a6","swapAndLeverage(address,uint256,(address,uint256,uint256,(uint256,uint256,uint256,uint256,uint256),address,address,(uint8,address,bytes,bool),(address,uint256,((uint256,uint256,uint256,uint8,address,address,address,address,uint256,uint256,uint256,bytes),bytes,uint256)[],((uint256,uint256,uint256,uint8,address,address,address,address,uint256,uint256,uint256,bytes),bytes,uint256)[],bytes)),(uint256,address,address,uint256,(uint256,uint256,uint256,uint256,uint256),address,address,(uint8,address,bytes,bool),(address,uint256,((uint256,uint256,uint256,uint8,address,address,address,address,uint256,uint256,uint256,bytes),bytes,uint256)[],((uint256,uint256,uint256,uint8,address,address,address,address,uint256,uint256,uint256,bytes),bytes,uint256)[],bytes)))":"becc650d","transferOwnership(address)":"f2fde38b","unleverage(uint256,address,address,(uint8,address,bytes,bool),(address,uint256,((uint256,uint256,uint256,uint8,address,address,address,address,uint256,uint256,uint256,bytes),bytes,uint256)[],((uint256,uint256,uint256,uint8,address,address,address,address,uint256,uint256,uint256,bytes),bytes,uint256)[],bytes))":"2f0a50c6","updateTreasury(address)":"7f51bb1f"},"id":73}