{"abi":[{"type":"constructor","inputs":[{"name":"flashLeverageCore","type":"address","internalType":"address"},{"name":"pendleRouter","type":"address","internalType":"address"}],"stateMutability":"nonpayable"},{"type":"function","name":"acceptOwnership","inputs":[],"outputs":[],"stateMutability":"nonpayable"},{"type":"function","name":"addSupportedCollateralToken","inputs":[{"name":"collateralToken","type":"address","internalType":"address"},{"name":"pendleMarket","type":"address","internalType":"address"}],"outputs":[],"stateMutability":"nonpayable"},{"type":"function","name":"getUserLeveragePosition","inputs":[{"name":"user","type":"address","internalType":"address"},{"name":"positionId","type":"uint256","internalType":"uint256"}],"outputs":[{"name":"","type":"tuple","internalType":"struct LeveragePosition","components":[{"name":"open","type":"bool","internalType":"bool"},{"name":"collateralToken","type":"address","internalType":"address"},{"name":"loanToken","type":"address","internalType":"address"},{"name":"collateralTokenUsdValue","type":"uint256","internalType":"uint256"},{"name":"amountCollateral","type":"uint256","internalType":"uint256"},{"name":"amountLeveragedCollateral","type":"uint256","internalType":"uint256"},{"name":"sharesBorrowed","type":"uint256","internalType":"uint256"}]}],"stateMutability":"view"},{"type":"function","name":"getUserLeveragePositions","inputs":[{"name":"user","type":"address","internalType":"address"}],"outputs":[{"name":"","type":"tuple[]","internalType":"struct LeveragePosition[]","components":[{"name":"open","type":"bool","internalType":"bool"},{"name":"collateralToken","type":"address","internalType":"address"},{"name":"loanToken","type":"address","internalType":"address"},{"name":"collateralTokenUsdValue","type":"uint256","internalType":"uint256"},{"name":"amountCollateral","type":"uint256","internalType":"uint256"},{"name":"amountLeveragedCollateral","type":"uint256","internalType":"uint256"},{"name":"sharesBorrowed","type":"uint256","internalType":"uint256"}]}],"stateMutability":"view"},{"type":"function","name":"i_flashLeverageCore","inputs":[],"outputs":[{"name":"","type":"address","internalType":"contract IFlashLeverageCore"}],"stateMutability":"view"},{"type":"function","name":"i_pendleRouter","inputs":[],"outputs":[{"name":"","type":"address","internalType":"contract IPAllActionV3"}],"stateMutability":"view"},{"type":"function","name":"leverage","inputs":[{"name":"onBehalfOf","type":"address","internalType":"address"},{"name":"leverageParams","type":"tuple","internalType":"struct LeverageParams","components":[{"name":"collateralToken","type":"address","internalType":"address"},{"name":"loanToken","type":"address","internalType":"address"},{"name":"amountCollateral","type":"uint256","internalType":"uint256"},{"name":"approxParams","type":"tuple","internalType":"struct ApproxParams","components":[{"name":"guessMin","type":"uint256","internalType":"uint256"},{"name":"guessMax","type":"uint256","internalType":"uint256"},{"name":"guessOffchain","type":"uint256","internalType":"uint256"},{"name":"maxIteration","type":"uint256","internalType":"uint256"},{"name":"eps","type":"uint256","internalType":"uint256"}]},{"name":"pendleSwap","type":"address","internalType":"address"},{"name":"tokenMintSy","type":"address","internalType":"address"},{"name":"swapData","type":"tuple","internalType":"struct SwapData","components":[{"name":"swapType","type":"uint8","internalType":"enum SwapType"},{"name":"extRouter","type":"address","internalType":"address"},{"name":"extCalldata","type":"bytes","internalType":"bytes"},{"name":"needScale","type":"bool","internalType":"bool"}]},{"name":"limitOrderData","type":"tuple","internalType":"struct LimitOrderData","components":[{"name":"limitRouter","type":"address","internalType":"address"},{"name":"epsSkipMarket","type":"uint256","internalType":"uint256"},{"name":"normalFills","type":"tuple[]","internalType":"struct FillOrderParams[]","components":[{"name":"order","type":"tuple","internalType":"struct Order","components":[{"name":"salt","type":"uint256","internalType":"uint256"},{"name":"expiry","type":"uint256","internalType":"uint256"},{"name":"nonce","type":"uint256","internalType":"uint256"},{"name":"orderType","type":"uint8","internalType":"enum IPLimitOrderType.OrderType"},{"name":"token","type":"address","internalType":"address"},{"name":"YT","type":"address","internalType":"address"},{"name":"maker","type":"address","internalType":"address"},{"name":"receiver","type":"address","internalType":"address"},{"name":"makingAmount","type":"uint256","internalType":"uint256"},{"name":"lnImpliedRate","type":"uint256","internalType":"uint256"},{"name":"failSafeRate","type":"uint256","internalType":"uint256"},{"name":"permit","type":"bytes","internalType":"bytes"}]},{"name":"signature","type":"bytes","internalType":"bytes"},{"name":"makingAmount","type":"uint256","internalType":"uint256"}]},{"name":"flashFills","type":"tuple[]","internalType":"struct FillOrderParams[]","components":[{"name":"order","type":"tuple","internalType":"struct Order","components":[{"name":"salt","type":"uint256","internalType":"uint256"},{"name":"expiry","type":"uint256","internalType":"uint256"},{"name":"nonce","type":"uint256","internalType":"uint256"},{"name":"orderType","type":"uint8","internalType":"enum IPLimitOrderType.OrderType"},{"name":"token","type":"address","internalType":"address"},{"name":"YT","type":"address","internalType":"address"},{"name":"maker","type":"address","internalType":"address"},{"name":"receiver","type":"address","internalType":"address"},{"name":"makingAmount","type":"uint256","internalType":"uint256"},{"name":"lnImpliedRate","type":"uint256","internalType":"uint256"},{"name":"failSafeRate","type":"uint256","internalType":"uint256"},{"name":"permit","type":"bytes","internalType":"bytes"}]},{"name":"signature","type":"bytes","internalType":"bytes"},{"name":"makingAmount","type":"uint256","internalType":"uint256"}]},{"name":"optData","type":"bytes","internalType":"bytes"}]}]}],"outputs":[],"stateMutability":"nonpayable"},{"type":"function","name":"owner","inputs":[],"outputs":[{"name":"","type":"address","internalType":"address"}],"stateMutability":"view"},{"type":"function","name":"pendingOwner","inputs":[],"outputs":[{"name":"","type":"address","internalType":"address"}],"stateMutability":"view"},{"type":"function","name":"renounceOwnership","inputs":[],"outputs":[],"stateMutability":"nonpayable"},{"type":"function","name":"swapAndLeverage","inputs":[{"name":"onBehalfOf","type":"address","internalType":"address"},{"name":"swapParams","type":"tuple","internalType":"struct SwapParams","components":[{"name":"tokenIn","type":"address","internalType":"address"},{"name":"amountTokenIn","type":"uint256","internalType":"uint256"},{"name":"minOut","type":"uint256","internalType":"uint256"},{"name":"approxParams","type":"tuple","internalType":"struct ApproxParams","components":[{"name":"guessMin","type":"uint256","internalType":"uint256"},{"name":"guessMax","type":"uint256","internalType":"uint256"},{"name":"guessOffchain","type":"uint256","internalType":"uint256"},{"name":"maxIteration","type":"uint256","internalType":"uint256"},{"name":"eps","type":"uint256","internalType":"uint256"}]},{"name":"pendleSwap","type":"address","internalType":"address"},{"name":"tokenMintSy","type":"address","internalType":"address"},{"name":"swapData","type":"tuple","internalType":"struct SwapData","components":[{"name":"swapType","type":"uint8","internalType":"enum SwapType"},{"name":"extRouter","type":"address","internalType":"address"},{"name":"extCalldata","type":"bytes","internalType":"bytes"},{"name":"needScale","type":"bool","internalType":"bool"}]},{"name":"limitOrderData","type":"tuple","internalType":"struct LimitOrderData","components":[{"name":"limitRouter","type":"address","internalType":"address"},{"name":"epsSkipMarket","type":"uint256","internalType":"uint256"},{"name":"normalFills","type":"tuple[]","internalType":"struct FillOrderParams[]","components":[{"name":"order","type":"tuple","internalType":"struct Order","components":[{"name":"salt","type":"uint256","internalType":"uint256"},{"name":"expiry","type":"uint256","internalType":"uint256"},{"name":"nonce","type":"uint256","internalType":"uint256"},{"name":"orderType","type":"uint8","internalType":"enum IPLimitOrderType.OrderType"},{"name":"token","type":"address","internalType":"address"},{"name":"YT","type":"address","internalType":"address"},{"name":"maker","type":"address","internalType":"address"},{"name":"receiver","type":"address","internalType":"address"},{"name":"makingAmount","type":"uint256","internalType":"uint256"},{"name":"lnImpliedRate","type":"uint256","internalType":"uint256"},{"name":"failSafeRate","type":"uint256","internalType":"uint256"},{"name":"permit","type":"bytes","internalType":"bytes"}]},{"name":"signature","type":"bytes","internalType":"bytes"},{"name":"makingAmount","type":"uint256","internalType":"uint256"}]},{"name":"flashFills","type":"tuple[]","internalType":"struct FillOrderParams[]","components":[{"name":"order","type":"tuple","internalType":"struct Order","components":[{"name":"salt","type":"uint256","internalType":"uint256"},{"name":"expiry","type":"uint256","internalType":"uint256"},{"name":"nonce","type":"uint256","internalType":"uint256"},{"name":"orderType","type":"uint8","internalType":"enum IPLimitOrderType.OrderType"},{"name":"token","type":"address","internalType":"address"},{"name":"YT","type":"address","internalType":"address"},{"name":"maker","type":"address","internalType":"address"},{"name":"receiver","type":"address","internalType":"address"},{"name":"makingAmount","type":"uint256","internalType":"uint256"},{"name":"lnImpliedRate","type":"uint256","internalType":"uint256"},{"name":"failSafeRate","type":"uint256","internalType":"uint256"},{"name":"permit","type":"bytes","internalType":"bytes"}]},{"name":"signature","type":"bytes","internalType":"bytes"},{"name":"makingAmount","type":"uint256","internalType":"uint256"}]},{"name":"optData","type":"bytes","internalType":"bytes"}]}]},{"name":"leverageParams","type":"tuple","internalType":"struct LeverageParams","components":[{"name":"collateralToken","type":"address","internalType":"address"},{"name":"loanToken","type":"address","internalType":"address"},{"name":"amountCollateral","type":"uint256","internalType":"uint256"},{"name":"approxParams","type":"tuple","internalType":"struct ApproxParams","components":[{"name":"guessMin","type":"uint256","internalType":"uint256"},{"name":"guessMax","type":"uint256","internalType":"uint256"},{"name":"guessOffchain","type":"uint256","internalType":"uint256"},{"name":"maxIteration","type":"uint256","internalType":"uint256"},{"name":"eps","type":"uint256","internalType":"uint256"}]},{"name":"pendleSwap","type":"address","internalType":"address"},{"name":"tokenMintSy","type":"address","internalType":"address"},{"name":"swapData","type":"tuple","internalType":"struct SwapData","components":[{"name":"swapType","type":"uint8","internalType":"enum SwapType"},{"name":"extRouter","type":"address","internalType":"address"},{"name":"extCalldata","type":"bytes","internalType":"bytes"},{"name":"needScale","type":"bool","internalType":"bool"}]},{"name":"limitOrderData","type":"tuple","internalType":"struct LimitOrderData","components":[{"name":"limitRouter","type":"address","internalType":"address"},{"name":"epsSkipMarket","type":"uint256","internalType":"uint256"},{"name":"normalFills","type":"tuple[]","internalType":"struct FillOrderParams[]","components":[{"name":"order","type":"tuple","internalType":"struct Order","components":[{"name":"salt","type":"uint256","internalType":"uint256"},{"name":"expiry","type":"uint256","internalType":"uint256"},{"name":"nonce","type":"uint256","internalType":"uint256"},{"name":"orderType","type":"uint8","internalType":"enum IPLimitOrderType.OrderType"},{"name":"token","type":"address","internalType":"address"},{"name":"YT","type":"address","internalType":"address"},{"name":"maker","type":"address","internalType":"address"},{"name":"receiver","type":"address","internalType":"address"},{"name":"makingAmount","type":"uint256","internalType":"uint256"},{"name":"lnImpliedRate","type":"uint256","internalType":"uint256"},{"name":"failSafeRate","type":"uint256","internalType":"uint256"},{"name":"permit","type":"bytes","internalType":"bytes"}]},{"name":"signature","type":"bytes","internalType":"bytes"},{"name":"makingAmount","type":"uint256","internalType":"uint256"}]},{"name":"flashFills","type":"tuple[]","internalType":"struct FillOrderParams[]","components":[{"name":"order","type":"tuple","internalType":"struct Order","components":[{"name":"salt","type":"uint256","internalType":"uint256"},{"name":"expiry","type":"uint256","internalType":"uint256"},{"name":"nonce","type":"uint256","internalType":"uint256"},{"name":"orderType","type":"uint8","internalType":"enum IPLimitOrderType.OrderType"},{"name":"token","type":"address","internalType":"address"},{"name":"YT","type":"address","internalType":"address"},{"name":"maker","type":"address","internalType":"address"},{"name":"receiver","type":"address","internalType":"address"},{"name":"makingAmount","type":"uint256","internalType":"uint256"},{"name":"lnImpliedRate","type":"uint256","internalType":"uint256"},{"name":"failSafeRate","type":"uint256","internalType":"uint256"},{"name":"permit","type":"bytes","internalType":"bytes"}]},{"name":"signature","type":"bytes","internalType":"bytes"},{"name":"makingAmount","type":"uint256","internalType":"uint256"}]},{"name":"optData","type":"bytes","internalType":"bytes"}]}]}],"outputs":[],"stateMutability":"nonpayable"},{"type":"function","name":"transferOwnership","inputs":[{"name":"newOwner","type":"address","internalType":"address"}],"outputs":[],"stateMutability":"nonpayable"},{"type":"function","name":"unleverage","inputs":[{"name":"positionId","type":"uint256","internalType":"uint256"},{"name":"pendleSwap","type":"address","internalType":"address"},{"name":"tokenRedeemSy","type":"address","internalType":"address"},{"name":"swapData","type":"tuple","internalType":"struct SwapData","components":[{"name":"swapType","type":"uint8","internalType":"enum SwapType"},{"name":"extRouter","type":"address","internalType":"address"},{"name":"extCalldata","type":"bytes","internalType":"bytes"},{"name":"needScale","type":"bool","internalType":"bool"}]},{"name":"limitOrderData","type":"tuple","internalType":"struct LimitOrderData","components":[{"name":"limitRouter","type":"address","internalType":"address"},{"name":"epsSkipMarket","type":"uint256","internalType":"uint256"},{"name":"normalFills","type":"tuple[]","internalType":"struct FillOrderParams[]","components":[{"name":"order","type":"tuple","internalType":"struct Order","components":[{"name":"salt","type":"uint256","internalType":"uint256"},{"name":"expiry","type":"uint256","internalType":"uint256"},{"name":"nonce","type":"uint256","internalType":"uint256"},{"name":"orderType","type":"uint8","internalType":"enum IPLimitOrderType.OrderType"},{"name":"token","type":"address","internalType":"address"},{"name":"YT","type":"address","internalType":"address"},{"name":"maker","type":"address","internalType":"address"},{"name":"receiver","type":"address","internalType":"address"},{"name":"makingAmount","type":"uint256","internalType":"uint256"},{"name":"lnImpliedRate","type":"uint256","internalType":"uint256"},{"name":"failSafeRate","type":"uint256","internalType":"uint256"},{"name":"permit","type":"bytes","internalType":"bytes"}]},{"name":"signature","type":"bytes","internalType":"bytes"},{"name":"makingAmount","type":"uint256","internalType":"uint256"}]},{"name":"flashFills","type":"tuple[]","internalType":"struct FillOrderParams[]","components":[{"name":"order","type":"tuple","internalType":"struct Order","components":[{"name":"salt","type":"uint256","internalType":"uint256"},{"name":"expiry","type":"uint256","internalType":"uint256"},{"name":"nonce","type":"uint256","internalType":"uint256"},{"name":"orderType","type":"uint8","internalType":"enum IPLimitOrderType.OrderType"},{"name":"token","type":"address","internalType":"address"},{"name":"YT","type":"address","internalType":"address"},{"name":"maker","type":"address","internalType":"address"},{"name":"receiver","type":"address","internalType":"address"},{"name":"makingAmount","type":"uint256","internalType":"uint256"},{"name":"lnImpliedRate","type":"uint256","internalType":"uint256"},{"name":"failSafeRate","type":"uint256","internalType":"uint256"},{"name":"permit","type":"bytes","internalType":"bytes"}]},{"name":"signature","type":"bytes","internalType":"bytes"},{"name":"makingAmount","type":"uint256","internalType":"uint256"}]},{"name":"optData","type":"bytes","internalType":"bytes"}]}],"outputs":[],"stateMutability":"nonpayable"},{"type":"event","name":"LeveragePositionClosed","inputs":[{"name":"user","type":"address","indexed":true,"internalType":"address"},{"name":"positionId","type":"uint256","indexed":true,"internalType":"uint256"},{"name":"amountReturned","type":"uint256","indexed":true,"internalType":"uint256"}],"anonymous":false},{"type":"event","name":"LeveragePositionOpened","inputs":[{"name":"user","type":"address","indexed":true,"internalType":"address"},{"name":"positionId","type":"uint256","indexed":true,"internalType":"uint256"}],"anonymous":false},{"type":"event","name":"OwnershipTransferStarted","inputs":[{"name":"previousOwner","type":"address","indexed":true,"internalType":"address"},{"name":"newOwner","type":"address","indexed":true,"internalType":"address"}],"anonymous":false},{"type":"event","name":"OwnershipTransferred","inputs":[{"name":"previousOwner","type":"address","indexed":true,"internalType":"address"},{"name":"newOwner","type":"address","indexed":true,"internalType":"address"}],"anonymous":false},{"type":"error","name":"FlashLeverage__AmountCannotBeZero","inputs":[]},{"type":"error","name":"FlashLeverage__InvalidOnBehalfOfAddress","inputs":[]},{"type":"error","name":"FlashLeverage__PositionAlreadyUnleveraged","inputs":[]},{"type":"error","name":"FlashLeverage__PositionDoesNotExist","inputs":[]},{"type":"error","name":"FlashLeverage__UnsupportedCollateralToken","inputs":[]},{"type":"error","name":"OwnableInvalidOwner","inputs":[{"name":"owner","type":"address","internalType":"address"}]},{"type":"error","name":"OwnableUnauthorizedAccount","inputs":[{"name":"account","type":"address","internalType":"address"}]},{"type":"error","name":"SafeERC20FailedOperation","inputs":[{"name":"token","type":"address","internalType":"address"}]}],"bytecode":{"object":"0x60c06040523461007a5761001a61001461014e565b906101bf565b61002261007f565b6137506103fb823960805181818161073b015281816127c001526127fb015260a05181818161085501528181611444015281816118e901528181612f5d01528181612fd40152818161304401526130ba015261375090f35b610085565b60405190565b5f80fd5b601f801991011690565b634e487b7160e01b5f52604160045260245ffd5b906100b190610089565b810190811060018060401b038211176100c957604052565b610093565b906100e16100da61007f565b92836100a7565b565b5f80fd5b60018060a01b031690565b6100fb906100e7565b90565b610107816100f2565b0361010e57565b5f80fd5b9050519061011f826100fe565b565b9190604083820312610149578061013d610146925f8601610112565b93602001610112565b90565b6100e3565b61016c613b4b80380380610161816100ce565b928339810190610121565b9091565b90565b61018761018261018c926100e7565b610170565b6100e7565b90565b61019890610173565b90565b6101a49061018f565b90565b6101b090610173565b90565b6101bc906101a7565b90565b906101d56101dd926101d0336101e2565b61019b565b60a0526101b3565b608052565b6101eb9061023a565b565b90565b6102046101ff610209926101ed565b610170565b6100e7565b90565b610215906101f0565b90565b610221906100f2565b9052565b9190610238905f60208501940190610218565b565b8061025561024f61024a5f61020c565b6100f2565b916100f2565b14610265576102639061030f565b565b6102886102715f61020c565b5f918291631e4fbdf760e01b835260048301610225565b0390fd5b1b90565b919060086102b09102916102aa60018060a01b038461028c565b9261028c565b9181191691161790565b6102c390610173565b90565b6102cf906102ba565b90565b90565b91906102eb6102e66102f3936102c6565b6102d2565b908354610290565b9055565b5f90565b61030d916103076102f7565b916102d5565b565b6103239061031e5f60016102fb565b61039b565b565b5f1c90565b60018060a01b031690565b61034161034691610325565b61032a565b90565b6103539054610335565b90565b5f1b90565b9061036c60018060a01b0391610356565b9181191691161790565b9061038b610386610392926102c6565b6102d2565b825461035b565b9055565b5f0190565b6103a45f610349565b6103ae825f610376565b906103e26103dc7f8be0079c531659141344cd1fd0a4f28419497f9722a3daafe3b4186f6b6457e0936102c6565b916102c6565b916103eb61007f565b806103f581610396565b0390a356fe60806040526004361015610013575b6108da565b61001d5f356100ec565b80632f0a50c6146100e7578063544e5eca146100e2578063642afd92146100dd578063715018a6146100d8578063726fcb1b146100d357806379ba5097146100ce5780638da5cb5b146100c9578063cc6665a7146100c4578063d2856f26146100bf578063dd2a7a17146100ba578063e30c3978146100b5578063f2fde38b146100b05763f6a5c87c0361000e576108a5565b610820565b6107eb565b6107b6565b610705565b61068c565b6105c6565b610571565b61053d565b6104e5565b6104a0565b6103ab565b61021a565b60e01c90565b60405190565b5f80fd5b5f80fd5b5f80fd5b90565b61011081610104565b0361011757565b5f80fd5b9050359061012882610107565b565b60018060a01b031690565b61013e9061012a565b90565b61014a81610135565b0361015157565b5f80fd5b9050359061016282610141565b565b5f80fd5b908160809103126101765790565b610164565b908160a09103126101895790565b610164565b91909160a081840312610210576101a7835f830161011b565b926101b58160208401610155565b926101c38260408501610155565b92606081013567ffffffffffffffff811161020b57836101e4918301610168565b92608082013567ffffffffffffffff811161020657610203920161017b565b90565b610100565b610100565b6100fc565b5f0190565b3461024c5761023661022d36600461018e565b939290926113d4565b61023e6100f2565b8061024881610215565b0390f35b6100f8565b9060208282031261026a57610267915f01610155565b90565b6100fc565b5190565b60209181520190565b60200190565b151590565b61029090610282565b9052565b61029d90610135565b9052565b6102aa90610104565b9052565b9060c08061032a936102c65f8201515f860190610287565b6102d860208201516020860190610294565b6102ea60408201516040860190610294565b6102fc606082015160608601906102a1565b61030e608082015160808601906102a1565b61032060a082015160a08601906102a1565b01519101906102a1565b565b906103398160e0936102ae565b0190565b60200190565b9061036061035a6103538461026f565b8093610273565b9261027c565b905f5b8181106103705750505090565b909192610389610383600192865161032c565b9461033d565b9101919091610363565b6103a89160208201915f818403910152610343565b90565b346103db576103d76103c66103c1366004610251565b6117a3565b6103ce6100f2565b91829182610393565b0390f35b6100f8565b919060408382031261040857806103fc610405925f8601610155565b9360200161011b565b90565b6100fc565b9060c080610489936104255f8201515f860190610287565b61043760208201516020860190610294565b61044960408201516040860190610294565b61045b606082015160608601906102a1565b61046d608082015160808601906102a1565b61047f60a082015160a08601906102a1565b01519101906102a1565b565b919061049e905f60e0850194019061040d565b565b346104d1576104cd6104bc6104b63660046103e0565b9061183b565b6104c46100f2565b9182918261048b565b0390f35b6100f8565b5f9103126104e057565b6100fc565b3461050b576104f53660046104d6565b6104fd6100f2565b8061050781610215565b0390f35b6100f8565b9190604083820312610538578061052c610535925f8601610155565b93602001610155565b90565b6100fc565b3461056c57610556610550366004610510565b90611917565b61055e6100f2565b8061056881610215565b0390f35b6100f8565b3461059f576105813660046104d6565b610589611923565b6105916100f2565b8061059b81610215565b0390f35b6100f8565b6105ad90610135565b9052565b91906105c4905f602085019401906105a4565b565b346105f6576105d63660046104d6565b6105f26105e1611978565b6105e96100f2565b918291826105b1565b0390f35b6100f8565b908161018091031261060a5790565b610164565b908161018091031261061e5790565b610164565b916060838303126106875761063a825f8501610155565b92602081013567ffffffffffffffff8111610682578361065b9183016105fb565b92604082013567ffffffffffffffff811161067d5761067a920161060f565b90565b610100565b610100565b6100fc565b346106bb576106a561069f366004610623565b91611cb6565b6106ad6100f2565b806106b781610215565b0390f35b6100f8565b919091604081840312610700576106d9835f8301610155565b92602082013567ffffffffffffffff81116106fb576106f8920161060f565b90565b610100565b6100fc565b346107345761071e6107183660046106c0565b90611d96565b6107266100f2565b8061073081610215565b0390f35b6100f8565b7f000000000000000000000000000000000000000000000000000000000000000090565b90565b61077461076f6107799261012a565b61075d565b61012a565b90565b61078590610760565b90565b6107919061077c565b90565b61079d90610788565b9052565b91906107b4905f60208501940190610794565b565b346107e6576107c63660046104d6565b6107e26107d1610739565b6107d96100f2565b918291826107a1565b0390f35b6100f8565b3461081b576107fb3660046104d6565b610817610806611da2565b61080e6100f2565b918291826105b1565b0390f35b6100f8565b3461084e57610838610833366004610251565b611e2a565b6108406100f2565b8061084a81610215565b0390f35b6100f8565b7f000000000000000000000000000000000000000000000000000000000000000090565b6108809061077c565b90565b61088c90610877565b9052565b91906108a3905f60208501940190610883565b565b346108d5576108b53660046104d6565b6108d16108c0610853565b6108c86100f2565b91829182610890565b0390f35b6100f8565b5f80fd5b6108e79061077c565b90565b906108f4906108de565b5f5260205260405f2090565b5490565b1561090b57565b5f6333a9e83f60e01b81528061092360048201610215565b0390fd5b634e487b7160e01b5f52603260045260245ffd5b5f5260205f2090565b61094d81610900565b8210156109675761095f60069161093b565b910201905f90565b610927565b90565b5f1c90565b60ff1690565b61098661098b9161096f565b610974565b90565b610998905461097a565b90565b156109a257565b5f63891e6c9f60e01b8152806109ba60048201610215565b0390fd5b60081c90565b60018060a01b031690565b6109db6109e0916109be565b6109c4565b90565b6109ed90546109cf565b90565b6109fc610a019161096f565b6109c4565b90565b610a0e90546109f0565b90565b90565b610a20610a259161096f565b610a11565b90565b610a329054610a14565b90565b601f801991011690565b634e487b7160e01b5f52604160045260245ffd5b90610a5d90610a35565b810190811067ffffffffffffffff821117610a7757604052565b610a3f565b90610a8f610a886100f2565b9283610a53565b565b610a9c610100610a7c565b90565b90610aa990610135565b9052565b90610ab790610104565b9052565b5f80fd5b5f80fd5b600b1115610acd57565b5f80fd5b90503590610ade82610ac3565b565b5f80fd5b5f80fd5b67ffffffffffffffff8111610b0657610b02602091610a35565b0190565b610a3f565b90825f939282370152565b90929192610b2b610b2682610ae8565b610a7c565b93818552602085019082840111610b4757610b4592610b0b565b565b610ae4565b9080601f83011215610b6a57816020610b6793359101610b16565b90565b610ae0565b610b7881610282565b03610b7f57565b5f80fd5b90503590610b9082610b6f565b565b919091608081840312610c0957610ba96080610a7c565b92610bb6815f8401610ad1565b5f850152610bc78160208401610155565b602085015260408201359167ffffffffffffffff8311610c0457610bf082610bfd948301610b4c565b6040860152606001610b83565b6060830152565b610abf565b610abb565b610c19903690610b92565b90565b52565b67ffffffffffffffff8111610c375760208091020190565b610a3f565b5f80fd5b60041115610c4a57565b5f80fd5b90503590610c5b82610c40565b565b91909161018081840312610d6d57610c76610180610a7c565b92610c83815f840161011b565b5f850152610c94816020840161011b565b6020850152610ca6816040840161011b565b6040850152610cb88160608401610c4e565b6060850152610cca8160808401610155565b6080850152610cdc8160a08401610155565b60a0850152610cee8160c08401610155565b60c0850152610d008160e08401610155565b60e0850152610d1381610100840161011b565b610100850152610d2781610120840161011b565b610120850152610d3b81610140840161011b565b61014085015261016082013567ffffffffffffffff8111610d6857610d609201610b4c565b610160830152565b610abf565b610abb565b919091606081840312610def57610d896060610a7c565b925f82013567ffffffffffffffff8111610dea5781610da9918401610c5d565b5f85015260208201359167ffffffffffffffff8311610de557610dd182610dde948301610b4c565b602086015260400161011b565b6040830152565b610abf565b610abf565b610abb565b929190610e08610e0382610c1f565b610a7c565b9381855260208086019202810191838311610e5f5781905b838210610e2e575050505050565b813567ffffffffffffffff8111610e5a57602091610e4f8784938701610d72565b815201910190610e20565b610ae0565b610c3c565b9080601f83011215610e8257816020610e7f93359101610df4565b90565b610ae0565b91909160a081840312610f3f57610e9e60a0610a7c565b92610eab815f8401610155565b5f850152610ebc816020840161011b565b6020850152604082013567ffffffffffffffff8111610f3a5781610ee1918401610e64565b6040850152606082013567ffffffffffffffff8111610f355781610f06918401610e64565b6060850152608082013567ffffffffffffffff8111610f3057610f299201610b4c565b6080830152565b610abf565b610abf565b610abf565b610abb565b610f4f903690610e87565b90565b52565b5f80fd5b60e01b90565b5f910312610f6957565b6100fc565b634e487b7160e01b5f52602160045260245ffd5b600b1115610f8c57565b610f6e565b90610f9b82610f82565b565b610fa690610f91565b90565b610fb290610f9d565b9052565b5190565b60209181520190565b90825f9392825e0152565b610fed610ff6602093610ffb93610fe481610fb6565b93848093610fba565b95869101610fc3565b610a35565b0190565b9061104d906060806110426080840161101e5f8801515f870190610fa9565b61103060208801516020870190610294565b60408701518582036040870152610fce565b940151910190610287565b90565b5190565b60209181520190565b60200190565b6004111561106d57565b610f6e565b9061107c82611063565b565b61108790611072565b90565b6110939061107e565b9052565b61117f916101606101808201926110b45f8201515f8501906102a1565b6110c6602082015160208501906102a1565b6110d8604082015160408501906102a1565b6110ea6060820151606085019061108a565b6110fc60808201516080850190610294565b61110e60a082015160a0850190610294565b61112060c082015160c0850190610294565b61113260e082015160e0850190610294565b6111466101008201516101008501906102a1565b61115a6101208201516101208501906102a1565b61116e6101408201516101408501906102a1565b015190610160818403910152610fce565b90565b906111c1906040806111b66111a4606085015f8801518682035f880152611097565b60208701518582036020870152610fce565b9401519101906102a1565b90565b906111ce91611182565b90565b60200190565b906111eb6111e483611050565b8092611054565b90816111fc6020830284019461105d565b925f915b83831061120f57505050505090565b9091929394602061123161122b838560019503875289516111c4565b976111d1565b9301930191939290611200565b6112a591608061129461128260a0840161125e5f8701515f870190610294565b611270602087015160208701906102a1565b604086015185820360408701526111d7565b606085015184820360608601526111d7565b920151906080818403910152610fce565b90565b6113439160e061133261010083016112c65f8601515f860190610294565b6112d860208601516020860190610294565b6112ea604086015160408601906102a1565b6112fc606086015160608601906102a1565b61130e60808601516080860190610294565b61132060a086015160a0860190610294565b60c085015184820360c0860152610fff565b9201519060e081840391015261123e565b90565b61135b9160208201915f8184039101526112a8565b90565b6113666100f2565b3d5f823e3d90fd5b5f1b90565b9061137f60ff9161136e565b9181191691161790565b61139290610282565b90565b90565b906113ad6113a86113b492611389565b611395565b8254611373565b9055565b6113cc6113c76113d192610104565b61075d565b610104565b90565b9390923392856002856113e6916108ea565b6113ef90610900565b6113f890610104565b9061140290610104565b1061140c90610904565b600284611418916108ea565b8661142291610944565b5061142c9061096c565b94855f016114399061098e565b6114429061099b565b7f000000000000000000000000000000000000000000000000000000000000000061146c90610877565b9363b9c1b42393875f0161147f906109e3565b938860010161148d90610a04565b938960050161149b90610a28565b8a6004016114a890610a28565b91929394956114b5610a91565b975f8901906114c391610a9f565b60208801906114d191610a9f565b60408701906114df91610aad565b60608601906114ed91610aad565b60808501906114fb91610a9f565b60a084019061150991610a9f565b61151290610c0e565b60c083019061152091610c1c565b61152990610f44565b60e082019061153791610f52565b823b15611633576115679261155c5f80946115506100f2565b96879586948593610f59565b835260048301611346565b03925af1801561162e57611602575b506115835f5f8401611398565b6115ad6115a5600161159e611599828701610a04565b611e7e565b9401610a04565b828491611f4a565b916115ea6115e46115de7fcd2b4e62cfe22ecc5a38c25a2dce9e2dd3a29a3e10fa499505b5bfb6aec9b123956108de565b926113b8565b926113b8565b926115f36100f2565b806115fd81610215565b0390a4565b611621905f3d8111611627575b6116198183610a53565b810190610f5f565b5f611576565b503d61160f565b61135e565b610f55565b606090565b67ffffffffffffffff81116116555760208091020190565b610a3f565b9061166c6116678361163d565b610a7c565b918252565b9061167b90610282565b9052565b61168960e0610a7c565b90565b9061173a611731600561169d61167f565b946116b46116ac5f830161098e565b5f8801611671565b6116cb6116c25f83016109e3565b60208801610a9f565b6116e36116da60018301610a04565b60408801610a9f565b6116fb6116f260028301610a28565b60608801610aad565b61171361170a60038301610a28565b60808801610aad565b61172b61172260048301610a28565b60a08801610aad565b01610a28565b60c08401610aad565b565b6117459061168c565b90565b9061175282610900565b61175b8161165a565b92611769602085019161093b565b5f915b8383106117795750505050565b600660206001926117898561173c565b81520192019201919061176c565b6117a090611748565b90565b6117ba6117bf916117b2611638565b5060026108ea565b611797565b90565b5f90565b5f90565b5f90565b6117d661167f565b906020808080808080886117e86117c2565b8152016117f36117c6565b8152016117fe6117c6565b8152016118096117ca565b8152016118146117ca565b81520161181f6117ca565b81520161182a6117ca565b81525050565b6118386117ce565b90565b6118619161185661185b9261184e611830565b5060026108ea565b610944565b5061173c565b90565b9061187691611871611f7e565b6118cc565b565b90611882906108de565b5f5260205260405f2090565b9061189f60018060a01b039161136e565b9181191691161790565b90565b906118c16118bc6118c8926108de565b6118a9565b825461188e565b9055565b6118e4611915926118df60038490611878565b6118ac565b61190d7f0000000000000000000000000000000000000000000000000000000000000000610877565b5f19916120bf565b565b9061192191611864565b565b61192b61216e565b611933611da2565b61194561193f83610135565b91610135565b0361195557611953906121df565b565b611970905f91829163118cdaa760e01b8352600483016105b1565b0390fd5b5f90565b611980611974565b5061198a5f610a04565b90565b90565b6119a461199f6119a99261198d565b61075d565b61012a565b90565b6119b590611990565b90565b156119bf57565b5f6302ac650b60e21b8152806119d760048201610215565b0390fd5b90611a0b9291611a06816119ff6119f96119f45f6119ac565b610135565b91610135565b14156119b8565b611a59565b565b35611a1781610107565b90565b611a2e611a29611a339261198d565b61075d565b610104565b90565b15611a3d57565b5f63b02cb97d60e01b815280611a5560048201610215565b0390fd5b90611a8b9291611a86611a6e60208401611a0d565b611a80611a7a5f611a1a565b91610104565b11611a36565b611a8d565b565b90611abf9291611aba611aa260408501611a0d565b611ab4611aae5f611a1a565b91610104565b11611a36565b611b8d565b565b35611acb81610141565b90565b15611ad557565b5f630f97113760e01b815280611aed60048201610215565b0390fd5b611afa90610760565b90565b611b0690611af1565b90565b611b129061077c565b90565b611b1e9061077c565b90565b90505190611b2e82610b6f565b565b90602082820312611b4957611b46915f01611b21565b90565b6100fc565b611b5790610104565b9052565b604090611b84611b8b9496959396611b7a60608401985f8501906105a4565b60208301906105a4565b0190611b4e565b565b919091611b9b5f8301611ac1565b611bd3611bb2611bad60038490611878565b610a04565b611bcc611bc6611bc15f6119ac565b610135565b91610135565b1415611ace565b611bee611be9611be45f8701611ac1565b611afd565b611b09565b9360206323b872dd953390611c295f611c0630611b15565b99611c34611c15878901611a0d565b611c1d6100f2565b9c8d9788968795610f59565b855260048501611b5b565b03925af1948515611cb157611c7395611c85575b50611c545f8201611ac1565b611c66611c6084610135565b91610135565b03611c75575b5050612f32565b565b611c7e916127aa565b5f80611c6c565b611ca59060203d8111611caa575b611c9d8183610a53565b810190611b30565b611c48565b503d611c93565b61135e565b90611cc192916119db565b565b90611cf291611ced81611ce6611ce0611cdb5f6119ac565b610135565b91610135565b14156119b8565b611cf4565b565b90611d2591611d20611d0860408401611a0d565b611d1a611d145f611a1a565b91610104565b11611a36565b611d27565b565b90611d9491611d6e611d4d611d486003611d425f8701611ac1565b90611878565b610a04565b611d67611d61611d5c5f6119ac565b610135565b91610135565b1415611ace565b611d8f611d7c5f8401611ac1565b33611d8960408601611a0d565b91613333565b612f32565b565b90611da091611cc3565b565b611daa611974565b50611db56001610a04565b90565b611dc990611dc4611f7e565b611dcb565b565b611dd68160016118ac565b611dde611978565b90611e12611e0c7f38d16b8cac22d99fc7c124b9cd0de2d3fa1faef420bfe791d8c362d765e22700936108de565b916108de565b91611e1b6100f2565b80611e2581610215565b0390a3565b611e3390611db8565b565b5f90565b611e425f6119ac565b90565b611e4e9061077c565b90565b90505190611e5e82610107565b565b90602082820312611e7957611e76915f01611e51565b90565b6100fc565b611e86611e35565b5080611ea1611e9b611e96611e39565b610135565b91610135565b145f14611eb75750611eb230611e45565b315b90565b6020611ecd611ec8611eff93611afd565b611b09565b6370a0823190611ef4611edf30611e45565b92611ee86100f2565b95869485938493610f59565b8352600483016105b1565b03915afa908115611f45575f91611f17575b50611eb4565b611f38915060203d8111611f3e575b611f308183610a53565b810190611e60565b5f611f11565b503d611f26565b61135e565b9180611f5e611f585f611a1a565b91610104565b14611f7957611f6f611f7793611afd565b9190916133a1565b565b505050565b611f86611978565b611f9f611f99611f9461216e565b610135565b91610135565b03611fa657565b611fc8611fb161216e565b5f91829163118cdaa760e01b8352600483016105b1565b0390fd5b916020611fed929493611fe660408201965f8301906105a4565b0190611b4e565b565b90612001611ffc83610ae8565b610a7c565b918252565b606090565b3d5f146120265761201b3d611fef565b903d5f602084013e5b565b61202e612006565b90612024565b60209181520190565b5f7f5361666520417070726f76650000000000000000000000000000000000000000910152565b612071600c602092612034565b61207a8161203d565b0190565b6120939060208101905f818303910152612064565b90565b1561209d57565b6120a56100f2565b62461bcd60e51b8152806120bb6004820161207e565b0390fd5b61211e9260046121005f946120f186959463095ea7b360e01b926120e16100f2565b9586946020860190815201611fcc565b60208201810382520382610a53565b82602082019151925af161211261200b565b81612120575b50612096565b565b905061212b81610fb6565b61213d6121375f611a1a565b91610104565b1490811561214d575b505f612118565b6121689150602061215d82610fb6565b818301019101611b30565b5f612146565b612176611974565b503390565b1b90565b9190600861219f91029161219960018060a01b038461217b565b9261217b565b9181191691161790565b91906121bf6121ba6121c7936108de565b6118a9565b90835461217f565b9055565b6121dd916121d7611974565b916121a9565b565b6121f3906121ee5f60016121cb565b6133ef565b565b5f80fd5b903590600160800381360303821215612210570190565b6121f5565b61221f60a0610a7c565b90565b903590600160a00381360303821215612239570190565b6121f5565b909160608284031261227357612270612259845f8501611e51565b936122678160208601611e51565b93604001611e51565b90565b6100fc565b5061228790602081019061011b565b90565b90608061230361230b936122ac6122a35f830183612278565b5f8601906102a1565b6122c66122bc6020830183612278565b60208601906102a1565b6122e06122d66040830183612278565b60408601906102a1565b6122fa6122f06060830183612278565b60608601906102a1565b82810190612278565b9101906102a1565b565b61236e91608060a08201926123285f8201515f850190610294565b61233a602082015160208501906102a1565b61234c60408201516040850190610294565b61235e60608201516060850190610294565b0151906080818403910152610fff565b90565b50612380906020810190610155565b90565b5f80fd5b5f80fd5b5f80fd5b90356001602003823603038112156123d057016020813591019167ffffffffffffffff82116123cb5760208202360383136123c657565b612387565b612383565b61238b565b90565b9035600161018003823603038112156123ef570190565b61238b565b50612403906020810190610c4e565b90565b903560016020038236030381121561244757016020813591019167ffffffffffffffff821161244257600182023603831361243d57565b612387565b612383565b61238b565b91906124668161245f8161246b95610fba565b8095610b0b565b610a35565b0190565b6125b8916125a961018082019261249461248b5f830183612278565b5f8501906102a1565b6124ae6124a46020830183612278565b60208501906102a1565b6124c86124be6040830183612278565b60408501906102a1565b6124e26124d860608301836123f4565b606085019061108a565b6124fc6124f26080830183612371565b6080850190610294565b61251661250c60a0830183612371565b60a0850190610294565b61253061252660c0830183612371565b60c0850190610294565b61254a61254060e0830183612371565b60e0850190610294565b61256661255b610100830183612278565b6101008501906102a1565b612582612577610120830183612278565b6101208501906102a1565b61259e612593610140830183612278565b6101408501906102a1565b610160810190612406565b9161016081850391015261244c565b90565b9061261490604061260c6126026125e7606085016125db5f8901896123d8565b8682035f88015261246f565b6125f46020880188612406565b90868303602088015261244c565b9482810190612278565b9101906102a1565b90565b90612621916125bb565b90565b903560016060038236030381121561263a570190565b61238b565b60200190565b918161265091611054565b9081612661602083028401946123d5565b92835f925b8484106126765750505050505090565b90919293949560206126a161269b83856001950388526126968b88612624565b612617565b9861263f565b940194019294939190612666565b6127419161273361272861270d60a084016126d86126cf5f880188612371565b5f870190610294565b6126f26126e86020880188612278565b60208701906102a1565b6126ff604087018761238f565b908683036040880152612645565b61271a606086018661238f565b908583036060870152612645565b926080810190612406565b91608081850391015261244c565b90565b9490916127a796946127806127989561277661278a9461276c6101408c01985f8d01906105a4565b60208b01906105a4565b6040890190611b4e565b606087019061228a565b84820361010086015261230d565b916101208184039101526126af565b90565b6060906127f66127bb5f8501611ac1565b6127e47f0000000000000000000000000000000000000000000000000000000000000000610788565b6127f060208701611a0d565b9161344e565b61281f7f0000000000000000000000000000000000000000000000000000000000000000610788565b61290a5f63c81f847a61291561284761284261283a30611b15565b976003611878565b610a04565b978361285560408301611a0d565b916128f58a8201916128ea6128e161286e868401611ac1565b6128dc61287d60208601611a0d565b6128d361288d6101208801611ac1565b6128ca61289d6101008a01611ac1565b936128c16128b08b6101408101906121f9565b976128b9612215565b9e8f01610a9f565b60208d01610aad565b60408b01610a9f565b60608901610a9f565b610c0e565b60808601610c1c565b610160810190612222565b926128fe6100f2565b9b8c9a8b998a98610f59565b885260048801612744565b03925af1801561295557612927575b50565b6129479060603d811161294e575b61293f8183610a53565b81019061223e565b5050612924565b503d612935565b61135e565b91906040838203126129945761298d906129746040610a7c565b93612981825f8301611e51565b5f860152602001611e51565b6020830152565b610abb565b906040828203126129b2576129af915f0161295a565b90565b6100fc565b6040906129e06129e794969593966129d660608401985f8501906105a4565b60208301906105a4565b01906105a4565b565b5090565b906080612a66612a6e93612a0f612a065f830183612278565b5f8601906102a1565b612a29612a1f6020830183612278565b60208601906102a1565b612a43612a396040830183612278565b60408601906102a1565b612a5d612a536060830183612278565b60608601906102a1565b82810190612278565b9101906102a1565b565b9035600160800382360303811215612a86570190565b61238b565b50612a9a906020810190610ad1565b90565b50612aac906020810190610b83565b90565b90612b1f906060612b17612b0d60808401612ad8612acf5f890189612a8b565b5f870190610fa9565b612af2612ae86020890189612371565b6020870190610294565b612aff6040880188612406565b90868303604088015261244c565b9482810190612a9d565b910190610287565b90565b9035600160a00382360303811215612b38570190565b61238b565b612bcf91612bc1612bb6612b9b60a08401612b66612b5d5f880188612371565b5f870190610294565b612b80612b766020880188612278565b60208701906102a1565b612b8d604087018761238f565b908683036040880152612645565b612ba8606086018661238f565b908583036060870152612645565b926080810190612406565b91608081850391015261244c565b90565b612cb691612ca7612c9b6101808301612bf9612bf05f870187612371565b5f860190610294565b612c13612c096020870187612371565b6020860190610294565b612c2d612c236040870187612278565b60408601906102a1565b612c47612c3d60608701876129e9565b60608601906129ed565b612c63612c58610100870187612371565b610100860190610294565b612c7f612c74610120870187612371565b610120860190610294565b612c8d610140860186612a70565b848203610140860152612aaf565b92610160810190612b22565b90610160818403910152612b3d565b90565b612cce9160208201915f818403910152612bd2565b90565b90565b612ce8612ce3612ced92612cd1565b61075d565b610104565b90565b612d01670de0b6b3a7640000612cd4565b90565b90565b612d119051610104565b90565b634e487b7160e01b5f52601160045260245ffd5b612d37612d3d91939293610104565b92610104565b8203918211612d4857565b612d14565b612d5760e0610a7c565b90565b5f5260205f2090565b5490565b612d7081612d63565b821015612d8a57612d82600691612d5a565b910201905f90565b610927565b634e487b7160e01b5f525f60045260245ffd5b612dac9051610282565b90565b612db99051610135565b90565b60081b90565b90612dd5610100600160a81b0391612dbc565b9181191691161790565b90612df4612def612dfb926108de565b6118a9565b8254612dc2565b9055565b90612e0b5f199161136e565b9181191691161790565b90565b90612e2d612e28612e34926113b8565b612e15565b8254612dff565b9055565b90612edf60c06005612ee594612e5b5f8201612e555f8801612da2565b90611398565b612e735f8201612e6d60208801612daf565b90612ddf565b612e8c60018201612e8660408801612daf565b906118ac565b612ea560028201612e9f60608801612d07565b90612e18565b612ebe60038201612eb860808801612d07565b90612e18565b612ed760048201612ed160a08801612d07565b90612e18565b019201612d07565b90612e18565b565b9190612ef857612ef691612e38565b565b612d8f565b9081549168010000000000000000831015612f2d5782612f25916001612f2b95018155612d67565b90612ee7565b565b610a3f565b612f3d5f8301611ac1565b91612f4a60208201611ac1565b92612f5760408301611a0d565b93612f817f0000000000000000000000000000000000000000000000000000000000000000610877565b604063dc72f25591612f9230611b15565b90612fb08694612fbb87612fa46100f2565b97889687958695610f59565b8552600485016129b7565b03915afa90811561332e575f91613300575b5092612ff87f0000000000000000000000000000000000000000000000000000000000000000610877565b9063a12e89d090823b156132fb5761302f926130245f80946130186100f2565b96879586948593610f59565b835260048301612cb9565b03925af180156132f6576132ca575b506130687f0000000000000000000000000000000000000000000000000000000000000000610877565b604063dc72f2559161307930611b15565b9061309786946130a28761308b6100f2565b97889687958695610f59565b8552600485016129b7565b03915afa9081156132c5575f91613297575b506130de7f0000000000000000000000000000000000000000000000000000000000000000610877565b6020633ba7a31491859061310c86946131176130f8612cf0565b6131006100f2565b97889687958695610f59565b855260048501611b5b565b03915afa908115613292575f91613264575b5093600286613137916108ea565b61314090610900565b9660028761314d916108ea565b61315690612d04565b9560019594909192845f0161316a90612d07565b815f0161317690612d07565b61317f91612d28565b9460200161318c90612d07565b9060200161319990612d07565b6131a291612d28565b946131ab612d4d565b965f8801906131b991611671565b60208701906131c791610a9f565b60408601906131d591610a9f565b60608501906131e391610aad565b60808401906131f191610aad565b60a08301906131ff91610aad565b60c082019061320d91610aad565b61321691612efd565b907f156f6d0646dd158e7f2defae7688ad0969dd6582e7b5fb776a1692db7cea287391613242906108de565b9061324c906113b8565b916132556100f2565b8061325f81610215565b0390a3565b613285915060203d811161328b575b61327d8183610a53565b810190611e60565b5f613129565b503d613273565b61135e565b6132b8915060403d81116132be575b6132b08183610a53565b810190612999565b5f6130b4565b503d6132a6565b61135e565b6132e9905f3d81116132ef575b6132e18183610a53565b810190610f5f565b5f61303e565b503d6132d7565b61135e565b610f55565b613321915060403d8111613327575b6133198183610a53565b810190612999565b5f612fcd565b503d61330f565b61135e565b91806133476133415f611a1a565b91610104565b1461336b5761335861336993611afd565b9161336230611e45565b9192613465565b565b505050565b63ffffffff1690565b63ffffffff60e01b1690565b61339961339461339e92613370565b610f59565b613379565b90565b906133e86133ed936133d9600494936133c063a9059cbb919391613385565b926133c96100f2565b9687946020860190815201611fcc565b60208201810382520383610a53565b6134d4565b565b6133f85f610a04565b613402825f6118ac565b906134366134307f8be0079c531659141344cd1fd0a4f28419497f9722a3daafe3b4186f6b6457e0936108de565b916108de565b9161343f6100f2565b8061344981610215565b0390a3565b9161345b61346393611afd565b9190916135b8565b565b60049261349f6134b395936134ae93946134866323b872dd92949192613385565b9361348f6100f2565b9788956020870190815201611b5b565b60208201810382520383610a53565b6134d4565b565b90565b6134cc6134c76134d1926134b5565b61075d565b610104565b90565b905f6020916134e1611e35565b506134ea611e35565b50828151910182855af11561357d573d5f519061350f6135095f611a1a565b91610104565b145f14613563575061352081611b09565b3b61353361352d5f611a1a565b91610104565b145b61353c5750565b61354861355f91611b09565b5f918291635274afe760e01b8352600483016105b1565b0390fd5b61357661357060016134b8565b91610104565b1415613535565b6040513d5f823e3d90fd5b61359190611a1a565b9052565b9160206135b69294936135af60408201965f8301906105a4565b0190613588565b565b90916135fb6004916135ec63095ea7b36135d3879391613385565b926135dc6100f2565b9586946020860190815201611fcc565b60208201810382520382610a53565b9061361061360a828490613678565b15610282565b61361a575b505050565b613667600461366c94613662849161365363095ea7b361363a5f91613385565b926136436100f2565b9687946020860190815201613595565b60208201810382520383610a53565b6134d4565b6134d4565b5f8080613615565b5f90565b905f602091613685613674565b5061368e613674565b50613697611e35565b506136a0611e35565b50828151910182855af13d915f519192836136bc575b50505090565b909192506136d26136cc5f611a1a565b91610104565b145f14613700576136e39150611b09565b3b6136f66136f05f611a1a565b91610104565b115b5f80806136b6565b5061371461370e60016134b8565b91610104565b146136f856fea2646970667358221220e1b9139ce7d63cf65b8fe36fec1f809145ae62d6ff81a1817acfc0b57a16606c64736f6c634300081e0033","linkReferences":{}},"methodIdentifiers":{"acceptOwnership()":"79ba5097","addSupportedCollateralToken(address,address)":"726fcb1b","getUserLeveragePosition(address,uint256)":"642afd92","getUserLeveragePositions(address)":"544e5eca","i_flashLeverageCore()":"f6a5c87c","i_pendleRouter()":"dd2a7a17","leverage(address,(address,address,uint256,(uint256,uint256,uint256,uint256,uint256),address,address,(uint8,address,bytes,bool),(address,uint256,((uint256,uint256,uint256,uint8,address,address,address,address,uint256,uint256,uint256,bytes),bytes,uint256)[],((uint256,uint256,uint256,uint8,address,address,address,address,uint256,uint256,uint256,bytes),bytes,uint256)[],bytes)))":"d2856f26","owner()":"8da5cb5b","pendingOwner()":"e30c3978","renounceOwnership()":"715018a6","swapAndLeverage(address,(address,uint256,uint256,(uint256,uint256,uint256,uint256,uint256),address,address,(uint8,address,bytes,bool),(address,uint256,((uint256,uint256,uint256,uint8,address,address,address,address,uint256,uint256,uint256,bytes),bytes,uint256)[],((uint256,uint256,uint256,uint8,address,address,address,address,uint256,uint256,uint256,bytes),bytes,uint256)[],bytes)),(address,address,uint256,(uint256,uint256,uint256,uint256,uint256),address,address,(uint8,address,bytes,bool),(address,uint256,((uint256,uint256,uint256,uint8,address,address,address,address,uint256,uint256,uint256,bytes),bytes,uint256)[],((uint256,uint256,uint256,uint8,address,address,address,address,uint256,uint256,uint256,bytes),bytes,uint256)[],bytes)))":"cc6665a7","transferOwnership(address)":"f2fde38b","unleverage(uint256,address,address,(uint8,address,bytes,bool),(address,uint256,((uint256,uint256,uint256,uint8,address,address,address,address,uint256,uint256,uint256,bytes),bytes,uint256)[],((uint256,uint256,uint256,uint8,address,address,address,address,uint256,uint256,uint256,bytes),bytes,uint256)[],bytes))":"2f0a50c6"},"id":97}