{"abi":[{"type":"constructor","inputs":[{"name":"flashLeverageCore","type":"address","internalType":"address"},{"name":"pendleRouter","type":"address","internalType":"address"},{"name":"treasury","type":"address","internalType":"address"}],"stateMutability":"nonpayable"},{"type":"function","name":"acceptOwnership","inputs":[],"outputs":[],"stateMutability":"nonpayable"},{"type":"function","name":"addSupportedCollateralTokens","inputs":[{"name":"tokenConfigs","type":"tuple[]","internalType":"struct CollateralTokenConfig[]","components":[{"name":"collateralToken","type":"address","internalType":"address"},{"name":"morphoMarketId","type":"bytes32","internalType":"bytes32"},{"name":"pendleMarket","type":"address","internalType":"address"}]}],"outputs":[],"stateMutability":"nonpayable"},{"type":"function","name":"getTreasury","inputs":[],"outputs":[{"name":"","type":"address","internalType":"address"}],"stateMutability":"view"},{"type":"function","name":"getUserLeveragePosition","inputs":[{"name":"user","type":"address","internalType":"address"},{"name":"positionId","type":"uint256","internalType":"uint256"}],"outputs":[{"name":"","type":"tuple","internalType":"struct LeveragePosition","components":[{"name":"open","type":"bool","internalType":"bool"},{"name":"desiredLtv","type":"uint256","internalType":"uint256"},{"name":"collateralToken","type":"address","internalType":"address"},{"name":"loanToken","type":"address","internalType":"address"},{"name":"amountCollateral","type":"uint256","internalType":"uint256"},{"name":"amountCollateralInLoanToken","type":"uint256","internalType":"uint256"},{"name":"amountLeveragedCollateral","type":"uint256","internalType":"uint256"},{"name":"sharesBorrowed","type":"uint256","internalType":"uint256"}]}],"stateMutability":"view"},{"type":"function","name":"getUserLeveragePositions","inputs":[{"name":"user","type":"address","internalType":"address"}],"outputs":[{"name":"","type":"tuple[]","internalType":"struct LeveragePosition[]","components":[{"name":"open","type":"bool","internalType":"bool"},{"name":"desiredLtv","type":"uint256","internalType":"uint256"},{"name":"collateralToken","type":"address","internalType":"address"},{"name":"loanToken","type":"address","internalType":"address"},{"name":"amountCollateral","type":"uint256","internalType":"uint256"},{"name":"amountCollateralInLoanToken","type":"uint256","internalType":"uint256"},{"name":"amountLeveragedCollateral","type":"uint256","internalType":"uint256"},{"name":"sharesBorrowed","type":"uint256","internalType":"uint256"}]}],"stateMutability":"view"},{"type":"function","name":"getYieldFee","inputs":[],"outputs":[{"name":"","type":"uint256","internalType":"uint256"}],"stateMutability":"view"},{"type":"function","name":"i_flashLeverageCore","inputs":[],"outputs":[{"name":"","type":"address","internalType":"contract IFlashLeverageCore"}],"stateMutability":"view"},{"type":"function","name":"i_pendleRouter","inputs":[],"outputs":[{"name":"","type":"address","internalType":"contract IPAllActionV3"}],"stateMutability":"view"},{"type":"function","name":"isSupportedCollateralToken","inputs":[{"name":"collateralToken","type":"address","internalType":"address"}],"outputs":[{"name":"","type":"bool","internalType":"bool"}],"stateMutability":"view"},{"type":"function","name":"leverage","inputs":[{"name":"onBehalfOf","type":"address","internalType":"address"},{"name":"leverageParams","type":"tuple","internalType":"struct LeverageParams","components":[{"name":"desiredLtv","type":"uint256","internalType":"uint256"},{"name":"collateralToken","type":"address","internalType":"address"},{"name":"loanToken","type":"address","internalType":"address"},{"name":"amountCollateral","type":"uint256","internalType":"uint256"},{"name":"approxParams","type":"tuple","internalType":"struct ApproxParams","components":[{"name":"guessMin","type":"uint256","internalType":"uint256"},{"name":"guessMax","type":"uint256","internalType":"uint256"},{"name":"guessOffchain","type":"uint256","internalType":"uint256"},{"name":"maxIteration","type":"uint256","internalType":"uint256"},{"name":"eps","type":"uint256","internalType":"uint256"}]},{"name":"pendleSwap","type":"address","internalType":"address"},{"name":"tokenMintSy","type":"address","internalType":"address"},{"name":"minPtOut","type":"uint256","internalType":"uint256"},{"name":"swapData","type":"tuple","internalType":"struct SwapData","components":[{"name":"swapType","type":"uint8","internalType":"enum SwapType"},{"name":"extRouter","type":"address","internalType":"address"},{"name":"extCalldata","type":"bytes","internalType":"bytes"},{"name":"needScale","type":"bool","internalType":"bool"}]},{"name":"limitOrderData","type":"tuple","internalType":"struct LimitOrderData","components":[{"name":"limitRouter","type":"address","internalType":"address"},{"name":"epsSkipMarket","type":"uint256","internalType":"uint256"},{"name":"normalFills","type":"tuple[]","internalType":"struct FillOrderParams[]","components":[{"name":"order","type":"tuple","internalType":"struct Order","components":[{"name":"salt","type":"uint256","internalType":"uint256"},{"name":"expiry","type":"uint256","internalType":"uint256"},{"name":"nonce","type":"uint256","internalType":"uint256"},{"name":"orderType","type":"uint8","internalType":"enum IPLimitOrderType.OrderType"},{"name":"token","type":"address","internalType":"address"},{"name":"YT","type":"address","internalType":"address"},{"name":"maker","type":"address","internalType":"address"},{"name":"receiver","type":"address","internalType":"address"},{"name":"makingAmount","type":"uint256","internalType":"uint256"},{"name":"lnImpliedRate","type":"uint256","internalType":"uint256"},{"name":"failSafeRate","type":"uint256","internalType":"uint256"},{"name":"permit","type":"bytes","internalType":"bytes"}]},{"name":"signature","type":"bytes","internalType":"bytes"},{"name":"makingAmount","type":"uint256","internalType":"uint256"}]},{"name":"flashFills","type":"tuple[]","internalType":"struct FillOrderParams[]","components":[{"name":"order","type":"tuple","internalType":"struct Order","components":[{"name":"salt","type":"uint256","internalType":"uint256"},{"name":"expiry","type":"uint256","internalType":"uint256"},{"name":"nonce","type":"uint256","internalType":"uint256"},{"name":"orderType","type":"uint8","internalType":"enum IPLimitOrderType.OrderType"},{"name":"token","type":"address","internalType":"address"},{"name":"YT","type":"address","internalType":"address"},{"name":"maker","type":"address","internalType":"address"},{"name":"receiver","type":"address","internalType":"address"},{"name":"makingAmount","type":"uint256","internalType":"uint256"},{"name":"lnImpliedRate","type":"uint256","internalType":"uint256"},{"name":"failSafeRate","type":"uint256","internalType":"uint256"},{"name":"permit","type":"bytes","internalType":"bytes"}]},{"name":"signature","type":"bytes","internalType":"bytes"},{"name":"makingAmount","type":"uint256","internalType":"uint256"}]},{"name":"optData","type":"bytes","internalType":"bytes"}]}]}],"outputs":[],"stateMutability":"nonpayable"},{"type":"function","name":"owner","inputs":[],"outputs":[{"name":"","type":"address","internalType":"address"}],"stateMutability":"view"},{"type":"function","name":"pendingOwner","inputs":[],"outputs":[{"name":"","type":"address","internalType":"address"}],"stateMutability":"view"},{"type":"function","name":"recover","inputs":[{"name":"token","type":"address","internalType":"address"}],"outputs":[],"stateMutability":"nonpayable"},{"type":"function","name":"renounceOwnership","inputs":[],"outputs":[],"stateMutability":"nonpayable"},{"type":"function","name":"swapAndLeverage","inputs":[{"name":"onBehalfOf","type":"address","internalType":"address"},{"name":"swapParams","type":"tuple","internalType":"struct SwapParams","components":[{"name":"tokenIn","type":"address","internalType":"address"},{"name":"amountTokenIn","type":"uint256","internalType":"uint256"},{"name":"minPtOut","type":"uint256","internalType":"uint256"},{"name":"approxParams","type":"tuple","internalType":"struct ApproxParams","components":[{"name":"guessMin","type":"uint256","internalType":"uint256"},{"name":"guessMax","type":"uint256","internalType":"uint256"},{"name":"guessOffchain","type":"uint256","internalType":"uint256"},{"name":"maxIteration","type":"uint256","internalType":"uint256"},{"name":"eps","type":"uint256","internalType":"uint256"}]},{"name":"pendleSwap","type":"address","internalType":"address"},{"name":"tokenMintSy","type":"address","internalType":"address"},{"name":"swapData","type":"tuple","internalType":"struct SwapData","components":[{"name":"swapType","type":"uint8","internalType":"enum SwapType"},{"name":"extRouter","type":"address","internalType":"address"},{"name":"extCalldata","type":"bytes","internalType":"bytes"},{"name":"needScale","type":"bool","internalType":"bool"}]},{"name":"limitOrderData","type":"tuple","internalType":"struct LimitOrderData","components":[{"name":"limitRouter","type":"address","internalType":"address"},{"name":"epsSkipMarket","type":"uint256","internalType":"uint256"},{"name":"normalFills","type":"tuple[]","internalType":"struct FillOrderParams[]","components":[{"name":"order","type":"tuple","internalType":"struct Order","components":[{"name":"salt","type":"uint256","internalType":"uint256"},{"name":"expiry","type":"uint256","internalType":"uint256"},{"name":"nonce","type":"uint256","internalType":"uint256"},{"name":"orderType","type":"uint8","internalType":"enum IPLimitOrderType.OrderType"},{"name":"token","type":"address","internalType":"address"},{"name":"YT","type":"address","internalType":"address"},{"name":"maker","type":"address","internalType":"address"},{"name":"receiver","type":"address","internalType":"address"},{"name":"makingAmount","type":"uint256","internalType":"uint256"},{"name":"lnImpliedRate","type":"uint256","internalType":"uint256"},{"name":"failSafeRate","type":"uint256","internalType":"uint256"},{"name":"permit","type":"bytes","internalType":"bytes"}]},{"name":"signature","type":"bytes","internalType":"bytes"},{"name":"makingAmount","type":"uint256","internalType":"uint256"}]},{"name":"flashFills","type":"tuple[]","internalType":"struct FillOrderParams[]","components":[{"name":"order","type":"tuple","internalType":"struct Order","components":[{"name":"salt","type":"uint256","internalType":"uint256"},{"name":"expiry","type":"uint256","internalType":"uint256"},{"name":"nonce","type":"uint256","internalType":"uint256"},{"name":"orderType","type":"uint8","internalType":"enum IPLimitOrderType.OrderType"},{"name":"token","type":"address","internalType":"address"},{"name":"YT","type":"address","internalType":"address"},{"name":"maker","type":"address","internalType":"address"},{"name":"receiver","type":"address","internalType":"address"},{"name":"makingAmount","type":"uint256","internalType":"uint256"},{"name":"lnImpliedRate","type":"uint256","internalType":"uint256"},{"name":"failSafeRate","type":"uint256","internalType":"uint256"},{"name":"permit","type":"bytes","internalType":"bytes"}]},{"name":"signature","type":"bytes","internalType":"bytes"},{"name":"makingAmount","type":"uint256","internalType":"uint256"}]},{"name":"optData","type":"bytes","internalType":"bytes"}]}]},{"name":"leverageParams","type":"tuple","internalType":"struct LeverageParams","components":[{"name":"desiredLtv","type":"uint256","internalType":"uint256"},{"name":"collateralToken","type":"address","internalType":"address"},{"name":"loanToken","type":"address","internalType":"address"},{"name":"amountCollateral","type":"uint256","internalType":"uint256"},{"name":"approxParams","type":"tuple","internalType":"struct ApproxParams","components":[{"name":"guessMin","type":"uint256","internalType":"uint256"},{"name":"guessMax","type":"uint256","internalType":"uint256"},{"name":"guessOffchain","type":"uint256","internalType":"uint256"},{"name":"maxIteration","type":"uint256","internalType":"uint256"},{"name":"eps","type":"uint256","internalType":"uint256"}]},{"name":"pendleSwap","type":"address","internalType":"address"},{"name":"tokenMintSy","type":"address","internalType":"address"},{"name":"minPtOut","type":"uint256","internalType":"uint256"},{"name":"swapData","type":"tuple","internalType":"struct SwapData","components":[{"name":"swapType","type":"uint8","internalType":"enum SwapType"},{"name":"extRouter","type":"address","internalType":"address"},{"name":"extCalldata","type":"bytes","internalType":"bytes"},{"name":"needScale","type":"bool","internalType":"bool"}]},{"name":"limitOrderData","type":"tuple","internalType":"struct LimitOrderData","components":[{"name":"limitRouter","type":"address","internalType":"address"},{"name":"epsSkipMarket","type":"uint256","internalType":"uint256"},{"name":"normalFills","type":"tuple[]","internalType":"struct FillOrderParams[]","components":[{"name":"order","type":"tuple","internalType":"struct Order","components":[{"name":"salt","type":"uint256","internalType":"uint256"},{"name":"expiry","type":"uint256","internalType":"uint256"},{"name":"nonce","type":"uint256","internalType":"uint256"},{"name":"orderType","type":"uint8","internalType":"enum IPLimitOrderType.OrderType"},{"name":"token","type":"address","internalType":"address"},{"name":"YT","type":"address","internalType":"address"},{"name":"maker","type":"address","internalType":"address"},{"name":"receiver","type":"address","internalType":"address"},{"name":"makingAmount","type":"uint256","internalType":"uint256"},{"name":"lnImpliedRate","type":"uint256","internalType":"uint256"},{"name":"failSafeRate","type":"uint256","internalType":"uint256"},{"name":"permit","type":"bytes","internalType":"bytes"}]},{"name":"signature","type":"bytes","internalType":"bytes"},{"name":"makingAmount","type":"uint256","internalType":"uint256"}]},{"name":"flashFills","type":"tuple[]","internalType":"struct FillOrderParams[]","components":[{"name":"order","type":"tuple","internalType":"struct Order","components":[{"name":"salt","type":"uint256","internalType":"uint256"},{"name":"expiry","type":"uint256","internalType":"uint256"},{"name":"nonce","type":"uint256","internalType":"uint256"},{"name":"orderType","type":"uint8","internalType":"enum IPLimitOrderType.OrderType"},{"name":"token","type":"address","internalType":"address"},{"name":"YT","type":"address","internalType":"address"},{"name":"maker","type":"address","internalType":"address"},{"name":"receiver","type":"address","internalType":"address"},{"name":"makingAmount","type":"uint256","internalType":"uint256"},{"name":"lnImpliedRate","type":"uint256","internalType":"uint256"},{"name":"failSafeRate","type":"uint256","internalType":"uint256"},{"name":"permit","type":"bytes","internalType":"bytes"}]},{"name":"signature","type":"bytes","internalType":"bytes"},{"name":"makingAmount","type":"uint256","internalType":"uint256"}]},{"name":"optData","type":"bytes","internalType":"bytes"}]}]}],"outputs":[],"stateMutability":"nonpayable"},{"type":"function","name":"transferOwnership","inputs":[{"name":"newOwner","type":"address","internalType":"address"}],"outputs":[],"stateMutability":"nonpayable"},{"type":"function","name":"unleverage","inputs":[{"name":"user","type":"address","internalType":"address"},{"name":"positionId","type":"uint256","internalType":"uint256"},{"name":"pendleSwap","type":"address","internalType":"address"},{"name":"tokenRedeemSy","type":"address","internalType":"address"},{"name":"minTokenOut","type":"uint256","internalType":"uint256"},{"name":"swapData","type":"tuple","internalType":"struct SwapData","components":[{"name":"swapType","type":"uint8","internalType":"enum SwapType"},{"name":"extRouter","type":"address","internalType":"address"},{"name":"extCalldata","type":"bytes","internalType":"bytes"},{"name":"needScale","type":"bool","internalType":"bool"}]},{"name":"limitOrderData","type":"tuple","internalType":"struct LimitOrderData","components":[{"name":"limitRouter","type":"address","internalType":"address"},{"name":"epsSkipMarket","type":"uint256","internalType":"uint256"},{"name":"normalFills","type":"tuple[]","internalType":"struct FillOrderParams[]","components":[{"name":"order","type":"tuple","internalType":"struct Order","components":[{"name":"salt","type":"uint256","internalType":"uint256"},{"name":"expiry","type":"uint256","internalType":"uint256"},{"name":"nonce","type":"uint256","internalType":"uint256"},{"name":"orderType","type":"uint8","internalType":"enum IPLimitOrderType.OrderType"},{"name":"token","type":"address","internalType":"address"},{"name":"YT","type":"address","internalType":"address"},{"name":"maker","type":"address","internalType":"address"},{"name":"receiver","type":"address","internalType":"address"},{"name":"makingAmount","type":"uint256","internalType":"uint256"},{"name":"lnImpliedRate","type":"uint256","internalType":"uint256"},{"name":"failSafeRate","type":"uint256","internalType":"uint256"},{"name":"permit","type":"bytes","internalType":"bytes"}]},{"name":"signature","type":"bytes","internalType":"bytes"},{"name":"makingAmount","type":"uint256","internalType":"uint256"}]},{"name":"flashFills","type":"tuple[]","internalType":"struct FillOrderParams[]","components":[{"name":"order","type":"tuple","internalType":"struct Order","components":[{"name":"salt","type":"uint256","internalType":"uint256"},{"name":"expiry","type":"uint256","internalType":"uint256"},{"name":"nonce","type":"uint256","internalType":"uint256"},{"name":"orderType","type":"uint8","internalType":"enum IPLimitOrderType.OrderType"},{"name":"token","type":"address","internalType":"address"},{"name":"YT","type":"address","internalType":"address"},{"name":"maker","type":"address","internalType":"address"},{"name":"receiver","type":"address","internalType":"address"},{"name":"makingAmount","type":"uint256","internalType":"uint256"},{"name":"lnImpliedRate","type":"uint256","internalType":"uint256"},{"name":"failSafeRate","type":"uint256","internalType":"uint256"},{"name":"permit","type":"bytes","internalType":"bytes"}]},{"name":"signature","type":"bytes","internalType":"bytes"},{"name":"makingAmount","type":"uint256","internalType":"uint256"}]},{"name":"optData","type":"bytes","internalType":"bytes"}]}],"outputs":[{"name":"amountReturned","type":"uint256","internalType":"uint256"}],"stateMutability":"nonpayable"},{"type":"function","name":"updateTreasury","inputs":[{"name":"newTreasury","type":"address","internalType":"address"}],"outputs":[],"stateMutability":"nonpayable"},{"type":"function","name":"updateYieldFee","inputs":[{"name":"newYieldFee","type":"uint256","internalType":"uint256"}],"outputs":[],"stateMutability":"nonpayable"},{"type":"event","name":"LeveragePositionClosed","inputs":[{"name":"user","type":"address","indexed":true,"internalType":"address"},{"name":"positionId","type":"uint256","indexed":true,"internalType":"uint256"},{"name":"amountReturnedInLoanToken","type":"uint256","indexed":true,"internalType":"uint256"}],"anonymous":false},{"type":"event","name":"LeveragePositionOpened","inputs":[{"name":"user","type":"address","indexed":true,"internalType":"address"},{"name":"positionId","type":"uint256","indexed":true,"internalType":"uint256"},{"name":"amountDepositedInLoanToken","type":"uint256","indexed":true,"internalType":"uint256"}],"anonymous":false},{"type":"event","name":"OwnershipTransferStarted","inputs":[{"name":"previousOwner","type":"address","indexed":true,"internalType":"address"},{"name":"newOwner","type":"address","indexed":true,"internalType":"address"}],"anonymous":false},{"type":"event","name":"OwnershipTransferred","inputs":[{"name":"previousOwner","type":"address","indexed":true,"internalType":"address"},{"name":"newOwner","type":"address","indexed":true,"internalType":"address"}],"anonymous":false},{"type":"error","name":"FlashLeverage__AmountCannotBeZero","inputs":[]},{"type":"error","name":"FlashLeverage__AmountMismatch","inputs":[]},{"type":"error","name":"FlashLeverage__CannotBeZeroAddress","inputs":[]},{"type":"error","name":"FlashLeverage__ExceedsMaxLTV","inputs":[]},{"type":"error","name":"FlashLeverage__InvalidCollateralToken","inputs":[]},{"type":"error","name":"FlashLeverage__InvalidOnBehalfOfAddress","inputs":[]},{"type":"error","name":"FlashLeverage__InvalidYieldFee","inputs":[]},{"type":"error","name":"FlashLeverage__OnlyOwnerCanCloseBeforeMaturity","inputs":[]},{"type":"error","name":"FlashLeverage__PositionAlreadyUnleveraged","inputs":[]},{"type":"error","name":"FlashLeverage__PositionDoesNotExist","inputs":[]},{"type":"error","name":"FlashLeverage__TreasuryCannotBeZero","inputs":[]},{"type":"error","name":"FlashLeverage__UnsupportedCollateralToken","inputs":[]},{"type":"error","name":"OwnableInvalidOwner","inputs":[{"name":"owner","type":"address","internalType":"address"}]},{"type":"error","name":"OwnableUnauthorizedAccount","inputs":[{"name":"account","type":"address","internalType":"address"}]},{"type":"error","name":"SafeERC20FailedOperation","inputs":[{"name":"token","type":"address","internalType":"address"}]}],"bytecode":{"object":"0x60c0604052346100885761001a610014610169565b916102f1565b61002261008d565b61466761054f82396080518181816109ce015281816128be01526128f9015260a051818181610ae801528181610f6501528181611472015281816117cd0152818161318b015281816131fc0152818161326e0152818161331e0152613d65015261466790f35b610093565b60405190565b5f80fd5b601f801991011690565b634e487b7160e01b5f52604160045260245ffd5b906100bf90610097565b810190811060018060401b038211176100d757604052565b6100a1565b906100ef6100e861008d565b92836100b5565b565b5f80fd5b60018060a01b031690565b610109906100f5565b90565b61011581610100565b0361011c57565b5f80fd5b9050519061012d8261010c565b565b90916060828403126101645761016161014a845f8501610120565b936101588160208601610120565b93604001610120565b90565b6100f1565b610187614bb68038038061017c816100dc565b92833981019061012f565b909192565b90565b90565b6101a66101a16101ab9261018c565b61018f565b6100f5565b90565b6101b790610192565b90565b5f0190565b6101d36101ce6101d8926100f5565b61018f565b6100f5565b90565b6101e4906101bf565b90565b6101f0906101db565b90565b6101fc906101bf565b90565b610208906101f3565b90565b5f1b90565b9061022160018060a01b039161020b565b9181191691161790565b610234906101bf565b90565b6102409061022b565b90565b90565b9061025b61025661026292610237565b610243565b8254610210565b9055565b90565b90565b61028061027b61028592610266565b61018f565b610269565b90565b61029967016345785d8a000061026c565b90565b906102a85f199161020b565b9181191691161790565b6102c66102c16102cb92610269565b61018f565b610269565b90565b90565b906102e66102e16102ed926102b2565b6102ce565b825461029c565b9055565b9190916102fd336103c1565b8061031861031261030d5f6101ae565b610100565b91610100565b14801561039f575b801561037d575b6103615761034d9261033b610343926101e7565b60a0526101ff565b6080526002610246565b61035f610358610288565b60036102d1565b565b5f637938257360e11b815280610379600482016101ba565b0390fd5b508161039961039361038e5f6101ae565b610100565b91610100565b14610327565b50826103bb6103b56103b05f6101ae565b610100565b91610100565b14610320565b6103ca906103ee565b565b6103d590610100565b9052565b91906103ec905f602085019401906103cc565b565b806104096104036103fe5f6101ae565b610100565b91610100565b1461041957610417906104a8565b565b61043c6104255f6101ae565b5f918291631e4fbdf760e01b8352600483016103d9565b0390fd5b1b90565b9190600861046491029161045e60018060a01b0384610440565b92610440565b9181191691161790565b919061048461047f61048c93610237565b610243565b908354610444565b9055565b5f90565b6104a6916104a0610490565b9161046e565b565b6104bc906104b75f6001610494565b6104ef565b565b5f1c90565b60018060a01b031690565b6104da6104df916104be565b6104c3565b90565b6104ec90546104ce565b90565b6104f85f6104e2565b610502825f610246565b906105366105307f8be0079c531659141344cd1fd0a4f28419497f9722a3daafe3b4186f6b6457e093610237565b91610237565b9161053f61008d565b80610549816101ba565b0390a356fe60806040526004361015610013575b610b6d565b61001d5f3561014c565b80630cd865ec146101475780632ec23d66146101425780633819e5d31461013d5780633b19e84a14610138578063544e5eca14610133578063568fb21c1461012e578063642afd921461012957806370f5585f14610124578063715018a61461011f57806379ba50971461011a5780637f51bb1f146101155780638da5cb5b14610110578063a1f196101461010b578063ba02a00514610106578063dad8791114610101578063dd2a7a17146100fc578063e30c3978146100f7578063f2fde38b146100f25763f6a5c87c0361000e57610b38565b610ab3565b610a7e565b610a49565b610990565b610894565b61083f565b6107ec565b6107b9565b610786565b61075b565b610727565b6106ac565b610582565b6104b8565b610334565b6102dd565b610275565b6101c1565b60e01c90565b60405190565b5f80fd5b5f80fd5b5f80fd5b60018060a01b031690565b61017890610164565b90565b6101848161016f565b0361018b57565b5f80fd5b9050359061019c8261017b565b565b906020828203126101b7576101b4915f0161018f565b90565b61015c565b5f0190565b346101ef576101d96101d436600461019e565b610b9b565b6101e1610152565b806101eb816101bc565b0390f35b610158565b5f80fd5b5f80fd5b5f80fd5b909182601f8301121561023a5781359167ffffffffffffffff831161023557602001926060830284011161023057565b6101fc565b6101f8565b6101f4565b90602082820312610270575f82013567ffffffffffffffff811161026b576102679201610200565b9091565b610160565b61015c565b346102a45761028e61028836600461023f565b90610fd5565b610296610152565b806102a0816101bc565b0390f35b610158565b5f9103126102b357565b61015c565b90565b6102c4906102b8565b9052565b91906102db905f602085019401906102bb565b565b3461030d576102ed3660046102a9565b6103096102f861100a565b610300610152565b918291826102c8565b0390f35b610158565b61031b9061016f565b9052565b9190610332905f60208501940190610312565b565b34610364576103443660046102a9565b61036061034f611050565b610357610152565b9182918261031f565b0390f35b610158565b5190565b60209181520190565b60200190565b151590565b61038a9061037c565b9052565b610397906102b8565b9052565b6103a49061016f565b9052565b9060e080610436936103c05f8201515f860190610381565b6103d26020820151602086019061038e565b6103e46040820151604086019061039b565b6103f66060820151606086019061039b565b6104086080820151608086019061038e565b61041a60a082015160a086019061038e565b61042c60c082015160c086019061038e565b015191019061038e565b565b9061044681610100936103a8565b0190565b60200190565b9061046d61046761046084610369565b809361036d565b92610376565b905f5b81811061047d5750505090565b9091926104966104906001928651610438565b9461044a565b9101919091610470565b6104b59160208201915f818403910152610450565b90565b346104e8576104e46104d36104ce36600461019e565b611251565b6104db610152565b918291826104a0565b0390f35b610158565b5f80fd5b90816101809103126105005790565b6104ed565b90816101c09103126105145790565b6104ed565b9160608383031261057d57610530825f850161018f565b92602081013567ffffffffffffffff811161057857836105519183016104f1565b92604082013567ffffffffffffffff8111610573576105709201610505565b90565b610160565b610160565b61015c565b346105b15761059b610595366004610519565b91611632565b6105a3610152565b806105ad816101bc565b0390f35b610158565b6105bf816102b8565b036105c657565b5f80fd5b905035906105d7826105b6565b565b919060408382031261060157806105f56105fe925f860161018f565b936020016105ca565b90565b61015c565b9060e0806106949361061e5f8201515f860190610381565b6106306020820151602086019061038e565b6106426040820151604086019061039b565b6106546060820151606086019061039b565b6106666080820151608086019061038e565b61067860a082015160a086019061038e565b61068a60c082015160c086019061038e565b015191019061038e565b565b91906106aa905f6101008501940190610606565b565b346106dd576106d96106c86106c23660046105d9565b906116ec565b6106d0610152565b91829182610696565b0390f35b610158565b919091604081840312610722576106fb835f830161018f565b92602082013567ffffffffffffffff811161071d5761071a9201610505565b90565b610160565b61015c565b346107565761074061073a3660046106e2565b906118b9565b610748610152565b80610752816101bc565b0390f35b610158565b346107815761076b3660046102a9565b610773610152565b8061077d816101bc565b0390f35b610158565b346107b4576107963660046102a9565b61079e6118c5565b6107a6610152565b806107b0816101bc565b0390f35b610158565b346107e7576107d16107cc36600461019e565b61197e565b6107d9610152565b806107e3816101bc565b0390f35b610158565b3461081c576107fc3660046102a9565b610818610807611989565b61080f610152565b9182918261031f565b0390f35b610158565b9060208282031261083a57610837915f016105ca565b90565b61015c565b3461086d57610857610852366004610821565b611ab4565b61085f610152565b80610869816101bc565b0390f35b610158565b61087b9061037c565b9052565b9190610892905f60208501940190610872565b565b346108c4576108c06108af6108aa36600461019e565b611ac3565b6108b7610152565b9182918261087f565b0390f35b610158565b908160809103126108d75790565b6104ed565b908160a09103126108ea5790565b6104ed565b9060e08282031261098b57610906815f840161018f565b9261091482602085016105ca565b92610922836040830161018f565b92610930816060840161018f565b9261093e82608085016105ca565b9260a081013567ffffffffffffffff8111610986578361095f9183016108c9565b9260c082013567ffffffffffffffff81116109815761097e92016108dc565b90565b610160565b610160565b61015c565b346109c7576109c36109b26109a63660046108ef565b95949094939193611b6a565b6109ba610152565b918291826102c8565b0390f35b610158565b7f000000000000000000000000000000000000000000000000000000000000000090565b90565b610a07610a02610a0c92610164565b6109f0565b610164565b90565b610a18906109f3565b90565b610a2490610a0f565b90565b610a3090610a1b565b9052565b9190610a47905f60208501940190610a27565b565b34610a7957610a593660046102a9565b610a75610a646109cc565b610a6c610152565b91829182610a34565b0390f35b610158565b34610aae57610a8e3660046102a9565b610aaa610a99611c2a565b610aa1610152565b9182918261031f565b0390f35b610158565b34610ae157610acb610ac636600461019e565b611cb2565b610ad3610152565b80610add816101bc565b0390f35b610158565b7f000000000000000000000000000000000000000000000000000000000000000090565b610b1390610a0f565b90565b610b1f90610b0a565b9052565b9190610b36905f60208501940190610b16565b565b34610b6857610b483660046102a9565b610b64610b53610ae6565b610b5b610152565b91829182610b23565b0390f35b610158565b5f80fd5b610b8290610b7d611cbd565b610b84565b565b610b999080610b933391611d47565b91611e13565b565b610ba490610b71565b565b90610bb891610bb3611cbd565b610e4c565b565b5f90565b6001610bca91016102b8565b90565b5090565b634e487b7160e01b5f52603260045260245ffd5b9190811015610bf5576060020190565b610bd1565b5f80fd5b601f801991011690565b634e487b7160e01b5f52604160045260245ffd5b90610c2690610bfe565b810190811067ffffffffffffffff821117610c4057604052565b610c08565b90610c58610c51610152565b9283610c1c565b565b5f80fd5b90565b610c6a81610c5e565b03610c7157565b5f80fd5b90503590610c8282610c61565b565b9190606083820312610cd057610cc990610c9e6060610c45565b93610cab825f830161018f565b5f860152610cbc8260208301610c75565b602086015260400161018f565b6040830152565b610bfa565b610ce0903690610c84565b90565b610ced905161016f565b90565b610cf990610a0f565b90565b90610d0690610cf0565b5f5260205260405f2090565b5f1b90565b90610d2860018060a01b0391610d12565b9181191691161790565b90565b90610d4a610d45610d5192610cf0565b610d32565b8254610d17565b9055565b90565b610d6c610d67610d7192610d55565b6109f0565b610164565b90565b610d7d90610d58565b90565b15610d8757565b5f637938257360e11b815280610d9f600482016101bc565b0390fd5b610dac906109f3565b90565b610db890610da3565b90565b610dc490610a0f565b90565b5f80fd5b60e01b90565b90505190610dde8261017b565b565b9091606082840312610e1557610e12610dfb845f8501610dd1565b93610e098160208601610dd1565b93604001610dd1565b90565b61015c565b610e22610152565b3d5f823e3d90fd5b15610e3157565b5f62cf68ad60e21b815280610e48600482016101bc565b0390fd5b919091610e57610bba565b5b80610e75610e6f610e6a858890610bcd565b6102b8565b916102b8565b1015610fcf57610f1690610e93610e8e84878491610be5565b610cd5565b6060610f00610efb610ef66040610eab5f8701610ce3565b95610ecb610eba838301610ce3565b610ec660048a90610cfc565b610d35565b610ef087610ee9610ee3610ede5f610d74565b61016f565b9161016f565b1415610d80565b01610ce3565b610daf565b610dbb565b632c8ce6bc90610f0e610152565b958692610dcb565b82528180610f26600482016101bc565b03915afa908115610fca57610f60610f9192610f96955f80929050610f9b575b50610f5a610f54849261016f565b9161016f565b14610e2a565b610f897f0000000000000000000000000000000000000000000000000000000000000000610b0a565b5f1991611fa2565b610bbe565b610e58565b610fbc915060603d8111610fc3575b610fb48183610c1c565b810190610de0565b5090610f46565b503d610faa565b610e1a565b50509050565b90610fdf91610ba6565b565b5f1c90565b90565b610ff5610ffa91610fe1565b610fe6565b90565b6110079054610fe9565b90565b611012610bba565b5061101d6003610ffd565b90565b5f90565b60018060a01b031690565b61103b61104091610fe1565b611024565b90565b61104d905461102f565b90565b611058611020565b506110636002611043565b90565b606090565b9061107590610cf0565b5f5260205260405f2090565b5490565b67ffffffffffffffff811161109d5760208091020190565b610c08565b906110b46110af83611085565b610c45565b918252565b5f5260205f2090565b60ff1690565b6110d46110d991610fe1565b6110c2565b90565b6110e690546110c8565b90565b906110f39061037c565b9052565b90611101906102b8565b9052565b9061110f9061016f565b9052565b61111e610100610c45565b90565b906111e86111df6007611132611113565b946111496111415f83016110dc565b5f88016110e9565b61116161115860018301610ffd565b602088016110f7565b61117961117060028301611043565b60408801611105565b61119161118860038301611043565b60608801611105565b6111a96111a060048301610ffd565b608088016110f7565b6111c16111b860058301610ffd565b60a088016110f7565b6111d96111d060068301610ffd565b60c088016110f7565b01610ffd565b60e084016110f7565b565b6111f390611121565b90565b9061120082611081565b611209816110a2565b9261121760208501916110b9565b5f915b8383106112275750505050565b60086020600192611237856111ea565b81520192019201919061121a565b61124e906111f6565b90565b61126861126d91611260611066565b50600561106b565b611245565b90565b1561127757565b5f6302ac650b60e21b81528061128f600482016101bc565b0390fd5b906112c392916112be816112b76112b16112ac5f610d74565b61016f565b9161016f565b1415611270565b6112f5565b565b356112cf8161017b565b90565b156112d957565b5f630f97113760e01b8152806112f1600482016101bc565b0390fd5b9061131c929161131761131261130d602086016112c5565b611ac3565b6112d2565b61136a565b565b35611328816105b6565b90565b61133f61133a61134492610d55565b6109f0565b6102b8565b90565b1561134e57565b5f63b02cb97d60e01b815280611366600482016101bc565b0390fd5b9061139c929161139761137f6020840161131e565b61139161138b5f61132b565b916102b8565b11611347565b61139e565b565b906113d092916113cb6113b36060850161131e565b6113c56113bf5f61132b565b916102b8565b11611347565b611445565b565b905051906113df826105b6565b565b906020828203126113fa576113f7915f016113d2565b90565b61015c565b91602061142092949361141960408201965f830190610312565b0190610312565b565b1561142957565b5f636e5e2aa760e11b815280611441600482016101bc565b0390fd5b91906114525f830161131e565b9261145f602084016112c5565b602061146d604086016112c5565b6114967f0000000000000000000000000000000000000000000000000000000000000000610b0a565b6114b86362fd6add9492946114c36114ac610152565b96879586948594610dcb565b8452600484016113ff565b03915afa94851561152b576114ef6114e96114fb976114f6945f916114fd575b506102b8565b916102b8565b1115611422565b611553565b565b61151e915060203d8111611524575b6115168183610c1c565b8101906113e1565b5f6114e3565b503d61150c565b610e1a565b1561153757565b5f631415d2d560e11b81528061154f600482016101bc565b0390fd5b6115f992916115796115665f83016112c5565b336115736020850161131e565b91612051565b6115845f82016112c5565b6115a161159b611596602087016112c5565b61016f565b9161016f565b14155f146115fb576115be906115b9602085016112c5565b6128a8565b6115f36115cd602084016112c5565b6115e16115dc602086016112c5565b611d47565b6115ed6060860161131e565b91612a66565b5b613153565b565b61160a602061162d920161131e565b61162761162161161c6060870161131e565b6102b8565b916102b8565b14611530565b6115f4565b9061163d9291611293565b565b5f90565b5f90565b5f90565b611653611113565b906020808080808080808961166661163f565b815201611671611643565b81520161167c611647565b815201611687611647565b815201611692611643565b81520161169d611643565b8152016116a8611643565b8152016116b3611643565b81525050565b6116c161164b565b90565b6116cd81611081565b8210156116e7576116df6008916110b9565b910201905f90565b610bd1565b6117129161170761170c926116ff6116b9565b50600561106b565b6116c4565b506111ea565b90565b906117449161173f8161173861173261172d5f610d74565b61016f565b9161016f565b1415611270565b611746565b565b9061176c9161176761176261175d602085016112c5565b611ac3565b6112d2565b61176e565b565b9061179f9161179a6117826060840161131e565b61179461178e5f61132b565b916102b8565b11611347565b6117a1565b565b906117ad5f820161131e565b916117ba602083016112c5565b60206117c8604085016112c5565b6117f17f0000000000000000000000000000000000000000000000000000000000000000610b0a565b6118136362fd6add94929461181e611807610152565b96879586948594610dcb565b8452600484016113ff565b03915afa9384156118865761184a61184461185696611851945f91611858575b506102b8565b916102b8565b1115611422565b61188b565b565b611879915060203d811161187f575b6118718183610c1c565b8101906113e1565b5f61183e565b503d611867565b610e1a565b906118b7916118b261189f602084016112c5565b336118ac6060860161131e565b91612051565b613153565b565b906118c391611715565b565b6118cd6135fc565b6118d5611c2a565b6118e76118e18361016f565b9161016f565b036118f7576118f590613669565b565b611912905f91829163118cdaa760e01b83526004830161031f565b0390fd5b61192790611922611cbd565b61194c565b565b1561193057565b5f6308ba3ead60e11b815280611948600482016101bc565b0390fd5b61197c906119758161196e6119686119635f610d74565b61016f565b9161016f565b1415611929565b6002610d35565b565b61198790611916565b565b611991611020565b5061199b5f611043565b90565b6119af906119aa611cbd565b611a5c565b565b90565b6119c86119c36119cd926119b1565b6109f0565b6102b8565b90565b6119e167016345785d8a00006119b4565b90565b156119eb57565b5f6305e5b5e560e31b815280611a03600482016101bc565b0390fd5b90611a135f1991610d12565b9181191691161790565b611a31611a2c611a36926102b8565b6109f0565b6102b8565b90565b90565b90611a51611a4c611a5892611a1d565b611a39565b8254611a07565b9055565b611a8b9080611a73611a6d5f61132b565b916102b8565b141580611a8d575b611a84906119e4565b6003611a3c565b565b50611a8481611aab611aa5611aa06119d0565b6102b8565b916102b8565b11159050611a7b565b611abd9061199e565b565b5f90565b611ada611adf91611ad2611abf565b506004610cfc565b611043565b611af9611af3611aee5f610d74565b61016f565b9161016f565b141590565b15611b0557565b5f6333a9e83f60e01b815280611b1d600482016101bc565b0390fd5b90565b15611b2b57565b5f63f39ebff960e01b815280611b43600482016101bc565b0390fd5b15611b4e57565b5f63891e6c9f60e01b815280611b66600482016101bc565b0390fd5b91611c0696949295939195611b7d610bba565b50611bad87611ba7611ba1611b9c611b976005879061106b565b611081565b6102b8565b916102b8565b10611afe565b611bcc611bc6611bbf6005849061106b565b89906116c4565b50611b21565b90611be1611bdc60028401611043565b61367f565b611c09575b611bf9611bf45f84016110dc565b611b47565b9690919293949596613d52565b90565b611c2533611c1f611c198461016f565b9161016f565b14611b24565b611be6565b611c32611020565b50611c3d6001611043565b90565b611c5190611c4c611cbd565b611c53565b565b611c5e816001610d35565b611c66611989565b90611c9a611c947f38d16b8cac22d99fc7c124b9cd0de2d3fa1faef420bfe791d8c362d765e2270093610cf0565b91610cf0565b91611ca3610152565b80611cad816101bc565b0390a3565b611cbb90611c40565b565b611cc5611989565b611cde611cd8611cd36135fc565b61016f565b9161016f565b03611ce557565b611d07611cf06135fc565b5f91829163118cdaa760e01b83526004830161031f565b0390fd5b611d145f610d74565b90565b611d20906109f3565b90565b611d2c90611d17565b90565b611d3890610a0f565b90565b611d4490610a0f565b90565b611d4f610bba565b5080611d6a611d64611d5f611d0b565b61016f565b9161016f565b145f14611d805750611d7b30611d3b565b315b90565b6020611d96611d91611dc893611d23565b611d2f565b6370a0823190611dbd611da830611d3b565b92611db1610152565b95869485938493610dcb565b83526004830161031f565b03915afa908115611e0e575f91611de0575b50611d7d565b611e01915060203d8111611e07575b611df98183610c1c565b8101906113e1565b5f611dda565b503d611def565b610e1a565b9180611e27611e215f61132b565b916102b8565b14611e4257611e38611e4093611d23565b919091614113565b565b505050565b916020611e68929493611e6160408201965f830190610312565b01906102bb565b565b67ffffffffffffffff8111611e8857611e84602091610bfe565b0190565b610c08565b90611e9f611e9a83611e6a565b610c45565b918252565b606090565b3d5f14611ec457611eb93d611e8d565b903d5f602084013e5b565b611ecc611ea4565b90611ec2565b5190565b611edf8161037c565b03611ee657565b5f80fd5b90505190611ef782611ed6565b565b90602082820312611f1257611f0f915f01611eea565b90565b61015c565b60209181520190565b5f7f5361666520417070726f76650000000000000000000000000000000000000000910152565b611f54600c602092611f17565b611f5d81611f20565b0190565b611f769060208101905f818303910152611f47565b90565b15611f8057565b611f88610152565b62461bcd60e51b815280611f9e60048201611f61565b0390fd5b612001926004611fe35f94611fd486959463095ea7b360e01b92611fc4610152565b9586946020860190815201611e47565b60208201810382520382610c1c565b82602082019151925af1611ff5611ea9565b81612003575b50611f79565b565b905061200e81611ed2565b61202061201a5f61132b565b916102b8565b14908115612030575b505f611ffb565b61204b9150602061204082611ed2565b818301019101611ef9565b5f612029565b918061206561205f5f61132b565b916102b8565b146120895761207661208793611d23565b9161208030611d3b565b9192614161565b565b505050565b61209790610a0f565b90565b5f80fd5b9035906001608003813603038212156120b5570190565b61209a565b6120c460a0610c45565b90565b600b11156120d157565b5f80fd5b905035906120e2826120c7565b565b5f80fd5b90825f939282370152565b9092919261210861210382611e6a565b610c45565b9381855260208501908284011161212457612122926120e8565b565b6120e4565b9080601f8301121561214757816020612144933591016120f3565b90565b6101f4565b9050359061215982611ed6565b565b9190916080818403126121d2576121726080610c45565b9261217f815f84016120d5565b5f850152612190816020840161018f565b602085015260408201359167ffffffffffffffff83116121cd576121b9826121c6948301612129565b604086015260600161214c565b6060830152565b610c5a565b610bfa565b6121e290369061215b565b90565b52565b903590600160a003813603038212156121ff570190565b61209a565b90916060828403126122395761223661221f845f85016113d2565b9361222d81602086016113d2565b936040016113d2565b90565b61015c565b5061224d9060208101906105ca565b90565b9060806122c96122d1936122726122695f83018361223e565b5f86019061038e565b61228c612282602083018361223e565b602086019061038e565b6122a661229c604083018361223e565b604086019061038e565b6122c06122b6606083018361223e565b606086019061038e565b8281019061223e565b91019061038e565b565b634e487b7160e01b5f52602160045260245ffd5b600b11156122f157565b6122d3565b90612300826122e7565b565b61230b906122f6565b90565b61231790612302565b9052565b60209181520190565b90825f9392825e0152565b61234e61235760209361235c9361234581611ed2565b9384809361231b565b95869101612324565b610bfe565b0190565b906123ae906060806123a36080840161237f5f8801515f87019061230e565b6123916020880151602087019061039b565b6040870151858203604087015261232f565b940151910190610381565b90565b61241291608060a08201926123cc5f8201515f85019061039b565b6123de6020820151602085019061038e565b6123f06040820151604085019061039b565b6124026060820151606085019061039b565b0151906080818403910152612360565b90565b5061242490602081019061018f565b90565b5f80fd5b5f80fd5b5f80fd5b903560016020038236030381121561247457016020813591019167ffffffffffffffff821161246f57602082023603831361246a57565b61242b565b612427565b61242f565b60209181520190565b90565b90356001610180038236030381121561249c570190565b61242f565b600411156124ab57565b5f80fd5b905035906124bc826124a1565b565b506124cd9060208101906124af565b90565b600411156124da57565b6122d3565b906124e9826124d0565b565b6124f4906124df565b90565b612500906124eb565b9052565b903560016020038236030381121561254557016020813591019167ffffffffffffffff821161254057600182023603831361253b57565b61242b565b612427565b61242f565b91906125648161255d816125699561231b565b80956120e8565b610bfe565b0190565b6126b6916126a76101808201926125926125895f83018361223e565b5f85019061038e565b6125ac6125a2602083018361223e565b602085019061038e565b6125c66125bc604083018361223e565b604085019061038e565b6125e06125d660608301836124be565b60608501906124f7565b6125fa6125f06080830183612415565b608085019061039b565b61261461260a60a0830183612415565b60a085019061039b565b61262e61262460c0830183612415565b60c085019061039b565b61264861263e60e0830183612415565b60e085019061039b565b61266461265961010083018361223e565b61010085019061038e565b61268061267561012083018361223e565b61012085019061038e565b61269c61269161014083018361223e565b61014085019061038e565b610160810190612504565b9161016081850391015261254a565b90565b9061271290604061270a6127006126e5606085016126d95f890189612485565b8682035f88015261256d565b6126f26020880188612504565b90868303602088015261254a565b948281019061223e565b91019061038e565b90565b9061271f916126b9565b90565b9035600160600382360303811215612738570190565b61242f565b60200190565b918161274e91612479565b908161275f60208302840194612482565b92835f925b8484106127745750505050505090565b909192939495602061279f61279983856001950388526127948b88612722565b612715565b9861273d565b940194019294939190612764565b61283f9161283161282661280b60a084016127d66127cd5f880188612415565b5f87019061039b565b6127f06127e6602088018861223e565b602087019061038e565b6127fd6040870187612433565b908683036040880152612743565b6128186060860186612433565b908583036060870152612743565b926080810190612504565b91608081850391015261254a565b90565b9490916128a5969461287e612896956128746128889461286a6101408c01985f8d0190610312565b60208b0190610312565b60408901906102bb565b6060870190612250565b8482036101008601526123b1565b916101208184039101526127ad565b90565b6060906128f46128b95f85016112c5565b6128e27f0000000000000000000000000000000000000000000000000000000000000000610a1b565b6128ee6020870161131e565b916141b1565b61291d7f0000000000000000000000000000000000000000000000000000000000000000610a1b565b612a085f63c81f847a612a136129456129406129383061208e565b976004610cfc565b611043565b97836129536040830161131e565b916129f38a8201916129e86129df61296c8684016112c5565b6129da61297b6020860161131e565b6129d161298b61012088016112c5565b6129c861299b6101008a016112c5565b936129bf6129ae8b61014081019061209e565b976129b76120ba565b9e8f01611105565b60208d016110f7565b60408b01611105565b60608901611105565b6121d7565b608086016121e5565b6101608101906121e8565b926129fc610152565b9b8c9a8b998a98610dcb565b885260048801612842565b03925af18015612a5357612a25575b50565b612a459060603d8111612a4c575b612a3d8183610c1c565b810190612204565b5050612a22565b503d612a33565b610e1a565b90612a6391036102b8565b90565b9080612a7a612a74856102b8565b916102b8565b11612a85575b505050565b612aa392612a9b91612a95610bba565b50612a58565b339091611e13565b5f8080612a80565b9190604083820312612ae557612ade90612ac56040610c45565b93612ad2825f83016113d2565b5f8601526020016113d2565b6020830152565b610bfa565b90604082820312612b0357612b00915f01612aab565b90565b61015c565b612b3d612b4494612b33606094989795612b29608086019a5f870190610312565b60208501906102bb565b6040830190610312565b0190610312565b565b5f910312612b5057565b61015c565b5090565b906080612bd2612bda93612b7b612b725f83018361223e565b5f86019061038e565b612b95612b8b602083018361223e565b602086019061038e565b612baf612ba5604083018361223e565b604086019061038e565b612bc9612bbf606083018361223e565b606086019061038e565b8281019061223e565b91019061038e565b565b9035600160800382360303811215612bf2570190565b61242f565b50612c069060208101906120d5565b90565b50612c1890602081019061214c565b90565b90612c8b906060612c83612c7960808401612c44612c3b5f890189612bf7565b5f87019061230e565b612c5e612c546020890189612415565b602087019061039b565b612c6b6040880188612504565b90868303604088015261254a565b9482810190612c09565b910190610381565b90565b9035600160a00382360303811215612ca4570190565b61242f565b612d3b91612d2d612d22612d0760a08401612cd2612cc95f880188612415565b5f87019061039b565b612cec612ce2602088018861223e565b602087019061038e565b612cf96040870187612433565b908683036040880152612743565b612d146060860186612433565b908583036060870152612743565b926080810190612504565b91608081850391015261254a565b90565b612e5891612e49612e3d6101c08301612d65612d5c5f87018761223e565b5f86019061038e565b612d7f612d756020870187612415565b602086019061039b565b612d99612d8f6040870187612415565b604086019061039b565b612db3612da9606087018761223e565b606086019061038e565b612dcd612dc36080870187612b55565b6080860190612b59565b612de9612dde610120870187612415565b61012086019061039b565b612e05612dfa610140870187612415565b61014086019061039b565b612e21612e1661016087018761223e565b61016086019061038e565b612e2f610180860186612bdc565b848203610180860152612c1b565b926101a0810190612c8e565b906101a0818403910152612ca9565b90565b91612e7e92612e7160408201935f830190610312565b6020818403910152612d3e565b90565b612e8b90516102b8565b90565b634e487b7160e01b5f52601160045260245ffd5b612eb1612eb7919392936102b8565b926102b8565b8203918211612ec257565b612e8e565b604090612ef0612ef79496959396612ee660608401985f850190610312565b6020830190610312565b01906102bb565b565b90565b60ff1690565b612f16612f11612f1b92612ef9565b6109f0565b612efc565b90565b612f286012612f02565b90565b612f34906109f3565b90565b612f4090612f2b565b90565b612f4c90610a0f565b90565b612f5881612efc565b03612f5f57565b5f80fd5b90505190612f7082612f4f565b565b90602082820312612f8b57612f88915f01612f63565b90565b61015c565b90565b612f9e610100610c45565b90565b5f5260205f2090565b5490565b612fb781612faa565b821015612fd157612fc9600891612fa1565b910201905f90565b610bd1565b634e487b7160e01b5f525f60045260245ffd5b612ff3905161037c565b90565b9061300260ff91610d12565b9181191691161790565b6130159061037c565b90565b90565b9061303061302b6130379261300c565b613018565b8254612ff6565b9055565b906130fc60e060076131029461305e5f82016130585f8801612fe9565b9061301b565b6130776001820161307160208801612e81565b90611a3c565b6130906002820161308a60408801610ce3565b90610d35565b6130a9600382016130a360608801610ce3565b90610d35565b6130c2600482016130bc60808801612e81565b90611a3c565b6130db600582016130d560a08801612e81565b90611a3c565b6130f4600682016130ee60c08801612e81565b90611a3c565b019201612e81565b90611a3c565b565b9190613115576131139161303b565b565b612fd6565b1b90565b908154916801000000000000000083101561314e578261314691600161314c95018155612fae565b90613104565b565b610c08565b90613160602082016112c5565b9161316d604083016112c5565b926131795f840161131e565b906131866060850161131e565b6131af7f0000000000000000000000000000000000000000000000000000000000000000610b0a565b60406394ea07bb9186906131d887946131e3888d906131cc610152565b98899788968796610dcb565b865260048601612b08565b03915afa9081156135f7575f916135c9575b50946132207f0000000000000000000000000000000000000000000000000000000000000000610b0a565b906370f5585f90869092803b156135c45761324e5f8094613259613242610152565b97889687958694610dcb565b845260048401612e5b565b03925af180156135bf57613593575b506132927f0000000000000000000000000000000000000000000000000000000000000000610b0a565b60406394ea07bb9186906132bb87946132c6888d906132af610152565b98899788968796610dcb565b865260048601612b08565b03915afa801561358e57613319915f91613560575b5095613313602061330c816133056132f45f8d01612e81565b6132ff5f8801612e81565b90612ea2565b9a01612e81565b9201612e81565b90612ea2565b6133427f0000000000000000000000000000000000000000000000000000000000000000610b0a565b6020633ba7a3149185906133698b946133748861335d610152565b97889687958695610dcb565b855260048501612ec7565b03915afa801561355b576133bb915f9161352d575b50613392612f1e565b60206133a56133a08c612f37565b612f43565b63313ce567906133b3610152565b958692610dcb565b825281806133cb600482016101bc565b03915afa918215613528576133e7935f936134f8575b50614273565b956005866133f49161106b565b6133fd90611081565b9760058761340a9161106b565b61341390612f90565b956001959190949189939495613427612f93565b975f890190613435916110e9565b6020880190613443916110f7565b604087019061345191611105565b606086019061345f91611105565b608085019061346d916110f7565b60a084019061347b916110f7565b60c0830190613489916110f7565b60e0820190613497916110f7565b6134a09161311e565b917fa4f732b8c6eeb0f534d2e40c2bfb293de7684855cdae052e554ff9d53f37a825926134cc90610cf0565b906134d690611a1d565b916134e090611a1d565b926134e9610152565b806134f3816101bc565b0390a4565b61351a91935060203d8111613521575b6135128183610c1c565b810190612f72565b915f6133e1565b503d613508565b610e1a565b61354e915060203d8111613554575b6135468183610c1c565b8101906113e1565b5f613389565b503d61353c565b610e1a565b613581915060403d8111613587575b6135798183610c1c565b810190612aea565b5f6132db565b503d61356f565b610e1a565b6135b2905f3d81116135b8575b6135aa8183610c1c565b810190612b46565b5f613268565b503d6135a0565b610e1a565b610dc7565b6135ea915060403d81116135f0575b6135e28183610c1c565b810190612aea565b5f6131f5565b503d6135d8565b610e1a565b613604611020565b503390565b9190600861362991029161362360018060a01b038461311a565b9261311a565b9181191691161790565b919061364961364461365193610cf0565b610d32565b908354613609565b9055565b61366791613661611020565b91613633565b565b61367d906136785f6001613655565b6142f5565b565b60206136b06136ab6136a66136a16136c695613699611abf565b506004610cfc565b611043565b610daf565b610dbb565b632f13b60c906136be610152565b938492610dcb565b825281806136d6600482016101bc565b03915afa8015613723576136f2915f916136f5575b501561037c565b90565b613716915060203d811161371c575b61370e8183610c1c565b810190611ef9565b5f6136eb565b503d613704565b610e1a565b613733610140610c45565b90565b67ffffffffffffffff811161374e5760208091020190565b610c08565b919091610180818403126138635761376c610180610c45565b92613779815f84016105ca565b5f85015261378a81602084016105ca565b602085015261379c81604084016105ca565b60408501526137ae81606084016124af565b60608501526137c0816080840161018f565b60808501526137d28160a0840161018f565b60a08501526137e48160c0840161018f565b60c08501526137f68160e0840161018f565b60e08501526138098161010084016105ca565b61010085015261381d8161012084016105ca565b6101208501526138318161014084016105ca565b61014085015261016082013567ffffffffffffffff811161385e576138569201612129565b610160830152565b610c5a565b610bfa565b9190916060818403126138e55761387f6060610c45565b925f82013567ffffffffffffffff81116138e0578161389f918401613753565b5f85015260208201359167ffffffffffffffff83116138db576138c7826138d4948301612129565b60208601526040016105ca565b6040830152565b610c5a565b610c5a565b610bfa565b9291906138fe6138f982613736565b610c45565b93818552602080860192028101918383116139555781905b838210613924575050505050565b813567ffffffffffffffff8111613950576020916139458784938701613868565b815201910190613916565b6101f4565b6101fc565b9080601f8301121561397857816020613975933591016138ea565b90565b6101f4565b91909160a081840312613a355761399460a0610c45565b926139a1815f840161018f565b5f8501526139b281602084016105ca565b6020850152604082013567ffffffffffffffff8111613a3057816139d791840161395a565b6040850152606082013567ffffffffffffffff8111613a2b57816139fc91840161395a565b6060850152608082013567ffffffffffffffff8111613a2657613a1f9201612129565b6080830152565b610c5a565b610c5a565b610c5a565b610bfa565b613a4590369061397d565b90565b52565b5190565b60200190565b613b3d91610160610180820192613a725f8201515f85019061038e565b613a846020820151602085019061038e565b613a966040820151604085019061038e565b613aa8606082015160608501906124f7565b613aba6080820151608085019061039b565b613acc60a082015160a085019061039b565b613ade60c082015160c085019061039b565b613af060e082015160e085019061039b565b613b0461010082015161010085019061038e565b613b1861012082015161012085019061038e565b613b2c61014082015161014085019061038e565b01519061016081840391015261232f565b90565b90613b7f90604080613b74613b62606085015f8801518682035f880152613a55565b6020870151858203602087015261232f565b94015191019061038e565b90565b90613b8c91613b40565b90565b60200190565b90613ba9613ba283613a4b565b8092612479565b9081613bba60208302840194613a4f565b925f915b838310613bcd57505050505090565b90919293946020613bef613be983856001950387528951613b82565b97613b8f565b9301930191939290613bbe565b613c63916080613c52613c4060a08401613c1c5f8701515f87019061039b565b613c2e6020870151602087019061038e565b60408601518582036040870152613b95565b60608501518482036060860152613b95565b92015190608081840391015261232f565b90565b613d2991610120613d176101408301613c855f8601515f86019061038e565b613c976020860151602086019061039b565b613ca96040860151604086019061039b565b613cbb6060860151606086019061038e565b613ccd6080860151608086019061038e565b613cdf60a086015160a086019061039b565b613cf160c086015160c086019061039b565b613d0360e086015160e086019061038e565b610100850151848203610100860152612360565b92015190610120818403910152613bfc565b90565b91613d4f92613d4260408201935f830190610312565b6020818403910152613c66565b90565b9491979690959293613d62610bba565b507f0000000000000000000000000000000000000000000000000000000000000000613d8d90610b0a565b91637130fa499487948b600201613da390611043565b938c600301613db190611043565b988d80600101613dc090610ffd565b9a81600701613dce90610ffd565b91600601613ddb90610ffd565b929394959697613de9613728565b9c5f8e0190613df7916110f7565b60208d0190613e0591611105565b60408c0190613e1391611105565b60608b0190613e21916110f7565b60808a0190613e2f916110f7565b60a0890190613e3d91611105565b60c0880190613e4b91611105565b60e0870190613e59916110f7565b613e62906121d7565b610100860190613e71916121e5565b613e7a90613a3a565b610120850190613e8991613a48565b803b156140dd57613ead5f8094613eb8613ea1610152565b97889687958694610dcb565b845260048401613d2c565b03925af180156140d8576140ac575b50613ed45f5f860161301b565b613f0b6020613ef5613ef0613eeb60038901611043565b612f37565b612f43565b63313ce56790613f03610152565b938492610dcb565b82528180613f1b600482016101bc565b03915afa9081156140a7576003613fbc613fcb93613fc3935f91614079575b50613fac89613f82613f73613f6e87613f67613f5860058701610ffd565b88613f61612f1e565b91614273565b9401611043565b611d47565b84613f7c612f1e565b91614273565b8b613f8b610bba565b9282613f9f613f99836102b8565b916102b8565b11614022575b5050612ea2565b90613fb5612f1e565b9091614273565b9601611043565b828691611e13565b90839061400a614004613ffe7fcd2b4e62cfe22ecc5a38c25a2dce9e2dd3a29a3e10fa499505b5bfb6aec9b12395610cf0565b92611a1d565b92611a1d565b92614013610152565b8061401d816101bc565b0390a4565b6140729193508761404861403961404f9386612ea2565b61404283610ffd565b906143a9565b9401611043565b6140596002611043565b61406c85614065612f1e565b8991614273565b91611e13565b8b5f613fa5565b61409a915060203d81116140a0575b6140928183610c1c565b810190612f72565b5f613f3a565b503d614088565b610e1a565b6140cb905f3d81116140d1575b6140c38183610c1c565b810190612b46565b5f613ec7565b503d6140b9565b610e1a565b610dc7565b63ffffffff1690565b63ffffffff60e01b1690565b61410b614106614110926140e2565b610dcb565b6140eb565b90565b9061415a61415f9361414b6004949361413263a9059cbb9193916140f7565b9261413b610152565b9687946020860190815201611e47565b60208201810382520383610c1c565b6143ef565b565b60049261419b6141af95936141aa93946141826323b872dd929491926140f7565b9361418b610152565b9788956020870190815201612ec7565b60208201810382520383610c1c565b6143ef565b565b916141be6141c693611d23565b9190916144d3565b565b6141d46141da91612efc565b91612efc565b90039060ff82116141e757565b612e8e565b6141f590612efc565b604d811161420357600a0a90565b612e8e565b61421761421d919392936102b8565b926102b8565b916142298382026102b8565b92818404149015171561423857565b612e8e565b634e487b7160e01b5f52601260045260245ffd5b61425d614263916102b8565b916102b8565b90811561426e570490565b61423d565b9161427c610bba565b508161429061428a83612efc565b91612efc565b115f146142b6576142a86142ad916142b394936141c8565b6141ec565b90614251565b90565b90806142ca6142c484612efc565b91612efc565b105f146142f0576142e26142e7916142ed94936141c8565b6141ec565b90614208565b90565b505090565b6142fe5f611043565b614308825f610d35565b9061433c6143367f8be0079c531659141344cd1fd0a4f28419497f9722a3daafe3b4186f6b6457e093610cf0565b91610cf0565b91614345610152565b8061434f816101bc565b0390a3565b90565b61436b61436661437092614354565b6109f0565b6102b8565b90565b614384670de0b6b3a7640000614357565b90565b614393614399916102b8565b916102b8565b9081156143a4570490565b61423d565b6143cd916143bf916143b9610bba565b50614208565b6143c7614373565b90614387565b90565b90565b6143e76143e26143ec926143d0565b6109f0565b6102b8565b90565b905f6020916143fc610bba565b50614405610bba565b50828151910182855af115614498573d5f519061442a6144245f61132b565b916102b8565b145f1461447e575061443b81611d2f565b3b61444e6144485f61132b565b916102b8565b145b6144575750565b61446361447a91611d2f565b5f918291635274afe760e01b83526004830161031f565b0390fd5b61449161448b60016143d3565b916102b8565b1415614450565b6040513d5f823e3d90fd5b6144ac9061132b565b9052565b9160206144d19294936144ca60408201965f830190610312565b01906144a3565b565b909161451660049161450763095ea7b36144ee8793916140f7565b926144f7610152565b9586946020860190815201611e47565b60208201810382520382610c1c565b9061452b61452582849061458f565b1561037c565b614535575b505050565b61458260046145879461457d849161456e63095ea7b36145555f916140f7565b9261455e610152565b96879460208601908152016144b0565b60208201810382520383610c1c565b6143ef565b6143ef565b5f8080614530565b905f60209161459c611abf565b506145a5611abf565b506145ae610bba565b506145b7610bba565b50828151910182855af13d915f519192836145d3575b50505090565b909192506145e96145e35f61132b565b916102b8565b145f14614617576145fa9150611d2f565b3b61460d6146075f61132b565b916102b8565b115b5f80806145cd565b5061462b61462560016143d3565b916102b8565b1461460f56fea264697066735822122014b1f93fae092c0e06fd773194c53eca2271d7b1663be489e0907d96811132e064736f6c634300081e0033","linkReferences":{}},"methodIdentifiers":{"acceptOwnership()":"79ba5097","addSupportedCollateralTokens((address,bytes32,address)[])":"2ec23d66","getTreasury()":"3b19e84a","getUserLeveragePosition(address,uint256)":"642afd92","getUserLeveragePositions(address)":"544e5eca","getYieldFee()":"3819e5d3","i_flashLeverageCore()":"f6a5c87c","i_pendleRouter()":"dd2a7a17","isSupportedCollateralToken(address)":"ba02a005","leverage(address,(uint256,address,address,uint256,(uint256,uint256,uint256,uint256,uint256),address,address,uint256,(uint8,address,bytes,bool),(address,uint256,((uint256,uint256,uint256,uint8,address,address,address,address,uint256,uint256,uint256,bytes),bytes,uint256)[],((uint256,uint256,uint256,uint8,address,address,address,address,uint256,uint256,uint256,bytes),bytes,uint256)[],bytes)))":"70f5585f","owner()":"8da5cb5b","pendingOwner()":"e30c3978","recover(address)":"0cd865ec","renounceOwnership()":"715018a6","swapAndLeverage(address,(address,uint256,uint256,(uint256,uint256,uint256,uint256,uint256),address,address,(uint8,address,bytes,bool),(address,uint256,((uint256,uint256,uint256,uint8,address,address,address,address,uint256,uint256,uint256,bytes),bytes,uint256)[],((uint256,uint256,uint256,uint8,address,address,address,address,uint256,uint256,uint256,bytes),bytes,uint256)[],bytes)),(uint256,address,address,uint256,(uint256,uint256,uint256,uint256,uint256),address,address,uint256,(uint8,address,bytes,bool),(address,uint256,((uint256,uint256,uint256,uint8,address,address,address,address,uint256,uint256,uint256,bytes),bytes,uint256)[],((uint256,uint256,uint256,uint8,address,address,address,address,uint256,uint256,uint256,bytes),bytes,uint256)[],bytes)))":"568fb21c","transferOwnership(address)":"f2fde38b","unleverage(address,uint256,address,address,uint256,(uint8,address,bytes,bool),(address,uint256,((uint256,uint256,uint256,uint8,address,address,address,address,uint256,uint256,uint256,bytes),bytes,uint256)[],((uint256,uint256,uint256,uint8,address,address,address,address,uint256,uint256,uint256,bytes),bytes,uint256)[],bytes))":"dad87911","updateTreasury(address)":"7f51bb1f","updateYieldFee(uint256)":"a1f19610"},"id":75}