{"abi":[{"type":"constructor","inputs":[{"name":"flashLeverageCore","type":"address","internalType":"address"},{"name":"pendleRouter","type":"address","internalType":"address"},{"name":"treasury","type":"address","internalType":"address"}],"stateMutability":"nonpayable"},{"type":"function","name":"acceptOwnership","inputs":[],"outputs":[],"stateMutability":"nonpayable"},{"type":"function","name":"addSupportedCollateralTokens","inputs":[{"name":"tokenConfigs","type":"tuple[]","internalType":"struct CollateralTokenConfig[]","components":[{"name":"collateralToken","type":"address","internalType":"address"},{"name":"morphoMarketId","type":"bytes32","internalType":"bytes32"},{"name":"pendleMarket","type":"address","internalType":"address"}]}],"outputs":[],"stateMutability":"nonpayable"},{"type":"function","name":"getTreasury","inputs":[],"outputs":[{"name":"","type":"address","internalType":"address"}],"stateMutability":"view"},{"type":"function","name":"getUserLeveragePosition","inputs":[{"name":"user","type":"address","internalType":"address"},{"name":"positionId","type":"uint256","internalType":"uint256"}],"outputs":[{"name":"","type":"tuple","internalType":"struct LeveragePosition","components":[{"name":"open","type":"bool","internalType":"bool"},{"name":"desiredLtv","type":"uint256","internalType":"uint256"},{"name":"collateralToken","type":"address","internalType":"address"},{"name":"loanToken","type":"address","internalType":"address"},{"name":"amountCollateral","type":"uint256","internalType":"uint256"},{"name":"amountCollateralInLoanToken","type":"uint256","internalType":"uint256"},{"name":"amountLeveragedCollateral","type":"uint256","internalType":"uint256"},{"name":"sharesBorrowed","type":"uint256","internalType":"uint256"}]}],"stateMutability":"view"},{"type":"function","name":"getUserLeveragePositions","inputs":[{"name":"user","type":"address","internalType":"address"}],"outputs":[{"name":"","type":"tuple[]","internalType":"struct LeveragePosition[]","components":[{"name":"open","type":"bool","internalType":"bool"},{"name":"desiredLtv","type":"uint256","internalType":"uint256"},{"name":"collateralToken","type":"address","internalType":"address"},{"name":"loanToken","type":"address","internalType":"address"},{"name":"amountCollateral","type":"uint256","internalType":"uint256"},{"name":"amountCollateralInLoanToken","type":"uint256","internalType":"uint256"},{"name":"amountLeveragedCollateral","type":"uint256","internalType":"uint256"},{"name":"sharesBorrowed","type":"uint256","internalType":"uint256"}]}],"stateMutability":"view"},{"type":"function","name":"getYieldFee","inputs":[],"outputs":[{"name":"","type":"uint256","internalType":"uint256"}],"stateMutability":"view"},{"type":"function","name":"i_flashLeverageCore","inputs":[],"outputs":[{"name":"","type":"address","internalType":"contract IFlashLeverageCore"}],"stateMutability":"view"},{"type":"function","name":"i_pendleRouter","inputs":[],"outputs":[{"name":"","type":"address","internalType":"contract IPAllActionV3"}],"stateMutability":"view"},{"type":"function","name":"isSupportedCollateralToken","inputs":[{"name":"collateralToken","type":"address","internalType":"address"}],"outputs":[{"name":"","type":"bool","internalType":"bool"}],"stateMutability":"view"},{"type":"function","name":"leverage","inputs":[{"name":"onBehalfOf","type":"address","internalType":"address"},{"name":"leverageParams","type":"tuple","internalType":"struct LeverageParams","components":[{"name":"desiredLtv","type":"uint256","internalType":"uint256"},{"name":"collateralToken","type":"address","internalType":"address"},{"name":"loanToken","type":"address","internalType":"address"},{"name":"amountCollateral","type":"uint256","internalType":"uint256"},{"name":"approxParams","type":"tuple","internalType":"struct ApproxParams","components":[{"name":"guessMin","type":"uint256","internalType":"uint256"},{"name":"guessMax","type":"uint256","internalType":"uint256"},{"name":"guessOffchain","type":"uint256","internalType":"uint256"},{"name":"maxIteration","type":"uint256","internalType":"uint256"},{"name":"eps","type":"uint256","internalType":"uint256"}]},{"name":"pendleSwap","type":"address","internalType":"address"},{"name":"tokenMintSy","type":"address","internalType":"address"},{"name":"minPtOut","type":"uint256","internalType":"uint256"},{"name":"swapData","type":"tuple","internalType":"struct SwapData","components":[{"name":"swapType","type":"uint8","internalType":"enum SwapType"},{"name":"extRouter","type":"address","internalType":"address"},{"name":"extCalldata","type":"bytes","internalType":"bytes"},{"name":"needScale","type":"bool","internalType":"bool"}]},{"name":"limitOrderData","type":"tuple","internalType":"struct LimitOrderData","components":[{"name":"limitRouter","type":"address","internalType":"address"},{"name":"epsSkipMarket","type":"uint256","internalType":"uint256"},{"name":"normalFills","type":"tuple[]","internalType":"struct FillOrderParams[]","components":[{"name":"order","type":"tuple","internalType":"struct Order","components":[{"name":"salt","type":"uint256","internalType":"uint256"},{"name":"expiry","type":"uint256","internalType":"uint256"},{"name":"nonce","type":"uint256","internalType":"uint256"},{"name":"orderType","type":"uint8","internalType":"enum IPLimitOrderType.OrderType"},{"name":"token","type":"address","internalType":"address"},{"name":"YT","type":"address","internalType":"address"},{"name":"maker","type":"address","internalType":"address"},{"name":"receiver","type":"address","internalType":"address"},{"name":"makingAmount","type":"uint256","internalType":"uint256"},{"name":"lnImpliedRate","type":"uint256","internalType":"uint256"},{"name":"failSafeRate","type":"uint256","internalType":"uint256"},{"name":"permit","type":"bytes","internalType":"bytes"}]},{"name":"signature","type":"bytes","internalType":"bytes"},{"name":"makingAmount","type":"uint256","internalType":"uint256"}]},{"name":"flashFills","type":"tuple[]","internalType":"struct FillOrderParams[]","components":[{"name":"order","type":"tuple","internalType":"struct Order","components":[{"name":"salt","type":"uint256","internalType":"uint256"},{"name":"expiry","type":"uint256","internalType":"uint256"},{"name":"nonce","type":"uint256","internalType":"uint256"},{"name":"orderType","type":"uint8","internalType":"enum IPLimitOrderType.OrderType"},{"name":"token","type":"address","internalType":"address"},{"name":"YT","type":"address","internalType":"address"},{"name":"maker","type":"address","internalType":"address"},{"name":"receiver","type":"address","internalType":"address"},{"name":"makingAmount","type":"uint256","internalType":"uint256"},{"name":"lnImpliedRate","type":"uint256","internalType":"uint256"},{"name":"failSafeRate","type":"uint256","internalType":"uint256"},{"name":"permit","type":"bytes","internalType":"bytes"}]},{"name":"signature","type":"bytes","internalType":"bytes"},{"name":"makingAmount","type":"uint256","internalType":"uint256"}]},{"name":"optData","type":"bytes","internalType":"bytes"}]}]}],"outputs":[],"stateMutability":"nonpayable"},{"type":"function","name":"owner","inputs":[],"outputs":[{"name":"","type":"address","internalType":"address"}],"stateMutability":"view"},{"type":"function","name":"pendingOwner","inputs":[],"outputs":[{"name":"","type":"address","internalType":"address"}],"stateMutability":"view"},{"type":"function","name":"recover","inputs":[{"name":"token","type":"address","internalType":"address"}],"outputs":[],"stateMutability":"nonpayable"},{"type":"function","name":"renounceOwnership","inputs":[],"outputs":[],"stateMutability":"nonpayable"},{"type":"function","name":"swapAndLeverage","inputs":[{"name":"onBehalfOf","type":"address","internalType":"address"},{"name":"swapParams","type":"tuple","internalType":"struct SwapParams","components":[{"name":"tokenIn","type":"address","internalType":"address"},{"name":"amountTokenIn","type":"uint256","internalType":"uint256"},{"name":"minPtOut","type":"uint256","internalType":"uint256"},{"name":"approxParams","type":"tuple","internalType":"struct ApproxParams","components":[{"name":"guessMin","type":"uint256","internalType":"uint256"},{"name":"guessMax","type":"uint256","internalType":"uint256"},{"name":"guessOffchain","type":"uint256","internalType":"uint256"},{"name":"maxIteration","type":"uint256","internalType":"uint256"},{"name":"eps","type":"uint256","internalType":"uint256"}]},{"name":"pendleSwap","type":"address","internalType":"address"},{"name":"tokenMintSy","type":"address","internalType":"address"},{"name":"swapData","type":"tuple","internalType":"struct SwapData","components":[{"name":"swapType","type":"uint8","internalType":"enum SwapType"},{"name":"extRouter","type":"address","internalType":"address"},{"name":"extCalldata","type":"bytes","internalType":"bytes"},{"name":"needScale","type":"bool","internalType":"bool"}]},{"name":"limitOrderData","type":"tuple","internalType":"struct LimitOrderData","components":[{"name":"limitRouter","type":"address","internalType":"address"},{"name":"epsSkipMarket","type":"uint256","internalType":"uint256"},{"name":"normalFills","type":"tuple[]","internalType":"struct FillOrderParams[]","components":[{"name":"order","type":"tuple","internalType":"struct Order","components":[{"name":"salt","type":"uint256","internalType":"uint256"},{"name":"expiry","type":"uint256","internalType":"uint256"},{"name":"nonce","type":"uint256","internalType":"uint256"},{"name":"orderType","type":"uint8","internalType":"enum IPLimitOrderType.OrderType"},{"name":"token","type":"address","internalType":"address"},{"name":"YT","type":"address","internalType":"address"},{"name":"maker","type":"address","internalType":"address"},{"name":"receiver","type":"address","internalType":"address"},{"name":"makingAmount","type":"uint256","internalType":"uint256"},{"name":"lnImpliedRate","type":"uint256","internalType":"uint256"},{"name":"failSafeRate","type":"uint256","internalType":"uint256"},{"name":"permit","type":"bytes","internalType":"bytes"}]},{"name":"signature","type":"bytes","internalType":"bytes"},{"name":"makingAmount","type":"uint256","internalType":"uint256"}]},{"name":"flashFills","type":"tuple[]","internalType":"struct FillOrderParams[]","components":[{"name":"order","type":"tuple","internalType":"struct Order","components":[{"name":"salt","type":"uint256","internalType":"uint256"},{"name":"expiry","type":"uint256","internalType":"uint256"},{"name":"nonce","type":"uint256","internalType":"uint256"},{"name":"orderType","type":"uint8","internalType":"enum IPLimitOrderType.OrderType"},{"name":"token","type":"address","internalType":"address"},{"name":"YT","type":"address","internalType":"address"},{"name":"maker","type":"address","internalType":"address"},{"name":"receiver","type":"address","internalType":"address"},{"name":"makingAmount","type":"uint256","internalType":"uint256"},{"name":"lnImpliedRate","type":"uint256","internalType":"uint256"},{"name":"failSafeRate","type":"uint256","internalType":"uint256"},{"name":"permit","type":"bytes","internalType":"bytes"}]},{"name":"signature","type":"bytes","internalType":"bytes"},{"name":"makingAmount","type":"uint256","internalType":"uint256"}]},{"name":"optData","type":"bytes","internalType":"bytes"}]}]},{"name":"leverageParams","type":"tuple","internalType":"struct LeverageParams","components":[{"name":"desiredLtv","type":"uint256","internalType":"uint256"},{"name":"collateralToken","type":"address","internalType":"address"},{"name":"loanToken","type":"address","internalType":"address"},{"name":"amountCollateral","type":"uint256","internalType":"uint256"},{"name":"approxParams","type":"tuple","internalType":"struct ApproxParams","components":[{"name":"guessMin","type":"uint256","internalType":"uint256"},{"name":"guessMax","type":"uint256","internalType":"uint256"},{"name":"guessOffchain","type":"uint256","internalType":"uint256"},{"name":"maxIteration","type":"uint256","internalType":"uint256"},{"name":"eps","type":"uint256","internalType":"uint256"}]},{"name":"pendleSwap","type":"address","internalType":"address"},{"name":"tokenMintSy","type":"address","internalType":"address"},{"name":"minPtOut","type":"uint256","internalType":"uint256"},{"name":"swapData","type":"tuple","internalType":"struct SwapData","components":[{"name":"swapType","type":"uint8","internalType":"enum SwapType"},{"name":"extRouter","type":"address","internalType":"address"},{"name":"extCalldata","type":"bytes","internalType":"bytes"},{"name":"needScale","type":"bool","internalType":"bool"}]},{"name":"limitOrderData","type":"tuple","internalType":"struct LimitOrderData","components":[{"name":"limitRouter","type":"address","internalType":"address"},{"name":"epsSkipMarket","type":"uint256","internalType":"uint256"},{"name":"normalFills","type":"tuple[]","internalType":"struct FillOrderParams[]","components":[{"name":"order","type":"tuple","internalType":"struct Order","components":[{"name":"salt","type":"uint256","internalType":"uint256"},{"name":"expiry","type":"uint256","internalType":"uint256"},{"name":"nonce","type":"uint256","internalType":"uint256"},{"name":"orderType","type":"uint8","internalType":"enum IPLimitOrderType.OrderType"},{"name":"token","type":"address","internalType":"address"},{"name":"YT","type":"address","internalType":"address"},{"name":"maker","type":"address","internalType":"address"},{"name":"receiver","type":"address","internalType":"address"},{"name":"makingAmount","type":"uint256","internalType":"uint256"},{"name":"lnImpliedRate","type":"uint256","internalType":"uint256"},{"name":"failSafeRate","type":"uint256","internalType":"uint256"},{"name":"permit","type":"bytes","internalType":"bytes"}]},{"name":"signature","type":"bytes","internalType":"bytes"},{"name":"makingAmount","type":"uint256","internalType":"uint256"}]},{"name":"flashFills","type":"tuple[]","internalType":"struct FillOrderParams[]","components":[{"name":"order","type":"tuple","internalType":"struct Order","components":[{"name":"salt","type":"uint256","internalType":"uint256"},{"name":"expiry","type":"uint256","internalType":"uint256"},{"name":"nonce","type":"uint256","internalType":"uint256"},{"name":"orderType","type":"uint8","internalType":"enum IPLimitOrderType.OrderType"},{"name":"token","type":"address","internalType":"address"},{"name":"YT","type":"address","internalType":"address"},{"name":"maker","type":"address","internalType":"address"},{"name":"receiver","type":"address","internalType":"address"},{"name":"makingAmount","type":"uint256","internalType":"uint256"},{"name":"lnImpliedRate","type":"uint256","internalType":"uint256"},{"name":"failSafeRate","type":"uint256","internalType":"uint256"},{"name":"permit","type":"bytes","internalType":"bytes"}]},{"name":"signature","type":"bytes","internalType":"bytes"},{"name":"makingAmount","type":"uint256","internalType":"uint256"}]},{"name":"optData","type":"bytes","internalType":"bytes"}]}]}],"outputs":[],"stateMutability":"nonpayable"},{"type":"function","name":"transferOwnership","inputs":[{"name":"newOwner","type":"address","internalType":"address"}],"outputs":[],"stateMutability":"nonpayable"},{"type":"function","name":"unleverage","inputs":[{"name":"user","type":"address","internalType":"address"},{"name":"positionId","type":"uint256","internalType":"uint256"},{"name":"pendleSwap","type":"address","internalType":"address"},{"name":"tokenRedeemSy","type":"address","internalType":"address"},{"name":"minTokenOut","type":"uint256","internalType":"uint256"},{"name":"swapData","type":"tuple","internalType":"struct SwapData","components":[{"name":"swapType","type":"uint8","internalType":"enum SwapType"},{"name":"extRouter","type":"address","internalType":"address"},{"name":"extCalldata","type":"bytes","internalType":"bytes"},{"name":"needScale","type":"bool","internalType":"bool"}]},{"name":"limitOrderData","type":"tuple","internalType":"struct LimitOrderData","components":[{"name":"limitRouter","type":"address","internalType":"address"},{"name":"epsSkipMarket","type":"uint256","internalType":"uint256"},{"name":"normalFills","type":"tuple[]","internalType":"struct FillOrderParams[]","components":[{"name":"order","type":"tuple","internalType":"struct Order","components":[{"name":"salt","type":"uint256","internalType":"uint256"},{"name":"expiry","type":"uint256","internalType":"uint256"},{"name":"nonce","type":"uint256","internalType":"uint256"},{"name":"orderType","type":"uint8","internalType":"enum IPLimitOrderType.OrderType"},{"name":"token","type":"address","internalType":"address"},{"name":"YT","type":"address","internalType":"address"},{"name":"maker","type":"address","internalType":"address"},{"name":"receiver","type":"address","internalType":"address"},{"name":"makingAmount","type":"uint256","internalType":"uint256"},{"name":"lnImpliedRate","type":"uint256","internalType":"uint256"},{"name":"failSafeRate","type":"uint256","internalType":"uint256"},{"name":"permit","type":"bytes","internalType":"bytes"}]},{"name":"signature","type":"bytes","internalType":"bytes"},{"name":"makingAmount","type":"uint256","internalType":"uint256"}]},{"name":"flashFills","type":"tuple[]","internalType":"struct FillOrderParams[]","components":[{"name":"order","type":"tuple","internalType":"struct Order","components":[{"name":"salt","type":"uint256","internalType":"uint256"},{"name":"expiry","type":"uint256","internalType":"uint256"},{"name":"nonce","type":"uint256","internalType":"uint256"},{"name":"orderType","type":"uint8","internalType":"enum IPLimitOrderType.OrderType"},{"name":"token","type":"address","internalType":"address"},{"name":"YT","type":"address","internalType":"address"},{"name":"maker","type":"address","internalType":"address"},{"name":"receiver","type":"address","internalType":"address"},{"name":"makingAmount","type":"uint256","internalType":"uint256"},{"name":"lnImpliedRate","type":"uint256","internalType":"uint256"},{"name":"failSafeRate","type":"uint256","internalType":"uint256"},{"name":"permit","type":"bytes","internalType":"bytes"}]},{"name":"signature","type":"bytes","internalType":"bytes"},{"name":"makingAmount","type":"uint256","internalType":"uint256"}]},{"name":"optData","type":"bytes","internalType":"bytes"}]}],"outputs":[{"name":"amountReturned","type":"uint256","internalType":"uint256"}],"stateMutability":"nonpayable"},{"type":"function","name":"updateTreasury","inputs":[{"name":"newTreasury","type":"address","internalType":"address"}],"outputs":[],"stateMutability":"nonpayable"},{"type":"function","name":"updateYieldFee","inputs":[{"name":"newYieldFee","type":"uint256","internalType":"uint256"}],"outputs":[],"stateMutability":"nonpayable"},{"type":"event","name":"LeveragePositionClosed","inputs":[{"name":"user","type":"address","indexed":true,"internalType":"address"},{"name":"positionId","type":"uint256","indexed":true,"internalType":"uint256"},{"name":"amountReturnedInLoanToken","type":"uint256","indexed":true,"internalType":"uint256"}],"anonymous":false},{"type":"event","name":"LeveragePositionOpened","inputs":[{"name":"user","type":"address","indexed":true,"internalType":"address"},{"name":"positionId","type":"uint256","indexed":true,"internalType":"uint256"},{"name":"amountDepositedInLoanToken","type":"uint256","indexed":true,"internalType":"uint256"}],"anonymous":false},{"type":"event","name":"OwnershipTransferStarted","inputs":[{"name":"previousOwner","type":"address","indexed":true,"internalType":"address"},{"name":"newOwner","type":"address","indexed":true,"internalType":"address"}],"anonymous":false},{"type":"event","name":"OwnershipTransferred","inputs":[{"name":"previousOwner","type":"address","indexed":true,"internalType":"address"},{"name":"newOwner","type":"address","indexed":true,"internalType":"address"}],"anonymous":false},{"type":"error","name":"FlashLeverage__AmountCannotBeZero","inputs":[]},{"type":"error","name":"FlashLeverage__AmountMismatch","inputs":[]},{"type":"error","name":"FlashLeverage__CannotBeZeroAddress","inputs":[]},{"type":"error","name":"FlashLeverage__ExceedsMaxLTV","inputs":[]},{"type":"error","name":"FlashLeverage__InvalidCollateralToken","inputs":[]},{"type":"error","name":"FlashLeverage__InvalidOnBehalfOfAddress","inputs":[]},{"type":"error","name":"FlashLeverage__InvalidYieldFee","inputs":[]},{"type":"error","name":"FlashLeverage__OnlyOwnerCanCloseBeforeMaturity","inputs":[]},{"type":"error","name":"FlashLeverage__PositionAlreadyUnleveraged","inputs":[]},{"type":"error","name":"FlashLeverage__PositionDoesNotExist","inputs":[]},{"type":"error","name":"FlashLeverage__TreasuryCannotBeZero","inputs":[]},{"type":"error","name":"FlashLeverage__UnsupportedCollateralToken","inputs":[]},{"type":"error","name":"OwnableInvalidOwner","inputs":[{"name":"owner","type":"address","internalType":"address"}]},{"type":"error","name":"OwnableUnauthorizedAccount","inputs":[{"name":"account","type":"address","internalType":"address"}]},{"type":"error","name":"SafeERC20FailedOperation","inputs":[{"name":"token","type":"address","internalType":"address"}]}],"bytecode":{"object":"0x60c03461019957601f6135df38819003918201601f19168301916001600160401b0383118484101761019d5780849260609460405283398101031261019957610047816101b1565b906100606040610059602084016101b1565b92016101b1565b90331561018657600180546001600160a01b03199081169091555f805433928116831782556040519592916001600160a01b03909116907f8be0079c531659141344cd1fd0a4f28419497f9722a3daafe3b4186f6b6457e09080a36001600160a01b031680158015610175575b8015610164575b6101555760a0526001600160a01b03908116608052600280546001600160a01b0319169290911691909117905567016345785d8a000060035561341990816101c682396080518181816102b8015261132e015260a051818181610135015281816104c201528181610ed501528181611260015281816119da01526127c40152f35b637938257360e11b5f5260045ffd5b506001600160a01b038316156100d4565b506001600160a01b038216156100cd565b631e4fbdf760e01b5f525f60045260245ffd5b5f80fd5b634e487b7160e01b5f52604160045260245ffd5b51906001600160a01b03821682036101995756fe60806040526004361015610011575f80fd5b5f5f3560e01c80630cd865ec14611d575780632ec23d66146119605780633819e5d3146119255780633b19e84a146118d4578063544e5eca14611767578063568fb21c14611127578063642afd9214610ffd57806370f5585f14610d92578063715018a614610d6257806379ba509714610c5c5780637f51bb1f14610bac5780638da5cb5b14610b5c578063a1f1961014610ad5578063ba02a00514610a52578063dad87911146102dc578063dd2a7a171461026d578063e30c39781461021b578063f2fde38b1461015c5763f6a5c87c146100eb575f80fd5b3461015957807ffffffffffffffffffffffffffffffffffffffffffffffffffffffffffffffffc36011261015957602060405173ffffffffffffffffffffffffffffffffffffffff7f0000000000000000000000000000000000000000000000000000000000000000168152f35b80fd5b50346101595760207ffffffffffffffffffffffffffffffffffffffffffffffffffffffffffffffffc3601126101595773ffffffffffffffffffffffffffffffffffffffff6101a9611daa565b6101b1611faf565b16807fffffffffffffffffffffffff0000000000000000000000000000000000000000600154161760015573ffffffffffffffffffffffffffffffffffffffff8254167f38d16b8cac22d99fc7c124b9cd0de2d3fa1faef420bfe791d8c362d765e227008380a380f35b503461015957807ffffffffffffffffffffffffffffffffffffffffffffffffffffffffffffffffc36011261015957602073ffffffffffffffffffffffffffffffffffffffff60015416604051908152f35b503461015957807ffffffffffffffffffffffffffffffffffffffffffffffffffffffffffffffffc36011261015957602060405173ffffffffffffffffffffffffffffffffffffffff7f0000000000000000000000000000000000000000000000000000000000000000168152f35b50346109735760e07ffffffffffffffffffffffffffffffffffffffffffffffffffffffffffffffffc36011261097357610314611daa565b906024359160443573ffffffffffffffffffffffffffffffffffffffff8116809103610973576064359073ffffffffffffffffffffffffffffffffffffffff82168092036109735760a4359167ffffffffffffffff83116109735760807ffffffffffffffffffffffffffffffffffffffffffffffffffffffffffffffffc84360301126109735760c4359267ffffffffffffffff84116109735760a07ffffffffffffffffffffffffffffffffffffffffffffffffffffffffffffffffc85360301126109735773ffffffffffffffffffffffffffffffffffffffff851693845f52600560205260405f2054881015610a2a57845f52600560205261041b8860405f20611f69565b509273ffffffffffffffffffffffffffffffffffffffff60028501541692835f5260046020526004602073ffffffffffffffffffffffffffffffffffffffff60405f205416604051928380927f2f13b60c0000000000000000000000000000000000000000000000000000000082525afa908115610968575f916109fb575b50156109cc575b60ff855416156109a45773ffffffffffffffffffffffffffffffffffffffff7f00000000000000000000000000000000000000000000000000000000000000001692600386019673ffffffffffffffffffffffffffffffffffffffff8854169260018801549460078901549260068a015460405197610140890189811067ffffffffffffffff82111761097757604052885260208801998a5260408801968752606088019485526080880190815260a0880191825260c0880192835261057460e089019460843586523690600401612215565b9461010089019586526040519661058a88611e0a565b61059681600401611dcd565b885260248101356020890152604481013567ffffffffffffffff8111610973576105c69060043691840101612f0b565b6040890152606481013567ffffffffffffffff8111610973576105ef9060043691840101612f0b565b606089015260848101359067ffffffffffffffff821161097357600461061892369201016121c2565b60808801526101208901968752893b15610973578d976040519b8c9a8b9a7f7130fa49000000000000000000000000000000000000000000000000000000008c5260048c015260248b01604090525160448b01525173ffffffffffffffffffffffffffffffffffffffff1660648a01525173ffffffffffffffffffffffffffffffffffffffff1660848901525160a48801525160c48701525173ffffffffffffffffffffffffffffffffffffffff1660e48601525173ffffffffffffffffffffffffffffffffffffffff16610104850152516101248401525161014483016101409052610184830161070991612316565b90518282037fffffffffffffffffffffffffffffffffffffffffffffffffffffffffffffffbc01610164840152805173ffffffffffffffffffffffffffffffffffffffff1682526020810151602083015260408101516040830160a0905260a08301610774916130e8565b606082015190838103606085015261078b916130e8565b90608001519180820390608001526107a2916122d3565b03815a5f948591f1801561096857610953575b507fffffffffffffffffffffffffffffffffffffffffffffffffffffffffffffff00815416815573ffffffffffffffffffffffffffffffffffffffff825416604051907f313ce567000000000000000000000000000000000000000000000000000000008252602082600481845afa9182156109485773ffffffffffffffffffffffffffffffffffffffff959361089f9360209a9693610893938b9261090d575b5061086982600561088e949501546132d4565b9061087c8461087783611fcf565b6132d4565b908c928083116108ca575b5050612731565b613320565b95869586925416612067565b7fcd2b4e62cfe22ecc5a38c25a2dce9e2dd3a29a3e10fa499505b5bfb6aec9b1236040519580a48152f35b6109069193506108ef6108e6670de0b6b3a76400009285612731565b6003549061328a565b04928b600254166109008786613320565b91612067565b5f80610887565b61088e9250600593610938610869928f3d602011610941575b6109308183611e43565b81019061276b565b93509350610856565b503d610926565b6040513d89823e3d90fd5b6109609195505f90611e43565b5f935f6107b5565b6040513d5f823e3d90fd5b5f80fd5b7f4e487b71000000000000000000000000000000000000000000000000000000005f52604160045260245ffd5b7f891e6c9f000000000000000000000000000000000000000000000000000000005f5260045ffd5b3387146104a1577ff39ebff9000000000000000000000000000000000000000000000000000000005f5260045ffd5b610a1d915060203d602011610a23575b610a158183611e43565b81019061213d565b5f61049a565b503d610a0b565b7f33a9e83f000000000000000000000000000000000000000000000000000000005f5260045ffd5b346109735760207ffffffffffffffffffffffffffffffffffffffffffffffffffffffffffffffffc360112610973576020610acb610a8e611daa565b73ffffffffffffffffffffffffffffffffffffffff165f52600460205273ffffffffffffffffffffffffffffffffffffffff60405f205416151590565b6040519015158152f35b346109735760207ffffffffffffffffffffffffffffffffffffffffffffffffffffffffffffffffc36011261097357600435610b0f611faf565b80151580610b4a575b15610b2257600355005b7f2f2daf28000000000000000000000000000000000000000000000000000000005f5260045ffd5b5067016345785d8a0000811115610b18565b34610973575f7ffffffffffffffffffffffffffffffffffffffffffffffffffffffffffffffffc36011261097357602073ffffffffffffffffffffffffffffffffffffffff5f5416604051908152f35b346109735760207ffffffffffffffffffffffffffffffffffffffffffffffffffffffffffffffffc3601126109735773ffffffffffffffffffffffffffffffffffffffff610bf8611daa565b610c00611faf565b168015610c34577fffffffffffffffffffffffff000000000000000000000000000000000000000060025416176002555f80f35b7f11747d5a000000000000000000000000000000000000000000000000000000005f5260045ffd5b34610973575f7ffffffffffffffffffffffffffffffffffffffffffffffffffffffffffffffffc360112610973576001543373ffffffffffffffffffffffffffffffffffffffff821603610d36577fffffffffffffffffffffffff0000000000000000000000000000000000000000166001555f54337fffffffffffffffffffffffff00000000000000000000000000000000000000008216175f5573ffffffffffffffffffffffffffffffffffffffff3391167f8be0079c531659141344cd1fd0a4f28419497f9722a3daafe3b4186f6b6457e05f80a3005b7f118cdaa7000000000000000000000000000000000000000000000000000000005f523360045260245ffd5b34610973575f7ffffffffffffffffffffffffffffffffffffffffffffffffffffffffffffffffc36011261097357005b346109735760407ffffffffffffffffffffffffffffffffffffffffffffffffffffffffffffffffc36011261097357610dc9611daa565b6024359067ffffffffffffffff82116109735781600401906101c07ffffffffffffffffffffffffffffffffffffffffffffffffffffffffffffffffc84360301126109735773ffffffffffffffffffffffffffffffffffffffff811615610fd55760248301610e3a610a8e82611f48565b15610fad576064840135938415610f85576020610ebc91610e666044610e5f86611f48565b9201611f48565b6040517f62fd6add00000000000000000000000000000000000000000000000000000000815273ffffffffffffffffffffffffffffffffffffffff92831660048201529116602482015291829081906044820190565b038173ffffffffffffffffffffffffffffffffffffffff7f0000000000000000000000000000000000000000000000000000000000000000165afa908115610968575f91610f53575b50833511610f2b57610f2993610f1d610f2492611f48565b3390612155565b612784565b005b7fdcbc554e000000000000000000000000000000000000000000000000000000005f5260045ffd5b90506020813d602011610f7d575b81610f6e60209383611e43565b81010312610973575185610f05565b3d9150610f61565b7fb02cb97d000000000000000000000000000000000000000000000000000000005f5260045ffd5b7f0f971137000000000000000000000000000000000000000000000000000000005f5260045ffd5b7f0ab1942c000000000000000000000000000000000000000000000000000000005f5260045ffd5b346109735760407ffffffffffffffffffffffffffffffffffffffffffffffffffffffffffffffffc3601126109735773ffffffffffffffffffffffffffffffffffffffff611049611daa565b5f60e060405161105881611e26565b8281528260208201528260408201528260608201528260808201528260a08201528260c08201520152165f5260056020526101006110a461109e60243560405f20611f69565b50611ebd565b611125604051809260e080918051151584526020810151602085015273ffffffffffffffffffffffffffffffffffffffff604082015116604085015273ffffffffffffffffffffffffffffffffffffffff60608201511660608501526080810151608085015260a081015160a085015260c081015160c08501520151910152565bf35b346109735760607ffffffffffffffffffffffffffffffffffffffffffffffffffffffffffffffffc3601126109735761115e611daa565b60243567ffffffffffffffff8111610973578060040191813603926101807ffffffffffffffffffffffffffffffffffffffffffffffffffffffffffffffffc850112610973576044359067ffffffffffffffff82116109735781600401936101c07ffffffffffffffffffffffffffffffffffffffffffffffffffffffffffffffffc84360301126109735773ffffffffffffffffffffffffffffffffffffffff841615610fd5576024830195611216610a8e88611f48565b15610fad576024820135928315610f85576064850135948515610f8557602061124791610e666044610e5f8d611f48565b038173ffffffffffffffffffffffffffffffffffffffff7f0000000000000000000000000000000000000000000000000000000000000000165afa908115610968575f91611735575b50873511610f2b576112a584610f1d83611f48565b6112ae81611f48565b73ffffffffffffffffffffffffffffffffffffffff806112cd8b611f48565b16911614155f146116f8576112e188611f48565b9273ffffffffffffffffffffffffffffffffffffffff61130083611f48565b6040517f095ea7b30000000000000000000000000000000000000000000000000000000060208083019182527f0000000000000000000000000000000000000000000000000000000000000000851673ffffffffffffffffffffffffffffffffffffffff8116602485015260448085018c905284529893851692915f90611388606485611e43565b83519082865af15f513d826116dc575b50501561167f575b5050165f5260046020526113ce73ffffffffffffffffffffffffffffffffffffffff60405f20541692611f48565b926113dc6101248301611f48565b6113e96101048401611f48565b6101448401357fffffffffffffffffffffffffffffffffffffffffffffffffffffffffffffff7d84018112156109735761148f9073ffffffffffffffffffffffffffffffffffffffff6040519861143f8a611e0a565b16885260208801998a5273ffffffffffffffffffffffffffffffffffffffff604089019416845273ffffffffffffffffffffffffffffffffffffffff606089019316835260043691870101612215565b91608087019283527fffffffffffffffffffffffffffffffffffffffffffffffffffffffffffffff5d61016486013594018412156109735760405198899788977fc81f847a0000000000000000000000000000000000000000000000000000000089523060048a01526024890152604487013560448901526064880160648801906115419160808091803584526020810135602085015260408101356040850152606081013560608501520135910152565b610104880161014090525173ffffffffffffffffffffffffffffffffffffffff16610144880152516101648701525173ffffffffffffffffffffffffffffffffffffffff166101848601525173ffffffffffffffffffffffffffffffffffffffff166101a4850152516101c4840160a090526101e484016115c191612316565b918383037ffffffffffffffffffffffffffffffffffffffffffffffffffffffffffffffffc0161012485015201600401906115fb91612669565b03815a6060945f91f1801561096857611654575b508361162e611629611623610f2997611f48565b92611f48565b611fcf565b9180831161163f575b505050612784565b61164c9203903390612067565b838080611637565b606090813d8311611678575b61166a8183611e43565b81010312610973578461160f565b503d611660565b6116d5916116d06040517f095ea7b30000000000000000000000000000000000000000000000000000000060208201528a60248201525f6044820152604481526116ca606482611e43565b8261335c565b61335c565b8b806113a0565b9091506116f05750813b15155b8e80611398565b6001146116e9565b505050909193500361170d57610f2991612784565b7f282ba5aa000000000000000000000000000000000000000000000000000000005f5260045ffd5b90506020813d60201161175f575b8161175060209383611e43565b81010312610973575189611290565b3d9150611743565b346109735760207ffffffffffffffffffffffffffffffffffffffffffffffffffffffffffffffffc3601126109735773ffffffffffffffffffffffffffffffffffffffff6117b3611daa565b165f52600560205260405f208054906117cb82611ea5565b916117d96040519384611e43565b8083526020830180925f5260205f205f915b8383106118b6578486604051918291602083019060208452518091526040830191905f5b81811061181d575050500390f35b919350916020610100826118a8600194885160e080918051151584526020810151602085015273ffffffffffffffffffffffffffffffffffffffff604082015116604085015273ffffffffffffffffffffffffffffffffffffffff60608201511660608501526080810151608085015260a081015160a085015260c081015160c08501520151910152565b01940191019184939261180f565b600860206001926118c685611ebd565b8152019201920191906117eb565b34610973575f7ffffffffffffffffffffffffffffffffffffffffffffffffffffffffffffffffc36011261097357602073ffffffffffffffffffffffffffffffffffffffff60025416604051908152f35b34610973575f7ffffffffffffffffffffffffffffffffffffffffffffffffffffffffffffffffc360112610973576020600354604051908152f35b346109735760207ffffffffffffffffffffffffffffffffffffffffffffffffffffffffffffffffc3601126109735760043567ffffffffffffffff8111610973573660238201121561097357806004013567ffffffffffffffff811161097357366024606083028401011161097357906119d8611faf565b7f000000000000000000000000000000000000000000000000000000000000000073ffffffffffffffffffffffffffffffffffffffff16905f5b83811015610f295760608102820160607fffffffffffffffffffffffffffffffffffffffffffffffffffffffffffffffdc82360301126109735760405190611a5982611dee565b73ffffffffffffffffffffffffffffffffffffffff6040611a956064611a8160248601611dcd565b948587526044810135602088015201611dcd565b9301918383521691825f52600460205273ffffffffffffffffffffffffffffffffffffffff8060405f209216167fffffffffffffffffffffffff00000000000000000000000000000000000000008254161790558115611d2f57606073ffffffffffffffffffffffffffffffffffffffff6004925116604051928380927f2c8ce6bc0000000000000000000000000000000000000000000000000000000082525afa8015610968575f90611cc8575b73ffffffffffffffffffffffffffffffffffffffff9150168103611ca0575f80916040518260208201917f095ea7b30000000000000000000000000000000000000000000000000000000083528860248201527fffffffffffffffffffffffffffffffffffffffffffffffffffffffffffffffff604482015260448152611bcc606482611e43565b51925af13d15611c99573d611be081612103565b90611bee6040519283611e43565b81523d5f602083013e5b81611c6a575b5015611c0c57600101611a12565b60646040517f08c379a000000000000000000000000000000000000000000000000000000000815260206004820152600c60248201527f5361666520417070726f766500000000000000000000000000000000000000006044820152fd5b8051801592508215611c7f575b505085611bfe565b611c92925060208091830101910161213d565b8580611c77565b6060611bf8565b7f033da2b4000000000000000000000000000000000000000000000000000000005f5260045ffd5b506060813d8211611d27575b81611ce160609383611e43565b810103126109735780611d0873ffffffffffffffffffffffffffffffffffffffff92611e84565b50611d216040611d1a60208401611e84565b9201611e84565b50611b44565b3d9150611cd4565b7ff2704ae6000000000000000000000000000000000000000000000000000000005f5260045ffd5b346109735760207ffffffffffffffffffffffffffffffffffffffffffffffffffffffffffffffffc36011261097357610f29611d91611daa565b611d99611faf565b611da281611fcf565b903390612067565b6004359073ffffffffffffffffffffffffffffffffffffffff8216820361097357565b359073ffffffffffffffffffffffffffffffffffffffff8216820361097357565b6060810190811067ffffffffffffffff82111761097757604052565b60a0810190811067ffffffffffffffff82111761097757604052565b610100810190811067ffffffffffffffff82111761097757604052565b90601f7fffffffffffffffffffffffffffffffffffffffffffffffffffffffffffffffe0910116810190811067ffffffffffffffff82111761097757604052565b519073ffffffffffffffffffffffffffffffffffffffff8216820361097357565b67ffffffffffffffff81116109775760051b60200190565b90604051611eca81611e26565b60e06007829460ff815416151584526001810154602085015273ffffffffffffffffffffffffffffffffffffffff600282015416604085015273ffffffffffffffffffffffffffffffffffffffff600382015416606085015260048101546080850152600581015460a0850152600681015460c08501520154910152565b3573ffffffffffffffffffffffffffffffffffffffff811681036109735790565b8054821015611f82575f5260205f209060031b01905f90565b7f4e487b71000000000000000000000000000000000000000000000000000000005f52603260045260245ffd5b73ffffffffffffffffffffffffffffffffffffffff5f54163303610d3657565b73ffffffffffffffffffffffffffffffffffffffff1680611fef57504790565b6020602491604051928380927f70a082310000000000000000000000000000000000000000000000000000000082523060048301525afa908115610968575f91612038575b5090565b90506020813d60201161205f575b8161205360209383611e43565b81010312610973575190565b3d9150612046565b919081156120fe576040517fa9059cbb00000000000000000000000000000000000000000000000000000000602082015273ffffffffffffffffffffffffffffffffffffffff918216602482015260448101929092526120fc926120f683606481015b037fffffffffffffffffffffffffffffffffffffffffffffffffffffffffffffffe08101855284611e43565b1661335c565b565b505050565b67ffffffffffffffff811161097757601f017fffffffffffffffffffffffffffffffffffffffffffffffffffffffffffffffe01660200190565b90816020910312610973575180151581036109735790565b919081156120fe576040517f23b872dd00000000000000000000000000000000000000000000000000000000602082015273ffffffffffffffffffffffffffffffffffffffff918216602482015230604482015260648101929092526120fc926120f683608481016120ca565b81601f82011215610973578035906121d982612103565b926121e76040519485611e43565b8284526020838301011161097357815f926020809301838601378301015290565b3590811515820361097357565b91909160808184031261097357604051906080820182811067ffffffffffffffff8211176109775760405281938135600b81101561097357835261225b60208301611dcd565b602084015260408201359067ffffffffffffffff8211610973578261228960609492612294948694016121c2565b604086015201612208565b910152565b90600b8210156122a65752565b7f4e487b71000000000000000000000000000000000000000000000000000000005f52602160045260245ffd5b907fffffffffffffffffffffffffffffffffffffffffffffffffffffffffffffffe0601f602080948051918291828752018686015e5f8582860101520116010190565b90612322818351612299565b73ffffffffffffffffffffffffffffffffffffffff602083015116602082015260608061235e60408501516080604086015260808501906122d3565b930151151591015290565b90357fffffffffffffffffffffffffffffffffffffffffffffffffffffffffffffffe18236030181121561097357016020813591019167ffffffffffffffff8211610973578160051b3603831361097357565b9060048210156122a65752565b90357fffffffffffffffffffffffffffffffffffffffffffffffffffffffffffffffe18236030181121561097357016020813591019167ffffffffffffffff821161097357813603831361097357565b601f82602094937fffffffffffffffffffffffffffffffffffffffffffffffffffffffffffffffe093818652868601375f8582860101520116010190565b906020838281520160208260051b85010193835f915b84831061247d5750505050505090565b9091929394957fffffffffffffffffffffffffffffffffffffffffffffffffffffffffffffffe082820301855286357fffffffffffffffffffffffffffffffffffffffffffffffffffffffffffffffa18436030181121561097357830180357ffffffffffffffffffffffffffffffffffffffffffffffffffffffffffffffe8182360301811215610973578101606083528035606084015260208101356080840152604081013560a08401526060810135916004831015610973578360408061265561263c6126286020989761255a8a9960c060019d01906123bc565b73ffffffffffffffffffffffffffffffffffffffff61257b60808301611dcd565b1660e088015273ffffffffffffffffffffffffffffffffffffffff6125a260a08301611dcd565b1661010088015273ffffffffffffffffffffffffffffffffffffffff6125ca60c08301611dcd565b1661012088015273ffffffffffffffffffffffffffffffffffffffff6125f260e08301611dcd565b166101408801526101008101356101608801526101208101356101808801526101408101356101a08801526101608101906123c9565b6101806101c08801526101e0870191612419565b612648878701876123c9565b9086830389880152612419565b93013591015298019695019301919061246d565b6126f39173ffffffffffffffffffffffffffffffffffffffff61268b83611dcd565b168152602082013560208201526126e56126da6126bf6126ae6040860186612369565b60a0604087015260a0860191612457565b6126cc6060860186612369565b908583036060870152612457565b9260808101906123c9565b916080818503910152612419565b90565b908160409103126109735760405190604082019082821067ffffffffffffffff83111761097757602091604052805183520151602082015290565b9190820391821161273e57565b7f4e487b71000000000000000000000000000000000000000000000000000000005f52601160045260245ffd5b90816020910312610973575160ff811681036109735790565b9190916020830161279481611f48565b604085016127a181611f48565b905f9287359260608901359673ffffffffffffffffffffffffffffffffffffffff7f000000000000000000000000000000000000000000000000000000000000000016936040519a7f94ea07bb000000000000000000000000000000000000000000000000000000008c5260408c8061285387898c8960048601929373ffffffffffffffffffffffffffffffffffffffff80929695606094826080880199168752602087015216604085015216910152565b0381895afa9b8c15610968575f9c612eea575b50853b156109735773ffffffffffffffffffffffffffffffffffffffff6128d8604051937f70f5585f000000000000000000000000000000000000000000000000000000008552826128cd8188169d8e6004890152604060248901528c6044890152611dcd565b166064860152611dcd565b16608483015260a482018a9052608081013560c483015260a081013560e483015260c081013561010483015260e081013561012483015261010081013561014483015273ffffffffffffffffffffffffffffffffffffffff61293d6101208301611dcd565b1661016483015273ffffffffffffffffffffffffffffffffffffffff6129666101408301611dcd565b166101848301526101608101356101a483015261018081013590803603917fffffffffffffffffffffffffffffffffffffffffffffffffffffffffffffff818301811215610973578101906101c06101c48501528135600b811015610973576129d490610204860190612299565b73ffffffffffffffffffffffffffffffffffffffff6129f560208401611dcd565b16610224850152612a2b6060612a24612a1160408601866123c9565b60806102448a0152610284890191612419565b9301612208565b15156102648501527fffffffffffffffffffffffffffffffffffffffffffffffffffffffffffffff616101a0820135930183121561097357612a9e828593925f957fffffffffffffffffffffffffffffffffffffffffffffffffffffffffffffffbc86809603016101e486015201612669565b038183895af1801561096857612ecf575b50604080517f94ea07bb00000000000000000000000000000000000000000000000000000000815273ffffffffffffffffffffffffffffffffffffffff928316600482015260248101879052848316604482015291831660648301529092919083608481875afa928315612e8a579780999a612baf998895612e95575b5090612b4f6020928380612b438951845190612731565b98015191015190612731565b9560405180809c81947f3ba7a31400000000000000000000000000000000000000000000000000000000835287896004850173ffffffffffffffffffffffffffffffffffffffff6040929594938160608401971683521660208201520152565b03915afa978815612e8a578698612e42575b5073ffffffffffffffffffffffffffffffffffffffff1696604051907f313ce5670000000000000000000000000000000000000000000000000000000082526020826004818c5afa9182156109485790612c2392918892612e21575b50613320565b9786865260056020526040862054978787526005602052604087209260405196612c4c88611e26565b600188526020880190815273ffffffffffffffffffffffffffffffffffffffff6040890192168252606088019283526080880193845260a08801948c865260c0890196875260e0890197885280549068010000000000000000821015612df45790612cbc91600182018155611f69565b989098612dc8579273ffffffffffffffffffffffffffffffffffffffff600797959381937fa4f732b8c6eeb0f534d2e40c2bfb293de7684855cdae052e554ff9d53f37a8259c9b9a989651151560ff7fffffffffffffffffffffffffffffffffffffffffffffffffffffffffffffff008d54169116178b555160018b015551168260028a0191167fffffffffffffffffffffffff0000000000000000000000000000000000000000825416179055511673ffffffffffffffffffffffffffffffffffffffff6003880191167fffffffffffffffffffffffff00000000000000000000000000000000000000008254161790555160048601555160058501555160068401555191015580a4565b60248a7f4e487b7100000000000000000000000000000000000000000000000000000000815280600452fd5b60248b7f4e487b710000000000000000000000000000000000000000000000000000000081526041600452fd5b612e3b91925060203d602011610941576109308183611e43565b905f612c1d565b9097506020813d602011612e82575b81612e5e60209383611e43565b8101031261097357519673ffffffffffffffffffffffffffffffffffffffff612bc1565b3d9150612e51565b6040513d88823e3d90fd5b602092919550612ebf612b4f9160403d604011612ec8575b612eb78183611e43565b8101906126f6565b95919250612b2c565b503d612ead565b83929196505f612ede91611e43565b5f959091506040612aaf565b612f04919c5060403d604011612ec857612eb78183611e43565b9a5f612866565b81601f8201121561097357803590612f2282611ea5565b92612f306040519485611e43565b82845260208085019360051b830101918183116109735760208101935b838510612f5c57505050505090565b843567ffffffffffffffff811161097357820160607fffffffffffffffffffffffffffffffffffffffffffffffffffffffffffffffe082860301126109735760405191612fa883611dee565b602082013567ffffffffffffffff811161097357602090830101610180818703126109735760405190610180820182811067ffffffffffffffff821117610977576040528035825260208101356020830152604081013560408301526060810135600481101561097357606083015261302360808201611dcd565b608083015261303460a08201611dcd565b60a083015261304560c08201611dcd565b60c083015261305660e08201611dcd565b60e08301526101008101356101008301526101208101356101208301526101408101356101408301526101608101359067ffffffffffffffff8211610973576130a1918891016121c2565b610160820152835260408201359267ffffffffffffffff8411610973576060836130d28860208098819801016121c2565b8584015201356040820152815201940193612f4d565b9080602083519182815201916020808360051b8301019401925f915b83831061311357505050505090565b9091929394602080827fffffffffffffffffffffffffffffffffffffffffffffffffffffffffffffffe08560019503018652885190604080613250613240610160865160608752805160608801528881015160808801528481015160a0880152613185606082015160c08901906123bc565b73ffffffffffffffffffffffffffffffffffffffff60808201511660e088015273ffffffffffffffffffffffffffffffffffffffff60a08201511661010088015273ffffffffffffffffffffffffffffffffffffffff60c08201511661012088015273ffffffffffffffffffffffffffffffffffffffff60e082015116610140880152610100810151828801526101208101516101808801526101408101516101a088015201516101806101c08701526101e08601906122d3565b86860151858203888701526122d3565b93015191015297019301930191939290613104565b9060ff8091169116039060ff821161273e57565b60ff16604d811161273e57600a0a90565b8181029291811591840414171561273e57565b81156132a7570490565b7f4e487b71000000000000000000000000000000000000000000000000000000005f52601260045260245ffd5b9060ff811660128111156133005750906132fa6132f560126126f394613265565b613279565b9061329d565b60121115612034579061331a6132f56126f3936012613265565b9061328a565b9060ff8116806012115f146133425750906132fa6132f56126f3936012613265565b60121015612034579061331a6132f560126126f394613265565b905f602091828151910182855af115610968575f513d6133da575073ffffffffffffffffffffffffffffffffffffffff81163b155b6133985750565b73ffffffffffffffffffffffffffffffffffffffff907f5274afe7000000000000000000000000000000000000000000000000000000005f521660045260245ffd5b6001141561339156fea264697066735822122013c70a90354aa11b833d61c2a18cef2b4141fcbce6843f55e4779630b1fcd72464736f6c634300081e0033","linkReferences":{}},"methodIdentifiers":{"acceptOwnership()":"79ba5097","addSupportedCollateralTokens((address,bytes32,address)[])":"2ec23d66","getTreasury()":"3b19e84a","getUserLeveragePosition(address,uint256)":"642afd92","getUserLeveragePositions(address)":"544e5eca","getYieldFee()":"3819e5d3","i_flashLeverageCore()":"f6a5c87c","i_pendleRouter()":"dd2a7a17","isSupportedCollateralToken(address)":"ba02a005","leverage(address,(uint256,address,address,uint256,(uint256,uint256,uint256,uint256,uint256),address,address,uint256,(uint8,address,bytes,bool),(address,uint256,((uint256,uint256,uint256,uint8,address,address,address,address,uint256,uint256,uint256,bytes),bytes,uint256)[],((uint256,uint256,uint256,uint8,address,address,address,address,uint256,uint256,uint256,bytes),bytes,uint256)[],bytes)))":"70f5585f","owner()":"8da5cb5b","pendingOwner()":"e30c3978","recover(address)":"0cd865ec","renounceOwnership()":"715018a6","swapAndLeverage(address,(address,uint256,uint256,(uint256,uint256,uint256,uint256,uint256),address,address,(uint8,address,bytes,bool),(address,uint256,((uint256,uint256,uint256,uint8,address,address,address,address,uint256,uint256,uint256,bytes),bytes,uint256)[],((uint256,uint256,uint256,uint8,address,address,address,address,uint256,uint256,uint256,bytes),bytes,uint256)[],bytes)),(uint256,address,address,uint256,(uint256,uint256,uint256,uint256,uint256),address,address,uint256,(uint8,address,bytes,bool),(address,uint256,((uint256,uint256,uint256,uint8,address,address,address,address,uint256,uint256,uint256,bytes),bytes,uint256)[],((uint256,uint256,uint256,uint8,address,address,address,address,uint256,uint256,uint256,bytes),bytes,uint256)[],bytes)))":"568fb21c","transferOwnership(address)":"f2fde38b","unleverage(address,uint256,address,address,uint256,(uint8,address,bytes,bool),(address,uint256,((uint256,uint256,uint256,uint8,address,address,address,address,uint256,uint256,uint256,bytes),bytes,uint256)[],((uint256,uint256,uint256,uint8,address,address,address,address,uint256,uint256,uint256,bytes),bytes,uint256)[],bytes))":"dad87911","updateTreasury(address)":"7f51bb1f","updateYieldFee(uint256)":"a1f19610"},"id":75}