{"abi":[{"type":"constructor","inputs":[{"name":"flashLeverage","type":"address","internalType":"address"},{"name":"pendleRouter","type":"address","internalType":"address"}],"stateMutability":"nonpayable"},{"type":"function","name":"acceptOwnership","inputs":[],"outputs":[],"stateMutability":"nonpayable"},{"type":"function","name":"getUserLeveragePosition","inputs":[{"name":"user","type":"address","internalType":"address"},{"name":"positionId","type":"uint256","internalType":"uint256"}],"outputs":[{"name":"","type":"tuple","internalType":"struct LeveragePosition","components":[{"name":"collateralToken","type":"address","internalType":"address"},{"name":"loanToken","type":"address","internalType":"address"},{"name":"amountCollateral","type":"uint256","internalType":"uint256"},{"name":"amountLeveragedCollateral","type":"uint256","internalType":"uint256"},{"name":"sharesBorrowed","type":"uint256","internalType":"uint256"},{"name":"open","type":"bool","internalType":"bool"}]}],"stateMutability":"view"},{"type":"function","name":"getUserLeveragePositions","inputs":[{"name":"user","type":"address","internalType":"address"}],"outputs":[{"name":"","type":"tuple[]","internalType":"struct LeveragePosition[]","components":[{"name":"collateralToken","type":"address","internalType":"address"},{"name":"loanToken","type":"address","internalType":"address"},{"name":"amountCollateral","type":"uint256","internalType":"uint256"},{"name":"amountLeveragedCollateral","type":"uint256","internalType":"uint256"},{"name":"sharesBorrowed","type":"uint256","internalType":"uint256"},{"name":"open","type":"bool","internalType":"bool"}]}],"stateMutability":"view"},{"type":"function","name":"i_flashLeverageCore","inputs":[],"outputs":[{"name":"","type":"address","internalType":"contract IFlashLeverage"}],"stateMutability":"view"},{"type":"function","name":"i_pendleRouter","inputs":[],"outputs":[{"name":"","type":"address","internalType":"contract IPAllActionV3"}],"stateMutability":"view"},{"type":"function","name":"leverage","inputs":[{"name":"onBehalfOf","type":"address","internalType":"address"},{"name":"leverageParams","type":"tuple","internalType":"struct LeverageParams","components":[{"name":"collateralToken","type":"address","internalType":"address"},{"name":"loanToken","type":"address","internalType":"address"},{"name":"amountCollateral","type":"uint256","internalType":"uint256"},{"name":"approxParams","type":"tuple","internalType":"struct ApproxParams","components":[{"name":"guessMin","type":"uint256","internalType":"uint256"},{"name":"guessMax","type":"uint256","internalType":"uint256"},{"name":"guessOffchain","type":"uint256","internalType":"uint256"},{"name":"maxIteration","type":"uint256","internalType":"uint256"},{"name":"eps","type":"uint256","internalType":"uint256"}]},{"name":"pendleSwap","type":"address","internalType":"address"},{"name":"swapData","type":"tuple","internalType":"struct SwapData","components":[{"name":"swapType","type":"uint8","internalType":"enum SwapType"},{"name":"extRouter","type":"address","internalType":"address"},{"name":"extCalldata","type":"bytes","internalType":"bytes"},{"name":"needScale","type":"bool","internalType":"bool"}]},{"name":"limitOrderData","type":"tuple","internalType":"struct LimitOrderData","components":[{"name":"limitRouter","type":"address","internalType":"address"},{"name":"epsSkipMarket","type":"uint256","internalType":"uint256"},{"name":"normalFills","type":"tuple[]","internalType":"struct FillOrderParams[]","components":[{"name":"order","type":"tuple","internalType":"struct Order","components":[{"name":"salt","type":"uint256","internalType":"uint256"},{"name":"expiry","type":"uint256","internalType":"uint256"},{"name":"nonce","type":"uint256","internalType":"uint256"},{"name":"orderType","type":"uint8","internalType":"enum IPLimitOrderType.OrderType"},{"name":"token","type":"address","internalType":"address"},{"name":"YT","type":"address","internalType":"address"},{"name":"maker","type":"address","internalType":"address"},{"name":"receiver","type":"address","internalType":"address"},{"name":"makingAmount","type":"uint256","internalType":"uint256"},{"name":"lnImpliedRate","type":"uint256","internalType":"uint256"},{"name":"failSafeRate","type":"uint256","internalType":"uint256"},{"name":"permit","type":"bytes","internalType":"bytes"}]},{"name":"signature","type":"bytes","internalType":"bytes"},{"name":"makingAmount","type":"uint256","internalType":"uint256"}]},{"name":"flashFills","type":"tuple[]","internalType":"struct FillOrderParams[]","components":[{"name":"order","type":"tuple","internalType":"struct Order","components":[{"name":"salt","type":"uint256","internalType":"uint256"},{"name":"expiry","type":"uint256","internalType":"uint256"},{"name":"nonce","type":"uint256","internalType":"uint256"},{"name":"orderType","type":"uint8","internalType":"enum IPLimitOrderType.OrderType"},{"name":"token","type":"address","internalType":"address"},{"name":"YT","type":"address","internalType":"address"},{"name":"maker","type":"address","internalType":"address"},{"name":"receiver","type":"address","internalType":"address"},{"name":"makingAmount","type":"uint256","internalType":"uint256"},{"name":"lnImpliedRate","type":"uint256","internalType":"uint256"},{"name":"failSafeRate","type":"uint256","internalType":"uint256"},{"name":"permit","type":"bytes","internalType":"bytes"}]},{"name":"signature","type":"bytes","internalType":"bytes"},{"name":"makingAmount","type":"uint256","internalType":"uint256"}]},{"name":"optData","type":"bytes","internalType":"bytes"}]}]}],"outputs":[],"stateMutability":"nonpayable"},{"type":"function","name":"owner","inputs":[],"outputs":[{"name":"","type":"address","internalType":"address"}],"stateMutability":"view"},{"type":"function","name":"pendingOwner","inputs":[],"outputs":[{"name":"","type":"address","internalType":"address"}],"stateMutability":"view"},{"type":"function","name":"renounceOwnership","inputs":[],"outputs":[],"stateMutability":"nonpayable"},{"type":"function","name":"swapAndLeverage","inputs":[{"name":"onBehalfOf","type":"address","internalType":"address"},{"name":"swapParams","type":"tuple","internalType":"struct SwapParams","components":[{"name":"tokenIn","type":"address","internalType":"address"},{"name":"amountTokenIn","type":"uint256","internalType":"uint256"},{"name":"minCollateralOut","type":"uint256","internalType":"uint256"},{"name":"approxParams","type":"tuple","internalType":"struct ApproxParams","components":[{"name":"guessMin","type":"uint256","internalType":"uint256"},{"name":"guessMax","type":"uint256","internalType":"uint256"},{"name":"guessOffchain","type":"uint256","internalType":"uint256"},{"name":"maxIteration","type":"uint256","internalType":"uint256"},{"name":"eps","type":"uint256","internalType":"uint256"}]},{"name":"pendleSwap","type":"address","internalType":"address"},{"name":"swapData","type":"tuple","internalType":"struct SwapData","components":[{"name":"swapType","type":"uint8","internalType":"enum SwapType"},{"name":"extRouter","type":"address","internalType":"address"},{"name":"extCalldata","type":"bytes","internalType":"bytes"},{"name":"needScale","type":"bool","internalType":"bool"}]},{"name":"limitOrderData","type":"tuple","internalType":"struct LimitOrderData","components":[{"name":"limitRouter","type":"address","internalType":"address"},{"name":"epsSkipMarket","type":"uint256","internalType":"uint256"},{"name":"normalFills","type":"tuple[]","internalType":"struct FillOrderParams[]","components":[{"name":"order","type":"tuple","internalType":"struct Order","components":[{"name":"salt","type":"uint256","internalType":"uint256"},{"name":"expiry","type":"uint256","internalType":"uint256"},{"name":"nonce","type":"uint256","internalType":"uint256"},{"name":"orderType","type":"uint8","internalType":"enum IPLimitOrderType.OrderType"},{"name":"token","type":"address","internalType":"address"},{"name":"YT","type":"address","internalType":"address"},{"name":"maker","type":"address","internalType":"address"},{"name":"receiver","type":"address","internalType":"address"},{"name":"makingAmount","type":"uint256","internalType":"uint256"},{"name":"lnImpliedRate","type":"uint256","internalType":"uint256"},{"name":"failSafeRate","type":"uint256","internalType":"uint256"},{"name":"permit","type":"bytes","internalType":"bytes"}]},{"name":"signature","type":"bytes","internalType":"bytes"},{"name":"makingAmount","type":"uint256","internalType":"uint256"}]},{"name":"flashFills","type":"tuple[]","internalType":"struct FillOrderParams[]","components":[{"name":"order","type":"tuple","internalType":"struct Order","components":[{"name":"salt","type":"uint256","internalType":"uint256"},{"name":"expiry","type":"uint256","internalType":"uint256"},{"name":"nonce","type":"uint256","internalType":"uint256"},{"name":"orderType","type":"uint8","internalType":"enum IPLimitOrderType.OrderType"},{"name":"token","type":"address","internalType":"address"},{"name":"YT","type":"address","internalType":"address"},{"name":"maker","type":"address","internalType":"address"},{"name":"receiver","type":"address","internalType":"address"},{"name":"makingAmount","type":"uint256","internalType":"uint256"},{"name":"lnImpliedRate","type":"uint256","internalType":"uint256"},{"name":"failSafeRate","type":"uint256","internalType":"uint256"},{"name":"permit","type":"bytes","internalType":"bytes"}]},{"name":"signature","type":"bytes","internalType":"bytes"},{"name":"makingAmount","type":"uint256","internalType":"uint256"}]},{"name":"optData","type":"bytes","internalType":"bytes"}]}]},{"name":"leverageParams","type":"tuple","internalType":"struct LeverageParams","components":[{"name":"collateralToken","type":"address","internalType":"address"},{"name":"loanToken","type":"address","internalType":"address"},{"name":"amountCollateral","type":"uint256","internalType":"uint256"},{"name":"approxParams","type":"tuple","internalType":"struct ApproxParams","components":[{"name":"guessMin","type":"uint256","internalType":"uint256"},{"name":"guessMax","type":"uint256","internalType":"uint256"},{"name":"guessOffchain","type":"uint256","internalType":"uint256"},{"name":"maxIteration","type":"uint256","internalType":"uint256"},{"name":"eps","type":"uint256","internalType":"uint256"}]},{"name":"pendleSwap","type":"address","internalType":"address"},{"name":"swapData","type":"tuple","internalType":"struct SwapData","components":[{"name":"swapType","type":"uint8","internalType":"enum SwapType"},{"name":"extRouter","type":"address","internalType":"address"},{"name":"extCalldata","type":"bytes","internalType":"bytes"},{"name":"needScale","type":"bool","internalType":"bool"}]},{"name":"limitOrderData","type":"tuple","internalType":"struct LimitOrderData","components":[{"name":"limitRouter","type":"address","internalType":"address"},{"name":"epsSkipMarket","type":"uint256","internalType":"uint256"},{"name":"normalFills","type":"tuple[]","internalType":"struct FillOrderParams[]","components":[{"name":"order","type":"tuple","internalType":"struct Order","components":[{"name":"salt","type":"uint256","internalType":"uint256"},{"name":"expiry","type":"uint256","internalType":"uint256"},{"name":"nonce","type":"uint256","internalType":"uint256"},{"name":"orderType","type":"uint8","internalType":"enum IPLimitOrderType.OrderType"},{"name":"token","type":"address","internalType":"address"},{"name":"YT","type":"address","internalType":"address"},{"name":"maker","type":"address","internalType":"address"},{"name":"receiver","type":"address","internalType":"address"},{"name":"makingAmount","type":"uint256","internalType":"uint256"},{"name":"lnImpliedRate","type":"uint256","internalType":"uint256"},{"name":"failSafeRate","type":"uint256","internalType":"uint256"},{"name":"permit","type":"bytes","internalType":"bytes"}]},{"name":"signature","type":"bytes","internalType":"bytes"},{"name":"makingAmount","type":"uint256","internalType":"uint256"}]},{"name":"flashFills","type":"tuple[]","internalType":"struct FillOrderParams[]","components":[{"name":"order","type":"tuple","internalType":"struct Order","components":[{"name":"salt","type":"uint256","internalType":"uint256"},{"name":"expiry","type":"uint256","internalType":"uint256"},{"name":"nonce","type":"uint256","internalType":"uint256"},{"name":"orderType","type":"uint8","internalType":"enum IPLimitOrderType.OrderType"},{"name":"token","type":"address","internalType":"address"},{"name":"YT","type":"address","internalType":"address"},{"name":"maker","type":"address","internalType":"address"},{"name":"receiver","type":"address","internalType":"address"},{"name":"makingAmount","type":"uint256","internalType":"uint256"},{"name":"lnImpliedRate","type":"uint256","internalType":"uint256"},{"name":"failSafeRate","type":"uint256","internalType":"uint256"},{"name":"permit","type":"bytes","internalType":"bytes"}]},{"name":"signature","type":"bytes","internalType":"bytes"},{"name":"makingAmount","type":"uint256","internalType":"uint256"}]},{"name":"optData","type":"bytes","internalType":"bytes"}]}]}],"outputs":[],"stateMutability":"nonpayable"},{"type":"function","name":"transferOwnership","inputs":[{"name":"newOwner","type":"address","internalType":"address"}],"outputs":[],"stateMutability":"nonpayable"},{"type":"function","name":"unleverage","inputs":[{"name":"positionId","type":"uint256","internalType":"uint256"},{"name":"pendleSwap","type":"address","internalType":"address"},{"name":"swapData","type":"tuple","internalType":"struct SwapData","components":[{"name":"swapType","type":"uint8","internalType":"enum SwapType"},{"name":"extRouter","type":"address","internalType":"address"},{"name":"extCalldata","type":"bytes","internalType":"bytes"},{"name":"needScale","type":"bool","internalType":"bool"}]},{"name":"limitOrderData","type":"tuple","internalType":"struct LimitOrderData","components":[{"name":"limitRouter","type":"address","internalType":"address"},{"name":"epsSkipMarket","type":"uint256","internalType":"uint256"},{"name":"normalFills","type":"tuple[]","internalType":"struct FillOrderParams[]","components":[{"name":"order","type":"tuple","internalType":"struct Order","components":[{"name":"salt","type":"uint256","internalType":"uint256"},{"name":"expiry","type":"uint256","internalType":"uint256"},{"name":"nonce","type":"uint256","internalType":"uint256"},{"name":"orderType","type":"uint8","internalType":"enum IPLimitOrderType.OrderType"},{"name":"token","type":"address","internalType":"address"},{"name":"YT","type":"address","internalType":"address"},{"name":"maker","type":"address","internalType":"address"},{"name":"receiver","type":"address","internalType":"address"},{"name":"makingAmount","type":"uint256","internalType":"uint256"},{"name":"lnImpliedRate","type":"uint256","internalType":"uint256"},{"name":"failSafeRate","type":"uint256","internalType":"uint256"},{"name":"permit","type":"bytes","internalType":"bytes"}]},{"name":"signature","type":"bytes","internalType":"bytes"},{"name":"makingAmount","type":"uint256","internalType":"uint256"}]},{"name":"flashFills","type":"tuple[]","internalType":"struct FillOrderParams[]","components":[{"name":"order","type":"tuple","internalType":"struct Order","components":[{"name":"salt","type":"uint256","internalType":"uint256"},{"name":"expiry","type":"uint256","internalType":"uint256"},{"name":"nonce","type":"uint256","internalType":"uint256"},{"name":"orderType","type":"uint8","internalType":"enum IPLimitOrderType.OrderType"},{"name":"token","type":"address","internalType":"address"},{"name":"YT","type":"address","internalType":"address"},{"name":"maker","type":"address","internalType":"address"},{"name":"receiver","type":"address","internalType":"address"},{"name":"makingAmount","type":"uint256","internalType":"uint256"},{"name":"lnImpliedRate","type":"uint256","internalType":"uint256"},{"name":"failSafeRate","type":"uint256","internalType":"uint256"},{"name":"permit","type":"bytes","internalType":"bytes"}]},{"name":"signature","type":"bytes","internalType":"bytes"},{"name":"makingAmount","type":"uint256","internalType":"uint256"}]},{"name":"optData","type":"bytes","internalType":"bytes"}]}],"outputs":[],"stateMutability":"nonpayable"},{"type":"function","name":"updateCollateralTokenData","inputs":[{"name":"collateralToken","type":"address","internalType":"address"},{"name":"tokenData","type":"tuple","internalType":"struct CollateralTokenData","components":[{"name":"underlyingToken","type":"address","internalType":"address"},{"name":"pendleMarket","type":"address","internalType":"address"}]}],"outputs":[],"stateMutability":"nonpayable"},{"type":"event","name":"LeveragePositionClosed","inputs":[{"name":"user","type":"address","indexed":true,"internalType":"address"},{"name":"positionId","type":"uint256","indexed":true,"internalType":"uint256"},{"name":"amountReturned","type":"uint256","indexed":true,"internalType":"uint256"}],"anonymous":false},{"type":"event","name":"LeveragePositionOpened","inputs":[{"name":"user","type":"address","indexed":true,"internalType":"address"},{"name":"positionId","type":"uint256","indexed":true,"internalType":"uint256"}],"anonymous":false},{"type":"event","name":"OwnershipTransferStarted","inputs":[{"name":"previousOwner","type":"address","indexed":true,"internalType":"address"},{"name":"newOwner","type":"address","indexed":true,"internalType":"address"}],"anonymous":false},{"type":"event","name":"OwnershipTransferred","inputs":[{"name":"previousOwner","type":"address","indexed":true,"internalType":"address"},{"name":"newOwner","type":"address","indexed":true,"internalType":"address"}],"anonymous":false},{"type":"error","name":"FlashLeverage__AmountCannotBeZero","inputs":[]},{"type":"error","name":"FlashLeverage__InvalidOnBehalfOfAddress","inputs":[]},{"type":"error","name":"FlashLeverage__PositionAlreadyUnleveraged","inputs":[]},{"type":"error","name":"FlashLeverage__PositionDoesNotExist","inputs":[]},{"type":"error","name":"OwnableInvalidOwner","inputs":[{"name":"owner","type":"address","internalType":"address"}]},{"type":"error","name":"OwnableUnauthorizedAccount","inputs":[{"name":"account","type":"address","internalType":"address"}]},{"type":"error","name":"SafeERC20FailedOperation","inputs":[{"name":"token","type":"address","internalType":"address"}]}],"bytecode":{"object":"0x60c0604052346100655761001a610014610139565b906101aa565b61002261006a565b612de46103e68239608051818181610dd70152818161258601526125c3015260a051818181610ef101528181611599015281816121bd01526121f30152612de490f35b610070565b60405190565b5f80fd5b601f801991011690565b634e487b7160e01b5f52604160045260245ffd5b9061009c90610074565b810190811060018060401b038211176100b457604052565b61007e565b906100cc6100c561006a565b9283610092565b565b5f80fd5b60018060a01b031690565b6100e6906100d2565b90565b6100f2816100dd565b036100f957565b5f80fd5b9050519061010a826100e9565b565b91906040838203126101345780610128610131925f86016100fd565b936020016100fd565b90565b6100ce565b6101576131ca8038038061014c816100b9565b92833981019061010c565b9091565b90565b61017261016d610177926100d2565b61015b565b6100d2565b90565b6101839061015e565b90565b61018f9061017a565b90565b61019b9061015e565b90565b6101a790610192565b90565b906101c06101c8926101bb336101cd565b610186565b60a05261019e565b608052565b6101d690610225565b565b90565b6101ef6101ea6101f4926101d8565b61015b565b6100d2565b90565b610200906101db565b90565b61020c906100dd565b9052565b9190610223905f60208501940190610203565b565b8061024061023a6102355f6101f7565b6100dd565b916100dd565b146102505761024e906102fa565b565b61027361025c5f6101f7565b5f918291631e4fbdf760e01b835260048301610210565b0390fd5b1b90565b9190600861029b91029161029560018060a01b0384610277565b92610277565b9181191691161790565b6102ae9061015e565b90565b6102ba906102a5565b90565b90565b91906102d66102d16102de936102b1565b6102bd565b90835461027b565b9055565b5f90565b6102f8916102f26102e2565b916102c0565b565b61030e906103095f60016102e6565b610386565b565b5f1c90565b60018060a01b031690565b61032c61033191610310565b610315565b90565b61033e9054610320565b90565b5f1b90565b9061035760018060a01b0391610341565b9181191691161790565b9061037661037161037d926102b1565b6102bd565b8254610346565b9055565b5f0190565b61038f5f610334565b610399825f610361565b906103cd6103c77f8be0079c531659141344cd1fd0a4f28419497f9722a3daafe3b4186f6b6457e0936102b1565b916102b1565b916103d661006a565b806103e081610381565b0390a356fe60806040526004361015610013575b610f76565b61001d5f356100ec565b8063062c43c6146100e7578063544e5eca146100e2578063642afd92146100dd5780636e003052146100d8578063715018a6146100d3578063779b547f146100ce57806379ba5097146100c95780638da5cb5b146100c4578063a68afd7a146100bf578063dd2a7a17146100ba578063e30c3978146100b5578063f2fde38b146100b05763f6a5c87c0361000e57610f41565b610ebc565b610e87565b610e52565b610da1565b610d00565b610cab565b610c77565b610b16565b610ad3565b610916565b610833565b6106b9565b60e01c90565b60405190565b5f80fd5b5f80fd5b5f80fd5b90565b61011081610104565b0361011757565b5f80fd5b9050359061012882610107565b565b60018060a01b031690565b61013e9061012a565b90565b61014a81610135565b0361015157565b5f80fd5b9050359061016282610141565b565b5f80fd5b601f801991011690565b634e487b7160e01b5f52604160045260245ffd5b9061019090610168565b810190811067ffffffffffffffff8211176101aa57604052565b610172565b906101c26101bb6100f2565b9283610186565b565b5f80fd5b600b11156101d257565b5f80fd5b905035906101e3826101c8565b565b5f80fd5b5f80fd5b67ffffffffffffffff811161020b57610207602091610168565b0190565b610172565b90825f939282370152565b9092919261023061022b826101ed565b6101af565b9381855260208501908284011161024c5761024a92610210565b565b6101e9565b9080601f8301121561026f5781602061026c9335910161021b565b90565b6101e5565b151590565b61028281610274565b0361028957565b5f80fd5b9050359061029a82610279565b565b919091608081840312610313576102b360806101af565b926102c0815f84016101d6565b5f8501526102d18160208401610155565b602085015260408201359167ffffffffffffffff831161030e576102fa82610307948301610251565b604086015260600161028d565b6060830152565b6101c4565b610164565b67ffffffffffffffff81116103305760208091020190565b610172565b5f80fd5b6004111561034357565b5f80fd5b9050359061035482610339565b565b919091610180818403126104665761036f6101806101af565b9261037c815f840161011b565b5f85015261038d816020840161011b565b602085015261039f816040840161011b565b60408501526103b18160608401610347565b60608501526103c38160808401610155565b60808501526103d58160a08401610155565b60a08501526103e78160c08401610155565b60c08501526103f98160e08401610155565b60e085015261040c81610100840161011b565b61010085015261042081610120840161011b565b61012085015261043481610140840161011b565b61014085015261016082013567ffffffffffffffff8111610461576104599201610251565b610160830152565b6101c4565b610164565b9190916060818403126104e85761048260606101af565b925f82013567ffffffffffffffff81116104e357816104a2918401610356565b5f85015260208201359167ffffffffffffffff83116104de576104ca826104d7948301610251565b602086015260400161011b565b6040830152565b6101c4565b6101c4565b610164565b9291906105016104fc82610318565b6101af565b93818552602080860192028101918383116105585781905b838210610527575050505050565b813567ffffffffffffffff811161055357602091610548878493870161046b565b815201910190610519565b6101e5565b610335565b9080601f8301121561057b57816020610578933591016104ed565b90565b6101e5565b91909160a0818403126106385761059760a06101af565b926105a4815f8401610155565b5f8501526105b5816020840161011b565b6020850152604082013567ffffffffffffffff811161063357816105da91840161055d565b6040850152606082013567ffffffffffffffff811161062e57816105ff91840161055d565b6060850152608082013567ffffffffffffffff8111610629576106229201610251565b6080830152565b6101c4565b6101c4565b6101c4565b610164565b906080828203126106af57610654815f840161011b565b926106628260208501610155565b92604081013567ffffffffffffffff81116106aa578361068391830161029c565b92606082013567ffffffffffffffff81116106a5576106a29201610580565b90565b610100565b610100565b6100fc565b5f0190565b346106eb576106d56106cc36600461063d565b92919091611529565b6106dd6100f2565b806106e7816106b4565b0390f35b6100f8565b9060208282031261070957610706915f01610155565b90565b6100fc565b5190565b60209181520190565b60200190565b61072a90610135565b9052565b61073790610104565b9052565b61074490610274565b9052565b9060a0806107b2936107605f8201515f860190610721565b61077260208201516020860190610721565b6107846040820151604086019061072e565b6107966060820151606086019061072e565b6107a86080820151608086019061072e565b015191019061073b565b565b906107c18160c093610748565b0190565b60200190565b906107e86107e26107db8461070e565b8093610712565b9261071b565b905f5b8181106107f85750505090565b90919261081161080b60019286516107b4565b946107c5565b91019190916107eb565b6108309160208201915f8184039101526107cb565b90565b346108635761085f61084e6108493660046106f0565b611829565b6108566100f2565b9182918261081b565b0390f35b6100f8565b9190604083820312610890578061088461088d925f8601610155565b9360200161011b565b90565b6100fc565b9060a0806108ff936108ad5f8201515f860190610721565b6108bf60208201516020860190610721565b6108d16040820151604086019061072e565b6108e36060820151606086019061072e565b6108f56080820151608086019061072e565b015191019061073b565b565b9190610914905f60c08501940190610895565b565b346109475761094361093261092c366004610868565b906118b5565b61093a6100f2565b91829182610901565b0390f35b6100f8565b919060a0838203126109bc576109b59061096660a06101af565b93610973825f830161011b565b5f860152610984826020830161011b565b6020860152610996826040830161011b565b60408601526109a8826060830161011b565b606086015260800161011b565b6080830152565b610164565b91909161016081840312610a89576109d960e06101af565b926109e6815f8401610155565b5f8501526109f78160208401610155565b6020850152610a09816040840161011b565b6040850152610a1b816060840161094c565b6060850152610a2e816101008401610155565b608085015261012082013567ffffffffffffffff8111610a845781610a5491840161029c565b60a085015261014082013567ffffffffffffffff8111610a7f57610a789201610580565b60c0830152565b6101c4565b6101c4565b610164565b919091604081840312610ace57610aa7835f8301610155565b92602082013567ffffffffffffffff8111610ac957610ac692016109c1565b90565b610100565b6100fc565b34610b0257610aec610ae6366004610a8e565b90611a16565b610af46100f2565b80610afe816106b4565b0390f35b6100f8565b5f910312610b1157565b6100fc565b34610b3c57610b26366004610b07565b610b2e6100f2565b80610b38816106b4565b0390f35b6100f8565b91909161016081840312610c0957610b5960e06101af565b92610b66815f8401610155565b5f850152610b77816020840161011b565b6020850152610b89816040840161011b565b6040850152610b9b816060840161094c565b6060850152610bae816101008401610155565b608085015261012082013567ffffffffffffffff8111610c045781610bd491840161029c565b60a085015261014082013567ffffffffffffffff8111610bff57610bf89201610580565b60c0830152565b6101c4565b6101c4565b610164565b91606083830312610c7257610c25825f8501610155565b92602081013567ffffffffffffffff8111610c6d5783610c46918301610b41565b92604082013567ffffffffffffffff8111610c6857610c6592016109c1565b90565b610100565b610100565b6100fc565b34610ca657610c90610c8a366004610c0e565b91611cc7565b610c986100f2565b80610ca2816106b4565b0390f35b6100f8565b34610cd957610cbb366004610b07565b610cc3611cd4565b610ccb6100f2565b80610cd5816106b4565b0390f35b6100f8565b610ce790610135565b9052565b9190610cfe905f60208501940190610cde565b565b34610d3057610d10366004610b07565b610d2c610d1b611d29565b610d236100f2565b91829182610ceb565b0390f35b6100f8565b9190604083820312610d6f57610d6890610d4f60406101af565b93610d5c825f8301610155565b5f860152602001610155565b6020830152565b610164565b9190606083820312610d9c5780610d90610d99925f8601610155565b93602001610d35565b90565b6100fc565b34610dd057610dba610db4366004610d74565b90611df8565b610dc26100f2565b80610dcc816106b4565b0390f35b6100f8565b7f000000000000000000000000000000000000000000000000000000000000000090565b90565b610e10610e0b610e159261012a565b610df9565b61012a565b90565b610e2190610dfc565b90565b610e2d90610e18565b90565b610e3990610e24565b9052565b9190610e50905f60208501940190610e30565b565b34610e8257610e62366004610b07565b610e7e610e6d610dd5565b610e756100f2565b91829182610e3d565b0390f35b6100f8565b34610eb757610e97366004610b07565b610eb3610ea2611e04565b610eaa6100f2565b91829182610ceb565b0390f35b6100f8565b34610eea57610ed4610ecf3660046106f0565b611e8c565b610edc6100f2565b80610ee6816106b4565b0390f35b6100f8565b7f000000000000000000000000000000000000000000000000000000000000000090565b610f1c90610e18565b90565b610f2890610f13565b9052565b9190610f3f905f60208501940190610f1f565b565b34610f7157610f51366004610b07565b610f6d610f5c610eef565b610f646100f2565b91829182610f2c565b0390f35b6100f8565b5f80fd5b610f8390610e18565b90565b90610f9090610f7a565b5f5260205260405f2090565b5490565b15610fa757565b5f6333a9e83f60e01b815280610fbf600482016106b4565b0390fd5b634e487b7160e01b5f52603260045260245ffd5b5f5260205f2090565b610fe981610f9c565b82101561100357610ffb600691610fd7565b910201905f90565b610fc3565b90565b5f1c90565b60ff1690565b6110226110279161100b565b611010565b90565b6110349054611016565b90565b1561103e57565b5f63891e6c9f60e01b815280611056600482016106b4565b0390fd5b60018060a01b031690565b6110716110769161100b565b61105a565b90565b6110839054611065565b90565b90565b61109561109a9161100b565b611086565b90565b6110a79054611089565b90565b6110b460e06101af565b90565b906110c190610135565b9052565b906110cf90610104565b9052565b52565b52565b5f80fd5b60e01b90565b5f9103126110ed57565b6100fc565b634e487b7160e01b5f52602160045260245ffd5b600b111561111057565b6110f2565b9061111f82611106565b565b61112a90611115565b90565b61113690611121565b9052565b5190565b60209181520190565b90825f9392825e0152565b61117161117a60209361117f936111688161113a565b9384809361113e565b95869101611147565b610168565b0190565b906111d1906060806111c6608084016111a25f8801515f87019061112d565b6111b460208801516020870190610721565b60408701518582036040870152611152565b94015191019061073b565b90565b5190565b60209181520190565b60200190565b600411156111f157565b6110f2565b90611200826111e7565b565b61120b906111f6565b90565b61121790611202565b9052565b611303916101606101808201926112385f8201515f85019061072e565b61124a6020820151602085019061072e565b61125c6040820151604085019061072e565b61126e6060820151606085019061120e565b61128060808201516080850190610721565b61129260a082015160a0850190610721565b6112a460c082015160c0850190610721565b6112b660e082015160e0850190610721565b6112ca61010082015161010085019061072e565b6112de61012082015161012085019061072e565b6112f261014082015161014085019061072e565b015190610160818403910152611152565b90565b906113459060408061133a611328606085015f8801518682035f88015261121b565b60208701518582036020870152611152565b94015191019061072e565b90565b9061135291611306565b90565b60200190565b9061136f611368836111d4565b80926111d8565b9081611380602083028401946111e1565b925f915b83831061139357505050505090565b909192939460206113b56113af83856001950387528951611348565b97611355565b9301930191939290611384565b61142991608061141861140660a084016113e25f8701515f870190610721565b6113f46020870151602087019061072e565b6040860151858203604087015261135b565b6060850151848203606086015261135b565b920151906080818403910152611152565b90565b6114b49160c06114a360e083016114495f8601515f860190610721565b61145b60208601516020860190610721565b61146d6040860151604086019061072e565b61147f6060860151606086019061072e565b61149160808601516080860190610721565b60a085015184820360a0860152611183565b9201519060c08184039101526113c2565b90565b6114cc9160208201915f81840391015261142c565b90565b6114d76100f2565b3d5f823e3d90fd5b5f1b90565b906114f060ff916114df565b9181191691161790565b61150390610274565b90565b90565b9061151e611519611525926114fa565b611506565b82546114e4565b9055565b61164e61157c6115765f939594956115713361156a8361156461155e61155961155460028790610f86565b610f9c565b610104565b91610104565b10610fa0565b6002610f86565b610fe0565b50611008565b9361159161158c6005870161102a565b611037565b6116456115bd7f0000000000000000000000000000000000000000000000000000000000000000610f13565b9661163c631d09cc7e966116336115d5888b01611079565b9561162a8b6116216115e960018301611079565b61161861160460026115fd6004870161109d565b950161109d565b9597999b6116106110aa565b9e8f016110b7565b60208d016110b7565b60408b016110c5565b606089016110c5565b608087016110b7565b60a085016110d3565b60c083016110d6565b833b156116d05761167e936116735f80946116676100f2565b978895869485936110dd565b8352600483016114b7565b03925af19182156116cb5761169d9261169f575b5060055f9101611509565b565b6116be905f3d81116116c4575b6116b68183610186565b8101906110e3565b5f611692565b503d6116ac565b6114cf565b6110d9565b606090565b67ffffffffffffffff81116116f25760208091020190565b610172565b90611709611704836116da565b6101af565b918252565b9061171890610274565b9052565b61172660c06101af565b90565b906117c06117b7600561173a61171c565b946117516117495f8301611079565b5f88016110b7565b61176961176060018301611079565b602088016110b7565b6117816117786002830161109d565b604088016110c5565b6117996117906003830161109d565b606088016110c5565b6117b16117a86004830161109d565b608088016110c5565b0161102a565b60a0840161170e565b565b6117cb90611729565b90565b906117d882610f9c565b6117e1816116f7565b926117ef6020850191610fd7565b5f915b8383106117ff5750505050565b6006602060019261180f856117c2565b8152019201920191906117f2565b611826906117ce565b90565b611840611845916118386116d5565b506002610f86565b61181d565b90565b5f90565b5f90565b5f90565b61185c61171c565b90602080808080808761186d611848565b815201611878611848565b81520161188361184c565b81520161188e61184c565b81520161189961184c565b8152016118a4611850565b81525050565b6118b2611854565b90565b6118db916118d06118d5926118c86118aa565b506002610f86565b610fe0565b506117c2565b90565b90565b6118f56118f06118fa926118de565b610df9565b61012a565b90565b611906906118e1565b90565b1561191057565b5f6302ac650b60e21b815280611928600482016106b4565b0390fd5b9061195b916119568161194f6119496119445f6118fd565b610135565b91610135565b1415611909565b6119a9565b565b6119679051610104565b90565b61197e611979611983926118de565b610df9565b610104565b90565b1561198d57565b5f63b02cb97d60e01b8152806119a5600482016106b4565b0390fd5b906119da916119d56119bd6040840161195d565b6119cf6119c95f61196a565b91610104565b11611986565b6119e9565b565b6119e69051610135565b90565b90611a1491611a0f6119fc5f84016119dc565b33611a096040860161195d565b91611ea3565b6121aa565b565b90611a209161192c565b565b90611a529291611a4d81611a46611a40611a3b5f6118fd565b610135565b91610135565b1415611909565b611a54565b565b90611a869291611a81611a696020840161195d565b611a7b611a755f61196a565b91610104565b11611986565b611a88565b565b90611aba9291611ab5611a9d6040850161195d565b611aaf611aa95f61196a565b91610104565b11611986565b611bc0565b565b611ac590610dfc565b90565b611ad190611abc565b90565b611add90610e18565b90565b611ae990610e18565b90565b90505190611af982610279565b565b90602082820312611b1457611b11915f01611aec565b90565b6100fc565b611b2290610104565b9052565b604090611b4f611b569496959396611b4560608401985f850190610cde565b6020830190610cde565b0190611b19565b565b90611b6290610f7a565b5f5260205260405f2090565b611b7860406101af565b90565b90611bb2611ba96001611b8c611b6e565b94611ba3611b9b5f8301611079565b5f88016110b7565b01611079565b602084016110b7565b565b611bbd90611b7b565b90565b919091611bce5f83016119dc565b92611bea611be5611be05f84016119dc565b611ac8565b611ad4565b9360206323b872dd953390611c255f611c0230611ae0565b99611c30611c11878a0161195d565b611c196100f2565b9c8d97889687956110dd565b855260048501611b26565b03925af1948515611cc257611c6f95611c96575b50611c505f83016119dc565b611c62611c5c83610135565b91610135565b03611c71575b50506121aa565b565b611c8f91611c89611c8460038490611b58565b611bb4565b90612571565b5f80611c68565b611cb69060203d8111611cbb575b611cae8183610186565b810190611afb565b611c44565b503d611ca4565b6114cf565b90611cd29291611a22565b565b611cdc61275d565b611ce4611e04565b611cf6611cf083610135565b91610135565b03611d0657611d04906127ca565b565b611d21905f91829163118cdaa760e01b835260048301610ceb565b0390fd5b5f90565b611d31611d25565b50611d3b5f611079565b90565b90611d5091611d4b6127e0565b611de2565b565b634e487b7160e01b5f525f60045260245ffd5b90611d7660018060a01b03916114df565b9181191691161790565b90565b90611d98611d93611d9f92610f7a565b611d80565b8254611d65565b9055565b90611dce60206001611dd494611dc65f8201611dc05f88016119dc565b90611d83565b0192016119dc565b90611d83565b565b90611de091611da3565b565b611df1611df692916003611b58565b611dd6565b565b90611e0291611d3e565b565b611e0c611d25565b50611e176001611079565b90565b611e2b90611e266127e0565b611e2d565b565b611e38816001611d83565b611e40611d29565b90611e74611e6e7f38d16b8cac22d99fc7c124b9cd0de2d3fa1faef420bfe791d8c362d765e2270093610f7a565b91610f7a565b91611e7d6100f2565b80611e87816106b4565b0390a3565b611e9590611e1a565b565b611ea090610e18565b90565b9180611eb7611eb15f61196a565b91610104565b14611edb57611ec8611ed993611ac8565b91611ed230611e97565b919261285f565b565b505050565b90505190611eed82610107565b565b9190604083820312611f175780611f0b611f14925f8601611ee0565b93602001611ee0565b90565b6100fc565b90608080611f7493611f345f8201515f86019061072e565b611f466020820151602086019061072e565b611f586040820151604086019061072e565b611f6a6060820151606086019061072e565b015191019061072e565b565b6120029160c0611ff06101608301611f945f8601515f860190610721565b611fa660208601516020860190610721565b611fb86040860151604086019061072e565b611fca60608601516060860190611f1c565b611fdd6080860151610100860190610721565b60a0850151848203610120860152611183565b920151906101408184039101526113c2565b90565b61201a9160208201915f818403910152611f76565b90565b90565b61202a60c06101af565b90565b5f5260205f2090565b5490565b61204381612036565b82101561205d5761205560069161202d565b910201905f90565b610fc3565b9061206e5f19916114df565b9181191691161790565b61208c61208761209192610104565b610df9565b610104565b90565b90565b906120ac6120a76120b392612078565b612094565b8254612062565b9055565b6120c19051610274565b90565b9061215360a06005612159946120e75f82016120e15f88016119dc565b90611d83565b612100600182016120fa602088016119dc565b90611d83565b612119600282016121136040880161195d565b90612097565b6121326003820161212c6060880161195d565b90612097565b61214b600482016121456080880161195d565b90612097565b0192016120b7565b90611509565b565b919061216c5761216a916120c4565b565b611d52565b1b90565b90815491680100000000000000008310156121a5578261219d9160016121a39501815561203a565b9061215b565b565b610172565b6121e96121b85f84016119dc565b6121e17f0000000000000000000000000000000000000000000000000000000000000000610f13565b5f19916129a2565b61224260406122177f0000000000000000000000000000000000000000000000000000000000000000610f13565b6331dea21b906122375f879361222b6100f2565b968795869485936110dd565b835260048301612005565b03925af1801561238557612306915f918280929091612352575b50612301906122f861227861227360028990610f86565b610f9c565b976122ef61229061228b60028b90610f86565b61201d565b956122e661229f8985016119dc565b956122dd6122bb60406122b4602089016119dc565b970161195d565b9193956122d46001996122cc612020565b9d8e016110b7565b60208c016110b7565b60408a016110c5565b606088016110c5565b608086016110c5565b60a0840161170e565b612175565b9061233a6123347f156f6d0646dd158e7f2defae7688ad0969dd6582e7b5fb776a1692db7cea287393610f7a565b91612078565b916123436100f2565b8061234d816106b4565b0390a3565b6123019250612378915060403d811161237e575b6123708183610186565b810190611eef565b9161225c565b503d612366565b6114cf565b61239460a06101af565b90565b90916060828403126123cc576123c96123b2845f8501611ee0565b936123c08160208601611ee0565b93604001611ee0565b90565b6100fc565b90608080612429936123e95f8201515f86019061072e565b6123fb6020820151602086019061072e565b61240d6040820151604086019061072e565b61241f6060820151606086019061072e565b015191019061072e565b565b61248c91608060a08201926124465f8201515f850190610721565b6124586020820151602085019061072e565b61246a60408201516040850190610721565b61247c60608201516060850190610721565b0151906080818403910152611183565b90565b6124f69160806124e56124d360a084016124af5f8701515f870190610721565b6124c16020870151602087019061072e565b6040860151858203604087015261135b565b6060850151848203606086015261135b565b920151906080818403910152611152565b90565b94909161255c969461253561254d9561252b61253f946125216101408c01985f8d0190610cde565b60208b0190610cde565b6040890190611b19565b60608701906123d1565b84820361010086015261242b565b9161012081840391015261248f565b90565b5f90565b9061256e9103610104565b90565b91906125bc6125815f85016119dc565b6125aa7f0000000000000000000000000000000000000000000000000000000000000000610e24565b6125b66020870161195d565b91612a51565b60606125e77f0000000000000000000000000000000000000000000000000000000000000000610e24565b63c81f847a906126b05f6125fa30611ae0565b936126bb61260a602089016119dc565b978a6126186040820161195d565b916126968a8301519161268d61262f8986016119dc565b9461268561264a8b6126436020850161195d565b95016119dc565b61267c60a061265b608086016119dc565b9401519561267361266a61238a565b9a8f8c016110b7565b60208a016110c5565b604088016110b7565b8d86016110b7565b608084016110d3565b60c08d0151926126a46100f2565b9b8c9a8b998a986110dd565b8852600488016124f9565b03925af1908115612758575f9161272a575b50806126ec6126e66126e16040870161195d565b610104565b91610104565b116126f7575b505050565b61272292612714604061271a9361270c61255f565b50920161195d565b90612563565b339091612a68565b5f80806126f2565b61274b915060603d8111612751575b6127438183610186565b810190612397565b506126cd565b503d612739565b6114cf565b612765611d25565b503390565b9190600861278a91029161278460018060a01b0384612171565b92612171565b9181191691161790565b91906127aa6127a56127b293610f7a565b611d80565b90835461276a565b9055565b6127c8916127c2611d25565b91612794565b565b6127de906127d95f60016127b6565b612a9c565b565b6127e8611d29565b6128016127fb6127f661275d565b610135565b91610135565b0361280857565b61282a61281361275d565b5f91829163118cdaa760e01b835260048301610ceb565b0390fd5b63ffffffff1690565b63ffffffff60e01b1690565b61285761285261285c9261282e565b6110dd565b612837565b90565b6004926128996128ad95936128a893946128806323b872dd92949192612843565b936128896100f2565b9788956020870190815201611b26565b60208201810382520383610186565b612b1a565b565b9160206128d09294936128c960408201965f830190610cde565b0190611b19565b565b906128e46128df836101ed565b6101af565b918252565b606090565b3d5f14612909576128fe3d6128d2565b903d5f602084013e5b565b6129116128e9565b90612907565b60209181520190565b5f7f5361666520417070726f76650000000000000000000000000000000000000000910152565b612954600c602092612917565b61295d81612920565b0190565b6129769060208101905f818303910152612947565b90565b1561298057565b6129886100f2565b62461bcd60e51b81528061299e60048201612961565b0390fd5b612a019260046129e35f946129d486959463095ea7b360e01b926129c46100f2565b95869460208601908152016128af565b60208201810382520382610186565b82602082019151925af16129f56128ee565b81612a03575b50612979565b565b9050612a0e8161113a565b612a20612a1a5f61196a565b91610104565b14908115612a30575b505f6129fb565b612a4b91506020612a408261113a565b818301019101611afb565b5f612a29565b91612a5e612a6693611ac8565b919091612bfe565b565b9180612a7c612a765f61196a565b91610104565b14612a9757612a8d612a9593611ac8565b919091612cba565b565b505050565b612aa55f611079565b612aaf825f611d83565b90612ae3612add7f8be0079c531659141344cd1fd0a4f28419497f9722a3daafe3b4186f6b6457e093610f7a565b91610f7a565b91612aec6100f2565b80612af6816106b4565b0390a3565b90565b612b12612b0d612b1792612afb565b610df9565b610104565b90565b905f602091612b2761255f565b50612b3061255f565b50828151910182855af115612bc3573d5f5190612b55612b4f5f61196a565b91610104565b145f14612ba95750612b6681611ad4565b3b612b79612b735f61196a565b91610104565b145b612b825750565b612b8e612ba591611ad4565b5f918291635274afe760e01b835260048301610ceb565b0390fd5b612bbc612bb66001612afe565b91610104565b1415612b7b565b6040513d5f823e3d90fd5b612bd79061196a565b9052565b916020612bfc929493612bf560408201965f830190610cde565b0190612bce565b565b9091612c41600491612c3263095ea7b3612c19879391612843565b92612c226100f2565b95869460208601908152016128af565b60208201810382520382610186565b90612c56612c50828490612d0c565b15610274565b612c60575b505050565b612cad6004612cb294612ca88491612c9963095ea7b3612c805f91612843565b92612c896100f2565b9687946020860190815201612bdb565b60208201810382520383610186565b612b1a565b612b1a565b5f8080612c5b565b90612d01612d0693612cf260049493612cd963a9059cbb919391612843565b92612ce26100f2565b96879460208601908152016128af565b60208201810382520383610186565b612b1a565b565b5f90565b905f602091612d19612d08565b50612d22612d08565b50612d2b61255f565b50612d3461255f565b50828151910182855af13d915f51919283612d50575b50505090565b90919250612d66612d605f61196a565b91610104565b145f14612d9457612d779150611ad4565b3b612d8a612d845f61196a565b91610104565b115b5f8080612d4a565b50612da8612da26001612afe565b91610104565b14612d8c56fea264697066735822122025318710bcd65f646d4d4f8e5c7aebcfd39754abe96c513fcdbfb4df7cbadde064736f6c634300081e0033","linkReferences":{}},"methodIdentifiers":{"acceptOwnership()":"79ba5097","getUserLeveragePosition(address,uint256)":"642afd92","getUserLeveragePositions(address)":"544e5eca","i_flashLeverageCore()":"f6a5c87c","i_pendleRouter()":"dd2a7a17","leverage(address,(address,address,uint256,(uint256,uint256,uint256,uint256,uint256),address,(uint8,address,bytes,bool),(address,uint256,((uint256,uint256,uint256,uint8,address,address,address,address,uint256,uint256,uint256,bytes),bytes,uint256)[],((uint256,uint256,uint256,uint8,address,address,address,address,uint256,uint256,uint256,bytes),bytes,uint256)[],bytes)))":"6e003052","owner()":"8da5cb5b","pendingOwner()":"e30c3978","renounceOwnership()":"715018a6","swapAndLeverage(address,(address,uint256,uint256,(uint256,uint256,uint256,uint256,uint256),address,(uint8,address,bytes,bool),(address,uint256,((uint256,uint256,uint256,uint8,address,address,address,address,uint256,uint256,uint256,bytes),bytes,uint256)[],((uint256,uint256,uint256,uint8,address,address,address,address,uint256,uint256,uint256,bytes),bytes,uint256)[],bytes)),(address,address,uint256,(uint256,uint256,uint256,uint256,uint256),address,(uint8,address,bytes,bool),(address,uint256,((uint256,uint256,uint256,uint8,address,address,address,address,uint256,uint256,uint256,bytes),bytes,uint256)[],((uint256,uint256,uint256,uint8,address,address,address,address,uint256,uint256,uint256,bytes),bytes,uint256)[],bytes)))":"779b547f","transferOwnership(address)":"f2fde38b","unleverage(uint256,address,(uint8,address,bytes,bool),(address,uint256,((uint256,uint256,uint256,uint8,address,address,address,address,uint256,uint256,uint256,bytes),bytes,uint256)[],((uint256,uint256,uint256,uint8,address,address,address,address,uint256,uint256,uint256,bytes),bytes,uint256)[],bytes))":"062c43c6","updateCollateralTokenData(address,(address,address))":"a68afd7a"},"id":99}