{"abi":[{"type":"constructor","inputs":[{"name":"lender_","type":"address","internalType":"contract IERC3156FlashLender"}],"stateMutability":"nonpayable"},{"type":"function","name":"SPIUSD","inputs":[],"outputs":[{"name":"","type":"address","internalType":"contract ISPIUSD"}],"stateMutability":"view"},{"type":"function","name":"flashLeverage","inputs":[{"name":"leverageToken","type":"address","internalType":"address"},{"name":"amountLeverage","type":"uint256","internalType":"uint256"}],"outputs":[],"stateMutability":"nonpayable"},{"type":"function","name":"onFlashLoan","inputs":[{"name":"initiator","type":"address","internalType":"address"},{"name":"token","type":"address","internalType":"address"},{"name":"amount","type":"uint256","internalType":"uint256"},{"name":"fee","type":"uint256","internalType":"uint256"},{"name":"data","type":"bytes","internalType":"bytes"}],"outputs":[{"name":"","type":"bytes32","internalType":"bytes32"}],"stateMutability":"nonpayable"},{"type":"error","name":"FlashLeverage__InvalidLoanAmount","inputs":[]},{"type":"error","name":"FlashLeverage__InvalidLoanToken","inputs":[]},{"type":"error","name":"FlashLeverage__UntrustedLender","inputs":[]},{"type":"error","name":"FlashLeverage__UntrustedLoanInitiator","inputs":[]}],"bytecode":{"object":"0x60a060405234801561000f575f5ffd5b50604051610cfe380380610cfe833981810160405281019061003191906100e5565b805f5f6101000a81548173ffffffffffffffffffffffffffffffffffffffff021916908373ffffffffffffffffffffffffffffffffffffffff16021790555050610110565b5f5ffd5b5f73ffffffffffffffffffffffffffffffffffffffff82169050919050565b5f6100a38261007a565b9050919050565b5f6100b482610099565b9050919050565b6100c4816100aa565b81146100ce575f5ffd5b50565b5f815190506100df816100bb565b92915050565b5f602082840312156100fa576100f9610076565b5b5f610107848285016100d1565b91505092915050565b608051610bad6101515f395f818160af015281816101be01528181610244015281816103260152818161043c015281816104cb01526105c40152610bad5ff3fe608060405234801561000f575f5ffd5b506004361061003f575f3560e01c80631fb6ca3d1461004357806323e30c8b146100615780632c4f31f014610091575b5f5ffd5b61004b6100ad565b60405161005891906106e5565b60405180910390f35b61007b600480360381019061007691906107d5565b6100d1565b6040516100889190610883565b60405180910390f35b6100ab60048036038101906100a6919061089c565b6103f9565b005b7f000000000000000000000000000000000000000000000000000000000000000081565b5f5f5f9054906101000a900473ffffffffffffffffffffffffffffffffffffffff1673ffffffffffffffffffffffffffffffffffffffff163373ffffffffffffffffffffffffffffffffffffffff1614610157576040517f3baf0ef200000000000000000000000000000000000000000000000000000000815260040160405180910390fd5b3073ffffffffffffffffffffffffffffffffffffffff168773ffffffffffffffffffffffffffffffffffffffff16146101bc576040517ff151fc4d00000000000000000000000000000000000000000000000000000000815260040160405180910390fd5b7f000000000000000000000000000000000000000000000000000000000000000073ffffffffffffffffffffffffffffffffffffffff168673ffffffffffffffffffffffffffffffffffffffff1614610241576040517f47b73a6e00000000000000000000000000000000000000000000000000000000815260040160405180910390fd5b847f000000000000000000000000000000000000000000000000000000000000000073ffffffffffffffffffffffffffffffffffffffff166370a08231306040518263ffffffff1660e01b815260040161029b91906108e9565b602060405180830381865afa1580156102b6573d5f5f3e3d5ffd5b505050506040513d601f19601f820116820180604052508101906102da9190610916565b1015610312576040517fce90715100000000000000000000000000000000000000000000000000000000815260040160405180910390fd5b5f8383810190610322919061097c565b90507f000000000000000000000000000000000000000000000000000000000000000073ffffffffffffffffffffffffffffffffffffffff1663a9059cbb89878961036d91906109d4565b6040518363ffffffff1660e01b815260040161038a929190610a16565b6020604051808303815f875af11580156103a6573d5f5f3e3d5ffd5b505050506040513d601f19601f820116820180604052508101906103ca9190610a72565b507f439148f0bbc682ca079e46d6e2c2f0c1e3b820f1a291b069d8882abf8cf18dd99150509695505050505050565b5f5f90505f5f5f9054906101000a900473ffffffffffffffffffffffffffffffffffffffff1673ffffffffffffffffffffffffffffffffffffffff1663d9d98ce47f0000000000000000000000000000000000000000000000000000000000000000846040518363ffffffff1660e01b8152600401610479929190610a16565b602060405180830381865afa158015610494573d5f5f3e3d5ffd5b505050506040513d601f19601f820116820180604052508101906104b89190610916565b90505f81836104c791906109d4565b90507f000000000000000000000000000000000000000000000000000000000000000073ffffffffffffffffffffffffffffffffffffffff1663095ea7b35f5f9054906101000a900473ffffffffffffffffffffffffffffffffffffffff16836040518363ffffffff1660e01b8152600401610544929190610a16565b6020604051808303815f875af1158015610560573d5f5f3e3d5ffd5b505050506040513d601f19601f820116820180604052508101906105849190610a72565b505f5f9054906101000a900473ffffffffffffffffffffffffffffffffffffffff1673ffffffffffffffffffffffffffffffffffffffff16635cffe9de307f000000000000000000000000000000000000000000000000000000000000000086896040516020016105f591906108e9565b6040516020818303038152906040526040518563ffffffff1660e01b81526004016106239493929190610b2d565b6020604051808303815f875af115801561063f573d5f5f3e3d5ffd5b505050506040513d601f19601f820116820180604052508101906106639190610a72565b505050505050565b5f73ffffffffffffffffffffffffffffffffffffffff82169050919050565b5f819050919050565b5f6106ad6106a86106a38461066b565b61068a565b61066b565b9050919050565b5f6106be82610693565b9050919050565b5f6106cf826106b4565b9050919050565b6106df816106c5565b82525050565b5f6020820190506106f85f8301846106d6565b92915050565b5f5ffd5b5f5ffd5b5f6107108261066b565b9050919050565b61072081610706565b811461072a575f5ffd5b50565b5f8135905061073b81610717565b92915050565b5f819050919050565b61075381610741565b811461075d575f5ffd5b50565b5f8135905061076e8161074a565b92915050565b5f5ffd5b5f5ffd5b5f5ffd5b5f5f83601f84011261079557610794610774565b5b8235905067ffffffffffffffff8111156107b2576107b1610778565b5b6020830191508360018202830111156107ce576107cd61077c565b5b9250929050565b5f5f5f5f5f5f60a087890312156107ef576107ee6106fe565b5b5f6107fc89828a0161072d565b965050602061080d89828a0161072d565b955050604061081e89828a01610760565b945050606061082f89828a01610760565b935050608087013567ffffffffffffffff8111156108505761084f610702565b5b61085c89828a01610780565b92509250509295509295509295565b5f819050919050565b61087d8161086b565b82525050565b5f6020820190506108965f830184610874565b92915050565b5f5f604083850312156108b2576108b16106fe565b5b5f6108bf8582860161072d565b92505060206108d085828601610760565b9150509250929050565b6108e381610706565b82525050565b5f6020820190506108fc5f8301846108da565b92915050565b5f815190506109108161074a565b92915050565b5f6020828403121561092b5761092a6106fe565b5b5f61093884828501610902565b91505092915050565b5f61094b8261066b565b9050919050565b61095b81610941565b8114610965575f5ffd5b50565b5f8135905061097681610952565b92915050565b5f60208284031215610991576109906106fe565b5b5f61099e84828501610968565b91505092915050565b7f4e487b71000000000000000000000000000000000000000000000000000000005f52601160045260245ffd5b5f6109de82610741565b91506109e983610741565b9250828201905080821115610a0157610a006109a7565b5b92915050565b610a1081610741565b82525050565b5f604082019050610a295f8301856108da565b610a366020830184610a07565b9392505050565b5f8115159050919050565b610a5181610a3d565b8114610a5b575f5ffd5b50565b5f81519050610a6c81610a48565b92915050565b5f60208284031215610a8757610a866106fe565b5b5f610a9484828501610a5e565b91505092915050565b5f610aa7826106b4565b9050919050565b610ab781610a9d565b82525050565b5f81519050919050565b5f82825260208201905092915050565b8281835e5f83830152505050565b5f601f19601f8301169050919050565b5f610aff82610abd565b610b098185610ac7565b9350610b19818560208601610ad7565b610b2281610ae5565b840191505092915050565b5f608082019050610b405f830187610aae565b610b4d60208301866108da565b610b5a6040830185610a07565b8181036060830152610b6c8184610af5565b90509594505050505056fea26469706673582212206308127f6cbf014a6b60f415c26f1074955b547cf18f2d87a4bf826f6daef84864736f6c634300081e0033","linkReferences":{}},"methodIdentifiers":{"SPIUSD()":"1fb6ca3d","flashLeverage(address,uint256)":"2c4f31f0","onFlashLoan(address,address,uint256,uint256,bytes)":"23e30c8b"},"id":60}