{"abi":[{"type":"constructor","inputs":[{"name":"positionManagerAddress","type":"address","internalType":"address"},{"name":"treasury","type":"address","internalType":"address"}],"stateMutability":"nonpayable"},{"type":"function","name":"MAX_LEVERAGE_LTV","inputs":[],"outputs":[{"name":"","type":"uint256","internalType":"uint256"}],"stateMutability":"view"},{"type":"function","name":"acceptOwnership","inputs":[],"outputs":[],"stateMutability":"nonpayable"},{"type":"function","name":"addSupportedCollateralTokens","inputs":[{"name":"collateralTokens","type":"address[]","internalType":"address[]"},{"name":"curvePools","type":"address[]","internalType":"address[]"}],"outputs":[],"stateMutability":"nonpayable"},{"type":"function","name":"getUserLeveragePositions","inputs":[{"name":"user","type":"address","internalType":"address"}],"outputs":[{"name":"","type":"tuple[]","internalType":"struct LeveragePosition[]","components":[{"name":"owner","type":"address","internalType":"address"},{"name":"debtPositionId","type":"uint256","internalType":"uint256"},{"name":"userCollateralDeposited","type":"uint256","internalType":"uint256"}]}],"stateMutability":"view"},{"type":"function","name":"leverage","inputs":[{"name":"owner","type":"address","internalType":"address"},{"name":"collateralToken","type":"address","internalType":"address"},{"name":"userCollateralAmount","type":"uint256","internalType":"uint256"},{"name":"desiredLtv","type":"uint256","internalType":"uint256"}],"outputs":[],"stateMutability":"nonpayable"},{"type":"function","name":"onFlashLoan","inputs":[{"name":"initiator","type":"address","internalType":"address"},{"name":"token","type":"address","internalType":"address"},{"name":"amountLoan","type":"uint256","internalType":"uint256"},{"name":"fee","type":"uint256","internalType":"uint256"},{"name":"data","type":"bytes","internalType":"bytes"}],"outputs":[{"name":"","type":"bytes32","internalType":"bytes32"}],"stateMutability":"nonpayable"},{"type":"function","name":"owner","inputs":[],"outputs":[{"name":"","type":"address","internalType":"address"}],"stateMutability":"view"},{"type":"function","name":"pendingOwner","inputs":[],"outputs":[{"name":"","type":"address","internalType":"address"}],"stateMutability":"view"},{"type":"function","name":"renounceOwnership","inputs":[],"outputs":[],"stateMutability":"nonpayable"},{"type":"function","name":"transferOwnership","inputs":[{"name":"newOwner","type":"address","internalType":"address"}],"outputs":[],"stateMutability":"nonpayable"},{"type":"function","name":"unleverage","inputs":[{"name":"leveragePositionId","type":"uint256","internalType":"uint256"}],"outputs":[],"stateMutability":"nonpayable"},{"type":"event","name":"OwnershipTransferStarted","inputs":[{"name":"previousOwner","type":"address","indexed":true,"internalType":"address"},{"name":"newOwner","type":"address","indexed":true,"internalType":"address"}],"anonymous":false},{"type":"event","name":"OwnershipTransferred","inputs":[{"name":"previousOwner","type":"address","indexed":true,"internalType":"address"},{"name":"newOwner","type":"address","indexed":true,"internalType":"address"}],"anonymous":false},{"type":"error","name":"FlashLeverage__ExceedsMaxLTV","inputs":[]},{"type":"error","name":"FlashLeverage__ExceedsMaxLeverageLTV","inputs":[]},{"type":"error","name":"FlashLeverage__InsufficientCollateralToUnleverage","inputs":[]},{"type":"error","name":"FlashLeverage__InvalidLoanToken","inputs":[]},{"type":"error","name":"FlashLeverage__NotThePositionOwner","inputs":[]},{"type":"error","name":"FlashLeverage__UntrustedLender","inputs":[]},{"type":"error","name":"FlashLeverage__UntrustedLoanInitiator","inputs":[]},{"type":"error","name":"OwnableInvalidOwner","inputs":[{"name":"owner","type":"address","internalType":"address"}]},{"type":"error","name":"OwnableUnauthorizedAccount","inputs":[{"name":"account","type":"address","internalType":"address"}]},{"type":"error","name":"PositionManager__InvalidTokenAddress","inputs":[]},{"type":"error","name":"PositionManager__UnsupportedCollateralToken","inputs":[]},{"type":"error","name":"SafeERC20FailedOperation","inputs":[{"name":"token","type":"address","internalType":"address"}]}],"bytecode":{"object":"0x60c060405234801561000f575f5ffd5b5060405161300338038061300383398181016040528101906100319190610324565b335f73ffffffffffffffffffffffffffffffffffffffff168173ffffffffffffffffffffffffffffffffffffffff16036100a2575f6040517f1e4fbdf70000000000000000000000000000000000000000000000000000000081526004016100999190610371565b60405180910390fd5b6100b1816101cf60201b60201c565b508173ffffffffffffffffffffffffffffffffffffffff1660a08173ffffffffffffffffffffffffffffffffffffffff168152505060a05173ffffffffffffffffffffffffffffffffffffffff166355b74db06040518163ffffffff1660e01b8152600401602060405180830381865afa158015610131573d5f5f3e3d5ffd5b505050506040513d601f19601f82011682018060405250810190610155919061038a565b73ffffffffffffffffffffffffffffffffffffffff1660808173ffffffffffffffffffffffffffffffffffffffff16815250508060035f6101000a81548173ffffffffffffffffffffffffffffffffffffffff021916908373ffffffffffffffffffffffffffffffffffffffff16021790555050506103b5565b60015f6101000a81549073ffffffffffffffffffffffffffffffffffffffff02191690556102028161020560201b60201c565b50565b5f5f5f9054906101000a900473ffffffffffffffffffffffffffffffffffffffff169050815f5f6101000a81548173ffffffffffffffffffffffffffffffffffffffff021916908373ffffffffffffffffffffffffffffffffffffffff1602179055508173ffffffffffffffffffffffffffffffffffffffff168173ffffffffffffffffffffffffffffffffffffffff167f8be0079c531659141344cd1fd0a4f28419497f9722a3daafe3b4186f6b6457e060405160405180910390a35050565b5f5ffd5b5f73ffffffffffffffffffffffffffffffffffffffff82169050919050565b5f6102f3826102ca565b9050919050565b610303816102e9565b811461030d575f5ffd5b50565b5f8151905061031e816102fa565b92915050565b5f5f6040838503121561033a576103396102c6565b5b5f61034785828601610310565b925050602061035885828601610310565b9150509250929050565b61036b816102e9565b82525050565b5f6020820190506103845f830184610362565b92915050565b5f6020828403121561039f5761039e6102c6565b5b5f6103ac84828501610310565b91505092915050565b60805160a051612bb661044d5f395f81816102bd0152818161048e0152818161055901528181610c0001528181610f6201528181610fe3015281816110c90152818161126b015281816114d7015281816117b7015281816119850152611a4201525f81816104cb0152818161064301528181610c3d01528181610e160152818161108d0152818161149b015261158f0152612bb65ff3fe608060405234801561000f575f5ffd5b50600436106100a7575f3560e01c806379ba50971161006f57806379ba50971461014d5780638da5cb5b146101575780638dced9be14610175578063a230922e14610193578063e30c3978146101af578063f2fde38b146101cd576100a7565b80631d430ef4146100ab57806323e30c8b146100c75780634b7f11a7146100f7578063544e5eca14610113578063715018a614610143575b5f5ffd5b6100c560048036038101906100c09190611d94565b6101e9565b005b6100e160048036038101906100dc9190611e7a565b610556565b6040516100ee9190611f28565b60405180910390f35b610111600480360381019061010c9190612089565b61074f565b005b61012d600480360381019061012891906120ff565b6108e9565b60405161013a9190612230565b60405180910390f35b61014b6109ea565b005b6101556109ec565b005b61015f610a7a565b60405161016c919061225f565b60405180910390f35b61017d610aa1565b60405161018a9190612287565b60405180910390f35b6101ad60048036038101906101a891906122a0565b610aad565b005b6101b7610cc7565b6040516101c4919061225f565b60405180910390f35b6101e760048036038101906101e291906120ff565b610cef565b005b5f60045f3373ffffffffffffffffffffffffffffffffffffffff1673ffffffffffffffffffffffffffffffffffffffff1681526020019081526020015f20828154811061023957610238612304565b5b905f5260205f2090600302016040518060600160405290815f82015f9054906101000a900473ffffffffffffffffffffffffffffffffffffffff1673ffffffffffffffffffffffffffffffffffffffff1673ffffffffffffffffffffffffffffffffffffffff1681526020016001820154815260200160028201548152505090505f7f000000000000000000000000000000000000000000000000000000000000000073ffffffffffffffffffffffffffffffffffffffff1663eb02c30183602001516040518263ffffffff1660e01b81526004016103189190612287565b608060405180830381865afa158015610333573d5f5f3e3d5ffd5b505050506040513d601f19601f8201168201806040525081019061035791906123d2565b9050815f015173ffffffffffffffffffffffffffffffffffffffff163373ffffffffffffffffffffffffffffffffffffffff16146103c1576040517fca6945c500000000000000000000000000000000000000000000000000000000815260040160405180910390fd5b5f6001835f015185846020015185604001516040516020016103e7959493929190612470565b604051602081830303815290604052905060045f845f015173ffffffffffffffffffffffffffffffffffffffff1673ffffffffffffffffffffffffffffffffffffffff1681526020019081526020015f20848154811061044a57610449612304565b5b905f5260205f2090600302015f5f82015f6101000a81549073ffffffffffffffffffffffffffffffffffffffff0219169055600182015f9055600282015f905550507f000000000000000000000000000000000000000000000000000000000000000073ffffffffffffffffffffffffffffffffffffffff16635cffe9de307f00000000000000000000000000000000000000000000000000000000000000008560600151856040518563ffffffff1660e01b815260040161050f949392919061257c565b6020604051808303815f875af115801561052b573d5f5f3e3d5ffd5b505050506040513d601f19601f8201168201806040525081019061054f91906125fb565b5050505050565b5f7f000000000000000000000000000000000000000000000000000000000000000073ffffffffffffffffffffffffffffffffffffffff163373ffffffffffffffffffffffffffffffffffffffff16146105dc576040517f3baf0ef200000000000000000000000000000000000000000000000000000000815260040160405180910390fd5b3073ffffffffffffffffffffffffffffffffffffffff168773ffffffffffffffffffffffffffffffffffffffff1614610641576040517ff151fc4d00000000000000000000000000000000000000000000000000000000815260040160405180910390fd5b7f000000000000000000000000000000000000000000000000000000000000000073ffffffffffffffffffffffffffffffffffffffff168673ffffffffffffffffffffffffffffffffffffffff16146106c6576040517f47b73a6e00000000000000000000000000000000000000000000000000000000815260040160405180910390fd5b5f83838101906106d69190612649565b90505f60018111156106eb576106ea6123fd565b5b8160018111156106fe576106fd6123fd565b5b036107145761070f86868686610d9b565b610721565b6107208686868661124d565b5b7f439148f0bbc682ca079e46d6e2c2f0c1e3b820f1a291b069d8882abf8cf18dd99150509695505050505050565b6107576116ba565b805182511461079b576040517f08c379a0000000000000000000000000000000000000000000000000000000008152600401610792906126ce565b60405180910390fd5b5f5f90505b82518110156108e4575f73ffffffffffffffffffffffffffffffffffffffff168382815181106107d3576107d2612304565b5b602002602001015173ffffffffffffffffffffffffffffffffffffffff1603610828576040517f8c459d2e00000000000000000000000000000000000000000000000000000000815260040160405180910390fd5b81818151811061083b5761083a612304565b5b602002602001015160025f85848151811061085957610858612304565b5b602002602001015173ffffffffffffffffffffffffffffffffffffffff1673ffffffffffffffffffffffffffffffffffffffff1681526020019081526020015f205f6101000a81548173ffffffffffffffffffffffffffffffffffffffff021916908373ffffffffffffffffffffffffffffffffffffffff16021790555080806001019150506107a0565b505050565b606060045f8373ffffffffffffffffffffffffffffffffffffffff1673ffffffffffffffffffffffffffffffffffffffff1681526020019081526020015f20805480602002602001604051908101604052809291908181526020015f905b828210156109df578382905f5260205f2090600302016040518060600160405290815f82015f9054906101000a900473ffffffffffffffffffffffffffffffffffffffff1673ffffffffffffffffffffffffffffffffffffffff1673ffffffffffffffffffffffffffffffffffffffff1681526020016001820154815260200160028201548152505081526020019060010190610947565b505050509050919050565b565b5f6109f5611741565b90508073ffffffffffffffffffffffffffffffffffffffff16610a16610cc7565b73ffffffffffffffffffffffffffffffffffffffff1614610a6e57806040517f118cdaa7000000000000000000000000000000000000000000000000000000008152600401610a65919061225f565b60405180910390fd5b610a7781611748565b50565b5f5f5f9054906101000a900473ffffffffffffffffffffffffffffffffffffffff16905090565b670b1a2bc2ec50000081565b825f73ffffffffffffffffffffffffffffffffffffffff1660025f8373ffffffffffffffffffffffffffffffffffffffff1673ffffffffffffffffffffffffffffffffffffffff1681526020019081526020015f205f9054906101000a900473ffffffffffffffffffffffffffffffffffffffff1673ffffffffffffffffffffffffffffffffffffffff1603610b6f576040517fc086bcd300000000000000000000000000000000000000000000000000000000815260040160405180910390fd5b670b1a2bc2ec500000821115610bb1576040517f45b436de00000000000000000000000000000000000000000000000000000000815260040160405180910390fd5b610bbc843385611778565b5f610bc88585856117b3565b9050610bd58582866118a6565b5f5f878787604051602001610bed94939291906126ec565b60405160208183030381529060405290507f000000000000000000000000000000000000000000000000000000000000000073ffffffffffffffffffffffffffffffffffffffff16635cffe9de307f000000000000000000000000000000000000000000000000000000000000000085856040518563ffffffff1660e01b8152600401610c7d949392919061257c565b6020604051808303815f875af1158015610c99573d5f5f3e3d5ffd5b505050506040513d601f19601f82011682018060405250810190610cbd91906125fb565b5050505050505050565b5f60015f9054906101000a900473ffffffffffffffffffffffffffffffffffffffff16905090565b610cf76116ba565b8060015f6101000a81548173ffffffffffffffffffffffffffffffffffffffff021916908373ffffffffffffffffffffffffffffffffffffffff1602179055508073ffffffffffffffffffffffffffffffffffffffff16610d56610a7a565b73ffffffffffffffffffffffffffffffffffffffff167f38d16b8cac22d99fc7c124b9cd0de2d3fa1faef420bfe791d8c362d765e2270060405160405180910390a350565b5f5f5f8484810190610dad919061276a565b935093509350505f60025f8473ffffffffffffffffffffffffffffffffffffffff1673ffffffffffffffffffffffffffffffffffffffff1681526020019081526020015f205f9054906101000a900473ffffffffffffffffffffffffffffffffffffffff1690507f000000000000000000000000000000000000000000000000000000000000000073ffffffffffffffffffffffffffffffffffffffff1663095ea7b3828a6040518363ffffffff1660e01b8152600401610e6f9291906127ce565b6020604051808303815f875af1158015610e8b573d5f5f3e3d5ffd5b505050506040513d601f19601f82011682018060405250810190610eaf91906125fb565b505f8173ffffffffffffffffffffffffffffffffffffffff1663a64833a060015f8c5f306040518663ffffffff1660e01b8152600401610ef3959493929190612867565b6020604051808303815f875af1158015610f0f573d5f5f3e3d5ffd5b505050506040513d601f19601f82011682018060405250810190610f3391906128b8565b90505f8184610f429190612910565b90508473ffffffffffffffffffffffffffffffffffffffff1663095ea7b37f0000000000000000000000000000000000000000000000000000000000000000836040518363ffffffff1660e01b8152600401610f9f9291906127ce565b6020604051808303815f875af1158015610fbb573d5f5f3e3d5ffd5b505050506040513d601f19601f82011682018060405250810190610fdf91906125fb565b505f7f000000000000000000000000000000000000000000000000000000000000000073ffffffffffffffffffffffffffffffffffffffff1663c5654acc87848d8f61102b9190612910565b6040518463ffffffff1660e01b815260040161104993929190612943565b6020604051808303815f875af1158015611065573d5f5f3e3d5ffd5b505050506040513d601f19601f8201168201806040525081019061108991906128b8565b90507f000000000000000000000000000000000000000000000000000000000000000073ffffffffffffffffffffffffffffffffffffffff1663a9059cbb7f00000000000000000000000000000000000000000000000000000000000000008c8e6110f49190612910565b6040518363ffffffff1660e01b81526004016111119291906127ce565b6020604051808303815f875af115801561112d573d5f5f3e3d5ffd5b505050506040513d601f19601f8201168201806040525081019061115191906125fb565b5060045f8873ffffffffffffffffffffffffffffffffffffffff1673ffffffffffffffffffffffffffffffffffffffff1681526020019081526020015f2060405180606001604052808973ffffffffffffffffffffffffffffffffffffffff16815260200183815260200187815250908060018154018082558091505060019003905f5260205f2090600302015f909190919091505f820151815f015f6101000a81548173ffffffffffffffffffffffffffffffffffffffff021916908373ffffffffffffffffffffffffffffffffffffffff160217905550602082015181600101556040820151816002015550505050505050505050505050565b5f5f5f5f85858101906112609190612978565b9450945094509450507f000000000000000000000000000000000000000000000000000000000000000073ffffffffffffffffffffffffffffffffffffffff1663e16437bc84838b6040518463ffffffff1660e01b81526004016112c6939291906129ef565b5f604051808303815f87803b1580156112dd575f5ffd5b505af11580156112ef573d5f5f3e3d5ffd5b505050505f60025f8473ffffffffffffffffffffffffffffffffffffffff1673ffffffffffffffffffffffffffffffffffffffff1681526020019081526020015f205f9054906101000a900473ffffffffffffffffffffffffffffffffffffffff1690508273ffffffffffffffffffffffffffffffffffffffff1663095ea7b382846040518363ffffffff1660e01b815260040161138e9291906127ce565b6020604051808303815f875af11580156113aa573d5f5f3e3d5ffd5b505050506040513d601f19601f820116820180604052508101906113ce91906125fb565b505f8173ffffffffffffffffffffffffffffffffffffffff1663a64833a05f6001865f306040518663ffffffff1660e01b8152600401611412959493929190612a24565b6020604051808303815f875af115801561142e573d5f5f3e3d5ffd5b505050506040513d601f19601f8201168201806040525081019061145291906128b8565b9050888a6114609190612910565b811015611499576040517fa3c44c1e00000000000000000000000000000000000000000000000000000000815260040160405180910390fd5b7f000000000000000000000000000000000000000000000000000000000000000073ffffffffffffffffffffffffffffffffffffffff1663a9059cbb7f00000000000000000000000000000000000000000000000000000000000000008b8d6115029190612910565b6040518363ffffffff1660e01b815260040161151f9291906127ce565b6020604051808303815f875af115801561153b573d5f5f3e3d5ffd5b505050506040513d601f19601f8201168201806040525081019061155f91906125fb565b50888a61156c9190612910565b8111156116ae575f898b6115809190612910565b8261158b9190612a75565b90507f000000000000000000000000000000000000000000000000000000000000000073ffffffffffffffffffffffffffffffffffffffff1663095ea7b384836040518363ffffffff1660e01b81526004016115e89291906127ce565b6020604051808303815f875af1158015611604573d5f5f3e3d5ffd5b505050506040513d601f19601f8201168201806040525081019061162891906125fb565b508273ffffffffffffffffffffffffffffffffffffffff1663a64833a060015f845f8c6040518663ffffffff1660e01b815260040161166b959493929190612867565b6020604051808303815f875af1158015611687573d5f5f3e3d5ffd5b505050506040513d601f19601f820116820180604052508101906116ab91906128b8565b50505b50505050505050505050565b6116c2611741565b73ffffffffffffffffffffffffffffffffffffffff166116e0610a7a565b73ffffffffffffffffffffffffffffffffffffffff161461173f57611703611741565b6040517f118cdaa7000000000000000000000000000000000000000000000000000000008152600401611736919061225f565b60405180910390fd5b565b5f33905090565b60015f6101000a81549073ffffffffffffffffffffffffffffffffffffffff021916905561177581611b0e565b50565b5f8103156117ae576117ad8230838673ffffffffffffffffffffffffffffffffffffffff16611bcf909392919063ffffffff16565b5b505050565b5f5f7f000000000000000000000000000000000000000000000000000000000000000073ffffffffffffffffffffffffffffffffffffffff166373b267d786866040518363ffffffff1660e01b81526004016118109291906127ce565b602060405180830381865afa15801561182b573d5f5f3e3d5ffd5b505050506040513d601f19601f8201168201806040525081019061184f91906128b8565b90508061189284670de0b6b3a76400006118699190612a75565b61188484670de0b6b3a7640000611c5190919063ffffffff16565b611c8390919063ffffffff16565b61189c9190612a75565b9150509392505050565b5f60025f8573ffffffffffffffffffffffffffffffffffffffff1673ffffffffffffffffffffffffffffffffffffffff1681526020019081526020015f205f9054906101000a900473ffffffffffffffffffffffffffffffffffffffff1673ffffffffffffffffffffffffffffffffffffffff1663556d6e9f60015f866040518463ffffffff1660e01b815260040161194193929190612aa8565b602060405180830381865afa15801561195c573d5f5f3e3d5ffd5b505050506040513d601f19601f8201168201806040525081019061198091906128b8565b90505f7f000000000000000000000000000000000000000000000000000000000000000073ffffffffffffffffffffffffffffffffffffffff166373b267d78685856119cc9190612910565b6040518363ffffffff1660e01b81526004016119e99291906127ce565b602060405180830381865afa158015611a04573d5f5f3e3d5ffd5b505050506040513d601f19601f82011682018060405250810190611a2891906128b8565b90505f611a3e8286611c8390919063ffffffff16565b90507f000000000000000000000000000000000000000000000000000000000000000073ffffffffffffffffffffffffffffffffffffffff166381bf8d3d6040518163ffffffff1660e01b8152600401602060405180830381865afa158015611aa9573d5f5f3e3d5ffd5b505050506040513d601f19601f82011682018060405250810190611acd91906128b8565b811115611b06576040517fdcbc554e00000000000000000000000000000000000000000000000000000000815260040160405180910390fd5b505050505050565b5f5f5f9054906101000a900473ffffffffffffffffffffffffffffffffffffffff169050815f5f6101000a81548173ffffffffffffffffffffffffffffffffffffffff021916908373ffffffffffffffffffffffffffffffffffffffff1602179055508173ffffffffffffffffffffffffffffffffffffffff168173ffffffffffffffffffffffffffffffffffffffff167f8be0079c531659141344cd1fd0a4f28419497f9722a3daafe3b4186f6b6457e060405160405180910390a35050565b611c4b848573ffffffffffffffffffffffffffffffffffffffff166323b872dd868686604051602401611c0493929190612add565b604051602081830303815290604052915060e01b6020820180517bffffffffffffffffffffffffffffffffffffffffffffffffffffffff8381831617835250505050611cb5565b50505050565b5f5f8284611c5f9190612b12565b9050670de0b6b3a76400008181611c7957611c78612b53565b5b0491505092915050565b5f5f670de0b6b3a764000084611c999190612b12565b9050828181611cab57611caa612b53565b5b0491505092915050565b5f5f60205f8451602086015f885af180611cd4576040513d5f823e3d81fd5b3d92505f519150505f8214611ced576001811415611d08565b5f8473ffffffffffffffffffffffffffffffffffffffff163b145b15611d4a57836040517f5274afe7000000000000000000000000000000000000000000000000000000008152600401611d41919061225f565b60405180910390fd5b50505050565b5f604051905090565b5f5ffd5b5f5ffd5b5f819050919050565b611d7381611d61565b8114611d7d575f5ffd5b50565b5f81359050611d8e81611d6a565b92915050565b5f60208284031215611da957611da8611d59565b5b5f611db684828501611d80565b91505092915050565b5f73ffffffffffffffffffffffffffffffffffffffff82169050919050565b5f611de882611dbf565b9050919050565b611df881611dde565b8114611e02575f5ffd5b50565b5f81359050611e1381611def565b92915050565b5f5ffd5b5f5ffd5b5f5ffd5b5f5f83601f840112611e3a57611e39611e19565b5b8235905067ffffffffffffffff811115611e5757611e56611e1d565b5b602083019150836001820283011115611e7357611e72611e21565b5b9250929050565b5f5f5f5f5f5f60a08789031215611e9457611e93611d59565b5b5f611ea189828a01611e05565b9650506020611eb289828a01611e05565b9550506040611ec389828a01611d80565b9450506060611ed489828a01611d80565b935050608087013567ffffffffffffffff811115611ef557611ef4611d5d565b5b611f0189828a01611e25565b92509250509295509295509295565b5f819050919050565b611f2281611f10565b82525050565b5f602082019050611f3b5f830184611f19565b92915050565b5f601f19601f8301169050919050565b7f4e487b71000000000000000000000000000000000000000000000000000000005f52604160045260245ffd5b611f8782611f41565b810181811067ffffffffffffffff82111715611fa657611fa5611f51565b5b80604052505050565b5f611fb8611d50565b9050611fc48282611f7e565b919050565b5f67ffffffffffffffff821115611fe357611fe2611f51565b5b602082029050602081019050919050565b5f61200661200184611fc9565b611faf565b9050808382526020820190506020840283018581111561202957612028611e21565b5b835b81811015612052578061203e8882611e05565b84526020840193505060208101905061202b565b5050509392505050565b5f82601f8301126120705761206f611e19565b5b8135612080848260208601611ff4565b91505092915050565b5f5f6040838503121561209f5761209e611d59565b5b5f83013567ffffffffffffffff8111156120bc576120bb611d5d565b5b6120c88582860161205c565b925050602083013567ffffffffffffffff8111156120e9576120e8611d5d565b5b6120f58582860161205c565b9150509250929050565b5f6020828403121561211457612113611d59565b5b5f61212184828501611e05565b91505092915050565b5f81519050919050565b5f82825260208201905092915050565b5f819050602082019050919050565b61215c81611dde565b82525050565b61216b81611d61565b82525050565b606082015f8201516121855f850182612153565b5060208201516121986020850182612162565b5060408201516121ab6040850182612162565b50505050565b5f6121bc8383612171565b60608301905092915050565b5f602082019050919050565b5f6121de8261212a565b6121e88185612134565b93506121f383612144565b805f5b8381101561222357815161220a88826121b1565b9750612215836121c8565b9250506001810190506121f6565b5085935050505092915050565b5f6020820190508181035f83015261224881846121d4565b905092915050565b61225981611dde565b82525050565b5f6020820190506122725f830184612250565b92915050565b61228181611d61565b82525050565b5f60208201905061229a5f830184612278565b92915050565b5f5f5f5f608085870312156122b8576122b7611d59565b5b5f6122c587828801611e05565b94505060206122d687828801611e05565b93505060406122e787828801611d80565b92505060606122f887828801611d80565b91505092959194509250565b7f4e487b71000000000000000000000000000000000000000000000000000000005f52603260045260245ffd5b5f5ffd5b5f8151905061234381611def565b92915050565b5f8151905061235781611d6a565b92915050565b5f6080828403121561237257612371612331565b5b61237c6080611faf565b90505f61238b84828501612335565b5f83015250602061239e84828501612335565b60208301525060406123b284828501612349565b60408301525060606123c684828501612349565b60608301525092915050565b5f608082840312156123e7576123e6611d59565b5b5f6123f48482850161235d565b91505092915050565b7f4e487b71000000000000000000000000000000000000000000000000000000005f52602160045260245ffd5b6002811061243b5761243a6123fd565b5b50565b5f81905061244b8261242a565b919050565b5f61245a8261243e565b9050919050565b61246a81612450565b82525050565b5f60a0820190506124835f830188612461565b6124906020830187612250565b61249d6040830186612278565b6124aa6060830185612250565b6124b76080830184612278565b9695505050505050565b5f819050919050565b5f6124e46124df6124da84611dbf565b6124c1565b611dbf565b9050919050565b5f6124f5826124ca565b9050919050565b5f612506826124eb565b9050919050565b612516816124fc565b82525050565b5f81519050919050565b5f82825260208201905092915050565b8281835e5f83830152505050565b5f61254e8261251c565b6125588185612526565b9350612568818560208601612536565b61257181611f41565b840191505092915050565b5f60808201905061258f5f83018761250d565b61259c6020830186612250565b6125a96040830185612278565b81810360608301526125bb8184612544565b905095945050505050565b5f8115159050919050565b6125da816125c6565b81146125e4575f5ffd5b50565b5f815190506125f5816125d1565b92915050565b5f602082840312156126105761260f611d59565b5b5f61261d848285016125e7565b91505092915050565b60028110612632575f5ffd5b50565b5f8135905061264381612626565b92915050565b5f6020828403121561265e5761265d611d59565b5b5f61266b84828501612635565b91505092915050565b5f82825260208201905092915050565b7f4c656e677468204d69736d6174636800000000000000000000000000000000005f82015250565b5f6126b8600f83612674565b91506126c382612684565b602082019050919050565b5f6020820190508181035f8301526126e5816126ac565b9050919050565b5f6080820190506126ff5f830187612461565b61270c6020830186612250565b6127196040830185612250565b6127266060830184612278565b95945050505050565b5f61273982611dbf565b9050919050565b6127498161272f565b8114612753575f5ffd5b50565b5f8135905061276481612740565b92915050565b5f5f5f5f6080858703121561278257612781611d59565b5b5f61278f87828801612635565b94505060206127a087828801612756565b93505060406127b187828801612756565b92505060606127c287828801611d80565b91505092959194509250565b5f6040820190506127e15f830185612250565b6127ee6020830184612278565b9392505050565b5f819050919050565b5f61281861281361280e846127f5565b6124c1565b611d61565b9050919050565b612828816127fe565b82525050565b5f819050919050565b5f61285161284c6128478461282e565b6124c1565b611d61565b9050919050565b61286181612837565b82525050565b5f60a08201905061287a5f83018861281f565b6128876020830187612858565b6128946040830186612278565b6128a16060830185612858565b6128ae6080830184612250565b9695505050505050565b5f602082840312156128cd576128cc611d59565b5b5f6128da84828501612349565b91505092915050565b7f4e487b71000000000000000000000000000000000000000000000000000000005f52601160045260245ffd5b5f61291a82611d61565b915061292583611d61565b925082820190508082111561293d5761293c6128e3565b5b92915050565b5f6060820190506129565f830186612250565b6129636020830185612278565b6129706040830184612278565b949350505050565b5f5f5f5f5f60a0868803121561299157612990611d59565b5b5f61299e88828901612635565b95505060206129af88828901612756565b94505060406129c088828901611d80565b93505060606129d188828901612756565b92505060806129e288828901611d80565b9150509295509295909350565b5f606082019050612a025f830186612278565b612a0f6020830185612278565b612a1c6040830184612278565b949350505050565b5f60a082019050612a375f830188612858565b612a44602083018761281f565b612a516040830186612278565b612a5e6060830185612858565b612a6b6080830184612250565b9695505050505050565b5f612a7f82611d61565b9150612a8a83611d61565b9250828203905081811115612aa257612aa16128e3565b5b92915050565b5f606082019050612abb5f83018661281f565b612ac86020830185612858565b612ad56040830184612278565b949350505050565b5f606082019050612af05f830186612250565b612afd6020830185612250565b612b0a6040830184612278565b949350505050565b5f612b1c82611d61565b9150612b2783611d61565b9250828202612b3581611d61565b91508282048414831517612b4c57612b4b6128e3565b5b5092915050565b7f4e487b71000000000000000000000000000000000000000000000000000000005f52601260045260245ffdfea264697066735822122092c3c9e578eafe990d8e9d696f67c2106c3becf163cd6ef548145afe1ebbbf6b64736f6c634300081e0033","linkReferences":{}},"methodIdentifiers":{"MAX_LEVERAGE_LTV()":"8dced9be","acceptOwnership()":"79ba5097","addSupportedCollateralTokens(address[],address[])":"4b7f11a7","getUserLeveragePositions(address)":"544e5eca","leverage(address,address,uint256,uint256)":"a230922e","onFlashLoan(address,address,uint256,uint256,bytes)":"23e30c8b","owner()":"8da5cb5b","pendingOwner()":"e30c3978","renounceOwnership()":"715018a6","transferOwnership(address)":"f2fde38b","unleverage(uint256)":"1d430ef4"},"id":60}