{"abi":[{"type":"constructor","inputs":[{"name":"morphoAddress","type":"address","internalType":"address"},{"name":"pendleRouter","type":"address","internalType":"address"},{"name":"oracleRouter","type":"address","internalType":"address"}],"stateMutability":"nonpayable"},{"type":"function","name":"AMOUNT_COLLATERAL_CAP","inputs":[],"outputs":[{"name":"","type":"uint256","internalType":"uint256"}],"stateMutability":"view"},{"type":"function","name":"LIQUIDATION_BUFFER","inputs":[],"outputs":[{"name":"","type":"uint256","internalType":"uint256"}],"stateMutability":"view"},{"type":"function","name":"USD","inputs":[],"outputs":[{"name":"","type":"address","internalType":"address"}],"stateMutability":"view"},{"type":"function","name":"acceptOwnership","inputs":[],"outputs":[],"stateMutability":"nonpayable"},{"type":"function","name":"addSupportedCollateralTokens","inputs":[{"name":"configs","type":"tuple[]","internalType":"struct CollateralTokenConfig[]","components":[{"name":"token","type":"address","internalType":"address"},{"name":"morphoMarketId","type":"bytes32","internalType":"bytes32"},{"name":"underlyingToken","type":"address","internalType":"address"},{"name":"pendleMarket","type":"address","internalType":"address"}]}],"outputs":[],"stateMutability":"nonpayable"},{"type":"function","name":"calcLoanAmount","inputs":[{"name":"collateralToken","type":"address","internalType":"address"},{"name":"loanToken","type":"address","internalType":"address"},{"name":"userCollateralAmount","type":"uint256","internalType":"uint256"}],"outputs":[{"name":"","type":"uint256","internalType":"uint256"}],"stateMutability":"view"},{"type":"function","name":"getMaxLtv","inputs":[{"name":"collateralToken","type":"address","internalType":"address"}],"outputs":[{"name":"","type":"uint256","internalType":"uint256"}],"stateMutability":"view"},{"type":"function","name":"getRepayAmount","inputs":[{"name":"collateralToken","type":"address","internalType":"address"},{"name":"sharesBorrowed","type":"uint256","internalType":"uint256"}],"outputs":[{"name":"amountRepay","type":"uint256","internalType":"uint256"}],"stateMutability":"view"},{"type":"function","name":"getTokenUsdValue","inputs":[{"name":"token","type":"address","internalType":"address"},{"name":"amount","type":"uint256","internalType":"uint256"}],"outputs":[{"name":"","type":"uint256","internalType":"uint256"}],"stateMutability":"view"},{"type":"function","name":"getUserLeveragePosition","inputs":[{"name":"user","type":"address","internalType":"address"},{"name":"positionId","type":"uint256","internalType":"uint256"}],"outputs":[{"name":"","type":"tuple","internalType":"struct LeveragePosition","components":[{"name":"collateralToken","type":"address","internalType":"address"},{"name":"loanToken","type":"address","internalType":"address"},{"name":"amountUserCollateral","type":"uint256","internalType":"uint256"},{"name":"amountTotalCollateral","type":"uint256","internalType":"uint256"},{"name":"sharesBorrowed","type":"uint256","internalType":"uint256"}]}],"stateMutability":"view"},{"type":"function","name":"getUserLeveragePositions","inputs":[{"name":"user","type":"address","internalType":"address"}],"outputs":[{"name":"","type":"tuple[]","internalType":"struct LeveragePosition[]","components":[{"name":"collateralToken","type":"address","internalType":"address"},{"name":"loanToken","type":"address","internalType":"address"},{"name":"amountUserCollateral","type":"uint256","internalType":"uint256"},{"name":"amountTotalCollateral","type":"uint256","internalType":"uint256"},{"name":"sharesBorrowed","type":"uint256","internalType":"uint256"}]}],"stateMutability":"view"},{"type":"function","name":"i_oracleRouter","inputs":[],"outputs":[{"name":"","type":"address","internalType":"contract IOracleRouter"}],"stateMutability":"view"},{"type":"function","name":"leverage","inputs":[{"name":"onBehalfOf","type":"address","internalType":"address"},{"name":"collateralToken","type":"address","internalType":"address"},{"name":"amountCollateral","type":"uint256","internalType":"uint256"},{"name":"approxParams","type":"tuple","internalType":"struct ApproxParams","components":[{"name":"guessMin","type":"uint256","internalType":"uint256"},{"name":"guessMax","type":"uint256","internalType":"uint256"},{"name":"guessOffchain","type":"uint256","internalType":"uint256"},{"name":"maxIteration","type":"uint256","internalType":"uint256"},{"name":"eps","type":"uint256","internalType":"uint256"}]},{"name":"pendleSwap","type":"address","internalType":"address"},{"name":"swapData","type":"tuple","internalType":"struct SwapData","components":[{"name":"swapType","type":"uint8","internalType":"enum SwapType"},{"name":"extRouter","type":"address","internalType":"address"},{"name":"extCalldata","type":"bytes","internalType":"bytes"},{"name":"needScale","type":"bool","internalType":"bool"}]},{"name":"limitOrderData","type":"tuple","internalType":"struct LimitOrderData","components":[{"name":"limitRouter","type":"address","internalType":"address"},{"name":"epsSkipMarket","type":"uint256","internalType":"uint256"},{"name":"normalFills","type":"tuple[]","internalType":"struct FillOrderParams[]","components":[{"name":"order","type":"tuple","internalType":"struct Order","components":[{"name":"salt","type":"uint256","internalType":"uint256"},{"name":"expiry","type":"uint256","internalType":"uint256"},{"name":"nonce","type":"uint256","internalType":"uint256"},{"name":"orderType","type":"uint8","internalType":"enum IPLimitOrderType.OrderType"},{"name":"token","type":"address","internalType":"address"},{"name":"YT","type":"address","internalType":"address"},{"name":"maker","type":"address","internalType":"address"},{"name":"receiver","type":"address","internalType":"address"},{"name":"makingAmount","type":"uint256","internalType":"uint256"},{"name":"lnImpliedRate","type":"uint256","internalType":"uint256"},{"name":"failSafeRate","type":"uint256","internalType":"uint256"},{"name":"permit","type":"bytes","internalType":"bytes"}]},{"name":"signature","type":"bytes","internalType":"bytes"},{"name":"makingAmount","type":"uint256","internalType":"uint256"}]},{"name":"flashFills","type":"tuple[]","internalType":"struct FillOrderParams[]","components":[{"name":"order","type":"tuple","internalType":"struct Order","components":[{"name":"salt","type":"uint256","internalType":"uint256"},{"name":"expiry","type":"uint256","internalType":"uint256"},{"name":"nonce","type":"uint256","internalType":"uint256"},{"name":"orderType","type":"uint8","internalType":"enum IPLimitOrderType.OrderType"},{"name":"token","type":"address","internalType":"address"},{"name":"YT","type":"address","internalType":"address"},{"name":"maker","type":"address","internalType":"address"},{"name":"receiver","type":"address","internalType":"address"},{"name":"makingAmount","type":"uint256","internalType":"uint256"},{"name":"lnImpliedRate","type":"uint256","internalType":"uint256"},{"name":"failSafeRate","type":"uint256","internalType":"uint256"},{"name":"permit","type":"bytes","internalType":"bytes"}]},{"name":"signature","type":"bytes","internalType":"bytes"},{"name":"makingAmount","type":"uint256","internalType":"uint256"}]},{"name":"optData","type":"bytes","internalType":"bytes"}]}],"outputs":[],"stateMutability":"nonpayable"},{"type":"function","name":"onMorphoFlashLoan","inputs":[{"name":"amountLoan","type":"uint256","internalType":"uint256"},{"name":"data","type":"bytes","internalType":"bytes"}],"outputs":[],"stateMutability":"nonpayable"},{"type":"function","name":"owner","inputs":[],"outputs":[{"name":"","type":"address","internalType":"address"}],"stateMutability":"view"},{"type":"function","name":"pendingOwner","inputs":[],"outputs":[{"name":"","type":"address","internalType":"address"}],"stateMutability":"view"},{"type":"function","name":"renounceOwnership","inputs":[],"outputs":[],"stateMutability":"nonpayable"},{"type":"function","name":"transferOwnership","inputs":[{"name":"newOwner","type":"address","internalType":"address"}],"outputs":[],"stateMutability":"nonpayable"},{"type":"function","name":"unleverage","inputs":[{"name":"positionId","type":"uint256","internalType":"uint256"},{"name":"pendleSwap","type":"address","internalType":"address"},{"name":"swapData","type":"tuple","internalType":"struct SwapData","components":[{"name":"swapType","type":"uint8","internalType":"enum SwapType"},{"name":"extRouter","type":"address","internalType":"address"},{"name":"extCalldata","type":"bytes","internalType":"bytes"},{"name":"needScale","type":"bool","internalType":"bool"}]},{"name":"limitOrderData","type":"tuple","internalType":"struct LimitOrderData","components":[{"name":"limitRouter","type":"address","internalType":"address"},{"name":"epsSkipMarket","type":"uint256","internalType":"uint256"},{"name":"normalFills","type":"tuple[]","internalType":"struct FillOrderParams[]","components":[{"name":"order","type":"tuple","internalType":"struct Order","components":[{"name":"salt","type":"uint256","internalType":"uint256"},{"name":"expiry","type":"uint256","internalType":"uint256"},{"name":"nonce","type":"uint256","internalType":"uint256"},{"name":"orderType","type":"uint8","internalType":"enum IPLimitOrderType.OrderType"},{"name":"token","type":"address","internalType":"address"},{"name":"YT","type":"address","internalType":"address"},{"name":"maker","type":"address","internalType":"address"},{"name":"receiver","type":"address","internalType":"address"},{"name":"makingAmount","type":"uint256","internalType":"uint256"},{"name":"lnImpliedRate","type":"uint256","internalType":"uint256"},{"name":"failSafeRate","type":"uint256","internalType":"uint256"},{"name":"permit","type":"bytes","internalType":"bytes"}]},{"name":"signature","type":"bytes","internalType":"bytes"},{"name":"makingAmount","type":"uint256","internalType":"uint256"}]},{"name":"flashFills","type":"tuple[]","internalType":"struct FillOrderParams[]","components":[{"name":"order","type":"tuple","internalType":"struct Order","components":[{"name":"salt","type":"uint256","internalType":"uint256"},{"name":"expiry","type":"uint256","internalType":"uint256"},{"name":"nonce","type":"uint256","internalType":"uint256"},{"name":"orderType","type":"uint8","internalType":"enum IPLimitOrderType.OrderType"},{"name":"token","type":"address","internalType":"address"},{"name":"YT","type":"address","internalType":"address"},{"name":"maker","type":"address","internalType":"address"},{"name":"receiver","type":"address","internalType":"address"},{"name":"makingAmount","type":"uint256","internalType":"uint256"},{"name":"lnImpliedRate","type":"uint256","internalType":"uint256"},{"name":"failSafeRate","type":"uint256","internalType":"uint256"},{"name":"permit","type":"bytes","internalType":"bytes"}]},{"name":"signature","type":"bytes","internalType":"bytes"},{"name":"makingAmount","type":"uint256","internalType":"uint256"}]},{"name":"optData","type":"bytes","internalType":"bytes"}]}],"outputs":[],"stateMutability":"nonpayable"},{"type":"event","name":"CollateralTokenAdded","inputs":[{"name":"token","type":"address","indexed":true,"internalType":"address"},{"name":"pendleMarket","type":"address","indexed":true,"internalType":"address"},{"name":"morphoMarketId","type":"bytes32","indexed":true,"internalType":"bytes32"}],"anonymous":false},{"type":"event","name":"LeveragePositionClosed","inputs":[{"name":"user","type":"address","indexed":true,"internalType":"address"},{"name":"positionId","type":"uint256","indexed":true,"internalType":"uint256"},{"name":"amountReturned","type":"uint256","indexed":true,"internalType":"uint256"}],"anonymous":false},{"type":"event","name":"LeveragePositionOpened","inputs":[{"name":"user","type":"address","indexed":true,"internalType":"address"},{"name":"positionId","type":"uint256","indexed":true,"internalType":"uint256"},{"name":"collateralToken","type":"address","indexed":false,"internalType":"address"},{"name":"loanToken","type":"address","indexed":false,"internalType":"address"},{"name":"amountUserCollateral","type":"uint256","indexed":false,"internalType":"uint256"},{"name":"amountTotalCollateral","type":"uint256","indexed":false,"internalType":"uint256"},{"name":"sharesBorrowed","type":"uint256","indexed":false,"internalType":"uint256"}],"anonymous":false},{"type":"event","name":"OwnershipTransferStarted","inputs":[{"name":"previousOwner","type":"address","indexed":true,"internalType":"address"},{"name":"newOwner","type":"address","indexed":true,"internalType":"address"}],"anonymous":false},{"type":"event","name":"OwnershipTransferred","inputs":[{"name":"previousOwner","type":"address","indexed":true,"internalType":"address"},{"name":"newOwner","type":"address","indexed":true,"internalType":"address"}],"anonymous":false},{"type":"error","name":"FlashLeverage__InvalidAmountCollateral","inputs":[]},{"type":"error","name":"FlashLeverage__PositionAlreadyUnleveraged","inputs":[]},{"type":"error","name":"FlashLeverage__PositionDoesNotExist","inputs":[]},{"type":"error","name":"FlashLeverage__UnsupportedCollateralToken","inputs":[]},{"type":"error","name":"FlashLeverage__UntrustedLender","inputs":[]},{"type":"error","name":"OwnableInvalidOwner","inputs":[{"name":"owner","type":"address","internalType":"address"}]},{"type":"error","name":"OwnableUnauthorizedAccount","inputs":[{"name":"account","type":"address","internalType":"address"}]},{"type":"error","name":"SafeERC20FailedOperation","inputs":[{"name":"token","type":"address","internalType":"address"}]}],"bytecode":{"object":"0x60e060405234801561000f575f5ffd5b506040516162ee3803806162ee833981810160405281019061003191906102b1565b3383838073ffffffffffffffffffffffffffffffffffffffff1660808173ffffffffffffffffffffffffffffffffffffffff1681525050508073ffffffffffffffffffffffffffffffffffffffff1660a08173ffffffffffffffffffffffffffffffffffffffff1681525050505f73ffffffffffffffffffffffffffffffffffffffff168173ffffffffffffffffffffffffffffffffffffffff160361010e575f6040517f1e4fbdf70000000000000000000000000000000000000000000000000000000081526004016101059190610310565b60405180910390fd5b61011d8161015a60201b60201c565b508073ffffffffffffffffffffffffffffffffffffffff1660c08173ffffffffffffffffffffffffffffffffffffffff1681525050505050610329565b60035f6101000a81549073ffffffffffffffffffffffffffffffffffffffff021916905561018d8161019060201b60201c565b50565b5f60025f9054906101000a900473ffffffffffffffffffffffffffffffffffffffff1690508160025f6101000a81548173ffffffffffffffffffffffffffffffffffffffff021916908373ffffffffffffffffffffffffffffffffffffffff1602179055508173ffffffffffffffffffffffffffffffffffffffff168173ffffffffffffffffffffffffffffffffffffffff167f8be0079c531659141344cd1fd0a4f28419497f9722a3daafe3b4186f6b6457e060405160405180910390a35050565b5f5ffd5b5f73ffffffffffffffffffffffffffffffffffffffff82169050919050565b5f61028082610257565b9050919050565b61029081610276565b811461029a575f5ffd5b50565b5f815190506102ab81610287565b92915050565b5f5f5f606084860312156102c8576102c7610253565b5b5f6102d58682870161029d565b93505060206102e68682870161029d565b92505060406102f78682870161029d565b9150509250925092565b61030a81610276565b82525050565b5f6020820190506103235f830184610301565b92915050565b60805160a05160c051615f2b6103c35f395f81816103990152610b6301525f818161061501528181610771015281816111c7015281816114e2015281816116a5015281816118ba01528181611a3601528181612d1a01528181612d4101528181612dda01528181612fa201528181612fcd015261308401525f81816122dc015281816123030152818161288501526128ac0152615f2b5ff3fe608060405234801561000f575f5ffd5b506004361061011f575f3560e01c806379ba5097116100ab578063b3ec40461161006f578063b3ec4046146102e1578063dfdace5514610311578063e30c39781461032d578063f2fde38b1461034b578063f7ac8400146103675761011f565b806379ba50971461026157806383da2a3c1461026b5780638da5cb5b146102895780639d7d2538146102a7578063a5012f3e146102c55761011f565b8063544e5eca116100f2578063544e5eca14610197578063642afd92146101c7578063647e0c20146101f7578063715018a61461022757806373b267d7146102315761011f565b80630287f8c614610123578063062c43c6146101415780631bf6c21b1461015d57806331f570721461017b575b5f5ffd5b61012b610397565b6040516101389190613678565b60405180910390f35b61015b60048036038101906101569190613cf3565b6103bb565b005b610165610769565b6040516101729190613d9e565b60405180910390f35b61019560048036038101906101909190613db7565b61076f565b005b6101b160048036038101906101ac9190613e11565b610855565b6040516101be9190613f68565b60405180910390f35b6101e160048036038101906101dc9190613f88565b6109b5565b6040516101ee919061402c565b60405180910390f35b610211600480360381019061020c9190613e11565b610af2565b60405161021e9190614054565b60405180910390f35b61022f610b4d565b005b61024b60048036038101906102469190613f88565b610b60565b6040516102589190614054565b60405180910390f35b610269610c07565b005b610273610c95565b6040516102809190614054565b60405180910390f35b610291610ca0565b60405161029e9190613d9e565b60405180910390f35b6102af610cc8565b6040516102bc9190614054565b60405180910390f35b6102df60048036038101906102da91906141d5565b610cd5565b005b6102fb60048036038101906102f6919061421c565b610de7565b6040516103089190614054565b60405180910390f35b61032b600480360381019061032691906142f5565b610ec3565b005b61033561125d565b6040516103429190613d9e565b60405180910390f35b61036560048036038101906103609190613e11565b611285565b005b610381600480360381019061037c9190613f88565b611331565b60405161038e9190614054565b60405180910390f35b7f000000000000000000000000000000000000000000000000000000000000000081565b5f33905060045f8273ffffffffffffffffffffffffffffffffffffffff1673ffffffffffffffffffffffffffffffffffffffff1681526020019081526020015f20805490508510610438576040517f33a9e83f00000000000000000000000000000000000000000000000000000000815260040160405180910390fd5b5f60045f8373ffffffffffffffffffffffffffffffffffffffff1673ffffffffffffffffffffffffffffffffffffffff1681526020019081526020015f208681548110610488576104876143ce565b5b905f5260205f2090600502016040518060a00160405290815f82015f9054906101000a900473ffffffffffffffffffffffffffffffffffffffff1673ffffffffffffffffffffffffffffffffffffffff1673ffffffffffffffffffffffffffffffffffffffff168152602001600182015f9054906101000a900473ffffffffffffffffffffffffffffffffffffffff1673ffffffffffffffffffffffffffffffffffffffff1673ffffffffffffffffffffffffffffffffffffffff168152602001600282015481526020016003820154815260200160048201548152505090505f73ffffffffffffffffffffffffffffffffffffffff16816020015173ffffffffffffffffffffffffffffffffffffffff16036105d1576040517f891e6c9f00000000000000000000000000000000000000000000000000000000815260040160405180910390fd5b5f600183888888886040516020016105ee9695949392919061485a565b60405160208183030381529060405290505f610611835f01518460800151611331565b90507f000000000000000000000000000000000000000000000000000000000000000073ffffffffffffffffffffffffffffffffffffffff1663e0232b42846020015183856040518463ffffffff1660e01b81526004016106749392919061490f565b5f604051808303815f87803b15801561068b575f5ffd5b505af115801561069d573d5f5f3e3d5ffd5b5050505060045f8573ffffffffffffffffffffffffffffffffffffffff1673ffffffffffffffffffffffffffffffffffffffff1681526020019081526020015f2088815481106106f0576106ef6143ce565b5b905f5260205f2090600502015f5f82015f6101000a81549073ffffffffffffffffffffffffffffffffffffffff0219169055600182015f6101000a81549073ffffffffffffffffffffffffffffffffffffffff0219169055600282015f9055600382015f9055600482015f905550505050505050505050565b61034881565b7f000000000000000000000000000000000000000000000000000000000000000073ffffffffffffffffffffffffffffffffffffffff163373ffffffffffffffffffffffffffffffffffffffff16146107f4576040517f3baf0ef200000000000000000000000000000000000000000000000000000000815260040160405180910390fd5b5f81806020019051810190610809919061496e565b90505f600181111561081e5761081d6143fb565b5b816001811115610831576108306143fb565b5b0361084557610840838361154b565b610850565b61084f838361177f565b5b505050565b606060045f8373ffffffffffffffffffffffffffffffffffffffff1673ffffffffffffffffffffffffffffffffffffffff1681526020019081526020015f20805480602002602001604051908101604052809291908181526020015f905b828210156109aa578382905f5260205f2090600502016040518060a00160405290815f82015f9054906101000a900473ffffffffffffffffffffffffffffffffffffffff1673ffffffffffffffffffffffffffffffffffffffff1673ffffffffffffffffffffffffffffffffffffffff168152602001600182015f9054906101000a900473ffffffffffffffffffffffffffffffffffffffff1673ffffffffffffffffffffffffffffffffffffffff1673ffffffffffffffffffffffffffffffffffffffff1681526020016002820154815260200160038201548152602001600482015481525050815260200190600101906108b3565b505050509050919050565b6109bd613473565b60045f8473ffffffffffffffffffffffffffffffffffffffff1673ffffffffffffffffffffffffffffffffffffffff1681526020019081526020015f208281548110610a0c57610a0b6143ce565b5b905f5260205f2090600502016040518060a00160405290815f82015f9054906101000a900473ffffffffffffffffffffffffffffffffffffffff1673ffffffffffffffffffffffffffffffffffffffff1673ffffffffffffffffffffffffffffffffffffffff168152602001600182015f9054906101000a900473ffffffffffffffffffffffffffffffffffffffff1673ffffffffffffffffffffffffffffffffffffffff1673ffffffffffffffffffffffffffffffffffffffff1681526020016002820154815260200160038201548152602001600482015481525050905092915050565b5f66b1a2bc2ec5000060015f8473ffffffffffffffffffffffffffffffffffffffff1673ffffffffffffffffffffffffffffffffffffffff1681526020019081526020015f2060040154610b4691906149c6565b9050919050565b610b55611976565b610b5e5f6119fd565b565b5f7f000000000000000000000000000000000000000000000000000000000000000073ffffffffffffffffffffffffffffffffffffffff1663ae68676c83856103486040518463ffffffff1660e01b8152600401610bc0939291906149f9565b602060405180830381865afa158015610bdb573d5f5f3e3d5ffd5b505050506040513d601f19601f82011682018060405250810190610bff9190614a42565b905092915050565b5f610c10611a2d565b90508073ffffffffffffffffffffffffffffffffffffffff16610c3161125d565b73ffffffffffffffffffffffffffffffffffffffff1614610c8957806040517f118cdaa7000000000000000000000000000000000000000000000000000000008152600401610c809190613d9e565b60405180910390fd5b610c92816119fd565b50565b66b1a2bc2ec5000081565b5f60025f9054906101000a900473ffffffffffffffffffffffffffffffffffffffff16905090565b68056bc75e2d6310000081565b610cdd611976565b5f5f90505b8151811015610de3575f828281518110610cff57610cfe6143ce565b5b60200260200101519050610d1a815f01518260200151611a34565b610d6f815f01516040518060400160405280846040015173ffffffffffffffffffffffffffffffffffffffff168152602001846060015173ffffffffffffffffffffffffffffffffffffffff16815250611c30565b8060200151816060015173ffffffffffffffffffffffffffffffffffffffff16825f015173ffffffffffffffffffffffffffffffffffffffff167fccc77f5361d68f9aaec208400f9471b808e18960da7d2d21b19e1774f0c99e2e60405160405180910390a4508080600101915050610ce2565b5050565b5f5f610df38584610b60565b90505f610e24610e0287610af2565b670de0b6b3a7640000610e1591906149c6565b83611cfe90919063ffffffff16565b90505f8282610e3391906149c6565b9050610eb760128773ffffffffffffffffffffffffffffffffffffffff1663313ce5676040518163ffffffff1660e01b8152600401602060405180830381865afa158015610e83573d5f5f3e3d5ffd5b505050506040513d601f19601f82011682018060405250810190610ea79190614aa3565b83611d309092919063ffffffff16565b93505050509392505050565b845f81118015610edc575068056bc75e2d631000008111155b610f12576040517f5e9275cc00000000000000000000000000000000000000000000000000000000815260040160405180910390fd5b5f60015f8973ffffffffffffffffffffffffffffffffffffffff1673ffffffffffffffffffffffffffffffffffffffff1681526020019081526020015f205f015f9054906101000a900473ffffffffffffffffffffffffffffffffffffffff1690505f73ffffffffffffffffffffffffffffffffffffffff168173ffffffffffffffffffffffffffffffffffffffff1603610fd9576040517f0f97113700000000000000000000000000000000000000000000000000000000815260040160405180910390fd5b610fe4883389611dac565b5f610ff089838a610de7565b90505f60045f8c73ffffffffffffffffffffffffffffffffffffffff1673ffffffffffffffffffffffffffffffffffffffff1681526020019081526020015f2080549050905060045f8c73ffffffffffffffffffffffffffffffffffffffff1673ffffffffffffffffffffffffffffffffffffffff1681526020019081526020015f206040518060a001604052808c73ffffffffffffffffffffffffffffffffffffffff1681526020018573ffffffffffffffffffffffffffffffffffffffff1681526020018b81526020015f81526020015f815250908060018154018082558091505060019003905f5260205f2090600502015f909190919091505f820151815f015f6101000a81548173ffffffffffffffffffffffffffffffffffffffff021916908373ffffffffffffffffffffffffffffffffffffffff1602179055506020820151816001015f6101000a81548173ffffffffffffffffffffffffffffffffffffffff021916908373ffffffffffffffffffffffffffffffffffffffff16021790555060408201518160020155606082015181600301556080820151816004015550505f5f8c838b8b8b8b6040516020016111b49796959493929190614b34565b60405160208183030381529060405290507f000000000000000000000000000000000000000000000000000000000000000073ffffffffffffffffffffffffffffffffffffffff1663e0232b428585846040518463ffffffff1660e01b81526004016112229392919061490f565b5f604051808303815f87803b158015611239575f5ffd5b505af115801561124b573d5f5f3e3d5ffd5b50505050505050505050505050505050565b5f60035f9054906101000a900473ffffffffffffffffffffffffffffffffffffffff16905090565b61128d611976565b8060035f6101000a81548173ffffffffffffffffffffffffffffffffffffffff021916908373ffffffffffffffffffffffffffffffffffffffff1602179055508073ffffffffffffffffffffffffffffffffffffffff166112ec610ca0565b73ffffffffffffffffffffffffffffffffffffffff167f38d16b8cac22d99fc7c124b9cd0de2d3fa1faef420bfe791d8c362d765e2270060405160405180910390a350565b5f5f60015f8573ffffffffffffffffffffffffffffffffffffffff1673ffffffffffffffffffffffffffffffffffffffff1681526020019081526020015f206040518060a00160405290815f82015f9054906101000a900473ffffffffffffffffffffffffffffffffffffffff1673ffffffffffffffffffffffffffffffffffffffff1673ffffffffffffffffffffffffffffffffffffffff168152602001600182015f9054906101000a900473ffffffffffffffffffffffffffffffffffffffff1673ffffffffffffffffffffffffffffffffffffffff1673ffffffffffffffffffffffffffffffffffffffff168152602001600282015f9054906101000a900473ffffffffffffffffffffffffffffffffffffffff1673ffffffffffffffffffffffffffffffffffffffff1673ffffffffffffffffffffffffffffffffffffffff168152602001600382015f9054906101000a900473ffffffffffffffffffffffffffffffffffffffff1673ffffffffffffffffffffffffffffffffffffffff1673ffffffffffffffffffffffffffffffffffffffff16815260200160048201548152505090505f5f611525837f000000000000000000000000000000000000000000000000000000000000000073ffffffffffffffffffffffffffffffffffffffff16611de790919063ffffffff16565b9350935050506115408282876121a99092919063ffffffff16565b935050505092915050565b5f5f5f5f5f5f86806020019051810190611565919061512a565b965096509650965096509650505f60045f8873ffffffffffffffffffffffffffffffffffffffff1673ffffffffffffffffffffffffffffffffffffffff1681526020019081526020015f2086815481106115c2576115c16143ce565b5b905f5260205f20906005020190505f611625826001015f9054906101000a900473ffffffffffffffffffffffffffffffffffffffff16835f015f9054906101000a900473ffffffffffffffffffffffffffffffffffffffff168c898989896121e2565b90508082600201546116379190615203565b82600301819055505f611671835f015f9054906101000a900473ffffffffffffffffffffffffffffffffffffffff1684600301548d6123ca565b90508083600401819055506116ca836001015f9054906101000a900473ffffffffffffffffffffffffffffffffffffffff167f00000000000000000000000000000000000000000000000000000000000000008d612595565b878973ffffffffffffffffffffffffffffffffffffffff167f8e6ded1ab24a314b9d97569f73f7f482c1016771f56a1165b013252957c02012855f015f9054906101000a900473ffffffffffffffffffffffffffffffffffffffff16866001015f9054906101000a900473ffffffffffffffffffffffffffffffffffffffff1687600201548860030154896004015460405161176a959493929190615236565b60405180910390a35050505050505050505050565b5f5f5f5f5f858060200190518101906117989190615287565b95509550955095509550505f60045f8773ffffffffffffffffffffffffffffffffffffffff1673ffffffffffffffffffffffffffffffffffffffff1681526020019081526020015f2085815481106117f3576117f26143ce565b5b905f5260205f2090600502019050611837815f015f9054906101000a900473ffffffffffffffffffffffffffffffffffffffff1689836003015484600401546125c5565b5f61188f825f015f9054906101000a900473ffffffffffffffffffffffffffffffffffffffff16836001015f9054906101000a900473ffffffffffffffffffffffffffffffffffffffff16846003015488888861278b565b90506118df826001015f9054906101000a900473ffffffffffffffffffffffffffffffffffffffff167f00000000000000000000000000000000000000000000000000000000000000008b612595565b5f898211156119255789826118f491906149c6565b9050611924836001015f9054906101000a900473ffffffffffffffffffffffffffffffffffffffff168983612970565b5b80878973ffffffffffffffffffffffffffffffffffffffff167fcd2b4e62cfe22ecc5a38c25a2dce9e2dd3a29a3e10fa499505b5bfb6aec9b12360405160405180910390a450505050505050505050565b61197e611a2d565b73ffffffffffffffffffffffffffffffffffffffff1661199c610ca0565b73ffffffffffffffffffffffffffffffffffffffff16146119fb576119bf611a2d565b6040517f118cdaa70000000000000000000000000000000000000000000000000000000081526004016119f29190613d9e565b60405180910390fd5b565b60035f6101000a81549073ffffffffffffffffffffffffffffffffffffffff0219169055611a2a816129a9565b50565b5f33905090565b7f000000000000000000000000000000000000000000000000000000000000000073ffffffffffffffffffffffffffffffffffffffff16632c3c9157826040518263ffffffff1660e01b8152600401611a8d9190615368565b60a060405180830381865afa158015611aa8573d5f5f3e3d5ffd5b505050506040513d601f19601f82011682018060405250810190611acc919061540a565b60015f8473ffffffffffffffffffffffffffffffffffffffff1673ffffffffffffffffffffffffffffffffffffffff1681526020019081526020015f205f820151815f015f6101000a81548173ffffffffffffffffffffffffffffffffffffffff021916908373ffffffffffffffffffffffffffffffffffffffff1602179055506020820151816001015f6101000a81548173ffffffffffffffffffffffffffffffffffffffff021916908373ffffffffffffffffffffffffffffffffffffffff1602179055506040820151816002015f6101000a81548173ffffffffffffffffffffffffffffffffffffffff021916908373ffffffffffffffffffffffffffffffffffffffff1602179055506060820151816003015f6101000a81548173ffffffffffffffffffffffffffffffffffffffff021916908373ffffffffffffffffffffffffffffffffffffffff160217905550608082015181600401559050505050565b805f5f8473ffffffffffffffffffffffffffffffffffffffff1673ffffffffffffffffffffffffffffffffffffffff1681526020019081526020015f205f820151815f015f6101000a81548173ffffffffffffffffffffffffffffffffffffffff021916908373ffffffffffffffffffffffffffffffffffffffff1602179055506020820151816001015f6101000a81548173ffffffffffffffffffffffffffffffffffffffff021916908373ffffffffffffffffffffffffffffffffffffffff1602179055509050505050565b5f5f670de0b6b3a764000084611d149190615435565b9050828181611d2657611d25615476565b5b0491505092915050565b5f8160ff168360ff161115611d69578183611d4b91906154a3565b600a611d579190615606565b84611d629190615650565b9050611da5565b8160ff168360ff161015611da1578282611d8391906154a3565b600a611d8f9190615606565b84611d9a9190615435565b9050611da5565b8390505b9392505050565b5f810315611de257611de18230838673ffffffffffffffffffffffffffffffffffffffff16612a6c909392919063ffffffff16565b5b505050565b5f5f5f5f5f611df586612aee565b90505f8773ffffffffffffffffffffffffffffffffffffffff16635c60e39a836040518263ffffffff1660e01b8152600401611e319190615368565b60c060405180830381865afa158015611e4c573d5f5f3e3d5ffd5b505050506040513d601f19601f82011682018060405250810190611e709190615762565b90505f81608001516fffffffffffffffffffffffffffffffff1642611e9591906149c6565b90505f8114158015611ebd57505f82604001516fffffffffffffffffffffffffffffffff1614155b8015611ef957505f73ffffffffffffffffffffffffffffffffffffffff16886060015173ffffffffffffffffffffffffffffffffffffffff1614155b1561212e575f886060015173ffffffffffffffffffffffffffffffffffffffff16638c00bf6b8a856040518363ffffffff1660e01b8152600401611f3e92919061587b565b602060405180830381865afa158015611f59573d5f5f3e3d5ffd5b505050506040513d601f19601f82011682018060405250810190611f7d9190614a42565b90505f611fbb611f968484612afa90919063ffffffff16565b85604001516fffffffffffffffffffffffffffffffff16612b7090919063ffffffff16565b9050611fc681612b8c565b84604001818151611fd791906158a3565b9150906fffffffffffffffffffffffffffffffff1690816fffffffffffffffffffffffffffffffff168152505061200d81612b8c565b845f0181815161201d91906158a3565b9150906fffffffffffffffffffffffffffffffff1690816fffffffffffffffffffffffffffffffff16815250505f8460a001516fffffffffffffffffffffffffffffffff161461212b575f6120918560a001516fffffffffffffffffffffffffffffffff1683612b7090919063ffffffff16565b90505f6120df82875f01516fffffffffffffffffffffffffffffffff166120b891906149c6565b87602001516fffffffffffffffffffffffffffffffff1684612c239092919063ffffffff16565b90506120ea81612b8c565b866020018181516120fb91906158a3565b9150906fffffffffffffffffffffffffffffffff1690816fffffffffffffffffffffffffffffffff168152505050505b50505b815f0151826020015183604001518460600151836fffffffffffffffffffffffffffffffff169350826fffffffffffffffffffffffffffffffff169250816fffffffffffffffffffffffffffffffff169150806fffffffffffffffffffffffffffffffff169050965096509650965050505092959194509250565b5f6121d96001846121ba9190615203565b620f4240846121c99190615203565b86612c5c9092919063ffffffff16565b90509392505050565b5f5f5f5f8973ffffffffffffffffffffffffffffffffffffffff1673ffffffffffffffffffffffffffffffffffffffff1681526020019081526020015f206040518060400160405290815f82015f9054906101000a900473ffffffffffffffffffffffffffffffffffffffff1673ffffffffffffffffffffffffffffffffffffffff1673ffffffffffffffffffffffffffffffffffffffff168152602001600182015f9054906101000a900473ffffffffffffffffffffffffffffffffffffffff1673ffffffffffffffffffffffffffffffffffffffff1673ffffffffffffffffffffffffffffffffffffffff16815250509050612301897f000000000000000000000000000000000000000000000000000000000000000089612595565b7f000000000000000000000000000000000000000000000000000000000000000073ffffffffffffffffffffffffffffffffffffffff1663c81f847a3083602001515f8a6123558f8e895f01518e8e612c94565b896040518763ffffffff1660e01b8152600401612377969594939291906159f2565b6060604051808303815f875af1158015612393573d5f5f3e3d5ffd5b505050506040513d601f19601f820116820180604052508101906123b79190615a62565b9050508092505050979650505050505050565b5f5f60015f8673ffffffffffffffffffffffffffffffffffffffff1673ffffffffffffffffffffffffffffffffffffffff1681526020019081526020015f206040518060a00160405290815f82015f9054906101000a900473ffffffffffffffffffffffffffffffffffffffff1673ffffffffffffffffffffffffffffffffffffffff1673ffffffffffffffffffffffffffffffffffffffff168152602001600182015f9054906101000a900473ffffffffffffffffffffffffffffffffffffffff1673ffffffffffffffffffffffffffffffffffffffff1673ffffffffffffffffffffffffffffffffffffffff168152602001600282015f9054906101000a900473ffffffffffffffffffffffffffffffffffffffff1673ffffffffffffffffffffffffffffffffffffffff1673ffffffffffffffffffffffffffffffffffffffff168152602001600382015f9054906101000a900473ffffffffffffffffffffffffffffffffffffffff1673ffffffffffffffffffffffffffffffffffffffff1673ffffffffffffffffffffffffffffffffffffffff168152602001600482015481525050905061257d8185612d10565b6125878184612dcd565b905080925050509392505050565b6125c082828573ffffffffffffffffffffffffffffffffffffffff16612e8a9092919063ffffffff16565b505050565b5f60015f8673ffffffffffffffffffffffffffffffffffffffff1673ffffffffffffffffffffffffffffffffffffffff1681526020019081526020015f206040518060a00160405290815f82015f9054906101000a900473ffffffffffffffffffffffffffffffffffffffff1673ffffffffffffffffffffffffffffffffffffffff1673ffffffffffffffffffffffffffffffffffffffff168152602001600182015f9054906101000a900473ffffffffffffffffffffffffffffffffffffffff1673ffffffffffffffffffffffffffffffffffffffff1673ffffffffffffffffffffffffffffffffffffffff168152602001600282015f9054906101000a900473ffffffffffffffffffffffffffffffffffffffff1673ffffffffffffffffffffffffffffffffffffffff1673ffffffffffffffffffffffffffffffffffffffff168152602001600382015f9054906101000a900473ffffffffffffffffffffffffffffffffffffffff1673ffffffffffffffffffffffffffffffffffffffff1673ffffffffffffffffffffffffffffffffffffffff1681526020016004820154815250509050612778818584612f97565b5050612784818461307a565b5050505050565b5f5f5f5f8973ffffffffffffffffffffffffffffffffffffffff1673ffffffffffffffffffffffffffffffffffffffff1681526020019081526020015f206040518060400160405290815f82015f9054906101000a900473ffffffffffffffffffffffffffffffffffffffff1673ffffffffffffffffffffffffffffffffffffffff1673ffffffffffffffffffffffffffffffffffffffff168152602001600182015f9054906101000a900473ffffffffffffffffffffffffffffffffffffffff1673ffffffffffffffffffffffffffffffffffffffff1673ffffffffffffffffffffffffffffffffffffffff168152505090506128aa887f000000000000000000000000000000000000000000000000000000000000000088613114565b7f000000000000000000000000000000000000000000000000000000000000000073ffffffffffffffffffffffffffffffffffffffff1663594a88cc308360200151896128fd8c5f885f01518d8d613263565b886040518663ffffffff1660e01b815260040161291e959493929190615b25565b6060604051808303815f875af115801561293a573d5f5f3e3d5ffd5b505050506040513d601f19601f8201168201806040525081019061295e9190615a62565b90505080925050509695505050505050565b5f8103156129a4576129a382828573ffffffffffffffffffffffffffffffffffffffff166132df9092919063ffffffff16565b5b505050565b5f60025f9054906101000a900473ffffffffffffffffffffffffffffffffffffffff1690508160025f6101000a81548173ffffffffffffffffffffffffffffffffffffffff021916908373ffffffffffffffffffffffffffffffffffffffff1602179055508173ffffffffffffffffffffffffffffffffffffffff168173ffffffffffffffffffffffffffffffffffffffff167f8be0079c531659141344cd1fd0a4f28419497f9722a3daafe3b4186f6b6457e060405160405180910390a35050565b612ae8848573ffffffffffffffffffffffffffffffffffffffff166323b872dd868686604051602401612aa193929190615b84565b604051602081830303815290604052915060e01b6020820180517bffffffffffffffffffffffffffffffffffffffffffffffffffffffff838183161783525050505061335e565b50505050565b5f60a082209050919050565b5f5f8284612b089190615435565b90505f612b2a8283670de0b6b3a76400006002612b259190615435565b6133f9565b90505f612b4c8284670de0b6b3a76400006003612b479190615435565b6133f9565b9050808284612b5b9190615203565b612b659190615203565b935050505092915050565b5f612b848383670de0b6b3a76400006133f9565b905092915050565b5f6fffffffffffffffffffffffffffffffff80168211156040518060400160405280601481526020017f6d61782075696e7431323820657863656564656400000000000000000000000081525090612c1a576040517f08c379a0000000000000000000000000000000000000000000000000000000008152600401612c119190615c0b565b60405180910390fd5b50819050919050565b5f612c53620f424083612c369190615203565b600185612c439190615203565b866133f99092919063ffffffff16565b90509392505050565b5f81600183612c6b91906149c6565b8486612c779190615435565b612c819190615203565b612c8b9190615650565b90509392505050565b612c9c6134c9565b6040518060a001604052808773ffffffffffffffffffffffffffffffffffffffff1681526020018681526020018573ffffffffffffffffffffffffffffffffffffffff1681526020018473ffffffffffffffffffffffffffffffffffffffff16815260200183815250905095945050505050565b612d3f82602001517f000000000000000000000000000000000000000000000000000000000000000083613114565b7f000000000000000000000000000000000000000000000000000000000000000073ffffffffffffffffffffffffffffffffffffffff1663238d65798383306040518463ffffffff1660e01b8152600401612d9c93929190615c4e565b5f604051808303815f87803b158015612db3575f5ffd5b505af1158015612dc5573d5f5f3e3d5ffd5b505050505050565b5f5f5f5f3090505f3090507f000000000000000000000000000000000000000000000000000000000000000073ffffffffffffffffffffffffffffffffffffffff166350d8cd4b88888686866040518663ffffffff1660e01b8152600401612e39959493929190615c97565b60408051808303815f875af1158015612e54573d5f5f3e3d5ffd5b505050506040513d601f19601f82011682018060405250810190612e789190615cea565b80955081965050505050509250929050565b5f8373ffffffffffffffffffffffffffffffffffffffff1663095ea7b38484604051602401612eba929190615d28565b604051602081830303815290604052915060e01b6020820180517bffffffffffffffffffffffffffffffffffffffffffffffffffffffff83818316178352505050509050612f08848261341a565b612f9157612f86848573ffffffffffffffffffffffffffffffffffffffff1663095ea7b3865f604051602401612f3f929190615d4f565b604051602081830303815290604052915060e01b6020820180517bffffffffffffffffffffffffffffffffffffffffffffffffffffffff838183161783525050505061335e565b612f90848261335e565b5b50505050565b5f5f612fc7855f01517f000000000000000000000000000000000000000000000000000000000000000086612595565b5f3090507f000000000000000000000000000000000000000000000000000000000000000073ffffffffffffffffffffffffffffffffffffffff166320b76e81875f87856040518563ffffffff1660e01b815260040161302a9493929190615d76565b60408051808303815f875af1158015613045573d5f5f3e3d5ffd5b505050506040513d601f19601f820116820180604052508101906130699190615cea565b809350819450505050935093915050565b5f3090505f3090507f000000000000000000000000000000000000000000000000000000000000000073ffffffffffffffffffffffffffffffffffffffff16638720316d858585856040518563ffffffff1660e01b81526004016130e19493929190615dce565b5f604051808303815f87803b1580156130f8575f5ffd5b505af115801561310a573d5f5f3e3d5ffd5b5050505050505050565b5f5f8473ffffffffffffffffffffffffffffffffffffffff1663095ea7b360e01b8585604051602401613148929190615d28565b604051602081830303815290604052907bffffffffffffffffffffffffffffffffffffffffffffffffffffffff19166020820180517bffffffffffffffffffffffffffffffffffffffffffffffffffffffff83818316178352505050506040516131b29190615e4c565b5f604051808303815f865af19150503d805f81146131eb576040519150601f19603f3d011682016040523d82523d5f602084013e6131f0565b606091505b509150915081801561321d57505f8151148061321c57508080602001905181019061321b9190615e62565b5b5b61325c576040517f08c379a000000000000000000000000000000000000000000000000000000000815260040161325390615ed7565b60405180910390fd5b5050505050565b61326b61353c565b6040518060a001604052808773ffffffffffffffffffffffffffffffffffffffff1681526020018681526020018573ffffffffffffffffffffffffffffffffffffffff1681526020018473ffffffffffffffffffffffffffffffffffffffff16815260200183815250905095945050505050565b613359838473ffffffffffffffffffffffffffffffffffffffff1663a9059cbb8585604051602401613312929190615d28565b604051602081830303815290604052915060e01b6020820180517bffffffffffffffffffffffffffffffffffffffffffffffffffffffff838183161783525050505061335e565b505050565b5f5f60205f8451602086015f885af18061337d576040513d5f823e3d81fd5b3d92505f519150505f82146133965760018114156133b1565b5f8473ffffffffffffffffffffffffffffffffffffffff163b145b156133f357836040517f5274afe70000000000000000000000000000000000000000000000000000000081526004016133ea9190613d9e565b60405180910390fd5b50505050565b5f8183856134079190615435565b6134119190615650565b90509392505050565b5f5f5f5f60205f8651602088015f8a5af192503d91505f51905082801561346857505f821461344c5760018114613467565b5f8673ffffffffffffffffffffffffffffffffffffffff163b115b5b935050505092915050565b6040518060a001604052805f73ffffffffffffffffffffffffffffffffffffffff1681526020015f73ffffffffffffffffffffffffffffffffffffffff1681526020015f81526020015f81526020015f81525090565b6040518060a001604052805f73ffffffffffffffffffffffffffffffffffffffff1681526020015f81526020015f73ffffffffffffffffffffffffffffffffffffffff1681526020015f73ffffffffffffffffffffffffffffffffffffffff1681526020016135366135af565b81525090565b6040518060a001604052805f73ffffffffffffffffffffffffffffffffffffffff1681526020015f81526020015f73ffffffffffffffffffffffffffffffffffffffff1681526020015f73ffffffffffffffffffffffffffffffffffffffff1681526020016135a96135af565b81525090565b60405180608001604052805f600a8111156135cd576135cc6143fb565b5b81526020015f73ffffffffffffffffffffffffffffffffffffffff168152602001606081526020015f151581525090565b5f73ffffffffffffffffffffffffffffffffffffffff82169050919050565b5f819050919050565b5f61364061363b613636846135fe565b61361d565b6135fe565b9050919050565b5f61365182613626565b9050919050565b5f61366282613647565b9050919050565b61367281613658565b82525050565b5f60208201905061368b5f830184613669565b92915050565b5f604051905090565b5f5ffd5b5f5ffd5b5f819050919050565b6136b4816136a2565b81146136be575f5ffd5b50565b5f813590506136cf816136ab565b92915050565b5f6136df826135fe565b9050919050565b6136ef816136d5565b81146136f9575f5ffd5b50565b5f8135905061370a816136e6565b92915050565b5f5ffd5b5f601f19601f8301169050919050565b7f4e487b71000000000000000000000000000000000000000000000000000000005f52604160045260245ffd5b61375a82613714565b810181811067ffffffffffffffff8211171561377957613778613724565b5b80604052505050565b5f61378b613691565b90506137978282613751565b919050565b5f5ffd5b600b81106137ac575f5ffd5b50565b5f813590506137bd816137a0565b92915050565b5f5ffd5b5f5ffd5b5f67ffffffffffffffff8211156137e5576137e4613724565b5b6137ee82613714565b9050602081019050919050565b828183375f83830152505050565b5f61381b613816846137cb565b613782565b905082815260208101848484011115613837576138366137c7565b5b6138428482856137fb565b509392505050565b5f82601f83011261385e5761385d6137c3565b5b813561386e848260208601613809565b91505092915050565b5f8115159050919050565b61388b81613877565b8114613895575f5ffd5b50565b5f813590506138a681613882565b92915050565b5f608082840312156138c1576138c0613710565b5b6138cb6080613782565b90505f6138da848285016137af565b5f8301525060206138ed848285016136fc565b602083015250604082013567ffffffffffffffff8111156139115761391061379c565b5b61391d8482850161384a565b604083015250606061393184828501613898565b60608301525092915050565b5f67ffffffffffffffff82111561395757613956613724565b5b602082029050602081019050919050565b5f5ffd5b60048110613978575f5ffd5b50565b5f813590506139898161396c565b92915050565b5f61018082840312156139a5576139a4613710565b5b6139b0610180613782565b90505f6139bf848285016136c1565b5f8301525060206139d2848285016136c1565b60208301525060406139e6848285016136c1565b60408301525060606139fa8482850161397b565b6060830152506080613a0e848285016136fc565b60808301525060a0613a22848285016136fc565b60a08301525060c0613a36848285016136fc565b60c08301525060e0613a4a848285016136fc565b60e083015250610100613a5f848285016136c1565b61010083015250610120613a75848285016136c1565b61012083015250610140613a8b848285016136c1565b6101408301525061016082013567ffffffffffffffff811115613ab157613ab061379c565b5b613abd8482850161384a565b6101608301525092915050565b5f60608284031215613adf57613ade613710565b5b613ae96060613782565b90505f82013567ffffffffffffffff811115613b0857613b0761379c565b5b613b148482850161398f565b5f83015250602082013567ffffffffffffffff811115613b3757613b3661379c565b5b613b438482850161384a565b6020830152506040613b57848285016136c1565b60408301525092915050565b5f613b75613b708461393d565b613782565b90508083825260208201905060208402830185811115613b9857613b97613968565b5b835b81811015613bdf57803567ffffffffffffffff811115613bbd57613bbc6137c3565b5b808601613bca8982613aca565b85526020850194505050602081019050613b9a565b5050509392505050565b5f82601f830112613bfd57613bfc6137c3565b5b8135613c0d848260208601613b63565b91505092915050565b5f60a08284031215613c2b57613c2a613710565b5b613c3560a0613782565b90505f613c44848285016136fc565b5f830152506020613c57848285016136c1565b602083015250604082013567ffffffffffffffff811115613c7b57613c7a61379c565b5b613c8784828501613be9565b604083015250606082013567ffffffffffffffff811115613cab57613caa61379c565b5b613cb784828501613be9565b606083015250608082013567ffffffffffffffff811115613cdb57613cda61379c565b5b613ce78482850161384a565b60808301525092915050565b5f5f5f5f60808587031215613d0b57613d0a61369a565b5b5f613d18878288016136c1565b9450506020613d29878288016136fc565b935050604085013567ffffffffffffffff811115613d4a57613d4961369e565b5b613d56878288016138ac565b925050606085013567ffffffffffffffff811115613d7757613d7661369e565b5b613d8387828801613c16565b91505092959194509250565b613d98816136d5565b82525050565b5f602082019050613db15f830184613d8f565b92915050565b5f5f60408385031215613dcd57613dcc61369a565b5b5f613dda858286016136c1565b925050602083013567ffffffffffffffff811115613dfb57613dfa61369e565b5b613e078582860161384a565b9150509250929050565b5f60208284031215613e2657613e2561369a565b5b5f613e33848285016136fc565b91505092915050565b5f81519050919050565b5f82825260208201905092915050565b5f819050602082019050919050565b613e6e816136d5565b82525050565b613e7d816136a2565b82525050565b60a082015f820151613e975f850182613e65565b506020820151613eaa6020850182613e65565b506040820151613ebd6040850182613e74565b506060820151613ed06060850182613e74565b506080820151613ee36080850182613e74565b50505050565b5f613ef48383613e83565b60a08301905092915050565b5f602082019050919050565b5f613f1682613e3c565b613f208185613e46565b9350613f2b83613e56565b805f5b83811015613f5b578151613f428882613ee9565b9750613f4d83613f00565b925050600181019050613f2e565b5085935050505092915050565b5f6020820190508181035f830152613f808184613f0c565b905092915050565b5f5f60408385031215613f9e57613f9d61369a565b5b5f613fab858286016136fc565b9250506020613fbc858286016136c1565b9150509250929050565b60a082015f820151613fda5f850182613e65565b506020820151613fed6020850182613e65565b5060408201516140006040850182613e74565b5060608201516140136060850182613e74565b5060808201516140266080850182613e74565b50505050565b5f60a08201905061403f5f830184613fc6565b92915050565b61404e816136a2565b82525050565b5f6020820190506140675f830184614045565b92915050565b5f67ffffffffffffffff82111561408757614086613724565b5b602082029050602081019050919050565b5f819050919050565b6140aa81614098565b81146140b4575f5ffd5b50565b5f813590506140c5816140a1565b92915050565b5f608082840312156140e0576140df613710565b5b6140ea6080613782565b90505f6140f9848285016136fc565b5f83015250602061410c848285016140b7565b6020830152506040614120848285016136fc565b6040830152506060614134848285016136fc565b60608301525092915050565b5f61415261414d8461406d565b613782565b9050808382526020820190506080840283018581111561417557614174613968565b5b835b8181101561419e578061418a88826140cb565b845260208401935050608081019050614177565b5050509392505050565b5f82601f8301126141bc576141bb6137c3565b5b81356141cc848260208601614140565b91505092915050565b5f602082840312156141ea576141e961369a565b5b5f82013567ffffffffffffffff8111156142075761420661369e565b5b614213848285016141a8565b91505092915050565b5f5f5f606084860312156142335761423261369a565b5b5f614240868287016136fc565b9350506020614251868287016136fc565b9250506040614262868287016136c1565b9150509250925092565b5f60a0828403121561428157614280613710565b5b61428b60a0613782565b90505f61429a848285016136c1565b5f8301525060206142ad848285016136c1565b60208301525060406142c1848285016136c1565b60408301525060606142d5848285016136c1565b60608301525060806142e9848285016136c1565b60808301525092915050565b5f5f5f5f5f5f5f610160888a0312156143115761431061369a565b5b5f61431e8a828b016136fc565b975050602061432f8a828b016136fc565b96505060406143408a828b016136c1565b95505060606143518a828b0161426c565b9450506101006143638a828b016136fc565b93505061012088013567ffffffffffffffff8111156143855761438461369e565b5b6143918a828b016138ac565b92505061014088013567ffffffffffffffff8111156143b3576143b261369e565b5b6143bf8a828b01613c16565b91505092959891949750929550565b7f4e487b71000000000000000000000000000000000000000000000000000000005f52603260045260245ffd5b7f4e487b71000000000000000000000000000000000000000000000000000000005f52602160045260245ffd5b60028110614439576144386143fb565b5b50565b5f81905061444982614428565b919050565b5f6144588261443c565b9050919050565b6144688161444e565b82525050565b600b811061447f5761447e6143fb565b5b50565b5f81905061448f8261446e565b919050565b5f61449e82614482565b9050919050565b6144ae81614494565b82525050565b5f81519050919050565b5f82825260208201905092915050565b8281835e5f83830152505050565b5f6144e6826144b4565b6144f081856144be565b93506145008185602086016144ce565b61450981613714565b840191505092915050565b61451d81613877565b82525050565b5f608083015f8301516145385f8601826144a5565b50602083015161454b6020860182613e65565b506040830151848203604086015261456382826144dc565b91505060608301516145786060860182614514565b508091505092915050565b5f81519050919050565b5f82825260208201905092915050565b5f819050602082019050919050565b600481106145bd576145bc6143fb565b5b50565b5f8190506145cd826145ac565b919050565b5f6145dc826145c0565b9050919050565b6145ec816145d2565b82525050565b5f61018083015f8301516146085f860182613e74565b50602083015161461b6020860182613e74565b50604083015161462e6040860182613e74565b50606083015161464160608601826145e3565b5060808301516146546080860182613e65565b5060a083015161466760a0860182613e65565b5060c083015161467a60c0860182613e65565b5060e083015161468d60e0860182613e65565b506101008301516146a2610100860182613e74565b506101208301516146b7610120860182613e74565b506101408301516146cc610140860182613e74565b506101608301518482036101608601526146e682826144dc565b9150508091505092915050565b5f606083015f8301518482035f86015261470d82826145f2565b9150506020830151848203602086015261472782826144dc565b915050604083015161473c6040860182613e74565b508091505092915050565b5f61475283836146f3565b905092915050565b5f602082019050919050565b5f61477082614583565b61477a818561458d565b93508360208202850161478c8561459d565b805f5b858110156147c757848403895281516147a88582614747565b94506147b38361475a565b925060208a0199505060018101905061478f565b50829750879550505050505092915050565b5f60a083015f8301516147ee5f860182613e65565b5060208301516148016020860182613e74565b50604083015184820360408601526148198282614766565b915050606083015184820360608601526148338282614766565b9150506080830151848203608086015261484d82826144dc565b9150508091505092915050565b5f60c08201905061486d5f83018961445f565b61487a6020830188613d8f565b6148876040830187614045565b6148946060830186613d8f565b81810360808301526148a68185614523565b905081810360a08301526148ba81846147d9565b9050979650505050505050565b5f82825260208201905092915050565b5f6148e1826144b4565b6148eb81856148c7565b93506148fb8185602086016144ce565b61490481613714565b840191505092915050565b5f6060820190506149225f830186613d8f565b61492f6020830185614045565b818103604083015261494181846148d7565b9050949350505050565b60028110614957575f5ffd5b50565b5f815190506149688161494b565b92915050565b5f602082840312156149835761498261369a565b5b5f6149908482850161495a565b91505092915050565b7f4e487b71000000000000000000000000000000000000000000000000000000005f52601160045260245ffd5b5f6149d0826136a2565b91506149db836136a2565b92508282039050818111156149f3576149f2614999565b5b92915050565b5f606082019050614a0c5f830186614045565b614a196020830185613d8f565b614a266040830184613d8f565b949350505050565b5f81519050614a3c816136ab565b92915050565b5f60208284031215614a5757614a5661369a565b5b5f614a6484828501614a2e565b91505092915050565b5f60ff82169050919050565b614a8281614a6d565b8114614a8c575f5ffd5b50565b5f81519050614a9d81614a79565b92915050565b5f60208284031215614ab857614ab761369a565b5b5f614ac584828501614a8f565b91505092915050565b60a082015f820151614ae25f850182613e74565b506020820151614af56020850182613e74565b506040820151614b086040850182613e74565b506060820151614b1b6060850182613e74565b506080820151614b2e6080850182613e74565b50505050565b5f61016082019050614b485f83018a61445f565b614b556020830189613d8f565b614b626040830188614045565b614b6f6060830187614ace565b614b7d610100830186613d8f565b818103610120830152614b908185614523565b9050818103610140830152614ba581846147d9565b905098975050505050505050565b5f614bbd826135fe565b9050919050565b614bcd81614bb3565b8114614bd7575f5ffd5b50565b5f81519050614be881614bc4565b92915050565b5f60a08284031215614c0357614c02613710565b5b614c0d60a0613782565b90505f614c1c84828501614a2e565b5f830152506020614c2f84828501614a2e565b6020830152506040614c4384828501614a2e565b6040830152506060614c5784828501614a2e565b6060830152506080614c6b84828501614a2e565b60808301525092915050565b5f81519050614c85816137a0565b92915050565b5f81519050614c99816136e6565b92915050565b5f614cb1614cac846137cb565b613782565b905082815260208101848484011115614ccd57614ccc6137c7565b5b614cd88482856144ce565b509392505050565b5f82601f830112614cf457614cf36137c3565b5b8151614d04848260208601614c9f565b91505092915050565b5f81519050614d1b81613882565b92915050565b5f60808284031215614d3657614d35613710565b5b614d406080613782565b90505f614d4f84828501614c77565b5f830152506020614d6284828501614c8b565b602083015250604082015167ffffffffffffffff811115614d8657614d8561379c565b5b614d9284828501614ce0565b6040830152506060614da684828501614d0d565b60608301525092915050565b5f81519050614dc08161396c565b92915050565b5f6101808284031215614ddc57614ddb613710565b5b614de7610180613782565b90505f614df684828501614a2e565b5f830152506020614e0984828501614a2e565b6020830152506040614e1d84828501614a2e565b6040830152506060614e3184828501614db2565b6060830152506080614e4584828501614c8b565b60808301525060a0614e5984828501614c8b565b60a08301525060c0614e6d84828501614c8b565b60c08301525060e0614e8184828501614c8b565b60e083015250610100614e9684828501614a2e565b61010083015250610120614eac84828501614a2e565b61012083015250610140614ec284828501614a2e565b6101408301525061016082015167ffffffffffffffff811115614ee857614ee761379c565b5b614ef484828501614ce0565b6101608301525092915050565b5f60608284031215614f1657614f15613710565b5b614f206060613782565b90505f82015167ffffffffffffffff811115614f3f57614f3e61379c565b5b614f4b84828501614dc6565b5f83015250602082015167ffffffffffffffff811115614f6e57614f6d61379c565b5b614f7a84828501614ce0565b6020830152506040614f8e84828501614a2e565b60408301525092915050565b5f614fac614fa78461393d565b613782565b90508083825260208201905060208402830185811115614fcf57614fce613968565b5b835b8181101561501657805167ffffffffffffffff811115614ff457614ff36137c3565b5b8086016150018982614f01565b85526020850194505050602081019050614fd1565b5050509392505050565b5f82601f830112615034576150336137c3565b5b8151615044848260208601614f9a565b91505092915050565b5f60a0828403121561506257615061613710565b5b61506c60a0613782565b90505f61507b84828501614c8b565b5f83015250602061508e84828501614a2e565b602083015250604082015167ffffffffffffffff8111156150b2576150b161379c565b5b6150be84828501615020565b604083015250606082015167ffffffffffffffff8111156150e2576150e161379c565b5b6150ee84828501615020565b606083015250608082015167ffffffffffffffff8111156151125761511161379c565b5b61511e84828501614ce0565b60808301525092915050565b5f5f5f5f5f5f5f610160888a0312156151465761514561369a565b5b5f6151538a828b0161495a565b97505060206151648a828b01614bda565b96505060406151758a828b01614a2e565b95505060606151868a828b01614bee565b9450506101006151988a828b01614bda565b93505061012088015167ffffffffffffffff8111156151ba576151b961369e565b5b6151c68a828b01614d21565b92505061014088015167ffffffffffffffff8111156151e8576151e761369e565b5b6151f48a828b0161504d565b91505092959891949750929550565b5f61520d826136a2565b9150615218836136a2565b92508282019050808211156152305761522f614999565b5b92915050565b5f60a0820190506152495f830188613d8f565b6152566020830187613d8f565b6152636040830186614045565b6152706060830185614045565b61527d6080830184614045565b9695505050505050565b5f5f5f5f5f5f60c087890312156152a1576152a061369a565b5b5f6152ae89828a0161495a565b96505060206152bf89828a01614bda565b95505060406152d089828a01614a2e565b94505060606152e189828a01614bda565b935050608087015167ffffffffffffffff8111156153025761530161369e565b5b61530e89828a01614d21565b92505060a087015167ffffffffffffffff81111561532f5761532e61369e565b5b61533b89828a0161504d565b9150509295509295509295565b5f61535282614098565b9050919050565b61536281615348565b82525050565b5f60208201905061537b5f830184615359565b92915050565b5f60a0828403121561539657615395613710565b5b6153a060a0613782565b90505f6153af84828501614c8b565b5f8301525060206153c284828501614c8b565b60208301525060406153d684828501614c8b565b60408301525060606153ea84828501614c8b565b60608301525060806153fe84828501614a2e565b60808301525092915050565b5f60a0828403121561541f5761541e61369a565b5b5f61542c84828501615381565b91505092915050565b5f61543f826136a2565b915061544a836136a2565b9250828202615458816136a2565b9150828204841483151761546f5761546e614999565b5b5092915050565b7f4e487b71000000000000000000000000000000000000000000000000000000005f52601260045260245ffd5b5f6154ad82614a6d565b91506154b883614a6d565b9250828203905060ff8111156154d1576154d0614999565b5b92915050565b5f8160011c9050919050565b5f5f8291508390505b600185111561552c5780860481111561550857615507614999565b5b60018516156155175780820291505b8081029050615525856154d7565b94506154ec565b94509492505050565b5f8261554457600190506155ff565b81615551575f90506155ff565b81600181146155675760028114615571576155a0565b60019150506155ff565b60ff84111561558357615582614999565b5b8360020a91508482111561559a57615599614999565b5b506155ff565b5060208310610133831016604e8410600b84101617156155d55782820a9050838111156155d0576155cf614999565b5b6155ff565b6155e284848460016154e3565b925090508184048111156155f9576155f8614999565b5b81810290505b9392505050565b5f615610826136a2565b915061561b83614a6d565b92506156487fffffffffffffffffffffffffffffffffffffffffffffffffffffffffffffffff8484615535565b905092915050565b5f61565a826136a2565b9150615665836136a2565b92508261567557615674615476565b5b828204905092915050565b5f6fffffffffffffffffffffffffffffffff82169050919050565b6156a481615680565b81146156ae575f5ffd5b50565b5f815190506156bf8161569b565b92915050565b5f60c082840312156156da576156d9613710565b5b6156e460c0613782565b90505f6156f3848285016156b1565b5f830152506020615706848285016156b1565b602083015250604061571a848285016156b1565b604083015250606061572e848285016156b1565b6060830152506080615742848285016156b1565b60808301525060a0615756848285016156b1565b60a08301525092915050565b5f60c082840312156157775761577661369a565b5b5f615784848285016156c5565b91505092915050565b60a082015f8201516157a15f850182613e65565b5060208201516157b46020850182613e65565b5060408201516157c76040850182613e65565b5060608201516157da6060850182613e65565b5060808201516157ed6080850182613e74565b50505050565b6157fc81615680565b82525050565b60c082015f8201516158165f8501826157f3565b50602082015161582960208501826157f3565b50604082015161583c60408501826157f3565b50606082015161584f60608501826157f3565b50608082015161586260808501826157f3565b5060a082015161587560a08501826157f3565b50505050565b5f6101608201905061588f5f83018561578d565b61589c60a0830184615802565b9392505050565b5f6158ad82615680565b91506158b883615680565b925082820190506fffffffffffffffffffffffffffffffff8111156158e0576158df614999565b5b92915050565b5f819050919050565b5f6159096159046158ff846158e6565b61361d565b6136a2565b9050919050565b615919816158ef565b82525050565b5f608083015f8301516159345f8601826144a5565b5060208301516159476020860182613e65565b506040830151848203604086015261595f82826144dc565b91505060608301516159746060860182614514565b508091505092915050565b5f60a083015f8301516159945f860182613e65565b5060208301516159a76020860182613e74565b5060408301516159ba6040860182613e65565b5060608301516159cd6060860182613e65565b50608083015184820360808601526159e5828261591f565b9150508091505092915050565b5f61014082019050615a065f830189613d8f565b615a136020830188613d8f565b615a206040830187615910565b615a2d6060830186614ace565b818103610100830152615a40818561597f565b9050818103610120830152615a5581846147d9565b9050979650505050505050565b5f5f5f60608486031215615a7957615a7861369a565b5b5f615a8686828701614a2e565b9350506020615a9786828701614a2e565b9250506040615aa886828701614a2e565b9150509250925092565b5f60a083015f830151615ac75f860182613e65565b506020830151615ada6020860182613e74565b506040830151615aed6040860182613e65565b506060830151615b006060860182613e65565b5060808301518482036080860152615b18828261591f565b9150508091505092915050565b5f60a082019050615b385f830188613d8f565b615b456020830187613d8f565b615b526040830186614045565b8181036060830152615b648185615ab2565b90508181036080830152615b7881846147d9565b90509695505050505050565b5f606082019050615b975f830186613d8f565b615ba46020830185613d8f565b615bb16040830184614045565b949350505050565b5f81519050919050565b5f82825260208201905092915050565b5f615bdd82615bb9565b615be78185615bc3565b9350615bf78185602086016144ce565b615c0081613714565b840191505092915050565b5f6020820190508181035f830152615c238184615bd3565b905092915050565b50565b5f615c395f836148c7565b9150615c4482615c2b565b5f82019050919050565b5f61010082019050615c625f83018661578d565b615c6f60a0830185614045565b615c7c60c0830184613d8f565b81810360e0830152615c8d81615c2e565b9050949350505050565b5f61012082019050615cab5f83018861578d565b615cb860a0830187614045565b615cc560c0830186614045565b615cd260e0830185613d8f565b615ce0610100830184613d8f565b9695505050505050565b5f5f60408385031215615d0057615cff61369a565b5b5f615d0d85828601614a2e565b9250506020615d1e85828601614a2e565b9150509250929050565b5f604082019050615d3b5f830185613d8f565b615d486020830184614045565b9392505050565b5f604082019050615d625f830185613d8f565b615d6f6020830184615910565b9392505050565b5f61012082019050615d8a5f83018761578d565b615d9760a0830186615910565b615da460c0830185614045565b615db160e0830184613d8f565b818103610100830152615dc381615c2e565b905095945050505050565b5f61010082019050615de25f83018761578d565b615def60a0830186614045565b615dfc60c0830185613d8f565b615e0960e0830184613d8f565b95945050505050565b5f81905092915050565b5f615e26826144b4565b615e308185615e12565b9350615e408185602086016144ce565b80840191505092915050565b5f615e578284615e1c565b915081905092915050565b5f60208284031215615e7757615e7661369a565b5b5f615e8484828501614d0d565b91505092915050565b7f5361666520417070726f766500000000000000000000000000000000000000005f82015250565b5f615ec1600c83615bc3565b9150615ecc82615e8d565b602082019050919050565b5f6020820190508181035f830152615eee81615eb5565b905091905056fea2646970667358221220f028d19fad506617487589b77d5356dec0b79a59032e92f75429903f53788caf64736f6c634300081e0033","linkReferences":{}},"methodIdentifiers":{"AMOUNT_COLLATERAL_CAP()":"9d7d2538","LIQUIDATION_BUFFER()":"83da2a3c","USD()":"1bf6c21b","acceptOwnership()":"79ba5097","addSupportedCollateralTokens((address,bytes32,address,address)[])":"a5012f3e","calcLoanAmount(address,address,uint256)":"b3ec4046","getMaxLtv(address)":"647e0c20","getRepayAmount(address,uint256)":"f7ac8400","getTokenUsdValue(address,uint256)":"73b267d7","getUserLeveragePosition(address,uint256)":"642afd92","getUserLeveragePositions(address)":"544e5eca","i_oracleRouter()":"0287f8c6","leverage(address,address,uint256,(uint256,uint256,uint256,uint256,uint256),address,(uint8,address,bytes,bool),(address,uint256,((uint256,uint256,uint256,uint8,address,address,address,address,uint256,uint256,uint256,bytes),bytes,uint256)[],((uint256,uint256,uint256,uint8,address,address,address,address,uint256,uint256,uint256,bytes),bytes,uint256)[],bytes))":"dfdace55","onMorphoFlashLoan(uint256,bytes)":"31f57072","owner()":"8da5cb5b","pendingOwner()":"e30c3978","renounceOwnership()":"715018a6","transferOwnership(address)":"f2fde38b","unleverage(uint256,address,(uint8,address,bytes,bool),(address,uint256,((uint256,uint256,uint256,uint8,address,address,address,address,uint256,uint256,uint256,bytes),bytes,uint256)[],((uint256,uint256,uint256,uint8,address,address,address,address,uint256,uint256,uint256,bytes),bytes,uint256)[],bytes))":"062c43c6"},"id":99}