{"abi":[{"type":"function","name":"getTokenConfigs","inputs":[],"outputs":[{"name":"tokenConfigs","type":"tuple[]","internalType":"struct CollateralTokenConfig[]","components":[{"name":"collateralToken","type":"address","internalType":"address"},{"name":"morphoMarketId","type":"bytes32","internalType":"bytes32"},{"name":"pendleMarket","type":"address","internalType":"address"}]}],"stateMutability":"pure"}],"bytecode":{"object":"0x608060405234601c57600e6020565b61121f61002b823961121f90f35b6026565b60405190565b5f80fdfe60806040526004361015610013575b610180565b61001d5f3561002c565b635547171d0361000e5761014b565b60e01c90565b60405190565b5f80fd5b5f80fd5b5f91031261004a57565b61003c565b5190565b60209181520190565b60200190565b60018060a01b031690565b61007690610062565b90565b6100829061006d565b9052565b90565b61009290610086565b9052565b906040806100ca936100ae5f8201515f860190610079565b6100c060208201516020860190610089565b0151910190610079565b565b906100d981606093610096565b0190565b60200190565b906101006100fa6100f38461004f565b8093610053565b9261005c565b905f5b8181106101105750505090565b90919261012961012360019286516100cc565b946100dd565b9101919091610103565b6101489160208201915f8184039101526100e3565b90565b3461017b5761015b366004610040565b61017761016661071c565b61016e610032565b91829182610133565b0390f35b610038565b5f80fd5b606090565b90565b90565b90565b6101a66101a16101ab92610189565b61018f565b61018c565b90565b601f801991011690565b634e487b7160e01b5f52604160045260245ffd5b906101d6906101ae565b810190811067ffffffffffffffff8211176101f057604052565b6101b8565b90610208610201610032565b92836101cc565b565b67ffffffffffffffff81116102225760208091020190565b6101b8565b906102396102348361020a565b6101f5565b918252565b61024860606101f5565b90565b5f90565b5f90565b61025b61023e565b90602080808461026961024b565b81520161027461024f565b81520161027f61024b565b81525050565b61028d610253565b90565b5f5b82811061029e57505050565b6020906102a9610285565b8184015201610292565b906102d86102c083610227565b926020806102ce869361020a565b9201910390610290565b565b6102e460606101f5565b90565b906102f19061006d565b9052565b90565b5f1b90565b61031161030c610316926102f5565b6102f8565b610086565b90565b9061032390610086565b9052565b634e487b7160e01b5f52603260045260245ffd5b906103458261004f565b811015610356576020809102010190565b610327565b90565b61037261036d6103779261035b565b61018f565b61018c565b90565b90565b61039161038c6103969261037a565b6102f8565b610086565b90565b90565b6103b06103ab6103b592610399565b61018f565b61018c565b90565b90565b6103cf6103ca6103d4926103b8565b6102f8565b610086565b90565b90565b6103ee6103e96103f3926103d7565b61018f565b61018c565b90565b90565b61040d610408610412926103f6565b6102f8565b610086565b90565b90565b61042c61042761043192610415565b61018f565b61018c565b90565b90565b61044b61044661045092610434565b6102f8565b610086565b90565b90565b61046a61046561046f92610453565b61018f565b61018c565b90565b90565b61048961048461048e92610472565b6102f8565b610086565b90565b90565b6104a86104a36104ad92610491565b61018f565b61018c565b90565b90565b6104c76104c26104cc926104b0565b6102f8565b610086565b90565b90565b6104e66104e16104eb926104cf565b61018f565b61018c565b90565b90565b61050561050061050a926104ee565b6102f8565b610086565b90565b90565b61052461051f6105299261050d565b61018f565b61018c565b90565b90565b61054361053e6105489261052c565b6102f8565b610086565b90565b90565b61056261055d6105679261054b565b61018f565b61018c565b90565b90565b61058161057c6105869261056a565b6102f8565b610086565b90565b90565b6105a061059b6105a592610589565b61018f565b61018c565b90565b90565b6105bf6105ba6105c4926105a8565b6102f8565b610086565b90565b90565b6105de6105d96105e3926105c7565b61018f565b61018c565b90565b90565b6105fd6105f8610602926105e6565b6102f8565b610086565b90565b90565b61061c61061761062192610605565b61018f565b61018c565b90565b90565b61063b61063661064092610624565b6102f8565b610086565b90565b90565b61065a61065561065f92610643565b61018f565b61018c565b90565b90565b61067961067461067e92610662565b6102f8565b610086565b90565b90565b61069861069361069d92610681565b61018f565b61018c565b90565b90565b6106b76106b26106bc926106a0565b6102f8565b610086565b90565b90565b6106d66106d16106db926106bf565b61018f565b61018c565b90565b90565b6106f56106f06106fa926106de565b6102f8565b610086565b90565b90565b61071461070f610719926106fd565b61018f565b61018c565b90565b610724610184565b506107376107326010610192565b6102b3565b906107e073e6a934089bbee34f832060ce98848359883749b36107bb7f05702edf1c4709808b62fe65a7d082dccc9386f858ae460ef207ec8dd1debfa26107b26107a973b6ac3d5da138918ac4e84441e924a20daa60dbdd926107a461079b6102da565b965f88016102e7565b6102fd565b60208501610319565b604083016102e7565b6107da84915f906107d46107ce8361035e565b8561033b565b5261035e565b9061033b565b515061088b73e6a934089bbee34f832060ce98848359883749b36108657fa79d8028dec527565028fd9fc075b02b498f2b69a1d519dff543ba99b812ff6b61085c61085373b6ac3d5da138918ac4e84441e924a20daa60dbdd9261084e6108456102da565b965f88016102e7565b61037d565b60208501610319565b604083016102e7565b610885849160019061087f6108798361039c565b8561033b565b5261039c565b9061033b565b51506109367362c6e813b9589c3631ba0cdb013acdb8544038b76109107f534e7046c3aebaa0c6c363cdbeb9392fc87af71cc16862479403a198fe04b2066109076108fe734eaa571eafcd96f51728756bd7f396459bb9b869926108f96108f06102da565b965f88016102e7565b6103bb565b60208501610319565b604083016102e7565b610930849160029061092a610924836103da565b8561033b565b526103da565b9061033b565b51506109e17362c6e813b9589c3631ba0cdb013acdb8544038b76109bb7f89c30faadb4d3e748583fe5862b257a9d408f9b64d8e79d4d94b3bd8f2592c1c6109b26109a9734eaa571eafcd96f51728756bd7f396459bb9b869926109a461099b6102da565b965f88016102e7565b6103f9565b60208501610319565b604083016102e7565b6109db84916003906109d56109cf83610418565b8561033b565b52610418565b9061033b565b5150610a8c7362c6e813b9589c3631ba0cdb013acdb8544038b7610a667f8cdb63a27a48ac27fadc0f158a732104bcc4e10bb61c9a5095ea7c127204e26c610a5d610a54734eaa571eafcd96f51728756bd7f396459bb9b86992610a4f610a466102da565b965f88016102e7565b610437565b60208501610319565b604083016102e7565b610a868491600490610a80610a7a83610456565b8561033b565b52610456565b9061033b565b5150610b3773f3f491e5608f8b8a6fd9e9d66a4a4036d7fd282c610b117f645fba729787a172a49f1661c53a4de57d69c522ba9bb3f2d1fcef0923f9189a610b08610aff73f4c449d6a2d1840625211769779ada42857d04dd92610afa610af16102da565b965f88016102e7565b610475565b60208501610319565b604083016102e7565b610b318491600590610b2b610b2583610494565b8561033b565b52610494565b9061033b565b5150610be27323e0d07095daec91b6ae016ca9f08222dcc64c49610bbc7f6920dba94e92cec814cb2be2d5817e6d959ca750c71bd6973402c8a2372ea21b610bb3610baa7310e3e052bdee38c468ad092c87d330b59af6bbeb92610ba5610b9c6102da565b965f88016102e7565b6104b3565b60208501610319565b604083016102e7565b610bdc8491600690610bd6610bd0836104d2565b8561033b565b526104d2565b9061033b565b5150610c8d73dcfdf8434e8fdfff2dd7dfc9299877e813348ee7610c677fcf90e73ee616097c10278bfedc410a1addc3fd4c5c80b93ef248b91bbd4c062c610c5e610c557304eeb15a3a96b679eed0a5f490ef89ec5477f04592610c50610c476102da565b965f88016102e7565b6104f1565b60208501610319565b604083016102e7565b610c878491600790610c81610c7b83610510565b8561033b565b52610510565b9061033b565b5150610d3873dcfdf8434e8fdfff2dd7dfc9299877e813348ee7610d127f6d388ff5d62b779fc3579c8449b5dd84a893df668a9a64d2aded1bee36887b57610d09610d007304eeb15a3a96b679eed0a5f490ef89ec5477f04592610cfb610cf26102da565b965f88016102e7565b61052f565b60208501610319565b604083016102e7565b610d328491600890610d2c610d268361054e565b8561033b565b5261054e565b9061033b565b5150610de3732ca5f2c4300450d53214b00546795c1c07b89acb610dbd7f4005ba6eb7d2221fe58102bd320aa6d83c47b212771bc950ab71c5074d9ab0ec610db4610dab73c88ff954d42d3e11d43b62523b3357847c29377c92610da6610d9d6102da565b965f88016102e7565b61056d565b60208501610319565b604083016102e7565b610ddd8491600990610dd7610dd18361058c565b8561033b565b5261058c565b9061033b565b5150610e8e73545a490f9ab534adf409a2e682bc4098f49952e3610e687f802ec6e878dc9fe6905b8a0a18962dcca10440a87fa2242fbf4a0461c7b0c789610e5f610e5673307c15f808914df5a5dbe17e5608f84953ffa02392610e51610e486102da565b965f88016102e7565b6105ab565b60208501610319565b604083016102e7565b610e888491600a90610e82610e7c836105ca565b8561033b565b526105ca565b9061033b565b5150610f3973c3c7e5e277d31cd24a3ac4cc9af3b6770f30ea33610f137f03f715ef1ae508ab3e1faf4dffdbf2a077d1f0ad10c5aad42cf4438d5e3328af610f0a610f0173cc781b043933c10a04409b22aada3a3d1a7f29d492610efc610ef36102da565b965f88016102e7565b6105e9565b60208501610319565b604083016102e7565b610f338491600b90610f2d610f2783610608565b8561033b565b52610608565b9061033b565b5150610fe473dbf6fec5a012a13c456bac3b67c3b9cf2830a122610fbe7fee8b6a54d60c18af9085cef5f90fb3de887f4ebe3f84e21c8222740c1de6d79e610fb5610fac7356c4200915d74a7cae45dfa57ab33725b043919392610fa7610f9e6102da565b965f88016102e7565b610627565b60208501610319565b604083016102e7565b610fde8491600c90610fd8610fd283610646565b8561033b565b52610646565b9061033b565b515061108f73b10da2f9147f9cf2b8826877cd0c95c18a0f42dc6110697f8a71a66ac828c2b6d4f8accce5859aba0822b502f3833bec4aff09479affffdb611060611057733f53eb4c57c7e7118be8566bcd503ea502639581926110526110496102da565b965f88016102e7565b610665565b60208501610319565b604083016102e7565b6110898491600d9061108361107d83610684565b8561033b565b52610684565b9061033b565b515061113a73b10da2f9147f9cf2b8826877cd0c95c18a0f42dc6111147f7fd694cd13880ce994c61e8f8991ce0c9e321e3d50f548dd62a1b6e610d29f3261110b611102733f53eb4c57c7e7118be8566bcd503ea502639581926110fd6110f46102da565b965f88016102e7565b6106a3565b60208501610319565b604083016102e7565b6111348491600e9061112e611128836106c2565b8561033b565b526106c2565b9061033b565b51506111e57321aace56a8f21210b7e76d8ef1a77253db85bf0a6111bf7f934b5427f2dbcddaddb59e04b8bbb41ef30fb7481eef95366ffa5da4290f13596111b66111ad739bc2fb257e00468fe921635fe5a73271f385d0eb926111a861119f6102da565b965f88016102e7565b6106e1565b60208501610319565b604083016102e7565b6111df8491600f906111d96111d383610700565b8561033b565b52610700565b9061033b565b515056fea26469706673582212204077d1d831fdae51604b840ba1f86eb738edad91b0228398e555b83a667479d964736f6c634300081e0033","linkReferences":{}},"methodIdentifiers":{"getTokenConfigs()":"5547171d"},"id":73}