{"abi":[{"type":"function","name":"getTokenConfigs","inputs":[],"outputs":[{"name":"tokenConfigs","type":"tuple[]","internalType":"struct CollateralTokenConfig[]","components":[{"name":"collateralToken","type":"address","internalType":"address"},{"name":"morphoMarketId","type":"bytes32","internalType":"bytes32"},{"name":"pendleMarket","type":"address","internalType":"address"}]}],"stateMutability":"pure"},{"type":"function","name":"getTokenWhales","inputs":[],"outputs":[{"name":"tokenWhales","type":"address[]","internalType":"address[]"}],"stateMutability":"pure"}],"bytecode":{"object":"0x60808060405234601557610861908161001a8239f35b5f80fdfe60806040526004361015610011575f80fd5b5f3560e01c806324d386d31461057057635547171d1461002f575f80fd5b3461056c575f36600319011261056c5761016061004b81610751565b600a815290601f19015f5b818110610547578261006661071d565b73e6a934089bbee34f832060ce98848359883749b381527fa79d8028dec527565028fd9fc075b02b498f2b69a1d519dff543ba99b812ff6b602082015273b6ac3d5da138918ac4e84441e924a20daa60dbdd60408201526100c682610777565b526100d081610777565b506100d961071d565b7362c6e813b9589c3631ba0cdb013acdb8544038b781527f8cdb63a27a48ac27fadc0f158a732104bcc4e10bb61c9a5095ea7c127204e26c6020820152734eaa571eafcd96f51728756bd7f396459bb9b869604082015261013982610798565b5261014381610798565b5061014c61071d565b73f3f491e5608f8b8a6fd9e9d66a4a4036d7fd282c81527f645fba729787a172a49f1661c53a4de57d69c522ba9bb3f2d1fcef0923f9189a602082015273f4c449d6a2d1840625211769779ada42857d04dd60408201526101ac826107a8565b526101b6816107a8565b506101bf61071d565b7323e0d07095daec91b6ae016ca9f08222dcc64c4981527f6920dba94e92cec814cb2be2d5817e6d959ca750c71bd6973402c8a2372ea21b60208201527310e3e052bdee38c468ad092c87d330b59af6bbeb604082015261021f826107b8565b52610229816107b8565b5061023261071d565b73dcfdf8434e8fdfff2dd7dfc9299877e813348ee781527fcf90e73ee616097c10278bfedc410a1addc3fd4c5c80b93ef248b91bbd4c062c60208201527304eeb15a3a96b679eed0a5f490ef89ec5477f0456040820152610292826107c8565b5261029c816107c8565b506102a561071d565b73545a490f9ab534adf409a2e682bc4098f49952e381527f802ec6e878dc9fe6905b8a0a18962dcca10440a87fa2242fbf4a0461c7b0c789602082015273307c15f808914df5a5dbe17e5608f84953ffa0236040820152610305826107d8565b5261030f816107d8565b5061031861071d565b73c3c7e5e277d31cd24a3ac4cc9af3b6770f30ea3381527f03f715ef1ae508ab3e1faf4dffdbf2a077d1f0ad10c5aad42cf4438d5e3328af602082015273cc781b043933c10a04409b22aada3a3d1a7f29d46040820152610378826107e8565b52610382816107e8565b5061038b61071d565b73dbf6fec5a012a13c456bac3b67c3b9cf2830a12281527fee8b6a54d60c18af9085cef5f90fb3de887f4ebe3f84e21c8222740c1de6d79e60208201527356c4200915d74a7cae45dfa57ab33725b043919360408201526103eb826107f8565b526103f5816107f8565b506103fe61071d565b73b10da2f9147f9cf2b8826877cd0c95c18a0f42dc81527f8a71a66ac828c2b6d4f8accce5859aba0822b502f3833bec4aff09479affffdb6020820152733f53eb4c57c7e7118be8566bcd503ea502639581604082015261045e82610809565b5261046881610809565b5061047161071d565b7321aace56a8f21210b7e76d8ef1a77253db85bf0a81527f934b5427f2dbcddaddb59e04b8bbb41ef30fb7481eef95366ffa5da4290f13596020820152739bc2fb257e00468fe921635fe5a73271f385d0eb60408201526104d18261081a565b526104db8161081a565b506040518091602082016020835281518091526020604084019201905f5b818110610507575050500390f35b825180516001600160a01b0390811686526020828101518188015260409283015190911691860191909152869550606090940193909201916001016104f9565b60209061055261071d565b5f81525f838201525f604082015282828601015201610056565b5f80fd5b3461056c575f36600319011261056c5761016061058c81610751565b600a81526020810191601f190136833773f087c34d81a552d2b82fe67b8ac3e707a0adc5616105ba82610777565b52738c31af1388666ad031c45f25b31017eaad4c52396105d982610798565b5273ff43c5727fbfc31cb96e605dfd7546eb8862064c6105f8826107a8565b527366a4327c7d280ac317a23145a6deef1460ee29ac610617826107b8565b52735a407865411253e5a991d3e49e8bc7a1fdbe82b0610636826107c8565b527368e7e72938db36a5cbbca7b52c71dbbaadfb8264610655826107d8565b52731fddd2218def78ee99bd2a5cbd8c5f263fbae632610674826107e8565b5273c3a1bab8fef2767db914b8c22d0617933a91e3b0610693826107f8565b52733c9ea5c4fec2a77e23dd82539f4414266fe8f7576106b282610809565b5273f3ac4d503991ed1aba52b03f7cb4e7b4210ab92c6106d18261081a565b52604051918291602083019060208452518091526040830191905f5b8181106106fb575050500390f35b82516001600160a01b03168452859450602093840193909201916001016106ed565b604051906060820182811067ffffffffffffffff82111761073d57604052565b634e487b7160e01b5f52604160045260245ffd5b6040519190601f01601f1916820167ffffffffffffffff81118382101761073d57604052565b8051156107845760200190565b634e487b7160e01b5f52603260045260245ffd5b8051600110156107845760400190565b8051600210156107845760600190565b8051600310156107845760800190565b8051600410156107845760a00190565b8051600510156107845760c00190565b8051600610156107845760e00190565b805160071015610784576101000190565b805160081015610784576101200190565b80516009101561078457610140019056fea26469706673582212206d6c751ec7d1ba94241caaa881a1d88bc53caee797a36ac0970404cacc65a24464736f6c634300081e0033","linkReferences":{}},"methodIdentifiers":{"getTokenConfigs()":"5547171d","getTokenWhales()":"24d386d3"},"id":73}