{"abi":[{"type":"function","name":"getTokenConfigs","inputs":[],"outputs":[{"name":"tokenConfigs","type":"tuple[]","internalType":"struct CollateralTokenConfig[]","components":[{"name":"collateralToken","type":"address","internalType":"address"},{"name":"morphoMarketId","type":"bytes32","internalType":"bytes32"},{"name":"pendleMarket","type":"address","internalType":"address"}]}],"stateMutability":"pure"},{"type":"function","name":"getTokenWhales","inputs":[],"outputs":[{"name":"tokenWhales","type":"address[]","internalType":"address[]"}],"stateMutability":"pure"}],"bytecode":{"object":"0x6080806040523460155761093e908161001a8239f35b5f80fdfe60806040526004361015610011575f80fd5b5f3560e01c806324d386d3146105b457635547171d1461002f575f80fd5b346105b0575f7ffffffffffffffffffffffffffffffffffffffffffffffffffffffffffffffffc3601126105b0576101607fffffffffffffffffffffffffffffffffffffffffffffffffffffffffffffffe061008a826107f7565b91600a8352015f5b81811061058b57826100a26107aa565b73e6a934089bbee34f832060ce98848359883749b381527fa79d8028dec527565028fd9fc075b02b498f2b69a1d519dff543ba99b812ff6b602082015273b6ac3d5da138918ac4e84441e924a20daa60dbdd60408201526101028261083b565b5261010c8161083b565b506101156107aa565b7362c6e813b9589c3631ba0cdb013acdb8544038b781527f8cdb63a27a48ac27fadc0f158a732104bcc4e10bb61c9a5095ea7c127204e26c6020820152734eaa571eafcd96f51728756bd7f396459bb9b869604082015261017582610875565b5261017f81610875565b506101886107aa565b73f3f491e5608f8b8a6fd9e9d66a4a4036d7fd282c81527f645fba729787a172a49f1661c53a4de57d69c522ba9bb3f2d1fcef0923f9189a602082015273f4c449d6a2d1840625211769779ada42857d04dd60408201526101e882610885565b526101f281610885565b506101fb6107aa565b7323e0d07095daec91b6ae016ca9f08222dcc64c4981527f6920dba94e92cec814cb2be2d5817e6d959ca750c71bd6973402c8a2372ea21b60208201527310e3e052bdee38c468ad092c87d330b59af6bbeb604082015261025b82610895565b5261026581610895565b5061026e6107aa565b73dcfdf8434e8fdfff2dd7dfc9299877e813348ee781527fcf90e73ee616097c10278bfedc410a1addc3fd4c5c80b93ef248b91bbd4c062c60208201527304eeb15a3a96b679eed0a5f490ef89ec5477f04560408201526102ce826108a5565b526102d8816108a5565b506102e16107aa565b73545a490f9ab534adf409a2e682bc4098f49952e381527f802ec6e878dc9fe6905b8a0a18962dcca10440a87fa2242fbf4a0461c7b0c789602082015273307c15f808914df5a5dbe17e5608f84953ffa0236040820152610341826108b5565b5261034b816108b5565b506103546107aa565b73c3c7e5e277d31cd24a3ac4cc9af3b6770f30ea3381527f03f715ef1ae508ab3e1faf4dffdbf2a077d1f0ad10c5aad42cf4438d5e3328af602082015273cc781b043933c10a04409b22aada3a3d1a7f29d460408201526103b4826108c5565b526103be816108c5565b506103c76107aa565b73dbf6fec5a012a13c456bac3b67c3b9cf2830a12281527fee8b6a54d60c18af9085cef5f90fb3de887f4ebe3f84e21c8222740c1de6d79e60208201527356c4200915d74a7cae45dfa57ab33725b04391936040820152610427826108d5565b52610431816108d5565b5061043a6107aa565b73b10da2f9147f9cf2b8826877cd0c95c18a0f42dc81527f8a71a66ac828c2b6d4f8accce5859aba0822b502f3833bec4aff09479affffdb6020820152733f53eb4c57c7e7118be8566bcd503ea502639581604082015261049a826108e6565b526104a4816108e6565b506104ad6107aa565b7321aace56a8f21210b7e76d8ef1a77253db85bf0a81527f934b5427f2dbcddaddb59e04b8bbb41ef30fb7481eef95366ffa5da4290f13596020820152739bc2fb257e00468fe921635fe5a73271f385d0eb604082015261050d826108f7565b52610517816108f7565b506040518091602082016020835281518091526020604084019201905f5b818110610543575050500390f35b919350916020606060019273ffffffffffffffffffffffffffffffffffffffff6040885182815116845285810151868501520151166040820152019401910191849392610535565b6020906105966107aa565b5f81525f838201525f604082015282828601015201610092565b5f80fd5b346105b0575f7ffffffffffffffffffffffffffffffffffffffffffffffffffffffffffffffffc3601126105b0576101606105ee816107f7565b600a81527fffffffffffffffffffffffffffffffffffffffffffffffffffffffffffffffe060208201920136833773f087c34d81a552d2b82fe67b8ac3e707a0adc56161063a8261083b565b52738c31af1388666ad031c45f25b31017eaad4c523961065982610875565b5273ff43c5727fbfc31cb96e605dfd7546eb8862064c61067882610885565b527366a4327c7d280ac317a23145a6deef1460ee29ac61069782610895565b52735a407865411253e5a991d3e49e8bc7a1fdbe82b06106b6826108a5565b527368e7e72938db36a5cbbca7b52c71dbbaadfb82646106d5826108b5565b52731fddd2218def78ee99bd2a5cbd8c5f263fbae6326106f4826108c5565b5273c3a1bab8fef2767db914b8c22d0617933a91e3b0610713826108d5565b52733c9ea5c4fec2a77e23dd82539f4414266fe8f757610732826108e6565b5273f3ac4d503991ed1aba52b03f7cb4e7b4210ab92c610751826108f7565b52604051918291602083019060208452518091526040830191905f5b81811061077b575050500390f35b825173ffffffffffffffffffffffffffffffffffffffff1684528594506020938401939092019160010161076d565b604051906060820182811067ffffffffffffffff8211176107ca57604052565b7f4e487b71000000000000000000000000000000000000000000000000000000005f52604160045260245ffd5b907fffffffffffffffffffffffffffffffffffffffffffffffffffffffffffffffe0601f604051930116820182811067ffffffffffffffff8211176107ca57604052565b8051156108485760200190565b7f4e487b71000000000000000000000000000000000000000000000000000000005f52603260045260245ffd5b8051600110156108485760400190565b8051600210156108485760600190565b8051600310156108485760800190565b8051600410156108485760a00190565b8051600510156108485760c00190565b8051600610156108485760e00190565b805160071015610848576101000190565b805160081015610848576101200190565b80516009101561084857610140019056fea264697066735822122011ca69d8ab0b9a83cb669fe2702ca0ecb245b642343c7bed3ac8066bb394edbf64736f6c634300081e0033","linkReferences":{}},"methodIdentifiers":{"getTokenConfigs()":"5547171d","getTokenWhales()":"24d386d3"},"id":73}