{"abi":[{"type":"constructor","inputs":[{"name":"positionManagerAddress","type":"address","internalType":"address"},{"name":"treasury","type":"address","internalType":"address"}],"stateMutability":"nonpayable"},{"type":"function","name":"MAX_LEVERAGE_LTV","inputs":[],"outputs":[{"name":"","type":"uint256","internalType":"uint256"}],"stateMutability":"view"},{"type":"function","name":"acceptOwnership","inputs":[],"outputs":[],"stateMutability":"nonpayable"},{"type":"function","name":"addSupportedCollateralTokens","inputs":[{"name":"collateralTokens","type":"address[]","internalType":"address[]"},{"name":"curvePools","type":"address[]","internalType":"address[]"}],"outputs":[],"stateMutability":"nonpayable"},{"type":"function","name":"getUserLeveragePositions","inputs":[{"name":"user","type":"address","internalType":"address"}],"outputs":[{"name":"","type":"tuple[]","internalType":"struct LevPosition[]","components":[{"name":"owner","type":"address","internalType":"address"},{"name":"debtPositionId","type":"uint256","internalType":"uint256"},{"name":"userCollateralDeposited","type":"uint256","internalType":"uint256"}]}],"stateMutability":"view"},{"type":"function","name":"leverage","inputs":[{"name":"owner","type":"address","internalType":"address"},{"name":"collateralToken","type":"address","internalType":"address"},{"name":"userCollateralAmount","type":"uint256","internalType":"uint256"},{"name":"desiredLtv","type":"uint256","internalType":"uint256"}],"outputs":[],"stateMutability":"nonpayable"},{"type":"function","name":"onFlashLoan","inputs":[{"name":"initiator","type":"address","internalType":"address"},{"name":"token","type":"address","internalType":"address"},{"name":"amountLoan","type":"uint256","internalType":"uint256"},{"name":"fee","type":"uint256","internalType":"uint256"},{"name":"data","type":"bytes","internalType":"bytes"}],"outputs":[{"name":"","type":"bytes32","internalType":"bytes32"}],"stateMutability":"nonpayable"},{"type":"function","name":"owner","inputs":[],"outputs":[{"name":"","type":"address","internalType":"address"}],"stateMutability":"view"},{"type":"function","name":"pendingOwner","inputs":[],"outputs":[{"name":"","type":"address","internalType":"address"}],"stateMutability":"view"},{"type":"function","name":"renounceOwnership","inputs":[],"outputs":[],"stateMutability":"nonpayable"},{"type":"function","name":"transferOwnership","inputs":[{"name":"newOwner","type":"address","internalType":"address"}],"outputs":[],"stateMutability":"nonpayable"},{"type":"function","name":"unleverage","inputs":[{"name":"leveragePositionId","type":"uint256","internalType":"uint256"}],"outputs":[],"stateMutability":"nonpayable"},{"type":"event","name":"OwnershipTransferStarted","inputs":[{"name":"previousOwner","type":"address","indexed":true,"internalType":"address"},{"name":"newOwner","type":"address","indexed":true,"internalType":"address"}],"anonymous":false},{"type":"event","name":"OwnershipTransferred","inputs":[{"name":"previousOwner","type":"address","indexed":true,"internalType":"address"},{"name":"newOwner","type":"address","indexed":true,"internalType":"address"}],"anonymous":false},{"type":"error","name":"FlashLeverage__ExceedsMaxLTV","inputs":[]},{"type":"error","name":"FlashLeverage__ExceedsMaxLeverageLTV","inputs":[]},{"type":"error","name":"FlashLeverage__InsufficientCollateralToUnleverage","inputs":[]},{"type":"error","name":"FlashLeverage__InvalidLoanToken","inputs":[]},{"type":"error","name":"FlashLeverage__NotThePositionOwner","inputs":[]},{"type":"error","name":"FlashLeverage__UntrustedLender","inputs":[]},{"type":"error","name":"FlashLeverage__UntrustedLoanInitiator","inputs":[]},{"type":"error","name":"OwnableInvalidOwner","inputs":[{"name":"owner","type":"address","internalType":"address"}]},{"type":"error","name":"OwnableUnauthorizedAccount","inputs":[{"name":"account","type":"address","internalType":"address"}]},{"type":"error","name":"PositionManager__InvalidTokenAddress","inputs":[]},{"type":"error","name":"PositionManager__UnsupportedCollateralToken","inputs":[]},{"type":"error","name":"SafeERC20FailedOperation","inputs":[{"name":"token","type":"address","internalType":"address"}]}],"bytecode":{"object":"0x60c0604052346100b95761001a61001461018d565b906102b7565b6100226100be565b612a9f6105228239608051818181610df801528181610fe50152818161159d01528181611b0f01528181611beb01528181611fb00152612181015260a051818181610caa01528181610dbc01528181610f8501528181611566015281816119a301528181611b40015281816120a301528181612109015281816121b7015281816124ba0152818161265b01526126d70152612a9f90f35b6100c4565b60405190565b5f80fd5b601f801991011690565b634e487b7160e01b5f52604160045260245ffd5b906100f0906100c8565b810190811060018060401b0382111761010857604052565b6100d2565b906101206101196100be565b92836100e6565b565b5f80fd5b60018060a01b031690565b61013a90610126565b90565b61014681610131565b0361014d57565b5f80fd5b9050519061015e8261013d565b565b9190604083820312610188578061017c610185925f8601610151565b93602001610151565b90565b610122565b6101ab612fc1803803806101a08161010d565b928339810190610160565b9091565b90565b6101c66101c16101cb92610126565b6101af565b610126565b90565b6101d7906101b2565b90565b6101e3906101ce565b90565b6101ef90610131565b90565b6101fc90516101e6565b90565b610208906101b2565b90565b610214906101ff565b90565b60e01b90565b9060208282031261023657610233915f01610151565b90565b610122565b5f0190565b6102486100be565b3d5f823e3d90fd5b610259906101b2565b90565b61026590610250565b90565b5f1b90565b9061027e60018060a01b0391610268565b9181191691161790565b610291906101ff565b90565b90565b906102ac6102a76102b392610288565b610294565b825461026d565b9055565b906102cd6102fa926102c833610369565b6101da565b60a05260206102e46102df60a06101f2565b61020b565b6355b74db0906102f26100be565b948592610217565b8252818061030a6004820161023b565b03915afa918215610364576103349261032a915f91610336575b5061025c565b6080526003610297565b565b610357915060203d811161035d575b61034f81836100e6565b81019061021d565b5f610324565b503d610345565b610240565b610372906103c1565b565b90565b61038b61038661039092610374565b6101af565b610126565b90565b61039c90610377565b90565b6103a890610131565b9052565b91906103bf905f6020850194019061039f565b565b806103dc6103d66103d15f610393565b610131565b91610131565b146103ec576103ea9061047b565b565b61040f6103f85f610393565b5f918291631e4fbdf760e01b8352600483016103ac565b0390fd5b1b90565b9190600861043791029161043160018060a01b0384610413565b92610413565b9181191691161790565b919061045761045261045f93610288565b610294565b908354610417565b9055565b5f90565b61047991610473610463565b91610441565b565b61048f9061048a5f6001610467565b6104c2565b565b5f1c90565b60018060a01b031690565b6104ad6104b291610491565b610496565b90565b6104bf90546104a1565b90565b6104cb5f6104b5565b6104d5825f610297565b906105096105037f8be0079c531659141344cd1fd0a4f28419497f9722a3daafe3b4186f6b6457e093610288565b91610288565b916105126100be565b8061051c8161023b565b0390a356fe60806040526004361015610013575b6107b0565b61001d5f356100cc565b80631d430ef4146100c757806323e30c8b146100c25780634b7f11a7146100bd578063544e5eca146100b8578063715018a6146100b357806379ba5097146100ae5780638da5cb5b146100a95780638dced9be146100a4578063a230922e1461009f578063e30c39781461009a5763f2fde38b0361000e5761077d565b610748565b610711565b610696565b6105fe565b6105a9565b61057e565b61053a565b610406565b61027a565b61012d565b60e01c90565b60405190565b5f80fd5b5f80fd5b5f80fd5b90565b6100f0816100e4565b036100f757565b5f80fd5b90503590610108826100e7565b565b9060208282031261012357610120915f016100fb565b90565b6100dc565b5f0190565b3461015b5761014561014036600461010a565b610c81565b61014d6100d2565b8061015781610128565b0390f35b6100d8565b60018060a01b031690565b61017490610160565b90565b6101808161016b565b0361018757565b5f80fd5b9050359061019882610177565b565b5f80fd5b5f80fd5b5f80fd5b909182601f830112156101e05781359167ffffffffffffffff83116101db5760200192600183028401116101d657565b6101a2565b61019e565b61019a565b91909160a081840312610250576101fe835f830161018b565b9261020c816020840161018b565b9261021a82604085016100fb565b9261022883606083016100fb565b92608082013567ffffffffffffffff811161024b5761024792016101a6565b9091565b6100e0565b6100dc565b90565b61026190610255565b9052565b9190610278905f60208501940190610258565b565b346102b1576102ad61029c6102903660046101e5565b94939093929192610f60565b6102a46100d2565b91829182610265565b0390f35b6100d8565b601f801991011690565b634e487b7160e01b5f52604160045260245ffd5b906102de906102b6565b810190811067ffffffffffffffff8211176102f857604052565b6102c0565b906103106103096100d2565b92836102d4565b565b67ffffffffffffffff811161032a5760208091020190565b6102c0565b9092919261034461033f82610312565b6102fd565b938185526020808601920283019281841161038157915b8383106103685750505050565b60208091610376848661018b565b81520192019161035b565b6101a2565b9080601f830112156103a4578160206103a19335910161032f565b90565b61019a565b919091604081840312610401575f81013567ffffffffffffffff81116103fc57836103d5918301610386565b92602082013567ffffffffffffffff81116103f7576103f49201610386565b90565b6100e0565b6100e0565b6100dc565b346104355761041f6104193660046103a9565b906112f6565b6104276100d2565b8061043181610128565b0390f35b6100d8565b9060208282031261045357610450915f0161018b565b90565b6100dc565b5190565b60209181520190565b60200190565b6104749061016b565b9052565b610481906100e4565b9052565b906040806104b99361049d5f8201515f86019061046b565b6104af60208201516020860190610478565b0151910190610478565b565b906104c881606093610485565b0190565b60200190565b906104ef6104e96104e284610458565b809361045c565b92610465565b905f5b8181106104ff5750505090565b90919261051861051260019286516104bb565b946104cc565b91019190916104f2565b6105379160208201915f8184039101526104d2565b90565b3461056a5761056661055561055036600461043a565b611396565b61055d6100d2565b91829182610522565b0390f35b6100d8565b5f91031261057957565b6100dc565b346105a45761058e36600461056f565b6105966100d2565b806105a081610128565b0390f35b6100d8565b346105d7576105b936600461056f565b6105c16113b5565b6105c96100d2565b806105d381610128565b0390f35b6100d8565b6105e59061016b565b9052565b91906105fc905f602085019401906105dc565b565b3461062e5761060e36600461056f565b61062a61061961140a565b6106216100d2565b918291826105e9565b0390f35b6100d8565b90565b90565b61064d61064861065292610633565b610636565b6100e4565b90565b610666670b1a2bc2ec500000610639565b90565b610671610655565b90565b61067d906100e4565b9052565b9190610694905f60208501940190610674565b565b346106c6576106a636600461056f565b6106c26106b1610669565b6106b96100d2565b91829182610681565b0390f35b6100d8565b60808183031261070c576106e1825f830161018b565b926107096106f2846020850161018b565b9361070081604086016100fb565b936060016100fb565b90565b6100dc565b346107435761072d6107243660046106cb565b92919091611624565b6107356100d2565b8061073f81610128565b0390f35b6100d8565b346107785761075836600461056f565b610774610763611632565b61076b6100d2565b918291826105e9565b0390f35b6100d8565b346107ab5761079561079036600461043a565b6116ba565b61079d6100d2565b806107a781610128565b0390f35b6100d8565b5f80fd5b6107c86107c36107cd92610160565b610636565b610160565b90565b6107d9906107b4565b90565b6107e5906107d0565b90565b906107f2906107dc565b5f5260205260405f2090565b634e487b7160e01b5f52603260045260245ffd5b5490565b5f5260205f2090565b61082881610812565b8210156108425761083a600391610816565b910201905f90565b6107fe565b5f1c90565b60018060a01b031690565b61086361086891610847565b61084c565b90565b6108759054610857565b90565b906108829061016b565b9052565b90565b61089561089a91610847565b610886565b90565b6108a79054610889565b90565b906108b4906100e4565b9052565b6108c260606102fd565b90565b9061091461090b60026108d66108b8565b946108ed6108e55f830161086b565b5f8801610878565b6109056108fc6001830161089d565b602088016108aa565b0161089d565b604084016108aa565b565b61091f906108c5565b90565b61092b906107d0565b90565b61093890516100e4565b90565b5f80fd5b60e01b90565b5f80fd5b9050519061095682610177565b565b90505190610965826100e7565b565b91906080838203126109c5576109be9061098160806102fd565b9361098e825f8301610949565b5f86015261099f8260208301610949565b60208601526109b18260408301610958565b6040860152606001610958565b6060830152565b610945565b906080828203126109e3576109e0915f01610967565b90565b6100dc565b6109f06100d2565b3d5f823e3d90fd5b610a02905161016b565b90565b15610a0c57565b5f63ca6945c560e01b815280610a2460048201610128565b0390fd5b634e487b7160e01b5f52602160045260245ffd5b60021115610a4657565b610a28565b90610a5582610a3c565b565b610a6090610a4b565b90565b610a6c90610a57565b9052565b90959492610abb94610aaa610ab492610aa0608096610a9660a088019c5f890190610a63565b60208701906105dc565b6040850190610674565b60608301906105dc565b0190610674565b565b1b90565b91906008610adc910291610ad65f1984610abd565b92610abd565b9181191691161790565b610afa610af5610aff926100e4565b610636565b6100e4565b90565b90565b9190610b1b610b16610b2393610ae6565b610b02565b908354610ac1565b9055565b5f90565b610b3d91610b37610b27565b91610b05565b565b5f6002610b5e928280820155610b588360018301610b2b565b01610b2b565b565b634e487b7160e01b5f525f60045260245ffd5b905f03610b8557610b8390610b3f565b565b610b60565b610b93906107d0565b90565b151590565b610ba481610b96565b03610bab57565b5f80fd5b90505190610bbc82610b9b565b565b90602082820312610bd757610bd4915f01610baf565b90565b6100dc565b610be5906107d0565b90565b610bf190610bdc565b9052565b5190565b60209181520190565b90825f9392825e0152565b610c2c610c35602093610c3a93610c2381610bf5565b93848093610bf9565b95869101610c02565b6102b6565b0190565b9092610c7190610c67610c7e9694610c5d60808601975f870190610be8565b60208501906105dc565b6040830190610674565b6060818403910152610c0d565b90565b610d03610ca3610c9d610c96600433906107e8565b849061081f565b50610916565b6080610cce7f0000000000000000000000000000000000000000000000000000000000000000610922565b63eb02c30190610cf8610ce36020860161092e565b92610cec6100d2565b9687948593849361093f565b835260048301610681565b03915afa8015610eb357610db1610db7916020945f91610e85575b5094610d4633610d40610d3a610d355f89016109f8565b61016b565b9161016b565b14610a05565b610dac6001610d98610d595f88016109f8565b91610d8a858b610d766040610d6f8e84016109f8565b920161092e565b91610d7f6100d2565b9687958e8701610a70565b8982018103825203826102d4565b94610da65f600492016109f8565b906107e8565b61081f565b90610b73565b610de07f0000000000000000000000000000000000000000000000000000000000000000610922565b610e375f635cffe9de610e423095610e236060610e1c7f0000000000000000000000000000000000000000000000000000000000000000610b8a565b9a0161092e565b610e2b6100d2565b998a988997889661093f565b865260048601610c3e565b03925af18015610e8057610e54575b50565b610e749060203d8111610e79575b610e6c81836102d4565b810190610bbe565b610e51565b503d610e62565b6109e8565b610ea6915060803d8111610eac575b610e9e81836102d4565b8101906109ca565b5f610d1e565b503d610e94565b6109e8565b5f90565b15610ec357565b5f631dd7877960e11b815280610edb60048201610128565b0390fd5b15610ee657565b5f63f151fc4d60e01b815280610efe60048201610128565b0390fd5b15610f0957565b5f6323db9d3760e11b815280610f2160048201610128565b0390fd5b60021115610f2f57565b5f80fd5b90503590610f4082610f25565b565b90602082820312610f5b57610f58915f01610f33565b90565b6100dc565b90610fda61101a929694959396610f75610eb8565b50610fba33610fb4610fae610fa97f0000000000000000000000000000000000000000000000000000000000000000610922565b61016b565b9161016b565b14610ebc565b610fd4610fce610fc930610bdc565b61016b565b9161016b565b14610edf565b61101461100e6110097f0000000000000000000000000000000000000000000000000000000000000000610b8a565b61016b565b9161016b565b14610f02565b6110278183810190610f42565b6110396110335f610a4b565b91610a4b565b145f146110725761104d9392909192611f69565b5b7f439148f0bbc682ca079e46d6e2c2f0c1e3b820f1a291b069d8882abf8cf18dd990565b61107f9392909192611974565b61104e565b906110969161109161235a565b611219565b565b5190565b60209181520190565b5f7f4c656e677468204d69736d617463680000000000000000000000000000000000910152565b6110d9600f60209261109c565b6110e2816110a5565b0190565b6110fb9060208101905f8183039101526110cc565b90565b1561110557565b61110d6100d2565b62461bcd60e51b815280611123600482016110e6565b0390fd5b90565b61113e61113961114392611127565b610636565b6100e4565b90565b600161115291016100e4565b90565b9061115f82611098565b811015611170576020809102010190565b6107fe565b61118961118461118e92611127565b610636565b610160565b90565b61119a90611175565b90565b156111a457565b5f634622ce9760e11b8152806111bc60048201610128565b0390fd5b906111ca906107dc565b5f5260205260405f2090565b5f1b90565b906111ec60018060a01b03916111d6565b9181191691161790565b90565b9061120e611209611215926107dc565b6111f6565b82546111db565b9055565b919061124761122784611098565b61124161123b61123685611098565b6100e4565b916100e4565b146110fe565b6112505f61112a565b5b8061126c61126661126187611098565b6100e4565b916100e4565b10156112f0576112eb906112ad61128c611287878490611155565b6109f8565b6112a66112a061129b5f611191565b61016b565b9161016b565b141561119d565b6112e66112c36112be858490611155565b6109f8565b6112e160026112db6112d68a8790611155565b6109f8565b906111c0565b6111f9565b611146565b611251565b50509050565b9061130091611084565b565b606090565b67ffffffffffffffff811161131f5760208091020190565b6102c0565b9061133661133183611307565b6102fd565b918252565b9061134582610812565b61134e81611324565b9261135c6020850191610816565b5f915b83831061136c5750505050565b6003602060019261137c85610916565b81520192019201919061135f565b6113939061133b565b90565b6113ad6113b2916113a5611302565b5060046107e8565b61138a565b90565b6113bd6123a8565b6113c5611632565b6113d76113d18361016b565b9161016b565b036113e7576113e590612415565b565b611402905f91829163118cdaa760e01b8352600483016105e9565b0390fd5b5f90565b611412611406565b5061141c5f61086b565b90565b1561142657565b5f63c086bcd360e01b81528061143e60048201610128565b0390fd5b9061148593929161148061145f61145a8460026111c0565b61086b565b61147961147361146e5f611191565b61016b565b9161016b565b141561141f565b6114e8565b565b1561148e57565b5f6322da1b6f60e11b8152806114a660048201610128565b0390fd5b6114df6114e6946114d56060949897956114cb608086019a5f870190610a63565b60208501906105dc565b60408301906105dc565b0190610674565b565b611561906115536115306020959661151a8161151361150d611508610655565b6100e4565b916100e4565b1115611487565b61152686338a91612437565b85908890916124a7565b9561153d858883916125e0565b5f92946115486100d2565b9586948886016114aa565b8482018103825203826102d4565b61158a7f0000000000000000000000000000000000000000000000000000000000000000610922565b6115d65f635cffe9de6115e130956115c17f0000000000000000000000000000000000000000000000000000000000000000610b8a565b986115ca6100d2565b998a988997889661093f565b865260048601610c3e565b03925af1801561161f576115f3575b50565b6116139060203d8111611618575b61160b81836102d4565b810190610bbe565b6115f0565b503d611601565b6109e8565b90611630939291611442565b565b61163a611406565b50611645600161086b565b90565b6116599061165461235a565b61165b565b565b6116668160016111f9565b61166e61140a565b906116a261169c7f38d16b8cac22d99fc7c124b9cd0de2d3fa1faef420bfe791d8c362d765e22700936107dc565b916107dc565b916116ab6100d2565b806116b581610128565b0390a3565b6116c390611648565b565b6116ce90610160565b90565b6116da816116c5565b036116e157565b5f80fd5b905035906116f2826116d1565b565b919060a0838203126117455761170c815f8501610f33565b9261171a82602083016116e5565b9261174261172b84604085016100fb565b9361173981606086016116e5565b936080016100fb565b90565b6100dc565b611753906107d0565b90565b5f91031261176057565b6100dc565b60409061178e611795949695939661178460608401985f850190610674565b6020830190610674565b0190610674565b565b6117a0906107b4565b90565b6117ac90611797565b90565b6117b8906107b4565b90565b6117c4906117af565b90565b6117d0906107d0565b90565b6117dc906107d0565b90565b9160206118009294936117f960408201965f8301906105dc565b0190610674565b565b9060208282031261181b57611818915f01610958565b90565b6100dc565b6118299061112a565b9052565b90565b61184461183f6118499261182d565b610636565b6100e4565b90565b61185590611830565b9052565b909594926118a49461189361189d9261188960809661187f60a088019c5f890190611820565b602087019061184c565b6040850190610674565b6060830190611820565b01906105dc565b565b634e487b7160e01b5f52601160045260245ffd5b6118c96118cf919392936100e4565b926100e4565b82018092116118da57565b6118a6565b156118e657565b5f6351e2260f60e11b8152806118fe60048201610128565b0390fd5b611911611917919392936100e4565b926100e4565b820391821161192257565b6118a6565b909594926119729461196161196b9261195760809661194d60a088019c5f89019061184c565b6020870190611820565b6040850190610674565b6060830190611820565b01906105dc565b565b6119886119959461199c94908101906116f4565b969290935096909661174a565b959161174a565b93906119c77f0000000000000000000000000000000000000000000000000000000000000000610922565b9063e16437bc9083928592813b15611dda575f6119f791611a0282966119eb6100d2565b9889978896879561093f565b855260048501611765565b03925af18015611dd557611da9575b50611a3f611a3a611a34611a2f611a2a600289906111c0565b61086b565b6117a3565b956117bb565b6117c7565b602063095ea7b391611a50876117d3565b90611a6e5f8695611a79611a626100d2565b9788968795869461093f565b8452600484016117df565b03925af18015611da457611d78575b506020611a94856117d3565b63a64833a090611ac55f8093611ad060019783611ab030610bdc565b91611ab96100d2565b9a8b998a98899761093f565b875260048701611859565b03925af1908115611d73575f91611d45575b50611b0a81611b03611afd611af88688906118ba565b6100e4565b916100e4565b10156118df565b611b337f0000000000000000000000000000000000000000000000000000000000000000610b8a565b602063a9059cbb91611b647f0000000000000000000000000000000000000000000000000000000000000000610922565b90611b8c5f611b74888a906118ba565b95611b97611b806100d2565b9788968795869461093f565b8452600484016117df565b03925af18015611d4057611d14575b5080611bc4611bbe611bb98587906118ba565b6100e4565b916100e4565b11611bd1575b5050505050565b611be592611bdf91926118ba565b90611902565b91611c0f7f0000000000000000000000000000000000000000000000000000000000000000610b8a565b91602063095ea7b393611c21836117d3565b90611c3f5f8897611c4a611c336100d2565b998a968795869461093f565b8452600484016117df565b03925af1908115611d0f57602093611c6792611ce4575b506117d3565b611c905f63a64833a0611c9b600195839890849091611c846100d2565b9a8b998a98899761093f565b875260048701611927565b03925af18015611cdf57611cb3575b80808080611bca565b611cd39060203d8111611cd8575b611ccb81836102d4565b810190611802565b611caa565b503d611cc1565b6109e8565b611d0390853d8111611d08575b611cfb81836102d4565b810190610bbe565b611c61565b503d611cf1565b6109e8565b611d349060203d8111611d39575b611d2c81836102d4565b810190610bbe565b611ba6565b503d611d22565b6109e8565b611d66915060203d8111611d6c575b611d5e81836102d4565b810190611802565b5f611ae2565b503d611d54565b6109e8565b611d989060203d8111611d9d575b611d9081836102d4565b810190610bbe565b611a88565b503d611d86565b6109e8565b611dc8905f3d8111611dce575b611dc081836102d4565b810190611756565b5f611a11565b503d611db6565b6109e8565b61093b565b608081830312611e2057611df5825f8301610f33565b92611e1d611e0684602085016116e5565b93611e1481604086016116e5565b936060016100fb565b90565b6100dc565b604090611e4e611e559496959396611e4460608401985f8501906105dc565b6020830190610674565b0190610674565b565b90565b611e6460606102fd565b90565b5f5260205f2090565b5490565b611e7d81611e70565b821015611e9757611e8f600391611e67565b910201905f90565b6107fe565b90611ea85f19916111d6565b9181191691161790565b90611ec7611ec2611ece92610ae6565b610b02565b8254611e9c565b9055565b90611f1660406002611f1c94611ef55f8201611eef5f88016109f8565b906111f9565b611f0e60018201611f086020880161092e565b90611eb2565b01920161092e565b90611eb2565b565b9190611f2f57611f2d91611ed2565b565b610b60565b9081549168010000000000000000831015611f645782611f5c916001611f6295018155611e74565b90611f1e565b565b6102c0565b91611f7f611f899294611f8f9290810190611ddf565b939250939061174a565b9261174a565b611fab611fa6611fa1600284906111c0565b61086b565b6117a3565b611fd47f0000000000000000000000000000000000000000000000000000000000000000610b8a565b90602063095ea7b392611fe6836117d3565b906120045f8a9661200f611ff86100d2565b9889968795869461093f565b8452600484016117df565b03925af19182156123555761202992612329575b506117d3565b602063a64833a09160019061205d5f80956120688b8361204830610bdc565b916120516100d2565b9a8b998a98899761093f565b875260048701611927565b03925af1801561232457612084915f916122f6575b50836118ba565b612095612090836117bb565b6117c7565b90602063095ea7b3926120c77f0000000000000000000000000000000000000000000000000000000000000000610922565b906120e55f85966120f06120d96100d2565b9889968795869461093f565b8452600484016117df565b03925af19182156122f1576020926122c6575b5061212d7f0000000000000000000000000000000000000000000000000000000000000000610922565b61215b5f63c5654acc9593956121666121478b8d906118ba565b61214f6100d2565b9889978896879561093f565b855260048501611e25565b03925af180156122c1576020915f91612294575b50936121a57f0000000000000000000000000000000000000000000000000000000000000000610b8a565b6121f95f6121e163a9059cbb996121db7f0000000000000000000000000000000000000000000000000000000000000000610922565b956118ba565b986122046121ed6100d2565b9a8b968795869461093f565b8452600484016117df565b03925af190811561228f576122619461225c92612263575b5061225361223461222f600486906107e8565b611e57565b939461224a612241611e5a565b965f8801610878565b602086016108aa565b604084016108aa565b611f34565b565b6122839060203d8111612288575b61227b81836102d4565b810190610bbe565b61221c565b503d612271565b6109e8565b6122b49150823d81116122ba575b6122ac81836102d4565b810190611802565b5f61217a565b503d6122a2565b6109e8565b6122e590833d81116122ea575b6122dd81836102d4565b810190610bbe565b612103565b503d6122d3565b6109e8565b612317915060203d811161231d575b61230f81836102d4565b810190611802565b5f61207d565b503d612305565b6109e8565b6123499060203d811161234e575b61234181836102d4565b810190610bbe565b612023565b503d612337565b6109e8565b61236261140a565b61237b6123756123706123a8565b61016b565b9161016b565b0361238257565b6123a461238d6123a8565b5f91829163118cdaa760e01b8352600483016105e9565b0390fd5b6123b0611406565b503390565b919060086123d59102916123cf60018060a01b0384610abd565b92610abd565b9181191691161790565b91906123f56123f06123fd936107dc565b6111f6565b9083546123b5565b9055565b6124139161240d611406565b916123df565b565b612429906124245f6001612401565b6127ea565b565b612434906107d0565b90565b918061244b6124455f61112a565b916100e4565b1461246f5761245c61246d936117bb565b916124663061242b565b91926128ac565b565b505050565b90565b61248b61248661249092612474565b610636565b6100e4565b90565b6124a4670de0b6b3a7640000612477565b90565b91906020906124b4610b27565b506124de7f0000000000000000000000000000000000000000000000000000000000000000610922565b6125006373b267d795929561250b6124f46100d2565b9788958694859461093f565b8452600484016117df565b03915afa9182156125865761255592612550915f91612558575b509161254a61253c612535612493565b8590612967565b91612545612493565b611902565b9061298e565b611902565b90565b612579915060203d811161257f575b61257181836102d4565b810190611802565b5f612525565b503d612567565b6109e8565b6040906125b46125bb94969593966125aa60608401985f85019061184c565b6020830190611820565b0190610674565b565b156125c457565b5f636e5e2aa760e11b8152806125dc60048201610128565b0390fd5b90916126066126016125fc6125f7600286906111c0565b61086b565b6117a3565b6117d3565b90602063556d6e9f9260019061262f5f9561263a896126236100d2565b9889968795869561093f565b85526004850161258b565b03915afa80156127e5576020925f916127b8575b50906126a461268c61267f7f0000000000000000000000000000000000000000000000000000000000000000610922565b926373b267d796946118ba565b946126af6126986100d2565b9687958694859461093f565b8452600484016117df565b03915afa9182156127b357612711926126d0925f91612785575b509061298e565b60206126fb7f0000000000000000000000000000000000000000000000000000000000000000610922565b6381bf8d3d906127096100d2565b94859261093f565b8252818061272160048201610128565b03915afa80156127805761274361274991612750945f91612752575b506100e4565b916100e4565b11156125bd565b565b612773915060203d8111612779575b61276b81836102d4565b810190611802565b5f61273d565b503d612761565b6109e8565b6127a6915060203d81116127ac575b61279e81836102d4565b810190611802565b5f6126c9565b503d612794565b6109e8565b6127d89150833d81116127de575b6127d081836102d4565b810190611802565b5f61264e565b503d6127c6565b6109e8565b6127f35f61086b565b6127fd825f6111f9565b9061283161282b7f8be0079c531659141344cd1fd0a4f28419497f9722a3daafe3b4186f6b6457e0936107dc565b916107dc565b9161283a6100d2565b8061284481610128565b0390a3565b63ffffffff1690565b63ffffffff60e01b1690565b61287261286d61287792612849565b61093f565b612852565b90565b6040906128a36128aa949695939661289960608401985f8501906105dc565b60208301906105dc565b0190610674565b565b6004926128e66128fa95936128f593946128cd6323b872dd9294919261285e565b936128d66100d2565b978895602087019081520161287a565b602082018103825203836102d4565b6129b5565b565b61290b612911919392936100e4565b926100e4565b9161291d8382026100e4565b92818404149015171561292c57565b6118a6565b634e487b7160e01b5f52601260045260245ffd5b612951612957916100e4565b916100e4565b908115612962570490565b612931565b61298b9161297d91612977610b27565b506128fc565b612985612493565b90612945565b90565b906129ad6129b29261299e610b27565b506129a7612493565b906128fc565b612945565b90565b905f6020916129c2610b27565b506129cb610b27565b50828151910182855af115612a5e573d5f51906129f06129ea5f61112a565b916100e4565b145f14612a445750612a01816117c7565b3b612a14612a0e5f61112a565b916100e4565b145b612a1d5750565b612a29612a40916117c7565b5f918291635274afe760e01b8352600483016105e9565b0390fd5b612a57612a516001611830565b916100e4565b1415612a16565b6040513d5f823e3d90fdfea26469706673582212209604b3f75e0e460e43e576e8e12e7a5f8233ff2458a23dd6e7066c456e89f52664736f6c634300081e0033","linkReferences":{}},"methodIdentifiers":{"MAX_LEVERAGE_LTV()":"8dced9be","acceptOwnership()":"79ba5097","addSupportedCollateralTokens(address[],address[])":"4b7f11a7","getUserLeveragePositions(address)":"544e5eca","leverage(address,address,uint256,uint256)":"a230922e","onFlashLoan(address,address,uint256,uint256,bytes)":"23e30c8b","owner()":"8da5cb5b","pendingOwner()":"e30c3978","renounceOwnership()":"715018a6","transferOwnership(address)":"f2fde38b","unleverage(uint256)":"1d430ef4"},"id":91}