{"abi":[{"type":"constructor","inputs":[{"name":"_SPIUSD","type":"address","internalType":"address"},{"name":"treasury","type":"address","internalType":"address"}],"stateMutability":"nonpayable"},{"type":"function","name":"LIQ_LTV","inputs":[],"outputs":[{"name":"","type":"uint256","internalType":"uint256"}],"stateMutability":"view"},{"type":"function","name":"MAX_LOAN","inputs":[],"outputs":[{"name":"","type":"uint256","internalType":"uint256"}],"stateMutability":"view"},{"type":"function","name":"MAX_LTV","inputs":[],"outputs":[{"name":"","type":"uint256","internalType":"uint256"}],"stateMutability":"view"},{"type":"function","name":"SPIUSD","inputs":[],"outputs":[{"name":"","type":"address","internalType":"contract ISPIUSD"}],"stateMutability":"view"},{"type":"function","name":"acceptOwnership","inputs":[],"outputs":[],"stateMutability":"nonpayable"},{"type":"function","name":"addSupportedCollateralToken","inputs":[{"name":"collateralTokens","type":"address[]","internalType":"address[]"},{"name":"priceFeedAddress","type":"address[]","internalType":"address[]"}],"outputs":[],"stateMutability":"nonpayable"},{"type":"function","name":"burnSPIUSD","inputs":[{"name":"positionId","type":"uint256","internalType":"uint256"},{"name":"amountToBurn","type":"uint256","internalType":"uint256"}],"outputs":[],"stateMutability":"nonpayable"},{"type":"function","name":"depositCollateral","inputs":[{"name":"positionId","type":"uint256","internalType":"uint256"},{"name":"amountCollateral","type":"uint256","internalType":"uint256"}],"outputs":[],"stateMutability":"nonpayable"},{"type":"function","name":"depositCollateralAndMintSPIUSD","inputs":[{"name":"positionId","type":"uint256","internalType":"uint256"},{"name":"amountCollateral","type":"uint256","internalType":"uint256"},{"name":"amountToMint","type":"uint256","internalType":"uint256"}],"outputs":[],"stateMutability":"nonpayable"},{"type":"function","name":"getPosition","inputs":[{"name":"positionId","type":"uint256","internalType":"uint256"}],"outputs":[{"name":"","type":"tuple","internalType":"struct Position","components":[{"name":"owner","type":"address","internalType":"address"},{"name":"collateralToken","type":"address","internalType":"address"},{"name":"collateralDeposited","type":"uint256","internalType":"uint256"},{"name":"SPIUSDMinted","type":"uint256","internalType":"uint256"}]}],"stateMutability":"view"},{"type":"function","name":"getPositionCollateralValue","inputs":[{"name":"positionId","type":"uint256","internalType":"uint256"}],"outputs":[{"name":"totalCollateralValueInUsd","type":"uint256","internalType":"uint256"}],"stateMutability":"view"},{"type":"function","name":"getPositionLTV","inputs":[{"name":"positionId","type":"uint256","internalType":"uint256"}],"outputs":[{"name":"","type":"uint256","internalType":"uint256"}],"stateMutability":"view"},{"type":"function","name":"getTokenUsdValue","inputs":[{"name":"token","type":"address","internalType":"address"},{"name":"amount","type":"uint256","internalType":"uint256"}],"outputs":[{"name":"","type":"uint256","internalType":"uint256"}],"stateMutability":"view"},{"type":"function","name":"getUserPositionIds","inputs":[{"name":"user","type":"address","internalType":"address"}],"outputs":[{"name":"","type":"uint256[]","internalType":"uint256[]"}],"stateMutability":"view"},{"type":"function","name":"liquidate","inputs":[{"name":"positionId","type":"uint256","internalType":"uint256"}],"outputs":[],"stateMutability":"nonpayable"},{"type":"function","name":"mintSPIUSD","inputs":[{"name":"positionId","type":"uint256","internalType":"uint256"},{"name":"amountToMint","type":"uint256","internalType":"uint256"}],"outputs":[],"stateMutability":"nonpayable"},{"type":"function","name":"openPosition","inputs":[{"name":"collateralToken","type":"address","internalType":"address"},{"name":"amountCollateral","type":"uint256","internalType":"uint256"},{"name":"amountToMint","type":"uint256","internalType":"uint256"}],"outputs":[],"stateMutability":"nonpayable"},{"type":"function","name":"owner","inputs":[],"outputs":[{"name":"","type":"address","internalType":"address"}],"stateMutability":"view"},{"type":"function","name":"pendingOwner","inputs":[],"outputs":[{"name":"","type":"address","internalType":"address"}],"stateMutability":"view"},{"type":"function","name":"redeemCollateral","inputs":[{"name":"positionId","type":"uint256","internalType":"uint256"},{"name":"amountCollateral","type":"uint256","internalType":"uint256"}],"outputs":[],"stateMutability":"nonpayable"},{"type":"function","name":"redeemCollateralAndBurnSPIUSD","inputs":[{"name":"positionId","type":"uint256","internalType":"uint256"},{"name":"amountCollateral","type":"uint256","internalType":"uint256"},{"name":"amountToBurn","type":"uint256","internalType":"uint256"}],"outputs":[],"stateMutability":"nonpayable"},{"type":"function","name":"renounceOwnership","inputs":[],"outputs":[],"stateMutability":"nonpayable"},{"type":"function","name":"transferOwnership","inputs":[{"name":"newOwner","type":"address","internalType":"address"}],"outputs":[],"stateMutability":"nonpayable"},{"type":"function","name":"updateTreasury","inputs":[{"name":"newTreasuryAddress","type":"address","internalType":"address"}],"outputs":[],"stateMutability":"nonpayable"},{"type":"event","name":"OwnershipTransferStarted","inputs":[{"name":"previousOwner","type":"address","indexed":true,"internalType":"address"},{"name":"newOwner","type":"address","indexed":true,"internalType":"address"}],"anonymous":false},{"type":"event","name":"OwnershipTransferred","inputs":[{"name":"previousOwner","type":"address","indexed":true,"internalType":"address"},{"name":"newOwner","type":"address","indexed":true,"internalType":"address"}],"anonymous":false},{"type":"error","name":"OwnableInvalidOwner","inputs":[{"name":"owner","type":"address","internalType":"address"}]},{"type":"error","name":"OwnableUnauthorizedAccount","inputs":[{"name":"account","type":"address","internalType":"address"}]},{"type":"error","name":"PositionManager__InvalidPriceFeedAddress","inputs":[]},{"type":"error","name":"PositionManager__InvalidTokenAddress","inputs":[]},{"type":"error","name":"PositionManager__IsUnderLiqLTV","inputs":[]},{"type":"error","name":"PositionManager__MintExceedsMaxLTV","inputs":[]},{"type":"error","name":"PositionManager__UnsupportedCollateralToken","inputs":[]},{"type":"error","name":"PositionManager__ValueCannotBeZero","inputs":[]},{"type":"error","name":"SafeERC20FailedOperation","inputs":[{"name":"token","type":"address","internalType":"address"}]}],"bytecode":{"object":"0x60a060405234801561000f575f5ffd5b5060405161259b38038061259b83398181016040528101906100319190610282565b335f73ffffffffffffffffffffffffffffffffffffffff168173ffffffffffffffffffffffffffffffffffffffff16036100a2575f6040517f1e4fbdf700000000000000000000000000000000000000000000000000000000815260040161009991906102cf565b60405180910390fd5b6100b18161012d60201b60201c565b508173ffffffffffffffffffffffffffffffffffffffff1660808173ffffffffffffffffffffffffffffffffffffffff16815250508060065f6101000a81548173ffffffffffffffffffffffffffffffffffffffff021916908373ffffffffffffffffffffffffffffffffffffffff16021790555050506102e8565b60015f6101000a81549073ffffffffffffffffffffffffffffffffffffffff02191690556101608161016360201b60201c565b50565b5f5f5f9054906101000a900473ffffffffffffffffffffffffffffffffffffffff169050815f5f6101000a81548173ffffffffffffffffffffffffffffffffffffffff021916908373ffffffffffffffffffffffffffffffffffffffff1602179055508173ffffffffffffffffffffffffffffffffffffffff168173ffffffffffffffffffffffffffffffffffffffff167f8be0079c531659141344cd1fd0a4f28419497f9722a3daafe3b4186f6b6457e060405160405180910390a35050565b5f5ffd5b5f73ffffffffffffffffffffffffffffffffffffffff82169050919050565b5f61025182610228565b9050919050565b61026181610247565b811461026b575f5ffd5b50565b5f8151905061027c81610258565b92915050565b5f5f6040838503121561029857610297610224565b5b5f6102a58582860161026e565b92505060206102b68582860161026e565b9150509250929050565b6102c981610247565b82525050565b5f6020820190506102e25f8301846102c0565b92915050565b60805161228d61030e5f395f81816105f201528181610cc101526113aa015261228d5ff3fe608060405234801561000f575f5ffd5b5060043610610156575f3560e01c80638da5cb5b116100c1578063e30c39781161007a578063e30c397814610374578063eb02c30114610392578063ece13732146103c2578063eddf7570146103de578063f2fde38b1461040e578063f998e6d11461042a57610156565b80638da5cb5b146102c8578063976ede4a146102e65780639d6a7a4314610302578063a2af469a14610320578063a3b7eb571461033c578063c5654acc1461035857610156565b806373b267d71161011357806373b267d71461020857806378b9a1571461023857806379ba5097146102545780637f51bb1f1461025e5780638044626d1461027a57806381bf8d3d146102aa57610156565b806304d45c4f1461015a5780631d45558e146101765780631fb6ca3d146101a6578063415f1240146101c457806361755432146101e0578063715018a6146101fe575b5f5ffd5b610174600480360381019061016f91906118d8565b610446565b005b610190600480360381019061018b9190611916565b6104f9565b60405161019d9190611950565b60405180910390f35b6101ae6105f0565b6040516101bb91906119e3565b60405180910390f35b6101de60048036038101906101d99190611916565b610614565b005b6101e86106a8565b6040516101f59190611950565b60405180910390f35b6102066106af565b005b610222600480360381019061021d9190611a37565b6106b1565b60405161022f9190611950565b60405180910390f35b610252600480360381019061024d9190611bc5565b6107bf565b005b61025c610a69565b005b61027860048036038101906102739190611c3b565b610af7565b005b610294600480360381019061028f9190611916565b610b42565b6040516102a19190611950565b60405180910390f35b6102b2610b53565b6040516102bf9190611950565b60405180910390f35b6102d0610b5f565b6040516102dd9190611c75565b60405180910390f35b61030060048036038101906102fb9190611c8e565b610b86565b005b61030a610b9f565b6040516103179190611950565b60405180910390f35b61033a600480360381019061033591906118d8565b610bab565b005b610356600480360381019061035191906118d8565b610bf5565b005b610372600480360381019061036d9190611cde565b610d6f565b005b61037c610fca565b6040516103899190611c75565b60405180910390f35b6103ac60048036038101906103a79190611916565b610ff2565b6040516103b99190611d9f565b60405180910390f35b6103dc60048036038101906103d791906118d8565b6110da565b005b6103f860048036038101906103f39190611c3b565b611176565b6040516104059190611e60565b60405180910390f35b61042860048036038101906104239190611c3b565b611209565b005b610444600480360381019061043f9190611c8e565b6112b5565b005b805f8111610480576040517fc4a8541800000000000000000000000000000000000000000000000000000000815260040160405180910390fd5b60045f8481526020019081526020015f205f015f9054906101000a900473ffffffffffffffffffffffffffffffffffffffff1673ffffffffffffffffffffffffffffffffffffffff163373ffffffffffffffffffffffffffffffffffffffff16146104e9575f5ffd5b6104f43384846112ce565b505050565b5f5f60045f8481526020019081526020015f206040518060800160405290815f82015f9054906101000a900473ffffffffffffffffffffffffffffffffffffffff1673ffffffffffffffffffffffffffffffffffffffff1673ffffffffffffffffffffffffffffffffffffffff168152602001600182015f9054906101000a900473ffffffffffffffffffffffffffffffffffffffff1673ffffffffffffffffffffffffffffffffffffffff1673ffffffffffffffffffffffffffffffffffffffff1681526020016002820154815260200160038201548152505090506105e8816020015182604001516106b1565b915050919050565b7f000000000000000000000000000000000000000000000000000000000000000081565b5f3390505f61062283611339565b9050670cb2bba6f17b8000811015610666576040517f9c7c781800000000000000000000000000000000000000000000000000000000815260040160405180910390fd5b5f60045f8581526020019081526020015f2090505f816003015490505f826002015490506106958587836112ce565b6106a085878461137a565b505050505050565b6276a70081565b565b5f5f60025f8573ffffffffffffffffffffffffffffffffffffffff1673ffffffffffffffffffffffffffffffffffffffff1681526020019081526020015f205f9054906101000a900473ffffffffffffffffffffffffffffffffffffffff1690505f8173ffffffffffffffffffffffffffffffffffffffff1663feaf968c6040518163ffffffff1660e01b815260040160a060405180830381865afa15801561075c573d5f5f3e3d5ffd5b505050506040513d601f19601f820116820180604052508101906107809190611f06565b505050915050670de0b6b3a7640000846402540be400836107a19190611faa565b6107ab9190611faa565b6107b59190612018565b9250505092915050565b6107c7611436565b805182511461080b576040517f08c379a0000000000000000000000000000000000000000000000000000000008152600401610802906120a2565b60405180910390fd5b5f5f90505b8251811015610a64575f73ffffffffffffffffffffffffffffffffffffffff16838281518110610843576108426120c0565b5b602002602001015173ffffffffffffffffffffffffffffffffffffffff1603610898576040517f8c459d2e00000000000000000000000000000000000000000000000000000000815260040160405180910390fd5b5f73ffffffffffffffffffffffffffffffffffffffff168282815181106108c2576108c16120c0565b5b602002602001015173ffffffffffffffffffffffffffffffffffffffff16146109a8575f8282815181106108f9576108f86120c0565b5b602002602001015173ffffffffffffffffffffffffffffffffffffffff1663313ce5676040518163ffffffff1660e01b8152600401602060405180830381865afa158015610949573d5f5f3e3d5ffd5b505050506040513d601f19601f8201168201806040525081019061096d9190612123565b60ff16116109a7576040517ff747657400000000000000000000000000000000000000000000000000000000815260040160405180910390fd5b5b8181815181106109bb576109ba6120c0565b5b602002602001015160025f8584815181106109d9576109d86120c0565b5b602002602001015173ffffffffffffffffffffffffffffffffffffffff1673ffffffffffffffffffffffffffffffffffffffff1681526020019081526020015f205f6101000a81548173ffffffffffffffffffffffffffffffffffffffff021916908373ffffffffffffffffffffffffffffffffffffffff1602179055508080600101915050610810565b505050565b5f610a726114bd565b90508073ffffffffffffffffffffffffffffffffffffffff16610a93610fca565b73ffffffffffffffffffffffffffffffffffffffff1614610aeb57806040517f118cdaa7000000000000000000000000000000000000000000000000000000008152600401610ae29190611c75565b60405180910390fd5b610af4816114c4565b50565b610aff611436565b8060065f6101000a81548173ffffffffffffffffffffffffffffffffffffffff021916908373ffffffffffffffffffffffffffffffffffffffff16021790555050565b5f610b4c82611339565b9050919050565b670c7d713b49da000081565b5f5f5f9054906101000a900473ffffffffffffffffffffffffffffffffffffffff16905090565b610b908382610bab565b610b9a8383610446565b505050565b670cb2bba6f17b800081565b805f8111610be5576040517fc4a8541800000000000000000000000000000000000000000000000000000000815260040160405180910390fd5b610bf033848461137a565b505050565b805f8111610c2f576040517fc4a8541800000000000000000000000000000000000000000000000000000000815260040160405180910390fd5b5f60045f8581526020019081526020015f209050805f015f9054906101000a900473ffffffffffffffffffffffffffffffffffffffff1673ffffffffffffffffffffffffffffffffffffffff163373ffffffffffffffffffffffffffffffffffffffff1614610c9c575f5ffd5b82816003015f828254610caf919061214e565b92505081905550610cbf846114f4565b7f000000000000000000000000000000000000000000000000000000000000000073ffffffffffffffffffffffffffffffffffffffff166340c10f19825f015f9054906101000a900473ffffffffffffffffffffffffffffffffffffffff16856040518363ffffffff1660e01b8152600401610d3c929190612181565b5f604051808303815f87803b158015610d53575f5ffd5b505af1158015610d65573d5f5f3e3d5ffd5b5050505050505050565b825f73ffffffffffffffffffffffffffffffffffffffff1660025f8373ffffffffffffffffffffffffffffffffffffffff1673ffffffffffffffffffffffffffffffffffffffff1681526020019081526020015f205f9054906101000a900473ffffffffffffffffffffffffffffffffffffffff1673ffffffffffffffffffffffffffffffffffffffff1603610e31576040517fc086bcd300000000000000000000000000000000000000000000000000000000815260040160405180910390fd5b5f3390505f60035490505f60405180608001604052808473ffffffffffffffffffffffffffffffffffffffff1681526020018873ffffffffffffffffffffffffffffffffffffffff1681526020015f81526020015f81525090508060045f8481526020019081526020015f205f820151815f015f6101000a81548173ffffffffffffffffffffffffffffffffffffffff021916908373ffffffffffffffffffffffffffffffffffffffff1602179055506020820151816001015f6101000a81548173ffffffffffffffffffffffffffffffffffffffff021916908373ffffffffffffffffffffffffffffffffffffffff1602179055506040820151816002015560608201518160030155905050610f498287876112b5565b60055f8473ffffffffffffffffffffffffffffffffffffffff1673ffffffffffffffffffffffffffffffffffffffff1681526020019081526020015f2082908060018154018082558091505060019003905f5260205f20015f909190919091505560035f815480929190610fbc906121a8565b919050555050505050505050565b5f60015f9054906101000a900473ffffffffffffffffffffffffffffffffffffffff16905090565b610ffa611844565b60045f8381526020019081526020015f206040518060800160405290815f82015f9054906101000a900473ffffffffffffffffffffffffffffffffffffffff1673ffffffffffffffffffffffffffffffffffffffff1673ffffffffffffffffffffffffffffffffffffffff168152602001600182015f9054906101000a900473ffffffffffffffffffffffffffffffffffffffff1673ffffffffffffffffffffffffffffffffffffffff1673ffffffffffffffffffffffffffffffffffffffff168152602001600282015481526020016003820154815250509050919050565b805f8111611114576040517fc4a8541800000000000000000000000000000000000000000000000000000000815260040160405180910390fd5b5f60045f8581526020019081526020015f209050611156816001015f9054906101000a900473ffffffffffffffffffffffffffffffffffffffff163385611541565b82816002015f828254611169919061214e565b9250508190555050505050565b606060055f8373ffffffffffffffffffffffffffffffffffffffff1673ffffffffffffffffffffffffffffffffffffffff1681526020019081526020015f208054806020026020016040519081016040528092919081815260200182805480156111fd57602002820191905f5260205f20905b8154815260200190600101908083116111e9575b50505050509050919050565b611211611436565b8060015f6101000a81548173ffffffffffffffffffffffffffffffffffffffff021916908373ffffffffffffffffffffffffffffffffffffffff1602179055508073ffffffffffffffffffffffffffffffffffffffff16611270610b5f565b73ffffffffffffffffffffffffffffffffffffffff167f38d16b8cac22d99fc7c124b9cd0de2d3fa1faef420bfe791d8c362d765e2270060405160405180910390a350565b6112bf83836110da565b6112c98382610bf5565b505050565b5f60045f8481526020019081526020015f20905081816002015f8282546112f591906121ef565b92505081905550611305836114f4565b611333816001015f9054906101000a900473ffffffffffffffffffffffffffffffffffffffff16858461157c565b50505050565b5f5f60045f8481526020019081526020015f206003015490505f61135c846104f9565b905061137181836115b590919063ffffffff16565b92505050919050565b5f60045f8481526020019081526020015f20905081816003015f8282546113a191906121ef565b925050819055507f000000000000000000000000000000000000000000000000000000000000000073ffffffffffffffffffffffffffffffffffffffff16639dc29fac85846040518363ffffffff1660e01b8152600401611403929190612181565b5f604051808303815f87803b15801561141a575f5ffd5b505af115801561142c573d5f5f3e3d5ffd5b5050505050505050565b61143e6114bd565b73ffffffffffffffffffffffffffffffffffffffff1661145c610b5f565b73ffffffffffffffffffffffffffffffffffffffff16146114bb5761147f6114bd565b6040517f118cdaa70000000000000000000000000000000000000000000000000000000081526004016114b29190611c75565b60405180910390fd5b565b5f33905090565b60015f6101000a81549073ffffffffffffffffffffffffffffffffffffffff02191690556114f1816115e7565b50565b670c7d713b49da000061150682611339565b111561153e576040517febea1b9800000000000000000000000000000000000000000000000000000000815260040160405180910390fd5b50565b5f810315611577576115768230838673ffffffffffffffffffffffffffffffffffffffff166116a8909392919063ffffffff16565b5b505050565b5f8103156115b0576115af82828573ffffffffffffffffffffffffffffffffffffffff1661172a9092919063ffffffff16565b5b505050565b5f5f670de0b6b3a7640000846115cb9190611faa565b90508281816115dd576115dc611feb565b5b0491505092915050565b5f5f5f9054906101000a900473ffffffffffffffffffffffffffffffffffffffff169050815f5f6101000a81548173ffffffffffffffffffffffffffffffffffffffff021916908373ffffffffffffffffffffffffffffffffffffffff1602179055508173ffffffffffffffffffffffffffffffffffffffff168173ffffffffffffffffffffffffffffffffffffffff167f8be0079c531659141344cd1fd0a4f28419497f9722a3daafe3b4186f6b6457e060405160405180910390a35050565b611724848573ffffffffffffffffffffffffffffffffffffffff166323b872dd8686866040516024016116dd93929190612222565b604051602081830303815290604052915060e01b6020820180517bffffffffffffffffffffffffffffffffffffffffffffffffffffffff83818316178352505050506117a9565b50505050565b6117a4838473ffffffffffffffffffffffffffffffffffffffff1663a9059cbb858560405160240161175d929190612181565b604051602081830303815290604052915060e01b6020820180517bffffffffffffffffffffffffffffffffffffffffffffffffffffffff83818316178352505050506117a9565b505050565b5f5f60205f8451602086015f885af1806117c8576040513d5f823e3d81fd5b3d92505f519150505f82146117e15760018114156117fc565b5f8473ffffffffffffffffffffffffffffffffffffffff163b145b1561183e57836040517f5274afe70000000000000000000000000000000000000000000000000000000081526004016118359190611c75565b60405180910390fd5b50505050565b60405180608001604052805f73ffffffffffffffffffffffffffffffffffffffff1681526020015f73ffffffffffffffffffffffffffffffffffffffff1681526020015f81526020015f81525090565b5f604051905090565b5f5ffd5b5f5ffd5b5f819050919050565b6118b7816118a5565b81146118c1575f5ffd5b50565b5f813590506118d2816118ae565b92915050565b5f5f604083850312156118ee576118ed61189d565b5b5f6118fb858286016118c4565b925050602061190c858286016118c4565b9150509250929050565b5f6020828403121561192b5761192a61189d565b5b5f611938848285016118c4565b91505092915050565b61194a816118a5565b82525050565b5f6020820190506119635f830184611941565b92915050565b5f73ffffffffffffffffffffffffffffffffffffffff82169050919050565b5f819050919050565b5f6119ab6119a66119a184611969565b611988565b611969565b9050919050565b5f6119bc82611991565b9050919050565b5f6119cd826119b2565b9050919050565b6119dd816119c3565b82525050565b5f6020820190506119f65f8301846119d4565b92915050565b5f611a0682611969565b9050919050565b611a16816119fc565b8114611a20575f5ffd5b50565b5f81359050611a3181611a0d565b92915050565b5f5f60408385031215611a4d57611a4c61189d565b5b5f611a5a85828601611a23565b9250506020611a6b858286016118c4565b9150509250929050565b5f5ffd5b5f601f19601f8301169050919050565b7f4e487b71000000000000000000000000000000000000000000000000000000005f52604160045260245ffd5b611abf82611a79565b810181811067ffffffffffffffff82111715611ade57611add611a89565b5b80604052505050565b5f611af0611894565b9050611afc8282611ab6565b919050565b5f67ffffffffffffffff821115611b1b57611b1a611a89565b5b602082029050602081019050919050565b5f5ffd5b5f611b42611b3d84611b01565b611ae7565b90508083825260208201905060208402830185811115611b6557611b64611b2c565b5b835b81811015611b8e5780611b7a8882611a23565b845260208401935050602081019050611b67565b5050509392505050565b5f82601f830112611bac57611bab611a75565b5b8135611bbc848260208601611b30565b91505092915050565b5f5f60408385031215611bdb57611bda61189d565b5b5f83013567ffffffffffffffff811115611bf857611bf76118a1565b5b611c0485828601611b98565b925050602083013567ffffffffffffffff811115611c2557611c246118a1565b5b611c3185828601611b98565b9150509250929050565b5f60208284031215611c5057611c4f61189d565b5b5f611c5d84828501611a23565b91505092915050565b611c6f816119fc565b82525050565b5f602082019050611c885f830184611c66565b92915050565b5f5f5f60608486031215611ca557611ca461189d565b5b5f611cb2868287016118c4565b9350506020611cc3868287016118c4565b9250506040611cd4868287016118c4565b9150509250925092565b5f5f5f60608486031215611cf557611cf461189d565b5b5f611d0286828701611a23565b9350506020611d13868287016118c4565b9250506040611d24868287016118c4565b9150509250925092565b611d37816119fc565b82525050565b611d46816118a5565b82525050565b608082015f820151611d605f850182611d2e565b506020820151611d736020850182611d2e565b506040820151611d866040850182611d3d565b506060820151611d996060850182611d3d565b50505050565b5f608082019050611db25f830184611d4c565b92915050565b5f81519050919050565b5f82825260208201905092915050565b5f819050602082019050919050565b5f611dec8383611d3d565b60208301905092915050565b5f602082019050919050565b5f611e0e82611db8565b611e188185611dc2565b9350611e2383611dd2565b805f5b83811015611e53578151611e3a8882611de1565b9750611e4583611df8565b925050600181019050611e26565b5085935050505092915050565b5f6020820190508181035f830152611e788184611e04565b905092915050565b5f69ffffffffffffffffffff82169050919050565b611e9e81611e80565b8114611ea8575f5ffd5b50565b5f81519050611eb981611e95565b92915050565b5f819050919050565b611ed181611ebf565b8114611edb575f5ffd5b50565b5f81519050611eec81611ec8565b92915050565b5f81519050611f00816118ae565b92915050565b5f5f5f5f5f60a08688031215611f1f57611f1e61189d565b5b5f611f2c88828901611eab565b9550506020611f3d88828901611ede565b9450506040611f4e88828901611ef2565b9350506060611f5f88828901611ef2565b9250506080611f7088828901611eab565b9150509295509295909350565b7f4e487b71000000000000000000000000000000000000000000000000000000005f52601160045260245ffd5b5f611fb4826118a5565b9150611fbf836118a5565b9250828202611fcd816118a5565b91508282048414831517611fe457611fe3611f7d565b5b5092915050565b7f4e487b71000000000000000000000000000000000000000000000000000000005f52601260045260245ffd5b5f612022826118a5565b915061202d836118a5565b92508261203d5761203c611feb565b5b828204905092915050565b5f82825260208201905092915050565b7f4c656e677468204d69736d6174636800000000000000000000000000000000005f82015250565b5f61208c600f83612048565b915061209782612058565b602082019050919050565b5f6020820190508181035f8301526120b981612080565b9050919050565b7f4e487b71000000000000000000000000000000000000000000000000000000005f52603260045260245ffd5b5f60ff82169050919050565b612102816120ed565b811461210c575f5ffd5b50565b5f8151905061211d816120f9565b92915050565b5f602082840312156121385761213761189d565b5b5f6121458482850161210f565b91505092915050565b5f612158826118a5565b9150612163836118a5565b925082820190508082111561217b5761217a611f7d565b5b92915050565b5f6040820190506121945f830185611c66565b6121a16020830184611941565b9392505050565b5f6121b2826118a5565b91507fffffffffffffffffffffffffffffffffffffffffffffffffffffffffffffffff82036121e4576121e3611f7d565b5b600182019050919050565b5f6121f9826118a5565b9150612204836118a5565b925082820390508181111561221c5761221b611f7d565b5b92915050565b5f6060820190506122355f830186611c66565b6122426020830185611c66565b61224f6040830184611941565b94935050505056fea26469706673582212204a6fda042d3ab3d1a2f5ade42fe4cd03d7d7135cc77244db6fe3ecfe4a7e57d964736f6c634300081e0033","linkReferences":{}},"methodIdentifiers":{"LIQ_LTV()":"9d6a7a43","MAX_LOAN()":"61755432","MAX_LTV()":"81bf8d3d","SPIUSD()":"1fb6ca3d","acceptOwnership()":"79ba5097","addSupportedCollateralToken(address[],address[])":"78b9a157","burnSPIUSD(uint256,uint256)":"a2af469a","depositCollateral(uint256,uint256)":"ece13732","depositCollateralAndMintSPIUSD(uint256,uint256,uint256)":"f998e6d1","getPosition(uint256)":"eb02c301","getPositionCollateralValue(uint256)":"1d45558e","getPositionLTV(uint256)":"8044626d","getTokenUsdValue(address,uint256)":"73b267d7","getUserPositionIds(address)":"eddf7570","liquidate(uint256)":"415f1240","mintSPIUSD(uint256,uint256)":"a3b7eb57","openPosition(address,uint256,uint256)":"c5654acc","owner()":"8da5cb5b","pendingOwner()":"e30c3978","redeemCollateral(uint256,uint256)":"04d45c4f","redeemCollateralAndBurnSPIUSD(uint256,uint256,uint256)":"976ede4a","renounceOwnership()":"715018a6","transferOwnership(address)":"f2fde38b","updateTreasury(address)":"7f51bb1f"},"id":56}