{"abi":[{"type":"constructor","inputs":[{"name":"_stblUSD","type":"address","internalType":"address"},{"name":"treasury","type":"address","internalType":"address"}],"stateMutability":"nonpayable"},{"type":"function","name":"FLASHLOAN_SUCCESS_CALLBACK","inputs":[],"outputs":[{"name":"","type":"bytes32","internalType":"bytes32"}],"stateMutability":"view"},{"type":"function","name":"LIQ_LTV","inputs":[],"outputs":[{"name":"","type":"uint256","internalType":"uint256"}],"stateMutability":"view"},{"type":"function","name":"MAX_LOAN","inputs":[],"outputs":[{"name":"","type":"uint256","internalType":"uint256"}],"stateMutability":"view"},{"type":"function","name":"MAX_LTV","inputs":[],"outputs":[{"name":"","type":"uint256","internalType":"uint256"}],"stateMutability":"view"},{"type":"function","name":"acceptOwnership","inputs":[],"outputs":[],"stateMutability":"nonpayable"},{"type":"function","name":"addSupportedCollateralTokens","inputs":[{"name":"collateralTokens","type":"address[]","internalType":"address[]"},{"name":"priceFeedAddress","type":"address[]","internalType":"address[]"}],"outputs":[],"stateMutability":"nonpayable"},{"type":"function","name":"burnStblUSD","inputs":[{"name":"positionId","type":"uint256","internalType":"uint256"},{"name":"amountToBurn","type":"uint256","internalType":"uint256"}],"outputs":[],"stateMutability":"nonpayable"},{"type":"function","name":"depositCollateral","inputs":[{"name":"positionId","type":"uint256","internalType":"uint256"},{"name":"amountCollateral","type":"uint256","internalType":"uint256"}],"outputs":[],"stateMutability":"nonpayable"},{"type":"function","name":"depositCollateralAndMintStblUSD","inputs":[{"name":"positionId","type":"uint256","internalType":"uint256"},{"name":"amountCollateral","type":"uint256","internalType":"uint256"},{"name":"amountToMint","type":"uint256","internalType":"uint256"}],"outputs":[],"stateMutability":"nonpayable"},{"type":"function","name":"flashFee","inputs":[{"name":"token","type":"address","internalType":"address"},{"name":"amount","type":"uint256","internalType":"uint256"}],"outputs":[{"name":"","type":"uint256","internalType":"uint256"}],"stateMutability":"view"},{"type":"function","name":"flashLoan","inputs":[{"name":"receiver","type":"address","internalType":"contract IERC3156FlashBorrower"},{"name":"loanToken","type":"address","internalType":"address"},{"name":"amountLoan","type":"uint256","internalType":"uint256"},{"name":"data","type":"bytes","internalType":"bytes"}],"outputs":[{"name":"success","type":"bool","internalType":"bool"}],"stateMutability":"nonpayable"},{"type":"function","name":"getPosition","inputs":[{"name":"positionId","type":"uint256","internalType":"uint256"}],"outputs":[{"name":"","type":"tuple","internalType":"struct Position","components":[{"name":"owner","type":"address","internalType":"address"},{"name":"collateralToken","type":"address","internalType":"address"},{"name":"collateralDeposited","type":"uint256","internalType":"uint256"},{"name":"stblUSDMinted","type":"uint256","internalType":"uint256"}]}],"stateMutability":"view"},{"type":"function","name":"getPositionCollateralValue","inputs":[{"name":"positionId","type":"uint256","internalType":"uint256"}],"outputs":[{"name":"totalCollateralValueInUsd","type":"uint256","internalType":"uint256"}],"stateMutability":"view"},{"type":"function","name":"getPositionLTV","inputs":[{"name":"positionId","type":"uint256","internalType":"uint256"}],"outputs":[{"name":"","type":"uint256","internalType":"uint256"}],"stateMutability":"view"},{"type":"function","name":"getStblUSD","inputs":[],"outputs":[{"name":"","type":"address","internalType":"address"}],"stateMutability":"view"},{"type":"function","name":"getTokenUsdValue","inputs":[{"name":"token","type":"address","internalType":"address"},{"name":"amount","type":"uint256","internalType":"uint256"}],"outputs":[{"name":"","type":"uint256","internalType":"uint256"}],"stateMutability":"view"},{"type":"function","name":"getUserPositionIds","inputs":[{"name":"user","type":"address","internalType":"address"}],"outputs":[{"name":"","type":"uint256[]","internalType":"uint256[]"}],"stateMutability":"view"},{"type":"function","name":"liquidate","inputs":[{"name":"positionId","type":"uint256","internalType":"uint256"}],"outputs":[],"stateMutability":"nonpayable"},{"type":"function","name":"maxFlashLoan","inputs":[{"name":"token","type":"address","internalType":"address"}],"outputs":[{"name":"","type":"uint256","internalType":"uint256"}],"stateMutability":"view"},{"type":"function","name":"mintStblUSD","inputs":[{"name":"positionId","type":"uint256","internalType":"uint256"},{"name":"amountToMint","type":"uint256","internalType":"uint256"}],"outputs":[],"stateMutability":"nonpayable"},{"type":"function","name":"openPosition","inputs":[{"name":"collateralToken","type":"address","internalType":"address"},{"name":"amountCollateral","type":"uint256","internalType":"uint256"},{"name":"amountToMint","type":"uint256","internalType":"uint256"}],"outputs":[{"name":"positionId","type":"uint256","internalType":"uint256"}],"stateMutability":"nonpayable"},{"type":"function","name":"owner","inputs":[],"outputs":[{"name":"","type":"address","internalType":"address"}],"stateMutability":"view"},{"type":"function","name":"pendingOwner","inputs":[],"outputs":[{"name":"","type":"address","internalType":"address"}],"stateMutability":"view"},{"type":"function","name":"redeemCollateral","inputs":[{"name":"positionId","type":"uint256","internalType":"uint256"},{"name":"amountCollateral","type":"uint256","internalType":"uint256"}],"outputs":[],"stateMutability":"nonpayable"},{"type":"function","name":"redeemCollateralAndBurnStblUSD","inputs":[{"name":"positionId","type":"uint256","internalType":"uint256"},{"name":"amountCollateral","type":"uint256","internalType":"uint256"},{"name":"amountToBurn","type":"uint256","internalType":"uint256"}],"outputs":[],"stateMutability":"nonpayable"},{"type":"function","name":"renounceOwnership","inputs":[],"outputs":[],"stateMutability":"nonpayable"},{"type":"function","name":"transferOwnership","inputs":[{"name":"newOwner","type":"address","internalType":"address"}],"outputs":[],"stateMutability":"nonpayable"},{"type":"function","name":"updatePositionOwner","inputs":[{"name":"positionId","type":"uint256","internalType":"uint256"},{"name":"newOwner","type":"address","internalType":"address"}],"outputs":[],"stateMutability":"nonpayable"},{"type":"function","name":"updateTreasury","inputs":[{"name":"newTreasuryAddress","type":"address","internalType":"address"}],"outputs":[],"stateMutability":"nonpayable"},{"type":"event","name":"OwnershipTransferStarted","inputs":[{"name":"previousOwner","type":"address","indexed":true,"internalType":"address"},{"name":"newOwner","type":"address","indexed":true,"internalType":"address"}],"anonymous":false},{"type":"event","name":"OwnershipTransferred","inputs":[{"name":"previousOwner","type":"address","indexed":true,"internalType":"address"},{"name":"newOwner","type":"address","indexed":true,"internalType":"address"}],"anonymous":false},{"type":"error","name":"OwnableInvalidOwner","inputs":[{"name":"owner","type":"address","internalType":"address"}]},{"type":"error","name":"OwnableUnauthorizedAccount","inputs":[{"name":"account","type":"address","internalType":"address"}]},{"type":"error","name":"PositionManager__CannotBeZeroAddress","inputs":[]},{"type":"error","name":"PositionManager__FlashMintCallbackFailed","inputs":[]},{"type":"error","name":"PositionManager__FlashMintNotRepaid","inputs":[]},{"type":"error","name":"PositionManager__InvalidFlashLoanToken","inputs":[]},{"type":"error","name":"PositionManager__InvalidPriceFeedAddress","inputs":[]},{"type":"error","name":"PositionManager__InvalidReceiverAddress","inputs":[]},{"type":"error","name":"PositionManager__InvalidTokenAddress","inputs":[]},{"type":"error","name":"PositionManager__IsUnderLiqLTV","inputs":[]},{"type":"error","name":"PositionManager__MintExceedsMaxLTV","inputs":[]},{"type":"error","name":"PositionManager__NotThePositionOwner","inputs":[]},{"type":"error","name":"PositionManager__UnsupportedCollateralToken","inputs":[]},{"type":"error","name":"PositionManager__ValueCannotBeZero","inputs":[]},{"type":"error","name":"SafeERC20FailedOperation","inputs":[{"name":"token","type":"address","internalType":"address"}]}],"bytecode":{"object":"0x60a0604052346100715761001a610014610145565b906101f9565b610022610076565b612d8e6103fa82396080518181816115fd0152818161187e015281816118ea01528181611959015281816119ed01528181611a7801528181611b0e01528181612234015261281a0152612d8e90f35b61007c565b60405190565b5f80fd5b601f801991011690565b634e487b7160e01b5f52604160045260245ffd5b906100a890610080565b810190811060018060401b038211176100c057604052565b61008a565b906100d86100d1610076565b928361009e565b565b5f80fd5b60018060a01b031690565b6100f2906100de565b90565b6100fe816100e9565b0361010557565b5f80fd5b90505190610116826100f5565b565b9190604083820312610140578061013461013d925f8601610109565b93602001610109565b90565b6100da565b61016361318880380380610158816100c5565b928339810190610118565b9091565b90565b61017e610179610183926100de565b610167565b6100de565b90565b61018f9061016a565b90565b61019b90610186565b90565b5f1b90565b906101b460018060a01b039161019e565b9181191691161790565b6101c79061016a565b90565b6101d3906101be565b90565b90565b906101ee6101e96101f5926101ca565b6101d6565b82546101a3565b9055565b9061020f6102199261020a3361021b565b610192565b60805260066101d9565b565b61022490610226565b565b61022f90610231565b565b61023a9061023c565b565b61024590610294565b565b90565b61025e61025961026392610247565b610167565b6100de565b90565b61026f9061024a565b90565b61027b906100e9565b9052565b9190610292905f60208501940190610272565b565b806102af6102a96102a45f610266565b6100e9565b916100e9565b146102bf576102bd9061034e565b565b6102e26102cb5f610266565b5f918291631e4fbdf760e01b83526004830161027f565b0390fd5b1b90565b9190600861030a91029161030460018060a01b03846102e6565b926102e6565b9181191691161790565b919061032a610325610332936101ca565b6101d6565b9083546102ea565b9055565b5f90565b61034c91610346610336565b91610314565b565b6103629061035d5f600161033a565b61039a565b565b5f1c90565b60018060a01b031690565b61038061038591610364565b610369565b90565b6103929054610374565b90565b5f0190565b6103a35f610388565b6103ad825f6101d9565b906103e16103db7f8be0079c531659141344cd1fd0a4f28419497f9722a3daafe3b4186f6b6457e0936101ca565b916101ca565b916103ea610076565b806103f481610395565b0390a356fe60806040526004361015610013575b610e47565b61001d5f356101ec565b806304d45c4f146101e75780631d45558e146101e25780632dccd02f146101dd578063415f1240146101d85780634b7f11a7146101d357806355b74db0146101ce5780635cffe9de146101c9578063613255ab146101c457806361755432146101bf578063715018a6146101ba57806373b267d7146101b5578063751f8906146101b057806379ba5097146101ab5780637f51bb1f146101a65780638044626d146101a157806381bf8d3d1461019c5780638da5cb5b146101975780639d6a7a4314610192578063ac8231a01461018d578063b768d61e14610188578063c5654acc14610183578063d9d98ce41461017e578063e16437bc14610179578063e27490aa14610174578063e30c39781461016f578063eb02c3011461016a578063ece1373214610165578063eddf7570146101605763f2fde38b0361000e57610e14565b610ddf565b610d19565b610ce4565b610c38565b610c03565b610b7b565b610b45565b610b0f565b610aa1565b610a33565b6109fe565b61098b565b610956565b6108e3565b6108b0565b61087d565b610849565b6107e6565b61078e565b610759565b6106e8565b610691565b610563565b6104fe565b610339565b610305565b6102d0565b61025c565b60e01c90565b60405190565b5f80fd5b5f80fd5b5f80fd5b90565b61021081610204565b0361021757565b5f80fd5b9050359061022882610207565b565b9190604083820312610252578061024661024f925f860161021b565b9360200161021b565b90565b6101fc565b5f0190565b3461028b5761027561026f36600461022a565b90610f7b565b61027d6101f2565b8061028781610257565b0390f35b6101f8565b906020828203126102a9576102a6915f0161021b565b90565b6101fc565b6102b790610204565b9052565b91906102ce905f602085019401906102ae565b565b34610300576102fc6102eb6102e6366004610290565b611067565b6102f36101f2565b918291826102bb565b0390f35b6101f8565b346103345761031e61031836600461022a565b906110de565b6103266101f2565b8061033081610257565b0390f35b6101f8565b346103675761035161034c366004610290565b611110565b6103596101f2565b8061036381610257565b0390f35b6101f8565b5f80fd5b601f801991011690565b634e487b7160e01b5f52604160045260245ffd5b9061039890610370565b810190811067ffffffffffffffff8211176103b257604052565b61037a565b906103ca6103c36101f2565b928361038e565b565b67ffffffffffffffff81116103e45760208091020190565b61037a565b5f80fd5b60018060a01b031690565b610401906103ed565b90565b61040d816103f8565b0361041457565b5f80fd5b9050359061042582610404565b565b9092919261043c610437826103cc565b6103b7565b938185526020808601920283019281841161047957915b8383106104605750505050565b6020809161046e8486610418565b815201920191610453565b6103e9565b9080601f8301121561049c5781602061049993359101610427565b90565b61036c565b9190916040818403126104f9575f81013567ffffffffffffffff81116104f457836104cd91830161047e565b92602082013567ffffffffffffffff81116104ef576104ec920161047e565b90565b610200565b610200565b6101fc565b3461052d576105176105113660046104a1565b906115d3565b61051f6101f2565b8061052981610257565b0390f35b6101f8565b5f91031261053c57565b6101fc565b61054a906103f8565b9052565b9190610561905f60208501940190610541565b565b3461059357610573366004610532565b61058f61057e6115ef565b6105866101f2565b9182918261054e565b0390f35b6101f8565b6105a1906103f8565b90565b6105ad81610598565b036105b457565b5f80fd5b905035906105c5826105a4565b565b5f80fd5b909182601f830112156106055781359167ffffffffffffffff83116106005760200192600183028401116105fb57565b6103e9565b6105c7565b61036c565b9060808282031261066557610621815f84016105b8565b9261062f8260208501610418565b9261063d836040830161021b565b92606082013567ffffffffffffffff81116106605761065c92016105cb565b9091565b610200565b6101fc565b151590565b6106789061066a565b9052565b919061068f905f6020850194019061066f565b565b346106c5576106c16106b06106a736600461060a565b93929092611c8d565b6106b86101f2565b9182918261067c565b0390f35b6101f8565b906020828203126106e3576106e0915f01610418565b90565b6101fc565b34610718576107146107036106fe3660046106ca565b611ca5565b61070b6101f2565b918291826102bb565b0390f35b6101f8565b90565b90565b61073761073261073c9261071d565b610720565b610204565b90565b61074b6276a700610723565b90565b61075661073f565b90565b3461078957610769366004610532565b61078561077461074e565b61077c6101f2565b918291826102bb565b0390f35b6101f8565b346107b45761079e366004610532565b6107a66101f2565b806107b081610257565b0390f35b6101f8565b91906040838203126107e157806107d56107de925f8601610418565b9360200161021b565b90565b6101fc565b34610817576108136108026107fc3660046107b9565b90611e4c565b61080a6101f2565b918291826102bb565b0390f35b6101f8565b91906040838203126108445780610838610841925f860161021b565b93602001610418565b90565b6101fc565b346108785761086261085c36600461081c565b90612040565b61086a6101f2565b8061087481610257565b0390f35b6101f8565b346108ab5761088d366004610532565b6108956120c8565b61089d6101f2565b806108a781610257565b0390f35b6101f8565b346108de576108c86108c33660046106ca565b612139565b6108d06101f2565b806108da81610257565b0390f35b6101f8565b346109135761090f6108fe6108f9366004610290565b612144565b6109066101f2565b918291826102bb565b0390f35b6101f8565b90565b61092f61092a61093492610918565b610720565b610204565b90565b610948670c7d713b49da000061091b565b90565b610953610937565b90565b3461098657610966366004610532565b61098261097161094b565b6109796101f2565b918291826102bb565b0390f35b6101f8565b346109bb5761099b366004610532565b6109b76109a6612159565b6109ae6101f2565b9182918261054e565b0390f35b6101f8565b90565b6109d76109d26109dc926109c0565b610720565b610204565b90565b6109f0670cb2bba6f17b80006109c3565b90565b6109fb6109df565b90565b34610a2e57610a0e366004610532565b610a2a610a196109f3565b610a216101f2565b918291826102bb565b0390f35b6101f8565b34610a6257610a4c610a4636600461022a565b906122e2565b610a546101f2565b80610a5e81610257565b0390f35b6101f8565b9091606082840312610a9c57610a99610a82845f850161021b565b93610a90816020860161021b565b9360400161021b565b90565b6101fc565b34610ad057610aba610ab4366004610a67565b916122ee565b610ac26101f2565b80610acc81610257565b0390f35b6101f8565b9091606082840312610b0a57610b07610af0845f8501610418565b93610afe816020860161021b565b9360400161021b565b90565b6101fc565b34610b4057610b3c610b2b610b25366004610ad5565b916124c0565b610b336101f2565b918291826102bb565b0390f35b6101f8565b34610b7657610b72610b61610b5b3660046107b9565b906124d6565b610b696101f2565b918291826102bb565b0390f35b6101f8565b34610baa57610b94610b8e366004610a67565b916124ed565b610b9c6101f2565b80610ba681610257565b0390f35b6101f8565b7f439148f0bbc682ca079e46d6e2c2f0c1e3b820f1a291b069d8882abf8cf18dd990565b610bdb610baf565b90565b90565b610bea90610bde565b9052565b9190610c01905f60208501940190610be1565b565b34610c3357610c13366004610532565b610c2f610c1e610bd3565b610c266101f2565b91829182610bee565b0390f35b6101f8565b34610c6857610c48366004610532565b610c64610c53612501565b610c5b6101f2565b9182918261054e565b0390f35b6101f8565b610c76906103f8565b9052565b610c8390610204565b9052565b90606080610ccd93610c9f5f8201515f860190610c6d565b610cb160208201516020860190610c6d565b610cc360408201516040860190610c7a565b0151910190610c7a565b565b9190610ce2905f60808501940190610c87565b565b34610d1457610d10610cff610cfa366004610290565b612568565b610d076101f2565b91829182610ccf565b0390f35b6101f8565b34610d4857610d32610d2c36600461022a565b906125fc565b610d3a6101f2565b80610d4481610257565b0390f35b6101f8565b5190565b60209181520190565b60200190565b90610d6d81602093610c7a565b0190565b60200190565b90610d94610d8e610d8784610d4d565b8093610d51565b92610d5a565b905f5b818110610da45750505090565b909192610dbd610db76001928651610d60565b94610d71565b9101919091610d97565b610ddc9160208201915f818403910152610d77565b90565b34610e0f57610e0b610dfa610df53660046106ca565b6126c8565b610e026101f2565b91829182610dc7565b0390f35b6101f8565b34610e4257610e2c610e273660046106ca565b612759565b610e346101f2565b80610e3e81610257565b0390f35b6101f8565b5f80fd5b90565b610e62610e5d610e6792610e4b565b610720565b610204565b90565b15610e7157565b5f6318950a8360e31b815280610e8960048201610257565b0390fd5b90610eb391610eae82610ea8610ea25f610e4e565b91610204565b11610e6a565b610f3b565b565b610ec9610ec4610ece92610204565b610720565b610204565b90565b90610edb90610eb5565b5f5260205260405f2090565b5f1c90565b60018060a01b031690565b610f03610f0891610ee7565b610eec565b90565b610f159054610ef7565b90565b15610f1f57565b5f63befca2fb60e01b815280610f3760048201610257565b0390fd5b610f7991610f7033610f6a610f64610f5f5f610f5960048990610ed1565b01610f0b565b6103f8565b916103f8565b14610f18565b33919091612789565b565b90610f8591610e8d565b565b5f90565b90610f95906103f8565b9052565b90565b610fa8610fad91610ee7565b610f99565b90565b610fba9054610f9c565b90565b90610fc790610204565b9052565b610fd560806103b7565b90565b9061103f6110366003610fe9610fcb565b94611000610ff85f8301610f0b565b5f8801610f8b565b61101861100f60018301610f0b565b60208801610f8b565b61103061102760028301610fb0565b60408801610fbd565b01610fb0565b60608401610fbd565b565b61104a90610fd8565b90565b61105790516103f8565b90565b6110649051610204565b90565b6110866110816110a492611079610f87565b506004610ed1565b611041565b61109e60406110976020840161104d565b920161105a565b90611e4c565b90565b906110cd916110c8826110c26110bc5f610e4e565b91610204565b11610e6a565b6110cf565b565b6110dc91339190916127e1565b565b906110e8916110a7565b565b156110f157565b5f63138f8f0360e31b81528061110960048201610257565b0390fd5b90565b6111839033611141611121836128be565b61113a61113461112f6109df565b610204565b91610204565b10156110ea565b61115561115060048490610ed1565b61110d565b9061117b611171600261116a60038601610fb0565b9401610fb0565b8290859091612789565b9190916127e1565b565b9061119791611192612919565b611407565b565b5190565b60209181520190565b5f7f4c656e677468204d69736d617463680000000000000000000000000000000000910152565b6111da600f60209261119d565b6111e3816111a6565b0190565b6111fc9060208101905f8183039101526111cd565b90565b1561120657565b61120e6101f2565b62461bcd60e51b815280611224600482016111e7565b0390fd5b60016112349101610204565b90565b634e487b7160e01b5f52603260045260245ffd5b9061125582611199565b811015611266576020809102010190565b611237565b61127f61127a61128492610e4b565b610720565b6103ed565b90565b6112909061126b565b90565b1561129a57565b5f634622ce9760e11b8152806112b260048201610257565b0390fd5b6112ca6112c56112cf926103ed565b610720565b6103ed565b90565b6112db906112b6565b90565b6112e7906112d2565b90565b6112f3906112b6565b90565b6112ff906112ea565b90565b5f80fd5b60e01b90565b60ff1690565b61131b8161130c565b0361132257565b5f80fd5b9050519061133382611312565b565b9060208282031261134e5761134b915f01611326565b90565b6101fc565b61135b6101f2565b3d5f823e3d90fd5b61137761137261137c92610e4b565b610720565b61130c565b90565b1561138657565b5f633dd1d95d60e21b81528061139e60048201610257565b0390fd5b6113ab906112ea565b90565b906113b8906113a2565b5f5260205260405f2090565b5f1b90565b906113da60018060a01b03916113c4565b9181191691161790565b90565b906113fc6113f7611403926113a2565b6113e4565b82546113c9565b9055565b919061143561141584611199565b61142f61142961142485611199565b610204565b91610204565b146111ff565b61143e5f610e4e565b5b8061145a61145461144f87611199565b610204565b91610204565b10156115cd5761149761147661147186849061124b565b61104d565b61149061148a6114855f611287565b6103f8565b916103f8565b1415611293565b6114aa6114a583839061124b565b61104d565b6114c46114be6114b95f611287565b6103f8565b916103f8565b03611511575b61150c906115076114e46114df85849061124b565b61104d565b61150260026114fc6114f78a879061124b565b61104d565b906113ae565b6113e7565b611228565b61143f565b61155090602061153a61153561153061152b87869061124b565b61104d565b6112de565b6112f6565b63313ce567906115486101f2565b948592611306565b8252818061156060048201610257565b03915afa9182156115c85761150c92611593915f9161159a575b5061158d6115875f611363565b9161130c565b1161137f565b90506114ca565b6115bb915060203d81116115c1575b6115b3818361038e565b810190611335565b5f61157a565b503d6115a9565b611353565b50509050565b906115dd91611185565b565b5f90565b6115ec906112ea565b90565b6115f76115df565b506116217f00000000000000000000000000000000000000000000000000000000000000006115e3565b90565b5f90565b90611652959493929161164d846116476116415f610e4e565b91610204565b11610e6a565b611868565b90565b1561165c57565b5f63be35c18560e01b81528061167460048201610257565b0390fd5b611681906112ea565b90565b1561168b57565b5f63ad84a63b60e01b8152806116a360048201610257565b0390fd5b6116b0906112ea565b90565b905051906116c082610207565b565b906020828203126116db576116d8915f016116b3565b90565b6101fc565b5f9103126116ea57565b6101fc565b91602061171092949361170960408201965f830190610541565b01906102ae565b565b61171b81610bde565b0361172257565b5f80fd5b9050519061173382611712565b565b9060208282031261174e5761174b915f01611726565b90565b6101fc565b61175c90610e4e565b9052565b60209181520190565b90825f939282370152565b919061178e816117878161179395611760565b8095611769565b610370565b0190565b91936117cf6117d99296946117c56117e699976117bb60a088019a5f890190610541565b6020870190610541565b60408501906102ae565b6060830190611753565b6080818503910152611774565b90565b156117f057565b5f63945788e360e01b81528061180860048201610257565b0390fd5b634e487b7160e01b5f52601160045260245ffd5b61182f61183591939293610204565b92610204565b820180921161184057565b61180c565b1561184c57565b5f630f97331f60e11b81528061186460048201610257565b0390fd5b916118b3919295949395506118ad6118a76118a27f00000000000000000000000000000000000000000000000000000000000000006115e3565b6103f8565b916103f8565b14611655565b6118e06118bf82611678565b6118d96118d36118ce5f611287565b6103f8565b916103f8565b1415611684565b611940602061190e7f00000000000000000000000000000000000000000000000000000000000000006115e3565b6370a0823190611935611920306116a7565b926119296101f2565b95869485938493611306565b83526004830161054e565b03915afa908115611c88575f91611c5a575b509161197d7f00000000000000000000000000000000000000000000000000000000000000006115e3565b916340c10f1961198c82611678565b8794803b15611c55576119b25f80946119bd6119a66101f2565b998a9687958694611306565b8452600484016116ef565b03925af1908115611c50576020936119da92611c24575b50611678565b611a2c5f6323e30c8b611a373395611a117f00000000000000000000000000000000000000000000000000000000000000006115e3565b998b9185909192611a206101f2565b9c8d9a8b998a98611306565b885260048801611797565b03925af1918215611c1f57611ace92611a71915f91611bf1575b50611a6b611a65611a60610baf565b610bde565b91610bde565b146117e9565b6020611a9c7f00000000000000000000000000000000000000000000000000000000000000006115e3565b6370a0823190611ac3611aae306116a7565b92611ab76101f2565b96879485938493611306565b83526004830161054e565b03915afa918215611bec57611afc611af7611b0994611b02935f91611bbe575b50938690611820565b610204565b91610204565b1015611845565b611b327f00000000000000000000000000000000000000000000000000000000000000006115e3565b90639dc29fac90611b42306116a7565b9092803b15611bb957611b685f8094611b73611b5c6101f2565b97889687958694611306565b8452600484016116ef565b03925af18015611bb457611b88575b50600190565b611ba7905f3d8111611bad575b611b9f818361038e565b8101906116e0565b5f611b82565b503d611b95565b611353565b611302565b611bdf915060203d8111611be5575b611bd7818361038e565b8101906116c2565b5f611aee565b503d611bcd565b611353565b611c12915060203d8111611c18575b611c0a818361038e565b810190611735565b5f611a51565b503d611c00565b611353565b611c43905f3d8111611c49575b611c3b818361038e565b8101906116e0565b5f6119d4565b503d611c31565b611353565b611302565b611c7b915060203d8111611c81575b611c73818361038e565b8101906116c2565b5f611952565b503d611c69565b611353565b90611ca294939291611c9d611624565b611628565b90565b50611cae610f87565b505f1990565b69ffffffffffffffffffff1690565b611ccc81611cb4565b03611cd357565b5f80fd5b90505190611ce482611cc3565b565b90565b611cf281611ce6565b03611cf957565b5f80fd5b90505190611d0a82611ce9565b565b919060a083820312611d5d57611d24815f8501611cd7565b92611d328260208301611cfd565b92611d5a611d4384604085016116b3565b93611d5181606086016116b3565b93608001611cd7565b90565b6101fc565b611d76611d71611d7b92611ce6565b610720565b610204565b90565b90565b611d95611d90611d9a92611d7e565b610720565b610204565b90565b611dab6402540be400611d81565b90565b611dbd611dc391939293610204565b92610204565b91611dcf838202610204565b928184041490151715611dde57565b61180c565b90565b611dfa611df5611dff92611de3565b610720565b610204565b90565b611e13670de0b6b3a7640000611de6565b90565b634e487b7160e01b5f52601260045260245ffd5b611e36611e3c91610204565b91610204565b908115611e47570490565b611e16565b611e54610f87565b5081611e68611e625f610e4e565b91610204565b14611f3e5760a0611e95611e90611e8b611e86611eab9560026113ae565b610f0b565b6112de565b6112f6565b63feaf968c90611ea36101f2565b938492611306565b82528180611ebb60048201610257565b03915afa918215611f3957611ef2611ee4611f0594611ef7945f80929050611f08575b50611d62565b611eec611d9d565b90611dae565b611dae565b611eff611e02565b90611e2a565b90565b611f29915060a03d8111611f32575b611f21818361038e565b810190611d0c565b50505090611ede565b503d611f17565b611353565b5050611f495f610e4e565b90565b15611f5357565b5f63b7c9aa5360e01b815280611f6b60048201610257565b0390fd5b90611f79906113a2565b5f5260205260405f2090565b90565b5f5260205f2090565b5490565b611f9e81611f91565b821015611fb857611fb0600191611f88565b910201905f90565b611237565b1b90565b91906008611fdc910291611fd65f1984611fbd565b92611fbd565b9181191691161790565b90565b9190611fff611ffa61200793610eb5565b611fe6565b908354611fc1565b9055565b908154916801000000000000000083101561203b578261203391600161203995018155611f95565b90611fe9565b565b61037a565b6120c16120bc6120c69361206f8161206861206261205d5f611287565b6103f8565b916103f8565b1415611f4c565b6120b561208661208160048790610ed1565b61110d565b6120ac336120a66120a061209b5f8601610f0b565b6103f8565b916103f8565b14610f18565b5f8391016113e7565b6005611f6f565b611f85565b61200b565b565b6120d0612967565b6120d8612501565b6120ea6120e4836103f8565b916103f8565b036120fa576120f8906129d4565b565b612115905f91829163118cdaa760e01b83526004830161054e565b0390fd5b61212a90612125612919565b61212c565b565b6121379060066113e7565b565b61214290612119565b565b61215690612150610f87565b506128be565b90565b6121616115df565b5061216b5f610f0b565b90565b906121949161218f826121896121835f610e4e565b91610204565b11610e6a565b6121cc565b565b906121a25f19916113c4565b9181191691161790565b906121c16121bc6121c892610eb5565b611fe6565b8254612196565b9055565b61222f6121e36121de60048490610ed1565b61110d565b9161220a336122046121fe6121f95f8801610f0b565b6103f8565b916103f8565b14610f18565b61222a84612224600386019161221f83610fb0565b611820565b906121ac565b612a0d565b6122587f00000000000000000000000000000000000000000000000000000000000000006115e3565b916122695f6340c10f199301610f0b565b9092803b156122dd5761228f5f809461229a6122836101f2565b97889687958694611306565b8452600484016116ef565b03925af180156122d8576122ac575b50565b6122cb905f3d81116122d1575b6122c3818361038e565b8101906116e0565b5f6122a9565b503d6122b9565b611353565b611302565b906122ec9161216e565b565b6122fc6123019392826125fc565b6122e2565b565b1561230a57565b5f63c086bcd360e01b81528061232260048201610257565b0390fd5b9061236993929161236461234361233e8460026113ae565b610f0b565b61235d6123576123525f611287565b6103f8565b916103f8565b1415612303565b612406565b90565b61237660806103b7565b90565b906123d6606060036123dc9461239c5f82016123965f880161104d565b906113e7565b6123b5600182016123af6020880161104d565b906113e7565b6123ce600282016123c86040880161105a565b906121ac565b01920161105a565b906121ac565b565b906123e891612379565b565b6123f390610204565b5f1981146124015760010190565b61180c565b61249b91949361248f6124a294612496935033926124866124276003610fb0565b9961247561246c879261246761245e5f6124595f9461245061244761236c565b995f8b01610f8b565b60208901610f8b565b610e4e565b60408601610fbd565b610e4e565b60608301610fbd565b61248160048c90610ed1565b6123de565b889190916122ee565b6005611f6f565b611f85565b839061200b565b6124be6124b76124b26003610fb0565b6123ea565b60036121ac565b565b906124d392916124ce610f87565b612326565b90565b50506124e0610f87565b506124ea5f610e4e565b90565b6124fa6124ff93826110de565b610f7b565b565b6125096115df565b506125146001610f0b565b90565b5f90565b5f90565b612527610fcb565b90602080808085612536612517565b815201612541612517565b81520161254c61251b565b81520161255761251b565b81525050565b61256561251f565b90565b61257f6125849161257761255d565b506004610ed1565b611041565b90565b906125ad916125a8826125a261259c5f610e4e565b91610204565b11610e6a565b6125af565b565b906125f460026125cb6125c66125fa956004610ed1565b61110d565b926125e36125db60018601610f0b565b338391612a5f565b9201916125ef83610fb0565b611820565b906121ac565b565b9061260691612587565b565b606090565b5490565b60209181520190565b5f5260205f2090565b61262d9054610f9c565b90565b60010190565b9061265361264d6126468461260d565b8093612611565b9261261a565b905f5b8181106126635750505090565b90919261268361267d60019261267887612623565b610d60565b94612630565b9101919091612656565b9061269791612636565b90565b906126ba6126b3926126aa6101f2565b9384809261268d565b038361038e565b565b6126c59061269a565b90565b6126df6126e4916126d7612608565b506005611f6f565b6126bc565b90565b6126f8906126f3612919565b6126fa565b565b6127058160016113e7565b61270d612159565b9061274161273b7f38d16b8cac22d99fc7c124b9cd0de2d3fa1faef420bfe791d8c362d765e22700936113a2565b916113a2565b9161274a6101f2565b8061275481610257565b0390a3565b612762906126e7565b565b61277361277991939293610204565b92610204565b820391821161278457565b61180c565b90916127d760016127df946127d16127ab6127a660048490610ed1565b61110d565b916127cc866127c660028601916127c183610fb0565b612764565b906121ac565b612a0d565b01610f0b565b919091612a9c565b565b906127f86127f3612815926004610ed1565b61110d565b61280f60038592019161280a83610fb0565b612764565b906121ac565b61283e7f00000000000000000000000000000000000000000000000000000000000000006115e3565b91639dc29fac919092803b156128b95761286b5f809461287661285f6101f2565b97889687958694611306565b8452600484016116ef565b03925af180156128b457612888575b50565b6128a7905f3d81116128ad575b61289f818361038e565b8101906116e0565b5f612885565b503d612895565b611353565b611302565b6128c6610f87565b506128e76128e160036128db60048590610ed1565b01610fb0565b91611067565b816128fa6128f45f610e4e565b91610204565b1461290b5761290891612af2565b90565b50506129165f610e4e565b90565b612921612159565b61293a61293461292f612967565b6103f8565b916103f8565b0361294157565b61296361294c612967565b5f91829163118cdaa760e01b83526004830161054e565b0390fd5b61296f6115df565b503390565b9190600861299491029161298e60018060a01b0384611fbd565b92611fbd565b9181191691161790565b91906129b46129af6129bc936113a2565b6113e4565b908354612974565b9055565b6129d2916129cc6115df565b9161299e565b565b6129e8906129e35f60016129c0565b612b19565b565b156129f157565b5f631d7d437360e31b815280612a0960048201610257565b0390fd5b612a19612a39916128be565b612a32612a2c612a27610937565b610204565b91610204565b11156129ea565b565b612a44906112b6565b90565b612a5090612a3b565b90565b612a5c906112ea565b90565b9180612a73612a6d5f610e4e565b91610204565b14612a9757612a84612a9593612a47565b91612a8e30612a53565b9192612be7565b565b505050565b9180612ab0612aaa5f610e4e565b91610204565b14612acb57612ac1612ac993612a47565b919091612c37565b565b505050565b612adc612ae291610204565b91610204565b908115612aed570490565b611e16565b90612b11612b1692612b02610f87565b50612b0b611e02565b90611dae565b612ad0565b90565b612b225f610f0b565b612b2c825f6113e7565b90612b60612b5a7f8be0079c531659141344cd1fd0a4f28419497f9722a3daafe3b4186f6b6457e0936113a2565b916113a2565b91612b696101f2565b80612b7381610257565b0390a3565b612b81906112ea565b90565b63ffffffff1690565b63ffffffff60e01b1690565b612bad612ba8612bb292612b84565b611306565b612b8d565b90565b604090612bde612be59496959396612bd460608401985f850190610541565b6020830190610541565b01906102ae565b565b600492612c21612c359593612c309394612c086323b872dd92949192612b99565b93612c116101f2565b9788956020870190815201612bb5565b6020820181038252038361038e565b612ca4565b565b90612c7e612c8393612c6f60049493612c5663a9059cbb919391612b99565b92612c5f6101f2565b96879460208601908152016116ef565b6020820181038252038361038e565b612ca4565b565b90565b612c9c612c97612ca192612c85565b610720565b610204565b90565b905f602091612cb1610f87565b50612cba610f87565b50828151910182855af115612d4d573d5f5190612cdf612cd95f610e4e565b91610204565b145f14612d335750612cf081612b78565b3b612d03612cfd5f610e4e565b91610204565b145b612d0c5750565b612d18612d2f91612b78565b5f918291635274afe760e01b83526004830161054e565b0390fd5b612d46612d406001612c88565b91610204565b1415612d05565b6040513d5f823e3d90fdfea2646970667358221220d908efa09883cc41116ffb12413a4b57984c1c3c7d059c7c91fe59b373033e2564736f6c634300081e0033","linkReferences":{}},"methodIdentifiers":{"FLASHLOAN_SUCCESS_CALLBACK()":"e27490aa","LIQ_LTV()":"9d6a7a43","MAX_LOAN()":"61755432","MAX_LTV()":"81bf8d3d","acceptOwnership()":"79ba5097","addSupportedCollateralTokens(address[],address[])":"4b7f11a7","burnStblUSD(uint256,uint256)":"2dccd02f","depositCollateral(uint256,uint256)":"ece13732","depositCollateralAndMintStblUSD(uint256,uint256,uint256)":"b768d61e","flashFee(address,uint256)":"d9d98ce4","flashLoan(address,address,uint256,bytes)":"5cffe9de","getPosition(uint256)":"eb02c301","getPositionCollateralValue(uint256)":"1d45558e","getPositionLTV(uint256)":"8044626d","getStblUSD()":"55b74db0","getTokenUsdValue(address,uint256)":"73b267d7","getUserPositionIds(address)":"eddf7570","liquidate(uint256)":"415f1240","maxFlashLoan(address)":"613255ab","mintStblUSD(uint256,uint256)":"ac8231a0","openPosition(address,uint256,uint256)":"c5654acc","owner()":"8da5cb5b","pendingOwner()":"e30c3978","redeemCollateral(uint256,uint256)":"04d45c4f","redeemCollateralAndBurnStblUSD(uint256,uint256,uint256)":"e16437bc","renounceOwnership()":"715018a6","transferOwnership(address)":"f2fde38b","updatePositionOwner(uint256,address)":"751f8906","updateTreasury(address)":"7f51bb1f"},"id":97}