{"abi":[{"type":"constructor","inputs":[{"name":"_SPIUSD","type":"address","internalType":"address"},{"name":"treasury","type":"address","internalType":"address"}],"stateMutability":"nonpayable"},{"type":"function","name":"acceptOwnership","inputs":[],"outputs":[],"stateMutability":"nonpayable"},{"type":"function","name":"burnSPIUSD","inputs":[{"name":"collateralToken","type":"address","internalType":"address"},{"name":"amountToBurn","type":"uint256","internalType":"uint256"}],"outputs":[],"stateMutability":"nonpayable"},{"type":"function","name":"depositCollateral","inputs":[{"name":"collateralToken","type":"address","internalType":"address"},{"name":"amountCollateral","type":"uint256","internalType":"uint256"}],"outputs":[],"stateMutability":"nonpayable"},{"type":"function","name":"depositCollateralAndMintSPIUSD","inputs":[{"name":"collateralToken","type":"address","internalType":"address"},{"name":"amountCollateral","type":"uint256","internalType":"uint256"},{"name":"amountToMint","type":"uint256","internalType":"uint256"}],"outputs":[],"stateMutability":"nonpayable"},{"type":"function","name":"getTokenUsdValue","inputs":[{"name":"token","type":"address","internalType":"address"},{"name":"amount","type":"uint256","internalType":"uint256"}],"outputs":[{"name":"","type":"uint256","internalType":"uint256"}],"stateMutability":"view"},{"type":"function","name":"getUserPositionCollateralValue","inputs":[{"name":"user","type":"address","internalType":"address"},{"name":"collateralToken","type":"address","internalType":"address"}],"outputs":[{"name":"totalCollateralValueInUsd","type":"uint256","internalType":"uint256"}],"stateMutability":"view"},{"type":"function","name":"getUserPositionLTV","inputs":[{"name":"user","type":"address","internalType":"address"},{"name":"collateralToken","type":"address","internalType":"address"}],"outputs":[{"name":"","type":"uint256","internalType":"uint256"}],"stateMutability":"view"},{"type":"function","name":"liquidate","inputs":[{"name":"user","type":"address","internalType":"address"},{"name":"collateralToken","type":"address","internalType":"address"}],"outputs":[],"stateMutability":"nonpayable"},{"type":"function","name":"mintSPIUSD","inputs":[{"name":"collateralToken","type":"address","internalType":"address"},{"name":"amountToMint","type":"uint256","internalType":"uint256"}],"outputs":[],"stateMutability":"nonpayable"},{"type":"function","name":"owner","inputs":[],"outputs":[{"name":"","type":"address","internalType":"address"}],"stateMutability":"view"},{"type":"function","name":"pendingOwner","inputs":[],"outputs":[{"name":"","type":"address","internalType":"address"}],"stateMutability":"view"},{"type":"function","name":"redeemCollateral","inputs":[{"name":"collateralToken","type":"address","internalType":"address"},{"name":"amountCollateral","type":"uint256","internalType":"uint256"}],"outputs":[],"stateMutability":"nonpayable"},{"type":"function","name":"redeemCollateralAndBurnSPIUSD","inputs":[{"name":"collateralToken","type":"address","internalType":"address"},{"name":"amountCollateral","type":"uint256","internalType":"uint256"},{"name":"amountToBurn","type":"uint256","internalType":"uint256"}],"outputs":[],"stateMutability":"nonpayable"},{"type":"function","name":"renounceOwnership","inputs":[],"outputs":[],"stateMutability":"nonpayable"},{"type":"function","name":"setCollateralTokenSupport","inputs":[{"name":"collateralToken","type":"address[]","internalType":"address[]"},{"name":"priceFeedAddress","type":"address[]","internalType":"address[]"}],"outputs":[],"stateMutability":"nonpayable"},{"type":"function","name":"transferOwnership","inputs":[{"name":"newOwner","type":"address","internalType":"address"}],"outputs":[],"stateMutability":"nonpayable"},{"type":"function","name":"updateTreasury","inputs":[{"name":"newTreasuryAddress","type":"address","internalType":"address"}],"outputs":[],"stateMutability":"nonpayable"},{"type":"event","name":"CollateralDeposited","inputs":[{"name":"user","type":"address","indexed":true,"internalType":"address"},{"name":"collateralToken","type":"address","indexed":true,"internalType":"address"},{"name":"amountCollateral","type":"uint256","indexed":true,"internalType":"uint256"}],"anonymous":false},{"type":"event","name":"OwnershipTransferStarted","inputs":[{"name":"previousOwner","type":"address","indexed":true,"internalType":"address"},{"name":"newOwner","type":"address","indexed":true,"internalType":"address"}],"anonymous":false},{"type":"event","name":"OwnershipTransferred","inputs":[{"name":"previousOwner","type":"address","indexed":true,"internalType":"address"},{"name":"newOwner","type":"address","indexed":true,"internalType":"address"}],"anonymous":false},{"type":"error","name":"OwnableInvalidOwner","inputs":[{"name":"owner","type":"address","internalType":"address"}]},{"type":"error","name":"OwnableUnauthorizedAccount","inputs":[{"name":"account","type":"address","internalType":"address"}]},{"type":"error","name":"PositionManager__InvalidPriceFeedAddress","inputs":[]},{"type":"error","name":"PositionManager__InvalidTokenAddress","inputs":[]},{"type":"error","name":"PositionManager__IsUnderLiqLTV","inputs":[]},{"type":"error","name":"PositionManager__MintExceedsMaxLTV","inputs":[]},{"type":"error","name":"PositionManager__UnsupportedCollateralToken","inputs":[]},{"type":"error","name":"PositionManager__ValueCannotBeZero","inputs":[]},{"type":"error","name":"SafeERC20FailedOperation","inputs":[{"name":"token","type":"address","internalType":"address"}]}],"bytecode":{"object":"0x60a060405234801561000f575f5ffd5b50604051611f72380380611f7283398181016040528101906100319190610282565b335f73ffffffffffffffffffffffffffffffffffffffff168173ffffffffffffffffffffffffffffffffffffffff16036100a2575f6040517f1e4fbdf700000000000000000000000000000000000000000000000000000000815260040161009991906102cf565b60405180910390fd5b6100b18161012d60201b60201c565b508173ffffffffffffffffffffffffffffffffffffffff1660808173ffffffffffffffffffffffffffffffffffffffff16815250508060045f6101000a81548173ffffffffffffffffffffffffffffffffffffffff021916908373ffffffffffffffffffffffffffffffffffffffff16021790555050506102e8565b60015f6101000a81549073ffffffffffffffffffffffffffffffffffffffff02191690556101608161016360201b60201c565b50565b5f5f5f9054906101000a900473ffffffffffffffffffffffffffffffffffffffff169050815f5f6101000a81548173ffffffffffffffffffffffffffffffffffffffff021916908373ffffffffffffffffffffffffffffffffffffffff1602179055508173ffffffffffffffffffffffffffffffffffffffff168173ffffffffffffffffffffffffffffffffffffffff167f8be0079c531659141344cd1fd0a4f28419497f9722a3daafe3b4186f6b6457e060405160405180910390a35050565b5f5ffd5b5f73ffffffffffffffffffffffffffffffffffffffff82169050919050565b5f61025182610228565b9050919050565b61026181610247565b811461026b575f5ffd5b50565b5f8151905061027c81610258565b92915050565b5f5f6040838503121561029857610297610224565b5b5f6102a58582860161026e565b92505060206102b68582860161026e565b9150509250929050565b6102c981610247565b82525050565b5f6020820190506102e25f8301846102c0565b92915050565b608051611c6b6103075f395f8181610a610152610f030152611c6b5ff3fe608060405234801561000f575f5ffd5b5060043610610109575f3560e01c80637f51bb1f116100a0578063a5d5db0c1161006f578063a5d5db0c14610277578063cf2ab51f14610293578063e12d2f03146102af578063e30c3978146102cb578063f2fde38b146102e957610109565b80637f51bb1f1461020557806386b9d81f146102215780638da5cb5b1461023d5780639acd81b31461025b57610109565b806357f360db116100dc57806357f360db146101a5578063715018a6146101c157806373b267d7146101cb57806379ba5097146101fb57610109565b806302d15b301461010d5780630e531d0d146101295780631315d1d9146101455780633a11894f14610175575b5f5ffd5b61012760048036038101906101229190611598565b610305565b005b610143600480360381019061013e91906115e8565b61031e565b005b61015f600480360381019061015a9190611626565b610369565b60405161016c9190611673565b60405180910390f35b61018f600480360381019061018a9190611626565b61037c565b60405161019c9190611673565b60405180910390f35b6101bf60048036038101906101ba9190611598565b61040e565b005b6101c9610427565b005b6101e560048036038101906101e091906115e8565b610429565b6040516101f29190611673565b60405180910390f35b610203610537565b005b61021f600480360381019061021a919061168c565b6105c5565b005b61023b60048036038101906102369190611626565b610610565b005b61024561070e565b60405161025291906116c6565b60405180910390f35b610275600480360381019061027091906115e8565b610735565b005b610291600480360381019061028c91906115e8565b610780565b005b6102ad60048036038101906102a891906115e8565b610982565b005b6102c960048036038101906102c4919061182f565b610aee565b005b6102d3610d98565b6040516102e091906116c6565b60405180910390f35b61030360048036038101906102fe919061168c565b610dc0565b005b61030f8383610780565b6103198382610982565b505050565b805f8111610358576040517fc4a8541800000000000000000000000000000000000000000000000000000000815260040160405180910390fd5b61036433338585610e6c565b505050565b5f6103748383610f90565b905092915050565b5f5f60035f8573ffffffffffffffffffffffffffffffffffffffff1673ffffffffffffffffffffffffffffffffffffffff1681526020019081526020015f205f8473ffffffffffffffffffffffffffffffffffffffff1673ffffffffffffffffffffffffffffffffffffffff1681526020019081526020015f205f015490506104058382610429565b91505092915050565b610418838261031e565b6104228383610735565b505050565b565b5f5f60025f8573ffffffffffffffffffffffffffffffffffffffff1673ffffffffffffffffffffffffffffffffffffffff1681526020019081526020015f205f9054906101000a900473ffffffffffffffffffffffffffffffffffffffff1690505f8173ffffffffffffffffffffffffffffffffffffffff1663feaf968c6040518163ffffffff1660e01b815260040160a060405180830381865afa1580156104d4573d5f5f3e3d5ffd5b505050506040513d601f19601f820116820180604052508101906104f8919061192b565b505050915050670de0b6b3a7640000846402540be4008361051991906119cf565b61052391906119cf565b61052d9190611a3d565b9250505092915050565b5f61054061103a565b90508073ffffffffffffffffffffffffffffffffffffffff16610561610d98565b73ffffffffffffffffffffffffffffffffffffffff16146105b957806040517f118cdaa70000000000000000000000000000000000000000000000000000000081526004016105b091906116c6565b60405180910390fd5b6105c281611041565b50565b6105cd611071565b8060045f6101000a81548173ffffffffffffffffffffffffffffffffffffffff021916908373ffffffffffffffffffffffffffffffffffffffff16021790555050565b5f3390505f61061f8484610f90565b9050670cb2bba6f17b8000811015610663576040517f9c7c781800000000000000000000000000000000000000000000000000000000815260040160405180910390fd5b5f60035f8673ffffffffffffffffffffffffffffffffffffffff1673ffffffffffffffffffffffffffffffffffffffff1681526020019081526020015f205f8573ffffffffffffffffffffffffffffffffffffffff1673ffffffffffffffffffffffffffffffffffffffff1681526020019081526020015f2090505f816001015490505f825f015490506106f9878688846110f8565b61070585888885610e6c565b50505050505050565b5f5f5f9054906101000a900473ffffffffffffffffffffffffffffffffffffffff16905090565b805f811161076f576040517fc4a8541800000000000000000000000000000000000000000000000000000000815260040160405180910390fd5b61077b333385856110f8565b505050565b815f73ffffffffffffffffffffffffffffffffffffffff1660025f8373ffffffffffffffffffffffffffffffffffffffff1673ffffffffffffffffffffffffffffffffffffffff1681526020019081526020015f205f9054906101000a900473ffffffffffffffffffffffffffffffffffffffff1673ffffffffffffffffffffffffffffffffffffffff1603610842576040517fc086bcd300000000000000000000000000000000000000000000000000000000815260040160405180910390fd5b815f811161087c576040517fc4a8541800000000000000000000000000000000000000000000000000000000815260040160405180910390fd5b5f33905061088b8582866111a8565b5f60035f8373ffffffffffffffffffffffffffffffffffffffff1673ffffffffffffffffffffffffffffffffffffffff1681526020019081526020015f205f8773ffffffffffffffffffffffffffffffffffffffff1673ffffffffffffffffffffffffffffffffffffffff1681526020019081526020015f20905084815f015f8282546109189190611a6d565b92505081905550848673ffffffffffffffffffffffffffffffffffffffff168373ffffffffffffffffffffffffffffffffffffffff167ff1c0dd7e9b98bbff859029005ef89b127af049cd18df1a8d79f0b7e019911e5660405160405180910390a4505050505050565b805f81116109bc576040517fc4a8541800000000000000000000000000000000000000000000000000000000815260040160405180910390fd5b5f3390505f60035f8373ffffffffffffffffffffffffffffffffffffffff1673ffffffffffffffffffffffffffffffffffffffff1681526020019081526020015f205f8673ffffffffffffffffffffffffffffffffffffffff1673ffffffffffffffffffffffffffffffffffffffff1681526020019081526020015f20905083816001015f828254610a4e9190611a6d565b92505081905550610a5f82866111e3565b7f000000000000000000000000000000000000000000000000000000000000000073ffffffffffffffffffffffffffffffffffffffff166340c10f1983866040518363ffffffff1660e01b8152600401610aba929190611aa0565b5f604051808303815f87803b158015610ad1575f5ffd5b505af1158015610ae3573d5f5f3e3d5ffd5b505050505050505050565b610af6611071565b8051825114610b3a576040517f08c379a0000000000000000000000000000000000000000000000000000000008152600401610b3190611b21565b60405180910390fd5b5f5f90505b8251811015610d93575f73ffffffffffffffffffffffffffffffffffffffff16838281518110610b7257610b71611b3f565b5b602002602001015173ffffffffffffffffffffffffffffffffffffffff1603610bc7576040517f8c459d2e00000000000000000000000000000000000000000000000000000000815260040160405180910390fd5b5f73ffffffffffffffffffffffffffffffffffffffff16828281518110610bf157610bf0611b3f565b5b602002602001015173ffffffffffffffffffffffffffffffffffffffff1614610cd7575f828281518110610c2857610c27611b3f565b5b602002602001015173ffffffffffffffffffffffffffffffffffffffff1663313ce5676040518163ffffffff1660e01b8152600401602060405180830381865afa158015610c78573d5f5f3e3d5ffd5b505050506040513d601f19601f82011682018060405250810190610c9c9190611ba2565b60ff1611610cd6576040517ff747657400000000000000000000000000000000000000000000000000000000815260040160405180910390fd5b5b818181518110610cea57610ce9611b3f565b5b602002602001015160025f858481518110610d0857610d07611b3f565b5b602002602001015173ffffffffffffffffffffffffffffffffffffffff1673ffffffffffffffffffffffffffffffffffffffff1681526020019081526020015f205f6101000a81548173ffffffffffffffffffffffffffffffffffffffff021916908373ffffffffffffffffffffffffffffffffffffffff1602179055508080600101915050610b3f565b505050565b5f60015f9054906101000a900473ffffffffffffffffffffffffffffffffffffffff16905090565b610dc8611071565b8060015f6101000a81548173ffffffffffffffffffffffffffffffffffffffff021916908373ffffffffffffffffffffffffffffffffffffffff1602179055508073ffffffffffffffffffffffffffffffffffffffff16610e2761070e565b73ffffffffffffffffffffffffffffffffffffffff167f38d16b8cac22d99fc7c124b9cd0de2d3fa1faef420bfe791d8c362d765e2270060405160405180910390a350565b5f60035f8573ffffffffffffffffffffffffffffffffffffffff1673ffffffffffffffffffffffffffffffffffffffff1681526020019081526020015f205f8473ffffffffffffffffffffffffffffffffffffffff1673ffffffffffffffffffffffffffffffffffffffff1681526020019081526020015f20905081816001015f828254610efa9190611bcd565b925050819055507f000000000000000000000000000000000000000000000000000000000000000073ffffffffffffffffffffffffffffffffffffffff16639dc29fac86846040518363ffffffff1660e01b8152600401610f5c929190611aa0565b5f604051808303815f87803b158015610f73575f5ffd5b505af1158015610f85573d5f5f3e3d5ffd5b505050505050505050565b5f5f60035f8573ffffffffffffffffffffffffffffffffffffffff1673ffffffffffffffffffffffffffffffffffffffff1681526020019081526020015f205f8473ffffffffffffffffffffffffffffffffffffffff1673ffffffffffffffffffffffffffffffffffffffff1681526020019081526020015f206001015490505f61101b858561037c565b9050611030818361123290919063ffffffff16565b9250505092915050565b5f33905090565b60015f6101000a81549073ffffffffffffffffffffffffffffffffffffffff021916905561106e81611264565b50565b61107961103a565b73ffffffffffffffffffffffffffffffffffffffff1661109761070e565b73ffffffffffffffffffffffffffffffffffffffff16146110f6576110ba61103a565b6040517f118cdaa70000000000000000000000000000000000000000000000000000000081526004016110ed91906116c6565b60405180910390fd5b565b5f60035f8673ffffffffffffffffffffffffffffffffffffffff1673ffffffffffffffffffffffffffffffffffffffff1681526020019081526020015f205f8473ffffffffffffffffffffffffffffffffffffffff1673ffffffffffffffffffffffffffffffffffffffff1681526020019081526020015f20905081815f015f8282546111859190611bcd565b9250508190555061119685846111e3565b6111a1838584611325565b5050505050565b5f8103156111de576111dd8230838673ffffffffffffffffffffffffffffffffffffffff1661135e909392919063ffffffff16565b5b505050565b670c7d713b49da00006111f68383610f90565b111561122e576040517febea1b9800000000000000000000000000000000000000000000000000000000815260040160405180910390fd5b5050565b5f5f670de0b6b3a76400008461124891906119cf565b905082818161125a57611259611a10565b5b0491505092915050565b5f5f5f9054906101000a900473ffffffffffffffffffffffffffffffffffffffff169050815f5f6101000a81548173ffffffffffffffffffffffffffffffffffffffff021916908373ffffffffffffffffffffffffffffffffffffffff1602179055508173ffffffffffffffffffffffffffffffffffffffff168173ffffffffffffffffffffffffffffffffffffffff167f8be0079c531659141344cd1fd0a4f28419497f9722a3daafe3b4186f6b6457e060405160405180910390a35050565b5f8103156113595761135882828573ffffffffffffffffffffffffffffffffffffffff166113e09092919063ffffffff16565b5b505050565b6113da848573ffffffffffffffffffffffffffffffffffffffff166323b872dd86868660405160240161139393929190611c00565b604051602081830303815290604052915060e01b6020820180517bffffffffffffffffffffffffffffffffffffffffffffffffffffffff838183161783525050505061145f565b50505050565b61145a838473ffffffffffffffffffffffffffffffffffffffff1663a9059cbb8585604051602401611413929190611aa0565b604051602081830303815290604052915060e01b6020820180517bffffffffffffffffffffffffffffffffffffffffffffffffffffffff838183161783525050505061145f565b505050565b5f5f60205f8451602086015f885af18061147e576040513d5f823e3d81fd5b3d92505f519150505f82146114975760018114156114b2565b5f8473ffffffffffffffffffffffffffffffffffffffff163b145b156114f457836040517f5274afe70000000000000000000000000000000000000000000000000000000081526004016114eb91906116c6565b60405180910390fd5b50505050565b5f604051905090565b5f5ffd5b5f5ffd5b5f73ffffffffffffffffffffffffffffffffffffffff82169050919050565b5f6115348261150b565b9050919050565b6115448161152a565b811461154e575f5ffd5b50565b5f8135905061155f8161153b565b92915050565b5f819050919050565b61157781611565565b8114611581575f5ffd5b50565b5f813590506115928161156e565b92915050565b5f5f5f606084860312156115af576115ae611503565b5b5f6115bc86828701611551565b93505060206115cd86828701611584565b92505060406115de86828701611584565b9150509250925092565b5f5f604083850312156115fe576115fd611503565b5b5f61160b85828601611551565b925050602061161c85828601611584565b9150509250929050565b5f5f6040838503121561163c5761163b611503565b5b5f61164985828601611551565b925050602061165a85828601611551565b9150509250929050565b61166d81611565565b82525050565b5f6020820190506116865f830184611664565b92915050565b5f602082840312156116a1576116a0611503565b5b5f6116ae84828501611551565b91505092915050565b6116c08161152a565b82525050565b5f6020820190506116d95f8301846116b7565b92915050565b5f5ffd5b5f601f19601f8301169050919050565b7f4e487b71000000000000000000000000000000000000000000000000000000005f52604160045260245ffd5b611729826116e3565b810181811067ffffffffffffffff82111715611748576117476116f3565b5b80604052505050565b5f61175a6114fa565b90506117668282611720565b919050565b5f67ffffffffffffffff821115611785576117846116f3565b5b602082029050602081019050919050565b5f5ffd5b5f6117ac6117a78461176b565b611751565b905080838252602082019050602084028301858111156117cf576117ce611796565b5b835b818110156117f857806117e48882611551565b8452602084019350506020810190506117d1565b5050509392505050565b5f82601f830112611816576118156116df565b5b813561182684826020860161179a565b91505092915050565b5f5f6040838503121561184557611844611503565b5b5f83013567ffffffffffffffff81111561186257611861611507565b5b61186e85828601611802565b925050602083013567ffffffffffffffff81111561188f5761188e611507565b5b61189b85828601611802565b9150509250929050565b5f69ffffffffffffffffffff82169050919050565b6118c3816118a5565b81146118cd575f5ffd5b50565b5f815190506118de816118ba565b92915050565b5f819050919050565b6118f6816118e4565b8114611900575f5ffd5b50565b5f81519050611911816118ed565b92915050565b5f815190506119258161156e565b92915050565b5f5f5f5f5f60a0868803121561194457611943611503565b5b5f611951888289016118d0565b955050602061196288828901611903565b945050604061197388828901611917565b935050606061198488828901611917565b9250506080611995888289016118d0565b9150509295509295909350565b7f4e487b71000000000000000000000000000000000000000000000000000000005f52601160045260245ffd5b5f6119d982611565565b91506119e483611565565b92508282026119f281611565565b91508282048414831517611a0957611a086119a2565b5b5092915050565b7f4e487b71000000000000000000000000000000000000000000000000000000005f52601260045260245ffd5b5f611a4782611565565b9150611a5283611565565b925082611a6257611a61611a10565b5b828204905092915050565b5f611a7782611565565b9150611a8283611565565b9250828201905080821115611a9a57611a996119a2565b5b92915050565b5f604082019050611ab35f8301856116b7565b611ac06020830184611664565b9392505050565b5f82825260208201905092915050565b7f4c656e677468204d69736d6174636800000000000000000000000000000000005f82015250565b5f611b0b600f83611ac7565b9150611b1682611ad7565b602082019050919050565b5f6020820190508181035f830152611b3881611aff565b9050919050565b7f4e487b71000000000000000000000000000000000000000000000000000000005f52603260045260245ffd5b5f60ff82169050919050565b611b8181611b6c565b8114611b8b575f5ffd5b50565b5f81519050611b9c81611b78565b92915050565b5f60208284031215611bb757611bb6611503565b5b5f611bc484828501611b8e565b91505092915050565b5f611bd782611565565b9150611be283611565565b9250828203905081811115611bfa57611bf96119a2565b5b92915050565b5f606082019050611c135f8301866116b7565b611c2060208301856116b7565b611c2d6040830184611664565b94935050505056fea26469706673582212206cbefd967ab1d5000bd43e7b4454710ba3e37357514c2e1900ad8c9ea7082a3564736f6c634300081e0033","linkReferences":{}},"methodIdentifiers":{"acceptOwnership()":"79ba5097","burnSPIUSD(address,uint256)":"0e531d0d","depositCollateral(address,uint256)":"a5d5db0c","depositCollateralAndMintSPIUSD(address,uint256,uint256)":"02d15b30","getTokenUsdValue(address,uint256)":"73b267d7","getUserPositionCollateralValue(address,address)":"3a11894f","getUserPositionLTV(address,address)":"1315d1d9","liquidate(address,address)":"86b9d81f","mintSPIUSD(address,uint256)":"cf2ab51f","owner()":"8da5cb5b","pendingOwner()":"e30c3978","redeemCollateral(address,uint256)":"9acd81b3","redeemCollateralAndBurnSPIUSD(address,uint256,uint256)":"57f360db","renounceOwnership()":"715018a6","setCollateralTokenSupport(address[],address[])":"e12d2f03","transferOwnership(address)":"f2fde38b","updateTreasury(address)":"7f51bb1f"},"id":50}