{"abi":[{"type":"constructor","inputs":[{"name":"_SPIUSD","type":"address","internalType":"address"},{"name":"treasury","type":"address","internalType":"address"}],"stateMutability":"nonpayable"},{"type":"function","name":"FLASHLOAN_SUCCESS_CALLBACK","inputs":[],"outputs":[{"name":"","type":"bytes32","internalType":"bytes32"}],"stateMutability":"view"},{"type":"function","name":"LIQ_LTV","inputs":[],"outputs":[{"name":"","type":"uint256","internalType":"uint256"}],"stateMutability":"view"},{"type":"function","name":"MAX_LOAN","inputs":[],"outputs":[{"name":"","type":"uint256","internalType":"uint256"}],"stateMutability":"view"},{"type":"function","name":"MAX_LTV","inputs":[],"outputs":[{"name":"","type":"uint256","internalType":"uint256"}],"stateMutability":"view"},{"type":"function","name":"acceptOwnership","inputs":[],"outputs":[],"stateMutability":"nonpayable"},{"type":"function","name":"addSupportedCollateralTokens","inputs":[{"name":"collateralTokens","type":"address[]","internalType":"address[]"},{"name":"priceFeedAddress","type":"address[]","internalType":"address[]"}],"outputs":[],"stateMutability":"nonpayable"},{"type":"function","name":"burnSPIUSD","inputs":[{"name":"positionId","type":"uint256","internalType":"uint256"},{"name":"amountToBurn","type":"uint256","internalType":"uint256"}],"outputs":[],"stateMutability":"nonpayable"},{"type":"function","name":"depositCollateral","inputs":[{"name":"positionId","type":"uint256","internalType":"uint256"},{"name":"amountCollateral","type":"uint256","internalType":"uint256"}],"outputs":[],"stateMutability":"nonpayable"},{"type":"function","name":"depositCollateralAndMintSPIUSD","inputs":[{"name":"positionId","type":"uint256","internalType":"uint256"},{"name":"amountCollateral","type":"uint256","internalType":"uint256"},{"name":"amountToMint","type":"uint256","internalType":"uint256"}],"outputs":[],"stateMutability":"nonpayable"},{"type":"function","name":"flashFee","inputs":[{"name":"token","type":"address","internalType":"address"},{"name":"amount","type":"uint256","internalType":"uint256"}],"outputs":[{"name":"","type":"uint256","internalType":"uint256"}],"stateMutability":"view"},{"type":"function","name":"flashLoan","inputs":[{"name":"receiver","type":"address","internalType":"contract IERC3156FlashBorrower"},{"name":"loanToken","type":"address","internalType":"address"},{"name":"amountLoan","type":"uint256","internalType":"uint256"},{"name":"data","type":"bytes","internalType":"bytes"}],"outputs":[{"name":"success","type":"bool","internalType":"bool"}],"stateMutability":"nonpayable"},{"type":"function","name":"getPosition","inputs":[{"name":"positionId","type":"uint256","internalType":"uint256"}],"outputs":[{"name":"","type":"tuple","internalType":"struct Position","components":[{"name":"owner","type":"address","internalType":"address"},{"name":"collateralToken","type":"address","internalType":"address"},{"name":"collateralDeposited","type":"uint256","internalType":"uint256"},{"name":"SPIUSDMinted","type":"uint256","internalType":"uint256"}]}],"stateMutability":"view"},{"type":"function","name":"getPositionCollateralValue","inputs":[{"name":"positionId","type":"uint256","internalType":"uint256"}],"outputs":[{"name":"totalCollateralValueInUsd","type":"uint256","internalType":"uint256"}],"stateMutability":"view"},{"type":"function","name":"getPositionLTV","inputs":[{"name":"positionId","type":"uint256","internalType":"uint256"}],"outputs":[{"name":"","type":"uint256","internalType":"uint256"}],"stateMutability":"view"},{"type":"function","name":"getSPIUSD","inputs":[],"outputs":[{"name":"","type":"address","internalType":"address"}],"stateMutability":"view"},{"type":"function","name":"getTokenUsdValue","inputs":[{"name":"token","type":"address","internalType":"address"},{"name":"amount","type":"uint256","internalType":"uint256"}],"outputs":[{"name":"","type":"uint256","internalType":"uint256"}],"stateMutability":"view"},{"type":"function","name":"getUserPositionIds","inputs":[{"name":"user","type":"address","internalType":"address"}],"outputs":[{"name":"","type":"uint256[]","internalType":"uint256[]"}],"stateMutability":"view"},{"type":"function","name":"liquidate","inputs":[{"name":"positionId","type":"uint256","internalType":"uint256"}],"outputs":[],"stateMutability":"nonpayable"},{"type":"function","name":"maxFlashLoan","inputs":[{"name":"token","type":"address","internalType":"address"}],"outputs":[{"name":"","type":"uint256","internalType":"uint256"}],"stateMutability":"view"},{"type":"function","name":"mintSPIUSD","inputs":[{"name":"positionId","type":"uint256","internalType":"uint256"},{"name":"amountToMint","type":"uint256","internalType":"uint256"}],"outputs":[],"stateMutability":"nonpayable"},{"type":"function","name":"openPosition","inputs":[{"name":"collateralToken","type":"address","internalType":"address"},{"name":"amountCollateral","type":"uint256","internalType":"uint256"},{"name":"amountToMint","type":"uint256","internalType":"uint256"}],"outputs":[{"name":"positionId","type":"uint256","internalType":"uint256"}],"stateMutability":"nonpayable"},{"type":"function","name":"owner","inputs":[],"outputs":[{"name":"","type":"address","internalType":"address"}],"stateMutability":"view"},{"type":"function","name":"pendingOwner","inputs":[],"outputs":[{"name":"","type":"address","internalType":"address"}],"stateMutability":"view"},{"type":"function","name":"redeemCollateral","inputs":[{"name":"positionId","type":"uint256","internalType":"uint256"},{"name":"amountCollateral","type":"uint256","internalType":"uint256"}],"outputs":[],"stateMutability":"nonpayable"},{"type":"function","name":"redeemCollateralAndBurnSPIUSD","inputs":[{"name":"positionId","type":"uint256","internalType":"uint256"},{"name":"amountCollateral","type":"uint256","internalType":"uint256"},{"name":"amountToBurn","type":"uint256","internalType":"uint256"}],"outputs":[],"stateMutability":"nonpayable"},{"type":"function","name":"renounceOwnership","inputs":[],"outputs":[],"stateMutability":"nonpayable"},{"type":"function","name":"transferOwnership","inputs":[{"name":"newOwner","type":"address","internalType":"address"}],"outputs":[],"stateMutability":"nonpayable"},{"type":"function","name":"updateTreasury","inputs":[{"name":"newTreasuryAddress","type":"address","internalType":"address"}],"outputs":[],"stateMutability":"nonpayable"},{"type":"event","name":"OwnershipTransferStarted","inputs":[{"name":"previousOwner","type":"address","indexed":true,"internalType":"address"},{"name":"newOwner","type":"address","indexed":true,"internalType":"address"}],"anonymous":false},{"type":"event","name":"OwnershipTransferred","inputs":[{"name":"previousOwner","type":"address","indexed":true,"internalType":"address"},{"name":"newOwner","type":"address","indexed":true,"internalType":"address"}],"anonymous":false},{"type":"error","name":"OwnableInvalidOwner","inputs":[{"name":"owner","type":"address","internalType":"address"}]},{"type":"error","name":"OwnableUnauthorizedAccount","inputs":[{"name":"account","type":"address","internalType":"address"}]},{"type":"error","name":"PositionManager__FlashMintCallbackFailed","inputs":[]},{"type":"error","name":"PositionManager__FlashMintNotRepaid","inputs":[]},{"type":"error","name":"PositionManager__InvalidFlashLoanToken","inputs":[]},{"type":"error","name":"PositionManager__InvalidPriceFeedAddress","inputs":[]},{"type":"error","name":"PositionManager__InvalidReceiverAddress","inputs":[]},{"type":"error","name":"PositionManager__InvalidTokenAddress","inputs":[]},{"type":"error","name":"PositionManager__IsUnderLiqLTV","inputs":[]},{"type":"error","name":"PositionManager__MintExceedsMaxLTV","inputs":[]},{"type":"error","name":"PositionManager__UnsupportedCollateralToken","inputs":[]},{"type":"error","name":"PositionManager__ValueCannotBeZero","inputs":[]},{"type":"error","name":"SafeERC20FailedOperation","inputs":[{"name":"token","type":"address","internalType":"address"}]}],"bytecode":{"object":"0x60a060405234801561000f575f5ffd5b50604051612e99380380612e9983398181016040528101906100319190610282565b335f73ffffffffffffffffffffffffffffffffffffffff168173ffffffffffffffffffffffffffffffffffffffff16036100a2575f6040517f1e4fbdf700000000000000000000000000000000000000000000000000000000815260040161009991906102cf565b60405180910390fd5b6100b18161012d60201b60201c565b508173ffffffffffffffffffffffffffffffffffffffff1660808173ffffffffffffffffffffffffffffffffffffffff16815250508060065f6101000a81548173ffffffffffffffffffffffffffffffffffffffff021916908373ffffffffffffffffffffffffffffffffffffffff16021790555050506102e8565b60015f6101000a81549073ffffffffffffffffffffffffffffffffffffffff02191690556101608161016360201b60201c565b50565b5f5f5f9054906101000a900473ffffffffffffffffffffffffffffffffffffffff169050815f5f6101000a81548173ffffffffffffffffffffffffffffffffffffffff021916908373ffffffffffffffffffffffffffffffffffffffff1602179055508173ffffffffffffffffffffffffffffffffffffffff168173ffffffffffffffffffffffffffffffffffffffff167f8be0079c531659141344cd1fd0a4f28419497f9722a3daafe3b4186f6b6457e060405160405180910390a35050565b5f5ffd5b5f73ffffffffffffffffffffffffffffffffffffffff82169050919050565b5f61025182610228565b9050919050565b61026181610247565b811461026b575f5ffd5b50565b5f8151905061027c81610258565b92915050565b5f5f6040838503121561029857610297610224565b5b5f6102a58582860161026e565b92505060206102b68582860161026e565b9150509250929050565b6102c981610247565b82525050565b5f6020820190506102e25f8301846102c0565b92915050565b608051612b616103385f395f8181610a9901528181610b8401528181610c1e01528181610ce401528181610da201528181610e81015281816112bf015281816118fe0152611a100152612b615ff3fe608060405234801561000f575f5ffd5b50600436106101c2575f3560e01c8063976ede4a116100f7578063e30c397811610095578063eddf75701161006f578063eddf7570146104ee578063f2fde38b1461051e578063f998e6d11461053a578063fbdb72e814610556576101c2565b8063e30c397814610484578063eb02c301146104a2578063ece13732146104d2576101c2565b8063a3b7eb57116100d1578063a3b7eb57146103ea578063c5654acc14610406578063d9d98ce414610436578063e27490aa14610466576101c2565b8063976ede4a146103945780639d6a7a43146103b0578063a2af469a146103ce576101c2565b8063715018a6116101645780637f51bb1f1161013e5780637f51bb1f1461030c5780638044626d1461032857806381bf8d3d146103585780638da5cb5b14610376576101c2565b8063715018a6146102c857806373b267d7146102d257806379ba509714610302576101c2565b80634b7f11a7116101a05780634b7f11a71461022e5780635cffe9de1461024a578063613255ab1461027a57806361755432146102aa576101c2565b806304d45c4f146101c65780631d45558e146101e2578063415f124014610212575b5f5ffd5b6101e060048036038101906101db9190611f3e565b610574565b005b6101fc60048036038101906101f79190611f7c565b610627565b6040516102099190611fb6565b60405180910390f35b61022c60048036038101906102279190611f7c565b61071e565b005b61024860048036038101906102439190612179565b6107b2565b005b610264600480360381019061025f9190612283565b610a5c565b6040516102719190612321565b60405180910390f35b610294600480360381019061028f919061233a565b610f17565b6040516102a19190611fb6565b60405180910390f35b6102b2610f40565b6040516102bf9190611fb6565b60405180910390f35b6102d0610f47565b005b6102ec60048036038101906102e79190612365565b610f49565b6040516102f99190611fb6565b60405180910390f35b61030a611067565b005b6103266004803603810190610321919061233a565b6110f5565b005b610342600480360381019061033d9190611f7c565b611140565b60405161034f9190611fb6565b60405180910390f35b610360611151565b60405161036d9190611fb6565b60405180910390f35b61037e61115d565b60405161038b91906123b2565b60405180910390f35b6103ae60048036038101906103a991906123cb565b611184565b005b6103b861119d565b6040516103c59190611fb6565b60405180910390f35b6103e860048036038101906103e39190611f3e565b6111a9565b005b61040460048036038101906103ff9190611f3e565b6111f3565b005b610420600480360381019061041b919061241b565b61136d565b60405161042d9190611fb6565b60405180910390f35b610450600480360381019061044b9190612365565b6115c9565b60405161045d9190611fb6565b60405180910390f35b61046e6115d3565b60405161047b9190612483565b60405180910390f35b61048c6115f7565b60405161049991906123b2565b60405180910390f35b6104bc60048036038101906104b79190611f7c565b61161f565b6040516104c9919061250d565b60405180910390f35b6104ec60048036038101906104e79190611f3e565b611707565b005b6105086004803603810190610503919061233a565b6117a3565b60405161051591906125ce565b60405180910390f35b6105386004803603810190610533919061233a565b611836565b005b610554600480360381019061054f91906123cb565b6118e2565b005b61055e6118fb565b60405161056b91906123b2565b60405180910390f35b805f81116105ae576040517fc4a8541800000000000000000000000000000000000000000000000000000000815260040160405180910390fd5b60045f8481526020019081526020015f205f015f9054906101000a900473ffffffffffffffffffffffffffffffffffffffff1673ffffffffffffffffffffffffffffffffffffffff163373ffffffffffffffffffffffffffffffffffffffff1614610617575f5ffd5b610622338484611922565b505050565b5f5f60045f8481526020019081526020015f206040518060800160405290815f82015f9054906101000a900473ffffffffffffffffffffffffffffffffffffffff1673ffffffffffffffffffffffffffffffffffffffff1673ffffffffffffffffffffffffffffffffffffffff168152602001600182015f9054906101000a900473ffffffffffffffffffffffffffffffffffffffff1673ffffffffffffffffffffffffffffffffffffffff1673ffffffffffffffffffffffffffffffffffffffff16815260200160028201548152602001600382015481525050905061071681602001518260400151610f49565b915050919050565b5f3390505f61072c8361198d565b9050670cb2bba6f17b8000811015610770576040517f9c7c781800000000000000000000000000000000000000000000000000000000815260040160405180910390fd5b5f60045f8581526020019081526020015f2090505f816003015490505f8260020154905061079f858783611922565b6107aa8587846119e0565b505050505050565b6107ba611a9c565b80518251146107fe576040517f08c379a00000000000000000000000000000000000000000000000000000000081526004016107f590612648565b60405180910390fd5b5f5f90505b8251811015610a57575f73ffffffffffffffffffffffffffffffffffffffff1683828151811061083657610835612666565b5b602002602001015173ffffffffffffffffffffffffffffffffffffffff160361088b576040517f8c459d2e00000000000000000000000000000000000000000000000000000000815260040160405180910390fd5b5f73ffffffffffffffffffffffffffffffffffffffff168282815181106108b5576108b4612666565b5b602002602001015173ffffffffffffffffffffffffffffffffffffffff161461099b575f8282815181106108ec576108eb612666565b5b602002602001015173ffffffffffffffffffffffffffffffffffffffff1663313ce5676040518163ffffffff1660e01b8152600401602060405180830381865afa15801561093c573d5f5f3e3d5ffd5b505050506040513d601f19601f8201168201806040525081019061096091906126c9565b60ff161161099a576040517ff747657400000000000000000000000000000000000000000000000000000000815260040160405180910390fd5b5b8181815181106109ae576109ad612666565b5b602002602001015160025f8584815181106109cc576109cb612666565b5b602002602001015173ffffffffffffffffffffffffffffffffffffffff1673ffffffffffffffffffffffffffffffffffffffff1681526020019081526020015f205f6101000a81548173ffffffffffffffffffffffffffffffffffffffff021916908373ffffffffffffffffffffffffffffffffffffffff1602179055508080600101915050610803565b505050565b5f835f8111610a97576040517fc4a8541800000000000000000000000000000000000000000000000000000000815260040160405180910390fd5b7f000000000000000000000000000000000000000000000000000000000000000073ffffffffffffffffffffffffffffffffffffffff168673ffffffffffffffffffffffffffffffffffffffff1614610b1c576040517fbe35c18500000000000000000000000000000000000000000000000000000000815260040160405180910390fd5b5f73ffffffffffffffffffffffffffffffffffffffff168773ffffffffffffffffffffffffffffffffffffffff1603610b81576040517fad84a63b00000000000000000000000000000000000000000000000000000000815260040160405180910390fd5b5f7f000000000000000000000000000000000000000000000000000000000000000073ffffffffffffffffffffffffffffffffffffffff166370a08231306040518263ffffffff1660e01b8152600401610bdb91906123b2565b602060405180830381865afa158015610bf6573d5f5f3e3d5ffd5b505050506040513d601f19601f82011682018060405250810190610c1a9190612708565b90507f000000000000000000000000000000000000000000000000000000000000000073ffffffffffffffffffffffffffffffffffffffff166340c10f1989886040518363ffffffff1660e01b8152600401610c77929190612733565b5f604051808303815f87803b158015610c8e575f5ffd5b505af1158015610ca0573d5f5f3e3d5ffd5b505050507f439148f0bbc682ca079e46d6e2c2f0c1e3b820f1a291b069d8882abf8cf18dd98873ffffffffffffffffffffffffffffffffffffffff166323e30c8b337f00000000000000000000000000000000000000000000000000000000000000008a5f8b8b6040518763ffffffff1660e01b8152600401610d28969594939291906127e6565b6020604051808303815f875af1158015610d44573d5f5f3e3d5ffd5b505050506040513d601f19601f82011682018060405250810190610d68919061286a565b14610d9f576040517f945788e300000000000000000000000000000000000000000000000000000000815260040160405180910390fd5b5f7f000000000000000000000000000000000000000000000000000000000000000073ffffffffffffffffffffffffffffffffffffffff166370a08231306040518263ffffffff1660e01b8152600401610df991906123b2565b602060405180830381865afa158015610e14573d5f5f3e3d5ffd5b505050506040513d601f19601f82011682018060405250810190610e389190612708565b90508682610e4691906128c2565b811015610e7f576040517f1f2e663e00000000000000000000000000000000000000000000000000000000815260040160405180910390fd5b7f000000000000000000000000000000000000000000000000000000000000000073ffffffffffffffffffffffffffffffffffffffff16639dc29fac30896040518363ffffffff1660e01b8152600401610eda929190612733565b5f604051808303815f87803b158015610ef1575f5ffd5b505af1158015610f03573d5f5f3e3d5ffd5b505050506001935050505095945050505050565b5f7fffffffffffffffffffffffffffffffffffffffffffffffffffffffffffffffff9050919050565b6276a70081565b565b5f5f8203610f59575f9050611061565b5f60025f8573ffffffffffffffffffffffffffffffffffffffff1673ffffffffffffffffffffffffffffffffffffffff1681526020019081526020015f205f9054906101000a900473ffffffffffffffffffffffffffffffffffffffff1690505f8173ffffffffffffffffffffffffffffffffffffffff1663feaf968c6040518163ffffffff1660e01b815260040160a060405180830381865afa158015611003573d5f5f3e3d5ffd5b505050506040513d601f19601f820116820180604052508101906110279190612967565b505050915050670de0b6b3a7640000846402540be4008361104891906129de565b61105291906129de565b61105c9190612a4c565b925050505b92915050565b5f611070611b23565b90508073ffffffffffffffffffffffffffffffffffffffff166110916115f7565b73ffffffffffffffffffffffffffffffffffffffff16146110e957806040517f118cdaa70000000000000000000000000000000000000000000000000000000081526004016110e091906123b2565b60405180910390fd5b6110f281611b2a565b50565b6110fd611a9c565b8060065f6101000a81548173ffffffffffffffffffffffffffffffffffffffff021916908373ffffffffffffffffffffffffffffffffffffffff16021790555050565b5f61114a8261198d565b9050919050565b670c7d713b49da000081565b5f5f5f9054906101000a900473ffffffffffffffffffffffffffffffffffffffff16905090565b61118e83826111a9565b6111988383610574565b505050565b670cb2bba6f17b800081565b805f81116111e3576040517fc4a8541800000000000000000000000000000000000000000000000000000000815260040160405180910390fd5b6111ee3384846119e0565b505050565b805f811161122d576040517fc4a8541800000000000000000000000000000000000000000000000000000000815260040160405180910390fd5b5f60045f8581526020019081526020015f209050805f015f9054906101000a900473ffffffffffffffffffffffffffffffffffffffff1673ffffffffffffffffffffffffffffffffffffffff163373ffffffffffffffffffffffffffffffffffffffff161461129a575f5ffd5b82816003015f8282546112ad91906128c2565b925050819055506112bd84611b5a565b7f000000000000000000000000000000000000000000000000000000000000000073ffffffffffffffffffffffffffffffffffffffff166340c10f19825f015f9054906101000a900473ffffffffffffffffffffffffffffffffffffffff16856040518363ffffffff1660e01b815260040161133a929190612733565b5f604051808303815f87803b158015611351575f5ffd5b505af1158015611363573d5f5f3e3d5ffd5b5050505050505050565b5f835f73ffffffffffffffffffffffffffffffffffffffff1660025f8373ffffffffffffffffffffffffffffffffffffffff1673ffffffffffffffffffffffffffffffffffffffff1681526020019081526020015f205f9054906101000a900473ffffffffffffffffffffffffffffffffffffffff1673ffffffffffffffffffffffffffffffffffffffff1603611430576040517fc086bcd300000000000000000000000000000000000000000000000000000000815260040160405180910390fd5b5f33905060035492505f60405180608001604052808373ffffffffffffffffffffffffffffffffffffffff1681526020018873ffffffffffffffffffffffffffffffffffffffff1681526020015f81526020015f81525090508060045f8681526020019081526020015f205f820151815f015f6101000a81548173ffffffffffffffffffffffffffffffffffffffff021916908373ffffffffffffffffffffffffffffffffffffffff1602179055506020820151816001015f6101000a81548173ffffffffffffffffffffffffffffffffffffffff021916908373ffffffffffffffffffffffffffffffffffffffff16021790555060408201518160020155606082015181600301559050506115478487876118e2565b60055f8373ffffffffffffffffffffffffffffffffffffffff1673ffffffffffffffffffffffffffffffffffffffff1681526020019081526020015f2084908060018154018082558091505060019003905f5260205f20015f909190919091505560035f8154809291906115ba90612a7c565b91905055505050509392505050565b5f5f905092915050565b7f439148f0bbc682ca079e46d6e2c2f0c1e3b820f1a291b069d8882abf8cf18dd981565b5f60015f9054906101000a900473ffffffffffffffffffffffffffffffffffffffff16905090565b611627611eaa565b60045f8381526020019081526020015f206040518060800160405290815f82015f9054906101000a900473ffffffffffffffffffffffffffffffffffffffff1673ffffffffffffffffffffffffffffffffffffffff1673ffffffffffffffffffffffffffffffffffffffff168152602001600182015f9054906101000a900473ffffffffffffffffffffffffffffffffffffffff1673ffffffffffffffffffffffffffffffffffffffff1673ffffffffffffffffffffffffffffffffffffffff168152602001600282015481526020016003820154815250509050919050565b805f8111611741576040517fc4a8541800000000000000000000000000000000000000000000000000000000815260040160405180910390fd5b5f60045f8581526020019081526020015f209050611783816001015f9054906101000a900473ffffffffffffffffffffffffffffffffffffffff163385611ba7565b82816002015f82825461179691906128c2565b9250508190555050505050565b606060055f8373ffffffffffffffffffffffffffffffffffffffff1673ffffffffffffffffffffffffffffffffffffffff1681526020019081526020015f2080548060200260200160405190810160405280929190818152602001828054801561182a57602002820191905f5260205f20905b815481526020019060010190808311611816575b50505050509050919050565b61183e611a9c565b8060015f6101000a81548173ffffffffffffffffffffffffffffffffffffffff021916908373ffffffffffffffffffffffffffffffffffffffff1602179055508073ffffffffffffffffffffffffffffffffffffffff1661189d61115d565b73ffffffffffffffffffffffffffffffffffffffff167f38d16b8cac22d99fc7c124b9cd0de2d3fa1faef420bfe791d8c362d765e2270060405160405180910390a350565b6118ec8383611707565b6118f683826111f3565b505050565b5f7f0000000000000000000000000000000000000000000000000000000000000000905090565b5f60045f8481526020019081526020015f20905081816002015f8282546119499190612ac3565b9250508190555061195983611b5a565b611987816001015f9054906101000a900473ffffffffffffffffffffffffffffffffffffffff168584611be2565b50505050565b5f5f60045f8481526020019081526020015f206003015490505f6119b084610627565b90505f82036119c3575f925050506119db565b6119d68183611c1b90919063ffffffff16565b925050505b919050565b5f60045f8481526020019081526020015f20905081816003015f828254611a079190612ac3565b925050819055507f000000000000000000000000000000000000000000000000000000000000000073ffffffffffffffffffffffffffffffffffffffff16639dc29fac85846040518363ffffffff1660e01b8152600401611a69929190612733565b5f604051808303815f87803b158015611a80575f5ffd5b505af1158015611a92573d5f5f3e3d5ffd5b5050505050505050565b611aa4611b23565b73ffffffffffffffffffffffffffffffffffffffff16611ac261115d565b73ffffffffffffffffffffffffffffffffffffffff1614611b2157611ae5611b23565b6040517f118cdaa7000000000000000000000000000000000000000000000000000000008152600401611b1891906123b2565b60405180910390fd5b565b5f33905090565b60015f6101000a81549073ffffffffffffffffffffffffffffffffffffffff0219169055611b5781611c4d565b50565b670c7d713b49da0000611b6c8261198d565b1115611ba4576040517febea1b9800000000000000000000000000000000000000000000000000000000815260040160405180910390fd5b50565b5f810315611bdd57611bdc8230838673ffffffffffffffffffffffffffffffffffffffff16611d0e909392919063ffffffff16565b5b505050565b5f810315611c1657611c1582828573ffffffffffffffffffffffffffffffffffffffff16611d909092919063ffffffff16565b5b505050565b5f5f670de0b6b3a764000084611c3191906129de565b9050828181611c4357611c42612a1f565b5b0491505092915050565b5f5f5f9054906101000a900473ffffffffffffffffffffffffffffffffffffffff169050815f5f6101000a81548173ffffffffffffffffffffffffffffffffffffffff021916908373ffffffffffffffffffffffffffffffffffffffff1602179055508173ffffffffffffffffffffffffffffffffffffffff168173ffffffffffffffffffffffffffffffffffffffff167f8be0079c531659141344cd1fd0a4f28419497f9722a3daafe3b4186f6b6457e060405160405180910390a35050565b611d8a848573ffffffffffffffffffffffffffffffffffffffff166323b872dd868686604051602401611d4393929190612af6565b604051602081830303815290604052915060e01b6020820180517bffffffffffffffffffffffffffffffffffffffffffffffffffffffff8381831617835250505050611e0f565b50505050565b611e0a838473ffffffffffffffffffffffffffffffffffffffff1663a9059cbb8585604051602401611dc3929190612733565b604051602081830303815290604052915060e01b6020820180517bffffffffffffffffffffffffffffffffffffffffffffffffffffffff8381831617835250505050611e0f565b505050565b5f5f60205f8451602086015f885af180611e2e576040513d5f823e3d81fd5b3d92505f519150505f8214611e47576001811415611e62565b5f8473ffffffffffffffffffffffffffffffffffffffff163b145b15611ea457836040517f5274afe7000000000000000000000000000000000000000000000000000000008152600401611e9b91906123b2565b60405180910390fd5b50505050565b60405180608001604052805f73ffffffffffffffffffffffffffffffffffffffff1681526020015f73ffffffffffffffffffffffffffffffffffffffff1681526020015f81526020015f81525090565b5f604051905090565b5f5ffd5b5f5ffd5b5f819050919050565b611f1d81611f0b565b8114611f27575f5ffd5b50565b5f81359050611f3881611f14565b92915050565b5f5f60408385031215611f5457611f53611f03565b5b5f611f6185828601611f2a565b9250506020611f7285828601611f2a565b9150509250929050565b5f60208284031215611f9157611f90611f03565b5b5f611f9e84828501611f2a565b91505092915050565b611fb081611f0b565b82525050565b5f602082019050611fc95f830184611fa7565b92915050565b5f5ffd5b5f601f19601f8301169050919050565b7f4e487b71000000000000000000000000000000000000000000000000000000005f52604160045260245ffd5b61201982611fd3565b810181811067ffffffffffffffff8211171561203857612037611fe3565b5b80604052505050565b5f61204a611efa565b90506120568282612010565b919050565b5f67ffffffffffffffff82111561207557612074611fe3565b5b602082029050602081019050919050565b5f5ffd5b5f73ffffffffffffffffffffffffffffffffffffffff82169050919050565b5f6120b38261208a565b9050919050565b6120c3816120a9565b81146120cd575f5ffd5b50565b5f813590506120de816120ba565b92915050565b5f6120f66120f18461205b565b612041565b9050808382526020820190506020840283018581111561211957612118612086565b5b835b81811015612142578061212e88826120d0565b84526020840193505060208101905061211b565b5050509392505050565b5f82601f8301126121605761215f611fcf565b5b81356121708482602086016120e4565b91505092915050565b5f5f6040838503121561218f5761218e611f03565b5b5f83013567ffffffffffffffff8111156121ac576121ab611f07565b5b6121b88582860161214c565b925050602083013567ffffffffffffffff8111156121d9576121d8611f07565b5b6121e58582860161214c565b9150509250929050565b5f6121f9826120a9565b9050919050565b612209816121ef565b8114612213575f5ffd5b50565b5f8135905061222481612200565b92915050565b5f5ffd5b5f5f83601f84011261224357612242611fcf565b5b8235905067ffffffffffffffff8111156122605761225f61222a565b5b60208301915083600182028301111561227c5761227b612086565b5b9250929050565b5f5f5f5f5f6080868803121561229c5761229b611f03565b5b5f6122a988828901612216565b95505060206122ba888289016120d0565b94505060406122cb88828901611f2a565b935050606086013567ffffffffffffffff8111156122ec576122eb611f07565b5b6122f88882890161222e565b92509250509295509295909350565b5f8115159050919050565b61231b81612307565b82525050565b5f6020820190506123345f830184612312565b92915050565b5f6020828403121561234f5761234e611f03565b5b5f61235c848285016120d0565b91505092915050565b5f5f6040838503121561237b5761237a611f03565b5b5f612388858286016120d0565b925050602061239985828601611f2a565b9150509250929050565b6123ac816120a9565b82525050565b5f6020820190506123c55f8301846123a3565b92915050565b5f5f5f606084860312156123e2576123e1611f03565b5b5f6123ef86828701611f2a565b935050602061240086828701611f2a565b925050604061241186828701611f2a565b9150509250925092565b5f5f5f6060848603121561243257612431611f03565b5b5f61243f868287016120d0565b935050602061245086828701611f2a565b925050604061246186828701611f2a565b9150509250925092565b5f819050919050565b61247d8161246b565b82525050565b5f6020820190506124965f830184612474565b92915050565b6124a5816120a9565b82525050565b6124b481611f0b565b82525050565b608082015f8201516124ce5f85018261249c565b5060208201516124e1602085018261249c565b5060408201516124f460408501826124ab565b50606082015161250760608501826124ab565b50505050565b5f6080820190506125205f8301846124ba565b92915050565b5f81519050919050565b5f82825260208201905092915050565b5f819050602082019050919050565b5f61255a83836124ab565b60208301905092915050565b5f602082019050919050565b5f61257c82612526565b6125868185612530565b935061259183612540565b805f5b838110156125c15781516125a8888261254f565b97506125b383612566565b925050600181019050612594565b5085935050505092915050565b5f6020820190508181035f8301526125e68184612572565b905092915050565b5f82825260208201905092915050565b7f4c656e677468204d69736d6174636800000000000000000000000000000000005f82015250565b5f612632600f836125ee565b915061263d826125fe565b602082019050919050565b5f6020820190508181035f83015261265f81612626565b9050919050565b7f4e487b71000000000000000000000000000000000000000000000000000000005f52603260045260245ffd5b5f60ff82169050919050565b6126a881612693565b81146126b2575f5ffd5b50565b5f815190506126c38161269f565b92915050565b5f602082840312156126de576126dd611f03565b5b5f6126eb848285016126b5565b91505092915050565b5f8151905061270281611f14565b92915050565b5f6020828403121561271d5761271c611f03565b5b5f61272a848285016126f4565b91505092915050565b5f6040820190506127465f8301856123a3565b6127536020830184611fa7565b9392505050565b5f819050919050565b5f819050919050565b5f61278661278161277c8461275a565b612763565b611f0b565b9050919050565b6127968161276c565b82525050565b5f82825260208201905092915050565b828183375f83830152505050565b5f6127c5838561279c565b93506127d28385846127ac565b6127db83611fd3565b840190509392505050565b5f60a0820190506127f95f8301896123a3565b61280660208301886123a3565b6128136040830187611fa7565b612820606083018661278d565b81810360808301526128338184866127ba565b9050979650505050505050565b6128498161246b565b8114612853575f5ffd5b50565b5f8151905061286481612840565b92915050565b5f6020828403121561287f5761287e611f03565b5b5f61288c84828501612856565b91505092915050565b7f4e487b71000000000000000000000000000000000000000000000000000000005f52601160045260245ffd5b5f6128cc82611f0b565b91506128d783611f0b565b92508282019050808211156128ef576128ee612895565b5b92915050565b5f69ffffffffffffffffffff82169050919050565b612913816128f5565b811461291d575f5ffd5b50565b5f8151905061292e8161290a565b92915050565b5f819050919050565b61294681612934565b8114612950575f5ffd5b50565b5f815190506129618161293d565b92915050565b5f5f5f5f5f60a086880312156129805761297f611f03565b5b5f61298d88828901612920565b955050602061299e88828901612953565b94505060406129af888289016126f4565b93505060606129c0888289016126f4565b92505060806129d188828901612920565b9150509295509295909350565b5f6129e882611f0b565b91506129f383611f0b565b9250828202612a0181611f0b565b91508282048414831517612a1857612a17612895565b5b5092915050565b7f4e487b71000000000000000000000000000000000000000000000000000000005f52601260045260245ffd5b5f612a5682611f0b565b9150612a6183611f0b565b925082612a7157612a70612a1f565b5b828204905092915050565b5f612a8682611f0b565b91507fffffffffffffffffffffffffffffffffffffffffffffffffffffffffffffffff8203612ab857612ab7612895565b5b600182019050919050565b5f612acd82611f0b565b9150612ad883611f0b565b9250828203905081811115612af057612aef612895565b5b92915050565b5f606082019050612b095f8301866123a3565b612b1660208301856123a3565b612b236040830184611fa7565b94935050505056fea2646970667358221220a3916d12ec81cf18970c536e880f357e7e848ab9251e6594f121320d14401a9564736f6c634300081e0033","linkReferences":{}},"methodIdentifiers":{"FLASHLOAN_SUCCESS_CALLBACK()":"e27490aa","LIQ_LTV()":"9d6a7a43","MAX_LOAN()":"61755432","MAX_LTV()":"81bf8d3d","acceptOwnership()":"79ba5097","addSupportedCollateralTokens(address[],address[])":"4b7f11a7","burnSPIUSD(uint256,uint256)":"a2af469a","depositCollateral(uint256,uint256)":"ece13732","depositCollateralAndMintSPIUSD(uint256,uint256,uint256)":"f998e6d1","flashFee(address,uint256)":"d9d98ce4","flashLoan(address,address,uint256,bytes)":"5cffe9de","getPosition(uint256)":"eb02c301","getPositionCollateralValue(uint256)":"1d45558e","getPositionLTV(uint256)":"8044626d","getSPIUSD()":"fbdb72e8","getTokenUsdValue(address,uint256)":"73b267d7","getUserPositionIds(address)":"eddf7570","liquidate(uint256)":"415f1240","maxFlashLoan(address)":"613255ab","mintSPIUSD(uint256,uint256)":"a3b7eb57","openPosition(address,uint256,uint256)":"c5654acc","owner()":"8da5cb5b","pendingOwner()":"e30c3978","redeemCollateral(uint256,uint256)":"04d45c4f","redeemCollateralAndBurnSPIUSD(uint256,uint256,uint256)":"976ede4a","renounceOwnership()":"715018a6","transferOwnership(address)":"f2fde38b","updateTreasury(address)":"7f51bb1f"},"id":57}