{"abi":[{"type":"constructor","inputs":[{"name":"_stblUSD","type":"address","internalType":"address"},{"name":"treasury","type":"address","internalType":"address"}],"stateMutability":"nonpayable"},{"type":"function","name":"FLASHLOAN_SUCCESS_CALLBACK","inputs":[],"outputs":[{"name":"","type":"bytes32","internalType":"bytes32"}],"stateMutability":"view"},{"type":"function","name":"LIQ_LTV","inputs":[],"outputs":[{"name":"","type":"uint256","internalType":"uint256"}],"stateMutability":"view"},{"type":"function","name":"MAX_LOAN","inputs":[],"outputs":[{"name":"","type":"uint256","internalType":"uint256"}],"stateMutability":"view"},{"type":"function","name":"MAX_LTV","inputs":[],"outputs":[{"name":"","type":"uint256","internalType":"uint256"}],"stateMutability":"view"},{"type":"function","name":"acceptOwnership","inputs":[],"outputs":[],"stateMutability":"nonpayable"},{"type":"function","name":"addSupportedCollateralTokens","inputs":[{"name":"collateralTokens","type":"address[]","internalType":"address[]"},{"name":"priceFeedAddress","type":"address[]","internalType":"address[]"}],"outputs":[],"stateMutability":"nonpayable"},{"type":"function","name":"burnStblUSD","inputs":[{"name":"positionId","type":"uint256","internalType":"uint256"},{"name":"amountToBurn","type":"uint256","internalType":"uint256"}],"outputs":[],"stateMutability":"nonpayable"},{"type":"function","name":"depositCollateral","inputs":[{"name":"positionId","type":"uint256","internalType":"uint256"},{"name":"amountCollateral","type":"uint256","internalType":"uint256"}],"outputs":[],"stateMutability":"nonpayable"},{"type":"function","name":"depositCollateralAndMintStblUSD","inputs":[{"name":"positionId","type":"uint256","internalType":"uint256"},{"name":"amountCollateral","type":"uint256","internalType":"uint256"},{"name":"amountToMint","type":"uint256","internalType":"uint256"}],"outputs":[],"stateMutability":"nonpayable"},{"type":"function","name":"flashFee","inputs":[{"name":"token","type":"address","internalType":"address"},{"name":"amount","type":"uint256","internalType":"uint256"}],"outputs":[{"name":"","type":"uint256","internalType":"uint256"}],"stateMutability":"view"},{"type":"function","name":"flashLoan","inputs":[{"name":"receiver","type":"address","internalType":"contract IERC3156FlashBorrower"},{"name":"loanToken","type":"address","internalType":"address"},{"name":"amountLoan","type":"uint256","internalType":"uint256"},{"name":"data","type":"bytes","internalType":"bytes"}],"outputs":[{"name":"success","type":"bool","internalType":"bool"}],"stateMutability":"nonpayable"},{"type":"function","name":"getPosition","inputs":[{"name":"positionId","type":"uint256","internalType":"uint256"}],"outputs":[{"name":"","type":"tuple","internalType":"struct Position","components":[{"name":"owner","type":"address","internalType":"address"},{"name":"collateralToken","type":"address","internalType":"address"},{"name":"collateralDeposited","type":"uint256","internalType":"uint256"},{"name":"stblUSDMinted","type":"uint256","internalType":"uint256"}]}],"stateMutability":"view"},{"type":"function","name":"getPositionCollateralValue","inputs":[{"name":"positionId","type":"uint256","internalType":"uint256"}],"outputs":[{"name":"totalCollateralValueInUsd","type":"uint256","internalType":"uint256"}],"stateMutability":"view"},{"type":"function","name":"getPositionLTV","inputs":[{"name":"positionId","type":"uint256","internalType":"uint256"}],"outputs":[{"name":"","type":"uint256","internalType":"uint256"}],"stateMutability":"view"},{"type":"function","name":"getStblUSD","inputs":[],"outputs":[{"name":"","type":"address","internalType":"address"}],"stateMutability":"view"},{"type":"function","name":"getTokenUsdValue","inputs":[{"name":"token","type":"address","internalType":"address"},{"name":"amount","type":"uint256","internalType":"uint256"}],"outputs":[{"name":"","type":"uint256","internalType":"uint256"}],"stateMutability":"view"},{"type":"function","name":"getUserPositionIds","inputs":[{"name":"user","type":"address","internalType":"address"}],"outputs":[{"name":"","type":"uint256[]","internalType":"uint256[]"}],"stateMutability":"view"},{"type":"function","name":"liquidate","inputs":[{"name":"positionId","type":"uint256","internalType":"uint256"}],"outputs":[],"stateMutability":"nonpayable"},{"type":"function","name":"maxFlashLoan","inputs":[{"name":"token","type":"address","internalType":"address"}],"outputs":[{"name":"","type":"uint256","internalType":"uint256"}],"stateMutability":"view"},{"type":"function","name":"mintStblUSD","inputs":[{"name":"positionId","type":"uint256","internalType":"uint256"},{"name":"amountToMint","type":"uint256","internalType":"uint256"}],"outputs":[],"stateMutability":"nonpayable"},{"type":"function","name":"openPosition","inputs":[{"name":"collateralToken","type":"address","internalType":"address"},{"name":"amountCollateral","type":"uint256","internalType":"uint256"},{"name":"amountToMint","type":"uint256","internalType":"uint256"}],"outputs":[{"name":"positionId","type":"uint256","internalType":"uint256"}],"stateMutability":"nonpayable"},{"type":"function","name":"owner","inputs":[],"outputs":[{"name":"","type":"address","internalType":"address"}],"stateMutability":"view"},{"type":"function","name":"pendingOwner","inputs":[],"outputs":[{"name":"","type":"address","internalType":"address"}],"stateMutability":"view"},{"type":"function","name":"redeemCollateral","inputs":[{"name":"positionId","type":"uint256","internalType":"uint256"},{"name":"amountCollateral","type":"uint256","internalType":"uint256"}],"outputs":[],"stateMutability":"nonpayable"},{"type":"function","name":"redeemCollateralAndBurnStblUSD","inputs":[{"name":"positionId","type":"uint256","internalType":"uint256"},{"name":"amountCollateral","type":"uint256","internalType":"uint256"},{"name":"amountToBurn","type":"uint256","internalType":"uint256"}],"outputs":[],"stateMutability":"nonpayable"},{"type":"function","name":"renounceOwnership","inputs":[],"outputs":[],"stateMutability":"nonpayable"},{"type":"function","name":"transferOwnership","inputs":[{"name":"newOwner","type":"address","internalType":"address"}],"outputs":[],"stateMutability":"nonpayable"},{"type":"function","name":"updateTreasury","inputs":[{"name":"newTreasuryAddress","type":"address","internalType":"address"}],"outputs":[],"stateMutability":"nonpayable"},{"type":"event","name":"OwnershipTransferStarted","inputs":[{"name":"previousOwner","type":"address","indexed":true,"internalType":"address"},{"name":"newOwner","type":"address","indexed":true,"internalType":"address"}],"anonymous":false},{"type":"event","name":"OwnershipTransferred","inputs":[{"name":"previousOwner","type":"address","indexed":true,"internalType":"address"},{"name":"newOwner","type":"address","indexed":true,"internalType":"address"}],"anonymous":false},{"type":"error","name":"OwnableInvalidOwner","inputs":[{"name":"owner","type":"address","internalType":"address"}]},{"type":"error","name":"OwnableUnauthorizedAccount","inputs":[{"name":"account","type":"address","internalType":"address"}]},{"type":"error","name":"PositionManager__FlashMintCallbackFailed","inputs":[]},{"type":"error","name":"PositionManager__FlashMintNotRepaid","inputs":[]},{"type":"error","name":"PositionManager__InvalidFlashLoanToken","inputs":[]},{"type":"error","name":"PositionManager__InvalidPriceFeedAddress","inputs":[]},{"type":"error","name":"PositionManager__InvalidReceiverAddress","inputs":[]},{"type":"error","name":"PositionManager__InvalidTokenAddress","inputs":[]},{"type":"error","name":"PositionManager__IsUnderLiqLTV","inputs":[]},{"type":"error","name":"PositionManager__MintExceedsMaxLTV","inputs":[]},{"type":"error","name":"PositionManager__UnsupportedCollateralToken","inputs":[]},{"type":"error","name":"PositionManager__ValueCannotBeZero","inputs":[]},{"type":"error","name":"SafeERC20FailedOperation","inputs":[{"name":"token","type":"address","internalType":"address"}]}],"bytecode":{"object":"0x60a060405234801561000f575f5ffd5b50604051612e99380380612e9983398181016040528101906100319190610282565b335f73ffffffffffffffffffffffffffffffffffffffff168173ffffffffffffffffffffffffffffffffffffffff16036100a2575f6040517f1e4fbdf700000000000000000000000000000000000000000000000000000000815260040161009991906102cf565b60405180910390fd5b6100b18161012d60201b60201c565b508173ffffffffffffffffffffffffffffffffffffffff1660808173ffffffffffffffffffffffffffffffffffffffff16815250508060065f6101000a81548173ffffffffffffffffffffffffffffffffffffffff021916908373ffffffffffffffffffffffffffffffffffffffff16021790555050506102e8565b60015f6101000a81549073ffffffffffffffffffffffffffffffffffffffff02191690556101608161016360201b60201c565b50565b5f5f5f9054906101000a900473ffffffffffffffffffffffffffffffffffffffff169050815f5f6101000a81548173ffffffffffffffffffffffffffffffffffffffff021916908373ffffffffffffffffffffffffffffffffffffffff1602179055508173ffffffffffffffffffffffffffffffffffffffff168173ffffffffffffffffffffffffffffffffffffffff167f8be0079c531659141344cd1fd0a4f28419497f9722a3daafe3b4186f6b6457e060405160405180910390a35050565b5f5ffd5b5f73ffffffffffffffffffffffffffffffffffffffff82169050919050565b5f61025182610228565b9050919050565b61026181610247565b811461026b575f5ffd5b50565b5f8151905061027c81610258565b92915050565b5f5f6040838503121561029857610297610224565b5b5f6102a58582860161026e565b92505060206102b68582860161026e565b9150509250929050565b6102c981610247565b82525050565b5f6020820190506102e25f8301846102c0565b92915050565b608051612b616103385f395f8181610aa901528181610b0a01528181610bf501528181610c8f01528181610d5501528181610e1301528181610ef2015281816112cd01526119bd0152612b615ff3fe608060405234801561000f575f5ffd5b50600436106101c2575f3560e01c806381bf8d3d116100f7578063e16437bc11610095578063eb02c3011161006f578063eb02c301146104dc578063ece137321461050c578063eddf757014610528578063f2fde38b14610558576101c2565b8063e16437bc14610484578063e27490aa146104a0578063e30c3978146104be576101c2565b8063ac8231a0116100d1578063ac8231a0146103ec578063b768d61e14610408578063c5654acc14610424578063d9d98ce414610454576101c2565b806381bf8d3d146103925780638da5cb5b146103b05780639d6a7a43146103ce576101c2565b8063613255ab1161016457806373b267d71161013e57806373b267d71461030c57806379ba50971461033c5780637f51bb1f146103465780638044626d14610362576101c2565b8063613255ab146102b457806361755432146102e4578063715018a614610302576101c2565b8063415f1240116101a0578063415f12401461022e5780634b7f11a71461024a57806355b74db0146102665780635cffe9de14610284576101c2565b806304d45c4f146101c65780631d45558e146101e25780632dccd02f14610212575b5f5ffd5b6101e060048036038101906101db9190611f3e565b610574565b005b6101fc60048036038101906101f79190611f7c565b610627565b6040516102099190611fb6565b60405180910390f35b61022c60048036038101906102279190611f3e565b61071e565b005b61024860048036038101906102439190611f7c565b610768565b005b610264600480360381019061025f9190612179565b6107fc565b005b61026e610aa6565b60405161027b91906121fe565b60405180910390f35b61029e600480360381019061029991906122ab565b610acd565b6040516102ab9190612349565b60405180910390f35b6102ce60048036038101906102c99190612362565b610f88565b6040516102db9190611fb6565b60405180910390f35b6102ec610fb1565b6040516102f99190611fb6565b60405180910390f35b61030a610fb8565b005b6103266004803603810190610321919061238d565b610fba565b6040516103339190611fb6565b60405180910390f35b6103446110d8565b005b610360600480360381019061035b9190612362565b611166565b005b61037c60048036038101906103779190611f7c565b6111b1565b6040516103899190611fb6565b60405180910390f35b61039a6111c2565b6040516103a79190611fb6565b60405180910390f35b6103b86111ce565b6040516103c591906121fe565b60405180910390f35b6103d66111f5565b6040516103e39190611fb6565b60405180910390f35b61040660048036038101906104019190611f3e565b611201565b005b610422600480360381019061041d91906123cb565b61137b565b005b61043e6004803603810190610439919061241b565b611394565b60405161044b9190611fb6565b60405180910390f35b61046e6004803603810190610469919061238d565b6115f0565b60405161047b9190611fb6565b60405180910390f35b61049e600480360381019061049991906123cb565b6115fa565b005b6104a8611613565b6040516104b59190612483565b60405180910390f35b6104c6611637565b6040516104d391906121fe565b60405180910390f35b6104f660048036038101906104f19190611f7c565b61165f565b604051610503919061250d565b60405180910390f35b61052660048036038101906105219190611f3e565b611747565b005b610542600480360381019061053d9190612362565b6117e3565b60405161054f91906125ce565b60405180910390f35b610572600480360381019061056d9190612362565b611876565b005b805f81116105ae576040517fc4a8541800000000000000000000000000000000000000000000000000000000815260040160405180910390fd5b60045f8481526020019081526020015f205f015f9054906101000a900473ffffffffffffffffffffffffffffffffffffffff1673ffffffffffffffffffffffffffffffffffffffff163373ffffffffffffffffffffffffffffffffffffffff1614610617575f5ffd5b610622338484611922565b505050565b5f5f60045f8481526020019081526020015f206040518060800160405290815f82015f9054906101000a900473ffffffffffffffffffffffffffffffffffffffff1673ffffffffffffffffffffffffffffffffffffffff1673ffffffffffffffffffffffffffffffffffffffff168152602001600182015f9054906101000a900473ffffffffffffffffffffffffffffffffffffffff1673ffffffffffffffffffffffffffffffffffffffff1673ffffffffffffffffffffffffffffffffffffffff16815260200160028201548152602001600382015481525050905061071681602001518260400151610fba565b915050919050565b805f8111610758576040517fc4a8541800000000000000000000000000000000000000000000000000000000815260040160405180910390fd5b61076333848461198d565b505050565b5f3390505f61077683611a49565b9050670cb2bba6f17b80008110156107ba576040517f9c7c781800000000000000000000000000000000000000000000000000000000815260040160405180910390fd5b5f60045f8581526020019081526020015f2090505f816003015490505f826002015490506107e9858783611922565b6107f485878461198d565b505050505050565b610804611a9c565b8051825114610848576040517f08c379a000000000000000000000000000000000000000000000000000000000815260040161083f90612648565b60405180910390fd5b5f5f90505b8251811015610aa1575f73ffffffffffffffffffffffffffffffffffffffff168382815181106108805761087f612666565b5b602002602001015173ffffffffffffffffffffffffffffffffffffffff16036108d5576040517f8c459d2e00000000000000000000000000000000000000000000000000000000815260040160405180910390fd5b5f73ffffffffffffffffffffffffffffffffffffffff168282815181106108ff576108fe612666565b5b602002602001015173ffffffffffffffffffffffffffffffffffffffff16146109e5575f82828151811061093657610935612666565b5b602002602001015173ffffffffffffffffffffffffffffffffffffffff1663313ce5676040518163ffffffff1660e01b8152600401602060405180830381865afa158015610986573d5f5f3e3d5ffd5b505050506040513d601f19601f820116820180604052508101906109aa91906126c9565b60ff16116109e4576040517ff747657400000000000000000000000000000000000000000000000000000000815260040160405180910390fd5b5b8181815181106109f8576109f7612666565b5b602002602001015160025f858481518110610a1657610a15612666565b5b602002602001015173ffffffffffffffffffffffffffffffffffffffff1673ffffffffffffffffffffffffffffffffffffffff1681526020019081526020015f205f6101000a81548173ffffffffffffffffffffffffffffffffffffffff021916908373ffffffffffffffffffffffffffffffffffffffff160217905550808060010191505061084d565b505050565b5f7f0000000000000000000000000000000000000000000000000000000000000000905090565b5f835f8111610b08576040517fc4a8541800000000000000000000000000000000000000000000000000000000815260040160405180910390fd5b7f000000000000000000000000000000000000000000000000000000000000000073ffffffffffffffffffffffffffffffffffffffff168673ffffffffffffffffffffffffffffffffffffffff1614610b8d576040517fbe35c18500000000000000000000000000000000000000000000000000000000815260040160405180910390fd5b5f73ffffffffffffffffffffffffffffffffffffffff168773ffffffffffffffffffffffffffffffffffffffff1603610bf2576040517fad84a63b00000000000000000000000000000000000000000000000000000000815260040160405180910390fd5b5f7f000000000000000000000000000000000000000000000000000000000000000073ffffffffffffffffffffffffffffffffffffffff166370a08231306040518263ffffffff1660e01b8152600401610c4c91906121fe565b602060405180830381865afa158015610c67573d5f5f3e3d5ffd5b505050506040513d601f19601f82011682018060405250810190610c8b9190612708565b90507f000000000000000000000000000000000000000000000000000000000000000073ffffffffffffffffffffffffffffffffffffffff166340c10f1989886040518363ffffffff1660e01b8152600401610ce8929190612733565b5f604051808303815f87803b158015610cff575f5ffd5b505af1158015610d11573d5f5f3e3d5ffd5b505050507f439148f0bbc682ca079e46d6e2c2f0c1e3b820f1a291b069d8882abf8cf18dd98873ffffffffffffffffffffffffffffffffffffffff166323e30c8b337f00000000000000000000000000000000000000000000000000000000000000008a5f8b8b6040518763ffffffff1660e01b8152600401610d99969594939291906127e6565b6020604051808303815f875af1158015610db5573d5f5f3e3d5ffd5b505050506040513d601f19601f82011682018060405250810190610dd9919061286a565b14610e10576040517f945788e300000000000000000000000000000000000000000000000000000000815260040160405180910390fd5b5f7f000000000000000000000000000000000000000000000000000000000000000073ffffffffffffffffffffffffffffffffffffffff166370a08231306040518263ffffffff1660e01b8152600401610e6a91906121fe565b602060405180830381865afa158015610e85573d5f5f3e3d5ffd5b505050506040513d601f19601f82011682018060405250810190610ea99190612708565b90508682610eb791906128c2565b811015610ef0576040517f1f2e663e00000000000000000000000000000000000000000000000000000000815260040160405180910390fd5b7f000000000000000000000000000000000000000000000000000000000000000073ffffffffffffffffffffffffffffffffffffffff16639dc29fac30896040518363ffffffff1660e01b8152600401610f4b929190612733565b5f604051808303815f87803b158015610f62575f5ffd5b505af1158015610f74573d5f5f3e3d5ffd5b505050506001935050505095945050505050565b5f7fffffffffffffffffffffffffffffffffffffffffffffffffffffffffffffffff9050919050565b6276a70081565b565b5f5f8203610fca575f90506110d2565b5f60025f8573ffffffffffffffffffffffffffffffffffffffff1673ffffffffffffffffffffffffffffffffffffffff1681526020019081526020015f205f9054906101000a900473ffffffffffffffffffffffffffffffffffffffff1690505f8173ffffffffffffffffffffffffffffffffffffffff1663feaf968c6040518163ffffffff1660e01b815260040160a060405180830381865afa158015611074573d5f5f3e3d5ffd5b505050506040513d601f19601f820116820180604052508101906110989190612967565b505050915050670de0b6b3a7640000846402540be400836110b991906129de565b6110c391906129de565b6110cd9190612a4c565b925050505b92915050565b5f6110e1611b23565b90508073ffffffffffffffffffffffffffffffffffffffff16611102611637565b73ffffffffffffffffffffffffffffffffffffffff161461115a57806040517f118cdaa700000000000000000000000000000000000000000000000000000000815260040161115191906121fe565b60405180910390fd5b61116381611b2a565b50565b61116e611a9c565b8060065f6101000a81548173ffffffffffffffffffffffffffffffffffffffff021916908373ffffffffffffffffffffffffffffffffffffffff16021790555050565b5f6111bb82611a49565b9050919050565b670c7d713b49da000081565b5f5f5f9054906101000a900473ffffffffffffffffffffffffffffffffffffffff16905090565b670cb2bba6f17b800081565b805f811161123b576040517fc4a8541800000000000000000000000000000000000000000000000000000000815260040160405180910390fd5b5f60045f8581526020019081526020015f209050805f015f9054906101000a900473ffffffffffffffffffffffffffffffffffffffff1673ffffffffffffffffffffffffffffffffffffffff163373ffffffffffffffffffffffffffffffffffffffff16146112a8575f5ffd5b82816003015f8282546112bb91906128c2565b925050819055506112cb84611b5a565b7f000000000000000000000000000000000000000000000000000000000000000073ffffffffffffffffffffffffffffffffffffffff166340c10f19825f015f9054906101000a900473ffffffffffffffffffffffffffffffffffffffff16856040518363ffffffff1660e01b8152600401611348929190612733565b5f604051808303815f87803b15801561135f575f5ffd5b505af1158015611371573d5f5f3e3d5ffd5b5050505050505050565b6113858383611747565b61138f8382611201565b505050565b5f835f73ffffffffffffffffffffffffffffffffffffffff1660025f8373ffffffffffffffffffffffffffffffffffffffff1673ffffffffffffffffffffffffffffffffffffffff1681526020019081526020015f205f9054906101000a900473ffffffffffffffffffffffffffffffffffffffff1673ffffffffffffffffffffffffffffffffffffffff1603611457576040517fc086bcd300000000000000000000000000000000000000000000000000000000815260040160405180910390fd5b5f33905060035492505f60405180608001604052808373ffffffffffffffffffffffffffffffffffffffff1681526020018873ffffffffffffffffffffffffffffffffffffffff1681526020015f81526020015f81525090508060045f8681526020019081526020015f205f820151815f015f6101000a81548173ffffffffffffffffffffffffffffffffffffffff021916908373ffffffffffffffffffffffffffffffffffffffff1602179055506020820151816001015f6101000a81548173ffffffffffffffffffffffffffffffffffffffff021916908373ffffffffffffffffffffffffffffffffffffffff160217905550604082015181600201556060820151816003015590505061156e84878761137b565b60055f8373ffffffffffffffffffffffffffffffffffffffff1673ffffffffffffffffffffffffffffffffffffffff1681526020019081526020015f2084908060018154018082558091505060019003905f5260205f20015f909190919091505560035f8154809291906115e190612a7c565b91905055505050509392505050565b5f5f905092915050565b611604838261071e565b61160e8383610574565b505050565b7f439148f0bbc682ca079e46d6e2c2f0c1e3b820f1a291b069d8882abf8cf18dd981565b5f60015f9054906101000a900473ffffffffffffffffffffffffffffffffffffffff16905090565b611667611eaa565b60045f8381526020019081526020015f206040518060800160405290815f82015f9054906101000a900473ffffffffffffffffffffffffffffffffffffffff1673ffffffffffffffffffffffffffffffffffffffff1673ffffffffffffffffffffffffffffffffffffffff168152602001600182015f9054906101000a900473ffffffffffffffffffffffffffffffffffffffff1673ffffffffffffffffffffffffffffffffffffffff1673ffffffffffffffffffffffffffffffffffffffff168152602001600282015481526020016003820154815250509050919050565b805f8111611781576040517fc4a8541800000000000000000000000000000000000000000000000000000000815260040160405180910390fd5b5f60045f8581526020019081526020015f2090506117c3816001015f9054906101000a900473ffffffffffffffffffffffffffffffffffffffff163385611ba7565b82816002015f8282546117d691906128c2565b9250508190555050505050565b606060055f8373ffffffffffffffffffffffffffffffffffffffff1673ffffffffffffffffffffffffffffffffffffffff1681526020019081526020015f2080548060200260200160405190810160405280929190818152602001828054801561186a57602002820191905f5260205f20905b815481526020019060010190808311611856575b50505050509050919050565b61187e611a9c565b8060015f6101000a81548173ffffffffffffffffffffffffffffffffffffffff021916908373ffffffffffffffffffffffffffffffffffffffff1602179055508073ffffffffffffffffffffffffffffffffffffffff166118dd6111ce565b73ffffffffffffffffffffffffffffffffffffffff167f38d16b8cac22d99fc7c124b9cd0de2d3fa1faef420bfe791d8c362d765e2270060405160405180910390a350565b5f60045f8481526020019081526020015f20905081816002015f8282546119499190612ac3565b9250508190555061195983611b5a565b611987816001015f9054906101000a900473ffffffffffffffffffffffffffffffffffffffff168584611be2565b50505050565b5f60045f8481526020019081526020015f20905081816003015f8282546119b49190612ac3565b925050819055507f000000000000000000000000000000000000000000000000000000000000000073ffffffffffffffffffffffffffffffffffffffff16639dc29fac85846040518363ffffffff1660e01b8152600401611a16929190612733565b5f604051808303815f87803b158015611a2d575f5ffd5b505af1158015611a3f573d5f5f3e3d5ffd5b5050505050505050565b5f5f60045f8481526020019081526020015f206003015490505f611a6c84610627565b90505f8203611a7f575f92505050611a97565b611a928183611c1b90919063ffffffff16565b925050505b919050565b611aa4611b23565b73ffffffffffffffffffffffffffffffffffffffff16611ac26111ce565b73ffffffffffffffffffffffffffffffffffffffff1614611b2157611ae5611b23565b6040517f118cdaa7000000000000000000000000000000000000000000000000000000008152600401611b1891906121fe565b60405180910390fd5b565b5f33905090565b60015f6101000a81549073ffffffffffffffffffffffffffffffffffffffff0219169055611b5781611c4d565b50565b670c7d713b49da0000611b6c82611a49565b1115611ba4576040517febea1b9800000000000000000000000000000000000000000000000000000000815260040160405180910390fd5b50565b5f810315611bdd57611bdc8230838673ffffffffffffffffffffffffffffffffffffffff16611d0e909392919063ffffffff16565b5b505050565b5f810315611c1657611c1582828573ffffffffffffffffffffffffffffffffffffffff16611d909092919063ffffffff16565b5b505050565b5f5f670de0b6b3a764000084611c3191906129de565b9050828181611c4357611c42612a1f565b5b0491505092915050565b5f5f5f9054906101000a900473ffffffffffffffffffffffffffffffffffffffff169050815f5f6101000a81548173ffffffffffffffffffffffffffffffffffffffff021916908373ffffffffffffffffffffffffffffffffffffffff1602179055508173ffffffffffffffffffffffffffffffffffffffff168173ffffffffffffffffffffffffffffffffffffffff167f8be0079c531659141344cd1fd0a4f28419497f9722a3daafe3b4186f6b6457e060405160405180910390a35050565b611d8a848573ffffffffffffffffffffffffffffffffffffffff166323b872dd868686604051602401611d4393929190612af6565b604051602081830303815290604052915060e01b6020820180517bffffffffffffffffffffffffffffffffffffffffffffffffffffffff8381831617835250505050611e0f565b50505050565b611e0a838473ffffffffffffffffffffffffffffffffffffffff1663a9059cbb8585604051602401611dc3929190612733565b604051602081830303815290604052915060e01b6020820180517bffffffffffffffffffffffffffffffffffffffffffffffffffffffff8381831617835250505050611e0f565b505050565b5f5f60205f8451602086015f885af180611e2e576040513d5f823e3d81fd5b3d92505f519150505f8214611e47576001811415611e62565b5f8473ffffffffffffffffffffffffffffffffffffffff163b145b15611ea457836040517f5274afe7000000000000000000000000000000000000000000000000000000008152600401611e9b91906121fe565b60405180910390fd5b50505050565b60405180608001604052805f73ffffffffffffffffffffffffffffffffffffffff1681526020015f73ffffffffffffffffffffffffffffffffffffffff1681526020015f81526020015f81525090565b5f604051905090565b5f5ffd5b5f5ffd5b5f819050919050565b611f1d81611f0b565b8114611f27575f5ffd5b50565b5f81359050611f3881611f14565b92915050565b5f5f60408385031215611f5457611f53611f03565b5b5f611f6185828601611f2a565b9250506020611f7285828601611f2a565b9150509250929050565b5f60208284031215611f9157611f90611f03565b5b5f611f9e84828501611f2a565b91505092915050565b611fb081611f0b565b82525050565b5f602082019050611fc95f830184611fa7565b92915050565b5f5ffd5b5f601f19601f8301169050919050565b7f4e487b71000000000000000000000000000000000000000000000000000000005f52604160045260245ffd5b61201982611fd3565b810181811067ffffffffffffffff8211171561203857612037611fe3565b5b80604052505050565b5f61204a611efa565b90506120568282612010565b919050565b5f67ffffffffffffffff82111561207557612074611fe3565b5b602082029050602081019050919050565b5f5ffd5b5f73ffffffffffffffffffffffffffffffffffffffff82169050919050565b5f6120b38261208a565b9050919050565b6120c3816120a9565b81146120cd575f5ffd5b50565b5f813590506120de816120ba565b92915050565b5f6120f66120f18461205b565b612041565b9050808382526020820190506020840283018581111561211957612118612086565b5b835b81811015612142578061212e88826120d0565b84526020840193505060208101905061211b565b5050509392505050565b5f82601f8301126121605761215f611fcf565b5b81356121708482602086016120e4565b91505092915050565b5f5f6040838503121561218f5761218e611f03565b5b5f83013567ffffffffffffffff8111156121ac576121ab611f07565b5b6121b88582860161214c565b925050602083013567ffffffffffffffff8111156121d9576121d8611f07565b5b6121e58582860161214c565b9150509250929050565b6121f8816120a9565b82525050565b5f6020820190506122115f8301846121ef565b92915050565b5f612221826120a9565b9050919050565b61223181612217565b811461223b575f5ffd5b50565b5f8135905061224c81612228565b92915050565b5f5ffd5b5f5f83601f84011261226b5761226a611fcf565b5b8235905067ffffffffffffffff81111561228857612287612252565b5b6020830191508360018202830111156122a4576122a3612086565b5b9250929050565b5f5f5f5f5f608086880312156122c4576122c3611f03565b5b5f6122d18882890161223e565b95505060206122e2888289016120d0565b94505060406122f388828901611f2a565b935050606086013567ffffffffffffffff81111561231457612313611f07565b5b61232088828901612256565b92509250509295509295909350565b5f8115159050919050565b6123438161232f565b82525050565b5f60208201905061235c5f83018461233a565b92915050565b5f6020828403121561237757612376611f03565b5b5f612384848285016120d0565b91505092915050565b5f5f604083850312156123a3576123a2611f03565b5b5f6123b0858286016120d0565b92505060206123c185828601611f2a565b9150509250929050565b5f5f5f606084860312156123e2576123e1611f03565b5b5f6123ef86828701611f2a565b935050602061240086828701611f2a565b925050604061241186828701611f2a565b9150509250925092565b5f5f5f6060848603121561243257612431611f03565b5b5f61243f868287016120d0565b935050602061245086828701611f2a565b925050604061246186828701611f2a565b9150509250925092565b5f819050919050565b61247d8161246b565b82525050565b5f6020820190506124965f830184612474565b92915050565b6124a5816120a9565b82525050565b6124b481611f0b565b82525050565b608082015f8201516124ce5f85018261249c565b5060208201516124e1602085018261249c565b5060408201516124f460408501826124ab565b50606082015161250760608501826124ab565b50505050565b5f6080820190506125205f8301846124ba565b92915050565b5f81519050919050565b5f82825260208201905092915050565b5f819050602082019050919050565b5f61255a83836124ab565b60208301905092915050565b5f602082019050919050565b5f61257c82612526565b6125868185612530565b935061259183612540565b805f5b838110156125c15781516125a8888261254f565b97506125b383612566565b925050600181019050612594565b5085935050505092915050565b5f6020820190508181035f8301526125e68184612572565b905092915050565b5f82825260208201905092915050565b7f4c656e677468204d69736d6174636800000000000000000000000000000000005f82015250565b5f612632600f836125ee565b915061263d826125fe565b602082019050919050565b5f6020820190508181035f83015261265f81612626565b9050919050565b7f4e487b71000000000000000000000000000000000000000000000000000000005f52603260045260245ffd5b5f60ff82169050919050565b6126a881612693565b81146126b2575f5ffd5b50565b5f815190506126c38161269f565b92915050565b5f602082840312156126de576126dd611f03565b5b5f6126eb848285016126b5565b91505092915050565b5f8151905061270281611f14565b92915050565b5f6020828403121561271d5761271c611f03565b5b5f61272a848285016126f4565b91505092915050565b5f6040820190506127465f8301856121ef565b6127536020830184611fa7565b9392505050565b5f819050919050565b5f819050919050565b5f61278661278161277c8461275a565b612763565b611f0b565b9050919050565b6127968161276c565b82525050565b5f82825260208201905092915050565b828183375f83830152505050565b5f6127c5838561279c565b93506127d28385846127ac565b6127db83611fd3565b840190509392505050565b5f60a0820190506127f95f8301896121ef565b61280660208301886121ef565b6128136040830187611fa7565b612820606083018661278d565b81810360808301526128338184866127ba565b9050979650505050505050565b6128498161246b565b8114612853575f5ffd5b50565b5f8151905061286481612840565b92915050565b5f6020828403121561287f5761287e611f03565b5b5f61288c84828501612856565b91505092915050565b7f4e487b71000000000000000000000000000000000000000000000000000000005f52601160045260245ffd5b5f6128cc82611f0b565b91506128d783611f0b565b92508282019050808211156128ef576128ee612895565b5b92915050565b5f69ffffffffffffffffffff82169050919050565b612913816128f5565b811461291d575f5ffd5b50565b5f8151905061292e8161290a565b92915050565b5f819050919050565b61294681612934565b8114612950575f5ffd5b50565b5f815190506129618161293d565b92915050565b5f5f5f5f5f60a086880312156129805761297f611f03565b5b5f61298d88828901612920565b955050602061299e88828901612953565b94505060406129af888289016126f4565b93505060606129c0888289016126f4565b92505060806129d188828901612920565b9150509295509295909350565b5f6129e882611f0b565b91506129f383611f0b565b9250828202612a0181611f0b565b91508282048414831517612a1857612a17612895565b5b5092915050565b7f4e487b71000000000000000000000000000000000000000000000000000000005f52601260045260245ffd5b5f612a5682611f0b565b9150612a6183611f0b565b925082612a7157612a70612a1f565b5b828204905092915050565b5f612a8682611f0b565b91507fffffffffffffffffffffffffffffffffffffffffffffffffffffffffffffffff8203612ab857612ab7612895565b5b600182019050919050565b5f612acd82611f0b565b9150612ad883611f0b565b9250828203905081811115612af057612aef612895565b5b92915050565b5f606082019050612b095f8301866121ef565b612b1660208301856121ef565b612b236040830184611fa7565b94935050505056fea264697066735822122076e756eee2d617b0ce356a302a2edbfde96310626f1021201e882c3dd0ce3d3d64736f6c634300081e0033","linkReferences":{}},"methodIdentifiers":{"FLASHLOAN_SUCCESS_CALLBACK()":"e27490aa","LIQ_LTV()":"9d6a7a43","MAX_LOAN()":"61755432","MAX_LTV()":"81bf8d3d","acceptOwnership()":"79ba5097","addSupportedCollateralTokens(address[],address[])":"4b7f11a7","burnStblUSD(uint256,uint256)":"2dccd02f","depositCollateral(uint256,uint256)":"ece13732","depositCollateralAndMintStblUSD(uint256,uint256,uint256)":"b768d61e","flashFee(address,uint256)":"d9d98ce4","flashLoan(address,address,uint256,bytes)":"5cffe9de","getPosition(uint256)":"eb02c301","getPositionCollateralValue(uint256)":"1d45558e","getPositionLTV(uint256)":"8044626d","getStblUSD()":"55b74db0","getTokenUsdValue(address,uint256)":"73b267d7","getUserPositionIds(address)":"eddf7570","liquidate(uint256)":"415f1240","maxFlashLoan(address)":"613255ab","mintStblUSD(uint256,uint256)":"ac8231a0","openPosition(address,uint256,uint256)":"c5654acc","owner()":"8da5cb5b","pendingOwner()":"e30c3978","redeemCollateral(uint256,uint256)":"04d45c4f","redeemCollateralAndBurnStblUSD(uint256,uint256,uint256)":"e16437bc","renounceOwnership()":"715018a6","transferOwnership(address)":"f2fde38b","updateTreasury(address)":"7f51bb1f"},"id":51}