{"abi":[{"type":"constructor","inputs":[{"name":"_stblUSD","type":"address","internalType":"address"},{"name":"treasury","type":"address","internalType":"address"}],"stateMutability":"nonpayable"},{"type":"function","name":"FLASHLOAN_SUCCESS_CALLBACK","inputs":[],"outputs":[{"name":"","type":"bytes32","internalType":"bytes32"}],"stateMutability":"view"},{"type":"function","name":"LIQ_LTV","inputs":[],"outputs":[{"name":"","type":"uint256","internalType":"uint256"}],"stateMutability":"view"},{"type":"function","name":"MAX_LOAN","inputs":[],"outputs":[{"name":"","type":"uint256","internalType":"uint256"}],"stateMutability":"view"},{"type":"function","name":"MAX_LTV","inputs":[],"outputs":[{"name":"","type":"uint256","internalType":"uint256"}],"stateMutability":"view"},{"type":"function","name":"acceptOwnership","inputs":[],"outputs":[],"stateMutability":"nonpayable"},{"type":"function","name":"addSupportedCollateralTokens","inputs":[{"name":"collateralTokens","type":"address[]","internalType":"address[]"},{"name":"priceFeedAddress","type":"address[]","internalType":"address[]"}],"outputs":[],"stateMutability":"nonpayable"},{"type":"function","name":"burnStblUSD","inputs":[{"name":"positionId","type":"uint256","internalType":"uint256"},{"name":"amountToBurn","type":"uint256","internalType":"uint256"}],"outputs":[],"stateMutability":"nonpayable"},{"type":"function","name":"depositCollateral","inputs":[{"name":"positionId","type":"uint256","internalType":"uint256"},{"name":"amountCollateral","type":"uint256","internalType":"uint256"}],"outputs":[],"stateMutability":"nonpayable"},{"type":"function","name":"depositCollateralAndMintStblUSD","inputs":[{"name":"positionId","type":"uint256","internalType":"uint256"},{"name":"amountCollateral","type":"uint256","internalType":"uint256"},{"name":"amountToMint","type":"uint256","internalType":"uint256"}],"outputs":[],"stateMutability":"nonpayable"},{"type":"function","name":"flashFee","inputs":[{"name":"token","type":"address","internalType":"address"},{"name":"amount","type":"uint256","internalType":"uint256"}],"outputs":[{"name":"","type":"uint256","internalType":"uint256"}],"stateMutability":"view"},{"type":"function","name":"flashLoan","inputs":[{"name":"receiver","type":"address","internalType":"contract IERC3156FlashBorrower"},{"name":"loanToken","type":"address","internalType":"address"},{"name":"amountLoan","type":"uint256","internalType":"uint256"},{"name":"data","type":"bytes","internalType":"bytes"}],"outputs":[{"name":"success","type":"bool","internalType":"bool"}],"stateMutability":"nonpayable"},{"type":"function","name":"getPosition","inputs":[{"name":"positionId","type":"uint256","internalType":"uint256"}],"outputs":[{"name":"","type":"tuple","internalType":"struct Position","components":[{"name":"owner","type":"address","internalType":"address"},{"name":"collateralToken","type":"address","internalType":"address"},{"name":"collateralDeposited","type":"uint256","internalType":"uint256"},{"name":"stblUSDMinted","type":"uint256","internalType":"uint256"}]}],"stateMutability":"view"},{"type":"function","name":"getPositionCollateralValue","inputs":[{"name":"positionId","type":"uint256","internalType":"uint256"}],"outputs":[{"name":"totalCollateralValueInUsd","type":"uint256","internalType":"uint256"}],"stateMutability":"view"},{"type":"function","name":"getPositionLTV","inputs":[{"name":"positionId","type":"uint256","internalType":"uint256"}],"outputs":[{"name":"","type":"uint256","internalType":"uint256"}],"stateMutability":"view"},{"type":"function","name":"getStblUSD","inputs":[],"outputs":[{"name":"","type":"address","internalType":"address"}],"stateMutability":"view"},{"type":"function","name":"getTokenUsdValue","inputs":[{"name":"token","type":"address","internalType":"address"},{"name":"amount","type":"uint256","internalType":"uint256"}],"outputs":[{"name":"","type":"uint256","internalType":"uint256"}],"stateMutability":"view"},{"type":"function","name":"getUserPositionIds","inputs":[{"name":"user","type":"address","internalType":"address"}],"outputs":[{"name":"","type":"uint256[]","internalType":"uint256[]"}],"stateMutability":"view"},{"type":"function","name":"liquidate","inputs":[{"name":"positionId","type":"uint256","internalType":"uint256"}],"outputs":[],"stateMutability":"nonpayable"},{"type":"function","name":"maxFlashLoan","inputs":[{"name":"token","type":"address","internalType":"address"}],"outputs":[{"name":"","type":"uint256","internalType":"uint256"}],"stateMutability":"view"},{"type":"function","name":"mintStblUSD","inputs":[{"name":"positionId","type":"uint256","internalType":"uint256"},{"name":"amountToMint","type":"uint256","internalType":"uint256"}],"outputs":[],"stateMutability":"nonpayable"},{"type":"function","name":"openPosition","inputs":[{"name":"collateralToken","type":"address","internalType":"address"},{"name":"amountCollateral","type":"uint256","internalType":"uint256"},{"name":"amountToMint","type":"uint256","internalType":"uint256"}],"outputs":[{"name":"positionId","type":"uint256","internalType":"uint256"}],"stateMutability":"nonpayable"},{"type":"function","name":"owner","inputs":[],"outputs":[{"name":"","type":"address","internalType":"address"}],"stateMutability":"view"},{"type":"function","name":"pendingOwner","inputs":[],"outputs":[{"name":"","type":"address","internalType":"address"}],"stateMutability":"view"},{"type":"function","name":"redeemCollateral","inputs":[{"name":"positionId","type":"uint256","internalType":"uint256"},{"name":"amountCollateral","type":"uint256","internalType":"uint256"}],"outputs":[],"stateMutability":"nonpayable"},{"type":"function","name":"redeemCollateralAndBurnStblUSD","inputs":[{"name":"positionId","type":"uint256","internalType":"uint256"},{"name":"amountCollateral","type":"uint256","internalType":"uint256"},{"name":"amountToBurn","type":"uint256","internalType":"uint256"}],"outputs":[],"stateMutability":"nonpayable"},{"type":"function","name":"renounceOwnership","inputs":[],"outputs":[],"stateMutability":"nonpayable"},{"type":"function","name":"transferOwnership","inputs":[{"name":"newOwner","type":"address","internalType":"address"}],"outputs":[],"stateMutability":"nonpayable"},{"type":"function","name":"updatePositionOwner","inputs":[{"name":"positionId","type":"uint256","internalType":"uint256"},{"name":"newOwner","type":"address","internalType":"address"}],"outputs":[],"stateMutability":"nonpayable"},{"type":"function","name":"updateTreasury","inputs":[{"name":"newTreasuryAddress","type":"address","internalType":"address"}],"outputs":[],"stateMutability":"nonpayable"},{"type":"event","name":"OwnershipTransferStarted","inputs":[{"name":"previousOwner","type":"address","indexed":true,"internalType":"address"},{"name":"newOwner","type":"address","indexed":true,"internalType":"address"}],"anonymous":false},{"type":"event","name":"OwnershipTransferred","inputs":[{"name":"previousOwner","type":"address","indexed":true,"internalType":"address"},{"name":"newOwner","type":"address","indexed":true,"internalType":"address"}],"anonymous":false},{"type":"error","name":"OwnableInvalidOwner","inputs":[{"name":"owner","type":"address","internalType":"address"}]},{"type":"error","name":"OwnableUnauthorizedAccount","inputs":[{"name":"account","type":"address","internalType":"address"}]},{"type":"error","name":"PositionManager__CannotBeZeroAddress","inputs":[]},{"type":"error","name":"PositionManager__FlashMintCallbackFailed","inputs":[]},{"type":"error","name":"PositionManager__FlashMintNotRepaid","inputs":[]},{"type":"error","name":"PositionManager__InvalidFlashLoanToken","inputs":[]},{"type":"error","name":"PositionManager__InvalidPriceFeedAddress","inputs":[]},{"type":"error","name":"PositionManager__InvalidReceiverAddress","inputs":[]},{"type":"error","name":"PositionManager__InvalidTokenAddress","inputs":[]},{"type":"error","name":"PositionManager__IsUnderLiqLTV","inputs":[]},{"type":"error","name":"PositionManager__MintExceedsMaxLTV","inputs":[]},{"type":"error","name":"PositionManager__NotThePositionOwner","inputs":[]},{"type":"error","name":"PositionManager__UnsupportedCollateralToken","inputs":[]},{"type":"error","name":"PositionManager__ValueCannotBeZero","inputs":[]},{"type":"error","name":"SafeERC20FailedOperation","inputs":[{"name":"token","type":"address","internalType":"address"}]}],"bytecode":{"object":"0x60a060405234801561000f575f5ffd5b5060405161310138038061310183398181016040528101906100319190610282565b335f73ffffffffffffffffffffffffffffffffffffffff168173ffffffffffffffffffffffffffffffffffffffff16036100a2575f6040517f1e4fbdf700000000000000000000000000000000000000000000000000000000815260040161009991906102cf565b60405180910390fd5b6100b18161012d60201b60201c565b508173ffffffffffffffffffffffffffffffffffffffff1660808173ffffffffffffffffffffffffffffffffffffffff16815250508060065f6101000a81548173ffffffffffffffffffffffffffffffffffffffff021916908373ffffffffffffffffffffffffffffffffffffffff16021790555050506102e8565b60015f6101000a81549073ffffffffffffffffffffffffffffffffffffffff02191690556101608161016360201b60201c565b50565b5f5f5f9054906101000a900473ffffffffffffffffffffffffffffffffffffffff169050815f5f6101000a81548173ffffffffffffffffffffffffffffffffffffffff021916908373ffffffffffffffffffffffffffffffffffffffff1602179055508173ffffffffffffffffffffffffffffffffffffffff168173ffffffffffffffffffffffffffffffffffffffff167f8be0079c531659141344cd1fd0a4f28419497f9722a3daafe3b4186f6b6457e060405160405180910390a35050565b5f5ffd5b5f73ffffffffffffffffffffffffffffffffffffffff82169050919050565b5f61025182610228565b9050919050565b61026181610247565b811461026b575f5ffd5b50565b5f8151905061027c81610258565b92915050565b5f5f6040838503121561029857610297610224565b5b5f6102a58582860161026e565b92505060206102b68582860161026e565b9150509250929050565b6102c981610247565b82525050565b5f6020820190506102e25f8301846102c0565b92915050565b608051612dc96103385f395f8181610afe01528181610b5f01528181610c4a01528181610ce401528181610daa01528181610e6801528181610f47015281816114f70152611be70152612dc95ff3fe608060405234801561000f575f5ffd5b50600436106101cd575f3560e01c80638044626d11610102578063d9d98ce4116100a0578063eb02c3011161006f578063eb02c30114610503578063ece1373214610533578063eddf75701461054f578063f2fde38b1461057f576101cd565b8063d9d98ce41461047b578063e16437bc146104ab578063e27490aa146104c7578063e30c3978146104e5576101cd565b80639d6a7a43116100dc5780639d6a7a43146103f5578063ac8231a014610413578063b768d61e1461042f578063c5654acc1461044b576101cd565b80638044626d1461038957806381bf8d3d146103b95780638da5cb5b146103d7576101cd565b8063613255ab1161016f57806373b267d71161014957806373b267d714610317578063751f89061461034757806379ba5097146103635780637f51bb1f1461036d576101cd565b8063613255ab146102bf57806361755432146102ef578063715018a61461030d576101cd565b8063415f1240116101ab578063415f1240146102395780634b7f11a71461025557806355b74db0146102715780635cffe9de1461028f576101cd565b806304d45c4f146101d15780631d45558e146101ed5780632dccd02f1461021d575b5f5ffd5b6101eb60048036038101906101e69190612168565b61059b565b005b610207600480360381019061020291906121a6565b61067c565b60405161021491906121e0565b60405180910390f35b61023760048036038101906102329190612168565b610773565b005b610253600480360381019061024e91906121a6565b6107bd565b005b61026f600480360381019061026a91906123a3565b610851565b005b610279610afb565b6040516102869190612428565b60405180910390f35b6102a960048036038101906102a491906124d5565b610b22565b6040516102b69190612573565b60405180910390f35b6102d960048036038101906102d4919061258c565b610fdd565b6040516102e691906121e0565b60405180910390f35b6102f7611006565b60405161030491906121e0565b60405180910390f35b61031561100d565b005b610331600480360381019061032c91906125b7565b61100f565b60405161033e91906121e0565b60405180910390f35b610361600480360381019061035c91906125f5565b61112d565b005b61036b6112d4565b005b6103876004803603810190610382919061258c565b611362565b005b6103a3600480360381019061039e91906121a6565b6113ad565b6040516103b091906121e0565b60405180910390f35b6103c16113be565b6040516103ce91906121e0565b60405180910390f35b6103df6113ca565b6040516103ec9190612428565b60405180910390f35b6103fd6113f1565b60405161040a91906121e0565b60405180910390f35b61042d60048036038101906104289190612168565b6113fd565b005b61044960048036038101906104449190612633565b6115a5565b005b61046560048036038101906104609190612683565b6115be565b60405161047291906121e0565b60405180910390f35b610495600480360381019061049091906125b7565b61181a565b6040516104a291906121e0565b60405180910390f35b6104c560048036038101906104c09190612633565b611824565b005b6104cf61183d565b6040516104dc91906126eb565b60405180910390f35b6104ed611861565b6040516104fa9190612428565b60405180910390f35b61051d600480360381019061051891906121a6565b611889565b60405161052a9190612775565b60405180910390f35b61054d60048036038101906105489190612168565b611971565b005b6105696004803603810190610564919061258c565b611a0d565b6040516105769190612836565b60405180910390f35b6105996004803603810190610594919061258c565b611aa0565b005b805f81116105d5576040517fc4a8541800000000000000000000000000000000000000000000000000000000815260040160405180910390fd5b60045f8481526020019081526020015f205f015f9054906101000a900473ffffffffffffffffffffffffffffffffffffffff1673ffffffffffffffffffffffffffffffffffffffff163373ffffffffffffffffffffffffffffffffffffffff161461066c576040517fbefca2fb00000000000000000000000000000000000000000000000000000000815260040160405180910390fd5b610677338484611b4c565b505050565b5f5f60045f8481526020019081526020015f206040518060800160405290815f82015f9054906101000a900473ffffffffffffffffffffffffffffffffffffffff1673ffffffffffffffffffffffffffffffffffffffff1673ffffffffffffffffffffffffffffffffffffffff168152602001600182015f9054906101000a900473ffffffffffffffffffffffffffffffffffffffff1673ffffffffffffffffffffffffffffffffffffffff1673ffffffffffffffffffffffffffffffffffffffff16815260200160028201548152602001600382015481525050905061076b8160200151826040015161100f565b915050919050565b805f81116107ad576040517fc4a8541800000000000000000000000000000000000000000000000000000000815260040160405180910390fd5b6107b8338484611bb7565b505050565b5f3390505f6107cb83611c73565b9050670cb2bba6f17b800081101561080f576040517f9c7c781800000000000000000000000000000000000000000000000000000000815260040160405180910390fd5b5f60045f8581526020019081526020015f2090505f816003015490505f8260020154905061083e858783611b4c565b610849858784611bb7565b505050505050565b610859611cc6565b805182511461089d576040517f08c379a0000000000000000000000000000000000000000000000000000000008152600401610894906128b0565b60405180910390fd5b5f5f90505b8251811015610af6575f73ffffffffffffffffffffffffffffffffffffffff168382815181106108d5576108d46128ce565b5b602002602001015173ffffffffffffffffffffffffffffffffffffffff160361092a576040517f8c459d2e00000000000000000000000000000000000000000000000000000000815260040160405180910390fd5b5f73ffffffffffffffffffffffffffffffffffffffff16828281518110610954576109536128ce565b5b602002602001015173ffffffffffffffffffffffffffffffffffffffff1614610a3a575f82828151811061098b5761098a6128ce565b5b602002602001015173ffffffffffffffffffffffffffffffffffffffff1663313ce5676040518163ffffffff1660e01b8152600401602060405180830381865afa1580156109db573d5f5f3e3d5ffd5b505050506040513d601f19601f820116820180604052508101906109ff9190612931565b60ff1611610a39576040517ff747657400000000000000000000000000000000000000000000000000000000815260040160405180910390fd5b5b818181518110610a4d57610a4c6128ce565b5b602002602001015160025f858481518110610a6b57610a6a6128ce565b5b602002602001015173ffffffffffffffffffffffffffffffffffffffff1673ffffffffffffffffffffffffffffffffffffffff1681526020019081526020015f205f6101000a81548173ffffffffffffffffffffffffffffffffffffffff021916908373ffffffffffffffffffffffffffffffffffffffff16021790555080806001019150506108a2565b505050565b5f7f0000000000000000000000000000000000000000000000000000000000000000905090565b5f835f8111610b5d576040517fc4a8541800000000000000000000000000000000000000000000000000000000815260040160405180910390fd5b7f000000000000000000000000000000000000000000000000000000000000000073ffffffffffffffffffffffffffffffffffffffff168673ffffffffffffffffffffffffffffffffffffffff1614610be2576040517fbe35c18500000000000000000000000000000000000000000000000000000000815260040160405180910390fd5b5f73ffffffffffffffffffffffffffffffffffffffff168773ffffffffffffffffffffffffffffffffffffffff1603610c47576040517fad84a63b00000000000000000000000000000000000000000000000000000000815260040160405180910390fd5b5f7f000000000000000000000000000000000000000000000000000000000000000073ffffffffffffffffffffffffffffffffffffffff166370a08231306040518263ffffffff1660e01b8152600401610ca19190612428565b602060405180830381865afa158015610cbc573d5f5f3e3d5ffd5b505050506040513d601f19601f82011682018060405250810190610ce09190612970565b90507f000000000000000000000000000000000000000000000000000000000000000073ffffffffffffffffffffffffffffffffffffffff166340c10f1989886040518363ffffffff1660e01b8152600401610d3d92919061299b565b5f604051808303815f87803b158015610d54575f5ffd5b505af1158015610d66573d5f5f3e3d5ffd5b505050507f439148f0bbc682ca079e46d6e2c2f0c1e3b820f1a291b069d8882abf8cf18dd98873ffffffffffffffffffffffffffffffffffffffff166323e30c8b337f00000000000000000000000000000000000000000000000000000000000000008a5f8b8b6040518763ffffffff1660e01b8152600401610dee96959493929190612a4e565b6020604051808303815f875af1158015610e0a573d5f5f3e3d5ffd5b505050506040513d601f19601f82011682018060405250810190610e2e9190612ad2565b14610e65576040517f945788e300000000000000000000000000000000000000000000000000000000815260040160405180910390fd5b5f7f000000000000000000000000000000000000000000000000000000000000000073ffffffffffffffffffffffffffffffffffffffff166370a08231306040518263ffffffff1660e01b8152600401610ebf9190612428565b602060405180830381865afa158015610eda573d5f5f3e3d5ffd5b505050506040513d601f19601f82011682018060405250810190610efe9190612970565b90508682610f0c9190612b2a565b811015610f45576040517f1f2e663e00000000000000000000000000000000000000000000000000000000815260040160405180910390fd5b7f000000000000000000000000000000000000000000000000000000000000000073ffffffffffffffffffffffffffffffffffffffff16639dc29fac30896040518363ffffffff1660e01b8152600401610fa092919061299b565b5f604051808303815f87803b158015610fb7575f5ffd5b505af1158015610fc9573d5f5f3e3d5ffd5b505050506001935050505095945050505050565b5f7fffffffffffffffffffffffffffffffffffffffffffffffffffffffffffffffff9050919050565b6276a70081565b565b5f5f820361101f575f9050611127565b5f60025f8573ffffffffffffffffffffffffffffffffffffffff1673ffffffffffffffffffffffffffffffffffffffff1681526020019081526020015f205f9054906101000a900473ffffffffffffffffffffffffffffffffffffffff1690505f8173ffffffffffffffffffffffffffffffffffffffff1663feaf968c6040518163ffffffff1660e01b815260040160a060405180830381865afa1580156110c9573d5f5f3e3d5ffd5b505050506040513d601f19601f820116820180604052508101906110ed9190612bcf565b505050915050670de0b6b3a7640000846402540be4008361110e9190612c46565b6111189190612c46565b6111229190612cb4565b925050505b92915050565b5f73ffffffffffffffffffffffffffffffffffffffff168173ffffffffffffffffffffffffffffffffffffffff1603611192576040517fb7c9aa5300000000000000000000000000000000000000000000000000000000815260040160405180910390fd5b5f60045f8481526020019081526020015f209050805f015f9054906101000a900473ffffffffffffffffffffffffffffffffffffffff1673ffffffffffffffffffffffffffffffffffffffff163373ffffffffffffffffffffffffffffffffffffffff161461122d576040517fbefca2fb00000000000000000000000000000000000000000000000000000000815260040160405180910390fd5b81815f015f6101000a81548173ffffffffffffffffffffffffffffffffffffffff021916908373ffffffffffffffffffffffffffffffffffffffff16021790555060055f8373ffffffffffffffffffffffffffffffffffffffff1673ffffffffffffffffffffffffffffffffffffffff1681526020019081526020015f2083908060018154018082558091505060019003905f5260205f20015f9091909190915055505050565b5f6112dd611d4d565b90508073ffffffffffffffffffffffffffffffffffffffff166112fe611861565b73ffffffffffffffffffffffffffffffffffffffff161461135657806040517f118cdaa700000000000000000000000000000000000000000000000000000000815260040161134d9190612428565b60405180910390fd5b61135f81611d54565b50565b61136a611cc6565b8060065f6101000a81548173ffffffffffffffffffffffffffffffffffffffff021916908373ffffffffffffffffffffffffffffffffffffffff16021790555050565b5f6113b782611c73565b9050919050565b670c7d713b49da000081565b5f5f5f9054906101000a900473ffffffffffffffffffffffffffffffffffffffff16905090565b670cb2bba6f17b800081565b805f8111611437576040517fc4a8541800000000000000000000000000000000000000000000000000000000815260040160405180910390fd5b5f60045f8581526020019081526020015f209050805f015f9054906101000a900473ffffffffffffffffffffffffffffffffffffffff1673ffffffffffffffffffffffffffffffffffffffff163373ffffffffffffffffffffffffffffffffffffffff16146114d2576040517fbefca2fb00000000000000000000000000000000000000000000000000000000815260040160405180910390fd5b82816003015f8282546114e59190612b2a565b925050819055506114f584611d84565b7f000000000000000000000000000000000000000000000000000000000000000073ffffffffffffffffffffffffffffffffffffffff166340c10f19825f015f9054906101000a900473ffffffffffffffffffffffffffffffffffffffff16856040518363ffffffff1660e01b815260040161157292919061299b565b5f604051808303815f87803b158015611589575f5ffd5b505af115801561159b573d5f5f3e3d5ffd5b5050505050505050565b6115af8383611971565b6115b983826113fd565b505050565b5f835f73ffffffffffffffffffffffffffffffffffffffff1660025f8373ffffffffffffffffffffffffffffffffffffffff1673ffffffffffffffffffffffffffffffffffffffff1681526020019081526020015f205f9054906101000a900473ffffffffffffffffffffffffffffffffffffffff1673ffffffffffffffffffffffffffffffffffffffff1603611681576040517fc086bcd300000000000000000000000000000000000000000000000000000000815260040160405180910390fd5b5f33905060035492505f60405180608001604052808373ffffffffffffffffffffffffffffffffffffffff1681526020018873ffffffffffffffffffffffffffffffffffffffff1681526020015f81526020015f81525090508060045f8681526020019081526020015f205f820151815f015f6101000a81548173ffffffffffffffffffffffffffffffffffffffff021916908373ffffffffffffffffffffffffffffffffffffffff1602179055506020820151816001015f6101000a81548173ffffffffffffffffffffffffffffffffffffffff021916908373ffffffffffffffffffffffffffffffffffffffff16021790555060408201518160020155606082015181600301559050506117988487876115a5565b60055f8373ffffffffffffffffffffffffffffffffffffffff1673ffffffffffffffffffffffffffffffffffffffff1681526020019081526020015f2084908060018154018082558091505060019003905f5260205f20015f909190919091505560035f81548092919061180b90612ce4565b91905055505050509392505050565b5f5f905092915050565b61182e8382610773565b611838838361059b565b505050565b7f439148f0bbc682ca079e46d6e2c2f0c1e3b820f1a291b069d8882abf8cf18dd981565b5f60015f9054906101000a900473ffffffffffffffffffffffffffffffffffffffff16905090565b6118916120d4565b60045f8381526020019081526020015f206040518060800160405290815f82015f9054906101000a900473ffffffffffffffffffffffffffffffffffffffff1673ffffffffffffffffffffffffffffffffffffffff1673ffffffffffffffffffffffffffffffffffffffff168152602001600182015f9054906101000a900473ffffffffffffffffffffffffffffffffffffffff1673ffffffffffffffffffffffffffffffffffffffff1673ffffffffffffffffffffffffffffffffffffffff168152602001600282015481526020016003820154815250509050919050565b805f81116119ab576040517fc4a8541800000000000000000000000000000000000000000000000000000000815260040160405180910390fd5b5f60045f8581526020019081526020015f2090506119ed816001015f9054906101000a900473ffffffffffffffffffffffffffffffffffffffff163385611dd1565b82816002015f828254611a009190612b2a565b9250508190555050505050565b606060055f8373ffffffffffffffffffffffffffffffffffffffff1673ffffffffffffffffffffffffffffffffffffffff1681526020019081526020015f20805480602002602001604051908101604052809291908181526020018280548015611a9457602002820191905f5260205f20905b815481526020019060010190808311611a80575b50505050509050919050565b611aa8611cc6565b8060015f6101000a81548173ffffffffffffffffffffffffffffffffffffffff021916908373ffffffffffffffffffffffffffffffffffffffff1602179055508073ffffffffffffffffffffffffffffffffffffffff16611b076113ca565b73ffffffffffffffffffffffffffffffffffffffff167f38d16b8cac22d99fc7c124b9cd0de2d3fa1faef420bfe791d8c362d765e2270060405160405180910390a350565b5f60045f8481526020019081526020015f20905081816002015f828254611b739190612d2b565b92505081905550611b8383611d84565b611bb1816001015f9054906101000a900473ffffffffffffffffffffffffffffffffffffffff168584611e0c565b50505050565b5f60045f8481526020019081526020015f20905081816003015f828254611bde9190612d2b565b925050819055507f000000000000000000000000000000000000000000000000000000000000000073ffffffffffffffffffffffffffffffffffffffff16639dc29fac85846040518363ffffffff1660e01b8152600401611c4092919061299b565b5f604051808303815f87803b158015611c57575f5ffd5b505af1158015611c69573d5f5f3e3d5ffd5b5050505050505050565b5f5f60045f8481526020019081526020015f206003015490505f611c968461067c565b90505f8203611ca9575f92505050611cc1565b611cbc8183611e4590919063ffffffff16565b925050505b919050565b611cce611d4d565b73ffffffffffffffffffffffffffffffffffffffff16611cec6113ca565b73ffffffffffffffffffffffffffffffffffffffff1614611d4b57611d0f611d4d565b6040517f118cdaa7000000000000000000000000000000000000000000000000000000008152600401611d429190612428565b60405180910390fd5b565b5f33905090565b60015f6101000a81549073ffffffffffffffffffffffffffffffffffffffff0219169055611d8181611e77565b50565b670c7d713b49da0000611d9682611c73565b1115611dce576040517febea1b9800000000000000000000000000000000000000000000000000000000815260040160405180910390fd5b50565b5f810315611e0757611e068230838673ffffffffffffffffffffffffffffffffffffffff16611f38909392919063ffffffff16565b5b505050565b5f810315611e4057611e3f82828573ffffffffffffffffffffffffffffffffffffffff16611fba9092919063ffffffff16565b5b505050565b5f5f670de0b6b3a764000084611e5b9190612c46565b9050828181611e6d57611e6c612c87565b5b0491505092915050565b5f5f5f9054906101000a900473ffffffffffffffffffffffffffffffffffffffff169050815f5f6101000a81548173ffffffffffffffffffffffffffffffffffffffff021916908373ffffffffffffffffffffffffffffffffffffffff1602179055508173ffffffffffffffffffffffffffffffffffffffff168173ffffffffffffffffffffffffffffffffffffffff167f8be0079c531659141344cd1fd0a4f28419497f9722a3daafe3b4186f6b6457e060405160405180910390a35050565b611fb4848573ffffffffffffffffffffffffffffffffffffffff166323b872dd868686604051602401611f6d93929190612d5e565b604051602081830303815290604052915060e01b6020820180517bffffffffffffffffffffffffffffffffffffffffffffffffffffffff8381831617835250505050612039565b50505050565b612034838473ffffffffffffffffffffffffffffffffffffffff1663a9059cbb8585604051602401611fed92919061299b565b604051602081830303815290604052915060e01b6020820180517bffffffffffffffffffffffffffffffffffffffffffffffffffffffff8381831617835250505050612039565b505050565b5f5f60205f8451602086015f885af180612058576040513d5f823e3d81fd5b3d92505f519150505f821461207157600181141561208c565b5f8473ffffffffffffffffffffffffffffffffffffffff163b145b156120ce57836040517f5274afe70000000000000000000000000000000000000000000000000000000081526004016120c59190612428565b60405180910390fd5b50505050565b60405180608001604052805f73ffffffffffffffffffffffffffffffffffffffff1681526020015f73ffffffffffffffffffffffffffffffffffffffff1681526020015f81526020015f81525090565b5f604051905090565b5f5ffd5b5f5ffd5b5f819050919050565b61214781612135565b8114612151575f5ffd5b50565b5f813590506121628161213e565b92915050565b5f5f6040838503121561217e5761217d61212d565b5b5f61218b85828601612154565b925050602061219c85828601612154565b9150509250929050565b5f602082840312156121bb576121ba61212d565b5b5f6121c884828501612154565b91505092915050565b6121da81612135565b82525050565b5f6020820190506121f35f8301846121d1565b92915050565b5f5ffd5b5f601f19601f8301169050919050565b7f4e487b71000000000000000000000000000000000000000000000000000000005f52604160045260245ffd5b612243826121fd565b810181811067ffffffffffffffff821117156122625761226161220d565b5b80604052505050565b5f612274612124565b9050612280828261223a565b919050565b5f67ffffffffffffffff82111561229f5761229e61220d565b5b602082029050602081019050919050565b5f5ffd5b5f73ffffffffffffffffffffffffffffffffffffffff82169050919050565b5f6122dd826122b4565b9050919050565b6122ed816122d3565b81146122f7575f5ffd5b50565b5f81359050612308816122e4565b92915050565b5f61232061231b84612285565b61226b565b90508083825260208201905060208402830185811115612343576123426122b0565b5b835b8181101561236c578061235888826122fa565b845260208401935050602081019050612345565b5050509392505050565b5f82601f83011261238a576123896121f9565b5b813561239a84826020860161230e565b91505092915050565b5f5f604083850312156123b9576123b861212d565b5b5f83013567ffffffffffffffff8111156123d6576123d5612131565b5b6123e285828601612376565b925050602083013567ffffffffffffffff81111561240357612402612131565b5b61240f85828601612376565b9150509250929050565b612422816122d3565b82525050565b5f60208201905061243b5f830184612419565b92915050565b5f61244b826122d3565b9050919050565b61245b81612441565b8114612465575f5ffd5b50565b5f8135905061247681612452565b92915050565b5f5ffd5b5f5f83601f840112612495576124946121f9565b5b8235905067ffffffffffffffff8111156124b2576124b161247c565b5b6020830191508360018202830111156124ce576124cd6122b0565b5b9250929050565b5f5f5f5f5f608086880312156124ee576124ed61212d565b5b5f6124fb88828901612468565b955050602061250c888289016122fa565b945050604061251d88828901612154565b935050606086013567ffffffffffffffff81111561253e5761253d612131565b5b61254a88828901612480565b92509250509295509295909350565b5f8115159050919050565b61256d81612559565b82525050565b5f6020820190506125865f830184612564565b92915050565b5f602082840312156125a1576125a061212d565b5b5f6125ae848285016122fa565b91505092915050565b5f5f604083850312156125cd576125cc61212d565b5b5f6125da858286016122fa565b92505060206125eb85828601612154565b9150509250929050565b5f5f6040838503121561260b5761260a61212d565b5b5f61261885828601612154565b9250506020612629858286016122fa565b9150509250929050565b5f5f5f6060848603121561264a5761264961212d565b5b5f61265786828701612154565b935050602061266886828701612154565b925050604061267986828701612154565b9150509250925092565b5f5f5f6060848603121561269a5761269961212d565b5b5f6126a7868287016122fa565b93505060206126b886828701612154565b92505060406126c986828701612154565b9150509250925092565b5f819050919050565b6126e5816126d3565b82525050565b5f6020820190506126fe5f8301846126dc565b92915050565b61270d816122d3565b82525050565b61271c81612135565b82525050565b608082015f8201516127365f850182612704565b5060208201516127496020850182612704565b50604082015161275c6040850182612713565b50606082015161276f6060850182612713565b50505050565b5f6080820190506127885f830184612722565b92915050565b5f81519050919050565b5f82825260208201905092915050565b5f819050602082019050919050565b5f6127c28383612713565b60208301905092915050565b5f602082019050919050565b5f6127e48261278e565b6127ee8185612798565b93506127f9836127a8565b805f5b8381101561282957815161281088826127b7565b975061281b836127ce565b9250506001810190506127fc565b5085935050505092915050565b5f6020820190508181035f83015261284e81846127da565b905092915050565b5f82825260208201905092915050565b7f4c656e677468204d69736d6174636800000000000000000000000000000000005f82015250565b5f61289a600f83612856565b91506128a582612866565b602082019050919050565b5f6020820190508181035f8301526128c78161288e565b9050919050565b7f4e487b71000000000000000000000000000000000000000000000000000000005f52603260045260245ffd5b5f60ff82169050919050565b612910816128fb565b811461291a575f5ffd5b50565b5f8151905061292b81612907565b92915050565b5f602082840312156129465761294561212d565b5b5f6129538482850161291d565b91505092915050565b5f8151905061296a8161213e565b92915050565b5f602082840312156129855761298461212d565b5b5f6129928482850161295c565b91505092915050565b5f6040820190506129ae5f830185612419565b6129bb60208301846121d1565b9392505050565b5f819050919050565b5f819050919050565b5f6129ee6129e96129e4846129c2565b6129cb565b612135565b9050919050565b6129fe816129d4565b82525050565b5f82825260208201905092915050565b828183375f83830152505050565b5f612a2d8385612a04565b9350612a3a838584612a14565b612a43836121fd565b840190509392505050565b5f60a082019050612a615f830189612419565b612a6e6020830188612419565b612a7b60408301876121d1565b612a8860608301866129f5565b8181036080830152612a9b818486612a22565b9050979650505050505050565b612ab1816126d3565b8114612abb575f5ffd5b50565b5f81519050612acc81612aa8565b92915050565b5f60208284031215612ae757612ae661212d565b5b5f612af484828501612abe565b91505092915050565b7f4e487b71000000000000000000000000000000000000000000000000000000005f52601160045260245ffd5b5f612b3482612135565b9150612b3f83612135565b9250828201905080821115612b5757612b56612afd565b5b92915050565b5f69ffffffffffffffffffff82169050919050565b612b7b81612b5d565b8114612b85575f5ffd5b50565b5f81519050612b9681612b72565b92915050565b5f819050919050565b612bae81612b9c565b8114612bb8575f5ffd5b50565b5f81519050612bc981612ba5565b92915050565b5f5f5f5f5f60a08688031215612be857612be761212d565b5b5f612bf588828901612b88565b9550506020612c0688828901612bbb565b9450506040612c178882890161295c565b9350506060612c288882890161295c565b9250506080612c3988828901612b88565b9150509295509295909350565b5f612c5082612135565b9150612c5b83612135565b9250828202612c6981612135565b91508282048414831517612c8057612c7f612afd565b5b5092915050565b7f4e487b71000000000000000000000000000000000000000000000000000000005f52601260045260245ffd5b5f612cbe82612135565b9150612cc983612135565b925082612cd957612cd8612c87565b5b828204905092915050565b5f612cee82612135565b91507fffffffffffffffffffffffffffffffffffffffffffffffffffffffffffffffff8203612d2057612d1f612afd565b5b600182019050919050565b5f612d3582612135565b9150612d4083612135565b9250828203905081811115612d5857612d57612afd565b5b92915050565b5f606082019050612d715f830186612419565b612d7e6020830185612419565b612d8b60408301846121d1565b94935050505056fea26469706673582212208768d219bfd91b6ba23197e7101fe43431b3e2ad63517bb6d6bbba1ffbd3cc1d64736f6c634300081e0033","linkReferences":{}},"methodIdentifiers":{"FLASHLOAN_SUCCESS_CALLBACK()":"e27490aa","LIQ_LTV()":"9d6a7a43","MAX_LOAN()":"61755432","MAX_LTV()":"81bf8d3d","acceptOwnership()":"79ba5097","addSupportedCollateralTokens(address[],address[])":"4b7f11a7","burnStblUSD(uint256,uint256)":"2dccd02f","depositCollateral(uint256,uint256)":"ece13732","depositCollateralAndMintStblUSD(uint256,uint256,uint256)":"b768d61e","flashFee(address,uint256)":"d9d98ce4","flashLoan(address,address,uint256,bytes)":"5cffe9de","getPosition(uint256)":"eb02c301","getPositionCollateralValue(uint256)":"1d45558e","getPositionLTV(uint256)":"8044626d","getStblUSD()":"55b74db0","getTokenUsdValue(address,uint256)":"73b267d7","getUserPositionIds(address)":"eddf7570","liquidate(uint256)":"415f1240","maxFlashLoan(address)":"613255ab","mintStblUSD(uint256,uint256)":"ac8231a0","openPosition(address,uint256,uint256)":"c5654acc","owner()":"8da5cb5b","pendingOwner()":"e30c3978","redeemCollateral(uint256,uint256)":"04d45c4f","redeemCollateralAndBurnStblUSD(uint256,uint256,uint256)":"e16437bc","renounceOwnership()":"715018a6","transferOwnership(address)":"f2fde38b","updatePositionOwner(uint256,address)":"751f8906","updateTreasury(address)":"7f51bb1f"},"id":58}